{
  "contractName": "Marketplace",
  "abi": [
    {
      "anonymous": false,
      "inputs": [
        {
          "indexed": true,
          "internalType": "uint256",
          "name": "auctionId",
          "type": "uint256"
        },
        {
          "indexed": false,
          "internalType": "uint256",
          "name": "bid",
          "type": "uint256"
        }
      ],
      "name": "onAuctionBid",
      "type": "event"
    },
    {
      "anonymous": false,
      "inputs": [
        {
          "indexed": true,
          "internalType": "uint256",
          "name": "auctionId",
          "type": "uint256"
        },
        {
          "indexed": true,
          "internalType": "uint256",
          "name": "id",
          "type": "uint256"
        }
      ],
      "name": "onAuctionCancelled",
      "type": "event"
    },
    {
      "anonymous": false,
      "inputs": [
        {
          "indexed": true,
          "internalType": "uint256",
          "name": "auctionId",
          "type": "uint256"
        },
        {
          "indexed": true,
          "internalType": "uint256",
          "name": "id",
          "type": "uint256"
        }
      ],
      "name": "onAuctionClosed",
      "type": "event"
    },
    {
      "anonymous": false,
      "inputs": [
        {
          "indexed": true,
          "internalType": "uint256",
          "name": "auctionId",
          "type": "uint256"
        },
        {
          "indexed": true,
          "internalType": "uint256",
          "name": "id",
          "type": "uint256"
        }
      ],
      "name": "onAuctionCreated",
      "type": "event"
    },
    {
      "anonymous": false,
      "inputs": [
        {
          "indexed": true,
          "internalType": "uint256",
          "name": "auctionId",
          "type": "uint256"
        },
        {
          "indexed": true,
          "internalType": "uint256",
          "name": "id",
          "type": "uint256"
        }
      ],
      "name": "onAuctionFinished",
      "type": "event"
    },
    {
      "anonymous": false,
      "inputs": [
        {
          "indexed": true,
          "internalType": "uint256",
          "name": "collectionId",
          "type": "uint256"
        },
        {
          "indexed": true,
          "internalType": "address",
          "name": "collectionAddress",
          "type": "address"
        },
        {
          "indexed": true,
          "internalType": "address",
          "name": "ownerAddress",
          "type": "address"
        }
      ],
      "name": "onCollectionCreated",
      "type": "event"
    },
    {
      "anonymous": false,
      "inputs": [
        {
          "indexed": true,
          "internalType": "address",
          "name": "user",
          "type": "address"
        },
        {
          "indexed": false,
          "internalType": "uint256",
          "name": "amount",
          "type": "uint256"
        }
      ],
      "name": "onFundsClaimed",
      "type": "event"
    },
    {
      "stateMutability": "nonpayable",
      "type": "fallback"
    },
    {
      "inputs": [],
      "name": "FEE_SELL_PERCENTAGE",
      "outputs": [
        {
          "internalType": "uint256",
          "name": "",
          "type": "uint256"
        }
      ],
      "stateMutability": "view",
      "type": "function",
      "constant": true
    },
    {
      "inputs": [],
      "name": "MINTER_ROLE",
      "outputs": [
        {
          "internalType": "bytes32",
          "name": "",
          "type": "bytes32"
        }
      ],
      "stateMutability": "view",
      "type": "function",
      "constant": true
    },
    {
      "inputs": [],
      "name": "auctionCount",
      "outputs": [
        {
          "internalType": "uint256",
          "name": "",
          "type": "uint256"
        }
      ],
      "stateMutability": "view",
      "type": "function",
      "constant": true
    },
    {
      "inputs": [],
      "name": "collectionCount",
      "outputs": [
        {
          "internalType": "uint256",
          "name": "",
          "type": "uint256"
        }
      ],
      "stateMutability": "view",
      "type": "function",
      "constant": true
    },
    {
      "inputs": [
        {
          "internalType": "address",
          "name": "",
          "type": "address"
        }
      ],
      "name": "userFunds",
      "outputs": [
        {
          "internalType": "uint256",
          "name": "",
          "type": "uint256"
        }
      ],
      "stateMutability": "view",
      "type": "function",
      "constant": true
    },
    {
      "inputs": [
        {
          "internalType": "string",
          "name": "_name",
          "type": "string"
        },
        {
          "internalType": "string",
          "name": "_symbol",
          "type": "string"
        }
      ],
      "name": "createCollection",
      "outputs": [
        {
          "internalType": "address",
          "name": "",
          "type": "address"
        }
      ],
      "stateMutability": "nonpayable",
      "type": "function"
    },
    {
      "inputs": [
        {
          "internalType": "uint256",
          "name": "_collectionId",
          "type": "uint256"
        }
      ],
      "name": "getCollection",
      "outputs": [
        {
          "components": [
            {
              "internalType": "uint256",
              "name": "collectionId",
              "type": "uint256"
            },
            {
              "internalType": "address",
              "name": "collectionAddress",
              "type": "address"
            },
            {
              "internalType": "address",
              "name": "ownerAddress",
              "type": "address"
            }
          ],
          "internalType": "struct Marketplace.CollectionItem",
          "name": "",
          "type": "tuple"
        }
      ],
      "stateMutability": "view",
      "type": "function",
      "constant": true
    },
    {
      "inputs": [
        {
          "internalType": "address",
          "name": "_collectionAddress",
          "type": "address"
        },
        {
          "internalType": "uint256",
          "name": "_id",
          "type": "uint256"
        },
        {
          "internalType": "uint256",
          "name": "_buyItNowPrice",
          "type": "uint256"
        }
      ],
      "name": "createAuction",
      "outputs": [],
      "stateMutability": "nonpayable",
      "type": "function"
    },
    {
      "inputs": [
        {
          "internalType": "address",
          "name": "collectionAddress",
          "type": "address"
        }
      ],
      "name": "getCollectionAuctions",
      "outputs": [
        {
          "internalType": "uint256[]",
          "name": "",
          "type": "uint256[]"
        }
      ],
      "stateMutability": "view",
      "type": "function",
      "constant": true
    },
    {
      "inputs": [
        {
          "internalType": "uint256",
          "name": "_auctionId",
          "type": "uint256"
        }
      ],
      "name": "getAuction",
      "outputs": [
        {
          "components": [
            {
              "internalType": "address",
              "name": "ownerAddress",
              "type": "address"
            },
            {
              "internalType": "address",
              "name": "collectionAddress",
              "type": "address"
            },
            {
              "internalType": "uint256",
              "name": "auctionId",
              "type": "uint256"
            },
            {
              "internalType": "uint256",
              "name": "id",
              "type": "uint256"
            },
            {
              "internalType": "uint256",
              "name": "buyItNowPrice",
              "type": "uint256"
            },
            {
              "internalType": "uint256",
              "name": "initialPrice",
              "type": "uint256"
            },
            {
              "internalType": "enum Marketplace.AuctionStatus",
              "name": "auctionStatus",
              "type": "uint8"
            },
            {
              "internalType": "enum Marketplace.AuctionType",
              "name": "auctionType",
              "type": "uint8"
            }
          ],
          "internalType": "struct Marketplace.AuctionItem",
          "name": "",
          "type": "tuple"
        }
      ],
      "stateMutability": "view",
      "type": "function",
      "constant": true
    },
    {
      "inputs": [
        {
          "internalType": "uint256",
          "name": "_auctionId",
          "type": "uint256"
        }
      ],
      "name": "buyNowAuction",
      "outputs": [],
      "stateMutability": "payable",
      "type": "function",
      "payable": true
    },
    {
      "inputs": [
        {
          "internalType": "uint256",
          "name": "_auctionId",
          "type": "uint256"
        }
      ],
      "name": "cancelAuction",
      "outputs": [],
      "stateMutability": "nonpayable",
      "type": "function"
    },
    {
      "inputs": [],
      "name": "bid",
      "outputs": [],
      "stateMutability": "payable",
      "type": "function",
      "payable": true
    },
    {
      "inputs": [],
      "name": "claimFunds",
      "outputs": [],
      "stateMutability": "nonpayable",
      "type": "function"
    }
  ],
  "bytecode": "0x60806040526000600355600060045534801561001a57600080fd5b50613d218061002a6000396000f3fe6080604052600436106200010f576000357c01000000000000000000000000000000000000000000000000000000009004806399370fea11620000a8578063c9611ab9116200007e578063c9611ab9146200031e578063d53913931462000352578063d57f966b1462000388578063e324bd1f14620003a0576200010f565b806399370fea14620002ca578063abb9405114620002e1578063ac3077731462000306576200010f565b80635a1f3c2811620000ea5780635a1f3c28146200019557806378bd793514620002405780638387c6e1146200027457806396b5a75514620002a5576200010f565b8063176b9b7514620001215780631998aeef14620001635780632ad71573146200016e575b3480156200011c57600080fd5b600080fd5b3480156200012e57600080fd5b5062000146620001403660046200115f565b620003b7565b604051600160a060020a0390911681526020015b60405180910390f35b6200016c600080fd5b005b3480156200017b57600080fd5b506200018660035481565b6040519081526020016200015a565b348015620001a257600080fd5b506200020c620001b4366004620011ca565b60408051606080820183526000808352602080840182905292840181905293845260028083529383902083519182018452805482526001810154600160a060020a039081169383019390935290930154169082015290565b6040805182518152602080840151600160a060020a039081169183019190915292820151909216908201526060016200015a565b3480156200024d57600080fd5b50620002656200025f366004620011ca565b620005fc565b6040516200015a919062001214565b3480156200028157600080fd5b506200018662000293366004620012b3565b60006020819052908152604090205481565b348015620002b257600080fd5b506200016c620002c4366004620011ca565b620006ea565b348015620002d757600080fd5b5062000186600381565b348015620002ee57600080fd5b506200016c62000300366004620012d3565b620008f6565b3480156200031357600080fd5b506200016c62000b61565b3480156200032b57600080fd5b50620003436200033d366004620012b3565b62000c62565b6040516200015a91906200130b565b3480156200035f57600080fd5b50620001867f9f2df0fed2c77648de5860a4cc508cd0818c85b8b8a1ab4ceeef8d981c8956a681565b3480156200039557600080fd5b506200018660045481565b6200016c620003b1366004620011ca565b62000cd0565b6000808383604051620003ca9062001039565b620003d7929190620013a1565b604051809103906000f080158015620003f4573d6000803e3d6000fd5b506040517f2f2ff15d0000000000000000000000000000000000000000000000000000000081527f9f2df0fed2c77648de5860a4cc508cd0818c85b8b8a1ab4ceeef8d981c8956a66004820152336024820152909150600160a060020a03821690632f2ff15d90604401600060405180830381600087803b1580156200047957600080fd5b505af11580156200048e573d6000803e3d6000fd5b50506040517fa22cb46500000000000000000000000000000000000000000000000000000000815233600482015260016024820152600160a060020a038416925063a22cb4659150604401600060405180830381600087803b158015620004f457600080fd5b505af115801562000509573d6000803e3d6000fd5b50506004805460408051606081018252828152600160a060020a038088166020808401918252338486019081526000878152600292839052959095209351845590516001808501805492851673ffffffffffffffffffffffffffffffffffffffff1993841617905594519390910180549390921692169190911790559154859450909250620005989162000ffa565b600455336000818152600560209081526040808320858452909152808220805460ff1916600117905551600160a060020a0385169184917fecbe631ce73f784b71c74c5339317b59e203e339d6773c02526891b8063931c09190a450949350505050565b6200060662001047565b6000828152600160208181526040928390208351610100810185528154600160a060020a0390811682529382015490931691830191909152600281015492820192909252600380830154606083015260048301546080830152600583015460a0830152600683015491929160c084019160ff909116908111156200068e576200068e620011e4565b6003811115620006a257620006a2620011e4565b81526020016006820160019054906101000a900460ff166002811115620006cd57620006cd620011e4565b6002811115620006e157620006e1620011e4565b90525092915050565b600081815260016020526040902060028101548214620007545760405160e560020a62461bcd02815260206004820152601760248201527f41756374696f6e20646f6573206e6f742065786973747300000000000000000060448201526064015b60405180910390fd5b8054600160a060020a03163314620007b25760405160e560020a62461bcd02815260206004820152601e60248201527f41756374696f6e206f776e65722063616e6e6f742063616e63656c206974000060448201526064016200074b565b6000600682015460ff166003811115620007d057620007d0620011e4565b14620008225760405160e560020a62461bcd02815260206004820152601660248201527f41756374696f6e206973206e6f742072756e6e696e670000000000000000000060448201526064016200074b565b600181015460038201546040517f23b872dd0000000000000000000000000000000000000000000000000000000081523060048201523360248201526044810191909152600160a060020a039091169081906323b872dd90606401600060405180830381600087803b1580156200089857600080fd5b505af1158015620008ad573d6000803e3d6000fd5b5050505060068201805460ff1916600390811790915582015460405184907f9c31dd0dfb89b9b275633c46be4dc396661364ff715b47b8ae06201681e7ebc390600090a3505050565b6040517f6352211e000000000000000000000000000000000000000000000000000000008152600481018390528390600160a060020a03821690636352211e90602401602060405180830381865afa15801562000957573d6000803e3d6000fd5b505050506040513d601f19601f820116820180604052508101906200097d9190620013d3565b600160a060020a031633600160a060020a031614620009e25760405160e560020a62461bcd02815260206004820152600f60248201527f4e6f7420746f6b656e206f776e6572000000000000000000000000000000000060448201526064016200074b565b600380546040805161010081018252338152600160a060020a038881166020808401918252838501868152606085018b8152608086018b8152600060a0880181815260c0890182815260e08a018390528b8352600196879052999091208851815490891673ffffffffffffffffffffffffffffffffffffffff199182161782559651818701805491909916971696909617909655915160028501555183890155516004830155915160058201559251600684018054959693959193909260ff199092169190849081111562000abb5762000abb620011e4565b021790555060e082015160068201805461ff00191661010083600281111562000ae85762000ae8620011e4565b02179055505060035462000aff9150600162000ffa565b600355600160a060020a0385166000908152600660209081526040808320805460018101825590845291832090910183905551859183917fd086c941db0dfd32e8d65552faa1a349d3c3fc18b2235a0fe20be668c81feee09190a35050505050565b3360009081526020819052604090205462000be75760405160e560020a62461bcd028152602060048201526024808201527f54686973207573657220686173206e6f2066756e647320746f20626520636c6160448201527f696d65640000000000000000000000000000000000000000000000000000000060648201526084016200074b565b33600081815260208190526040808220805490839055905190929183156108fc02918491818181858888f1935050505015801562000c29573d6000803e3d6000fd5b5060405181815233907f1c355404524eaedf23f07edd324a42ac9a04ef403aa580df4c39547b42566d8f9060200160405180910390a250565b600160a060020a03811660009081526006602090815260409182902080548351818402810184019094528084526060939283018282801562000cc457602002820191906000526020600020905b81548152602001906001019080831162000caf575b50505050509050919050565b60008181526001602052604090206002810154821462000d365760405160e560020a62461bcd02815260206004820152601760248201527f41756374696f6e20646f6573206e6f742065786973747300000000000000000060448201526064016200074b565b805433600160a060020a039091160362000d965760405160e560020a62461bcd02815260206004820152601b60248201527f41756374696f6e206f776e65722063616e6e6f7420627579206974000000000060448201526064016200074b565b6000600682015460ff16600381111562000db45762000db4620011e4565b1462000e065760405160e560020a62461bcd02815260206004820152601660248201527f41756374696f6e206973206e6f742072756e6e696e670000000000000000000060448201526064016200074b565b600081600401541162000e5f5760405160e560020a62461bcd02815260206004820152601660248201527f427579206e6f77206973206e6f7420616c6c6f7765640000000000000000000060448201526064016200074b565b8060040154341462000eb75760405160e560020a62461bcd02815260206004820152601260248201527f496e73756666696369656e742066756e6473000000000000000000000000000060448201526064016200074b565b600062000ed3606462000ecc3460036200100f565b906200101d565b600183015460038401546040517f23b872dd0000000000000000000000000000000000000000000000000000000081523060048201523360248201526044810191909152919250600160a060020a03169081906323b872dd90606401600060405180830381600087803b15801562000f4a57600080fd5b505af115801562000f5f573d6000803e3d6000fd5b5050505060068301805460ff19166002179055600062000f8034846200102b565b8454600160a060020a031660009081526020819052604090205490915062000fa9908262000ffa565b8454600160a060020a0316600090815260208190526040808220929092556003860154915187917fac764b5e3093df07973820131c91169ffd8ac85fd2f8f7329bb83e8ba6299e7291a35050505050565b60006200100882846200140c565b9392505050565b600062001008828462001427565b600062001008828462001449565b60006200100882846200146f565b612862806200148a83390190565b6040518061010001604052806000600160a060020a031681526020016000600160a060020a031681526020016000815260200160008152602001600081526020016000815260200160006003811115620010a557620010a5620011e4565b81526020016000905290565b60e060020a634e487b7102600052604160045260246000fd5b600082601f830112620010dc57600080fd5b813567ffffffffffffffff80821115620010fa57620010fa620010b1565b604051601f8301601f19908116603f01168101908282118183101715620011255762001125620010b1565b816040528381528660208588010111156200113f57600080fd5b836020870160208301376000602085830101528094505050505092915050565b600080604083850312156200117357600080fd5b823567ffffffffffffffff808211156200118c57600080fd5b6200119a86838701620010ca565b93506020850135915080821115620011b157600080fd5b50620011c085828601620010ca565b9150509250929050565b600060208284031215620011dd57600080fd5b5035919050565b60e060020a634e487b7102600052602160045260246000fd5b60038110620012105762001210620011e4565b9052565b600061010082019050600160a060020a038084511683528060208501511660208401525060408301516040830152606083015160608301526080830151608083015260a083015160a083015260c083015160048110620012785762001278620011e4565b8060c08401525060e08301516200129360e0840182620011fd565b5092915050565b600160a060020a0381168114620012b057600080fd5b50565b600060208284031215620012c657600080fd5b813562001008816200129a565b600080600060608486031215620012e957600080fd5b8335620012f6816200129a565b95602085013595506040909401359392505050565b6020808252825182820181905260009190848201906040850190845b81811015620013455783518352928401929184019160010162001327565b50909695505050505050565b6000815180845260005b8181101562001379576020818501810151868301820152016200135b565b818111156200138c576000602083870101525b50601f01601f19169290920160200192915050565b604081526000620013b6604083018562001351565b8281036020840152620013ca818562001351565b95945050505050565b600060208284031215620013e657600080fd5b815162001008816200129a565b60e060020a634e487b7102600052601160045260246000fd5b60008219821115620014225762001422620013f3565b500190565b6000816000190483118215151615620014445762001444620013f3565b500290565b6000826200146a5760e060020a634e487b7102600052601260045260246000fd5b500490565b600082821015620014845762001484620013f3565b50039056fe60806040523480156200001157600080fd5b50604051620028623803806200286283398101604081905262000034916200028c565b818160006200004483826200039e565b5060016200005382826200039e565b506200008091506000905062000071640100000000620000c0810204565b640100000000620000c4810204565b620000b87f9f2df0fed2c77648de5860a4cc508cd0818c85b8b8a1ab4ceeef8d981c8956a662000071640100000000620000c0810204565b505062000470565b3390565b620000d98282640100000000620000dd810204565b5050565b620000f282826401000000006200017b810204565b620000d9576000828152600a60209081526040808320600160a060020a03851684529091529020805460ff1916600117905562000137640100000000620000c0810204565b600160a060020a031681600160a060020a0316837f2f8788117e7eff1d82e926ec794901d17c78024a50270940304540a733656f0d60405160405180910390a45050565b6000918252600a60209081526040808420600160a060020a0393909316845291905290205460ff1690565b7f4e487b7100000000000000000000000000000000000000000000000000000000600052604160045260246000fd5b600082601f830112620001e757600080fd5b81516001604060020a0380821115620002045762000204620001a6565b604051601f8301601f19908116603f011681019082821181831017156200022f576200022f620001a6565b816040528381526020925086838588010111156200024c57600080fd5b600091505b8382101562000270578582018301518183018401529082019062000251565b83821115620002825760008385830101525b9695505050505050565b60008060408385031215620002a057600080fd5b82516001604060020a0380821115620002b857600080fd5b620002c686838701620001d5565b93506020850151915080821115620002dd57600080fd5b50620002ec85828601620001d5565b9150509250929050565b6002810460018216806200030b57607f821691505b60208210810362000345577f4e487b7100000000000000000000000000000000000000000000000000000000600052602260045260246000fd5b50919050565b601f82111562000399576000818152602081206020601f86010481016020861015620003745750805b6020601f860104820191505b81811015620003955782815560010162000380565b5050505b505050565b81516001604060020a03811115620003ba57620003ba620001a6565b620003d281620003cb8454620002f6565b846200034b565b602080601f8311600181146200040e5760008415620003f15750858301515b60028086026008870290910a600019041982161786555062000395565b600085815260208120601f198616915b828110156200043f578886015182559484019460019091019084016200041e565b50858210156200046057878501516008601f88160260020a60001904191681555b5050505050600202600101905550565b6123e280620004806000396000f3fe608060405234801561001057600080fd5b50600436106101ab576000357c010000000000000000000000000000000000000000000000000000000090048063695850fb116100fb578063a22cb465116100b4578063c87b56dd1161008e578063c87b56dd1461037c578063d53913931461038f578063d547741f146103b6578063e985e9c5146103c957600080fd5b8063a22cb46514610343578063b88d4fde14610356578063c2ba47441461036957600080fd5b8063695850fb146102e75780636c8b703f146102fa57806370a082311461030d57806391d148541461032057806395d89b4114610333578063a217fddf1461033b57600080fd5b8063248a9ca31161016857806336568abe1161014257806336568abe1461029b57806342842e0e146102ae5780634f6ccce7146102c15780636352211e146102d457600080fd5b8063248a9ca3146102525780632f2ff15d146102755780632f745c591461028857600080fd5b806301ffc9a7146101b057806306fdde03146101d8578063081812fc146101ed578063095ea7b31461021857806318160ddd1461022d57806323b872dd1461023f575b600080fd5b6101c36101be366004611cd7565b610405565b60405190151581526020015b60405180910390f35b6101e0610416565b6040516101cf9190611d4c565b6102006101fb366004611d5f565b6104a8565b604051600160a060020a0390911681526020016101cf565b61022b610226366004611d94565b610556565b005b6008545b6040519081526020016101cf565b61022b61024d366004611dbe565b61068d565b610231610260366004611d5f565b6000908152600a602052604090206001015490565b61022b610283366004611dfa565b6106c1565b610231610296366004611d94565b6106e7565b61022b6102a9366004611dfa565b610792565b61022b6102bc366004611dbe565b610821565b6102316102cf366004611d5f565b61083c565b6102006102e2366004611d5f565b6108e3565b61022b6102f5366004611eb5565b610971565b6101e0610308366004611d5f565b610b1c565b61023161031b366004611efe565b610bc8565b6101c361032e366004611dfa565b610c65565b6101e0610c90565b610231600081565b61022b610351366004611f19565b610c9f565b61022b610364366004611f55565b610d66565b6101c3610377366004611efe565b610da1565b6101e061038a366004611d5f565b610dcd565b6102317f9f2df0fed2c77648de5860a4cc508cd0818c85b8b8a1ab4ceeef8d981c8956a681565b61022b6103c4366004611dfa565b610efb565b6101c36103d7366004611fd1565b600160a060020a03918216600090815260056020908152604080832093909416825291909152205460ff1690565b600061041082610f21565b92915050565b60606000805461042590611ffb565b80601f016020809104026020016040519081016040528092919081815260200182805461045190611ffb565b801561049e5780601f106104735761010080835404028352916020019161049e565b820191906000526020600020905b81548152906001019060200180831161048157829003601f168201915b5050505050905090565b600081815260026020526040812054600160a060020a031661053a5760405160e560020a62461bcd02815260206004820152602c60248201527f4552433732313a20617070726f76656420717565727920666f72206e6f6e657860448201527f697374656e7420746f6b656e000000000000000000000000000000000000000060648201526084015b60405180910390fd5b50600090815260046020526040902054600160a060020a031690565b6000610561826108e3565b905080600160a060020a031683600160a060020a0316036105ed5760405160e560020a62461bcd02815260206004820152602160248201527f4552433732313a20617070726f76616c20746f2063757272656e74206f776e6560448201527f72000000000000000000000000000000000000000000000000000000000000006064820152608401610531565b33600160a060020a0382161480610609575061060981336103d7565b61067e5760405160e560020a62461bcd02815260206004820152603860248201527f4552433732313a20617070726f76652063616c6c6572206973206e6f74206f7760448201527f6e6572206e6f7220617070726f76656420666f7220616c6c00000000000000006064820152608401610531565b6106888383610f5f565b505050565b6106973382610fda565b6106b65760405160e560020a62461bcd02815260040161053190612038565b6106888383836110e5565b6000828152600a60205260409020600101546106dd81336112d0565b6106888383611337565b60006106f283610bc8565b82106107695760405160e560020a62461bcd02815260206004820152602b60248201527f455243373231456e756d657261626c653a206f776e657220696e646578206f7560448201527f74206f6620626f756e64730000000000000000000000000000000000000000006064820152608401610531565b50600160a060020a03919091166000908152600660209081526040808320938352929052205490565b600160a060020a03811633146108135760405160e560020a62461bcd02815260206004820152602f60248201527f416363657373436f6e74726f6c3a2063616e206f6e6c792072656e6f756e636560448201527f20726f6c657320666f722073656c6600000000000000000000000000000000006064820152608401610531565b61081d82826113bd565b5050565b61068883838360405180602001604052806000815250610d66565b600061084760085490565b82106108be5760405160e560020a62461bcd02815260206004820152602c60248201527f455243373231456e756d657261626c653a20676c6f62616c20696e646578206f60448201527f7574206f6620626f756e647300000000000000000000000000000000000000006064820152608401610531565b600882815481106108d1576108d1612095565b90600052602060002001549050919050565b600081815260026020526040812054600160a060020a0316806104105760405160e560020a62461bcd02815260206004820152602960248201527f4552433732313a206f776e657220717565727920666f72206e6f6e657869737460448201527f656e7420746f6b656e00000000000000000000000000000000000000000000006064820152608401610531565b61099b7f9f2df0fed2c77648de5860a4cc508cd0818c85b8b8a1ab4ceeef8d981c8956a633610c65565b610a105760405160e560020a62461bcd02815260206004820152603d60248201527f4552433732315072657365744d696e7465725061757365724175746f49643a2060448201527f6d7573742068617665206d696e74657220726f6c6520746f206d696e740000006064820152608401610531565b600c81604051610a2091906120ae565b9081526040519081900360200190205460ff1615610a835760405160e560020a62461bcd02815260206004820152601e60248201527f54686520746f6b656e205552492073686f756c6420626520756e6971756500006044820152606401610531565b600b80546001810182556000919091527f0175b7a638427703f0dbe7bb9bbf987a2551717b34e79f33b5b1008d1fa01db901610abf8282612118565b50600b546000818152600d60205260409020610adb8382612118565b50610ae63382611424565b6001600c83604051610af891906120ae565b908152604051908190036020019020805491151560ff199092169190911790555050565b600b8181548110610b2c57600080fd5b906000526020600020016000915090508054610b4790611ffb565b80601f0160208091040260200160405190810160405280929190818152602001828054610b7390611ffb565b8015610bc05780601f10610b9557610100808354040283529160200191610bc0565b820191906000526020600020905b815481529060010190602001808311610ba357829003601f168201915b505050505081565b6000600160a060020a038216610c495760405160e560020a62461bcd02815260206004820152602a60248201527f4552433732313a2062616c616e636520717565727920666f7220746865207a6560448201527f726f2061646472657373000000000000000000000000000000000000000000006064820152608401610531565b50600160a060020a031660009081526003602052604090205490565b6000918252600a60209081526040808420600160a060020a0393909316845291905290205460ff1690565b60606001805461042590611ffb565b33600160a060020a03831603610cfa5760405160e560020a62461bcd02815260206004820152601960248201527f4552433732313a20617070726f766520746f2063616c6c6572000000000000006044820152606401610531565b336000818152600560209081526040808320600160a060020a03871680855290835292819020805460ff191686151590811790915590519081529192917f17307eab39ab6107e8899845ad3d59bd9653f200f220920489ca2b5937696c31910160405180910390a35050565b610d703383610fda565b610d8f5760405160e560020a62461bcd02815260040161053190612038565b610d9b8484848461143e565b50505050565b60006104107f9f2df0fed2c77648de5860a4cc508cd0818c85b8b8a1ab4ceeef8d981c8956a683610c65565b600081815260026020526040902054606090600160a060020a0316610e5d5760405160e560020a62461bcd02815260206004820152602f60248201527f4552433732314d657461646174613a2055524920717565727920666f72206e6f60448201527f6e6578697374656e7420746f6b656e00000000000000000000000000000000006064820152608401610531565b6000828152600d602052604090208054610e7690611ffb565b80601f0160208091040260200160405190810160405280929190818152602001828054610ea290611ffb565b8015610eef5780601f10610ec457610100808354040283529160200191610eef565b820191906000526020600020905b815481529060010190602001808311610ed257829003601f168201915b50505050509050919050565b6000828152600a6020526040902060010154610f1781336112d0565b61068883836113bd565b6000600160e060020a031982167f7965db0b000000000000000000000000000000000000000000000000000000001480610410575061041082611474565b6000818152600460205260409020805473ffffffffffffffffffffffffffffffffffffffff1916600160a060020a0384169081179091558190610fa1826108e3565b600160a060020a03167f8c5be1e5ebec7d5bd14f71427d1e84f3dd0314c0f7b2291e5b200ac8c7c3b92560405160405180910390a45050565b600081815260026020526040812054600160a060020a03166110675760405160e560020a62461bcd02815260206004820152602c60248201527f4552433732313a206f70657261746f7220717565727920666f72206e6f6e657860448201527f697374656e7420746f6b656e00000000000000000000000000000000000000006064820152608401610531565b6000611072836108e3565b905080600160a060020a031684600160a060020a031614806110ad575083600160a060020a03166110a2846104a8565b600160a060020a0316145b806110dd5750600160a060020a0380821660009081526005602090815260408083209388168352929052205460ff165b949350505050565b82600160a060020a03166110f8826108e3565b600160a060020a0316146111775760405160e560020a62461bcd02815260206004820152602960248201527f4552433732313a207472616e73666572206f6620746f6b656e2074686174206960448201527f73206e6f74206f776e00000000000000000000000000000000000000000000006064820152608401610531565b600160a060020a0382166111f55760405160e560020a62461bcd028152602060048201526024808201527f4552433732313a207472616e7366657220746f20746865207a65726f2061646460448201527f72657373000000000000000000000000000000000000000000000000000000006064820152608401610531565b6112008383836114b2565b61120b600082610f5f565b600160a060020a03831660009081526003602052604081208054600192906112349084906121f7565b9091555050600160a060020a038216600090815260036020526040812080546001929061126290849061220e565b9091555050600081815260026020526040808220805473ffffffffffffffffffffffffffffffffffffffff1916600160a060020a0386811691821790925591518493918716917fddf252ad1be2c89b69c2b068fc378daa952ba7f163c4a11628f55a4df523b3ef91a4505050565b6112da8282610c65565b61081d576112f281600160a060020a031660146114bd565b6112fd8360206114bd565b60405160200161130e929190612226565b60408051601f198184030181529082905260e560020a62461bcd02825261053191600401611d4c565b6113418282610c65565b61081d576000828152600a60209081526040808320600160a060020a03851684529091529020805460ff191660011790556113793390565b600160a060020a031681600160a060020a0316837f2f8788117e7eff1d82e926ec794901d17c78024a50270940304540a733656f0d60405160405180910390a45050565b6113c78282610c65565b1561081d576000828152600a60209081526040808320600160a060020a0385168085529252808320805460ff1916905551339285917ff6391f5c32d9c69d2a47ea670b442974b53935d1edc7fd64eb21e047a839171b9190a45050565b61081d82826040518060200160405280600081525061170e565b6114498484846110e5565b61145584848484611744565b610d9b5760405160e560020a62461bcd028152600401610531906122a7565b6000600160e060020a031982167f780e9d6300000000000000000000000000000000000000000000000000000000148061041057506104108261187a565b610688838383611915565b606060006114cc836002612304565b6114d790600261220e565b67ffffffffffffffff8111156114ef576114ef611e26565b6040519080825280601f01601f191660200182016040528015611519576020820181803683370190505b5090507f30000000000000000000000000000000000000000000000000000000000000008160008151811061155057611550612095565b60200101907effffffffffffffffffffffffffffffffffffffffffffffffffffffffffffff1916908160001a9053507f7800000000000000000000000000000000000000000000000000000000000000816001815181106115b3576115b3612095565b60200101907effffffffffffffffffffffffffffffffffffffffffffffffffffffffffffff1916908160001a90535060006115ef846002612304565b6115fa90600161220e565b90505b60018111156116b5577f303132333435363738396162636465660000000000000000000000000000000085600f166010811061163b5761163b612095565b1a7f01000000000000000000000000000000000000000000000000000000000000000282828151811061167057611670612095565b60200101907effffffffffffffffffffffffffffffffffffffffffffffffffffffffffffff1916908160001a9053506010909404936116ae81612323565b90506115fd565b5083156117075760405160e560020a62461bcd02815260206004820181905260248201527f537472696e67733a20686578206c656e67746820696e73756666696369656e746044820152606401610531565b9392505050565b61171883836119cd565b6117256000848484611744565b6106885760405160e560020a62461bcd028152600401610531906122a7565b6000600160a060020a0384163b1561186f576040517f150b7a02000000000000000000000000000000000000000000000000000000008152600160a060020a0385169063150b7a02906117a190339089908890889060040161233a565b6020604051808303816000875af19250505080156117dc575060408051601f3d908101601f191682019092526117d991810190612376565b60015b61183c573d80801561180a576040519150601f19603f3d011682016040523d82523d6000602084013e61180f565b606091505b5080516000036118345760405160e560020a62461bcd028152600401610531906122a7565b805181602001fd5b600160e060020a0319167f150b7a02000000000000000000000000000000000000000000000000000000001490506110dd565b506001949350505050565b6000600160e060020a031982167f80ac58cd0000000000000000000000000000000000000000000000000000000014806118dd5750600160e060020a031982167f5b5e139f00000000000000000000000000000000000000000000000000000000145b8061041057507f01ffc9a700000000000000000000000000000000000000000000000000000000600160e060020a0319831614610410565b600160a060020a0383166119705761196b81600880546000838152600960205260408120829055600182018355919091527ff3f7a9fe364faab93b216da50a3214154f22a0a2b415b23a84c8169e8b636ee30155565b611993565b81600160a060020a031683600160a060020a031614611993576119938382611b2e565b600160a060020a0382166119aa5761068881611bcb565b82600160a060020a031682600160a060020a031614610688576106888282611c7a565b600160a060020a038216611a265760405160e560020a62461bcd02815260206004820181905260248201527f4552433732313a206d696e7420746f20746865207a65726f20616464726573736044820152606401610531565b600081815260026020526040902054600160a060020a031615611a8e5760405160e560020a62461bcd02815260206004820152601c60248201527f4552433732313a20746f6b656e20616c7265616479206d696e746564000000006044820152606401610531565b611a9a600083836114b2565b600160a060020a0382166000908152600360205260408120805460019290611ac390849061220e565b9091555050600081815260026020526040808220805473ffffffffffffffffffffffffffffffffffffffff1916600160a060020a03861690811790915590518392907fddf252ad1be2c89b69c2b068fc378daa952ba7f163c4a11628f55a4df523b3ef908290a45050565b60006001611b3b84610bc8565b611b4591906121f7565b600083815260076020526040902054909150808214611b9857600160a060020a03841660009081526006602090815260408083208584528252808320548484528184208190558352600790915290208190555b506000918252600760209081526040808420849055600160a060020a039094168352600681528383209183525290812055565b600854600090611bdd906001906121f7565b60008381526009602052604081205460088054939450909284908110611c0557611c05612095565b906000526020600020015490508060088381548110611c2657611c26612095565b6000918252602080832090910192909255828152600990915260408082208490558582528120556008805480611c5e57611c5e612393565b6001900381819060005260206000200160009055905550505050565b6000611c8583610bc8565b600160a060020a039093166000908152600660209081526040808320868452825280832085905593825260079052919091209190915550565b600160e060020a031981168114611cd457600080fd5b50565b600060208284031215611ce957600080fd5b813561170781611cbe565b60005b83811015611d0f578181015183820152602001611cf7565b83811115610d9b5750506000910152565b60008151808452611d38816020860160208601611cf4565b601f01601f19169290920160200192915050565b6020815260006117076020830184611d20565b600060208284031215611d7157600080fd5b5035919050565b8035600160a060020a0381168114611d8f57600080fd5b919050565b60008060408385031215611da757600080fd5b611db083611d78565b946020939093013593505050565b600080600060608486031215611dd357600080fd5b611ddc84611d78565b9250611dea60208501611d78565b9150604084013590509250925092565b60008060408385031215611e0d57600080fd5b82359150611e1d60208401611d78565b90509250929050565b60e060020a634e487b7102600052604160045260246000fd5b600067ffffffffffffffff80841115611e5a57611e5a611e26565b604051601f8501601f19908116603f01168101908282118183101715611e8257611e82611e26565b81604052809350858152868686011115611e9b57600080fd5b858560208301376000602087830101525050509392505050565b600060208284031215611ec757600080fd5b813567ffffffffffffffff811115611ede57600080fd5b8201601f81018413611eef57600080fd5b6110dd84823560208401611e3f565b600060208284031215611f1057600080fd5b61170782611d78565b60008060408385031215611f2c57600080fd5b611f3583611d78565b915060208301358015158114611f4a57600080fd5b809150509250929050565b60008060008060808587031215611f6b57600080fd5b611f7485611d78565b9350611f8260208601611d78565b925060408501359150606085013567ffffffffffffffff811115611fa557600080fd5b8501601f81018713611fb657600080fd5b611fc587823560208401611e3f565b91505092959194509250565b60008060408385031215611fe457600080fd5b611fed83611d78565b9150611e1d60208401611d78565b60028104600182168061200f57607f821691505b6020821081036120325760e060020a634e487b7102600052602260045260246000fd5b50919050565b60208082526031908201527f4552433732313a207472616e736665722063616c6c6572206973206e6f74206f60408201527f776e6572206e6f7220617070726f766564000000000000000000000000000000606082015260800190565b60e060020a634e487b7102600052603260045260246000fd5b600082516120c0818460208701611cf4565b9190910192915050565b601f821115610688576000818152602081206020601f860104810160208610156120f15750805b6020601f860104820191505b81811015612110578281556001016120fd565b505050505050565b815167ffffffffffffffff81111561213257612132611e26565b612146816121408454611ffb565b846120ca565b602080601f83116001811461217f57600084156121635750858301515b60028086026008870290910a6000190419821617865550612110565b600085815260208120601f198616915b828110156121ae5788860151825594840194600190910190840161218f565b50858210156121ce57878501516008601f88160260020a60001904191681555b5050505050600202600101905550565b60e060020a634e487b7102600052601160045260246000fd5b600082821015612209576122096121de565b500390565b60008219821115612221576122216121de565b500190565b7f416363657373436f6e74726f6c3a206163636f756e742000000000000000000081526000835161225e816017850160208801611cf4565b7f206973206d697373696e6720726f6c6520000000000000000000000000000000601791840191820152835161229b816028840160208801611cf4565b01602801949350505050565b60208082526032908201527f4552433732313a207472616e7366657220746f206e6f6e20455243373231526560408201527f63656976657220696d706c656d656e7465720000000000000000000000000000606082015260800190565b600081600019048311821515161561231e5761231e6121de565b500290565b600081612332576123326121de565b506000190190565b6000600160a060020a0380871683528086166020840152508360408301526080606083015261236c6080830184611d20565b9695505050505050565b60006020828403121561238857600080fd5b815161170781611cbe565b60e060020a634e487b7102600052603160045260246000fdfea264697066735822122021da8b88bd6e611e6fb41079ee0a5afe02655e12c2ccb08900a9eec53d143a9e64736f6c634300080f0033a2646970667358221220878e3b89a7ec92b7aef5004af9ddaa928733de4b187ffeba6677504094a68adc64736f6c634300080f0033",
  "immutableReferences": {},
  "source": "// SPDX-License-Identifier: MIT\r\npragma solidity ^0.8.0;\r\n\r\n// import \"@openzeppelin/contracts/access/Ownable.sol\";\r\nimport '@openzeppelin/contracts/utils/math/SafeMath.sol';\r\n//import '@openzeppelin/contracts/token/ERC721/IERC721.sol';\r\n\r\nimport './NFTCollection.sol';\r\n\r\ncontract Marketplace {\r\n    using SafeMath for uint256;\r\n    bytes32 public constant MINTER_ROLE = keccak256('MINTER_ROLE');\r\n\r\n    // Fees\r\n    uint256 public constant FEE_SELL_PERCENTAGE = 3; // percentage of buy price\r\n\r\n    // Enums\r\n    enum AuctionType {\r\n        FixedPrice, // buy it now only\r\n        Dutch, // (not used for now)\r\n        English // (not used for now)\r\n    }\r\n\r\n    enum AuctionStatus {\r\n        //Approved, // ready for use\r\n        Running, // in progress\r\n        Closed, // closed with no buyer, need to revert funds\r\n        Finished, // finished with buyer, need to revert funds\r\n        Cancelled // canceled by seller, need to revert funds\r\n    }\r\n\r\n    // Definitions\r\n    struct AuctionItem {\r\n        address ownerAddress;\r\n        address collectionAddress;\r\n        uint256 auctionId; // auction Id, is generated\r\n        uint256 id; // token Id, is given\r\n        uint256 buyItNowPrice; // buy now buyItNowPrice in case of type FixedPrice. Zero means - no buy now. Mandatory if Fixed price\r\n        //uint256 reservedPrice; // buy out price below which the sell cannot happend (not used for now)\r\n        uint256 initialPrice; // starting auction price (not used for now)\r\n        //uint256 minBidStep; // minimum allowed bid step. Zero means - no min (not used for now)\r\n        //uint256 maxBidStep; // maximum allowed bid step. Zero means - no max (not used for now)\r\n        AuctionStatus auctionStatus;\r\n        AuctionType auctionType;\r\n    }\r\n\r\n    struct CollectionItem {\r\n        uint256 collectionId; // TODO : Check if needed\r\n        address collectionAddress; // ERC721 token of the collection\r\n        address ownerAddress;\r\n    }\r\n\r\n    // properties\r\n    // msg.sender => generated funds\r\n    mapping(address => uint256) public userFunds; // contains funds per user generated from sales. Bids will stored in other way\r\n\r\n    // -- Events\r\n    // emitted when an auction is craated\r\n    event onAuctionCreated(uint256 indexed auctionId, uint256 indexed id);\r\n\r\n    // emitted when is cancelled by the seller\r\n    event onAuctionCancelled(uint256 indexed auctionId, uint256 indexed id);\r\n\r\n    // emitted when the acution is finsied with succesfull purchase\r\n    event onAuctionFinished(uint256 indexed auctionId, uint256 indexed id);\r\n\r\n    // emitted when an auction is closed with no buyer\r\n    event onAuctionClosed(uint256 indexed auctionId, uint256 indexed id);\r\n\r\n    // enitted when an auction is bidded\r\n    event onAuctionBid(uint256 indexed auctionId, uint256 bid);\r\n\r\n    // emitted when an user claims his funds\r\n    event onFundsClaimed(address indexed user, uint256 amount);\r\n\r\n    // emitted when a collection is created\r\n    event onCollectionCreated(uint256 indexed collectionId, address indexed collectionAddress, address indexed ownerAddress);\r\n    // --\r\n\r\n    // auctionId => AuctionItem\r\n    mapping(uint256 => AuctionItem) auctionStore;\r\n\r\n    // auctionId => (collectionId => AuctionItem)\r\n    // mapping(uint256 => mapping(uint256 => AuctionItem)) auctionStoreExt;\r\n\r\n    // collectionId => CollectionItem\r\n    mapping(uint256 => CollectionItem) collectionStore;\r\n\r\n    uint256 public auctionCount = 0;\r\n    uint256 public collectionCount = 0;\r\n\r\n    // ownerAddress => (collectionId => isOwner)\r\n    mapping(address => mapping(uint256 => bool)) usercollections;\r\n\r\n    // collectionAddress => uint256[auctionId]\r\n    mapping(address => uint256[]) collectionToAcutions;\r\n\r\n    // -- Modifiers\r\n    // modifier requireCollectionOwner(uint256 _collectionId) {\r\n    //     require(usercollections[msg.sender][_collectionId], 'Not collection owner');\r\n    //     _;\r\n    // }\r\n    // --\r\n\r\n    // constructor() public {\r\n    //     // deploy NFT Collection contract\r\n    //     // add newly deployed contract to collection array\r\n    //     // _createCollection('TTM Collection', 'TTM', address(this), false);\r\n    // }\r\n\r\n    // -- Collection management\r\n    // function createCollection(string memory _name, string memory _symbol) public returns (address) {\r\n    //     return _createCollection(_name, _symbol);\r\n    // }\r\n\r\n    function createCollection(string memory _name, string memory _symbol) public returns (address) {\r\n        NFTCollection collectionContract = new NFTCollection(_name, _symbol);\r\n        // grant role\r\n        collectionContract.grantRole(MINTER_ROLE, msg.sender);\r\n        // approve the creator by default\r\n        collectionContract.setApprovalForAll(msg.sender, true);\r\n\r\n        address _collectionAddress = address(collectionContract);\r\n\r\n        uint256 _collectionId = collectionCount;\r\n        collectionStore[_collectionId] = CollectionItem(_collectionId, _collectionAddress, msg.sender);\r\n        collectionCount = collectionCount.add(1);\r\n\r\n        usercollections[msg.sender][_collectionId] = true;\r\n\r\n        emit onCollectionCreated(_collectionId, _collectionAddress, msg.sender);\r\n\r\n        return _collectionAddress;\r\n    }\r\n\r\n    function getCollection(uint256 _collectionId) public view returns (CollectionItem memory) {\r\n        return collectionStore[_collectionId];\r\n    }\r\n\r\n    // --\r\n\r\n    // -- Auction Management\r\n    function createAuction(\r\n        address _collectionAddress,\r\n        uint256 _id,\r\n        uint256 _buyItNowPrice\r\n    ) public {\r\n        // transfer token to the market (this)\r\n        NFTCollection nftCollection = NFTCollection(_collectionAddress);\r\n        // nftCollection.transferFrom(msg.sender, address(this), _id); // TODO : use approve !!!\r\n\r\n        // TODO : require token owner to be msg.sender\r\n        require(msg.sender == nftCollection.ownerOf(_id), 'Not token owner');\r\n\r\n        // the token owner is checked above\r\n\r\n        // create auction\r\n        uint256 _auctionId = auctionCount;\r\n        auctionStore[_auctionId] = AuctionItem({\r\n            ownerAddress: msg.sender,\r\n            collectionAddress: _collectionAddress,\r\n            auctionId: _auctionId,\r\n            id: _id,\r\n            buyItNowPrice: _buyItNowPrice,\r\n            //reservedPrice: 0,\r\n            initialPrice: 0,\r\n            //minBidStep: 0,\r\n            //maxBidStep: 0,\r\n            auctionStatus: AuctionStatus.Running,\r\n            auctionType: AuctionType.FixedPrice\r\n        });\r\n\r\n        auctionCount = auctionCount.add(1);\r\n\r\n        collectionToAcutions[_collectionAddress].push(_auctionId);\r\n\r\n        emit onAuctionCreated(_auctionId, _id);\r\n    }\r\n\r\n    function getCollectionAuctions(address collectionAddress) public view returns (uint256[] memory) {\r\n        return collectionToAcutions[collectionAddress];\r\n    }\r\n\r\n    function getAuction(uint256 _auctionId) public view returns (AuctionItem memory) {\r\n        return auctionStore[_auctionId];\r\n    }\r\n\r\n    // buy it now - handle user funds?\r\n    function buyNowAuction(uint256 _auctionId) public payable {\r\n        AuctionItem storage _auction = auctionStore[_auctionId];\r\n\r\n        require(_auction.auctionId == _auctionId, 'Auction does not exists');\r\n        require(_auction.ownerAddress != msg.sender, 'Auction owner cannot buy it');\r\n        require(_auction.auctionStatus == AuctionStatus.Running, 'Auction is not running');\r\n        require(_auction.buyItNowPrice > 0, 'Buy now is not allowed');\r\n\r\n        require(msg.value == _auction.buyItNowPrice, 'Insufficient funds');\r\n\r\n        uint256 fee = msg.value.mul(FEE_SELL_PERCENTAGE).div(100);\r\n\r\n        NFTCollection nftCollection = NFTCollection(_auction.collectionAddress);\r\n        nftCollection.transferFrom(address(this), msg.sender, _auction.id);\r\n        _auction.auctionStatus = AuctionStatus.Finished;\r\n        uint256 userFund = msg.value.sub(fee);\r\n        userFunds[_auction.ownerAddress] = userFunds[_auction.ownerAddress].add(userFund);\r\n\r\n        // TODO : Handle bids\r\n        // TODO : Handle buy request\r\n\r\n        emit onAuctionFinished(_auctionId, _auction.id);\r\n    }\r\n\r\n    // cancel auction (auction owner) - handle user funds?\r\n    function cancelAuction(uint256 _auctionId) public {\r\n        AuctionItem storage _auction = auctionStore[_auctionId];\r\n\r\n        require(_auction.auctionId == _auctionId, 'Auction does not exists');\r\n        require(_auction.ownerAddress == msg.sender, 'Auction owner cannot cancel it');\r\n        require(_auction.auctionStatus == AuctionStatus.Running, 'Auction is not running');\r\n\r\n        NFTCollection nftCollection = NFTCollection(_auction.collectionAddress);\r\n        nftCollection.transferFrom(address(this), msg.sender, _auction.id);\r\n        _auction.auctionStatus = AuctionStatus.Cancelled;\r\n\r\n        // TODO : Handle bids\r\n        // TODO : Handle buy request\r\n\r\n        emit onAuctionCancelled(_auctionId, _auction.id);\r\n    }\r\n\r\n    // --\r\n\r\n    // -- Auction handling\r\n    // elapse ??? possible ReentrancyGuard\r\n    // --\r\n\r\n    // -- Auction actions\r\n    // bid - handle user funds?\r\n    function bid() public payable {\r\n        // not supported\r\n        revert();\r\n        // emit onAuctionBid()\r\n    }\r\n\r\n    // --\r\n\r\n    function claimFunds() public {\r\n        require(userFunds[msg.sender] > 0, 'This user has no funds to be claimed');\r\n\r\n        uint256 fundsToClaim = userFunds[msg.sender];\r\n        userFunds[msg.sender] = 0;\r\n        payable(msg.sender).transfer(fundsToClaim);\r\n\r\n        emit onFundsClaimed(msg.sender, fundsToClaim);\r\n    }\r\n\r\n    // Fallback: reverts if Ether is sent to this smart-contract by mistake\r\n    fallback() external {\r\n        revert();\r\n    }\r\n}\r\n",
  "sourcePath": "C:\\github\\trayanm\\TTMMarket\\src\\contracts\\MarketPlace.sol",
  "compiler": {
    "name": "solc",
    "version": "0.8.15+commit.e14f2714.Emscripten.clang"
  },
  "schemaVersion": "3.4.7",
  "updatedAt": "2022-06-16T16:53:37.729Z",
  "networkType": "ethereum",
  "devdoc": {
    "kind": "dev",
    "methods": {},
    "version": 1
  },
  "userdoc": {
    "kind": "user",
    "methods": {},
    "version": 1
  }
}