{
  "contractName": "MarketPlaceFeeHandler",
  "abi": [
    {
      "inputs": [],
      "name": "FEE_COLLECTION_CREATE",
      "outputs": [
        {
          "internalType": "uint256",
          "name": "",
          "type": "uint256"
        }
      ],
      "stateMutability": "view",
      "type": "function"
    },
    {
      "inputs": [],
      "name": "FEE_SELL",
      "outputs": [
        {
          "internalType": "uint256",
          "name": "",
          "type": "uint256"
        }
      ],
      "stateMutability": "view",
      "type": "function"
    }
  ],
  "bytecode": "0x608060405234801561001057600080fd5b5060db8061001f6000396000f3fe6080604052348015600f57600080fd5b506004361060325760003560e01c806338002033146037578063bf0745d2146051575b600080fd5b603d606b565b60405160489190608c565b60405180910390f35b60576070565b60405160629190608c565b60405180910390f35b60c881565b606481565b6000819050919050565b6086816075565b82525050565b6000602082019050609f6000830184607f565b9291505056fea26469706673582212203daf512dbcb5a5af7df66da00e5c9865df556a50015487127807d287548098d964736f6c634300080e0033",
  "immutableReferences": {},
  "source": "// SPDX-License-Identifier: MIT\r\npragma solidity ^0.8.0;\r\n\r\ncontract MarketPlaceFeeHandler {\r\n    // Fees\r\n    // TODO : ask about fees decimal value\r\n    uint256 public constant FEE_COLLECTION_CREATE = 200; // TODO : Ask for best practices\r\n    uint256 public constant FEE_SELL = 100;\r\n\r\n    // #region Modifiers\r\n    modifier requireFee(uint256 fee) {\r\n        require(msg.value >= fee, \"Insufficient Funds\");\r\n        _;\r\n    }\r\n    // #endregion\r\n}\r\n",
  "sourcePath": "C:\\github\\trayanm\\TTMMarket\\src\\contracts\\MarketPlaceFeeHandler.sol",
  "compiler": {
    "name": "solc",
    "version": "0.8.14+commit.80d49f37.Emscripten.clang"
  },
  "schemaVersion": "3.4.7",
  "updatedAt": "2022-06-06T21:55:28.714Z",
  "devdoc": {
    "kind": "dev",
    "methods": {},
    "version": 1
  },
  "userdoc": {
    "kind": "user",
    "methods": {},
    "version": 1
  }
}