{
  "contractName": "MarketPlaceHandler",
  "abi": [
    {
      "anonymous": false,
      "inputs": [
        {
          "indexed": true,
          "internalType": "uint256",
          "name": "collectionId",
          "type": "uint256"
        },
        {
          "indexed": true,
          "internalType": "address",
          "name": "collectionAddress",
          "type": "address"
        },
        {
          "indexed": true,
          "internalType": "address",
          "name": "ownerAddress",
          "type": "address"
        }
      ],
      "name": "onCollectionCreated",
      "type": "event"
    },
    {
      "inputs": [],
      "name": "FEE_COLLECTION_CREATE",
      "outputs": [
        {
          "internalType": "uint256",
          "name": "",
          "type": "uint256"
        }
      ],
      "stateMutability": "view",
      "type": "function"
    },
    {
      "inputs": [],
      "name": "FEE_SELL",
      "outputs": [
        {
          "internalType": "uint256",
          "name": "",
          "type": "uint256"
        }
      ],
      "stateMutability": "view",
      "type": "function"
    },
    {
      "inputs": [
        {
          "internalType": "string",
          "name": "_name",
          "type": "string"
        },
        {
          "internalType": "string",
          "name": "_symbol",
          "type": "string"
        }
      ],
      "name": "createCollection",
      "outputs": [],
      "stateMutability": "payable",
      "type": "function"
    },
    {
      "inputs": [],
      "name": "getAllCollections",
      "outputs": [
        {
          "components": [
            {
              "internalType": "uint256",
              "name": "collectionId",
              "type": "uint256"
            },
            {
              "internalType": "address",
              "name": "collectionAddress",
              "type": "address"
            },
            {
              "internalType": "address",
              "name": "ownerAddress",
              "type": "address"
            },
            {
              "internalType": "bool",
              "name": "isUserCollection",
              "type": "bool"
            }
          ],
          "internalType": "struct MarketPlaceHandler.CollectionItem[]",
          "name": "",
          "type": "tuple[]"
        }
      ],
      "stateMutability": "view",
      "type": "function"
    },
    {
      "inputs": [],
      "name": "getMyCollections",
      "outputs": [
        {
          "components": [
            {
              "internalType": "uint256",
              "name": "collectionId",
              "type": "uint256"
            },
            {
              "internalType": "address",
              "name": "collectionAddress",
              "type": "address"
            },
            {
              "internalType": "address",
              "name": "ownerAddress",
              "type": "address"
            },
            {
              "internalType": "bool",
              "name": "isUserCollection",
              "type": "bool"
            }
          ],
          "internalType": "struct MarketPlaceHandler.CollectionItem[]",
          "name": "",
          "type": "tuple[]"
        }
      ],
      "stateMutability": "view",
      "type": "function"
    }
  ],
  "bytecode": "0x6080604052600060025534801561001557600080fd5b50614389806100256000396000f3fe608060405260043610620000505760003560e01c8063176b9b7514620000555780633800203314620000755780636804a95814620000a5578063bf0745d214620000d5578063d61019801462000105575b600080fd5b6200007360048036038101906200006d919062000a28565b62000135565b005b3480156200008257600080fd5b506200008d62000191565b6040516200009c919062000ac8565b60405180910390f35b348015620000b257600080fd5b50620000bd62000196565b604051620000cc919062000c72565b60405180910390f35b348015620000e257600080fd5b50620000ed620002c8565b604051620000fc919062000ac8565b60405180910390f35b3480156200011257600080fd5b506200011d620002cd565b6040516200012c919062000c72565b60405180910390f35b60c8803410156200017d576040517f08c379a0000000000000000000000000000000000000000000000000000000008152600401620001749062000cf7565b60405180910390fd5b6200018c8383336001620005cd565b505050565b60c881565b60606001805480602002602001604051908101604052809291908181526020016000905b82821015620002bf5783829060005260206000209060030201604051806080016040529081600082015481526020016001820160009054906101000a900473ffffffffffffffffffffffffffffffffffffffff1673ffffffffffffffffffffffffffffffffffffffff1673ffffffffffffffffffffffffffffffffffffffff1681526020016002820160009054906101000a900473ffffffffffffffffffffffffffffffffffffffff1673ffffffffffffffffffffffffffffffffffffffff1673ffffffffffffffffffffffffffffffffffffffff1681526020016002820160149054906101000a900460ff16151515158152505081526020019060010190620001ba565b50505050905090565b606481565b6060600080600090505b60018054905081101562000388573373ffffffffffffffffffffffffffffffffffffffff166001828154811062000313576200031262000d19565b5b906000526020600020906003020160020160009054906101000a900473ffffffffffffffffffffffffffffffffffffffff1673ffffffffffffffffffffffffffffffffffffffff1603620003725781806200036e9062000d77565b9250505b80806200037f9062000d77565b915050620002d7565b5060008167ffffffffffffffff811115620003a857620003a7620008e1565b5b604051908082528060200260200182016040528015620003e557816020015b620003d16200084e565b815260200190600190039081620003c75790505b509050600080600090505b600180549050811015620005c3573373ffffffffffffffffffffffffffffffffffffffff16600182815481106200042c576200042b62000d19565b5b906000526020600020906003020160020160009054906101000a900473ffffffffffffffffffffffffffffffffffffffff1673ffffffffffffffffffffffffffffffffffffffff1603620005ad576001818154811062000491576200049062000d19565b5b9060005260206000209060030201604051806080016040529081600082015481526020016001820160009054906101000a900473ffffffffffffffffffffffffffffffffffffffff1673ffffffffffffffffffffffffffffffffffffffff1673ffffffffffffffffffffffffffffffffffffffff1681526020016002820160009054906101000a900473ffffffffffffffffffffffffffffffffffffffff1673ffffffffffffffffffffffffffffffffffffffff1673ffffffffffffffffffffffffffffffffffffffff1681526020016002820160149054906101000a900460ff16151515158152505083838151811062000591576200059062000d19565b5b60200260200101819052508180620005a99062000d77565b9250505b8080620005ba9062000d77565b915050620003f0565b5081935050505090565b60008484604051620005df90620008a4565b620005ec92919062000e46565b604051809103906000f08015801562000609573d6000803e3d6000fd5b509050600081905060006002549050600160405180608001604052808381526020018473ffffffffffffffffffffffffffffffffffffffff1681526020018773ffffffffffffffffffffffffffffffffffffffff16815260200186151581525090806001815401808255809150506001900390600052602060002090600302016000909190919091506000820151816000015560208201518160010160006101000a81548173ffffffffffffffffffffffffffffffffffffffff021916908373ffffffffffffffffffffffffffffffffffffffff16021790555060408201518160020160006101000a81548173ffffffffffffffffffffffffffffffffffffffff021916908373ffffffffffffffffffffffffffffffffffffffff16021790555060608201518160020160146101000a81548160ff02191690831515021790555050506200076460016002546200083690919063ffffffff16565b60028190555060016000808773ffffffffffffffffffffffffffffffffffffffff1673ffffffffffffffffffffffffffffffffffffffff168152602001908152602001600020600083815260200190815260200160002060006101000a81548160ff0219169083151502179055508473ffffffffffffffffffffffffffffffffffffffff168273ffffffffffffffffffffffffffffffffffffffff16827fecbe631ce73f784b71c74c5339317b59e203e339d6773c02526891b8063931c060405160405180910390a450505050505050565b6000818362000846919062000e81565b905092915050565b604051806080016040528060008152602001600073ffffffffffffffffffffffffffffffffffffffff168152602001600073ffffffffffffffffffffffffffffffffffffffff1681526020016000151581525090565b6134758062000edf83390190565b6000604051905090565b600080fd5b600080fd5b600080fd5b600080fd5b6000601f19601f8301169050919050565b7f4e487b7100000000000000000000000000000000000000000000000000000000600052604160045260246000fd5b6200091b82620008d0565b810181811067ffffffffffffffff821117156200093d576200093c620008e1565b5b80604052505050565b600062000952620008b2565b905062000960828262000910565b919050565b600067ffffffffffffffff821115620009835762000982620008e1565b5b6200098e82620008d0565b9050602081019050919050565b82818337600083830152505050565b6000620009c1620009bb8462000965565b62000946565b905082815260208101848484011115620009e057620009df620008cb565b5b620009ed8482856200099b565b509392505050565b600082601f83011262000a0d5762000a0c620008c6565b5b813562000a1f848260208601620009aa565b91505092915050565b6000806040838503121562000a425762000a41620008bc565b5b600083013567ffffffffffffffff81111562000a635762000a62620008c1565b5b62000a7185828601620009f5565b925050602083013567ffffffffffffffff81111562000a955762000a94620008c1565b5b62000aa385828601620009f5565b9150509250929050565b6000819050919050565b62000ac28162000aad565b82525050565b600060208201905062000adf600083018462000ab7565b92915050565b600081519050919050565b600082825260208201905092915050565b6000819050602082019050919050565b62000b1c8162000aad565b82525050565b600073ffffffffffffffffffffffffffffffffffffffff82169050919050565b600062000b4f8262000b22565b9050919050565b62000b618162000b42565b82525050565b60008115159050919050565b62000b7e8162000b67565b82525050565b60808201600082015162000b9c600085018262000b11565b50602082015162000bb1602085018262000b56565b50604082015162000bc6604085018262000b56565b50606082015162000bdb606085018262000b73565b50505050565b600062000bef838362000b84565b60808301905092915050565b6000602082019050919050565b600062000c158262000ae5565b62000c21818562000af0565b935062000c2e8362000b01565b8060005b8381101562000c6557815162000c49888262000be1565b975062000c568362000bfb565b92505060018101905062000c32565b5085935050505092915050565b6000602082019050818103600083015262000c8e818462000c08565b905092915050565b600082825260208201905092915050565b7f496e73756666696369656e742046756e64730000000000000000000000000000600082015250565b600062000cdf60128362000c96565b915062000cec8262000ca7565b602082019050919050565b6000602082019050818103600083015262000d128162000cd0565b9050919050565b7f4e487b7100000000000000000000000000000000000000000000000000000000600052603260045260246000fd5b7f4e487b7100000000000000000000000000000000000000000000000000000000600052601160045260246000fd5b600062000d848262000aad565b91507fffffffffffffffffffffffffffffffffffffffffffffffffffffffffffffffff820362000db95762000db862000d48565b5b600182019050919050565b600081519050919050565b60005b8381101562000def57808201518184015260208101905062000dd2565b8381111562000dff576000848401525b50505050565b600062000e128262000dc4565b62000e1e818562000c96565b935062000e3081856020860162000dcf565b62000e3b81620008d0565b840191505092915050565b6000604082019050818103600083015262000e62818562000e05565b9050818103602083015262000e78818462000e05565b90509392505050565b600062000e8e8262000aad565b915062000e9b8362000aad565b9250827fffffffffffffffffffffffffffffffffffffffffffffffffffffffffffffffff0382111562000ed35762000ed262000d48565b5b82820190509291505056fe60806040523480156200001157600080fd5b5060405162003475380380620034758339818101604052810190620000379190620002c2565b818181600090805190602001906200005192919062000075565b5080600190805190602001906200006a92919062000075565b5050505050620003ab565b828054620000839062000376565b90600052602060002090601f016020900481019282620000a75760008555620000f3565b82601f10620000c257805160ff1916838001178555620000f3565b82800160010185558215620000f3579182015b82811115620000f2578251825591602001919060010190620000d5565b5b50905062000102919062000106565b5090565b5b808211156200012157600081600090555060010162000107565b5090565b6000604051905090565b600080fd5b600080fd5b600080fd5b600080fd5b6000601f19601f8301169050919050565b7f4e487b7100000000000000000000000000000000000000000000000000000000600052604160045260246000fd5b6200018e8262000143565b810181811067ffffffffffffffff82111715620001b057620001af62000154565b5b80604052505050565b6000620001c562000125565b9050620001d3828262000183565b919050565b600067ffffffffffffffff821115620001f657620001f562000154565b5b620002018262000143565b9050602081019050919050565b60005b838110156200022e57808201518184015260208101905062000211565b838111156200023e576000848401525b50505050565b60006200025b6200025584620001d8565b620001b9565b9050828152602081018484840111156200027a57620002796200013e565b5b620002878482856200020e565b509392505050565b600082601f830112620002a757620002a662000139565b5b8151620002b984826020860162000244565b91505092915050565b60008060408385031215620002dc57620002db6200012f565b5b600083015167ffffffffffffffff811115620002fd57620002fc62000134565b5b6200030b858286016200028f565b925050602083015167ffffffffffffffff8111156200032f576200032e62000134565b5b6200033d858286016200028f565b9150509250929050565b7f4e487b7100000000000000000000000000000000000000000000000000000000600052602260045260246000fd5b600060028204905060018216806200038f57607f821691505b602082108103620003a557620003a462000347565b5b50919050565b6130ba80620003bb6000396000f3fe608060405234801561001057600080fd5b50600436106101165760003560e01c80636352211e116100a257806395d89b411161007157806395d89b4114610317578063a22cb46514610335578063b88d4fde14610351578063c87b56dd1461036d578063e985e9c51461039d57610116565b80636352211e1461026b578063695850fb1461029b5780636c8b703f146102b757806370a08231146102e757610116565b806318160ddd116100e957806318160ddd146101b557806323b872dd146101d35780632f745c59146101ef57806342842e0e1461021f5780634f6ccce71461023b57610116565b806301ffc9a71461011b57806306fdde031461014b578063081812fc14610169578063095ea7b314610199575b600080fd5b61013560048036038101906101309190611e7c565b6103cd565b6040516101429190611ec4565b60405180910390f35b6101536103df565b6040516101609190611f78565b60405180910390f35b610183600480360381019061017e9190611fd0565b610471565b604051610190919061203e565b60405180910390f35b6101b360048036038101906101ae9190612085565b6104f6565b005b6101bd61060d565b6040516101ca91906120d4565b60405180910390f35b6101ed60048036038101906101e891906120ef565b61061a565b005b61020960048036038101906102049190612085565b61067a565b60405161021691906120d4565b60405180910390f35b610239600480360381019061023491906120ef565b61071f565b005b61025560048036038101906102509190611fd0565b61073f565b60405161026291906120d4565b60405180910390f35b61028560048036038101906102809190611fd0565b6107b0565b604051610292919061203e565b60405180910390f35b6102b560048036038101906102b09190612277565b610861565b005b6102d160048036038101906102cc9190611fd0565b610980565b6040516102de9190611f78565b60405180910390f35b61030160048036038101906102fc91906122c0565b610a2c565b60405161030e91906120d4565b60405180910390f35b61031f610ae3565b60405161032c9190611f78565b60405180910390f35b61034f600480360381019061034a9190612319565b610b75565b005b61036b600480360381019061036691906123fa565b610cf5565b005b61038760048036038101906103829190611fd0565b610d57565b6040516103949190611f78565b60405180910390f35b6103b760048036038101906103b2919061247d565b610e44565b6040516103c49190611ec4565b60405180910390f35b60006103d882610ed8565b9050919050565b6060600080546103ee906124ec565b80601f016020809104026020016040519081016040528092919081815260200182805461041a906124ec565b80156104675780601f1061043c57610100808354040283529160200191610467565b820191906000526020600020905b81548152906001019060200180831161044a57829003601f168201915b5050505050905090565b600061047c82610f52565b6104bb576040517f08c379a00000000000000000000000000000000000000000000000000000000081526004016104b29061258f565b60405180910390fd5b6004600083815260200190815260200160002060009054906101000a900473ffffffffffffffffffffffffffffffffffffffff169050919050565b6000610501826107b0565b90508073ffffffffffffffffffffffffffffffffffffffff168373ffffffffffffffffffffffffffffffffffffffff1603610571576040517f08c379a000000000000000000000000000000000000000000000000000000000815260040161056890612621565b60405180910390fd5b8073ffffffffffffffffffffffffffffffffffffffff16610590610fbe565b73ffffffffffffffffffffffffffffffffffffffff1614806105bf57506105be816105b9610fbe565b610e44565b5b6105fe576040517f08c379a00000000000000000000000000000000000000000000000000000000081526004016105f5906126b3565b60405180910390fd5b6106088383610fc6565b505050565b6000600880549050905090565b61062b610625610fbe565b8261107f565b61066a576040517f08c379a000000000000000000000000000000000000000000000000000000000815260040161066190612745565b60405180910390fd5b61067583838361115d565b505050565b600061068583610a2c565b82106106c6576040517f08c379a00000000000000000000000000000000000000000000000000000000081526004016106bd906127d7565b60405180910390fd5b600660008473ffffffffffffffffffffffffffffffffffffffff1673ffffffffffffffffffffffffffffffffffffffff168152602001908152602001600020600083815260200190815260200160002054905092915050565b61073a83838360405180602001604052806000815250610cf5565b505050565b600061074961060d565b821061078a576040517f08c379a000000000000000000000000000000000000000000000000000000000815260040161078190612869565b60405180910390fd5b6008828154811061079e5761079d612889565b5b90600052602060002001549050919050565b6000806002600084815260200190815260200160002060009054906101000a900473ffffffffffffffffffffffffffffffffffffffff169050600073ffffffffffffffffffffffffffffffffffffffff168173ffffffffffffffffffffffffffffffffffffffff1603610858576040517f08c379a000000000000000000000000000000000000000000000000000000000815260040161084f9061292a565b60405180910390fd5b80915050919050565b600b816040516108719190612986565b908152602001604051809103902060009054906101000a900460ff16156108cd576040517f08c379a00000000000000000000000000000000000000000000000000000000081526004016108c4906129e9565b60405180910390fd5b600a81908060018154018082558091505060019003906000526020600020016000909190919091509080519060200190610908929190611d6d565b506000600a80549050905081600c6000838152602001908152602001600020908051906020019061093a929190611d6d565b5061094533826113b8565b6001600b836040516109579190612986565b908152602001604051809103902060006101000a81548160ff0219169083151502179055505050565b600a818154811061099057600080fd5b9060005260206000200160009150905080546109ab906124ec565b80601f01602080910402602001604051908101604052809291908181526020018280546109d7906124ec565b8015610a245780601f106109f957610100808354040283529160200191610a24565b820191906000526020600020905b815481529060010190602001808311610a0757829003601f168201915b505050505081565b60008073ffffffffffffffffffffffffffffffffffffffff168273ffffffffffffffffffffffffffffffffffffffff1603610a9c576040517f08c379a0000000000000000000000000000000000000000000000000000000008152600401610a9390612a7b565b60405180910390fd5b600360008373ffffffffffffffffffffffffffffffffffffffff1673ffffffffffffffffffffffffffffffffffffffff168152602001908152602001600020549050919050565b606060018054610af2906124ec565b80601f0160208091040260200160405190810160405280929190818152602001828054610b1e906124ec565b8015610b6b5780601f10610b4057610100808354040283529160200191610b6b565b820191906000526020600020905b815481529060010190602001808311610b4e57829003601f168201915b5050505050905090565b610b7d610fbe565b73ffffffffffffffffffffffffffffffffffffffff168273ffffffffffffffffffffffffffffffffffffffff1603610bea576040517f08c379a0000000000000000000000000000000000000000000000000000000008152600401610be190612ae7565b60405180910390fd5b8060056000610bf7610fbe565b73ffffffffffffffffffffffffffffffffffffffff1673ffffffffffffffffffffffffffffffffffffffff16815260200190815260200160002060008473ffffffffffffffffffffffffffffffffffffffff1673ffffffffffffffffffffffffffffffffffffffff16815260200190815260200160002060006101000a81548160ff0219169083151502179055508173ffffffffffffffffffffffffffffffffffffffff16610ca4610fbe565b73ffffffffffffffffffffffffffffffffffffffff167f17307eab39ab6107e8899845ad3d59bd9653f200f220920489ca2b5937696c3183604051610ce99190611ec4565b60405180910390a35050565b610d06610d00610fbe565b8361107f565b610d45576040517f08c379a0000000000000000000000000000000000000000000000000000000008152600401610d3c90612745565b60405180910390fd5b610d51848484846113d6565b50505050565b6060610d6282610f52565b610da1576040517f08c379a0000000000000000000000000000000000000000000000000000000008152600401610d9890612b79565b60405180910390fd5b600c60008381526020019081526020016000208054610dbf906124ec565b80601f0160208091040260200160405190810160405280929190818152602001828054610deb906124ec565b8015610e385780601f10610e0d57610100808354040283529160200191610e38565b820191906000526020600020905b815481529060010190602001808311610e1b57829003601f168201915b50505050509050919050565b6000600560008473ffffffffffffffffffffffffffffffffffffffff1673ffffffffffffffffffffffffffffffffffffffff16815260200190815260200160002060008373ffffffffffffffffffffffffffffffffffffffff1673ffffffffffffffffffffffffffffffffffffffff16815260200190815260200160002060009054906101000a900460ff16905092915050565b60007f780e9d63000000000000000000000000000000000000000000000000000000007bffffffffffffffffffffffffffffffffffffffffffffffffffffffff1916827bffffffffffffffffffffffffffffffffffffffffffffffffffffffff19161480610f4b5750610f4a82611432565b5b9050919050565b60008073ffffffffffffffffffffffffffffffffffffffff166002600084815260200190815260200160002060009054906101000a900473ffffffffffffffffffffffffffffffffffffffff1673ffffffffffffffffffffffffffffffffffffffff1614159050919050565b600033905090565b816004600083815260200190815260200160002060006101000a81548173ffffffffffffffffffffffffffffffffffffffff021916908373ffffffffffffffffffffffffffffffffffffffff160217905550808273ffffffffffffffffffffffffffffffffffffffff16611039836107b0565b73ffffffffffffffffffffffffffffffffffffffff167f8c5be1e5ebec7d5bd14f71427d1e84f3dd0314c0f7b2291e5b200ac8c7c3b92560405160405180910390a45050565b600061108a82610f52565b6110c9576040517f08c379a00000000000000000000000000000000000000000000000000000000081526004016110c090612c0b565b60405180910390fd5b60006110d4836107b0565b90508073ffffffffffffffffffffffffffffffffffffffff168473ffffffffffffffffffffffffffffffffffffffff16148061114357508373ffffffffffffffffffffffffffffffffffffffff1661112b84610471565b73ffffffffffffffffffffffffffffffffffffffff16145b8061115457506111538185610e44565b5b91505092915050565b8273ffffffffffffffffffffffffffffffffffffffff1661117d826107b0565b73ffffffffffffffffffffffffffffffffffffffff16146111d3576040517f08c379a00000000000000000000000000000000000000000000000000000000081526004016111ca90612c9d565b60405180910390fd5b600073ffffffffffffffffffffffffffffffffffffffff168273ffffffffffffffffffffffffffffffffffffffff1603611242576040517f08c379a000000000000000000000000000000000000000000000000000000000815260040161123990612d2f565b60405180910390fd5b61124d838383611514565b611258600082610fc6565b6001600360008573ffffffffffffffffffffffffffffffffffffffff1673ffffffffffffffffffffffffffffffffffffffff16815260200190815260200160002060008282546112a89190612d7e565b925050819055506001600360008473ffffffffffffffffffffffffffffffffffffffff1673ffffffffffffffffffffffffffffffffffffffff16815260200190815260200160002060008282546112ff9190612db2565b92505081905550816002600083815260200190815260200160002060006101000a81548173ffffffffffffffffffffffffffffffffffffffff021916908373ffffffffffffffffffffffffffffffffffffffff160217905550808273ffffffffffffffffffffffffffffffffffffffff168473ffffffffffffffffffffffffffffffffffffffff167fddf252ad1be2c89b69c2b068fc378daa952ba7f163c4a11628f55a4df523b3ef60405160405180910390a4505050565b6113d2828260405180602001604052806000815250611524565b5050565b6113e184848461115d565b6113ed8484848461157f565b61142c576040517f08c379a000000000000000000000000000000000000000000000000000000000815260040161142390612e7a565b60405180910390fd5b50505050565b60007f80ac58cd000000000000000000000000000000000000000000000000000000007bffffffffffffffffffffffffffffffffffffffffffffffffffffffff1916827bffffffffffffffffffffffffffffffffffffffffffffffffffffffff191614806114fd57507f5b5e139f000000000000000000000000000000000000000000000000000000007bffffffffffffffffffffffffffffffffffffffffffffffffffffffff1916827bffffffffffffffffffffffffffffffffffffffffffffffffffffffff1916145b8061150d575061150c82611706565b5b9050919050565b61151f838383611770565b505050565b61152e8383611882565b61153b600084848461157f565b61157a576040517f08c379a000000000000000000000000000000000000000000000000000000000815260040161157190612e7a565b60405180910390fd5b505050565b60006115a08473ffffffffffffffffffffffffffffffffffffffff16611a4f565b156116f9578373ffffffffffffffffffffffffffffffffffffffff1663150b7a026115c9610fbe565b8786866040518563ffffffff1660e01b81526004016115eb9493929190612eef565b6020604051808303816000875af192505050801561162757506040513d601f19601f820116820180604052508101906116249190612f50565b60015b6116a9573d8060008114611657576040519150601f19603f3d011682016040523d82523d6000602084013e61165c565b606091505b5060008151036116a1576040517f08c379a000000000000000000000000000000000000000000000000000000000815260040161169890612e7a565b60405180910390fd5b805181602001fd5b63150b7a0260e01b7bffffffffffffffffffffffffffffffffffffffffffffffffffffffff1916817bffffffffffffffffffffffffffffffffffffffffffffffffffffffff1916149150506116fe565b600190505b949350505050565b60007f01ffc9a7000000000000000000000000000000000000000000000000000000007bffffffffffffffffffffffffffffffffffffffffffffffffffffffff1916827bffffffffffffffffffffffffffffffffffffffffffffffffffffffff1916149050919050565b61177b838383611a62565b600073ffffffffffffffffffffffffffffffffffffffff168373ffffffffffffffffffffffffffffffffffffffff16036117bd576117b881611a67565b6117fc565b8173ffffffffffffffffffffffffffffffffffffffff168373ffffffffffffffffffffffffffffffffffffffff16146117fb576117fa8382611ab0565b5b5b600073ffffffffffffffffffffffffffffffffffffffff168273ffffffffffffffffffffffffffffffffffffffff160361183e5761183981611c1d565b61187d565b8273ffffffffffffffffffffffffffffffffffffffff168273ffffffffffffffffffffffffffffffffffffffff161461187c5761187b8282611cee565b5b5b505050565b600073ffffffffffffffffffffffffffffffffffffffff168273ffffffffffffffffffffffffffffffffffffffff16036118f1576040517f08c379a00000000000000000000000000000000000000000000000000000000081526004016118e890612fc9565b60405180910390fd5b6118fa81610f52565b1561193a576040517f08c379a000000000000000000000000000000000000000000000000000000000815260040161193190613035565b60405180910390fd5b61194660008383611514565b6001600360008473ffffffffffffffffffffffffffffffffffffffff1673ffffffffffffffffffffffffffffffffffffffff16815260200190815260200160002060008282546119969190612db2565b92505081905550816002600083815260200190815260200160002060006101000a81548173ffffffffffffffffffffffffffffffffffffffff021916908373ffffffffffffffffffffffffffffffffffffffff160217905550808273ffffffffffffffffffffffffffffffffffffffff16600073ffffffffffffffffffffffffffffffffffffffff167fddf252ad1be2c89b69c2b068fc378daa952ba7f163c4a11628f55a4df523b3ef60405160405180910390a45050565b600080823b905060008111915050919050565b505050565b6008805490506009600083815260200190815260200160002081905550600881908060018154018082558091505060019003906000526020600020016000909190919091505550565b60006001611abd84610a2c565b611ac79190612d7e565b9050600060076000848152602001908152602001600020549050818114611bac576000600660008673ffffffffffffffffffffffffffffffffffffffff1673ffffffffffffffffffffffffffffffffffffffff168152602001908152602001600020600084815260200190815260200160002054905080600660008773ffffffffffffffffffffffffffffffffffffffff1673ffffffffffffffffffffffffffffffffffffffff168152602001908152602001600020600084815260200190815260200160002081905550816007600083815260200190815260200160002081905550505b6007600084815260200190815260200160002060009055600660008573ffffffffffffffffffffffffffffffffffffffff1673ffffffffffffffffffffffffffffffffffffffff16815260200190815260200160002060008381526020019081526020016000206000905550505050565b60006001600880549050611c319190612d7e565b9050600060096000848152602001908152602001600020549050600060088381548110611c6157611c60612889565b5b906000526020600020015490508060088381548110611c8357611c82612889565b5b906000526020600020018190555081600960008381526020019081526020016000208190555060096000858152602001908152602001600020600090556008805480611cd257611cd1613055565b5b6001900381819060005260206000200160009055905550505050565b6000611cf983610a2c565b905081600660008573ffffffffffffffffffffffffffffffffffffffff1673ffffffffffffffffffffffffffffffffffffffff168152602001908152602001600020600083815260200190815260200160002081905550806007600084815260200190815260200160002081905550505050565b828054611d79906124ec565b90600052602060002090601f016020900481019282611d9b5760008555611de2565b82601f10611db457805160ff1916838001178555611de2565b82800160010185558215611de2579182015b82811115611de1578251825591602001919060010190611dc6565b5b509050611def9190611df3565b5090565b5b80821115611e0c576000816000905550600101611df4565b5090565b6000604051905090565b600080fd5b600080fd5b60007fffffffff0000000000000000000000000000000000000000000000000000000082169050919050565b611e5981611e24565b8114611e6457600080fd5b50565b600081359050611e7681611e50565b92915050565b600060208284031215611e9257611e91611e1a565b5b6000611ea084828501611e67565b91505092915050565b60008115159050919050565b611ebe81611ea9565b82525050565b6000602082019050611ed96000830184611eb5565b92915050565b600081519050919050565b600082825260208201905092915050565b60005b83811015611f19578082015181840152602081019050611efe565b83811115611f28576000848401525b50505050565b6000601f19601f8301169050919050565b6000611f4a82611edf565b611f548185611eea565b9350611f64818560208601611efb565b611f6d81611f2e565b840191505092915050565b60006020820190508181036000830152611f928184611f3f565b905092915050565b6000819050919050565b611fad81611f9a565b8114611fb857600080fd5b50565b600081359050611fca81611fa4565b92915050565b600060208284031215611fe657611fe5611e1a565b5b6000611ff484828501611fbb565b91505092915050565b600073ffffffffffffffffffffffffffffffffffffffff82169050919050565b600061202882611ffd565b9050919050565b6120388161201d565b82525050565b6000602082019050612053600083018461202f565b92915050565b6120628161201d565b811461206d57600080fd5b50565b60008135905061207f81612059565b92915050565b6000806040838503121561209c5761209b611e1a565b5b60006120aa85828601612070565b92505060206120bb85828601611fbb565b9150509250929050565b6120ce81611f9a565b82525050565b60006020820190506120e960008301846120c5565b92915050565b60008060006060848603121561210857612107611e1a565b5b600061211686828701612070565b935050602061212786828701612070565b925050604061213886828701611fbb565b9150509250925092565b600080fd5b600080fd5b7f4e487b7100000000000000000000000000000000000000000000000000000000600052604160045260246000fd5b61218482611f2e565b810181811067ffffffffffffffff821117156121a3576121a261214c565b5b80604052505050565b60006121b6611e10565b90506121c2828261217b565b919050565b600067ffffffffffffffff8211156121e2576121e161214c565b5b6121eb82611f2e565b9050602081019050919050565b82818337600083830152505050565b600061221a612215846121c7565b6121ac565b90508281526020810184848401111561223657612235612147565b5b6122418482856121f8565b509392505050565b600082601f83011261225e5761225d612142565b5b813561226e848260208601612207565b91505092915050565b60006020828403121561228d5761228c611e1a565b5b600082013567ffffffffffffffff8111156122ab576122aa611e1f565b5b6122b784828501612249565b91505092915050565b6000602082840312156122d6576122d5611e1a565b5b60006122e484828501612070565b91505092915050565b6122f681611ea9565b811461230157600080fd5b50565b600081359050612313816122ed565b92915050565b600080604083850312156123305761232f611e1a565b5b600061233e85828601612070565b925050602061234f85828601612304565b9150509250929050565b600067ffffffffffffffff8211156123745761237361214c565b5b61237d82611f2e565b9050602081019050919050565b600061239d61239884612359565b6121ac565b9050828152602081018484840111156123b9576123b8612147565b5b6123c48482856121f8565b509392505050565b600082601f8301126123e1576123e0612142565b5b81356123f184826020860161238a565b91505092915050565b6000806000806080858703121561241457612413611e1a565b5b600061242287828801612070565b945050602061243387828801612070565b935050604061244487828801611fbb565b925050606085013567ffffffffffffffff81111561246557612464611e1f565b5b612471878288016123cc565b91505092959194509250565b6000806040838503121561249457612493611e1a565b5b60006124a285828601612070565b92505060206124b385828601612070565b9150509250929050565b7f4e487b7100000000000000000000000000000000000000000000000000000000600052602260045260246000fd5b6000600282049050600182168061250457607f821691505b602082108103612517576125166124bd565b5b50919050565b7f4552433732313a20617070726f76656420717565727920666f72206e6f6e657860008201527f697374656e7420746f6b656e0000000000000000000000000000000000000000602082015250565b6000612579602c83611eea565b91506125848261251d565b604082019050919050565b600060208201905081810360008301526125a88161256c565b9050919050565b7f4552433732313a20617070726f76616c20746f2063757272656e74206f776e6560008201527f7200000000000000000000000000000000000000000000000000000000000000602082015250565b600061260b602183611eea565b9150612616826125af565b604082019050919050565b6000602082019050818103600083015261263a816125fe565b9050919050565b7f4552433732313a20617070726f76652063616c6c6572206973206e6f74206f7760008201527f6e6572206e6f7220617070726f76656420666f7220616c6c0000000000000000602082015250565b600061269d603883611eea565b91506126a882612641565b604082019050919050565b600060208201905081810360008301526126cc81612690565b9050919050565b7f4552433732313a207472616e736665722063616c6c6572206973206e6f74206f60008201527f776e6572206e6f7220617070726f766564000000000000000000000000000000602082015250565b600061272f603183611eea565b915061273a826126d3565b604082019050919050565b6000602082019050818103600083015261275e81612722565b9050919050565b7f455243373231456e756d657261626c653a206f776e657220696e646578206f7560008201527f74206f6620626f756e6473000000000000000000000000000000000000000000602082015250565b60006127c1602b83611eea565b91506127cc82612765565b604082019050919050565b600060208201905081810360008301526127f0816127b4565b9050919050565b7f455243373231456e756d657261626c653a20676c6f62616c20696e646578206f60008201527f7574206f6620626f756e64730000000000000000000000000000000000000000602082015250565b6000612853602c83611eea565b915061285e826127f7565b604082019050919050565b6000602082019050818103600083015261288281612846565b9050919050565b7f4e487b7100000000000000000000000000000000000000000000000000000000600052603260045260246000fd5b7f4552433732313a206f776e657220717565727920666f72206e6f6e657869737460008201527f656e7420746f6b656e0000000000000000000000000000000000000000000000602082015250565b6000612914602983611eea565b915061291f826128b8565b604082019050919050565b6000602082019050818103600083015261294381612907565b9050919050565b600081905092915050565b600061296082611edf565b61296a818561294a565b935061297a818560208601611efb565b80840191505092915050565b60006129928284612955565b915081905092915050565b7f54686520746f6b656e205552492073686f756c6420626520756e697175650000600082015250565b60006129d3601e83611eea565b91506129de8261299d565b602082019050919050565b60006020820190508181036000830152612a02816129c6565b9050919050565b7f4552433732313a2062616c616e636520717565727920666f7220746865207a6560008201527f726f206164647265737300000000000000000000000000000000000000000000602082015250565b6000612a65602a83611eea565b9150612a7082612a09565b604082019050919050565b60006020820190508181036000830152612a9481612a58565b9050919050565b7f4552433732313a20617070726f766520746f2063616c6c657200000000000000600082015250565b6000612ad1601983611eea565b9150612adc82612a9b565b602082019050919050565b60006020820190508181036000830152612b0081612ac4565b9050919050565b7f4552433732314d657461646174613a2055524920717565727920666f72206e6f60008201527f6e6578697374656e7420746f6b656e0000000000000000000000000000000000602082015250565b6000612b63602f83611eea565b9150612b6e82612b07565b604082019050919050565b60006020820190508181036000830152612b9281612b56565b9050919050565b7f4552433732313a206f70657261746f7220717565727920666f72206e6f6e657860008201527f697374656e7420746f6b656e0000000000000000000000000000000000000000602082015250565b6000612bf5602c83611eea565b9150612c0082612b99565b604082019050919050565b60006020820190508181036000830152612c2481612be8565b9050919050565b7f4552433732313a207472616e73666572206f6620746f6b656e2074686174206960008201527f73206e6f74206f776e0000000000000000000000000000000000000000000000602082015250565b6000612c87602983611eea565b9150612c9282612c2b565b604082019050919050565b60006020820190508181036000830152612cb681612c7a565b9050919050565b7f4552433732313a207472616e7366657220746f20746865207a65726f2061646460008201527f7265737300000000000000000000000000000000000000000000000000000000602082015250565b6000612d19602483611eea565b9150612d2482612cbd565b604082019050919050565b60006020820190508181036000830152612d4881612d0c565b9050919050565b7f4e487b7100000000000000000000000000000000000000000000000000000000600052601160045260246000fd5b6000612d8982611f9a565b9150612d9483611f9a565b925082821015612da757612da6612d4f565b5b828203905092915050565b6000612dbd82611f9a565b9150612dc883611f9a565b9250827fffffffffffffffffffffffffffffffffffffffffffffffffffffffffffffffff03821115612dfd57612dfc612d4f565b5b828201905092915050565b7f4552433732313a207472616e7366657220746f206e6f6e20455243373231526560008201527f63656976657220696d706c656d656e7465720000000000000000000000000000602082015250565b6000612e64603283611eea565b9150612e6f82612e08565b604082019050919050565b60006020820190508181036000830152612e9381612e57565b9050919050565b600081519050919050565b600082825260208201905092915050565b6000612ec182612e9a565b612ecb8185612ea5565b9350612edb818560208601611efb565b612ee481611f2e565b840191505092915050565b6000608082019050612f04600083018761202f565b612f11602083018661202f565b612f1e60408301856120c5565b8181036060830152612f308184612eb6565b905095945050505050565b600081519050612f4a81611e50565b92915050565b600060208284031215612f6657612f65611e1a565b5b6000612f7484828501612f3b565b91505092915050565b7f4552433732313a206d696e7420746f20746865207a65726f2061646472657373600082015250565b6000612fb3602083611eea565b9150612fbe82612f7d565b602082019050919050565b60006020820190508181036000830152612fe281612fa6565b9050919050565b7f4552433732313a20746f6b656e20616c7265616479206d696e74656400000000600082015250565b600061301f601c83611eea565b915061302a82612fe9565b602082019050919050565b6000602082019050818103600083015261304e81613012565b9050919050565b7f4e487b7100000000000000000000000000000000000000000000000000000000600052603160045260246000fdfea2646970667358221220e7a821a0fae347dde42a4c12364a003f5899f1e858702fb7a486fc137272b2b964736f6c634300080e0033a2646970667358221220fd648faf1ef7a419abbcd0570ca86ff8965893ce70fada6d41474d325264384064736f6c634300080e0033",
  "immutableReferences": {},
  "source": "// SPDX-License-Identifier: MIT\r\npragma solidity ^0.8.0;\r\n\r\nimport \"@openzeppelin/contracts/utils/math/SafeMath.sol\";\r\nimport \"./MarketPlaceFeeHandler.sol\";\r\nimport \"./NFTCollection.sol\";\r\n\r\ncontract MarketPlaceHandler is MarketPlaceFeeHandler {\r\n    using SafeMath for uint256;\r\n\r\n    // -- Definitions\r\n    struct CollectionItem {\r\n        uint256 collectionId;\r\n        address collectionAddress; // ERC721 token of the collection\r\n        address ownerAddress;\r\n        bool isUserCollection; // Describes whenever the collection is created by user\r\n    }\r\n    // --\r\n\r\n    // -- Fields\r\n    // map mgs.sender => (collectionId => isOwner)\r\n    mapping(address => mapping(uint256 => bool)) usercollections;\r\n\r\n    // Array of collection Contracts\r\n    CollectionItem[] collectionStore;\r\n    uint256 collectionCount = 0;\r\n    // --\r\n\r\n    // -- Events\r\n    event onCollectionCreated(\r\n        uint256 indexed collectionId,\r\n        address indexed collectionAddress,\r\n        address indexed ownerAddress\r\n    );\r\n    // --\r\n\r\n    // -- Modifiers\r\n    modifier requireCollectionOwner(uint256 _collectionId) {\r\n        require(\r\n            usercollections[msg.sender][_collectionId],\r\n            \"Not collection owner\"\r\n        );\r\n        _;\r\n    }\r\n\r\n    // --\r\n\r\n    // -- Collection management\r\n    function createCollection(string memory _name, string memory _symbol)\r\n        public\r\n        payable\r\n        requireFee(FEE_COLLECTION_CREATE)\r\n    {\r\n        _createCollection(_name, _symbol, msg.sender, true);\r\n    }\r\n\r\n    function _createCollection(\r\n        string memory _name,\r\n        string memory _symbol,\r\n        address _ownerAddress,\r\n        bool _isUserCollection\r\n    ) internal {\r\n        NFTCollection collectionContract = new NFTCollection(_name, _symbol);\r\n        address _collectionAddress = address(collectionContract);\r\n\r\n        uint256 _collectionId = collectionCount;\r\n        collectionStore.push(\r\n            CollectionItem(\r\n                _collectionId,\r\n                _collectionAddress,\r\n                _ownerAddress,\r\n                _isUserCollection\r\n            )\r\n        );\r\n        collectionCount = collectionCount.add(1);\r\n\r\n        usercollections[_ownerAddress][_collectionId] = true;\r\n\r\n        emit onCollectionCreated(\r\n            _collectionId,\r\n            _collectionAddress,\r\n            _ownerAddress\r\n        );\r\n    }\r\n\r\n    // get all collections\r\n    function getAllCollections() public view returns (CollectionItem[] memory) {\r\n        return collectionStore;\r\n    }\r\n\r\n    // get my collections\r\n    function getMyCollections() public view returns (CollectionItem[] memory) {\r\n        uint256 resultCount;\r\n\r\n        // TODO : Ask for best practices\r\n\r\n        for (uint256 i = 0; i < collectionStore.length; i++) {\r\n            if (collectionStore[i].ownerAddress == msg.sender) {\r\n                resultCount++;\r\n            }\r\n        }\r\n\r\n        CollectionItem[] memory result = new CollectionItem[](resultCount);\r\n        uint256 j;\r\n\r\n        for (uint256 i = 0; i < collectionStore.length; i++) {\r\n            if (collectionStore[i].ownerAddress == msg.sender) {\r\n                result[j] = collectionStore[i];\r\n                j++;\r\n            }\r\n        }\r\n\r\n        return result;\r\n    }\r\n\r\n    // get top collections ???\r\n    // get items for collection (filters) TODO: think of EF like generic logic\r\n    // get top items from collection ???\r\n    // --\r\n}\r\n",
  "sourcePath": "C:\\github\\trayanm\\TTMMarket\\src\\contracts\\MarketPlaceHandler.sol",
  "compiler": {
    "name": "solc",
    "version": "0.8.14+commit.80d49f37.Emscripten.clang"
  },
  "schemaVersion": "3.4.7",
  "updatedAt": "2022-06-06T21:55:28.755Z",
  "devdoc": {
    "kind": "dev",
    "methods": {},
    "version": 1
  },
  "userdoc": {
    "kind": "user",
    "methods": {},
    "version": 1
  }
}