{
  "contractName": "MarketPlace",
  "abi": [
    {
      "inputs": [],
      "stateMutability": "nonpayable",
      "type": "constructor"
    },
    {
      "anonymous": false,
      "inputs": [
        {
          "indexed": true,
          "internalType": "address",
          "name": "previousOwner",
          "type": "address"
        },
        {
          "indexed": true,
          "internalType": "address",
          "name": "newOwner",
          "type": "address"
        }
      ],
      "name": "OwnershipTransferred",
      "type": "event"
    },
    {
      "anonymous": false,
      "inputs": [
        {
          "indexed": true,
          "internalType": "uint256",
          "name": "auctionId",
          "type": "uint256"
        },
        {
          "indexed": false,
          "internalType": "uint256",
          "name": "bid",
          "type": "uint256"
        }
      ],
      "name": "onAuctionBid",
      "type": "event"
    },
    {
      "anonymous": false,
      "inputs": [
        {
          "indexed": true,
          "internalType": "uint256",
          "name": "auctionId",
          "type": "uint256"
        },
        {
          "indexed": true,
          "internalType": "uint256",
          "name": "tokenId",
          "type": "uint256"
        }
      ],
      "name": "onAuctionCancelled",
      "type": "event"
    },
    {
      "anonymous": false,
      "inputs": [
        {
          "indexed": true,
          "internalType": "uint256",
          "name": "auctionId",
          "type": "uint256"
        },
        {
          "indexed": true,
          "internalType": "uint256",
          "name": "tokenId",
          "type": "uint256"
        }
      ],
      "name": "onAuctionClosed",
      "type": "event"
    },
    {
      "anonymous": false,
      "inputs": [
        {
          "indexed": true,
          "internalType": "uint256",
          "name": "auctionId",
          "type": "uint256"
        },
        {
          "indexed": true,
          "internalType": "uint256",
          "name": "tokenId",
          "type": "uint256"
        }
      ],
      "name": "onAuctionCreated",
      "type": "event"
    },
    {
      "anonymous": false,
      "inputs": [
        {
          "indexed": true,
          "internalType": "uint256",
          "name": "auctionId",
          "type": "uint256"
        },
        {
          "indexed": true,
          "internalType": "uint256",
          "name": "tokenId",
          "type": "uint256"
        }
      ],
      "name": "onAuctionFinished",
      "type": "event"
    },
    {
      "anonymous": false,
      "inputs": [
        {
          "indexed": true,
          "internalType": "uint256",
          "name": "collectionId",
          "type": "uint256"
        },
        {
          "indexed": true,
          "internalType": "address",
          "name": "collectionAddress",
          "type": "address"
        },
        {
          "indexed": true,
          "internalType": "address",
          "name": "ownerAddress",
          "type": "address"
        }
      ],
      "name": "onCollectionCreated",
      "type": "event"
    },
    {
      "stateMutability": "nonpayable",
      "type": "fallback"
    },
    {
      "inputs": [],
      "name": "owner",
      "outputs": [
        {
          "internalType": "address",
          "name": "",
          "type": "address"
        }
      ],
      "stateMutability": "view",
      "type": "function",
      "constant": true
    },
    {
      "inputs": [],
      "name": "renounceOwnership",
      "outputs": [],
      "stateMutability": "nonpayable",
      "type": "function"
    },
    {
      "inputs": [
        {
          "internalType": "address",
          "name": "newOwner",
          "type": "address"
        }
      ],
      "name": "transferOwnership",
      "outputs": [],
      "stateMutability": "nonpayable",
      "type": "function"
    },
    {
      "inputs": [
        {
          "internalType": "address",
          "name": "",
          "type": "address"
        }
      ],
      "name": "userFunds",
      "outputs": [
        {
          "internalType": "uint256",
          "name": "",
          "type": "uint256"
        }
      ],
      "stateMutability": "view",
      "type": "function",
      "constant": true
    },
    {
      "inputs": [
        {
          "internalType": "address",
          "name": "_collectionAddress",
          "type": "address"
        },
        {
          "internalType": "string",
          "name": "_tokenURI",
          "type": "string"
        }
      ],
      "name": "mint",
      "outputs": [
        {
          "internalType": "uint256",
          "name": "",
          "type": "uint256"
        }
      ],
      "stateMutability": "nonpayable",
      "type": "function"
    },
    {
      "inputs": [
        {
          "internalType": "string",
          "name": "_name",
          "type": "string"
        },
        {
          "internalType": "string",
          "name": "_symbol",
          "type": "string"
        },
        {
          "internalType": "string",
          "name": "_metaURI",
          "type": "string"
        }
      ],
      "name": "createCollection",
      "outputs": [
        {
          "internalType": "address",
          "name": "",
          "type": "address"
        }
      ],
      "stateMutability": "nonpayable",
      "type": "function"
    },
    {
      "inputs": [
        {
          "internalType": "address",
          "name": "_collectionAddress",
          "type": "address"
        },
        {
          "internalType": "string",
          "name": "_metaURI",
          "type": "string"
        }
      ],
      "name": "importCollection",
      "outputs": [
        {
          "internalType": "address",
          "name": "",
          "type": "address"
        }
      ],
      "stateMutability": "nonpayable",
      "type": "function"
    },
    {
      "inputs": [
        {
          "internalType": "uint256",
          "name": "_collectionId",
          "type": "uint256"
        }
      ],
      "name": "getCollection",
      "outputs": [
        {
          "components": [
            {
              "internalType": "uint256",
              "name": "collectionId",
              "type": "uint256"
            },
            {
              "internalType": "address",
              "name": "collectionAddress",
              "type": "address"
            },
            {
              "internalType": "address",
              "name": "ownerAddress",
              "type": "address"
            },
            {
              "internalType": "string",
              "name": "metaURI",
              "type": "string"
            }
          ],
          "internalType": "struct MarketPlace.CollectionItem",
          "name": "",
          "type": "tuple"
        }
      ],
      "stateMutability": "view",
      "type": "function",
      "constant": true
    },
    {
      "inputs": [],
      "name": "getCollectionCount",
      "outputs": [
        {
          "internalType": "uint256",
          "name": "",
          "type": "uint256"
        }
      ],
      "stateMutability": "view",
      "type": "function",
      "constant": true
    },
    {
      "inputs": [
        {
          "internalType": "address",
          "name": "_collectionAddress",
          "type": "address"
        },
        {
          "internalType": "uint256",
          "name": "_tokenId",
          "type": "uint256"
        },
        {
          "internalType": "uint256",
          "name": "_initialPrice",
          "type": "uint256"
        },
        {
          "internalType": "uint256",
          "name": "_reservedPrice",
          "type": "uint256"
        },
        {
          "internalType": "uint256",
          "name": "_buyItNowPrice",
          "type": "uint256"
        },
        {
          "internalType": "uint256",
          "name": "_durationDays",
          "type": "uint256"
        }
      ],
      "name": "createAuction",
      "outputs": [],
      "stateMutability": "nonpayable",
      "type": "function"
    },
    {
      "inputs": [],
      "name": "getAuctionCount",
      "outputs": [
        {
          "internalType": "uint256",
          "name": "",
          "type": "uint256"
        }
      ],
      "stateMutability": "view",
      "type": "function",
      "constant": true
    },
    {
      "inputs": [
        {
          "internalType": "address",
          "name": "collectionAddress",
          "type": "address"
        }
      ],
      "name": "getCollectionAuctions",
      "outputs": [
        {
          "internalType": "uint256[]",
          "name": "",
          "type": "uint256[]"
        }
      ],
      "stateMutability": "view",
      "type": "function",
      "constant": true
    },
    {
      "inputs": [
        {
          "internalType": "uint256",
          "name": "_auctionId",
          "type": "uint256"
        }
      ],
      "name": "getAuction",
      "outputs": [
        {
          "components": [
            {
              "internalType": "address",
              "name": "ownerAddress",
              "type": "address"
            },
            {
              "internalType": "address",
              "name": "collectionAddress",
              "type": "address"
            },
            {
              "internalType": "address",
              "name": "highestBidderAddress",
              "type": "address"
            },
            {
              "internalType": "uint256",
              "name": "highestBid",
              "type": "uint256"
            },
            {
              "internalType": "uint256",
              "name": "auctionId",
              "type": "uint256"
            },
            {
              "internalType": "uint256",
              "name": "tokenId",
              "type": "uint256"
            },
            {
              "internalType": "uint256",
              "name": "buyItNowPrice",
              "type": "uint256"
            },
            {
              "internalType": "uint256",
              "name": "reservedPrice",
              "type": "uint256"
            },
            {
              "internalType": "uint256",
              "name": "initialPrice",
              "type": "uint256"
            },
            {
              "internalType": "uint256",
              "name": "endTime",
              "type": "uint256"
            },
            {
              "internalType": "enum MarketPlace.AuctionStatus",
              "name": "auctionStatus",
              "type": "uint8"
            }
          ],
          "internalType": "struct MarketPlace.AuctionItem",
          "name": "",
          "type": "tuple"
        }
      ],
      "stateMutability": "view",
      "type": "function",
      "constant": true
    },
    {
      "inputs": [
        {
          "internalType": "address",
          "name": "_collectionAddress",
          "type": "address"
        },
        {
          "internalType": "uint256",
          "name": "_tokenId",
          "type": "uint256"
        }
      ],
      "name": "getAuctionBy",
      "outputs": [
        {
          "components": [
            {
              "internalType": "address",
              "name": "ownerAddress",
              "type": "address"
            },
            {
              "internalType": "address",
              "name": "collectionAddress",
              "type": "address"
            },
            {
              "internalType": "address",
              "name": "highestBidderAddress",
              "type": "address"
            },
            {
              "internalType": "uint256",
              "name": "highestBid",
              "type": "uint256"
            },
            {
              "internalType": "uint256",
              "name": "auctionId",
              "type": "uint256"
            },
            {
              "internalType": "uint256",
              "name": "tokenId",
              "type": "uint256"
            },
            {
              "internalType": "uint256",
              "name": "buyItNowPrice",
              "type": "uint256"
            },
            {
              "internalType": "uint256",
              "name": "reservedPrice",
              "type": "uint256"
            },
            {
              "internalType": "uint256",
              "name": "initialPrice",
              "type": "uint256"
            },
            {
              "internalType": "uint256",
              "name": "endTime",
              "type": "uint256"
            },
            {
              "internalType": "enum MarketPlace.AuctionStatus",
              "name": "auctionStatus",
              "type": "uint8"
            }
          ],
          "internalType": "struct MarketPlace.AuctionItem",
          "name": "",
          "type": "tuple"
        }
      ],
      "stateMutability": "view",
      "type": "function",
      "constant": true
    },
    {
      "inputs": [
        {
          "internalType": "uint256",
          "name": "_auctionId",
          "type": "uint256"
        }
      ],
      "name": "buyNowAuction",
      "outputs": [],
      "stateMutability": "payable",
      "type": "function",
      "payable": true
    },
    {
      "inputs": [
        {
          "internalType": "uint256",
          "name": "_auctionId",
          "type": "uint256"
        }
      ],
      "name": "cancelAuction",
      "outputs": [],
      "stateMutability": "nonpayable",
      "type": "function"
    },
    {
      "inputs": [
        {
          "internalType": "uint256",
          "name": "_auctionId",
          "type": "uint256"
        }
      ],
      "name": "checkAuction",
      "outputs": [],
      "stateMutability": "nonpayable",
      "type": "function"
    },
    {
      "inputs": [
        {
          "internalType": "uint256",
          "name": "_auctionId",
          "type": "uint256"
        }
      ],
      "name": "bidAuction",
      "outputs": [],
      "stateMutability": "payable",
      "type": "function",
      "payable": true
    },
    {
      "inputs": [
        {
          "internalType": "address",
          "name": "_collectionAddress",
          "type": "address"
        },
        {
          "internalType": "uint256",
          "name": "_tokenId",
          "type": "uint256"
        },
        {
          "internalType": "uint256",
          "name": "_offeredPrice",
          "type": "uint256"
        }
      ],
      "name": "createDirectOffer",
      "outputs": [],
      "stateMutability": "nonpayable",
      "type": "function"
    },
    {
      "inputs": [],
      "name": "getDirectOfferCount",
      "outputs": [
        {
          "internalType": "uint256",
          "name": "",
          "type": "uint256"
        }
      ],
      "stateMutability": "view",
      "type": "function",
      "constant": true
    },
    {
      "inputs": [
        {
          "internalType": "uint256",
          "name": "_directOfferId",
          "type": "uint256"
        }
      ],
      "name": "getDirectOffer",
      "outputs": [
        {
          "components": [
            {
              "internalType": "address",
              "name": "ownerAddress",
              "type": "address"
            },
            {
              "internalType": "address",
              "name": "collectionAddress",
              "type": "address"
            },
            {
              "internalType": "address",
              "name": "buyerAddress",
              "type": "address"
            },
            {
              "internalType": "uint256",
              "name": "directOfferId",
              "type": "uint256"
            },
            {
              "internalType": "uint256",
              "name": "tokenId",
              "type": "uint256"
            },
            {
              "internalType": "uint256",
              "name": "offeredPrice",
              "type": "uint256"
            },
            {
              "internalType": "enum MarketPlace.DirectOfferStatus",
              "name": "directOfferStatus",
              "type": "uint8"
            }
          ],
          "internalType": "struct MarketPlace.DirectOfferItem",
          "name": "",
          "type": "tuple"
        }
      ],
      "stateMutability": "view",
      "type": "function",
      "constant": true
    },
    {
      "inputs": [
        {
          "internalType": "address",
          "name": "_collectionAddress",
          "type": "address"
        },
        {
          "internalType": "uint256",
          "name": "_tokenId",
          "type": "uint256"
        }
      ],
      "name": "getDirectOffers",
      "outputs": [
        {
          "components": [
            {
              "internalType": "address",
              "name": "ownerAddress",
              "type": "address"
            },
            {
              "internalType": "address",
              "name": "collectionAddress",
              "type": "address"
            },
            {
              "internalType": "address",
              "name": "buyerAddress",
              "type": "address"
            },
            {
              "internalType": "uint256",
              "name": "directOfferId",
              "type": "uint256"
            },
            {
              "internalType": "uint256",
              "name": "tokenId",
              "type": "uint256"
            },
            {
              "internalType": "uint256",
              "name": "offeredPrice",
              "type": "uint256"
            },
            {
              "internalType": "enum MarketPlace.DirectOfferStatus",
              "name": "directOfferStatus",
              "type": "uint8"
            }
          ],
          "internalType": "struct MarketPlace.DirectOfferItem[]",
          "name": "",
          "type": "tuple[]"
        }
      ],
      "stateMutability": "view",
      "type": "function",
      "constant": true
    },
    {
      "inputs": [
        {
          "internalType": "address",
          "name": "_buyerAddress",
          "type": "address"
        },
        {
          "internalType": "address",
          "name": "_collectionAddress",
          "type": "address"
        },
        {
          "internalType": "uint256",
          "name": "_tokenId",
          "type": "uint256"
        }
      ],
      "name": "getDirectOfferBy",
      "outputs": [
        {
          "components": [
            {
              "internalType": "address",
              "name": "ownerAddress",
              "type": "address"
            },
            {
              "internalType": "address",
              "name": "collectionAddress",
              "type": "address"
            },
            {
              "internalType": "address",
              "name": "buyerAddress",
              "type": "address"
            },
            {
              "internalType": "uint256",
              "name": "directOfferId",
              "type": "uint256"
            },
            {
              "internalType": "uint256",
              "name": "tokenId",
              "type": "uint256"
            },
            {
              "internalType": "uint256",
              "name": "offeredPrice",
              "type": "uint256"
            },
            {
              "internalType": "enum MarketPlace.DirectOfferStatus",
              "name": "directOfferStatus",
              "type": "uint8"
            }
          ],
          "internalType": "struct MarketPlace.DirectOfferItem",
          "name": "",
          "type": "tuple"
        }
      ],
      "stateMutability": "view",
      "type": "function",
      "constant": true
    },
    {
      "inputs": [
        {
          "internalType": "uint256",
          "name": "_directOfferId",
          "type": "uint256"
        }
      ],
      "name": "cancelDirectOffer",
      "outputs": [],
      "stateMutability": "nonpayable",
      "type": "function"
    },
    {
      "inputs": [
        {
          "internalType": "uint256",
          "name": "_directOfferId",
          "type": "uint256"
        }
      ],
      "name": "acceptDirectOffer",
      "outputs": [],
      "stateMutability": "nonpayable",
      "type": "function"
    },
    {
      "inputs": [
        {
          "internalType": "uint256",
          "name": "_directOfferId",
          "type": "uint256"
        }
      ],
      "name": "fulfillDirectOffer",
      "outputs": [],
      "stateMutability": "payable",
      "type": "function",
      "payable": true
    },
    {
      "inputs": [],
      "name": "claimFunds",
      "outputs": [],
      "stateMutability": "nonpayable",
      "type": "function"
    },
    {
      "inputs": [],
      "name": "withdrawProfit",
      "outputs": [],
      "stateMutability": "nonpayable",
      "type": "function"
    },
    {
      "inputs": [],
      "name": "getProfitAmount",
      "outputs": [
        {
          "internalType": "uint256",
          "name": "",
          "type": "uint256"
        }
      ],
      "stateMutability": "nonpayable",
      "type": "function"
    }
  ],
  "bytecode": "0x60806040523480156200001157600080fd5b5062000038620000296401000000006200003e810204565b64010000000062000042810204565b62000092565b3390565b60008054600160a060020a03838116600160a060020a0319831681178455604051919092169283917f8be0079c531659141344cd1fd0a4f28419497f9722a3daafe3b4186f6b6457e09190a35050565b615e3f80620000a26000396000f3fe608060405260043610620001865760003560e060020a900480638387c6e111620000dd5780638387c6e11462000395578063849da0de14620003c65780638da5cb5b14620003fa578063959499b6146200042b57806396b5a7551462000443578063ac3077731462000468578063c44e66401462000480578063c9611ab91462000498578063d0def52114620004cc578063e324bd1f14620004f1578063e5266b661462000508578063e5d079f0146200052d578063ece86c211462000552578063f2fde38b1462000577578063f36df2fa146200059c5762000186565b80630c79b9f91462000198578063154e0e0214620001bf5780631943459614620001fc5780631c10106f146200022357806320c03948146200023b578063230c30a714620002605780632a3dcc76146200028557806343364ded146200029d5780635a1f3c2814620002d157806364a7d7c714620003055780636b2b1e06146200031c578063715018a6146200033357806378bd7935146200034b578063791bb4ef1462000370575b3480156200019357600080fd5b600080fd5b348015620001a557600080fd5b50620001bd620001b736600462002c06565b620005c1565b005b348015620001cc57600080fd5b50620001e4620001de36600462002c36565b620007ac565b604051620001f3919062002cbe565b60405180910390f35b3480156200020957600080fd5b5062000214620007ef565b604051908152602001620001f3565b3480156200023057600080fd5b50620002146200082f565b3480156200024857600080fd5b50620001bd6200025a36600462002c06565b62000840565b3480156200026d57600080fd5b50620001bd6200027f36600462002c06565b6200085d565b3480156200029257600080fd5b506200021462000981565b348015620002aa57600080fd5b50620002c2620002bc36600462002c06565b6200098d565b604051620001f3919062002dc5565b348015620002de57600080fd5b50620002f6620002f036600462002c06565b62000b05565b604051620001f3919062002e25565b620001bd6200031636600462002c06565b62000c0f565b620001bd6200032d36600462002c06565b62000e5e565b3480156200034057600080fd5b50620001bd620010d6565b3480156200035857600080fd5b50620001e46200036a36600462002c06565b6200111b565b3480156200037d57600080fd5b50620001bd6200038f36600462002e6f565b6200121d565b348015620003a257600080fd5b5062000214620003b436600462002ebe565b60056020526000908152604090205481565b348015620003d357600080fd5b50620003eb620003e536600462002c36565b6200162d565b604051620001f3919062002ede565b3480156200040757600080fd5b506200041262001748565b604051600160a060020a039091168152602001620001f3565b3480156200043857600080fd5b50620001bd62001757565b3480156200045057600080fd5b50620001bd6200046236600462002c06565b620017c8565b3480156200047557600080fd5b50620001bd62001973565b3480156200048d57600080fd5b506200021462001a16565b348015620004a557600080fd5b50620004bd620004b736600462002ebe565b62001a22565b604051620001f3919062002f30565b348015620004d957600080fd5b5062000214620004eb36600462003019565b62001a90565b620001bd6200050236600462002c06565b62001b19565b3480156200051557600080fd5b50620004126200052736600462003019565b62001dea565b3480156200053a57600080fd5b50620002c26200054c3660046200306f565b62001ecd565b3480156200055f57600080fd5b506200041262000571366004620030b5565b62001f13565b3480156200058457600080fd5b50620001bd6200059636600462002ebe565b6200211b565b348015620005a957600080fd5b50620001bd620005bb36600462003147565b620021e1565b600081815260076020526040902060038101548214620006015760405160e560020a62461bcd028152600401620005f8906200317f565b60405180910390fd5b6000600682015460ff1660038111156200061f576200061f62002c72565b14620006425760405160e560020a62461bcd028152600401620005f890620031b6565b600181015460048083015460405160e160020a6331a9108f02815291820152600160a060020a03909116908190636352211e90602401602060405180830381865afa15801562000696573d6000803e3d6000fd5b505050506040513d601f19601f82011682018060405250810190620006bc9190620031ed565b600160a060020a031633600160a060020a031614620006f25760405160e560020a62461bcd028152600401620005f8906200320d565b60048281015460405160e260020a63020604bf02815291820152600160a060020a0382169063081812fc90602401602060405180830381865afa1580156200073e573d6000803e3d6000fd5b505050506040513d601f19601f82011682018060405250810190620007649190620031ed565b600160a060020a031630600160a060020a0316146200079a5760405160e560020a62461bcd028152600401620005f89062003244565b50600601805460ff1916600117905550565b620007b662002afb565b600160a060020a0383166000908152600a60209081526040808320858452909152902054620007e5816200111b565b9150505b92915050565b600033620007fc62001748565b600160a060020a031614620008285760405160e560020a62461bcd028152600401620005f8906200327b565b5060045490565b60006200083b60015490565b905090565b60008181526006602052604090206200085981620024b8565b5050565b600081815260076020526040902060038101548214620008945760405160e560020a62461bcd028152600401620005f8906200317f565b6002810154600160a060020a03163314620008f55760405160e560020a62461bcd02815260206004820152601b60248201527f4f6e6c79206f666665722062617965722063616e2063616e63656c00000000006044820152606401620005f8565b6000600682015460ff16600381111562000913576200091362002c72565b14620009365760405160e560020a62461bcd028152600401620005f890620031b6565b60068101805460ff191660031790556001810154600160a060020a03166000908152600b602090815260408083206004850154845290915290206200097c903362002724565b505050565b60006200083b60035490565b6200099762002b83565b6000828152600760209081526040808320815160e0810183528154600160a060020a0390811682526001830154811694820194909452600282015490931691830191909152600380820154606084015260048201546080840152600582015460a0840152600682015460c084019160ff9091169081111562000a1d5762000a1d62002c72565b600381111562000a315762000a3162002c72565b8152505090508281606001511462000a8f5760405160e560020a62461bcd02815260206004820152601b60248201527f4469726563744f6666657220646f6573206e6f742065786973747300000000006044820152606401620005f8565b8051600160a060020a031633148062000ab457506040810151600160a060020a031633145b620007e95760405160e560020a62461bcd02815260206004820152601460248201527f4f6e6c792073656c6c6572206f722062757965720000000000000000000000006044820152606401620005f8565b6040805160808082018352600080835260208084018290528385018290526060808501819052868352600882529185902085519384018652805484526001810154600160a060020a0390811692850192909252600281015490911694830194909452600384018054939492939184019162000b8090620032b0565b80601f016020809104026020016040519081016040528092919081815260200182805462000bae90620032b0565b801562000bff5780601f1062000bd35761010080835404028352916020019162000bff565b820191906000526020600020905b81548152906001019060200180831162000be157829003601f168201915b5050505050815250509050919050565b60008181526006602052604090206004810154821462000c465760405160e560020a62461bcd028152600401620005f890620032f0565b62000c5181620024b8565b6000600a82015460ff16600381111562000c6f5762000c6f62002c72565b036200085957805433600160a060020a039091160362000cd55760405160e560020a62461bcd02815260206004820152601860248201527f41756374696f6e206f776e65722063616e6e6f742062696400000000000000006044820152606401620005f8565b600281015433600160a060020a039091160362000d385760405160e560020a62461bcd02815260206004820152601660248201527f416c7265616479206869676865737420626964646572000000000000000000006044820152606401620005f8565b8060030154341162000d905760405160e560020a62461bcd02815260206004820152601260248201527f426964206d6f73742062652062696767657200000000000000000000000000006044820152606401620005f8565b6000816003015411801562000db157506002810154600160a060020a031615155b1562000e025760038101546002820154600160a060020a031660009081526005602052604090205462000de49162002742565b6002820154600160a060020a03166000908152600560205260409020555b3460038201819055600282018054600160a060020a0319163317905560405183917f281a095d747cc9c4f0fa29ed1f9210bfef8a501597bbb761e159f8d3306316669162000e5291815260200190565b60405180910390a25050565b60008181526007602052604090206003810154821462000e955760405160e560020a62461bcd028152600401620005f8906200317f565b6001600682015460ff16600381111562000eb35762000eb362002c72565b1462000ed65760405160e560020a62461bcd028152600401620005f890620031b6565b6002810154600160a060020a0316331462000f375760405160e560020a62461bcd02815260206004820152601d60248201527f4f6e6c79206f666665722062617965722063616e2066756c6c66696c6c0000006044820152606401620005f8565b8060050154341462000f8f5760405160e560020a62461bcd02815260206004820152601a60248201527f4f66666572656420707269636520697320696e636f72726563740000000000006044820152606401620005f8565b60018101548154600283015460048085015460405160e060020a6323b872dd028152600160a060020a039586169586956323b872dd9562000fd895918316949216920162003327565b600060405180830381600087803b15801562000ff357600080fd5b505af115801562001008573d6000803e3d6000fd5b5050505060068201805460ff1916600217905560006200103760646200103034600362002750565b906200275e565b905060006200104734836200276c565b8454600160a060020a031660009081526005602052604090205490915062001070908262002742565b8454600160a060020a0390811660009081526005602090815260408083209490945560018801549092168152600b825282812060048801548252909152908120908181818181818181620010c5828262002bbd565b505050505050505050505050505050565b33620010e162001748565b600160a060020a0316146200110d5760405160e560020a62461bcd028152600401620005f8906200327b565b6200111960006200277a565b565b6200112562002afb565b60008281526006602081815260408084208151610160810183528154600160a060020a0390811682526001830154811694820194909452600282015490931691830191909152600380820154606084015260048201546080840152600582015460a08401529281015460c0830152600781015460e083015260088101546101008301526009810154610120830152600a8101549192909161014084019160ff90911690811115620011da57620011da62002c72565b6003811115620011ee57620011ee62002c72565b81525050905082816080015114620007e95760405160e560020a62461bcd028152600401620005f890620032f0565b60405160e160020a6331a9108f028152600481018690528690600160a060020a03821690636352211e90602401602060405180830381865afa15801562001268573d6000803e3d6000fd5b505050506040513d601f19601f820116820180604052508101906200128e9190620031ed565b600160a060020a031633600160a060020a031614620012c45760405160e560020a62461bcd028152600401620005f8906200320d565b60405160e260020a63020604bf02815260048101879052600160a060020a0382169063081812fc90602401602060405180830381865afa1580156200130d573d6000803e3d6000fd5b505050506040513d601f19601f82011682018060405250810190620013339190620031ed565b600160a060020a031630600160a060020a031614620013695760405160e560020a62461bcd028152600401620005f89062003244565b600160a060020a0387166000908152600a6020908152604080832089845290915290205415620013b05760405160e560020a62461bcd028152600401620005f8906200334b565b60008211620014055760405160e560020a62461bcd02815260206004820152601060248201527f496e76616c6964206475726174696f6e000000000000000000000000000000006044820152606401620005f8565b62001414600280546001019055565b60006200142060025490565b905060405180610160016040528033600160a060020a0316815260200189600160a060020a031681526020016000600160a060020a031681526020016000815260200182815260200188815260200185815260200186815260200187815260200184620151806200149291906200339c565b6200149e9042620033be565b81526020016000905260008281526006602081815260409283902084518154600160a060020a0319908116600160a060020a0392831617835592860151600180840180548616928416929092179091559486015160028301805490941691161790915560608401516003808301919091556080850151600483015560a0850151600583015560c08501519282019290925560e0840151600782015561010084015160088201556101208401516009820155610140840151600a8201805492949193909260ff1916919084908111156200157b576200157b62002c72565b02179055505050600160a060020a0388166000818152600960209081526040808320805460018101825590845282842001859055838352600a82528083208b84528252808320859055928252600b81528282208a83529052908120908181818181818181620015eb828262002bbd565b5050505050505050505086817fd086c941db0dfd32e8d65552faa1a349d3c3fc18b2235a0fe20be668c81feee060405160405180910390a35050505050505050565b600160a060020a0382166000908152600b602090815260408083208484529091528120606091906200165f90620027ca565b905060008167ffffffffffffffff8111156200167f576200167f62002f6a565b604051908082528060200260200182016040528015620016bc57816020015b620016a862002b83565b8152602001906001900390816200169e5790505b50905060005b828110156200173f57600160a060020a0386166000908152600b602090815260408083208884529091528120620016fa9083620027d7565b91505062001708816200098d565b8383815181106200171d576200171d620033d9565b60200260200101819052505080806200173690620033f3565b915050620016c2565b50949350505050565b600054600160a060020a031690565b336200176262001748565b600160a060020a0316146200178e5760405160e560020a62461bcd028152600401620005f8906200327b565b6004805460009182905560405190913391829184156108fc02918591818181858888f193505050501580156200097c573d6000803e3d6000fd5b600081815260066020526040902060048101548214620017ff5760405160e560020a62461bcd028152600401620005f890620032f0565b6200180a81620024b8565b6000600a82015460ff16600381111562001828576200182862002c72565b0362000859578054600160a060020a031633146200188c5760405160e560020a62461bcd02815260206004820152601d60248201527f4f6e6c792061756374696f6e206f776e65722063616e2063616e63656c0000006044820152606401620005f8565b600a810180546003919060ff191660018302179055506001810154600160a060020a03166000908152600a6020908152604080832060058501548452909152812055600381015415801590620018ee57506002810154600160a060020a031615155b156200193f5760038101546002820154600160a060020a0316600090815260056020526040902054620019219162002742565b6002820154600160a060020a03166000908152600560205260409020555b600581015460405183907f9c31dd0dfb89b9b275633c46be4dc396661364ff715b47b8ae06201681e7ebc390600090a35050565b33600090815260056020526040902054620019d45760405160e560020a62461bcd02815260206004820152601660248201527f4e6f2066756e647320746f20626520636c61696d6564000000000000000000006044820152606401620005f8565b33600081815260056020526040808220805490839055905190929183156108fc02918491818181858888f1935050505015801562000859573d6000803e3d6000fd5b60006200083b60025490565b600160a060020a03811660009081526009602090815260409182902080548351818402810184019094528084526060939283018282801562001a8457602002820191906000526020600020905b81548152602001906001019080831162001a6f575b50505050509050919050565b60405160e160020a633635692102815260009083908290600160a060020a03831690636c6ad2429062001aca90339088906004016200340f565b6020604051808303816000875af115801562001aea573d6000803e3d6000fd5b505050506040513d601f19601f8201168201806040525081019062001b10919062003433565b95945050505050565b60008181526006602052604090206004810154821462001b505760405160e560020a62461bcd028152600401620005f890620032f0565b62001b5b81620024b8565b6000600a82015460ff16600381111562001b795762001b7962002c72565b036200085957805433600160a060020a039091160362001bdf5760405160e560020a62461bcd02815260206004820152601b60248201527f41756374696f6e206f776e65722063616e6e6f742062757920697400000000006044820152606401620005f8565b600081600601541162001c385760405160e560020a62461bcd02815260206004820152601660248201527f427579206e6f77206973206e6f7420616c6c6f776564000000000000000000006044820152606401620005f8565b8060060154341462001c905760405160e560020a62461bcd02815260206004820152601860248201527f427579206e6f77207072696365206973206772656174657200000000000000006044820152606401620005f8565b60018101548154600583015460405160e060020a6323b872dd028152600160a060020a039384169384936323b872dd9362001cd5939190921691339160040162003327565b600060405180830381600087803b15801562001cf057600080fd5b505af115801562001d05573d6000803e3d6000fd5b50505050600a8201805460ff19166002179055600062001d2d60646200103034600362002750565b9050600062001d3d34836200276c565b60045490915062001d4f908362002742565b6004558354600160a060020a031660009081526005602052604090205462001d78908262002742565b8454600160a060020a0390811660009081526005602081815260408084209590955560018901549093168252600a83528382209088018054835292528281208190559054915187917fac764b5e3093df07973820131c91169ffd8ac85fd2f8f7329bb83e8ba6299e7291a35050505050565b600062001dfb600180546001019055565b600062001e0760015490565b60408051608081018252828152600160a060020a03808816602080840191825233848601908152606085018a81526000888152600890935295909120845181559151600183018054918516600160a060020a0319928316179055905160028301805491909416911617909155915192935091600382019062001e8a90826200349f565b5050604051339150600160a060020a0386169083907fecbe631ce73f784b71c74c5339317b59e203e339d6773c02526891b8063931c090600090a4509192915050565b62001ed762002b83565b600160a060020a0383166000908152600b60209081526040808320858452909152812062001f069086620027f5565b905062001b10816200098d565b600080848460405162001f269062002bdd565b62001f3392919062003572565b604051809103906000f08015801562001f50573d6000803e3d6000fd5b5060405160e060020a632f2ff15d0281527f9f2df0fed2c77648de5860a4cc508cd0818c85b8b8a1ab4ceeef8d981c8956a66004820152336024820152909150600160a060020a03821690632f2ff15d90604401600060405180830381600087803b15801562001fbf57600080fd5b505af115801562001fd4573d6000803e3d6000fd5b505060405160e060020a63a22cb46502815233600482015260016024820152600160a060020a038416925063a22cb4659150604401600060405180830381600087803b1580156200202457600080fd5b505af115801562002039573d6000803e3d6000fd5b505060018054810190555081905060006200205360015490565b60408051608081018252828152600160a060020a03808616602080840191825233848601908152606085018c81526000888152600890935295909120845181559151600183018054918516600160a060020a03199283161790559051600283018054919094169116179091559151929350916003820190620020d690826200349f565b5050604051339150600160a060020a0384169083907fecbe631ce73f784b71c74c5339317b59e203e339d6773c02526891b8063931c090600090a45095945050505050565b336200212662001748565b600160a060020a031614620021525760405160e560020a62461bcd028152600401620005f8906200327b565b600160a060020a038116620021d35760405160e560020a62461bcd02815260206004820152602660248201527f4f776e61626c653a206e6577206f776e657220697320746865207a65726f206160448201527f64647265737300000000000000000000000000000000000000000000000000006064820152608401620005f8565b620021de816200277a565b50565b60405160e160020a6331a9108f028152600481018390528390600090600160a060020a03831690636352211e90602401602060405180830381865afa1580156200222f573d6000803e3d6000fd5b505050506040513d601f19601f82011682018060405250810190620022559190620031ed565b9050600160a060020a0381163303620022b45760405160e560020a62461bcd02815260206004820152601360248201527f416c726561647920746f6b656e206f776e6572000000000000000000000000006044820152606401620005f8565b60008311620023095760405160e560020a62461bcd02815260206004820152601c60248201527f4f6666657265642070726963652063616e6e6f74206265207a65726f000000006044820152606401620005f8565b600160a060020a0385166000908152600a6020908152604080832087845290915290205415620023505760405160e560020a62461bcd028152600401620005f8906200334b565b6200235f600380546001019055565b60006200236b60035490565b90506040518060e0016040528083600160a060020a0316815260200187600160a060020a0316815260200133600160a060020a0316815260200182815260200186815260200185815260200160006003811115620023cd57620023cd62002c72565b905260008281526007602090815260409182902083518154600160a060020a0319908116600160a060020a0392831617835592850151600180840180548616928416929092179091559385015160028301805490941691161790915560608301516003808301919091556080840151600483015560a0840151600583015560c084015160068301805493949193909260ff199091169190849081111562002478576200247862002c72565b02179055505050600160a060020a0386166000908152600b602090815260408083208884529091529020620024af9033836200280c565b50505050505050565b6000600a82015460ff166003811115620024d657620024d662002c72565b03620021de57600981015442108015906200085957600182015460088301546003840154600160a060020a03909216911180156200251b575082600701548360030154115b156200266c57600a8301805460ff191660021790556003808401546000916200254d9160649162001030919062002750565b905060006200256a8286600301546200276c90919063ffffffff16565b6004549091506200257c908362002742565b6004558454600160a060020a0316600090815260056020526040902054620025a5908262002742565b8554600160a060020a0390811660009081526005602081905260409182902093909355875492880154905160e060020a6323b872dd028152868316936323b872dd93620025fb9391169133919060040162003327565b600060405180830381600087803b1580156200261657600080fd5b505af11580156200262b573d6000803e3d6000fd5b50505050846005015485600401547fac764b5e3093df07973820131c91169ffd8ac85fd2f8f7329bb83e8ba6299e7260405160405180910390a35050505050565b600a8301805460ff191660011790556003830154158015906200269b57506002830154600160a060020a031615155b15620026ec5760038301546002840154600160a060020a0316600090815260056020526040902054620026ce9162002742565b6002840154600160a060020a03166000908152600560205260409020555b600583015460048401546040517fd484161cdc7334a69596d5f9999063f7f6e66fed80c3ecd553653547aa563ec790600090a3505050565b60006200273b83600160a060020a0384166200282c565b9392505050565b60006200273b8284620033be565b60006200273b82846200339c565b60006200273b82846200359b565b60006200273b8284620035c2565b60008054600160a060020a03838116600160a060020a0319831681178455604051919092169283917f8be0079c531659141344cd1fd0a4f28419497f9722a3daafe3b4186f6b6457e09190a35050565b6000620007e9826200284b565b6000808080620027e8868662002858565b9097909650945050505050565b60006200273b83600160a060020a03841662002885565b60006200282484600160a060020a03851684620028fd565b949350505050565b600081815260028301602052604081208190556200273b83836200291c565b6000620007e9826200292a565b6000808062002868858562002935565b600081815260029690960160205260409095205494959350505050565b600081815260028301602052604081205480151580620028ac5750620028ac848462002943565b6200273b5760405160e560020a62461bcd02815260206004820152601e60248201527f456e756d657261626c654d61703a206e6f6e6578697374656e74206b657900006044820152606401620005f8565b6000828152600284016020526040812082905562002824848462002951565b60006200273b83836200295f565b6000620007e9825490565b60006200273b838362002a63565b60006200273b838362002a90565b60006200273b838362002aa9565b6000818152600183016020526040812054801562002a5857600062002986600183620035c2565b85549091506000906200299c90600190620035c2565b905081811462002a08576000866000018281548110620029c057620029c0620033d9565b9060005260206000200154905080876000018481548110620029e657620029e6620033d9565b6000918252602080832090910192909255918252600188019052604090208390555b855486908062002a1c5762002a1c620035dc565b600190038181906000526020600020016000905590558560010160008681526020019081526020016000206000905560019350505050620007e9565b6000915050620007e9565b600082600001828154811062002a7d5762002a7d620033d9565b9060005260206000200154905092915050565b600081815260018301602052604081205415156200273b565b600081815260018301602052604081205462002af257508154600181810184556000848152602080822090930184905584548482528286019093526040902091909155620007e9565b506000620007e9565b6040518061016001604052806000600160a060020a031681526020016000600160a060020a031681526020016000600160a060020a03168152602001600081526020016000815260200160008152602001600081526020016000815260200160008152602001600081526020016000600381111562002b7e5762002b7e62002c72565b905290565b6040805160e081018252600080825260208201819052918101829052606081018290526080810182905260a081018290529060c082015290565b5080546000825590600052602060002090810190620021de919062002beb565b61281380620035f783390190565b5b8082111562002c02576000815560010162002bec565b5090565b60006020828403121562002c1957600080fd5b5035919050565b600160a060020a0381168114620021de57600080fd5b6000806040838503121562002c4a57600080fd5b823562002c578162002c20565b946020939093013593505050565b600160a060020a03169052565b60e060020a634e487b710260009081526021600452602490fd5b60048110620021de5760e060020a634e487b710260009081526021600452602490fd5b62002cba8162002c8c565b9052565b60006101608201905062002cd482845162002c65565b602083015162002ce8602084018262002c65565b50604083015162002cfd604084018262002c65565b50606083015160608301526080830151608083015260a083015160a083015260c083015160c083015260e083015160e08301526101008084015181840152506101208084015181840152506101408084015162002d5d8285018262002caf565b505092915050565b600160a060020a0380825116835280602083015116602084015280604083015116604084015250606081015160608301526080810151608083015260a081015160a083015260c081015162002dba8162002c8c565b8060c0840152505050565b60e08101620007e9828462002d65565b6000815180845260005b8181101562002dfd5760208185018101518683018201520162002ddf565b8181111562002e10576000602083870101525b50601f01601f19169290920160200192915050565b602081528151602082015260006020830151600160a060020a03808216604085015280604086015116606085015250506060830151608080840152620007e560a084018262002dd5565b60008060008060008060c0878903121562002e8957600080fd5b863562002e968162002c20565b9860208801359850604088013597606081013597506080810135965060a00135945092505050565b60006020828403121562002ed157600080fd5b81356200273b8162002c20565b6020808252825182820181905260009190848201906040850190845b8181101562002f245762002f1083855162002d65565b9284019260e0929092019160010162002efa565b50909695505050505050565b6020808252825182820181905260009190848201906040850190845b8181101562002f245783518352928401929184019160010162002f4c565b60e060020a634e487b710260009081526041600452602490fd5b600082601f83011262002f9657600080fd5b813567ffffffffffffffff8082111562002fb45762002fb462002f6a565b604051601f8301601f19908116603f0116810190828211818310171562002fdf5762002fdf62002f6a565b8160405283815286602085880101111562002ff957600080fd5b836020870160208301376000602085830101528094505050505092915050565b600080604083850312156200302d57600080fd5b82356200303a8162002c20565b9150602083013567ffffffffffffffff8111156200305757600080fd5b620030658582860162002f84565b9150509250929050565b6000806000606084860312156200308557600080fd5b8335620030928162002c20565b92506020840135620030a48162002c20565b929592945050506040919091013590565b600080600060608486031215620030cb57600080fd5b833567ffffffffffffffff80821115620030e457600080fd5b620030f28783880162002f84565b945060208601359150808211156200310957600080fd5b620031178783880162002f84565b935060408601359150808211156200312e57600080fd5b506200313d8682870162002f84565b9150509250925092565b6000806000606084860312156200315d57600080fd5b83356200316a8162002c20565b95602085013595506040909401359392505050565b60208082526015908201527f4f6666657220646f6573206e6f74206578697374730000000000000000000000604082015260600190565b60208082526011908201527f4f66666572206973206e6f74206f70656e000000000000000000000000000000604082015260600190565b6000602082840312156200320057600080fd5b81516200273b8162002c20565b6020808252600f908201527f4e6f7420746f6b656e206f776e65720000000000000000000000000000000000604082015260600190565b6020808252601b908201527f4d61726b6574506c616365206973206e6f7420617070726f7665640000000000604082015260600190565b6020808252818101527f4f776e61626c653a2063616c6c6572206973206e6f7420746865206f776e6572604082015260600190565b600281046001821680620032c557607f821691505b602082108103620032ea5760e060020a634e487b710260009081526022600452602490fd5b50919050565b60208082526017908201527f41756374696f6e20646f6573206e6f7420657869737473000000000000000000604082015260600190565b600160a060020a039384168152919092166020820152604081019190915260600190565b6020808252601d908201527f41756374696f6e20666f72207468697320746f6b656e20657869737473000000604082015260600190565b60e060020a634e487b710260009081526011600452602490fd5b6000816000190483118215151615620033b957620033b962003382565b500290565b60008219821115620033d457620033d462003382565b500190565b60e060020a634e487b710260009081526032600452602490fd5b60006001820162003408576200340862003382565b5060010190565b600160a060020a038316815260406020820152600062002824604083018462002dd5565b6000602082840312156200344657600080fd5b5051919050565b601f8211156200097c576000818152602081206020601f86010481016020861015620034765750805b6020601f860104820191505b81811015620034975782815560010162003482565b505050505050565b815167ffffffffffffffff811115620034bc57620034bc62002f6a565b620034d481620034cd8454620032b0565b846200344d565b602080601f831160018114620035105760008415620034f35750858301515b60028086026008870290910a600019041982161786555062003497565b600085815260208120601f198616915b82811015620035415788860151825594840194600190910190840162003520565b50858210156200356257878501516008601f88160260020a60001904191681555b5050505050600202600101905550565b60408152600062003587604083018562002dd5565b828103602084015262001b10818562002dd5565b600082620035bd5760e060020a634e487b710260009081526012600452602490fd5b500490565b600082821015620035d757620035d762003382565b500390565b60e060020a634e487b710260009081526031600452602490fdfe60806040523480156200001157600080fd5b50604051620028133803806200281383398101604081905262000034916200028c565b818160006200004483826200039e565b5060016200005382826200039e565b506200008091506000905062000071640100000000620000c0810204565b640100000000620000c4810204565b620000b87f9f2df0fed2c77648de5860a4cc508cd0818c85b8b8a1ab4ceeef8d981c8956a662000071640100000000620000c0810204565b505062000470565b3390565b620000d98282640100000000620000dd810204565b5050565b620000f282826401000000006200017b810204565b620000d9576000828152600a60209081526040808320600160a060020a03851684529091529020805460ff1916600117905562000137640100000000620000c0810204565b600160a060020a031681600160a060020a0316837f2f8788117e7eff1d82e926ec794901d17c78024a50270940304540a733656f0d60405160405180910390a45050565b6000918252600a60209081526040808420600160a060020a0393909316845291905290205460ff1690565b7f4e487b7100000000000000000000000000000000000000000000000000000000600052604160045260246000fd5b600082601f830112620001e757600080fd5b81516001604060020a0380821115620002045762000204620001a6565b604051601f8301601f19908116603f011681019082821181831017156200022f576200022f620001a6565b816040528381526020925086838588010111156200024c57600080fd5b600091505b8382101562000270578582018301518183018401529082019062000251565b83821115620002825760008385830101525b9695505050505050565b60008060408385031215620002a057600080fd5b82516001604060020a0380821115620002b857600080fd5b620002c686838701620001d5565b93506020850151915080821115620002dd57600080fd5b50620002ec85828601620001d5565b9150509250929050565b6002810460018216806200030b57607f821691505b60208210810362000345577f4e487b7100000000000000000000000000000000000000000000000000000000600052602260045260246000fd5b50919050565b601f82111562000399576000818152602081206020601f86010481016020861015620003745750805b6020601f860104820191505b81811015620003955782815560010162000380565b5050505b505050565b81516001604060020a03811115620003ba57620003ba620001a6565b620003d281620003cb8454620002f6565b846200034b565b602080601f8311600181146200040e5760008415620003f15750858301515b60028086026008870290910a600019041982161786555062000395565b600085815260208120601f198616915b828110156200043f578886015182559484019460019091019084016200041e565b50858210156200046057878501516008601f88160260020a60001904191681555b5050505050600202600101905550565b61239380620004806000396000f3fe608060405234801561001057600080fd5b506004361061015d5760003560e060020a90048063695850fb116100cd578063695850fb146102995780636c6ad242146102ac5780636c8b703f146102bf57806370a08231146102d257806391d14854146102e557806395d89b41146102f8578063a217fddf14610300578063a22cb46514610308578063b88d4fde1461031b578063c2ba47441461032e578063c87b56dd14610341578063d539139314610354578063d547741f14610369578063e985e9c51461037c57600080fd5b806301ffc9a71461016257806306fdde031461018a578063081812fc1461019f578063095ea7b3146101ca57806318160ddd146101df57806323b872dd146101f1578063248a9ca3146102045780632f2ff15d146102275780632f745c591461023a57806336568abe1461024d57806342842e0e146102605780634f6ccce7146102735780636352211e14610286575b600080fd5b610175610170366004611bd2565b61038f565b60405190151581526020015b60405180910390f35b6101926103a0565b6040516101819190611c47565b6101b26101ad366004611c5a565b610432565b604051600160a060020a039091168152602001610181565b6101dd6101d8366004611c8f565b6104c5565b005b6008545b604051908152602001610181565b6101dd6101ff366004611cb9565b6105e3565b6101e3610212366004611c5a565b6000908152600a602052604090206001015490565b6101dd610235366004611cf5565b610617565b6101e3610248366004611c8f565b61063c565b6101dd61025b366004611cf5565b6106e7565b6101dd61026e366004611cb9565b610776565b6101e3610281366004611c5a565b610791565b6101b2610294366004611c5a565b610838565b6101e36102a7366004611dd1565b6108c6565b6101e36102ba366004611e06565b610a33565b6101926102cd366004611c5a565b610ba3565b6101e36102e0366004611e54565b610c4f565b6101756102f3366004611cf5565b610cec565b610192610d17565b6101e3600081565b6101dd610316366004611e6f565b610d26565b6101dd610329366004611eab565b610d31565b61017561033c366004611e54565b610d6c565b61019261034f366004611c5a565b610d86565b6101e360008051602061233e83398151915281565b6101dd610377366004611cf5565b610ea4565b61017561038a366004611f27565b610ec9565b600061039a82610ef7565b92915050565b6060600080546103af90611f51565b80601f01602080910402602001604051908101604052809291908181526020018280546103db90611f51565b80156104285780601f106103fd57610100808354040283529160200191610428565b820191906000526020600020905b81548152906001019060200180831161040b57829003601f168201915b5050505050905090565b600061043d82610f1f565b6104a95760405160e560020a62461bcd02815260206004820152602c60248201527f4552433732313a20617070726f76656420717565727920666f72206e6f6e6578604482015260a160020a6b34b9ba32b73a103a37b5b2b70260648201526084015b60405180910390fd5b50600090815260046020526040902054600160a060020a031690565b60006104d082610838565b905080600160a060020a031683600160a060020a0316036105435760405160e560020a62461bcd02815260206004820152602160248201527f4552433732313a20617070726f76616c20746f2063757272656e74206f776e65604482015260f960020a60390260648201526084016104a0565b33600160a060020a038216148061055f575061055f8133610ec9565b6105d45760405160e560020a62461bcd02815260206004820152603860248201527f4552433732313a20617070726f76652063616c6c6572206973206e6f74206f7760448201527f6e6572206e6f7220617070726f76656420666f7220616c6c000000000000000060648201526084016104a0565b6105de8383610f3c565b505050565b6105ed3382610faa565b61060c5760405160e560020a62461bcd0281526004016104a090611f8f565b6105de83838361107a565b6000828152600a60205260409020600101546106328161122d565b6105de838361123a565b600061064783610c4f565b82106106be5760405160e560020a62461bcd02815260206004820152602b60248201527f455243373231456e756d657261626c653a206f776e657220696e646578206f7560448201527f74206f6620626f756e647300000000000000000000000000000000000000000060648201526084016104a0565b50600160a060020a03919091166000908152600660209081526040808320938352929052205490565b600160a060020a03811633146107685760405160e560020a62461bcd02815260206004820152602f60248201527f416363657373436f6e74726f6c3a2063616e206f6e6c792072656e6f756e636560448201527f20726f6c657320666f722073656c66000000000000000000000000000000000060648201526084016104a0565b61077282826112c0565b5050565b6105de83838360405180602001604052806000815250610d31565b600061079c60085490565b82106108135760405160e560020a62461bcd02815260206004820152602c60248201527f455243373231456e756d657261626c653a20676c6f62616c20696e646578206f60448201527f7574206f6620626f756e6473000000000000000000000000000000000000000060648201526084016104a0565b6008828154811061082657610826611fec565b90600052602060002001549050919050565b600081815260026020526040812054600160a060020a03168061039a5760405160e560020a62461bcd02815260206004820152602960248201527f4552433732313a206f776e657220717565727920666f72206e6f6e657869737460448201527f656e7420746f6b656e000000000000000000000000000000000000000000000060648201526084016104a0565b60006108e060008051602061233e83398151915233610cec565b6109555760405160e560020a62461bcd02815260206004820152603d60248201527f4552433732315072657365744d696e7465725061757365724175746f49643a2060448201527f6d7573742068617665206d696e74657220726f6c6520746f206d696e7400000060648201526084016104a0565b600c826040516109659190612006565b9081526040519081900360200190205460ff16156109985760405160e560020a62461bcd0281526004016104a090612022565b600b80546001810182556000919091527f0175b7a638427703f0dbe7bb9bbf987a2551717b34e79f33b5b1008d1fa01db9016109d483826120a7565b50600b546000818152600d602052604090206109f084826120a7565b506109fb3382611327565b6001600c84604051610a0d9190612006565b908152604051908190036020019020805491151560ff1990921691909117905592915050565b6000610a3f8133610cec565b610ab45760405160e560020a62461bcd02815260206004820152603c60248201527f4552433732315072657365744d696e7465725061757365724175746f49643a2060448201527f6d75737420686176652061646d696e20726f6c6520746f206d696e740000000060648201526084016104a0565b600c82604051610ac49190612006565b9081526040519081900360200190205460ff1615610af75760405160e560020a62461bcd0281526004016104a090612022565b600b80546001810182556000919091527f0175b7a638427703f0dbe7bb9bbf987a2551717b34e79f33b5b1008d1fa01db901610b3383826120a7565b50600b546000818152600d60205260409020610b4f84826120a7565b50610b5a8482611341565b6001600c84604051610b6c9190612006565b908152604051908190036020019020805491151560ff19909216919091179055610b9c610b963390565b82610f3c565b9392505050565b600b8181548110610bb357600080fd5b906000526020600020016000915090508054610bce90611f51565b80601f0160208091040260200160405190810160405280929190818152602001828054610bfa90611f51565b8015610c475780601f10610c1c57610100808354040283529160200191610c47565b820191906000526020600020905b815481529060010190602001808311610c2a57829003601f168201915b505050505081565b6000600160a060020a038216610cd05760405160e560020a62461bcd02815260206004820152602a60248201527f4552433732313a2062616c616e636520717565727920666f7220746865207a6560448201527f726f20616464726573730000000000000000000000000000000000000000000060648201526084016104a0565b50600160a060020a031660009081526003602052604090205490565b6000918252600a60209081526040808420600160a060020a0393909316845291905290205460ff1690565b6060600180546103af90611f51565b610772338383611486565b610d3b3383610faa565b610d5a5760405160e560020a62461bcd0281526004016104a090611f8f565b610d6684848484611557565b50505050565b600061039a60008051602061233e83398151915283610cec565b6060610d9182610f1f565b610e065760405160e560020a62461bcd02815260206004820152602f60248201527f4552433732314d657461646174613a2055524920717565727920666f72206e6f60448201527f6e6578697374656e7420746f6b656e000000000000000000000000000000000060648201526084016104a0565b6000828152600d602052604090208054610e1f90611f51565b80601f0160208091040260200160405190810160405280929190818152602001828054610e4b90611f51565b8015610e985780601f10610e6d57610100808354040283529160200191610e98565b820191906000526020600020905b815481529060010190602001808311610e7b57829003601f168201915b50505050509050919050565b6000828152600a6020526040902060010154610ebf8161122d565b6105de83836112c0565b600160a060020a03918216600090815260056020908152604080832093909416825291909152205460ff1690565b6000600160e060020a0319821660e060020a637965db0b02148061039a575061039a8261158d565b600090815260026020526040902054600160a060020a0316151590565b60008181526004602052604090208054600160a060020a031916600160a060020a0384169081179091558190610f7182610838565b600160a060020a03167f8c5be1e5ebec7d5bd14f71427d1e84f3dd0314c0f7b2291e5b200ac8c7c3b92560405160405180910390a45050565b6000610fb582610f1f565b61101c5760405160e560020a62461bcd02815260206004820152602c60248201527f4552433732313a206f70657261746f7220717565727920666f72206e6f6e6578604482015260a160020a6b34b9ba32b73a103a37b5b2b70260648201526084016104a0565b600061102783610838565b905080600160a060020a031684600160a060020a0316148061104e575061104e8185610ec9565b80611072575083600160a060020a031661106784610432565b600160a060020a0316145b949350505050565b82600160a060020a031661108d82610838565b600160a060020a0316146110f75760405160e560020a62461bcd02815260206004820152602560248201527f4552433732313a207472616e736665722066726f6d20696e636f727265637420604482015260d960020a6437bbb732b90260648201526084016104a0565b600160a060020a03821661115f5760405160e560020a62461bcd028152602060048201526024808201527f4552433732313a207472616e7366657220746f20746865207a65726f20616464604482015260e060020a63726573730260648201526084016104a0565b61116a8383836115b5565b611175600082610f3c565b600160a060020a038316600090815260036020526040812080546001929061119e908490612187565b9091555050600160a060020a03821660009081526003602052604081208054600192906111cc90849061219e565b90915550506000818152600260205260408082208054600160a060020a031916600160a060020a0386811691821790925591518493918716917fddf252ad1be2c89b69c2b068fc378daa952ba7f163c4a11628f55a4df523b3ef91a4505050565b61123781336115c0565b50565b6112448282610cec565b610772576000828152600a60209081526040808320600160a060020a03851684529091529020805460ff1916600117905561127c3390565b600160a060020a031681600160a060020a0316837f2f8788117e7eff1d82e926ec794901d17c78024a50270940304540a733656f0d60405160405180910390a45050565b6112ca8282610cec565b15610772576000828152600a60209081526040808320600160a060020a0385168085529252808320805460ff1916905551339285917ff6391f5c32d9c69d2a47ea670b442974b53935d1edc7fd64eb21e047a839171b9190a45050565b610772828260405180602001604052806000815250611627565b600160a060020a03821661139a5760405160e560020a62461bcd02815260206004820181905260248201527f4552433732313a206d696e7420746f20746865207a65726f206164647265737360448201526064016104a0565b6113a381610f1f565b156113f35760405160e560020a62461bcd02815260206004820152601c60248201527f4552433732313a20746f6b656e20616c7265616479206d696e7465640000000060448201526064016104a0565b6113ff600083836115b5565b600160a060020a038216600090815260036020526040812080546001929061142890849061219e565b90915550506000818152600260205260408082208054600160a060020a031916600160a060020a03861690811790915590518392907fddf252ad1be2c89b69c2b068fc378daa952ba7f163c4a11628f55a4df523b3ef908290a45050565b81600160a060020a031683600160a060020a0316036114ea5760405160e560020a62461bcd02815260206004820152601960248201527f4552433732313a20617070726f766520746f2063616c6c65720000000000000060448201526064016104a0565b600160a060020a03838116600081815260056020908152604080832094871680845294825291829020805460ff191686151590811790915591519182527f17307eab39ab6107e8899845ad3d59bd9653f200f220920489ca2b5937696c31910160405180910390a3505050565b61156284848461107a565b61156e8484848461165d565b610d665760405160e560020a62461bcd0281526004016104a0906121b6565b6000600160e060020a0319821660e060020a63780e9d6302148061039a575061039a82611767565b6105de8383836117c0565b6115ca8282610cec565b610772576115e281600160a060020a03166014611878565b6115ed836020611878565b6040516020016115fe929190612213565b60408051601f198184030181529082905260e560020a62461bcd0282526104a091600401611c47565b6116318383611341565b61163e600084848461165d565b6105de5760405160e560020a62461bcd0281526004016104a0906121b6565b6000600160a060020a0384163b1561175c5760405160e160020a630a85bd01028152600160a060020a0385169063150b7a02906116a4903390899088908890600401612294565b6020604051808303816000875af19250505080156116df575060408051601f3d908101601f191682019092526116dc918101906122d0565b60015b61173f573d80801561170d576040519150601f19603f3d011682016040523d82523d6000602084013e611712565b606091505b5080516000036117375760405160e560020a62461bcd0281526004016104a0906121b6565b805181602001fd5b600160e060020a03191660e160020a630a85bd0102149050611072565b506001949350505050565b6000600160e060020a0319821660e060020a6380ac58cd02148061179e5750600160e060020a0319821660e060020a635b5e139f02145b8061039a575060e060020a6301ffc9a702600160e060020a031983161461039a565b600160a060020a03831661181b5761181681600880546000838152600960205260408120829055600182018355919091527ff3f7a9fe364faab93b216da50a3214154f22a0a2b415b23a84c8169e8b636ee30155565b61183e565b81600160a060020a031683600160a060020a03161461183e5761183e8382611a2c565b600160a060020a038216611855576105de81611ac9565b82600160a060020a031682600160a060020a0316146105de576105de8282611b78565b606060006118878360026122ed565b61189290600261219e565b67ffffffffffffffff8111156118aa576118aa611d21565b6040519080825280601f01601f1916602001820160405280156118d4576020820181803683370190505b50905060fc60020a600302816000815181106118f2576118f2611fec565b6020010190600160f860020a031916908160001a90535060fb60020a600f028160018151811061192457611924611fec565b6020010190600160f860020a031916908160001a90535060006119488460026122ed565b61195390600161219e565b90505b60018111156119da577f303132333435363738396162636465660000000000000000000000000000000085600f166010811061199457611994611fec565b1a60f860020a028282815181106119ad576119ad611fec565b6020010190600160f860020a031916908160001a9053506010909404936119d38161230c565b9050611956565b508315610b9c5760405160e560020a62461bcd02815260206004820181905260248201527f537472696e67733a20686578206c656e67746820696e73756666696369656e7460448201526064016104a0565b60006001611a3984610c4f565b611a439190612187565b600083815260076020526040902054909150808214611a9657600160a060020a03841660009081526006602090815260408083208584528252808320548484528184208190558352600790915290208190555b506000918252600760209081526040808420849055600160a060020a039094168352600681528383209183525290812055565b600854600090611adb90600190612187565b60008381526009602052604081205460088054939450909284908110611b0357611b03611fec565b906000526020600020015490508060088381548110611b2457611b24611fec565b6000918252602080832090910192909255828152600990915260408082208490558582528120556008805480611b5c57611b5c612323565b6001900381819060005260206000200160009055905550505050565b6000611b8383610c4f565b600160a060020a039093166000908152600660209081526040808320868452825280832085905593825260079052919091209190915550565b600160e060020a03198116811461123757600080fd5b600060208284031215611be457600080fd5b8135610b9c81611bbc565b60005b83811015611c0a578181015183820152602001611bf2565b83811115610d665750506000910152565b60008151808452611c33816020860160208601611bef565b601f01601f19169290920160200192915050565b602081526000610b9c6020830184611c1b565b600060208284031215611c6c57600080fd5b5035919050565b8035600160a060020a0381168114611c8a57600080fd5b919050565b60008060408385031215611ca257600080fd5b611cab83611c73565b946020939093013593505050565b600080600060608486031215611cce57600080fd5b611cd784611c73565b9250611ce560208501611c73565b9150604084013590509250925092565b60008060408385031215611d0857600080fd5b82359150611d1860208401611c73565b90509250929050565b60e060020a634e487b710260009081526041600452602490fd5b600067ffffffffffffffff80841115611d5657611d56611d21565b604051601f8501601f19908116603f01168101908282118183101715611d7e57611d7e611d21565b81604052809350858152868686011115611d9757600080fd5b858560208301376000602087830101525050509392505050565b600082601f830112611dc257600080fd5b610b9c83833560208501611d3b565b600060208284031215611de357600080fd5b813567ffffffffffffffff811115611dfa57600080fd5b61107284828501611db1565b60008060408385031215611e1957600080fd5b611e2283611c73565b9150602083013567ffffffffffffffff811115611e3e57600080fd5b611e4a85828601611db1565b9150509250929050565b600060208284031215611e6657600080fd5b610b9c82611c73565b60008060408385031215611e8257600080fd5b611e8b83611c73565b915060208301358015158114611ea057600080fd5b809150509250929050565b60008060008060808587031215611ec157600080fd5b611eca85611c73565b9350611ed860208601611c73565b925060408501359150606085013567ffffffffffffffff811115611efb57600080fd5b8501601f81018713611f0c57600080fd5b611f1b87823560208401611d3b565b91505092959194509250565b60008060408385031215611f3a57600080fd5b611f4383611c73565b9150611d1860208401611c73565b600281046001821680611f6557607f821691505b602082108103611f895760e060020a634e487b710260009081526022600452602490fd5b50919050565b60208082526031908201527f4552433732313a207472616e736665722063616c6c6572206973206e6f74206f60408201527f776e6572206e6f7220617070726f766564000000000000000000000000000000606082015260800190565b60e060020a634e487b710260009081526032600452602490fd5b60008251612018818460208701611bef565b9190910192915050565b6020808252601e908201527f54686520746f6b656e205552492073686f756c6420626520756e697175650000604082015260600190565b601f8211156105de576000818152602081206020601f860104810160208610156120805750805b6020601f860104820191505b8181101561209f5782815560010161208c565b505050505050565b815167ffffffffffffffff8111156120c1576120c1611d21565b6120d5816120cf8454611f51565b84612059565b602080601f83116001811461210e57600084156120f25750858301515b60028086026008870290910a600019041982161786555061209f565b600085815260208120601f198616915b8281101561213d5788860151825594840194600190910190840161211e565b508582101561215d57878501516008601f88160260020a60001904191681555b5050505050600202600101905550565b60e060020a634e487b710260009081526011600452602490fd5b6000828210156121995761219961216d565b500390565b600082198211156121b1576121b161216d565b500190565b60208082526032908201527f4552433732313a207472616e7366657220746f206e6f6e20455243373231526560408201527f63656976657220696d706c656d656e7465720000000000000000000000000000606082015260800190565b7f416363657373436f6e74726f6c3a206163636f756e742000000000000000000081526000835161224b816017850160208801611bef565b7f206973206d697373696e6720726f6c65200000000000000000000000000000006017918401918201528351612288816028840160208801611bef565b01602801949350505050565b6000600160a060020a038087168352808616602084015250836040830152608060608301526122c66080830184611c1b565b9695505050505050565b6000602082840312156122e257600080fd5b8151610b9c81611bbc565b60008160001904831182151516156123075761230761216d565b500290565b60008161231b5761231b61216d565b506000190190565b60e060020a634e487b710260009081526031600452602490fdfe9f2df0fed2c77648de5860a4cc508cd0818c85b8b8a1ab4ceeef8d981c8956a6a2646970667358221220312f794ce7259bb564f0c1a68135433988e87b3ba2aeb38098b52402bec5362064736f6c634300080f0033a2646970667358221220bd6cd120ee7200666238a9e68bbd27638b21cc857010b142c074031877e9badd64736f6c634300080f0033",
  "immutableReferences": {},
  "source": "// SPDX-License-Identifier: MIT\r\npragma solidity ^0.8.0;\r\n\r\nimport \"@openzeppelin/contracts/access/Ownable.sol\";\r\nimport '@openzeppelin/contracts/utils/math/SafeMath.sol';\r\nimport \"@openzeppelin/contracts/utils/Counters.sol\";\r\nimport '@openzeppelin/contracts/utils/structs/EnumerableMap.sol';\r\n// import '@openzeppelin/contracts/token/ERC721/IERC721.sol';\r\n\r\nimport './NFTCollection.sol';\r\n\r\ncontract MarketPlace is Ownable {\r\n    // TODO : Add Access control\r\n    // TODO : Add option enableDirectOffer\r\n    // TODO : Add option enableAucion\r\n    // TODO : Add option enableBuyNow\r\n\r\n    using EnumerableMap for EnumerableMap.AddressToUintMap;\r\n    using Counters for Counters.Counter;\r\n    using SafeMath for uint256;\r\n\r\n    Counters.Counter private _collectionIds;\r\n    Counters.Counter private _auctionIds;\r\n    Counters.Counter private _directOfferIds;\r\n\r\n    bytes32 constant MINTER_ROLE = keccak256('MINTER_ROLE');\r\n\r\n    // Fees\r\n    uint256 constant FEE_SELL_PERCENTAGE = 3; // percentage of buy price\r\n    uint256 profit;\r\n\r\n    // Enums\r\n    // enum AuctionType {\r\n    //     FixedPrice, // buy it now only\r\n    //     Dutch, // (not used for now)\r\n    //     English // (not used for now)\r\n    // }\r\n\r\n    enum DirectOfferStatus {\r\n        Open, // 0: open for acceptance\r\n        Accepted, // 1: accepted by token owner\r\n        Finished, // 2: finished with buyer\r\n        Canceled // 3: canceled by seller\r\n    }\r\n\r\n    enum AuctionStatus {\r\n        // Approved, // ready for use\r\n        Running, // 0: in progress\r\n        Closed, // 1: closed with no buyer, need to revert funds\r\n        Finished, // 2: finished with buyer, need to revert funds\r\n        Canceled // 3: canceled by seller, need to revert funds\r\n    }\r\n\r\n    // Definitions\r\n    struct AuctionItem {\r\n        address ownerAddress; // TODO : Check if needed\r\n        address collectionAddress;\r\n        address highestBidderAddress;\r\n        uint256 highestBid;\r\n        uint256 auctionId; // auction Id, is generated\r\n        uint256 tokenId; // token Id, is given\r\n        uint256 buyItNowPrice; // buy now buyItNowPrice in case of type FixedPrice. Zero means - no buy now. Mandatory if Fixed price\r\n        uint256 reservedPrice; // buy out price below which the sell cannot happend (not used for now)\r\n        uint256 initialPrice; // starting auction price (not used for now)\r\n        //uint256 minBidStep; // minimum allowed bid step. Zero means - no min (not used for now)\r\n        //uint256 maxBidStep; // maximum allowed bid step. Zero means - no max (not used for now)\r\n        uint256 endTime; // end time in seconds\r\n        AuctionStatus auctionStatus;\r\n        //AuctionType auctionType;\r\n    }\r\n\r\n    struct CollectionItem {\r\n        uint256 collectionId; // TODO : Check if needed\r\n        address collectionAddress; // ERC721 token of the collection\r\n        address ownerAddress; // owner of the token\r\n        string metaURI; // like in ERC721 token URI\r\n    }\r\n    \r\n    // Only 1 valid offer per buyer\r\n    // Buyer can send many offers\r\n    // Seller can accept many offers\r\n    // On buy performed - invalidate all other direct offers\r\n    struct DirectOfferItem {\r\n        address ownerAddress; // owner of the token // TODO : Check if needed\r\n        address collectionAddress; // ERC721 token of the collection\r\n        address buyerAddress; // offer send from address\r\n        uint256 directOfferId; // TODO : Check if needed\r\n        uint256 tokenId;\r\n        uint256 offeredPrice;\r\n        DirectOfferStatus directOfferStatus;\r\n    }\r\n\t\r\n\tstruct DirectOfferGroupItem {\r\n\t\t// _buyerAddress => _directOfferId  \r\n        //uint256 length; //  TODO : Check\r\n\t\tEnumerableMap.AddressToUintMap buyerMap; // offer send from address\r\n\t}\r\n\t\r\n    // properties\r\n    // msg.sender => generated funds\r\n    mapping(address => uint256) public userFunds; // contains funds per user generated from sales. Bids will stored in other way\r\n\r\n    // auctionId => AuctionItem\r\n    mapping(uint256 => AuctionItem) auctionStore;\r\n\r\n    // directOfferId => DirectOfferItem\r\n    mapping(uint256 => DirectOfferItem) directOfferStore;\r\n\r\n    // collectionId => CollectionItem\r\n    mapping(uint256 => CollectionItem) collectionStore;\r\n\r\n    // uint256 public auctionCount = 0;\r\n    // uint256 public collectionCount = 0;\r\n\r\n    // ownerAddress => (collectionId => isOwner)\r\n    // mapping(address => mapping(uint256 => bool)) userCollections;\r\n\r\n    // collectionAddress => auctionId[]\r\n    mapping(address => uint256[]) collectionToAcutions;\r\n\r\n    // _collectionAddress => (_tokenId => _auctionId)\r\n    mapping(address => mapping(uint256 => uint256)) tokenAuctions;\r\n\r\n    // tokenDirectOffers[_collectionAddress][_tokenId][buyerAddress] = _directOfferId\r\n    // _collectionAddress => (_tokenId => (buyerAddress => _directOfferId))\r\n    //mapping(address => mapping(uint256 => mapping(address => uint256))) tokenDirectOffers;\r\n\r\n    // _collectionAddress => (_tokenId => DirectOfferGroupItem)\r\n    mapping(address => mapping(uint256 => DirectOfferGroupItem)) tokenDirectOffers;\r\n\r\n    // -- Events\r\n    // emitted when an auction is craated\r\n    event onAuctionCreated(uint256 indexed auctionId, uint256 indexed tokenId);\r\n\r\n    // emitted when is cancelled by the seller\r\n    event onAuctionCancelled(uint256 indexed auctionId, uint256 indexed tokenId);\r\n\r\n    // emitted when the acution is finsied with succesfull purchase\r\n    event onAuctionFinished(uint256 indexed auctionId, uint256 indexed tokenId);\r\n\r\n    // emitted when an auction is closed with no buyer\r\n    event onAuctionClosed(uint256 indexed auctionId, uint256 indexed tokenId);\r\n\r\n    // enitted when an auction is bidded\r\n    event onAuctionBid(uint256 indexed auctionId, uint256 bid);\r\n\r\n    // emitted when an user claims his funds\r\n    // event onFundsClaimed(address indexed user, uint256 amount);\r\n\r\n    // emitted when a collection is created\r\n    event onCollectionCreated(uint256 indexed collectionId, address indexed collectionAddress, address indexed ownerAddress);\r\n\r\n    // emitted when a direct offer is created\r\n    // event onDirectOfferCreated(address indexed collectionAddress, uint256 indexed directOfferId, uint256 indexed tokenId);\r\n    // --\r\n\r\n    // -- Modifiers\r\n    // --\r\n\r\n     constructor() public {\r\n     }\r\n\r\n     // -- Mint\r\n     // TODO : ask if this is good idea\r\n     function mint(address _collectionAddress, string memory _tokenURI) external returns(uint256) {\r\n        NFTCollection nftCollection = NFTCollection(_collectionAddress);\r\n\r\n        uint256 _tokenId = nftCollection.externalMint(msg.sender, _tokenURI);\r\n\r\n        return _tokenId;\r\n     }\r\n\r\n    //  function mintMany(address _collectionAddress, string[] memory _tokenURIList) external {\r\n    //     NFTCollection nftCollection = NFTCollection(_collectionAddress);\r\n\r\n    //     for (uint256 i = 0; i < _tokenURIList.length; i++) {\r\n    //         nftCollection.externalMint(msg.sender, _tokenURIList[i]);\r\n    //     }\r\n    //  }\r\n     // --\r\n\r\n    // -- Collection management\r\n    function createCollection(string memory _name, string memory _symbol, string memory _metaURI) external returns (address) {\r\n        NFTCollection collectionContract = new NFTCollection(_name, _symbol);\r\n        // grant role\r\n        collectionContract.grantRole(MINTER_ROLE, msg.sender);\r\n        // approve creator by default\r\n        collectionContract.setApprovalForAll(msg.sender, true); // not applied for newly created tokens\r\n\r\n        address _collectionAddress = address(collectionContract);\r\n\r\n        _collectionIds.increment();\r\n        uint256 _collectionId = _collectionIds.current();\r\n        collectionStore[_collectionId] = CollectionItem(_collectionId, _collectionAddress, msg.sender, _metaURI);        \r\n\r\n        // userCollections[msg.sender][_collectionId] = true;\r\n\r\n        emit onCollectionCreated(_collectionId, _collectionAddress, msg.sender);\r\n\r\n        return _collectionAddress;\r\n    }\r\n\r\n    function importCollection(address _collectionAddress, string memory _metaURI)external returns (address) {\r\n        _collectionIds.increment();\r\n        uint256 _collectionId = _collectionIds.current();\r\n        collectionStore[_collectionId] = CollectionItem(_collectionId, _collectionAddress, msg.sender, _metaURI);        \r\n\r\n        // userCollections[msg.sender][_collectionId] = true;\r\n\r\n        emit onCollectionCreated(_collectionId, _collectionAddress, msg.sender);\r\n\r\n        return _collectionAddress;\r\n    }\r\n\r\n    function getCollection(uint256 _collectionId) external view returns (CollectionItem memory) {\r\n        return collectionStore[_collectionId];\r\n    }\r\n\r\n    function getCollectionCount() external view returns(uint256) {\r\n        return _collectionIds.current();\r\n    }\r\n\t// --\r\n\r\n    // -- Auction Management\r\n    function createAuction(\r\n        address _collectionAddress,\r\n        uint256 _tokenId,\r\n        uint256 _initialPrice,\r\n        uint256 _reservedPrice,\r\n        uint256 _buyItNowPrice,\r\n        uint256 _durationDays\r\n    ) external {\r\n        // transfer token to the market (this)\r\n        NFTCollection nftCollection = NFTCollection(_collectionAddress);\r\n        // nftCollection.transferFrom(msg.sender, address(this), _tokenId); // TODO : use approve !!!\r\n\r\n        // _initialPrice or _buyItNowPrice should be above zero\r\n        //require(_initialPrice + _buyItNowPrice > 0, 'Token price cannot be zero');\r\n\r\n        // check token owner\r\n        require(msg.sender == nftCollection.ownerOf(_tokenId), 'Not token owner');\r\n\r\n        // check if MarketPlace is approved\r\n        require(address(this) == nftCollection.getApproved(_tokenId), 'MarketPlace is not approved');\r\n\r\n        // create auction twice\r\n        require(tokenAuctions[_collectionAddress][_tokenId] == 0, 'Auction for this token exists');\r\n\r\n        require(_durationDays > 0, 'Invalid duration');\r\n\r\n        // create auction\r\n        _auctionIds.increment();\r\n        uint256 _auctionId = _auctionIds.current();\r\n        auctionStore[_auctionId] = AuctionItem({\r\n            ownerAddress: msg.sender,\r\n            collectionAddress: _collectionAddress,\r\n            highestBidderAddress: address(0),\r\n            highestBid : 0,\r\n            auctionId: _auctionId,\r\n            tokenId: _tokenId,\r\n            buyItNowPrice: _buyItNowPrice,\r\n            reservedPrice: _reservedPrice,\r\n            initialPrice: _initialPrice,\r\n            //minBidStep: 0,\r\n            //maxBidStep: 0,\r\n            endTime: block.timestamp + (_durationDays * 1 days),\r\n            auctionStatus: AuctionStatus.Running\r\n            //auctionType: AuctionType.FixedPrice\r\n        });\r\n\r\n        collectionToAcutions[_collectionAddress].push(_auctionId);\r\n\r\n        tokenAuctions[_collectionAddress][_tokenId] = _auctionId;\r\n\r\n        // delete direct offer for specific token\r\n        delete tokenDirectOffers[_collectionAddress][_tokenId];\r\n\r\n        emit onAuctionCreated(_auctionId, _tokenId);\r\n    }\r\n\r\n    function getAuctionCount() external view returns(uint256) {\r\n        return _auctionIds.current();\r\n    }\r\n\r\n    function getCollectionAuctions(address collectionAddress) external view returns (uint256[] memory) {\r\n        return collectionToAcutions[collectionAddress];\r\n    }\r\n\r\n    function getAuction(uint256 _auctionId) public view returns (AuctionItem memory) {\r\n        AuctionItem memory _auction = auctionStore[_auctionId];\r\n\r\n        require(_auction.auctionId == _auctionId, 'Auction does not exists');        \r\n\r\n        return _auction;\r\n    }\r\n\r\n    function getAuctionBy(address _collectionAddress, uint256 _tokenId) external view returns (AuctionItem memory) {\r\n        uint256 _auctionId = tokenAuctions[_collectionAddress][_tokenId];\r\n\r\n        return getAuction(_auctionId);\r\n    }\r\n\r\n    // buy it now - handle user funds?\r\n    function buyNowAuction(uint256 _auctionId) external payable {\r\n        AuctionItem storage _auction = auctionStore[_auctionId];\r\n\r\n        require(_auction.auctionId == _auctionId, 'Auction does not exists');\r\n        \r\n        _checkAuction(_auction);\r\n        \r\n        if(_auction.auctionStatus == AuctionStatus.Running) {\r\n            require(_auction.ownerAddress != msg.sender, 'Auction owner cannot buy it');\r\n            // require(_auction.auctionStatus == AuctionStatus.Running, 'Auction is not running');\r\n            require(_auction.buyItNowPrice > 0, 'Buy now is not allowed');\r\n\r\n            require(msg.value == _auction.buyItNowPrice, 'Buy now price is greater');\r\n\r\n            NFTCollection nftCollection = NFTCollection(_auction.collectionAddress);\r\n\r\n            // transfer from MarketPalce as approved\r\n            nftCollection.transferFrom(_auction.ownerAddress, msg.sender, _auction.tokenId);\r\n\r\n            // TODO : Approve to market after transfer\r\n            // approve token to market\r\n            // nftCollection.approve(address(this), _auction.tokenId);\r\n\r\n            _auction.auctionStatus = AuctionStatus.Finished;\r\n\r\n            uint256 fee = msg.value.mul(FEE_SELL_PERCENTAGE).div(100);\r\n            uint256 userFund = msg.value.sub(fee);\r\n            profit = profit.add(fee);\r\n            userFunds[_auction.ownerAddress] = userFunds[_auction.ownerAddress].add(userFund);\r\n\r\n            delete tokenAuctions[_auction.collectionAddress][_auction.tokenId]; // reset\r\n\r\n            // TODO : Handle bids\r\n            // TODO : Handle direct offers\r\n\r\n            emit onAuctionFinished(_auctionId, _auction.tokenId);\r\n        }        \r\n    }\r\n\r\n    // cancel auction (auction owner) - handle user funds?\r\n    function cancelAuction(uint256 _auctionId) external {\r\n        AuctionItem storage _auction = auctionStore[_auctionId];\r\n\r\n        require(_auction.auctionId == _auctionId, 'Auction does not exists');\r\n\r\n        _checkAuction(_auction);\r\n\r\n        if(_auction.auctionStatus == AuctionStatus.Running) {\r\n            require(_auction.ownerAddress == msg.sender, 'Only auction owner can cancel');\r\n            // require(_auction.auctionStatus == AuctionStatus.Running, 'Auction is not running');\r\n\r\n            //NFTCollection nftCollection = NFTCollection(_auction.collectionAddress);\r\n            //nftCollection.transferFrom(address(this), msg.sender, _auction.tokenId);\r\n            _auction.auctionStatus = AuctionStatus.Canceled;\r\n\r\n            delete tokenAuctions[_auction.collectionAddress][_auction.tokenId]; // reset\r\n\r\n            // return prev bid\r\n            // send _auction.highestBid to _auction.highestBidderAddress\r\n            if(_auction.highestBid > 0 && _auction.highestBidderAddress != address(0)) {\r\n                userFunds[_auction.highestBidderAddress] = userFunds[_auction.highestBidderAddress].add(_auction.highestBid);\r\n            }\r\n\r\n            emit onAuctionCancelled(_auctionId, _auction.tokenId);\r\n        }\r\n    }\r\n\r\n    // --\r\n\r\n    // -- Auction handling\r\n    function checkAuction(uint256 _auctionId) external {\r\n        AuctionItem storage _auction = auctionStore[_auctionId];\r\n\r\n        //require(_auction.auctionId == _auctionId, 'Auction does not exists');\r\n\r\n        _checkAuction(_auction);\r\n    }\r\n    // --\r\n\r\n    // -- Auction actions\r\n    // bid - handle user funds?\r\n    function bidAuction(uint256 _auctionId) external payable {\r\n        AuctionItem storage _auction = auctionStore[_auctionId];\r\n\r\n        require(_auction.auctionId == _auctionId, 'Auction does not exists');\r\n\r\n        _checkAuction(_auction);\r\n\r\n        if(_auction.auctionStatus == AuctionStatus.Running) {\r\n            require(_auction.ownerAddress != msg.sender, 'Auction owner cannot bid');\r\n            require(_auction.highestBidderAddress != msg.sender, 'Already highest bidder');\r\n            // require(_auction.auctionStatus == AuctionStatus.Running, 'Auction is not running');\r\n            require(msg.value > _auction.highestBid , 'Bid most be bigger');\r\n\r\n            // return prev bid\r\n            // send _auction.highestBid to _auction.highestBidderAddress\r\n            if(_auction.highestBid > 0 && _auction.highestBidderAddress != address(0)) {\r\n                userFunds[_auction.highestBidderAddress] = userFunds[_auction.highestBidderAddress].add(_auction.highestBid);\r\n            }\r\n\r\n            // load new bid\r\n            _auction.highestBid = msg.value;\r\n            _auction.highestBidderAddress = msg.sender;\r\n\r\n            emit onAuctionBid(_auctionId, msg.value);\r\n        }\r\n    }\r\n\r\n    // TODO : Ask how to execute over time or how to set gas storage to execute internaly\r\n    function _checkAuction(AuctionItem storage _auction) private {\r\n        // check timestamp\r\n\r\n        if(_auction.auctionStatus == AuctionStatus.Running) {\r\n            bool ended = _auction.endTime <= block.timestamp;\r\n\r\n            if(ended) {\r\n                NFTCollection nftCollection = NFTCollection(_auction.collectionAddress);\r\n\r\n                if(_auction.highestBid > _auction.initialPrice && _auction.highestBid > _auction.reservedPrice) {\r\n                    _auction.auctionStatus = AuctionStatus.Finished;\r\n\r\n                    // peform transfer\r\n                    uint256 fee = _auction.highestBid.mul(FEE_SELL_PERCENTAGE).div(100);\r\n                    uint256 userFund = _auction.highestBid.sub(fee);\r\n                    profit = profit.add(fee);\r\n                    userFunds[_auction.ownerAddress] = userFunds[_auction.ownerAddress].add(userFund);\r\n\r\n                    // transfer from MarketPalce as approved\r\n                    nftCollection.transferFrom(_auction.ownerAddress, msg.sender, _auction.tokenId);\r\n\r\n                    // TODO : Approve to market after transfer\r\n\r\n                    emit onAuctionFinished(_auction.auctionId, _auction.tokenId);\r\n                }\r\n                else {\r\n                    _auction.auctionStatus = AuctionStatus.Closed;\r\n\r\n                    // return money\r\n                    if(_auction.highestBid > 0 && _auction.highestBidderAddress != address(0)) {\r\n                        userFunds[_auction.highestBidderAddress] = userFunds[_auction.highestBidderAddress].add(_auction.highestBid);\r\n                    }\r\n\r\n                    emit onAuctionClosed(_auction.auctionId, _auction.tokenId);\r\n                }            \r\n            }\r\n        }        \r\n    }\r\n\r\n    // --\r\n\r\n    // -- Direct offers\r\n    function createDirectOffer(address _collectionAddress, uint256 _tokenId, uint256 _offeredPrice) external {\r\n        NFTCollection nftCollection = NFTCollection(_collectionAddress);\r\n\r\n        address _ownerAddress = nftCollection.ownerOf(_tokenId);\r\n\r\n        // requrie not own token\r\n        require(msg.sender != _ownerAddress, 'Already token owner');\r\n\r\n        //require(_ownerAddress != address(0), 'Token without owner');\r\n\r\n        // _offeredPrice should be above zero\r\n        require(_offeredPrice > 0, 'Offered price cannot be zero');\r\n\r\n        // require no active auction\r\n        require(tokenAuctions[_collectionAddress][_tokenId] == 0, 'Auction for this token exists');\r\n\r\n        // create direct offer\r\n        _directOfferIds.increment();\r\n        uint256 _directOfferId = _directOfferIds.current();\r\n        directOfferStore[_directOfferId] = DirectOfferItem({\r\n            ownerAddress : _ownerAddress,\r\n            collectionAddress: _collectionAddress,\r\n            buyerAddress: msg.sender,\r\n            directOfferId: _directOfferId,\r\n            tokenId: _tokenId, \r\n            offeredPrice: _offeredPrice,\r\n            directOfferStatus: DirectOfferStatus.Open\r\n        });\r\n\r\n        // tokenDirectOffers[_collectionAddress][_tokenId].buyerMap[msg.sender] = _directOfferId;\r\n        tokenDirectOffers[_collectionAddress][_tokenId].buyerMap.set(msg.sender, _directOfferId);\r\n\r\n        // emit onDirectOfferCreated(_collectionAddress, _directOfferId, _tokenId);\r\n    }\r\n\r\n    function getDirectOfferCount() external view returns(uint256) {\r\n        // not used\r\n        return _directOfferIds.current();\r\n    }\r\n\r\n\tfunction getDirectOffer(uint256 _directOfferId) public view returns (DirectOfferItem memory) {\r\n        DirectOfferItem memory _directOffer = directOfferStore[_directOfferId];\r\n\r\n        require(_directOffer.directOfferId == _directOfferId, 'DirectOffer does not exists');\r\n\r\n        // visible only for buyer or seller\r\n        require(_directOffer.ownerAddress == msg.sender || _directOffer.buyerAddress == msg.sender, 'Only seller or buyer');\r\n\r\n        return _directOffer;\r\n    }\r\n\r\n     function getDirectOffers(address _collectionAddress, uint256 _tokenId) external view returns(DirectOfferItem[] memory) {\r\n       uint256 length = tokenDirectOffers[_collectionAddress][_tokenId].buyerMap.length();\r\n\r\n        DirectOfferItem[] memory result = new DirectOfferItem[](length);\r\n\r\n        for (uint256 i = 0; i < length; i++) {\r\n            (, uint256 _directOfferId) = tokenDirectOffers[_collectionAddress][_tokenId].buyerMap.at(i);\r\n\r\n            // visible only for buyer or seller\r\n            result[i] = getDirectOffer(_directOfferId);\r\n        }\r\n\r\n       return result;\r\n     }\r\n\r\n     function getDirectOfferBy(address _buyerAddress, address _collectionAddress, uint256 _tokenId) external view returns(DirectOfferItem memory) {\r\n        uint256 _directOfferId = tokenDirectOffers[_collectionAddress][_tokenId].buyerMap.get(_buyerAddress);\r\n\r\n        // visible only for buyer or seller\r\n        return getDirectOffer(_directOfferId);\r\n     }\r\n\r\n    // function getDirectOffers(address _collectionAddress, uint256 _tokenId) external view returns(DirectOfferItem[] memory) {\r\n    //     // TODO : Ask how to get list of DirectOfferItems\r\n    //     uint256 length = tokenDirectOffers[_collectionAddress][_tokenId].length;\r\n\r\n    //     if (length > 0) {\r\n    //         for (uint256 i = 0; i < length; i++) {\r\n                \r\n    //         }            \r\n    //     } \r\n    // }\r\n\r\n    function cancelDirectOffer(uint256 _directOfferId) external {\r\n        DirectOfferItem storage _directOffer = directOfferStore[_directOfferId];\r\n\r\n        require(_directOffer.directOfferId == _directOfferId, 'Offer does not exists');\r\n        require(_directOffer.buyerAddress == msg.sender, 'Only offer bayer can cancel');\r\n        require(_directOffer.directOfferStatus == DirectOfferStatus.Open, 'Offer is not open');\r\n\r\n        _directOffer.directOfferStatus = DirectOfferStatus.Canceled;\r\n\r\n        // remove direct offer by buyer\r\n        tokenDirectOffers[_directOffer.collectionAddress][_directOffer.tokenId].buyerMap.remove(msg.sender);\r\n    }\r\n\r\n    function acceptDirectOffer(uint256 _directOfferId) external {\r\n        DirectOfferItem storage _directOffer = directOfferStore[_directOfferId];\r\n\r\n        require(_directOffer.directOfferId == _directOfferId, 'Offer does not exists');\r\n        require(_directOffer.directOfferStatus == DirectOfferStatus.Open, 'Offer is not open');\r\n\r\n        NFTCollection nftCollection = NFTCollection(_directOffer.collectionAddress);\r\n        require(msg.sender == nftCollection.ownerOf(_directOffer.tokenId), 'Not token owner');\r\n        \r\n        // check if MarketPlace is approved\r\n        require(address(this) == nftCollection.getApproved(_directOffer.tokenId), 'MarketPlace is not approved');\r\n\r\n        _directOffer.directOfferStatus = DirectOfferStatus.Accepted;\r\n    }\r\n\r\n    function fulfillDirectOffer(uint256 _directOfferId) external payable {\r\n        DirectOfferItem storage _directOffer = directOfferStore[_directOfferId];\r\n\r\n        require(_directOffer.directOfferId == _directOfferId, 'Offer does not exists');\r\n        require(_directOffer.directOfferStatus == DirectOfferStatus.Accepted, 'Offer is not open');\r\n        require(_directOffer.buyerAddress == msg.sender, 'Only offer bayer can fullfill');\r\n        require(msg.value == _directOffer.offeredPrice, 'Offered price is incorrect');\r\n\r\n        NFTCollection nftCollection = NFTCollection(_directOffer.collectionAddress);\r\n\r\n        // transfer from MarketPalce as buyer\r\n        nftCollection.transferFrom(_directOffer.ownerAddress, _directOffer.buyerAddress, _directOffer.tokenId);\r\n\r\n        // TODO : Approve to market after transfer        \r\n\r\n        _directOffer.directOfferStatus = DirectOfferStatus.Finished;\r\n\r\n        uint256 fee = msg.value.mul(FEE_SELL_PERCENTAGE).div(100);\r\n        uint256 userFund = msg.value.sub(fee);\r\n        userFunds[_directOffer.ownerAddress] = userFunds[_directOffer.ownerAddress].add(userFund);\r\n\r\n        // delete direct offer for specific token\r\n        delete tokenDirectOffers[_directOffer.collectionAddress][_directOffer.tokenId];\r\n    }\r\n    // --\r\n\r\n    function claimFunds() external {\r\n        require(userFunds[msg.sender] > 0, 'No funds to be claimed');\r\n\r\n        uint256 fundsToClaim = userFunds[msg.sender];\r\n        userFunds[msg.sender] = 0;\r\n        payable(msg.sender).transfer(fundsToClaim);\r\n\r\n        // emit onFundsClaimed(msg.sender, fundsToClaim);\r\n    }\r\n\r\n    function withdrawProfit() public onlyOwner() {\r\n        uint256 _profit = profit;\r\n        profit = 0;\r\n\r\n        address payable to = payable(msg.sender);\r\n        to.transfer(_profit);\r\n    }\r\n\r\n    function getProfitAmount() public onlyOwner() returns(uint256) {\r\n        return profit;\r\n    }\r\n\r\n    // Fallback: reverts if Ether is sent to this smart-contract by mistake\r\n    fallback() external {\r\n        revert();\r\n    }\r\n}\r\n",
  "sourcePath": "C:\\github\\trayanm\\TTMMarket\\src\\contracts\\MarketPlace.sol",
  "compiler": {
    "name": "solc",
    "version": "0.8.15+commit.e14f2714.Emscripten.clang"
  },
  "schemaVersion": "3.4.7",
  "updatedAt": "2022-06-27T11:23:43.246Z",
  "networkType": "ethereum",
  "devdoc": {
    "kind": "dev",
    "methods": {
      "owner()": {
        "details": "Returns the address of the current owner."
      },
      "renounceOwnership()": {
        "details": "Leaves the contract without owner. It will not be possible to call `onlyOwner` functions anymore. Can only be called by the current owner. NOTE: Renouncing ownership will leave the contract without an owner, thereby removing any functionality that is only available to the owner."
      },
      "transferOwnership(address)": {
        "details": "Transfers ownership of the contract to a new account (`newOwner`). Can only be called by the current owner."
      }
    },
    "version": 1
  },
  "userdoc": {
    "kind": "user",
    "methods": {},
    "version": 1
  }
}