{
  "contractName": "Marketplace",
  "abi": [
    {
      "inputs": [],
      "stateMutability": "nonpayable",
      "type": "constructor"
    },
    {
      "anonymous": false,
      "inputs": [
        {
          "indexed": true,
          "internalType": "uint256",
          "name": "auctionId",
          "type": "uint256"
        },
        {
          "indexed": true,
          "internalType": "uint256",
          "name": "id",
          "type": "uint256"
        }
      ],
      "name": "onAuctionCancelled",
      "type": "event"
    },
    {
      "anonymous": false,
      "inputs": [
        {
          "indexed": true,
          "internalType": "uint256",
          "name": "auctionId",
          "type": "uint256"
        },
        {
          "indexed": true,
          "internalType": "uint256",
          "name": "id",
          "type": "uint256"
        }
      ],
      "name": "onAuctionClosed",
      "type": "event"
    },
    {
      "anonymous": false,
      "inputs": [
        {
          "indexed": true,
          "internalType": "uint256",
          "name": "auctionId",
          "type": "uint256"
        },
        {
          "indexed": true,
          "internalType": "uint256",
          "name": "id",
          "type": "uint256"
        }
      ],
      "name": "onAuctionCreated",
      "type": "event"
    },
    {
      "anonymous": false,
      "inputs": [
        {
          "indexed": true,
          "internalType": "uint256",
          "name": "auctionId",
          "type": "uint256"
        },
        {
          "indexed": true,
          "internalType": "uint256",
          "name": "id",
          "type": "uint256"
        }
      ],
      "name": "onAuctionFinished",
      "type": "event"
    },
    {
      "anonymous": false,
      "inputs": [
        {
          "indexed": true,
          "internalType": "uint256",
          "name": "collectionId",
          "type": "uint256"
        },
        {
          "indexed": true,
          "internalType": "address",
          "name": "collectionAddress",
          "type": "address"
        },
        {
          "indexed": true,
          "internalType": "address",
          "name": "ownerAddress",
          "type": "address"
        }
      ],
      "name": "onCollectionCreated",
      "type": "event"
    },
    {
      "anonymous": false,
      "inputs": [
        {
          "indexed": true,
          "internalType": "address",
          "name": "user",
          "type": "address"
        },
        {
          "indexed": false,
          "internalType": "uint256",
          "name": "amount",
          "type": "uint256"
        }
      ],
      "name": "onFundsClaimed",
      "type": "event"
    },
    {
      "stateMutability": "nonpayable",
      "type": "fallback"
    },
    {
      "inputs": [],
      "name": "FEE_COLLECTION_CREATE",
      "outputs": [
        {
          "internalType": "uint256",
          "name": "",
          "type": "uint256"
        }
      ],
      "stateMutability": "view",
      "type": "function",
      "constant": true
    },
    {
      "inputs": [],
      "name": "FEE_SELL",
      "outputs": [
        {
          "internalType": "uint256",
          "name": "",
          "type": "uint256"
        }
      ],
      "stateMutability": "view",
      "type": "function",
      "constant": true
    },
    {
      "inputs": [
        {
          "internalType": "address",
          "name": "",
          "type": "address"
        }
      ],
      "name": "userFunds",
      "outputs": [
        {
          "internalType": "uint256",
          "name": "",
          "type": "uint256"
        }
      ],
      "stateMutability": "view",
      "type": "function",
      "constant": true
    },
    {
      "inputs": [
        {
          "internalType": "string",
          "name": "_name",
          "type": "string"
        },
        {
          "internalType": "string",
          "name": "_symbol",
          "type": "string"
        }
      ],
      "name": "createCollection",
      "outputs": [],
      "stateMutability": "payable",
      "type": "function",
      "payable": true
    },
    {
      "inputs": [],
      "name": "getAllCollections",
      "outputs": [
        {
          "components": [
            {
              "internalType": "uint256",
              "name": "collectionId",
              "type": "uint256"
            },
            {
              "internalType": "address",
              "name": "collectionAddress",
              "type": "address"
            },
            {
              "internalType": "address",
              "name": "ownerAddress",
              "type": "address"
            },
            {
              "internalType": "bool",
              "name": "isUserCollection",
              "type": "bool"
            }
          ],
          "internalType": "struct Marketplace.CollectionItem[]",
          "name": "",
          "type": "tuple[]"
        }
      ],
      "stateMutability": "view",
      "type": "function",
      "constant": true
    },
    {
      "inputs": [],
      "name": "getMyCollections",
      "outputs": [
        {
          "components": [
            {
              "internalType": "uint256",
              "name": "collectionId",
              "type": "uint256"
            },
            {
              "internalType": "address",
              "name": "collectionAddress",
              "type": "address"
            },
            {
              "internalType": "address",
              "name": "ownerAddress",
              "type": "address"
            },
            {
              "internalType": "bool",
              "name": "isUserCollection",
              "type": "bool"
            }
          ],
          "internalType": "struct Marketplace.CollectionItem[]",
          "name": "",
          "type": "tuple[]"
        }
      ],
      "stateMutability": "view",
      "type": "function",
      "constant": true
    },
    {
      "inputs": [
        {
          "internalType": "address",
          "name": "_collectionAddress",
          "type": "address"
        },
        {
          "internalType": "uint256",
          "name": "_id",
          "type": "uint256"
        },
        {
          "internalType": "uint256",
          "name": "_buyItNowPrice",
          "type": "uint256"
        }
      ],
      "name": "createAuction",
      "outputs": [],
      "stateMutability": "nonpayable",
      "type": "function"
    },
    {
      "inputs": [
        {
          "internalType": "uint256",
          "name": "_auctionId",
          "type": "uint256"
        }
      ],
      "name": "cancelAuction",
      "outputs": [],
      "stateMutability": "nonpayable",
      "type": "function"
    },
    {
      "inputs": [
        {
          "internalType": "address",
          "name": "_collectionAddress",
          "type": "address"
        }
      ],
      "name": "getAuctionsForCollection",
      "outputs": [
        {
          "components": [
            {
              "internalType": "address",
              "name": "ownerAddress",
              "type": "address"
            },
            {
              "internalType": "address",
              "name": "collectionAddress",
              "type": "address"
            },
            {
              "internalType": "uint256",
              "name": "auctionId",
              "type": "uint256"
            },
            {
              "internalType": "uint256",
              "name": "id",
              "type": "uint256"
            },
            {
              "internalType": "uint256",
              "name": "buyItNowPrice",
              "type": "uint256"
            },
            {
              "internalType": "uint256",
              "name": "reservedPrice",
              "type": "uint256"
            },
            {
              "internalType": "uint256",
              "name": "initialPrice",
              "type": "uint256"
            },
            {
              "internalType": "uint256",
              "name": "minBidStep",
              "type": "uint256"
            },
            {
              "internalType": "uint256",
              "name": "maxBidStep",
              "type": "uint256"
            },
            {
              "internalType": "enum Marketplace.AuctionStatus",
              "name": "auctionStatus",
              "type": "uint8"
            },
            {
              "internalType": "enum Marketplace.AuctionType",
              "name": "auctionType",
              "type": "uint8"
            }
          ],
          "internalType": "struct Marketplace.AuctionItem[]",
          "name": "",
          "type": "tuple[]"
        }
      ],
      "stateMutability": "view",
      "type": "function",
      "constant": true
    },
    {
      "inputs": [],
      "name": "bid",
      "outputs": [],
      "stateMutability": "payable",
      "type": "function",
      "payable": true
    },
    {
      "inputs": [
        {
          "internalType": "uint256",
          "name": "_auctionId",
          "type": "uint256"
        }
      ],
      "name": "buyNowAuction",
      "outputs": [],
      "stateMutability": "payable",
      "type": "function",
      "payable": true
    },
    {
      "inputs": [],
      "name": "claimFunds",
      "outputs": [],
      "stateMutability": "nonpayable",
      "type": "function"
    }
  ],
  "bytecode": "0x6080604052600060025560006005553480156200001b57600080fd5b506200009b6040518060400160405280600e81526020017f54544d20436f6c6c656374696f6e0000000000000000000000000000000000008152506040518060400160405280600381526020017f54544d0000000000000000000000000000000000000000000000000000000000815250306000620000a160201b60201c565b620004ab565b60008484604051620000b39062000328565b620000c0929190620003da565b604051809103906000f080158015620000dd573d6000803e3d6000fd5b509050600081905060006005549050600460405180608001604052808381526020018473ffffffffffffffffffffffffffffffffffffffff1681526020018773ffffffffffffffffffffffffffffffffffffffff16815260200186151581525090806001815401808255809150506001900390600052602060002090600302016000909190919091506000820151816000015560208201518160010160006101000a81548173ffffffffffffffffffffffffffffffffffffffff021916908373ffffffffffffffffffffffffffffffffffffffff16021790555060408201518160020160006101000a81548173ffffffffffffffffffffffffffffffffffffffff021916908373ffffffffffffffffffffffffffffffffffffffff16021790555060608201518160020160146101000a81548160ff02191690831515021790555050506200023d60016005546200031060201b6200175a1790919060201c565b6005819055506001600360008773ffffffffffffffffffffffffffffffffffffffff1673ffffffffffffffffffffffffffffffffffffffff168152602001908152602001600020600083815260200190815260200160002060006101000a81548160ff0219169083151502179055508473ffffffffffffffffffffffffffffffffffffffff168273ffffffffffffffffffffffffffffffffffffffff16827fecbe631ce73f784b71c74c5339317b59e203e339d6773c02526891b8063931c060405160405180910390a450505050505050565b600081836200032091906200044e565b905092915050565b613475806200631083390190565b600081519050919050565b600082825260208201905092915050565b60005b838110156200037257808201518184015260208101905062000355565b8381111562000382576000848401525b50505050565b6000601f19601f8301169050919050565b6000620003a68262000336565b620003b2818562000341565b9350620003c481856020860162000352565b620003cf8162000388565b840191505092915050565b60006040820190508181036000830152620003f6818562000399565b905081810360208301526200040c818462000399565b90509392505050565b6000819050919050565b7f4e487b7100000000000000000000000000000000000000000000000000000000600052601160045260246000fd5b60006200045b8262000415565b9150620004688362000415565b9250827fffffffffffffffffffffffffffffffffffffffffffffffffffffffffffffffff03821115620004a0576200049f6200041f565b5b828201905092915050565b615e5580620004bb6000396000f3fe608060405260043610620000bb5760003560e01c8063a3278f1e116200006d578063a3278f1e14620001cc578063abb940511462000210578063ac307773146200023e578063bf0745d21462000258578063d61019801462000288578063e324bd1f14620002b857620000bc565b8063176b9b7514620000ce5780631998aeef14620000ee5780633800203314620000fa5780636804a958146200012a5780638387c6e1146200015a57806396b5a755146200019e57620000bc565b5b348015620000c957600080fd5b600080fd5b620000ec6004803603810190620000e6919062001c66565b620002d8565b005b620000f862000334565b005b3480156200010757600080fd5b506200011262000339565b60405162000121919062001d06565b60405180910390f35b3480156200013757600080fd5b50620001426200033e565b60405162000151919062001eb0565b60405180910390f35b3480156200016757600080fd5b5062000186600480360381019062000180919062001f05565b62000470565b60405162000195919062001d06565b60405180910390f35b348015620001ab57600080fd5b50620001ca6004803603810190620001c4919062001f68565b62000488565b005b348015620001d957600080fd5b50620001f86004803603810190620001f2919062001f05565b62000717565b60405162000207919062002220565b60405180910390f35b3480156200021d57600080fd5b506200023c600480360381019062000236919062002244565b62000abd565b005b3480156200024b57600080fd5b506200025662000e03565b005b3480156200026557600080fd5b506200027062000fa9565b6040516200027f919062001d06565b60405180910390f35b3480156200029557600080fd5b50620002a062000fae565b604051620002af919062001eb0565b60405180910390f35b620002d66004803603810190620002d0919062001f68565b620012ae565b005b60c88034101562000320576040517f08c379a0000000000000000000000000000000000000000000000000000000008152600401620003179062002301565b60405180910390fd5b6200032f838333600162001772565b505050565b600080fd5b60c881565b60606004805480602002602001604051908101604052809291908181526020016000905b82821015620004675783829060005260206000209060030201604051806080016040529081600082015481526020016001820160009054906101000a900473ffffffffffffffffffffffffffffffffffffffff1673ffffffffffffffffffffffffffffffffffffffff1673ffffffffffffffffffffffffffffffffffffffff1681526020016002820160009054906101000a900473ffffffffffffffffffffffffffffffffffffffff1673ffffffffffffffffffffffffffffffffffffffff1673ffffffffffffffffffffffffffffffffffffffff1681526020016002820160149054906101000a900460ff1615151515815250508152602001906001019062000362565b50505050905090565b60006020528060005260406000206000915090505481565b600060018281548110620004a157620004a062002323565b5b90600052602060002090600a0201905081816002015414620004fa576040517f08c379a0000000000000000000000000000000000000000000000000000000008152600401620004f190620023a2565b60405180910390fd5b3373ffffffffffffffffffffffffffffffffffffffff168160000160009054906101000a900473ffffffffffffffffffffffffffffffffffffffff1673ffffffffffffffffffffffffffffffffffffffff16146200058f576040517f08c379a000000000000000000000000000000000000000000000000000000000815260040162000586906200243a565b60405180910390fd5b60016004811115620005a657620005a562001fc6565b5b8160090160009054906101000a900460ff166004811115620005cd57620005cc62001fc6565b5b1462000610576040517f08c379a00000000000000000000000000000000000000000000000000000000081526004016200060790620024ac565b60405180910390fd5b60008160010160009054906101000a900473ffffffffffffffffffffffffffffffffffffffff1690508073ffffffffffffffffffffffffffffffffffffffff166323b872dd303385600301546040518463ffffffff1660e01b81526004016200067c93929190620024df565b600060405180830381600087803b1580156200069757600080fd5b505af1158015620006ac573d6000803e3d6000fd5b5050505060048260090160006101000a81548160ff02191690836004811115620006db57620006da62001fc6565b5b02179055508160030154837f9c31dd0dfb89b9b275633c46be4dc396661364ff715b47b8ae06201681e7ebc360405160405180910390a3505050565b6060600080600090505b600180549050811015620007d2578373ffffffffffffffffffffffffffffffffffffffff16600182815481106200075d576200075c62002323565b5b90600052602060002090600a020160010160009054906101000a900473ffffffffffffffffffffffffffffffffffffffff1673ffffffffffffffffffffffffffffffffffffffff1603620007bc578180620007b8906200254b565b9250505b8080620007c9906200254b565b91505062000721565b5060008167ffffffffffffffff811115620007f257620007f162001b1f565b5b6040519080825280602002602001820160405280156200082f57816020015b6200081b620019dc565b815260200190600190039081620008115790505b509050600080600090505b60018054905081101562000ab1578573ffffffffffffffffffffffffffffffffffffffff166001828154811062000876576200087562002323565b5b90600052602060002090600a020160010160009054906101000a900473ffffffffffffffffffffffffffffffffffffffff1673ffffffffffffffffffffffffffffffffffffffff160362000a9b5760018181548110620008db57620008da62002323565b5b90600052602060002090600a0201604051806101600160405290816000820160009054906101000a900473ffffffffffffffffffffffffffffffffffffffff1673ffffffffffffffffffffffffffffffffffffffff1673ffffffffffffffffffffffffffffffffffffffff1681526020016001820160009054906101000a900473ffffffffffffffffffffffffffffffffffffffff1673ffffffffffffffffffffffffffffffffffffffff1673ffffffffffffffffffffffffffffffffffffffff168152602001600282015481526020016003820154815260200160048201548152602001600582015481526020016006820154815260200160078201548152602001600882015481526020016009820160009054906101000a900460ff16600481111562000a0f5762000a0e62001fc6565b5b600481111562000a245762000a2362001fc6565b5b81526020016009820160019054906101000a900460ff16600281111562000a505762000a4f62001fc6565b5b600281111562000a655762000a6462001fc6565b5b8152505083838151811062000a7f5762000a7e62002323565b5b6020026020010181905250818062000a97906200254b565b9250505b808062000aa8906200254b565b9150506200083a565b50819350505050919050565b60008390508073ffffffffffffffffffffffffffffffffffffffff166323b872dd3330866040518463ffffffff1660e01b815260040162000b0193929190620024df565b600060405180830381600087803b15801562000b1c57600080fd5b505af115801562000b31573d6000803e3d6000fd5b505050506000600254905062000b46620019dc565b33816000019073ffffffffffffffffffffffffffffffffffffffff16908173ffffffffffffffffffffffffffffffffffffffff168152505085816020019073ffffffffffffffffffffffffffffffffffffffff16908173ffffffffffffffffffffffffffffffffffffffff16815250508181604001818152505084816060018181525050838160800181815250506001816101200190600481111562000bf15762000bf062001fc6565b5b9081600481111562000c085762000c0762001fc6565b5b815250506000816101400190600281111562000c295762000c2862001fc6565b5b9081600281111562000c405762000c3f62001fc6565b5b8152505060018190806001815401808255809150506001900390600052602060002090600a020160009091909190915060008201518160000160006101000a81548173ffffffffffffffffffffffffffffffffffffffff021916908373ffffffffffffffffffffffffffffffffffffffff16021790555060208201518160010160006101000a81548173ffffffffffffffffffffffffffffffffffffffff021916908373ffffffffffffffffffffffffffffffffffffffff16021790555060408201518160020155606082015181600301556080820151816004015560a0820151816005015560c0820151816006015560e0820151816007015561010082015181600801556101208201518160090160006101000a81548160ff0219169083600481111562000d745762000d7362001fc6565b5b02179055506101408201518160090160016101000a81548160ff0219169083600281111562000da85762000da762001fc6565b5b0217905550505062000dc760016002546200175a90919063ffffffff16565b60028190555084827fd086c941db0dfd32e8d65552faa1a349d3c3fc18b2235a0fe20be668c81feee060405160405180910390a3505050505050565b60008060003373ffffffffffffffffffffffffffffffffffffffff1673ffffffffffffffffffffffffffffffffffffffff168152602001908152602001600020541162000e87576040517f08c379a000000000000000000000000000000000000000000000000000000000815260040162000e7e906200260e565b60405180910390fd5b60008060003373ffffffffffffffffffffffffffffffffffffffff1673ffffffffffffffffffffffffffffffffffffffff16815260200190815260200160002054905060008060003373ffffffffffffffffffffffffffffffffffffffff1673ffffffffffffffffffffffffffffffffffffffff168152602001908152602001600020819055503373ffffffffffffffffffffffffffffffffffffffff166108fc829081150290604051600060405180830381858888f1935050505015801562000f55573d6000803e3d6000fd5b503373ffffffffffffffffffffffffffffffffffffffff167f1c355404524eaedf23f07edd324a42ac9a04ef403aa580df4c39547b42566d8f8260405162000f9e919062001d06565b60405180910390a250565b606481565b6060600080600090505b60048054905081101562001069573373ffffffffffffffffffffffffffffffffffffffff166004828154811062000ff45762000ff362002323565b5b906000526020600020906003020160020160009054906101000a900473ffffffffffffffffffffffffffffffffffffffff1673ffffffffffffffffffffffffffffffffffffffff1603620010535781806200104f906200254b565b9250505b808062001060906200254b565b91505062000fb8565b5060008167ffffffffffffffff81111562001089576200108862001b1f565b5b604051908082528060200260200182016040528015620010c657816020015b620010b262001a8c565b815260200190600190039081620010a85790505b509050600080600090505b600480549050811015620012a4573373ffffffffffffffffffffffffffffffffffffffff16600482815481106200110d576200110c62002323565b5b906000526020600020906003020160020160009054906101000a900473ffffffffffffffffffffffffffffffffffffffff1673ffffffffffffffffffffffffffffffffffffffff16036200128e576004818154811062001172576200117162002323565b5b9060005260206000209060030201604051806080016040529081600082015481526020016001820160009054906101000a900473ffffffffffffffffffffffffffffffffffffffff1673ffffffffffffffffffffffffffffffffffffffff1673ffffffffffffffffffffffffffffffffffffffff1681526020016002820160009054906101000a900473ffffffffffffffffffffffffffffffffffffffff1673ffffffffffffffffffffffffffffffffffffffff1673ffffffffffffffffffffffffffffffffffffffff1681526020016002820160149054906101000a900460ff16151515158152505083838151811062001272576200127162002323565b5b602002602001018190525081806200128a906200254b565b9250505b80806200129b906200254b565b915050620010d1565b5081935050505090565b606480341015620012f6576040517f08c379a0000000000000000000000000000000000000000000000000000000008152600401620012ed9062002301565b60405180910390fd5b6000600183815481106200130f576200130e62002323565b5b90600052602060002090600a020190508281600201541462001368576040517f08c379a00000000000000000000000000000000000000000000000000000000081526004016200135f90620023a2565b60405180910390fd5b3373ffffffffffffffffffffffffffffffffffffffff168160000160009054906101000a900473ffffffffffffffffffffffffffffffffffffffff1673ffffffffffffffffffffffffffffffffffffffff1603620013fd576040517f08c379a0000000000000000000000000000000000000000000000000000000008152600401620013f490620026a6565b60405180910390fd5b6001600481111562001414576200141362001fc6565b5b8160090160009054906101000a900460ff1660048111156200143b576200143a62001fc6565b5b146200147e576040517f08c379a00000000000000000000000000000000000000000000000000000000081526004016200147590620024ac565b60405180910390fd5b6000600281111562001495576200149462001fc6565b5b8160090160019054906101000a900460ff166002811115620014bc57620014bb62001fc6565b5b14620014ff576040517f08c379a0000000000000000000000000000000000000000000000000000000008152600401620014f6906200273e565b60405180910390fd5b6000600281111562001516576200151562001fc6565b5b8160090160019054906101000a900460ff1660028111156200153d576200153c62001fc6565b5b1462001580576040517f08c379a00000000000000000000000000000000000000000000000000000000081526004016200157790620027d6565b60405180910390fd5b60648160040154620015939190620027f8565b3414620015d7576040517f08c379a0000000000000000000000000000000000000000000000000000000008152600401620015ce90620028cb565b60405180910390fd5b60008160010160009054906101000a900473ffffffffffffffffffffffffffffffffffffffff1690508073ffffffffffffffffffffffffffffffffffffffff166323b872dd303385600301546040518463ffffffff1660e01b81526004016200164393929190620024df565b600060405180830381600087803b1580156200165e57600080fd5b505af115801562001673573d6000803e3d6000fd5b5050505060038260090160006101000a81548160ff02191690836004811115620016a257620016a162001fc6565b5b0217905550346000808460000160009054906101000a900473ffffffffffffffffffffffffffffffffffffffff1673ffffffffffffffffffffffffffffffffffffffff1673ffffffffffffffffffffffffffffffffffffffff16815260200190815260200160002060008282546200171b9190620027f8565b925050819055508160030154847fac764b5e3093df07973820131c91169ffd8ac85fd2f8f7329bb83e8ba6299e7260405160405180910390a350505050565b600081836200176a9190620027f8565b905092915050565b60008484604051620017849062001ae2565b620017919291906200296f565b604051809103906000f080158015620017ae573d6000803e3d6000fd5b509050600081905060006005549050600460405180608001604052808381526020018473ffffffffffffffffffffffffffffffffffffffff1681526020018773ffffffffffffffffffffffffffffffffffffffff16815260200186151581525090806001815401808255809150506001900390600052602060002090600302016000909190919091506000820151816000015560208201518160010160006101000a81548173ffffffffffffffffffffffffffffffffffffffff021916908373ffffffffffffffffffffffffffffffffffffffff16021790555060408201518160020160006101000a81548173ffffffffffffffffffffffffffffffffffffffff021916908373ffffffffffffffffffffffffffffffffffffffff16021790555060608201518160020160146101000a81548160ff02191690831515021790555050506200190960016005546200175a90919063ffffffff16565b6005819055506001600360008773ffffffffffffffffffffffffffffffffffffffff1673ffffffffffffffffffffffffffffffffffffffff168152602001908152602001600020600083815260200190815260200160002060006101000a81548160ff0219169083151502179055508473ffffffffffffffffffffffffffffffffffffffff168273ffffffffffffffffffffffffffffffffffffffff16827fecbe631ce73f784b71c74c5339317b59e203e339d6773c02526891b8063931c060405160405180910390a450505050505050565b604051806101600160405280600073ffffffffffffffffffffffffffffffffffffffff168152602001600073ffffffffffffffffffffffffffffffffffffffff168152602001600081526020016000815260200160008152602001600081526020016000815260200160008152602001600081526020016000600481111562001a6a5762001a6962001fc6565b5b81526020016000600281111562001a865762001a8562001fc6565b5b81525090565b604051806080016040528060008152602001600073ffffffffffffffffffffffffffffffffffffffff168152602001600073ffffffffffffffffffffffffffffffffffffffff1681526020016000151581525090565b61347580620029ab83390190565b6000604051905090565b600080fd5b600080fd5b600080fd5b600080fd5b6000601f19601f8301169050919050565b7f4e487b7100000000000000000000000000000000000000000000000000000000600052604160045260246000fd5b62001b598262001b0e565b810181811067ffffffffffffffff8211171562001b7b5762001b7a62001b1f565b5b80604052505050565b600062001b9062001af0565b905062001b9e828262001b4e565b919050565b600067ffffffffffffffff82111562001bc15762001bc062001b1f565b5b62001bcc8262001b0e565b9050602081019050919050565b82818337600083830152505050565b600062001bff62001bf98462001ba3565b62001b84565b90508281526020810184848401111562001c1e5762001c1d62001b09565b5b62001c2b84828562001bd9565b509392505050565b600082601f83011262001c4b5762001c4a62001b04565b5b813562001c5d84826020860162001be8565b91505092915050565b6000806040838503121562001c805762001c7f62001afa565b5b600083013567ffffffffffffffff81111562001ca15762001ca062001aff565b5b62001caf8582860162001c33565b925050602083013567ffffffffffffffff81111562001cd35762001cd262001aff565b5b62001ce18582860162001c33565b9150509250929050565b6000819050919050565b62001d008162001ceb565b82525050565b600060208201905062001d1d600083018462001cf5565b92915050565b600081519050919050565b600082825260208201905092915050565b6000819050602082019050919050565b62001d5a8162001ceb565b82525050565b600073ffffffffffffffffffffffffffffffffffffffff82169050919050565b600062001d8d8262001d60565b9050919050565b62001d9f8162001d80565b82525050565b60008115159050919050565b62001dbc8162001da5565b82525050565b60808201600082015162001dda600085018262001d4f565b50602082015162001def602085018262001d94565b50604082015162001e04604085018262001d94565b50606082015162001e19606085018262001db1565b50505050565b600062001e2d838362001dc2565b60808301905092915050565b6000602082019050919050565b600062001e538262001d23565b62001e5f818562001d2e565b935062001e6c8362001d3f565b8060005b8381101562001ea357815162001e87888262001e1f565b975062001e948362001e39565b92505060018101905062001e70565b5085935050505092915050565b6000602082019050818103600083015262001ecc818462001e46565b905092915050565b62001edf8162001d80565b811462001eeb57600080fd5b50565b60008135905062001eff8162001ed4565b92915050565b60006020828403121562001f1e5762001f1d62001afa565b5b600062001f2e8482850162001eee565b91505092915050565b62001f428162001ceb565b811462001f4e57600080fd5b50565b60008135905062001f628162001f37565b92915050565b60006020828403121562001f815762001f8062001afa565b5b600062001f918482850162001f51565b91505092915050565b600081519050919050565b600082825260208201905092915050565b6000819050602082019050919050565b7f4e487b7100000000000000000000000000000000000000000000000000000000600052602160045260246000fd5b6005811062002009576200200862001fc6565b5b50565b60008190506200201c8262001ff5565b919050565b60006200202e826200200c565b9050919050565b620020408162002021565b82525050565b600381106200205a576200205962001fc6565b5b50565b60008190506200206d8262002046565b919050565b60006200207f826200205d565b9050919050565b620020918162002072565b82525050565b61016082016000820151620020b0600085018262001d94565b506020820151620020c5602085018262001d94565b506040820151620020da604085018262001d4f565b506060820151620020ef606085018262001d4f565b50608082015162002104608085018262001d4f565b5060a08201516200211960a085018262001d4f565b5060c08201516200212e60c085018262001d4f565b5060e08201516200214360e085018262001d4f565b506101008201516200215a61010085018262001d4f565b506101208201516200217161012085018262002035565b506101408201516200218861014085018262002086565b50505050565b60006200219c838362002097565b6101608301905092915050565b6000602082019050919050565b6000620021c38262001f9a565b620021cf818562001fa5565b9350620021dc8362001fb6565b8060005b8381101562002213578151620021f788826200218e565b97506200220483620021a9565b925050600181019050620021e0565b5085935050505092915050565b600060208201905081810360008301526200223c8184620021b6565b905092915050565b60008060006060848603121562002260576200225f62001afa565b5b6000620022708682870162001eee565b9350506020620022838682870162001f51565b9250506040620022968682870162001f51565b9150509250925092565b600082825260208201905092915050565b7f496e73756666696369656e742046756e64730000000000000000000000000000600082015250565b6000620022e9601283620022a0565b9150620022f682620022b1565b602082019050919050565b600060208201905081810360008301526200231c81620022da565b9050919050565b7f4e487b7100000000000000000000000000000000000000000000000000000000600052603260045260246000fd5b7f5468652061756374696f6e206d75737420657869737400000000000000000000600082015250565b60006200238a601683620022a0565b9150620023978262002352565b602082019050919050565b60006020820190508181036000830152620023bd816200237b565b9050919050565b7f5468652061756374696f6e2063616e206f6e6c792062652063616e63656c656460008201527f20627920746865206f776e657200000000000000000000000000000000000000602082015250565b600062002422602d83620022a0565b91506200242f82620023c4565b604082019050919050565b60006020820190508181036000830152620024558162002413565b9050919050565b7f5468652061756374696f6e2073686f756c642062652072756e6e696e67000000600082015250565b600062002494601d83620022a0565b9150620024a1826200245c565b602082019050919050565b60006020820190508181036000830152620024c78162002485565b9050919050565b620024d98162001d80565b82525050565b6000606082019050620024f66000830186620024ce565b620025056020830185620024ce565b62002514604083018462001cf5565b949350505050565b7f4e487b7100000000000000000000000000000000000000000000000000000000600052601160045260246000fd5b6000620025588262001ceb565b91507fffffffffffffffffffffffffffffffffffffffffffffffffffffffffffffffff82036200258d576200258c6200251c565b5b600182019050919050565b7f54686973207573657220686173206e6f2066756e647320746f20626520636c6160008201527f696d656400000000000000000000000000000000000000000000000000000000602082015250565b6000620025f6602483620022a0565b9150620026038262002598565b604082019050919050565b600060208201905081810360008301526200262981620025e7565b9050919050565b7f546865206f776e6572206f66207468652061756374696f6e2063616e6e6f742060008201527f6275792069740000000000000000000000000000000000000000000000000000602082015250565b60006200268e602683620022a0565b91506200269b8262002630565b604082019050919050565b60006020820190508181036000830152620026c1816200267f565b9050919050565b7f5468652061756374696f6e207374617475732073686f756c642062652072756e60008201527f6e696e6700000000000000000000000000000000000000000000000000000000602082015250565b600062002726602483620022a0565b91506200273382620026c8565b604082019050919050565b60006020820190508181036000830152620027598162002717565b9050919050565b7f4f6e6c792066697865642070726963652061756374696f6e732063616e20626560008201527f20627579206974206e6f77000000000000000000000000000000000000000000602082015250565b6000620027be602b83620022a0565b9150620027cb8262002760565b604082019050919050565b60006020820190508181036000830152620027f181620027af565b9050919050565b6000620028058262001ceb565b9150620028128362001ceb565b9250827fffffffffffffffffffffffffffffffffffffffffffffffffffffffffffffffff038211156200284a57620028496200251c565b5b828201905092915050565b7f5468652045544820616d6f756e742073686f756c64206d61746368207769746860008201527f20746865204e4654205072696365202b20666565000000000000000000000000602082015250565b6000620028b3603483620022a0565b9150620028c08262002855565b604082019050919050565b60006020820190508181036000830152620028e681620028a4565b9050919050565b600081519050919050565b60005b8381101562002918578082015181840152602081019050620028fb565b8381111562002928576000848401525b50505050565b60006200293b82620028ed565b620029478185620022a0565b935062002959818560208601620028f8565b620029648162001b0e565b840191505092915050565b600060408201905081810360008301526200298b81856200292e565b90508181036020830152620029a181846200292e565b9050939250505056fe60806040523480156200001157600080fd5b5060405162003475380380620034758339818101604052810190620000379190620002c2565b818181600090805190602001906200005192919062000075565b5080600190805190602001906200006a92919062000075565b5050505050620003ab565b828054620000839062000376565b90600052602060002090601f016020900481019282620000a75760008555620000f3565b82601f10620000c257805160ff1916838001178555620000f3565b82800160010185558215620000f3579182015b82811115620000f2578251825591602001919060010190620000d5565b5b50905062000102919062000106565b5090565b5b808211156200012157600081600090555060010162000107565b5090565b6000604051905090565b600080fd5b600080fd5b600080fd5b600080fd5b6000601f19601f8301169050919050565b7f4e487b7100000000000000000000000000000000000000000000000000000000600052604160045260246000fd5b6200018e8262000143565b810181811067ffffffffffffffff82111715620001b057620001af62000154565b5b80604052505050565b6000620001c562000125565b9050620001d3828262000183565b919050565b600067ffffffffffffffff821115620001f657620001f562000154565b5b620002018262000143565b9050602081019050919050565b60005b838110156200022e57808201518184015260208101905062000211565b838111156200023e576000848401525b50505050565b60006200025b6200025584620001d8565b620001b9565b9050828152602081018484840111156200027a57620002796200013e565b5b620002878482856200020e565b509392505050565b600082601f830112620002a757620002a662000139565b5b8151620002b984826020860162000244565b91505092915050565b60008060408385031215620002dc57620002db6200012f565b5b600083015167ffffffffffffffff811115620002fd57620002fc62000134565b5b6200030b858286016200028f565b925050602083015167ffffffffffffffff8111156200032f576200032e62000134565b5b6200033d858286016200028f565b9150509250929050565b7f4e487b7100000000000000000000000000000000000000000000000000000000600052602260045260246000fd5b600060028204905060018216806200038f57607f821691505b602082108103620003a557620003a462000347565b5b50919050565b6130ba80620003bb6000396000f3fe608060405234801561001057600080fd5b50600436106101165760003560e01c80636352211e116100a257806395d89b411161007157806395d89b4114610317578063a22cb46514610335578063b88d4fde14610351578063c87b56dd1461036d578063e985e9c51461039d57610116565b80636352211e1461026b578063695850fb1461029b5780636c8b703f146102b757806370a08231146102e757610116565b806318160ddd116100e957806318160ddd146101b557806323b872dd146101d35780632f745c59146101ef57806342842e0e1461021f5780634f6ccce71461023b57610116565b806301ffc9a71461011b57806306fdde031461014b578063081812fc14610169578063095ea7b314610199575b600080fd5b61013560048036038101906101309190611e7c565b6103cd565b6040516101429190611ec4565b60405180910390f35b6101536103df565b6040516101609190611f78565b60405180910390f35b610183600480360381019061017e9190611fd0565b610471565b604051610190919061203e565b60405180910390f35b6101b360048036038101906101ae9190612085565b6104f6565b005b6101bd61060d565b6040516101ca91906120d4565b60405180910390f35b6101ed60048036038101906101e891906120ef565b61061a565b005b61020960048036038101906102049190612085565b61067a565b60405161021691906120d4565b60405180910390f35b610239600480360381019061023491906120ef565b61071f565b005b61025560048036038101906102509190611fd0565b61073f565b60405161026291906120d4565b60405180910390f35b61028560048036038101906102809190611fd0565b6107b0565b604051610292919061203e565b60405180910390f35b6102b560048036038101906102b09190612277565b610861565b005b6102d160048036038101906102cc9190611fd0565b610980565b6040516102de9190611f78565b60405180910390f35b61030160048036038101906102fc91906122c0565b610a2c565b60405161030e91906120d4565b60405180910390f35b61031f610ae3565b60405161032c9190611f78565b60405180910390f35b61034f600480360381019061034a9190612319565b610b75565b005b61036b600480360381019061036691906123fa565b610cf5565b005b61038760048036038101906103829190611fd0565b610d57565b6040516103949190611f78565b60405180910390f35b6103b760048036038101906103b2919061247d565b610e44565b6040516103c49190611ec4565b60405180910390f35b60006103d882610ed8565b9050919050565b6060600080546103ee906124ec565b80601f016020809104026020016040519081016040528092919081815260200182805461041a906124ec565b80156104675780601f1061043c57610100808354040283529160200191610467565b820191906000526020600020905b81548152906001019060200180831161044a57829003601f168201915b5050505050905090565b600061047c82610f52565b6104bb576040517f08c379a00000000000000000000000000000000000000000000000000000000081526004016104b29061258f565b60405180910390fd5b6004600083815260200190815260200160002060009054906101000a900473ffffffffffffffffffffffffffffffffffffffff169050919050565b6000610501826107b0565b90508073ffffffffffffffffffffffffffffffffffffffff168373ffffffffffffffffffffffffffffffffffffffff1603610571576040517f08c379a000000000000000000000000000000000000000000000000000000000815260040161056890612621565b60405180910390fd5b8073ffffffffffffffffffffffffffffffffffffffff16610590610fbe565b73ffffffffffffffffffffffffffffffffffffffff1614806105bf57506105be816105b9610fbe565b610e44565b5b6105fe576040517f08c379a00000000000000000000000000000000000000000000000000000000081526004016105f5906126b3565b60405180910390fd5b6106088383610fc6565b505050565b6000600880549050905090565b61062b610625610fbe565b8261107f565b61066a576040517f08c379a000000000000000000000000000000000000000000000000000000000815260040161066190612745565b60405180910390fd5b61067583838361115d565b505050565b600061068583610a2c565b82106106c6576040517f08c379a00000000000000000000000000000000000000000000000000000000081526004016106bd906127d7565b60405180910390fd5b600660008473ffffffffffffffffffffffffffffffffffffffff1673ffffffffffffffffffffffffffffffffffffffff168152602001908152602001600020600083815260200190815260200160002054905092915050565b61073a83838360405180602001604052806000815250610cf5565b505050565b600061074961060d565b821061078a576040517f08c379a000000000000000000000000000000000000000000000000000000000815260040161078190612869565b60405180910390fd5b6008828154811061079e5761079d612889565b5b90600052602060002001549050919050565b6000806002600084815260200190815260200160002060009054906101000a900473ffffffffffffffffffffffffffffffffffffffff169050600073ffffffffffffffffffffffffffffffffffffffff168173ffffffffffffffffffffffffffffffffffffffff1603610858576040517f08c379a000000000000000000000000000000000000000000000000000000000815260040161084f9061292a565b60405180910390fd5b80915050919050565b600b816040516108719190612986565b908152602001604051809103902060009054906101000a900460ff16156108cd576040517f08c379a00000000000000000000000000000000000000000000000000000000081526004016108c4906129e9565b60405180910390fd5b600a81908060018154018082558091505060019003906000526020600020016000909190919091509080519060200190610908929190611d6d565b506000600a80549050905081600c6000838152602001908152602001600020908051906020019061093a929190611d6d565b5061094533826113b8565b6001600b836040516109579190612986565b908152602001604051809103902060006101000a81548160ff0219169083151502179055505050565b600a818154811061099057600080fd5b9060005260206000200160009150905080546109ab906124ec565b80601f01602080910402602001604051908101604052809291908181526020018280546109d7906124ec565b8015610a245780601f106109f957610100808354040283529160200191610a24565b820191906000526020600020905b815481529060010190602001808311610a0757829003601f168201915b505050505081565b60008073ffffffffffffffffffffffffffffffffffffffff168273ffffffffffffffffffffffffffffffffffffffff1603610a9c576040517f08c379a0000000000000000000000000000000000000000000000000000000008152600401610a9390612a7b565b60405180910390fd5b600360008373ffffffffffffffffffffffffffffffffffffffff1673ffffffffffffffffffffffffffffffffffffffff168152602001908152602001600020549050919050565b606060018054610af2906124ec565b80601f0160208091040260200160405190810160405280929190818152602001828054610b1e906124ec565b8015610b6b5780601f10610b4057610100808354040283529160200191610b6b565b820191906000526020600020905b815481529060010190602001808311610b4e57829003601f168201915b5050505050905090565b610b7d610fbe565b73ffffffffffffffffffffffffffffffffffffffff168273ffffffffffffffffffffffffffffffffffffffff1603610bea576040517f08c379a0000000000000000000000000000000000000000000000000000000008152600401610be190612ae7565b60405180910390fd5b8060056000610bf7610fbe565b73ffffffffffffffffffffffffffffffffffffffff1673ffffffffffffffffffffffffffffffffffffffff16815260200190815260200160002060008473ffffffffffffffffffffffffffffffffffffffff1673ffffffffffffffffffffffffffffffffffffffff16815260200190815260200160002060006101000a81548160ff0219169083151502179055508173ffffffffffffffffffffffffffffffffffffffff16610ca4610fbe565b73ffffffffffffffffffffffffffffffffffffffff167f17307eab39ab6107e8899845ad3d59bd9653f200f220920489ca2b5937696c3183604051610ce99190611ec4565b60405180910390a35050565b610d06610d00610fbe565b8361107f565b610d45576040517f08c379a0000000000000000000000000000000000000000000000000000000008152600401610d3c90612745565b60405180910390fd5b610d51848484846113d6565b50505050565b6060610d6282610f52565b610da1576040517f08c379a0000000000000000000000000000000000000000000000000000000008152600401610d9890612b79565b60405180910390fd5b600c60008381526020019081526020016000208054610dbf906124ec565b80601f0160208091040260200160405190810160405280929190818152602001828054610deb906124ec565b8015610e385780601f10610e0d57610100808354040283529160200191610e38565b820191906000526020600020905b815481529060010190602001808311610e1b57829003601f168201915b50505050509050919050565b6000600560008473ffffffffffffffffffffffffffffffffffffffff1673ffffffffffffffffffffffffffffffffffffffff16815260200190815260200160002060008373ffffffffffffffffffffffffffffffffffffffff1673ffffffffffffffffffffffffffffffffffffffff16815260200190815260200160002060009054906101000a900460ff16905092915050565b60007f780e9d63000000000000000000000000000000000000000000000000000000007bffffffffffffffffffffffffffffffffffffffffffffffffffffffff1916827bffffffffffffffffffffffffffffffffffffffffffffffffffffffff19161480610f4b5750610f4a82611432565b5b9050919050565b60008073ffffffffffffffffffffffffffffffffffffffff166002600084815260200190815260200160002060009054906101000a900473ffffffffffffffffffffffffffffffffffffffff1673ffffffffffffffffffffffffffffffffffffffff1614159050919050565b600033905090565b816004600083815260200190815260200160002060006101000a81548173ffffffffffffffffffffffffffffffffffffffff021916908373ffffffffffffffffffffffffffffffffffffffff160217905550808273ffffffffffffffffffffffffffffffffffffffff16611039836107b0565b73ffffffffffffffffffffffffffffffffffffffff167f8c5be1e5ebec7d5bd14f71427d1e84f3dd0314c0f7b2291e5b200ac8c7c3b92560405160405180910390a45050565b600061108a82610f52565b6110c9576040517f08c379a00000000000000000000000000000000000000000000000000000000081526004016110c090612c0b565b60405180910390fd5b60006110d4836107b0565b90508073ffffffffffffffffffffffffffffffffffffffff168473ffffffffffffffffffffffffffffffffffffffff16148061114357508373ffffffffffffffffffffffffffffffffffffffff1661112b84610471565b73ffffffffffffffffffffffffffffffffffffffff16145b8061115457506111538185610e44565b5b91505092915050565b8273ffffffffffffffffffffffffffffffffffffffff1661117d826107b0565b73ffffffffffffffffffffffffffffffffffffffff16146111d3576040517f08c379a00000000000000000000000000000000000000000000000000000000081526004016111ca90612c9d565b60405180910390fd5b600073ffffffffffffffffffffffffffffffffffffffff168273ffffffffffffffffffffffffffffffffffffffff1603611242576040517f08c379a000000000000000000000000000000000000000000000000000000000815260040161123990612d2f565b60405180910390fd5b61124d838383611514565b611258600082610fc6565b6001600360008573ffffffffffffffffffffffffffffffffffffffff1673ffffffffffffffffffffffffffffffffffffffff16815260200190815260200160002060008282546112a89190612d7e565b925050819055506001600360008473ffffffffffffffffffffffffffffffffffffffff1673ffffffffffffffffffffffffffffffffffffffff16815260200190815260200160002060008282546112ff9190612db2565b92505081905550816002600083815260200190815260200160002060006101000a81548173ffffffffffffffffffffffffffffffffffffffff021916908373ffffffffffffffffffffffffffffffffffffffff160217905550808273ffffffffffffffffffffffffffffffffffffffff168473ffffffffffffffffffffffffffffffffffffffff167fddf252ad1be2c89b69c2b068fc378daa952ba7f163c4a11628f55a4df523b3ef60405160405180910390a4505050565b6113d2828260405180602001604052806000815250611524565b5050565b6113e184848461115d565b6113ed8484848461157f565b61142c576040517f08c379a000000000000000000000000000000000000000000000000000000000815260040161142390612e7a565b60405180910390fd5b50505050565b60007f80ac58cd000000000000000000000000000000000000000000000000000000007bffffffffffffffffffffffffffffffffffffffffffffffffffffffff1916827bffffffffffffffffffffffffffffffffffffffffffffffffffffffff191614806114fd57507f5b5e139f000000000000000000000000000000000000000000000000000000007bffffffffffffffffffffffffffffffffffffffffffffffffffffffff1916827bffffffffffffffffffffffffffffffffffffffffffffffffffffffff1916145b8061150d575061150c82611706565b5b9050919050565b61151f838383611770565b505050565b61152e8383611882565b61153b600084848461157f565b61157a576040517f08c379a000000000000000000000000000000000000000000000000000000000815260040161157190612e7a565b60405180910390fd5b505050565b60006115a08473ffffffffffffffffffffffffffffffffffffffff16611a4f565b156116f9578373ffffffffffffffffffffffffffffffffffffffff1663150b7a026115c9610fbe565b8786866040518563ffffffff1660e01b81526004016115eb9493929190612eef565b6020604051808303816000875af192505050801561162757506040513d601f19601f820116820180604052508101906116249190612f50565b60015b6116a9573d8060008114611657576040519150601f19603f3d011682016040523d82523d6000602084013e61165c565b606091505b5060008151036116a1576040517f08c379a000000000000000000000000000000000000000000000000000000000815260040161169890612e7a565b60405180910390fd5b805181602001fd5b63150b7a0260e01b7bffffffffffffffffffffffffffffffffffffffffffffffffffffffff1916817bffffffffffffffffffffffffffffffffffffffffffffffffffffffff1916149150506116fe565b600190505b949350505050565b60007f01ffc9a7000000000000000000000000000000000000000000000000000000007bffffffffffffffffffffffffffffffffffffffffffffffffffffffff1916827bffffffffffffffffffffffffffffffffffffffffffffffffffffffff1916149050919050565b61177b838383611a62565b600073ffffffffffffffffffffffffffffffffffffffff168373ffffffffffffffffffffffffffffffffffffffff16036117bd576117b881611a67565b6117fc565b8173ffffffffffffffffffffffffffffffffffffffff168373ffffffffffffffffffffffffffffffffffffffff16146117fb576117fa8382611ab0565b5b5b600073ffffffffffffffffffffffffffffffffffffffff168273ffffffffffffffffffffffffffffffffffffffff160361183e5761183981611c1d565b61187d565b8273ffffffffffffffffffffffffffffffffffffffff168273ffffffffffffffffffffffffffffffffffffffff161461187c5761187b8282611cee565b5b5b505050565b600073ffffffffffffffffffffffffffffffffffffffff168273ffffffffffffffffffffffffffffffffffffffff16036118f1576040517f08c379a00000000000000000000000000000000000000000000000000000000081526004016118e890612fc9565b60405180910390fd5b6118fa81610f52565b1561193a576040517f08c379a000000000000000000000000000000000000000000000000000000000815260040161193190613035565b60405180910390fd5b61194660008383611514565b6001600360008473ffffffffffffffffffffffffffffffffffffffff1673ffffffffffffffffffffffffffffffffffffffff16815260200190815260200160002060008282546119969190612db2565b92505081905550816002600083815260200190815260200160002060006101000a81548173ffffffffffffffffffffffffffffffffffffffff021916908373ffffffffffffffffffffffffffffffffffffffff160217905550808273ffffffffffffffffffffffffffffffffffffffff16600073ffffffffffffffffffffffffffffffffffffffff167fddf252ad1be2c89b69c2b068fc378daa952ba7f163c4a11628f55a4df523b3ef60405160405180910390a45050565b600080823b905060008111915050919050565b505050565b6008805490506009600083815260200190815260200160002081905550600881908060018154018082558091505060019003906000526020600020016000909190919091505550565b60006001611abd84610a2c565b611ac79190612d7e565b9050600060076000848152602001908152602001600020549050818114611bac576000600660008673ffffffffffffffffffffffffffffffffffffffff1673ffffffffffffffffffffffffffffffffffffffff168152602001908152602001600020600084815260200190815260200160002054905080600660008773ffffffffffffffffffffffffffffffffffffffff1673ffffffffffffffffffffffffffffffffffffffff168152602001908152602001600020600084815260200190815260200160002081905550816007600083815260200190815260200160002081905550505b6007600084815260200190815260200160002060009055600660008573ffffffffffffffffffffffffffffffffffffffff1673ffffffffffffffffffffffffffffffffffffffff16815260200190815260200160002060008381526020019081526020016000206000905550505050565b60006001600880549050611c319190612d7e565b9050600060096000848152602001908152602001600020549050600060088381548110611c6157611c60612889565b5b906000526020600020015490508060088381548110611c8357611c82612889565b5b906000526020600020018190555081600960008381526020019081526020016000208190555060096000858152602001908152602001600020600090556008805480611cd257611cd1613055565b5b6001900381819060005260206000200160009055905550505050565b6000611cf983610a2c565b905081600660008573ffffffffffffffffffffffffffffffffffffffff1673ffffffffffffffffffffffffffffffffffffffff168152602001908152602001600020600083815260200190815260200160002081905550806007600084815260200190815260200160002081905550505050565b828054611d79906124ec565b90600052602060002090601f016020900481019282611d9b5760008555611de2565b82601f10611db457805160ff1916838001178555611de2565b82800160010185558215611de2579182015b82811115611de1578251825591602001919060010190611dc6565b5b509050611def9190611df3565b5090565b5b80821115611e0c576000816000905550600101611df4565b5090565b6000604051905090565b600080fd5b600080fd5b60007fffffffff0000000000000000000000000000000000000000000000000000000082169050919050565b611e5981611e24565b8114611e6457600080fd5b50565b600081359050611e7681611e50565b92915050565b600060208284031215611e9257611e91611e1a565b5b6000611ea084828501611e67565b91505092915050565b60008115159050919050565b611ebe81611ea9565b82525050565b6000602082019050611ed96000830184611eb5565b92915050565b600081519050919050565b600082825260208201905092915050565b60005b83811015611f19578082015181840152602081019050611efe565b83811115611f28576000848401525b50505050565b6000601f19601f8301169050919050565b6000611f4a82611edf565b611f548185611eea565b9350611f64818560208601611efb565b611f6d81611f2e565b840191505092915050565b60006020820190508181036000830152611f928184611f3f565b905092915050565b6000819050919050565b611fad81611f9a565b8114611fb857600080fd5b50565b600081359050611fca81611fa4565b92915050565b600060208284031215611fe657611fe5611e1a565b5b6000611ff484828501611fbb565b91505092915050565b600073ffffffffffffffffffffffffffffffffffffffff82169050919050565b600061202882611ffd565b9050919050565b6120388161201d565b82525050565b6000602082019050612053600083018461202f565b92915050565b6120628161201d565b811461206d57600080fd5b50565b60008135905061207f81612059565b92915050565b6000806040838503121561209c5761209b611e1a565b5b60006120aa85828601612070565b92505060206120bb85828601611fbb565b9150509250929050565b6120ce81611f9a565b82525050565b60006020820190506120e960008301846120c5565b92915050565b60008060006060848603121561210857612107611e1a565b5b600061211686828701612070565b935050602061212786828701612070565b925050604061213886828701611fbb565b9150509250925092565b600080fd5b600080fd5b7f4e487b7100000000000000000000000000000000000000000000000000000000600052604160045260246000fd5b61218482611f2e565b810181811067ffffffffffffffff821117156121a3576121a261214c565b5b80604052505050565b60006121b6611e10565b90506121c2828261217b565b919050565b600067ffffffffffffffff8211156121e2576121e161214c565b5b6121eb82611f2e565b9050602081019050919050565b82818337600083830152505050565b600061221a612215846121c7565b6121ac565b90508281526020810184848401111561223657612235612147565b5b6122418482856121f8565b509392505050565b600082601f83011261225e5761225d612142565b5b813561226e848260208601612207565b91505092915050565b60006020828403121561228d5761228c611e1a565b5b600082013567ffffffffffffffff8111156122ab576122aa611e1f565b5b6122b784828501612249565b91505092915050565b6000602082840312156122d6576122d5611e1a565b5b60006122e484828501612070565b91505092915050565b6122f681611ea9565b811461230157600080fd5b50565b600081359050612313816122ed565b92915050565b600080604083850312156123305761232f611e1a565b5b600061233e85828601612070565b925050602061234f85828601612304565b9150509250929050565b600067ffffffffffffffff8211156123745761237361214c565b5b61237d82611f2e565b9050602081019050919050565b600061239d61239884612359565b6121ac565b9050828152602081018484840111156123b9576123b8612147565b5b6123c48482856121f8565b509392505050565b600082601f8301126123e1576123e0612142565b5b81356123f184826020860161238a565b91505092915050565b6000806000806080858703121561241457612413611e1a565b5b600061242287828801612070565b945050602061243387828801612070565b935050604061244487828801611fbb565b925050606085013567ffffffffffffffff81111561246557612464611e1f565b5b612471878288016123cc565b91505092959194509250565b6000806040838503121561249457612493611e1a565b5b60006124a285828601612070565b92505060206124b385828601612070565b9150509250929050565b7f4e487b7100000000000000000000000000000000000000000000000000000000600052602260045260246000fd5b6000600282049050600182168061250457607f821691505b602082108103612517576125166124bd565b5b50919050565b7f4552433732313a20617070726f76656420717565727920666f72206e6f6e657860008201527f697374656e7420746f6b656e0000000000000000000000000000000000000000602082015250565b6000612579602c83611eea565b91506125848261251d565b604082019050919050565b600060208201905081810360008301526125a88161256c565b9050919050565b7f4552433732313a20617070726f76616c20746f2063757272656e74206f776e6560008201527f7200000000000000000000000000000000000000000000000000000000000000602082015250565b600061260b602183611eea565b9150612616826125af565b604082019050919050565b6000602082019050818103600083015261263a816125fe565b9050919050565b7f4552433732313a20617070726f76652063616c6c6572206973206e6f74206f7760008201527f6e6572206e6f7220617070726f76656420666f7220616c6c0000000000000000602082015250565b600061269d603883611eea565b91506126a882612641565b604082019050919050565b600060208201905081810360008301526126cc81612690565b9050919050565b7f4552433732313a207472616e736665722063616c6c6572206973206e6f74206f60008201527f776e6572206e6f7220617070726f766564000000000000000000000000000000602082015250565b600061272f603183611eea565b915061273a826126d3565b604082019050919050565b6000602082019050818103600083015261275e81612722565b9050919050565b7f455243373231456e756d657261626c653a206f776e657220696e646578206f7560008201527f74206f6620626f756e6473000000000000000000000000000000000000000000602082015250565b60006127c1602b83611eea565b91506127cc82612765565b604082019050919050565b600060208201905081810360008301526127f0816127b4565b9050919050565b7f455243373231456e756d657261626c653a20676c6f62616c20696e646578206f60008201527f7574206f6620626f756e64730000000000000000000000000000000000000000602082015250565b6000612853602c83611eea565b915061285e826127f7565b604082019050919050565b6000602082019050818103600083015261288281612846565b9050919050565b7f4e487b7100000000000000000000000000000000000000000000000000000000600052603260045260246000fd5b7f4552433732313a206f776e657220717565727920666f72206e6f6e657869737460008201527f656e7420746f6b656e0000000000000000000000000000000000000000000000602082015250565b6000612914602983611eea565b915061291f826128b8565b604082019050919050565b6000602082019050818103600083015261294381612907565b9050919050565b600081905092915050565b600061296082611edf565b61296a818561294a565b935061297a818560208601611efb565b80840191505092915050565b60006129928284612955565b915081905092915050565b7f54686520746f6b656e205552492073686f756c6420626520756e697175650000600082015250565b60006129d3601e83611eea565b91506129de8261299d565b602082019050919050565b60006020820190508181036000830152612a02816129c6565b9050919050565b7f4552433732313a2062616c616e636520717565727920666f7220746865207a6560008201527f726f206164647265737300000000000000000000000000000000000000000000602082015250565b6000612a65602a83611eea565b9150612a7082612a09565b604082019050919050565b60006020820190508181036000830152612a9481612a58565b9050919050565b7f4552433732313a20617070726f766520746f2063616c6c657200000000000000600082015250565b6000612ad1601983611eea565b9150612adc82612a9b565b602082019050919050565b60006020820190508181036000830152612b0081612ac4565b9050919050565b7f4552433732314d657461646174613a2055524920717565727920666f72206e6f60008201527f6e6578697374656e7420746f6b656e0000000000000000000000000000000000602082015250565b6000612b63602f83611eea565b9150612b6e82612b07565b604082019050919050565b60006020820190508181036000830152612b9281612b56565b9050919050565b7f4552433732313a206f70657261746f7220717565727920666f72206e6f6e657860008201527f697374656e7420746f6b656e0000000000000000000000000000000000000000602082015250565b6000612bf5602c83611eea565b9150612c0082612b99565b604082019050919050565b60006020820190508181036000830152612c2481612be8565b9050919050565b7f4552433732313a207472616e73666572206f6620746f6b656e2074686174206960008201527f73206e6f74206f776e0000000000000000000000000000000000000000000000602082015250565b6000612c87602983611eea565b9150612c9282612c2b565b604082019050919050565b60006020820190508181036000830152612cb681612c7a565b9050919050565b7f4552433732313a207472616e7366657220746f20746865207a65726f2061646460008201527f7265737300000000000000000000000000000000000000000000000000000000602082015250565b6000612d19602483611eea565b9150612d2482612cbd565b604082019050919050565b60006020820190508181036000830152612d4881612d0c565b9050919050565b7f4e487b7100000000000000000000000000000000000000000000000000000000600052601160045260246000fd5b6000612d8982611f9a565b9150612d9483611f9a565b925082821015612da757612da6612d4f565b5b828203905092915050565b6000612dbd82611f9a565b9150612dc883611f9a565b9250827fffffffffffffffffffffffffffffffffffffffffffffffffffffffffffffffff03821115612dfd57612dfc612d4f565b5b828201905092915050565b7f4552433732313a207472616e7366657220746f206e6f6e20455243373231526560008201527f63656976657220696d706c656d656e7465720000000000000000000000000000602082015250565b6000612e64603283611eea565b9150612e6f82612e08565b604082019050919050565b60006020820190508181036000830152612e9381612e57565b9050919050565b600081519050919050565b600082825260208201905092915050565b6000612ec182612e9a565b612ecb8185612ea5565b9350612edb818560208601611efb565b612ee481611f2e565b840191505092915050565b6000608082019050612f04600083018761202f565b612f11602083018661202f565b612f1e60408301856120c5565b8181036060830152612f308184612eb6565b905095945050505050565b600081519050612f4a81611e50565b92915050565b600060208284031215612f6657612f65611e1a565b5b6000612f7484828501612f3b565b91505092915050565b7f4552433732313a206d696e7420746f20746865207a65726f2061646472657373600082015250565b6000612fb3602083611eea565b9150612fbe82612f7d565b602082019050919050565b60006020820190508181036000830152612fe281612fa6565b9050919050565b7f4552433732313a20746f6b656e20616c7265616479206d696e74656400000000600082015250565b600061301f601c83611eea565b915061302a82612fe9565b602082019050919050565b6000602082019050818103600083015261304e81613012565b9050919050565b7f4e487b7100000000000000000000000000000000000000000000000000000000600052603160045260246000fdfea2646970667358221220e7a821a0fae347dde42a4c12364a003f5899f1e858702fb7a486fc137272b2b964736f6c634300080e0033a2646970667358221220704b631f3503aa370965afa7e4b8d1e5c4f763a421fa825f4cb1cc5459016fda64736f6c634300080e003360806040523480156200001157600080fd5b5060405162003475380380620034758339818101604052810190620000379190620002c2565b818181600090805190602001906200005192919062000075565b5080600190805190602001906200006a92919062000075565b5050505050620003ab565b828054620000839062000376565b90600052602060002090601f016020900481019282620000a75760008555620000f3565b82601f10620000c257805160ff1916838001178555620000f3565b82800160010185558215620000f3579182015b82811115620000f2578251825591602001919060010190620000d5565b5b50905062000102919062000106565b5090565b5b808211156200012157600081600090555060010162000107565b5090565b6000604051905090565b600080fd5b600080fd5b600080fd5b600080fd5b6000601f19601f8301169050919050565b7f4e487b7100000000000000000000000000000000000000000000000000000000600052604160045260246000fd5b6200018e8262000143565b810181811067ffffffffffffffff82111715620001b057620001af62000154565b5b80604052505050565b6000620001c562000125565b9050620001d3828262000183565b919050565b600067ffffffffffffffff821115620001f657620001f562000154565b5b620002018262000143565b9050602081019050919050565b60005b838110156200022e57808201518184015260208101905062000211565b838111156200023e576000848401525b50505050565b60006200025b6200025584620001d8565b620001b9565b9050828152602081018484840111156200027a57620002796200013e565b5b620002878482856200020e565b509392505050565b600082601f830112620002a757620002a662000139565b5b8151620002b984826020860162000244565b91505092915050565b60008060408385031215620002dc57620002db6200012f565b5b600083015167ffffffffffffffff811115620002fd57620002fc62000134565b5b6200030b858286016200028f565b925050602083015167ffffffffffffffff8111156200032f576200032e62000134565b5b6200033d858286016200028f565b9150509250929050565b7f4e487b7100000000000000000000000000000000000000000000000000000000600052602260045260246000fd5b600060028204905060018216806200038f57607f821691505b602082108103620003a557620003a462000347565b5b50919050565b6130ba80620003bb6000396000f3fe608060405234801561001057600080fd5b50600436106101165760003560e01c80636352211e116100a257806395d89b411161007157806395d89b4114610317578063a22cb46514610335578063b88d4fde14610351578063c87b56dd1461036d578063e985e9c51461039d57610116565b80636352211e1461026b578063695850fb1461029b5780636c8b703f146102b757806370a08231146102e757610116565b806318160ddd116100e957806318160ddd146101b557806323b872dd146101d35780632f745c59146101ef57806342842e0e1461021f5780634f6ccce71461023b57610116565b806301ffc9a71461011b57806306fdde031461014b578063081812fc14610169578063095ea7b314610199575b600080fd5b61013560048036038101906101309190611e7c565b6103cd565b6040516101429190611ec4565b60405180910390f35b6101536103df565b6040516101609190611f78565b60405180910390f35b610183600480360381019061017e9190611fd0565b610471565b604051610190919061203e565b60405180910390f35b6101b360048036038101906101ae9190612085565b6104f6565b005b6101bd61060d565b6040516101ca91906120d4565b60405180910390f35b6101ed60048036038101906101e891906120ef565b61061a565b005b61020960048036038101906102049190612085565b61067a565b60405161021691906120d4565b60405180910390f35b610239600480360381019061023491906120ef565b61071f565b005b61025560048036038101906102509190611fd0565b61073f565b60405161026291906120d4565b60405180910390f35b61028560048036038101906102809190611fd0565b6107b0565b604051610292919061203e565b60405180910390f35b6102b560048036038101906102b09190612277565b610861565b005b6102d160048036038101906102cc9190611fd0565b610980565b6040516102de9190611f78565b60405180910390f35b61030160048036038101906102fc91906122c0565b610a2c565b60405161030e91906120d4565b60405180910390f35b61031f610ae3565b60405161032c9190611f78565b60405180910390f35b61034f600480360381019061034a9190612319565b610b75565b005b61036b600480360381019061036691906123fa565b610cf5565b005b61038760048036038101906103829190611fd0565b610d57565b6040516103949190611f78565b60405180910390f35b6103b760048036038101906103b2919061247d565b610e44565b6040516103c49190611ec4565b60405180910390f35b60006103d882610ed8565b9050919050565b6060600080546103ee906124ec565b80601f016020809104026020016040519081016040528092919081815260200182805461041a906124ec565b80156104675780601f1061043c57610100808354040283529160200191610467565b820191906000526020600020905b81548152906001019060200180831161044a57829003601f168201915b5050505050905090565b600061047c82610f52565b6104bb576040517f08c379a00000000000000000000000000000000000000000000000000000000081526004016104b29061258f565b60405180910390fd5b6004600083815260200190815260200160002060009054906101000a900473ffffffffffffffffffffffffffffffffffffffff169050919050565b6000610501826107b0565b90508073ffffffffffffffffffffffffffffffffffffffff168373ffffffffffffffffffffffffffffffffffffffff1603610571576040517f08c379a000000000000000000000000000000000000000000000000000000000815260040161056890612621565b60405180910390fd5b8073ffffffffffffffffffffffffffffffffffffffff16610590610fbe565b73ffffffffffffffffffffffffffffffffffffffff1614806105bf57506105be816105b9610fbe565b610e44565b5b6105fe576040517f08c379a00000000000000000000000000000000000000000000000000000000081526004016105f5906126b3565b60405180910390fd5b6106088383610fc6565b505050565b6000600880549050905090565b61062b610625610fbe565b8261107f565b61066a576040517f08c379a000000000000000000000000000000000000000000000000000000000815260040161066190612745565b60405180910390fd5b61067583838361115d565b505050565b600061068583610a2c565b82106106c6576040517f08c379a00000000000000000000000000000000000000000000000000000000081526004016106bd906127d7565b60405180910390fd5b600660008473ffffffffffffffffffffffffffffffffffffffff1673ffffffffffffffffffffffffffffffffffffffff168152602001908152602001600020600083815260200190815260200160002054905092915050565b61073a83838360405180602001604052806000815250610cf5565b505050565b600061074961060d565b821061078a576040517f08c379a000000000000000000000000000000000000000000000000000000000815260040161078190612869565b60405180910390fd5b6008828154811061079e5761079d612889565b5b90600052602060002001549050919050565b6000806002600084815260200190815260200160002060009054906101000a900473ffffffffffffffffffffffffffffffffffffffff169050600073ffffffffffffffffffffffffffffffffffffffff168173ffffffffffffffffffffffffffffffffffffffff1603610858576040517f08c379a000000000000000000000000000000000000000000000000000000000815260040161084f9061292a565b60405180910390fd5b80915050919050565b600b816040516108719190612986565b908152602001604051809103902060009054906101000a900460ff16156108cd576040517f08c379a00000000000000000000000000000000000000000000000000000000081526004016108c4906129e9565b60405180910390fd5b600a81908060018154018082558091505060019003906000526020600020016000909190919091509080519060200190610908929190611d6d565b506000600a80549050905081600c6000838152602001908152602001600020908051906020019061093a929190611d6d565b5061094533826113b8565b6001600b836040516109579190612986565b908152602001604051809103902060006101000a81548160ff0219169083151502179055505050565b600a818154811061099057600080fd5b9060005260206000200160009150905080546109ab906124ec565b80601f01602080910402602001604051908101604052809291908181526020018280546109d7906124ec565b8015610a245780601f106109f957610100808354040283529160200191610a24565b820191906000526020600020905b815481529060010190602001808311610a0757829003601f168201915b505050505081565b60008073ffffffffffffffffffffffffffffffffffffffff168273ffffffffffffffffffffffffffffffffffffffff1603610a9c576040517f08c379a0000000000000000000000000000000000000000000000000000000008152600401610a9390612a7b565b60405180910390fd5b600360008373ffffffffffffffffffffffffffffffffffffffff1673ffffffffffffffffffffffffffffffffffffffff168152602001908152602001600020549050919050565b606060018054610af2906124ec565b80601f0160208091040260200160405190810160405280929190818152602001828054610b1e906124ec565b8015610b6b5780601f10610b4057610100808354040283529160200191610b6b565b820191906000526020600020905b815481529060010190602001808311610b4e57829003601f168201915b5050505050905090565b610b7d610fbe565b73ffffffffffffffffffffffffffffffffffffffff168273ffffffffffffffffffffffffffffffffffffffff1603610bea576040517f08c379a0000000000000000000000000000000000000000000000000000000008152600401610be190612ae7565b60405180910390fd5b8060056000610bf7610fbe565b73ffffffffffffffffffffffffffffffffffffffff1673ffffffffffffffffffffffffffffffffffffffff16815260200190815260200160002060008473ffffffffffffffffffffffffffffffffffffffff1673ffffffffffffffffffffffffffffffffffffffff16815260200190815260200160002060006101000a81548160ff0219169083151502179055508173ffffffffffffffffffffffffffffffffffffffff16610ca4610fbe565b73ffffffffffffffffffffffffffffffffffffffff167f17307eab39ab6107e8899845ad3d59bd9653f200f220920489ca2b5937696c3183604051610ce99190611ec4565b60405180910390a35050565b610d06610d00610fbe565b8361107f565b610d45576040517f08c379a0000000000000000000000000000000000000000000000000000000008152600401610d3c90612745565b60405180910390fd5b610d51848484846113d6565b50505050565b6060610d6282610f52565b610da1576040517f08c379a0000000000000000000000000000000000000000000000000000000008152600401610d9890612b79565b60405180910390fd5b600c60008381526020019081526020016000208054610dbf906124ec565b80601f0160208091040260200160405190810160405280929190818152602001828054610deb906124ec565b8015610e385780601f10610e0d57610100808354040283529160200191610e38565b820191906000526020600020905b815481529060010190602001808311610e1b57829003601f168201915b50505050509050919050565b6000600560008473ffffffffffffffffffffffffffffffffffffffff1673ffffffffffffffffffffffffffffffffffffffff16815260200190815260200160002060008373ffffffffffffffffffffffffffffffffffffffff1673ffffffffffffffffffffffffffffffffffffffff16815260200190815260200160002060009054906101000a900460ff16905092915050565b60007f780e9d63000000000000000000000000000000000000000000000000000000007bffffffffffffffffffffffffffffffffffffffffffffffffffffffff1916827bffffffffffffffffffffffffffffffffffffffffffffffffffffffff19161480610f4b5750610f4a82611432565b5b9050919050565b60008073ffffffffffffffffffffffffffffffffffffffff166002600084815260200190815260200160002060009054906101000a900473ffffffffffffffffffffffffffffffffffffffff1673ffffffffffffffffffffffffffffffffffffffff1614159050919050565b600033905090565b816004600083815260200190815260200160002060006101000a81548173ffffffffffffffffffffffffffffffffffffffff021916908373ffffffffffffffffffffffffffffffffffffffff160217905550808273ffffffffffffffffffffffffffffffffffffffff16611039836107b0565b73ffffffffffffffffffffffffffffffffffffffff167f8c5be1e5ebec7d5bd14f71427d1e84f3dd0314c0f7b2291e5b200ac8c7c3b92560405160405180910390a45050565b600061108a82610f52565b6110c9576040517f08c379a00000000000000000000000000000000000000000000000000000000081526004016110c090612c0b565b60405180910390fd5b60006110d4836107b0565b90508073ffffffffffffffffffffffffffffffffffffffff168473ffffffffffffffffffffffffffffffffffffffff16148061114357508373ffffffffffffffffffffffffffffffffffffffff1661112b84610471565b73ffffffffffffffffffffffffffffffffffffffff16145b8061115457506111538185610e44565b5b91505092915050565b8273ffffffffffffffffffffffffffffffffffffffff1661117d826107b0565b73ffffffffffffffffffffffffffffffffffffffff16146111d3576040517f08c379a00000000000000000000000000000000000000000000000000000000081526004016111ca90612c9d565b60405180910390fd5b600073ffffffffffffffffffffffffffffffffffffffff168273ffffffffffffffffffffffffffffffffffffffff1603611242576040517f08c379a000000000000000000000000000000000000000000000000000000000815260040161123990612d2f565b60405180910390fd5b61124d838383611514565b611258600082610fc6565b6001600360008573ffffffffffffffffffffffffffffffffffffffff1673ffffffffffffffffffffffffffffffffffffffff16815260200190815260200160002060008282546112a89190612d7e565b925050819055506001600360008473ffffffffffffffffffffffffffffffffffffffff1673ffffffffffffffffffffffffffffffffffffffff16815260200190815260200160002060008282546112ff9190612db2565b92505081905550816002600083815260200190815260200160002060006101000a81548173ffffffffffffffffffffffffffffffffffffffff021916908373ffffffffffffffffffffffffffffffffffffffff160217905550808273ffffffffffffffffffffffffffffffffffffffff168473ffffffffffffffffffffffffffffffffffffffff167fddf252ad1be2c89b69c2b068fc378daa952ba7f163c4a11628f55a4df523b3ef60405160405180910390a4505050565b6113d2828260405180602001604052806000815250611524565b5050565b6113e184848461115d565b6113ed8484848461157f565b61142c576040517f08c379a000000000000000000000000000000000000000000000000000000000815260040161142390612e7a565b60405180910390fd5b50505050565b60007f80ac58cd000000000000000000000000000000000000000000000000000000007bffffffffffffffffffffffffffffffffffffffffffffffffffffffff1916827bffffffffffffffffffffffffffffffffffffffffffffffffffffffff191614806114fd57507f5b5e139f000000000000000000000000000000000000000000000000000000007bffffffffffffffffffffffffffffffffffffffffffffffffffffffff1916827bffffffffffffffffffffffffffffffffffffffffffffffffffffffff1916145b8061150d575061150c82611706565b5b9050919050565b61151f838383611770565b505050565b61152e8383611882565b61153b600084848461157f565b61157a576040517f08c379a000000000000000000000000000000000000000000000000000000000815260040161157190612e7a565b60405180910390fd5b505050565b60006115a08473ffffffffffffffffffffffffffffffffffffffff16611a4f565b156116f9578373ffffffffffffffffffffffffffffffffffffffff1663150b7a026115c9610fbe565b8786866040518563ffffffff1660e01b81526004016115eb9493929190612eef565b6020604051808303816000875af192505050801561162757506040513d601f19601f820116820180604052508101906116249190612f50565b60015b6116a9573d8060008114611657576040519150601f19603f3d011682016040523d82523d6000602084013e61165c565b606091505b5060008151036116a1576040517f08c379a000000000000000000000000000000000000000000000000000000000815260040161169890612e7a565b60405180910390fd5b805181602001fd5b63150b7a0260e01b7bffffffffffffffffffffffffffffffffffffffffffffffffffffffff1916817bffffffffffffffffffffffffffffffffffffffffffffffffffffffff1916149150506116fe565b600190505b949350505050565b60007f01ffc9a7000000000000000000000000000000000000000000000000000000007bffffffffffffffffffffffffffffffffffffffffffffffffffffffff1916827bffffffffffffffffffffffffffffffffffffffffffffffffffffffff1916149050919050565b61177b838383611a62565b600073ffffffffffffffffffffffffffffffffffffffff168373ffffffffffffffffffffffffffffffffffffffff16036117bd576117b881611a67565b6117fc565b8173ffffffffffffffffffffffffffffffffffffffff168373ffffffffffffffffffffffffffffffffffffffff16146117fb576117fa8382611ab0565b5b5b600073ffffffffffffffffffffffffffffffffffffffff168273ffffffffffffffffffffffffffffffffffffffff160361183e5761183981611c1d565b61187d565b8273ffffffffffffffffffffffffffffffffffffffff168273ffffffffffffffffffffffffffffffffffffffff161461187c5761187b8282611cee565b5b5b505050565b600073ffffffffffffffffffffffffffffffffffffffff168273ffffffffffffffffffffffffffffffffffffffff16036118f1576040517f08c379a00000000000000000000000000000000000000000000000000000000081526004016118e890612fc9565b60405180910390fd5b6118fa81610f52565b1561193a576040517f08c379a000000000000000000000000000000000000000000000000000000000815260040161193190613035565b60405180910390fd5b61194660008383611514565b6001600360008473ffffffffffffffffffffffffffffffffffffffff1673ffffffffffffffffffffffffffffffffffffffff16815260200190815260200160002060008282546119969190612db2565b92505081905550816002600083815260200190815260200160002060006101000a81548173ffffffffffffffffffffffffffffffffffffffff021916908373ffffffffffffffffffffffffffffffffffffffff160217905550808273ffffffffffffffffffffffffffffffffffffffff16600073ffffffffffffffffffffffffffffffffffffffff167fddf252ad1be2c89b69c2b068fc378daa952ba7f163c4a11628f55a4df523b3ef60405160405180910390a45050565b600080823b905060008111915050919050565b505050565b6008805490506009600083815260200190815260200160002081905550600881908060018154018082558091505060019003906000526020600020016000909190919091505550565b60006001611abd84610a2c565b611ac79190612d7e565b9050600060076000848152602001908152602001600020549050818114611bac576000600660008673ffffffffffffffffffffffffffffffffffffffff1673ffffffffffffffffffffffffffffffffffffffff168152602001908152602001600020600084815260200190815260200160002054905080600660008773ffffffffffffffffffffffffffffffffffffffff1673ffffffffffffffffffffffffffffffffffffffff168152602001908152602001600020600084815260200190815260200160002081905550816007600083815260200190815260200160002081905550505b6007600084815260200190815260200160002060009055600660008573ffffffffffffffffffffffffffffffffffffffff1673ffffffffffffffffffffffffffffffffffffffff16815260200190815260200160002060008381526020019081526020016000206000905550505050565b60006001600880549050611c319190612d7e565b9050600060096000848152602001908152602001600020549050600060088381548110611c6157611c60612889565b5b906000526020600020015490508060088381548110611c8357611c82612889565b5b906000526020600020018190555081600960008381526020019081526020016000208190555060096000858152602001908152602001600020600090556008805480611cd257611cd1613055565b5b6001900381819060005260206000200160009055905550505050565b6000611cf983610a2c565b905081600660008573ffffffffffffffffffffffffffffffffffffffff1673ffffffffffffffffffffffffffffffffffffffff168152602001908152602001600020600083815260200190815260200160002081905550806007600084815260200190815260200160002081905550505050565b828054611d79906124ec565b90600052602060002090601f016020900481019282611d9b5760008555611de2565b82601f10611db457805160ff1916838001178555611de2565b82800160010185558215611de2579182015b82811115611de1578251825591602001919060010190611dc6565b5b509050611def9190611df3565b5090565b5b80821115611e0c576000816000905550600101611df4565b5090565b6000604051905090565b600080fd5b600080fd5b60007fffffffff0000000000000000000000000000000000000000000000000000000082169050919050565b611e5981611e24565b8114611e6457600080fd5b50565b600081359050611e7681611e50565b92915050565b600060208284031215611e9257611e91611e1a565b5b6000611ea084828501611e67565b91505092915050565b60008115159050919050565b611ebe81611ea9565b82525050565b6000602082019050611ed96000830184611eb5565b92915050565b600081519050919050565b600082825260208201905092915050565b60005b83811015611f19578082015181840152602081019050611efe565b83811115611f28576000848401525b50505050565b6000601f19601f8301169050919050565b6000611f4a82611edf565b611f548185611eea565b9350611f64818560208601611efb565b611f6d81611f2e565b840191505092915050565b60006020820190508181036000830152611f928184611f3f565b905092915050565b6000819050919050565b611fad81611f9a565b8114611fb857600080fd5b50565b600081359050611fca81611fa4565b92915050565b600060208284031215611fe657611fe5611e1a565b5b6000611ff484828501611fbb565b91505092915050565b600073ffffffffffffffffffffffffffffffffffffffff82169050919050565b600061202882611ffd565b9050919050565b6120388161201d565b82525050565b6000602082019050612053600083018461202f565b92915050565b6120628161201d565b811461206d57600080fd5b50565b60008135905061207f81612059565b92915050565b6000806040838503121561209c5761209b611e1a565b5b60006120aa85828601612070565b92505060206120bb85828601611fbb565b9150509250929050565b6120ce81611f9a565b82525050565b60006020820190506120e960008301846120c5565b92915050565b60008060006060848603121561210857612107611e1a565b5b600061211686828701612070565b935050602061212786828701612070565b925050604061213886828701611fbb565b9150509250925092565b600080fd5b600080fd5b7f4e487b7100000000000000000000000000000000000000000000000000000000600052604160045260246000fd5b61218482611f2e565b810181811067ffffffffffffffff821117156121a3576121a261214c565b5b80604052505050565b60006121b6611e10565b90506121c2828261217b565b919050565b600067ffffffffffffffff8211156121e2576121e161214c565b5b6121eb82611f2e565b9050602081019050919050565b82818337600083830152505050565b600061221a612215846121c7565b6121ac565b90508281526020810184848401111561223657612235612147565b5b6122418482856121f8565b509392505050565b600082601f83011261225e5761225d612142565b5b813561226e848260208601612207565b91505092915050565b60006020828403121561228d5761228c611e1a565b5b600082013567ffffffffffffffff8111156122ab576122aa611e1f565b5b6122b784828501612249565b91505092915050565b6000602082840312156122d6576122d5611e1a565b5b60006122e484828501612070565b91505092915050565b6122f681611ea9565b811461230157600080fd5b50565b600081359050612313816122ed565b92915050565b600080604083850312156123305761232f611e1a565b5b600061233e85828601612070565b925050602061234f85828601612304565b9150509250929050565b600067ffffffffffffffff8211156123745761237361214c565b5b61237d82611f2e565b9050602081019050919050565b600061239d61239884612359565b6121ac565b9050828152602081018484840111156123b9576123b8612147565b5b6123c48482856121f8565b509392505050565b600082601f8301126123e1576123e0612142565b5b81356123f184826020860161238a565b91505092915050565b6000806000806080858703121561241457612413611e1a565b5b600061242287828801612070565b945050602061243387828801612070565b935050604061244487828801611fbb565b925050606085013567ffffffffffffffff81111561246557612464611e1f565b5b612471878288016123cc565b91505092959194509250565b6000806040838503121561249457612493611e1a565b5b60006124a285828601612070565b92505060206124b385828601612070565b9150509250929050565b7f4e487b7100000000000000000000000000000000000000000000000000000000600052602260045260246000fd5b6000600282049050600182168061250457607f821691505b602082108103612517576125166124bd565b5b50919050565b7f4552433732313a20617070726f76656420717565727920666f72206e6f6e657860008201527f697374656e7420746f6b656e0000000000000000000000000000000000000000602082015250565b6000612579602c83611eea565b91506125848261251d565b604082019050919050565b600060208201905081810360008301526125a88161256c565b9050919050565b7f4552433732313a20617070726f76616c20746f2063757272656e74206f776e6560008201527f7200000000000000000000000000000000000000000000000000000000000000602082015250565b600061260b602183611eea565b9150612616826125af565b604082019050919050565b6000602082019050818103600083015261263a816125fe565b9050919050565b7f4552433732313a20617070726f76652063616c6c6572206973206e6f74206f7760008201527f6e6572206e6f7220617070726f76656420666f7220616c6c0000000000000000602082015250565b600061269d603883611eea565b91506126a882612641565b604082019050919050565b600060208201905081810360008301526126cc81612690565b9050919050565b7f4552433732313a207472616e736665722063616c6c6572206973206e6f74206f60008201527f776e6572206e6f7220617070726f766564000000000000000000000000000000602082015250565b600061272f603183611eea565b915061273a826126d3565b604082019050919050565b6000602082019050818103600083015261275e81612722565b9050919050565b7f455243373231456e756d657261626c653a206f776e657220696e646578206f7560008201527f74206f6620626f756e6473000000000000000000000000000000000000000000602082015250565b60006127c1602b83611eea565b91506127cc82612765565b604082019050919050565b600060208201905081810360008301526127f0816127b4565b9050919050565b7f455243373231456e756d657261626c653a20676c6f62616c20696e646578206f60008201527f7574206f6620626f756e64730000000000000000000000000000000000000000602082015250565b6000612853602c83611eea565b915061285e826127f7565b604082019050919050565b6000602082019050818103600083015261288281612846565b9050919050565b7f4e487b7100000000000000000000000000000000000000000000000000000000600052603260045260246000fd5b7f4552433732313a206f776e657220717565727920666f72206e6f6e657869737460008201527f656e7420746f6b656e0000000000000000000000000000000000000000000000602082015250565b6000612914602983611eea565b915061291f826128b8565b604082019050919050565b6000602082019050818103600083015261294381612907565b9050919050565b600081905092915050565b600061296082611edf565b61296a818561294a565b935061297a818560208601611efb565b80840191505092915050565b60006129928284612955565b915081905092915050565b7f54686520746f6b656e205552492073686f756c6420626520756e697175650000600082015250565b60006129d3601e83611eea565b91506129de8261299d565b602082019050919050565b60006020820190508181036000830152612a02816129c6565b9050919050565b7f4552433732313a2062616c616e636520717565727920666f7220746865207a6560008201527f726f206164647265737300000000000000000000000000000000000000000000602082015250565b6000612a65602a83611eea565b9150612a7082612a09565b604082019050919050565b60006020820190508181036000830152612a9481612a58565b9050919050565b7f4552433732313a20617070726f766520746f2063616c6c657200000000000000600082015250565b6000612ad1601983611eea565b9150612adc82612a9b565b602082019050919050565b60006020820190508181036000830152612b0081612ac4565b9050919050565b7f4552433732314d657461646174613a2055524920717565727920666f72206e6f60008201527f6e6578697374656e7420746f6b656e0000000000000000000000000000000000602082015250565b6000612b63602f83611eea565b9150612b6e82612b07565b604082019050919050565b60006020820190508181036000830152612b9281612b56565b9050919050565b7f4552433732313a206f70657261746f7220717565727920666f72206e6f6e657860008201527f697374656e7420746f6b656e0000000000000000000000000000000000000000602082015250565b6000612bf5602c83611eea565b9150612c0082612b99565b604082019050919050565b60006020820190508181036000830152612c2481612be8565b9050919050565b7f4552433732313a207472616e73666572206f6620746f6b656e2074686174206960008201527f73206e6f74206f776e0000000000000000000000000000000000000000000000602082015250565b6000612c87602983611eea565b9150612c9282612c2b565b604082019050919050565b60006020820190508181036000830152612cb681612c7a565b9050919050565b7f4552433732313a207472616e7366657220746f20746865207a65726f2061646460008201527f7265737300000000000000000000000000000000000000000000000000000000602082015250565b6000612d19602483611eea565b9150612d2482612cbd565b604082019050919050565b60006020820190508181036000830152612d4881612d0c565b9050919050565b7f4e487b7100000000000000000000000000000000000000000000000000000000600052601160045260246000fd5b6000612d8982611f9a565b9150612d9483611f9a565b925082821015612da757612da6612d4f565b5b828203905092915050565b6000612dbd82611f9a565b9150612dc883611f9a565b9250827fffffffffffffffffffffffffffffffffffffffffffffffffffffffffffffffff03821115612dfd57612dfc612d4f565b5b828201905092915050565b7f4552433732313a207472616e7366657220746f206e6f6e20455243373231526560008201527f63656976657220696d706c656d656e7465720000000000000000000000000000602082015250565b6000612e64603283611eea565b9150612e6f82612e08565b604082019050919050565b60006020820190508181036000830152612e9381612e57565b9050919050565b600081519050919050565b600082825260208201905092915050565b6000612ec182612e9a565b612ecb8185612ea5565b9350612edb818560208601611efb565b612ee481611f2e565b840191505092915050565b6000608082019050612f04600083018761202f565b612f11602083018661202f565b612f1e60408301856120c5565b8181036060830152612f308184612eb6565b905095945050505050565b600081519050612f4a81611e50565b92915050565b600060208284031215612f6657612f65611e1a565b5b6000612f7484828501612f3b565b91505092915050565b7f4552433732313a206d696e7420746f20746865207a65726f2061646472657373600082015250565b6000612fb3602083611eea565b9150612fbe82612f7d565b602082019050919050565b60006020820190508181036000830152612fe281612fa6565b9050919050565b7f4552433732313a20746f6b656e20616c7265616479206d696e74656400000000600082015250565b600061301f601c83611eea565b915061302a82612fe9565b602082019050919050565b6000602082019050818103600083015261304e81613012565b9050919050565b7f4e487b7100000000000000000000000000000000000000000000000000000000600052603160045260246000fdfea2646970667358221220e7a821a0fae347dde42a4c12364a003f5899f1e858702fb7a486fc137272b2b964736f6c634300080e0033",
  "immutableReferences": {},
  "source": "// SPDX-License-Identifier: MIT\r\npragma solidity ^0.8.0;\r\n\r\n// import \"@openzeppelin/contracts/access/Ownable.sol\";\r\nimport \"@openzeppelin/contracts/utils/math/SafeMath.sol\";\r\nimport \"./NFTCollection.sol\";\r\n\r\ncontract Marketplace {\r\n    using SafeMath for uint256;\r\n\r\n    // Ownable: to handle fees and withdraw\r\n\r\n    // Actions:\r\n    // Deploy Collection (fee)\r\n    // Submit offer\r\n    // Cancel offer\r\n    // Bid - use time-machine\r\n    // Finish offer (fee)\r\n\r\n    // Fees\r\n    // TODO : ask about fees decimal value\r\n    uint256 public constant FEE_COLLECTION_CREATE = 200; // TODO : Ask for best practices\r\n    uint256 public constant FEE_SELL = 100;\r\n\r\n    // Enums\r\n    enum AuctionType {\r\n        FixedPrice,\r\n        Dutch,\r\n        English\r\n    }\r\n\r\n    enum AuctionStatus {\r\n        Approved, // ready for use\r\n        Running, // in progress\r\n        Closed, // closed with no buyer, need to revert funds\r\n        Finished, // finished with buyer, need to revert funds\r\n        Cancelled // canceled by seller, need to revert funds\r\n    }\r\n\r\n    // Definitions\r\n    struct AuctionItem {\r\n        address ownerAddress;\r\n        address collectionAddress;\r\n        uint256 auctionId; // auction Id, is generated\r\n        uint256 id; // token Id, is given\r\n        uint256 buyItNowPrice; // buy now buyItNowPrice in case of type FixedPrice. Zero means - no buy now. Mandatory if Fixed price\r\n        uint256 reservedPrice; // buy out price below which the sell cannot happend (not used for now)\r\n        uint256 initialPrice; // starting auction price (not used for now)\r\n        uint256 minBidStep; // minimum allowed bid step. Zero means - no min (not used for now)\r\n        uint256 maxBidStep; // maximum allowed bid step. Zero means - no max (not used for now)\r\n        AuctionStatus auctionStatus;\r\n        AuctionType auctionType;\r\n    }\r\n\r\n    struct CollectionItem {\r\n        uint256 collectionId;\r\n        address collectionAddress; // ERC721 token of the collection\r\n        address ownerAddress;\r\n        bool isUserCollection; // Describes whenever the collection is created by user\r\n    }\r\n\r\n    // properties\r\n    mapping(address => uint256) public userFunds; // contains funds per user generated from sales. Bids will stored in other way\r\n\r\n    // -- Events\r\n    // emitted when an auction is craated\r\n    event onAuctionCreated(uint256 indexed auctionId, uint256 indexed id);\r\n\r\n    // emitted when is cancelled by the seller\r\n    event onAuctionCancelled(uint256 indexed auctionId, uint256 indexed id);\r\n\r\n    // emitted when the acution is finsied with succesfull purchase\r\n    event onAuctionFinished(uint256 indexed auctionId, uint256 indexed id);\r\n\r\n    // emitted when an auction is closed with no buyer\r\n    event onAuctionClosed(uint256 indexed auctionId, uint256 indexed id);\r\n\r\n    // emitted when an user claims his funds\r\n    event onFundsClaimed(address indexed user, uint256 amount);\r\n\r\n    // emitted when a collection is created\r\n    event onCollectionCreated(\r\n        uint256 indexed collectionId,\r\n        address indexed collectionAddress,\r\n        address indexed ownerAddress\r\n    );\r\n    // --\r\n\r\n    // TODO : Optimize field positions\r\n    // -- Auction fields\r\n    AuctionItem[] auctionStore;\r\n    uint256 auctionCount = 0;\r\n    // --\r\n\r\n    // -- Collecction Fields\r\n    // map mgs.sender => (collectionId => isOwner)\r\n    mapping(address => mapping(uint256 => bool)) usercollections;\r\n\r\n    // Array of collection Contracts\r\n    CollectionItem[] collectionStore;\r\n    uint256 collectionCount = 0;\r\n    // --\r\n\r\n    // -- Modifiers\r\n    modifier requireFee(uint256 fee) {\r\n        require(msg.value >= fee, \"Insufficient Funds\");\r\n        _;\r\n    }\r\n\r\n    modifier requireCollectionOwner(uint256 _collectionId) {\r\n        require(\r\n            usercollections[msg.sender][_collectionId],\r\n            \"Not collection owner\"\r\n        );\r\n        _;\r\n    }\r\n\r\n    // --\r\n\r\n    constructor() public {\r\n        // deploy NFT Collection contract\r\n        // add newly deployed contract to collection array\r\n        _createCollection(\"TTM Collection\", \"TTM\", address(this), false);\r\n    }\r\n\r\n    // -- Collection management\r\n    function createCollection(string memory _name, string memory _symbol)\r\n        public\r\n        payable\r\n        requireFee(FEE_COLLECTION_CREATE)\r\n    {\r\n        _createCollection(_name, _symbol, msg.sender, true);\r\n    }\r\n\r\n    function _createCollection(\r\n        string memory _name,\r\n        string memory _symbol,\r\n        address _ownerAddress,\r\n        bool _isUserCollection\r\n    ) internal {\r\n        NFTCollection collectionContract = new NFTCollection(_name, _symbol);\r\n        address _collectionAddress = address(collectionContract);\r\n\r\n        uint256 _collectionId = collectionCount;\r\n        collectionStore.push(\r\n            CollectionItem(\r\n                _collectionId,\r\n                _collectionAddress,\r\n                _ownerAddress,\r\n                _isUserCollection\r\n            )\r\n        );\r\n        collectionCount = collectionCount.add(1);\r\n\r\n        usercollections[_ownerAddress][_collectionId] = true;\r\n\r\n        emit onCollectionCreated(\r\n            _collectionId,\r\n            _collectionAddress,\r\n            _ownerAddress\r\n        );\r\n    }\r\n\r\n    // get all collections\r\n    function getAllCollections() public view returns (CollectionItem[] memory) {\r\n        return collectionStore;\r\n    }\r\n\r\n    // get my collections\r\n    function getMyCollections() public view returns (CollectionItem[] memory) {\r\n        uint256 resultCount;\r\n\r\n        // TODO : Ask for best practices\r\n\r\n        for (uint256 i = 0; i < collectionStore.length; i++) {\r\n            if (collectionStore[i].ownerAddress == msg.sender) {\r\n                resultCount++;\r\n            }\r\n        }\r\n\r\n        CollectionItem[] memory result = new CollectionItem[](resultCount);\r\n        uint256 j;\r\n\r\n        for (uint256 i = 0; i < collectionStore.length; i++) {\r\n            if (collectionStore[i].ownerAddress == msg.sender) {\r\n                result[j] = collectionStore[i];\r\n                j++;\r\n            }\r\n        }\r\n\r\n        return result;\r\n    }\r\n\r\n    // get top collections ???\r\n    // get items for collection (filters) TODO: think of EF like generic logic\r\n    // get top items from collection ???\r\n    // --\r\n\r\n    // -- Auction Management\r\n    function createAuction(\r\n        address _collectionAddress,\r\n        uint256 _id,\r\n        uint256 _buyItNowPrice\r\n    ) public {\r\n        // transfer token to the market (this)\r\n        NFTCollection nftCollection = NFTCollection(_collectionAddress);\r\n        nftCollection.transferFrom(msg.sender, address(this), _id);\r\n\r\n        // the token owner is checked above\r\n\r\n        // create auction\r\n        uint256 _auctionId = auctionCount;\r\n        AuctionItem memory auction;\r\n        auction.ownerAddress = msg.sender;\r\n        auction.collectionAddress = _collectionAddress;\r\n        auction.auctionId = _auctionId;\r\n        auction.id = _id;\r\n        auction.buyItNowPrice = _buyItNowPrice;\r\n        auction.auctionStatus = AuctionStatus.Running;\r\n        auction.auctionType = AuctionType.FixedPrice;\r\n\r\n        auctionStore.push(auction);\r\n\r\n        auctionCount = auctionCount.add(1);\r\n\r\n        emit onAuctionCreated(_auctionId, _id);\r\n    }\r\n\r\n    // cancel auction (auction owner) - handle user funds?\r\n    function cancelAuction(uint256 _auctionId) public {\r\n        AuctionItem storage _auction = auctionStore[_auctionId];\r\n\r\n        require(_auction.auctionId == _auctionId, \"The auction must exist\");\r\n        require(\r\n            _auction.ownerAddress == msg.sender,\r\n            \"The auction can only be canceled by the owner\"\r\n        );\r\n        require(\r\n            _auction.auctionStatus == AuctionStatus.Running,\r\n            \"The auction should be running\"\r\n        );\r\n\r\n        NFTCollection nftCollection = NFTCollection(_auction.collectionAddress);\r\n        nftCollection.transferFrom(address(this), msg.sender, _auction.id);\r\n        _auction.auctionStatus = AuctionStatus.Cancelled;\r\n\r\n        // TODO : Handle bids\r\n\r\n        emit onAuctionCancelled(_auctionId, _auction.id);\r\n    }\r\n\r\n    function getAuctionsForCollection(address _collectionAddress)\r\n        public\r\n        view\r\n        returns (AuctionItem[] memory)\r\n    {\r\n        uint256 resultCount;\r\n\r\n        for (uint256 i = 0; i < auctionStore.length; i++) {\r\n            if (auctionStore[i].collectionAddress == _collectionAddress) {\r\n                resultCount++;\r\n            }\r\n        }\r\n\r\n        AuctionItem[] memory result = new AuctionItem[](resultCount);\r\n        uint256 j;\r\n\r\n        for (uint256 i = 0; i < auctionStore.length; i++) {\r\n            if (auctionStore[i].collectionAddress == _collectionAddress) {\r\n                result[j] = auctionStore[i];\r\n                j++;\r\n            }\r\n        }\r\n\r\n        return result;\r\n    }\r\n\r\n    // --\r\n\r\n    // -- Auction handling\r\n    // elapse ??? possible ReentrancyGuard\r\n    // --\r\n\r\n    // -- Auction actions\r\n    // bid - handle user funds?\r\n    function bid() public payable {\r\n        // not supported\r\n        revert();\r\n        // emit onAuctionBid()\r\n    }\r\n\r\n    // buy it now - handle user funds?\r\n    function buyNowAuction(uint256 _auctionId)\r\n        public\r\n        payable\r\n        requireFee(FEE_SELL)\r\n    {\r\n        AuctionItem storage _auction = auctionStore[_auctionId];\r\n\r\n        require(_auction.auctionId == _auctionId, \"The auction must exist\");\r\n        require(\r\n            _auction.ownerAddress != msg.sender,\r\n            \"The owner of the auction cannot buy it\"\r\n        );\r\n        require(\r\n            _auction.auctionStatus == AuctionStatus.Running,\r\n            \"The auction should be running\"\r\n        );\r\n        require(\r\n            _auction.auctionType == AuctionType.FixedPrice,\r\n            \"The auction status should be running\"\r\n        );\r\n        require(\r\n            _auction.auctionType == AuctionType.FixedPrice,\r\n            \"Only fixed price auctions can be buy it now\"\r\n        );\r\n        require(\r\n            msg.value == _auction.buyItNowPrice + FEE_SELL,\r\n            \"The ETH amount should match with the NFT Price + fee\"\r\n        );\r\n\r\n        NFTCollection nftCollection = NFTCollection(_auction.collectionAddress);\r\n        nftCollection.transferFrom(address(this), msg.sender, _auction.id);\r\n        _auction.auctionStatus = AuctionStatus.Finished;\r\n        userFunds[_auction.ownerAddress] += msg.value;\r\n\r\n        emit onAuctionFinished(_auctionId, _auction.id);\r\n    }\r\n\r\n    // --\r\n\r\n    function claimFunds() public {\r\n        require(\r\n            userFunds[msg.sender] > 0,\r\n            \"This user has no funds to be claimed\"\r\n        );\r\n\r\n        uint256 fundsToClaim = userFunds[msg.sender];\r\n        userFunds[msg.sender] = 0;\r\n        payable(msg.sender).transfer(fundsToClaim);\r\n\r\n        emit onFundsClaimed(msg.sender, fundsToClaim);\r\n    }\r\n\r\n    // Fallback: reverts if Ether is sent to this smart-contract by mistake\r\n    fallback() external {\r\n        revert();\r\n    }\r\n}\r\n",
  "sourcePath": "C:\\github\\trayanm\\TTMMarket\\src\\contracts\\MarketPlace.sol",
  "compiler": {
    "name": "solc",
    "version": "0.8.14+commit.80d49f37.Emscripten.clang"
  },
  "schemaVersion": "3.4.7",
  "updatedAt": "2022-06-06T22:05:56.928Z",
  "networkType": "ethereum",
  "devdoc": {
    "kind": "dev",
    "methods": {},
    "version": 1
  },
  "userdoc": {
    "kind": "user",
    "methods": {},
    "version": 1
  }
}