{
  "contractName": "MarketPlace",
  "abi": [
    {
      "inputs": [],
      "stateMutability": "nonpayable",
      "type": "constructor"
    },
    {
      "anonymous": false,
      "inputs": [
        {
          "indexed": true,
          "internalType": "uint256",
          "name": "auctionId",
          "type": "uint256"
        },
        {
          "indexed": false,
          "internalType": "uint256",
          "name": "bid",
          "type": "uint256"
        }
      ],
      "name": "onAuctionBid",
      "type": "event"
    },
    {
      "anonymous": false,
      "inputs": [
        {
          "indexed": true,
          "internalType": "uint256",
          "name": "auctionId",
          "type": "uint256"
        },
        {
          "indexed": true,
          "internalType": "uint256",
          "name": "tokenId",
          "type": "uint256"
        }
      ],
      "name": "onAuctionCancelled",
      "type": "event"
    },
    {
      "anonymous": false,
      "inputs": [
        {
          "indexed": true,
          "internalType": "uint256",
          "name": "auctionId",
          "type": "uint256"
        },
        {
          "indexed": true,
          "internalType": "uint256",
          "name": "tokenId",
          "type": "uint256"
        }
      ],
      "name": "onAuctionClosed",
      "type": "event"
    },
    {
      "anonymous": false,
      "inputs": [
        {
          "indexed": true,
          "internalType": "uint256",
          "name": "auctionId",
          "type": "uint256"
        },
        {
          "indexed": true,
          "internalType": "uint256",
          "name": "tokenId",
          "type": "uint256"
        }
      ],
      "name": "onAuctionCreated",
      "type": "event"
    },
    {
      "anonymous": false,
      "inputs": [
        {
          "indexed": true,
          "internalType": "uint256",
          "name": "auctionId",
          "type": "uint256"
        },
        {
          "indexed": true,
          "internalType": "uint256",
          "name": "tokenId",
          "type": "uint256"
        }
      ],
      "name": "onAuctionFinished",
      "type": "event"
    },
    {
      "anonymous": false,
      "inputs": [
        {
          "indexed": true,
          "internalType": "uint256",
          "name": "collectionId",
          "type": "uint256"
        },
        {
          "indexed": true,
          "internalType": "address",
          "name": "collectionAddress",
          "type": "address"
        },
        {
          "indexed": true,
          "internalType": "address",
          "name": "ownerAddress",
          "type": "address"
        }
      ],
      "name": "onCollectionCreated",
      "type": "event"
    },
    {
      "anonymous": false,
      "inputs": [
        {
          "indexed": true,
          "internalType": "address",
          "name": "collectionAddress",
          "type": "address"
        },
        {
          "indexed": true,
          "internalType": "uint256",
          "name": "directOfferId",
          "type": "uint256"
        },
        {
          "indexed": true,
          "internalType": "uint256",
          "name": "tokenId",
          "type": "uint256"
        }
      ],
      "name": "onDirectOfferCreated",
      "type": "event"
    },
    {
      "anonymous": false,
      "inputs": [
        {
          "indexed": true,
          "internalType": "address",
          "name": "user",
          "type": "address"
        },
        {
          "indexed": false,
          "internalType": "uint256",
          "name": "amount",
          "type": "uint256"
        }
      ],
      "name": "onFundsClaimed",
      "type": "event"
    },
    {
      "stateMutability": "nonpayable",
      "type": "fallback"
    },
    {
      "inputs": [],
      "name": "FEE_SELL_PERCENTAGE",
      "outputs": [
        {
          "internalType": "uint256",
          "name": "",
          "type": "uint256"
        }
      ],
      "stateMutability": "view",
      "type": "function"
    },
    {
      "inputs": [],
      "name": "MINTER_ROLE",
      "outputs": [
        {
          "internalType": "bytes32",
          "name": "",
          "type": "bytes32"
        }
      ],
      "stateMutability": "view",
      "type": "function"
    },
    {
      "inputs": [
        {
          "internalType": "address",
          "name": "",
          "type": "address"
        }
      ],
      "name": "userFunds",
      "outputs": [
        {
          "internalType": "uint256",
          "name": "",
          "type": "uint256"
        }
      ],
      "stateMutability": "view",
      "type": "function"
    },
    {
      "inputs": [
        {
          "internalType": "address",
          "name": "_collectionAddress",
          "type": "address"
        },
        {
          "internalType": "string",
          "name": "_tokenURI",
          "type": "string"
        }
      ],
      "name": "mint",
      "outputs": [],
      "stateMutability": "nonpayable",
      "type": "function"
    },
    {
      "inputs": [
        {
          "internalType": "string",
          "name": "_name",
          "type": "string"
        },
        {
          "internalType": "string",
          "name": "_symbol",
          "type": "string"
        },
        {
          "internalType": "string",
          "name": "_metaURI",
          "type": "string"
        }
      ],
      "name": "createCollection",
      "outputs": [
        {
          "internalType": "address",
          "name": "",
          "type": "address"
        }
      ],
      "stateMutability": "nonpayable",
      "type": "function"
    },
    {
      "inputs": [
        {
          "internalType": "address",
          "name": "_collectionAddress",
          "type": "address"
        },
        {
          "internalType": "string",
          "name": "_metaURI",
          "type": "string"
        }
      ],
      "name": "importCollection",
      "outputs": [
        {
          "internalType": "address",
          "name": "",
          "type": "address"
        }
      ],
      "stateMutability": "nonpayable",
      "type": "function"
    },
    {
      "inputs": [
        {
          "internalType": "uint256",
          "name": "_collectionId",
          "type": "uint256"
        }
      ],
      "name": "getCollection",
      "outputs": [
        {
          "components": [
            {
              "internalType": "uint256",
              "name": "collectionId",
              "type": "uint256"
            },
            {
              "internalType": "address",
              "name": "collectionAddress",
              "type": "address"
            },
            {
              "internalType": "address",
              "name": "ownerAddress",
              "type": "address"
            },
            {
              "internalType": "string",
              "name": "metaURI",
              "type": "string"
            }
          ],
          "internalType": "struct MarketPlace.CollectionItem",
          "name": "",
          "type": "tuple"
        }
      ],
      "stateMutability": "view",
      "type": "function"
    },
    {
      "inputs": [],
      "name": "getCollectionCount",
      "outputs": [
        {
          "internalType": "uint256",
          "name": "",
          "type": "uint256"
        }
      ],
      "stateMutability": "view",
      "type": "function"
    },
    {
      "inputs": [],
      "name": "getAuctionCount",
      "outputs": [
        {
          "internalType": "uint256",
          "name": "",
          "type": "uint256"
        }
      ],
      "stateMutability": "view",
      "type": "function"
    },
    {
      "inputs": [
        {
          "internalType": "address",
          "name": "_collectionAddress",
          "type": "address"
        },
        {
          "internalType": "uint256",
          "name": "_tokenId",
          "type": "uint256"
        },
        {
          "internalType": "uint256",
          "name": "_initialPrice",
          "type": "uint256"
        },
        {
          "internalType": "uint256",
          "name": "_buyItNowPrice",
          "type": "uint256"
        }
      ],
      "name": "createAuction",
      "outputs": [],
      "stateMutability": "nonpayable",
      "type": "function"
    },
    {
      "inputs": [
        {
          "internalType": "address",
          "name": "collectionAddress",
          "type": "address"
        }
      ],
      "name": "getCollectionAuctions",
      "outputs": [
        {
          "internalType": "uint256[]",
          "name": "",
          "type": "uint256[]"
        }
      ],
      "stateMutability": "view",
      "type": "function"
    },
    {
      "inputs": [
        {
          "internalType": "uint256",
          "name": "_auctionId",
          "type": "uint256"
        }
      ],
      "name": "getAuction",
      "outputs": [
        {
          "components": [
            {
              "internalType": "address",
              "name": "ownerAddress",
              "type": "address"
            },
            {
              "internalType": "address",
              "name": "collectionAddress",
              "type": "address"
            },
            {
              "internalType": "uint256",
              "name": "auctionId",
              "type": "uint256"
            },
            {
              "internalType": "uint256",
              "name": "tokenId",
              "type": "uint256"
            },
            {
              "internalType": "uint256",
              "name": "buyItNowPrice",
              "type": "uint256"
            },
            {
              "internalType": "uint256",
              "name": "initialPrice",
              "type": "uint256"
            },
            {
              "internalType": "enum MarketPlace.AuctionStatus",
              "name": "auctionStatus",
              "type": "uint8"
            }
          ],
          "internalType": "struct MarketPlace.AuctionItem",
          "name": "",
          "type": "tuple"
        }
      ],
      "stateMutability": "view",
      "type": "function"
    },
    {
      "inputs": [
        {
          "internalType": "address",
          "name": "_collectionAddress",
          "type": "address"
        },
        {
          "internalType": "uint256",
          "name": "_tokenId",
          "type": "uint256"
        }
      ],
      "name": "getAuctionBy",
      "outputs": [
        {
          "components": [
            {
              "internalType": "address",
              "name": "ownerAddress",
              "type": "address"
            },
            {
              "internalType": "address",
              "name": "collectionAddress",
              "type": "address"
            },
            {
              "internalType": "uint256",
              "name": "auctionId",
              "type": "uint256"
            },
            {
              "internalType": "uint256",
              "name": "tokenId",
              "type": "uint256"
            },
            {
              "internalType": "uint256",
              "name": "buyItNowPrice",
              "type": "uint256"
            },
            {
              "internalType": "uint256",
              "name": "initialPrice",
              "type": "uint256"
            },
            {
              "internalType": "enum MarketPlace.AuctionStatus",
              "name": "auctionStatus",
              "type": "uint8"
            }
          ],
          "internalType": "struct MarketPlace.AuctionItem",
          "name": "",
          "type": "tuple"
        }
      ],
      "stateMutability": "view",
      "type": "function"
    },
    {
      "inputs": [
        {
          "internalType": "uint256",
          "name": "_auctionId",
          "type": "uint256"
        }
      ],
      "name": "buyNowAuction",
      "outputs": [],
      "stateMutability": "payable",
      "type": "function"
    },
    {
      "inputs": [
        {
          "internalType": "uint256",
          "name": "_auctionId",
          "type": "uint256"
        }
      ],
      "name": "cancelAuction",
      "outputs": [],
      "stateMutability": "nonpayable",
      "type": "function"
    },
    {
      "inputs": [],
      "name": "bid",
      "outputs": [],
      "stateMutability": "payable",
      "type": "function"
    },
    {
      "inputs": [
        {
          "internalType": "address",
          "name": "_collectionAddress",
          "type": "address"
        },
        {
          "internalType": "uint256",
          "name": "_tokenId",
          "type": "uint256"
        },
        {
          "internalType": "uint256",
          "name": "_offeredPrice",
          "type": "uint256"
        }
      ],
      "name": "createDirectOffer",
      "outputs": [],
      "stateMutability": "nonpayable",
      "type": "function"
    },
    {
      "inputs": [
        {
          "internalType": "address",
          "name": "_collectionAddress",
          "type": "address"
        },
        {
          "internalType": "uint256",
          "name": "_tokenId",
          "type": "uint256"
        }
      ],
      "name": "getDirectOffers",
      "outputs": [],
      "stateMutability": "view",
      "type": "function"
    },
    {
      "inputs": [
        {
          "internalType": "uint256",
          "name": "_directOfferId",
          "type": "uint256"
        }
      ],
      "name": "cancelDirectOffer",
      "outputs": [],
      "stateMutability": "nonpayable",
      "type": "function"
    },
    {
      "inputs": [
        {
          "internalType": "uint256",
          "name": "_directOfferId",
          "type": "uint256"
        }
      ],
      "name": "acceptDirectOffer",
      "outputs": [],
      "stateMutability": "nonpayable",
      "type": "function"
    },
    {
      "inputs": [
        {
          "internalType": "uint256",
          "name": "_directOfferId",
          "type": "uint256"
        }
      ],
      "name": "fulfillDirectOffer",
      "outputs": [],
      "stateMutability": "payable",
      "type": "function"
    },
    {
      "inputs": [],
      "name": "claimFunds",
      "outputs": [],
      "stateMutability": "nonpayable",
      "type": "function"
    }
  ],
  "bytecode": "0x608060405234801561001057600080fd5b50614f14806100206000396000f3fe6080604052600436106200016f576000357c01000000000000000000000000000000000000000000000000000000009004806396b5a75511620000d8578063d0def5211162000096578063d0def52114620003bd578063d539139314620003e2578063e324bd1f1462000418578063e5266b66146200042f578063ece86c211462000467578063f36df2fa146200048c576200016f565b806396b5a755146200031d57806399370fea1462000342578063ac3077731462000359578063c44e66401462000371578063c9611ab91462000389576200016f565b80635a1f3c2811620001325780635a1f3c28146200023457806361beb1d714620002685780636b2b1e06146200028d57806378bd793514620002a45780638387c6e114620002c9578063849da0de14620002fa576200016f565b80630c79b9f91462000181578063154e0e0214620001a85780631998aeef14620001e55780631c10106f14620001ee578063230c30a7146200020f575b3480156200017c57600080fd5b600080fd5b3480156200018e57600080fd5b50620001a6620001a036600462001cdc565b620004b1565b005b348015620001b557600080fd5b50620001cd620001c736600462001d0f565b62000726565b604051620001dc919062001d57565b60405180910390f35b620001a6600080fd5b348015620001fb57600080fd5b506000545b604051908152602001620001dc565b3480156200021c57600080fd5b50620001a66200022e36600462001cdc565b6200076c565b3480156200024157600080fd5b50620002596200025336600462001cdc565b6200088d565b604051620001dc919062001e26565b3480156200027557600080fd5b50620001a66200028736600462001e70565b62000997565b620001a66200029e36600462001cdc565b62000dde565b348015620002b157600080fd5b50620001cd620002c336600462001cdc565b62000fd0565b348015620002d657600080fd5b5062000200620002e836600462001eae565b60036020526000908152604090205481565b3480156200030757600080fd5b50620001a66200031936600462001d0f565b5050565b3480156200032a57600080fd5b50620001a66200033c36600462001cdc565b620010a8565b3480156200034f57600080fd5b5062000200600381565b3480156200036657600080fd5b50620001a66200121c565b3480156200037e57600080fd5b50620002006200131d565b3480156200039657600080fd5b50620003ae620003a836600462001eae565b62001329565b604051620001dc919062001ece565b348015620003ca57600080fd5b50620001a6620003dc36600462001fc2565b62001397565b348015620003ef57600080fd5b50620002007f9f2df0fed2c77648de5860a4cc508cd0818c85b8b8a1ab4ceeef8d981c8956a681565b620001a66200042936600462001cdc565b62001432565b3480156200043c57600080fd5b506200044e6200017c36600462001fc2565b604051600160a060020a039091168152602001620001dc565b3480156200047457600080fd5b506200044e6200048636600462002018565b6200174b565b3480156200049957600080fd5b50620001a6620004ab366004620020aa565b620019a6565b600081815260056020526040902060038101548214620004f15760405160e560020a62461bcd028152600401620004e890620020e2565b60405180910390fd5b6000600682015460ff1660038111156200050f576200050f62001d3e565b14620005325760405160e560020a62461bcd028152600401620004e89062002119565b60018101546004808301546040517f6352211e00000000000000000000000000000000000000000000000000000000815291820152600160a060020a03909116908190636352211e90602401602060405180830381865afa1580156200059c573d6000803e3d6000fd5b505050506040513d601f19601f82011682018060405250810190620005c2919062002150565b600160a060020a031633600160a060020a031614620006275760405160e560020a62461bcd02815260206004820152600f60248201527f4e6f7420746f6b656e206f776e657200000000000000000000000000000000006044820152606401620004e8565b6004828101546040517f081812fc00000000000000000000000000000000000000000000000000000000815291820152600160a060020a0382169063081812fc90602401602060405180830381865afa15801562000689573d6000803e3d6000fd5b505050506040513d601f19601f82011682018060405250810190620006af919062002150565b600160a060020a031630600160a060020a031614620007145760405160e560020a62461bcd02815260206004820152601b60248201527f4d61726b6574506c616365206973206e6f7420617070726f76656400000000006044820152606401620004e8565b50600601805460ff1916600117905550565b6200073062001c6c565b600160a060020a03831660009081526009602090815260408083208584529091529020546200075f8162000fd0565b949350505050565b905090565b600081815260056020526040902060038101548214620007a35760405160e560020a62461bcd028152600401620004e890620020e2565b6002810154600160a060020a03163314620008045760405160e560020a62461bcd02815260206004820152601b60248201527f4f6e6c79206f666665722062617965722063616e2063616e63656c00000000006044820152606401620004e8565b6000600682015460ff16600381111562000822576200082262001d3e565b14620008455760405160e560020a62461bcd028152600401620004e89062002119565b60068101805460ff191660031790556001810154600160a060020a03166000908152600a60209081526040808320600490940154835292815282822033835290529081205550565b6040805160808082018352600080835260208084018290528385018290526060808501819052868352600682529185902085519384018652805484526001810154600160a060020a03908116928501929092526002810154909116948301949094526003840180549394929391840191620009089062002170565b80601f0160208091040260200160405190810160405280929190818152602001828054620009369062002170565b8015620009875780601f106200095b5761010080835404028352916020019162000987565b820191906000526020600020905b8154815290600101906020018083116200096957829003601f168201915b5050505050815250509050919050565b836000620009a68385620021c8565b11620009f85760405160e560020a62461bcd02815260206004820152601a60248201527f546f6b656e2050726963652063616e6e6f74206265207a65726f0000000000006044820152606401620004e8565b6040517f6352211e00000000000000000000000000000000000000000000000000000000815260048101859052600160a060020a03821690636352211e90602401602060405180830381865afa15801562000a57573d6000803e3d6000fd5b505050506040513d601f19601f8201168201806040525081019062000a7d919062002150565b600160a060020a031633600160a060020a03161462000ae25760405160e560020a62461bcd02815260206004820152600f60248201527f4e6f7420746f6b656e206f776e657200000000000000000000000000000000006044820152606401620004e8565b6040517f081812fc00000000000000000000000000000000000000000000000000000000815260048101859052600160a060020a0382169063081812fc90602401602060405180830381865afa15801562000b41573d6000803e3d6000fd5b505050506040513d601f19601f8201168201806040525081019062000b67919062002150565b600160a060020a031630600160a060020a03161462000bcc5760405160e560020a62461bcd02815260206004820152601b60248201527f4d61726b6574506c616365206973206e6f7420617070726f76656400000000006044820152606401620004e8565b600160a060020a03851660009081526009602090815260408083208784529091529020541562000c425760405160e560020a62461bcd02815260206004820152601d60248201527f41756374696f6e20666f72207468697320746f6b656e206578697374730000006044820152606401620004e8565b62000c51600180546001019055565b600062000c5d60015490565b90506040518060e0016040528033600160a060020a0316815260200187600160a060020a031681526020018281526020018681526020018481526020018581526020016000600381111562000cb65762000cb662001d3e565b905260008281526004602081815260409283902084518154600160a060020a0391821673ffffffffffffffffffffffffffffffffffffffff1991821617835592860151600180840180549290931691909416179055928401516002840155606084015160038085019190915560808501519284019290925560a0840151600584015560c08401516006840180549193909260ff199092169190849081111562000d635762000d6362001d3e565b02179055505050600160a060020a03861660008181526008602090815260408083208054600181018255908452828420018590559282526009815282822088835290528181208390559051869183917fd086c941db0dfd32e8d65552faa1a349d3c3fc18b2235a0fe20be668c81feee09190a3505050505050565b60008181526005602052604090206003810154821462000e155760405160e560020a62461bcd028152600401620004e890620020e2565b6001600682015460ff16600381111562000e335762000e3362001d3e565b1462000e565760405160e560020a62461bcd028152600401620004e89062002119565b6002810154600160a060020a0316331462000eb75760405160e560020a62461bcd02815260206004820152601d60248201527f4f6e6c79206f666665722062617965722063616e2066756c6c66696c6c0000006044820152606401620004e8565b600181015481546004808401546040517f23b872dd000000000000000000000000000000000000000000000000000000008152600160a060020a0393841692810192909252336024830152604482015291169081906323b872dd90606401600060405180830381600087803b15801562000f3057600080fd5b505af115801562000f45573d6000803e3d6000fd5b5050505060068201805460ff19166002179055600062000f74606462000f6d34600362001c2d565b9062001c42565b9050600062000f84348362001c50565b8454600160a060020a031660009081526003602052604090205490915062000fad908262001c5e565b9354600160a060020a031660009081526003602052604090209390935550505050565b62000fda62001c6c565b6000828152600460208181526040808420815160e0810183528154600160a060020a039081168252600183015416938101939093526002810154918301919091526003808201546060840152928101546080830152600581015460a083015260068101549192909160c084019160ff909116908111156200105f576200105f62001d3e565b600381111562001073576200107362001d3e565b81525050905082816040015114620010a25760405160e560020a62461bcd028152600401620004e890620021e3565b92915050565b600081815260046020526040902060028101548214620010df5760405160e560020a62461bcd028152600401620004e890620021e3565b8054600160a060020a031633146200113d5760405160e560020a62461bcd02815260206004820152601d60248201527f4f6e6c792061756374696f6e206f776e65722063616e2063616e63656c0000006044820152606401620004e8565b6000600682015460ff1660038111156200115b576200115b62001d3e565b14620011ad5760405160e560020a62461bcd02815260206004820152601660248201527f41756374696f6e206973206e6f742072756e6e696e67000000000000000000006044820152606401620004e8565b60068101805460ff191660039081179091556001820154600160a060020a0316600090815260096020908152604080832093850180548452939091528082208290559154915184917f9c31dd0dfb89b9b275633c46be4dc396661364ff715b47b8ae06201681e7ebc391a35050565b33600090815260036020526040902054620012a25760405160e560020a62461bcd028152602060048201526024808201527f54686973207573657220686173206e6f2066756e647320746f20626520636c6160448201527f696d6564000000000000000000000000000000000000000000000000000000006064820152608401620004e8565b33600081815260036020526040808220805490839055905190929183156108fc02918491818181858888f19350505050158015620012e4573d6000803e3d6000fd5b5060405181815233907f1c355404524eaedf23f07edd324a42ac9a04ef403aa580df4c39547b42566d8f9060200160405180910390a250565b60006200076760015490565b600160a060020a0381166000908152600860209081526040918290208054835181840281018401909452808452606093928301828280156200138b57602002820191906000526020600020905b81548152602001906001019080831162001376575b50505050509050919050565b6040517f6c6ad2420000000000000000000000000000000000000000000000000000000081528290600090600160a060020a03831690636c6ad24290620013e590339087906004016200221a565b6020604051808303816000875af115801562001405573d6000803e3d6000fd5b505050506040513d601f19601f820116820180604052508101906200142b91906200223e565b5050505050565b600081815260046020526040902060028101548214620014695760405160e560020a62461bcd028152600401620004e890620021e3565b805433600160a060020a0390911603620014c95760405160e560020a62461bcd02815260206004820152601b60248201527f41756374696f6e206f776e65722063616e6e6f742062757920697400000000006044820152606401620004e8565b6000600682015460ff166003811115620014e757620014e762001d3e565b14620015395760405160e560020a62461bcd02815260206004820152601660248201527f41756374696f6e206973206e6f742072756e6e696e67000000000000000000006044820152606401620004e8565b6000816004015411620015925760405160e560020a62461bcd02815260206004820152601660248201527f427579206e6f77206973206e6f7420616c6c6f776564000000000000000000006044820152606401620004e8565b80600401543414620015ea5760405160e560020a62461bcd02815260206004820152601860248201527f427579206e6f77207072696365206973206772656174657200000000000000006044820152606401620004e8565b6001810154815460038301546040517f23b872dd000000000000000000000000000000000000000000000000000000008152600160a060020a039283166004820152336024820152604481019190915291169081906323b872dd90606401600060405180830381600087803b1580156200166357600080fd5b505af115801562001678573d6000803e3d6000fd5b5050505060068201805460ff191660021790556000620016a0606462000f6d34600362001c2d565b90506000620016b0348362001c50565b8454600160a060020a0316600090815260036020526040902054909150620016d9908262001c5e565b8454600160a060020a0390811660009081526003602081815260408084209590955560018901549093168252600983528382209088018054835292528281208190559054915187917fac764b5e3093df07973820131c91169ffd8ac85fd2f8f7329bb83e8ba6299e7291a35050505050565b60008084846040516200175e9062001cce565b6200176b9291906200237e565b604051809103906000f08015801562001788573d6000803e3d6000fd5b506040517f2f2ff15d0000000000000000000000000000000000000000000000000000000081527f9f2df0fed2c77648de5860a4cc508cd0818c85b8b8a1ab4ceeef8d981c8956a66004820152336024820152909150600160a060020a03821690632f2ff15d90604401600060405180830381600087803b1580156200180d57600080fd5b505af115801562001822573d6000803e3d6000fd5b50506040517fa22cb46500000000000000000000000000000000000000000000000000000000815233600482015260016024820152600160a060020a038416925063a22cb4659150604401600060405180830381600087803b1580156200188857600080fd5b505af11580156200189d573d6000803e3d6000fd5b5050600080546001019055508190506000805460408051608081018252828152600160a060020a03808616602080840191825233848601908152606085018c8152600088815260069093529590912084518155915160018301805491851673ffffffffffffffffffffffffffffffffffffffff199283161790559051600283018054919094169116179091559151929350916003820190620019409082620022ab565b5050336000818152600760209081526040808320868452909152808220805460ff1916600117905551919250600160a060020a0385169184917fecbe631ce73f784b71c74c5339317b59e203e339d6773c02526891b8063931c091a45095945050505050565b6040517f6352211e000000000000000000000000000000000000000000000000000000008152600481018390528390600090600160a060020a03831690636352211e90602401602060405180830381865afa15801562001a0a573d6000803e3d6000fd5b505050506040513d601f19601f8201168201806040525081019062001a30919062002150565b9050600160a060020a038116330362001a8f5760405160e560020a62461bcd02815260206004820152601360248201527f416c726561647920746f6b656e206f776e6572000000000000000000000000006044820152606401620004e8565b62001a9e600280546001019055565b600062001aaa60025490565b90506040518060e0016040528083600160a060020a0316815260200187600160a060020a0316815260200133600160a060020a031681526020018281526020018681526020018581526020016000600381111562001b0c5762001b0c62001d3e565b90526000828152600560208181526040928390208451815473ffffffffffffffffffffffffffffffffffffffff19908116600160a060020a0392831617835592860151600180840180548616928416929092179091559486015160028301805490941691161790915560608401516003808301919091556080850151600483015560a08501519282019290925560c084015160068201805492949193909260ff19169190849081111562001bc45762001bc462001d3e565b02179055505050600160a060020a0386166000818152600a602090815260408083208984528252808320338452909152808220849055518792849290917f168958fe108a35ac2d5098bfe716f8f945da4c3603475faa4c092cf486d83f1c9190a4505050505050565b600062001c3b8284620023b0565b9392505050565b600062001c3b8284620023d2565b600062001c3b8284620023f8565b600062001c3b8284620021c8565b6040518060e001604052806000600160a060020a031681526020016000600160a060020a03168152602001600081526020016000815260200160008152602001600081526020016000600381111562001cc95762001cc962001d3e565b905290565b612acc806200241383390190565b60006020828403121562001cef57600080fd5b5035919050565b600160a060020a038116811462001d0c57600080fd5b50565b6000806040838503121562001d2357600080fd5b823562001d308162001cf6565b946020939093013593505050565b60e060020a634e487b7102600052602160045260246000fd5b600060e082019050600160a060020a038084511683528060208501511660208401525060408301516040830152606083015160608301526080830151608083015260a083015160a083015260c08301516004811062001dc95760e060020a634e487b7102600052602160045260246000fd5b8060c08401525092915050565b6000815180845260005b8181101562001dfe5760208185018101518683018201520162001de0565b8181111562001e11576000602083870101525b50601f01601f19169290920160200192915050565b602081528151602082015260006020830151600160a060020a038082166040850152806040860151166060850152505060608301516080808401526200075f60a084018262001dd6565b6000806000806080858703121562001e8757600080fd5b843562001e948162001cf6565b966020860135965060408601359560600135945092505050565b60006020828403121562001ec157600080fd5b813562001c3b8162001cf6565b6020808252825182820181905260009190848201906040850190845b8181101562001f085783518352928401929184019160010162001eea565b50909695505050505050565b60e060020a634e487b7102600052604160045260246000fd5b600082601f83011262001f3f57600080fd5b813567ffffffffffffffff8082111562001f5d5762001f5d62001f14565b604051601f8301601f19908116603f0116810190828211818310171562001f885762001f8862001f14565b8160405283815286602085880101111562001fa257600080fd5b836020870160208301376000602085830101528094505050505092915050565b6000806040838503121562001fd657600080fd5b823562001fe38162001cf6565b9150602083013567ffffffffffffffff8111156200200057600080fd5b6200200e8582860162001f2d565b9150509250929050565b6000806000606084860312156200202e57600080fd5b833567ffffffffffffffff808211156200204757600080fd5b620020558783880162001f2d565b945060208601359150808211156200206c57600080fd5b6200207a8783880162001f2d565b935060408601359150808211156200209157600080fd5b50620020a08682870162001f2d565b9150509250925092565b600080600060608486031215620020c057600080fd5b8335620020cd8162001cf6565b95602085013595506040909401359392505050565b60208082526015908201527f4f6666657220646f6573206e6f74206578697374730000000000000000000000604082015260600190565b60208082526011908201527f4f66666572206973206e6f74206f70656e000000000000000000000000000000604082015260600190565b6000602082840312156200216357600080fd5b815162001c3b8162001cf6565b6002810460018216806200218557607f821691505b602082108103620021a95760e060020a634e487b7102600052602260045260246000fd5b50919050565b60e060020a634e487b7102600052601160045260246000fd5b60008219821115620021de57620021de620021af565b500190565b60208082526017908201527f41756374696f6e20646f6573206e6f7420657869737473000000000000000000604082015260600190565b600160a060020a03831681526040602082015260006200075f604083018462001dd6565b6000602082840312156200225157600080fd5b5051919050565b601f821115620022a6576000818152602081206020601f86010481016020861015620022815750805b6020601f860104820191505b81811015620022a2578281556001016200228d565b5050505b505050565b815167ffffffffffffffff811115620022c857620022c862001f14565b620022e081620022d9845462002170565b8462002258565b602080601f8311600181146200231c5760008415620022ff5750858301515b60028086026008870290910a6000190419821617865550620022a2565b600085815260208120601f198616915b828110156200234d578886015182559484019460019091019084016200232c565b50858210156200236e57878501516008601f88160260020a60001904191681555b5050505050600202600101905550565b60408152600062002393604083018562001dd6565b8281036020840152620023a7818562001dd6565b95945050505050565b6000816000190483118215151615620023cd57620023cd620021af565b500290565b600082620023f35760e060020a634e487b7102600052601260045260246000fd5b500490565b6000828210156200240d576200240d620021af565b50039056fe60806040523480156200001157600080fd5b5060405162002acc38038062002acc83398101604081905262000034916200028c565b818160006200004483826200039e565b5060016200005382826200039e565b506200008091506000905062000071640100000000620000c0810204565b640100000000620000c4810204565b620000b87f9f2df0fed2c77648de5860a4cc508cd0818c85b8b8a1ab4ceeef8d981c8956a662000071640100000000620000c0810204565b505062000470565b3390565b620000d98282640100000000620000dd810204565b5050565b620000f282826401000000006200017b810204565b620000d9576000828152600a60209081526040808320600160a060020a03851684529091529020805460ff1916600117905562000137640100000000620000c0810204565b600160a060020a031681600160a060020a0316837f2f8788117e7eff1d82e926ec794901d17c78024a50270940304540a733656f0d60405160405180910390a45050565b6000918252600a60209081526040808420600160a060020a0393909316845291905290205460ff1690565b7f4e487b7100000000000000000000000000000000000000000000000000000000600052604160045260246000fd5b600082601f830112620001e757600080fd5b81516001604060020a0380821115620002045762000204620001a6565b604051601f8301601f19908116603f011681019082821181831017156200022f576200022f620001a6565b816040528381526020925086838588010111156200024c57600080fd5b600091505b8382101562000270578582018301518183018401529082019062000251565b83821115620002825760008385830101525b9695505050505050565b60008060408385031215620002a057600080fd5b82516001604060020a0380821115620002b857600080fd5b620002c686838701620001d5565b93506020850151915080821115620002dd57600080fd5b50620002ec85828601620001d5565b9150509250929050565b6002810460018216806200030b57607f821691505b60208210810362000345577f4e487b7100000000000000000000000000000000000000000000000000000000600052602260045260246000fd5b50919050565b601f82111562000399576000818152602081206020601f86010481016020861015620003745750805b6020601f860104820191505b81811015620003955782815560010162000380565b5050505b505050565b81516001604060020a03811115620003ba57620003ba620001a6565b620003d281620003cb8454620002f6565b846200034b565b602080601f8311600181146200040e5760008415620003f15750858301515b60028086026008870290910a600019041982161786555062000395565b600085815260208120601f198616915b828110156200043f578886015182559484019460019091019084016200041e565b50858210156200046057878501516008601f88160260020a60001904191681555b5050505050600202600101905550565b61264c80620004806000396000f3fe608060405234801561001057600080fd5b50600436106101c6576000357c010000000000000000000000000000000000000000000000000000000090048063695850fb11610116578063a22cb465116100b4578063c87b56dd1161008e578063c87b56dd146103aa578063d5391393146103bd578063d547741f146103d2578063e985e9c5146103e557600080fd5b8063a22cb46514610371578063b88d4fde14610384578063c2ba47441461039757600080fd5b806370a08231116100f057806370a082311461033b57806391d148541461034e57806395d89b4114610361578063a217fddf1461036957600080fd5b8063695850fb146103025780636c6ad242146103155780636c8b703f1461032857600080fd5b8063248a9ca31161018357806336568abe1161015d57806336568abe146102b657806342842e0e146102c95780634f6ccce7146102dc5780636352211e146102ef57600080fd5b8063248a9ca31461026d5780632f2ff15d146102905780632f745c59146102a357600080fd5b806301ffc9a7146101cb57806306fdde03146101f3578063081812fc14610208578063095ea7b31461023357806318160ddd1461024857806323b872dd1461025a575b600080fd5b6101de6101d9366004611e6a565b610421565b60405190151581526020015b60405180910390f35b6101fb610432565b6040516101ea9190611edf565b61021b610216366004611ef2565b6104c4565b604051600160a060020a0390911681526020016101ea565b610246610241366004611f27565b610572565b005b6008545b6040519081526020016101ea565b610246610268366004611f51565b6106a9565b61024c61027b366004611ef2565b6000908152600a602052604090206001015490565b61024661029e366004611f8d565b6106dd565b61024c6102b1366004611f27565b610702565b6102466102c4366004611f8d565b6107ad565b6102466102d7366004611f51565b61083c565b61024c6102ea366004611ef2565b610857565b61021b6102fd366004611ef2565b6108fe565b61024c610310366004612068565b61098c565b61024c61032336600461209d565b610ad3565b6101fb610336366004611ef2565b610caa565b61024c6103493660046120eb565b610d56565b6101de61035c366004611f8d565b610df3565b6101fb610e1e565b61024c600081565b61024661037f366004612106565b610e2d565b610246610392366004612142565b610e38565b6101de6103a53660046120eb565b610e73565b6101fb6103b8366004611ef2565b610e8d565b61024c6000805160206125f783398151915281565b6102466103e0366004611f8d565b610fbb565b6101de6103f33660046121be565b600160a060020a03918216600090815260056020908152604080832093909416825291909152205460ff1690565b600061042c82610fe0565b92915050565b606060008054610441906121e8565b80601f016020809104026020016040519081016040528092919081815260200182805461046d906121e8565b80156104ba5780601f1061048f576101008083540402835291602001916104ba565b820191906000526020600020905b81548152906001019060200180831161049d57829003601f168201915b5050505050905090565b600081815260026020526040812054600160a060020a03166105565760405160e560020a62461bcd02815260206004820152602c60248201527f4552433732313a20617070726f76656420717565727920666f72206e6f6e657860448201527f697374656e7420746f6b656e000000000000000000000000000000000000000060648201526084015b60405180910390fd5b50600090815260046020526040902054600160a060020a031690565b600061057d826108fe565b905080600160a060020a031683600160a060020a0316036106095760405160e560020a62461bcd02815260206004820152602160248201527f4552433732313a20617070726f76616c20746f2063757272656e74206f776e6560448201527f7200000000000000000000000000000000000000000000000000000000000000606482015260840161054d565b33600160a060020a0382161480610625575061062581336103f3565b61069a5760405160e560020a62461bcd02815260206004820152603860248201527f4552433732313a20617070726f76652063616c6c6572206973206e6f74206f7760448201527f6e6572206e6f7220617070726f76656420666f7220616c6c0000000000000000606482015260840161054d565b6106a4838361101e565b505050565b6106b33382611099565b6106d25760405160e560020a62461bcd02815260040161054d90612225565b6106a48383836111a4565b6000828152600a60205260409020600101546106f88161138f565b6106a4838361139c565b600061070d83610d56565b82106107845760405160e560020a62461bcd02815260206004820152602b60248201527f455243373231456e756d657261626c653a206f776e657220696e646578206f7560448201527f74206f6620626f756e6473000000000000000000000000000000000000000000606482015260840161054d565b50600160a060020a03919091166000908152600660209081526040808320938352929052205490565b600160a060020a038116331461082e5760405160e560020a62461bcd02815260206004820152602f60248201527f416363657373436f6e74726f6c3a2063616e206f6e6c792072656e6f756e636560448201527f20726f6c657320666f722073656c660000000000000000000000000000000000606482015260840161054d565b6108388282611422565b5050565b6106a483838360405180602001604052806000815250610e38565b600061086260085490565b82106108d95760405160e560020a62461bcd02815260206004820152602c60248201527f455243373231456e756d657261626c653a20676c6f62616c20696e646578206f60448201527f7574206f6620626f756e64730000000000000000000000000000000000000000606482015260840161054d565b600882815481106108ec576108ec612282565b90600052602060002001549050919050565b600081815260026020526040812054600160a060020a03168061042c5760405160e560020a62461bcd02815260206004820152602960248201527f4552433732313a206f776e657220717565727920666f72206e6f6e657869737460448201527f656e7420746f6b656e0000000000000000000000000000000000000000000000606482015260840161054d565b60006109a66000805160206125f783398151915233610df3565b6109c55760405160e560020a62461bcd02815260040161054d9061229b565b600c826040516109d591906122f8565b9081526040519081900360200190205460ff1615610a385760405160e560020a62461bcd02815260206004820152601e60248201527f54686520746f6b656e205552492073686f756c6420626520756e697175650000604482015260640161054d565b600b80546001810182556000919091527f0175b7a638427703f0dbe7bb9bbf987a2551717b34e79f33b5b1008d1fa01db901610a748382612362565b50600b546000818152600d60205260409020610a908482612362565b50610a9b3382611489565b6001600c84604051610aad91906122f8565b908152604051908190036020019020805491151560ff1990921691909117905592915050565b6000610adf8133610df3565b610b545760405160e560020a62461bcd02815260206004820152603c60248201527f4552433732315072657365744d696e7465725061757365724175746f49643a2060448201527f6d75737420686176652061646d696e20726f6c6520746f206d696e7400000000606482015260840161054d565b610b6c6000805160206125f783398151915233610df3565b610b8b5760405160e560020a62461bcd02815260040161054d9061229b565b600c82604051610b9b91906122f8565b9081526040519081900360200190205460ff1615610bfe5760405160e560020a62461bcd02815260206004820152601e60248201527f54686520746f6b656e205552492073686f756c6420626520756e697175650000604482015260640161054d565b600b80546001810182556000919091527f0175b7a638427703f0dbe7bb9bbf987a2551717b34e79f33b5b1008d1fa01db901610c3a8382612362565b50600b546000818152600d60205260409020610c568482612362565b50610c6184826114a3565b6001600c84604051610c7391906122f8565b908152604051908190036020019020805491151560ff19909216919091179055610ca3610c9d3390565b8261101e565b9392505050565b600b8181548110610cba57600080fd5b906000526020600020016000915090508054610cd5906121e8565b80601f0160208091040260200160405190810160405280929190818152602001828054610d01906121e8565b8015610d4e5780601f10610d2357610100808354040283529160200191610d4e565b820191906000526020600020905b815481529060010190602001808311610d3157829003601f168201915b505050505081565b6000600160a060020a038216610dd75760405160e560020a62461bcd02815260206004820152602a60248201527f4552433732313a2062616c616e636520717565727920666f7220746865207a6560448201527f726f206164647265737300000000000000000000000000000000000000000000606482015260840161054d565b50600160a060020a031660009081526003602052604090205490565b6000918252600a60209081526040808420600160a060020a0393909316845291905290205460ff1690565b606060018054610441906121e8565b610838338383611604565b610e423383611099565b610e615760405160e560020a62461bcd02815260040161054d90612225565b610e6d848484846116d5565b50505050565b600061042c6000805160206125f783398151915283610df3565b600081815260026020526040902054606090600160a060020a0316610f1d5760405160e560020a62461bcd02815260206004820152602f60248201527f4552433732314d657461646174613a2055524920717565727920666f72206e6f60448201527f6e6578697374656e7420746f6b656e0000000000000000000000000000000000606482015260840161054d565b6000828152600d602052604090208054610f36906121e8565b80601f0160208091040260200160405190810160405280929190818152602001828054610f62906121e8565b8015610faf5780601f10610f8457610100808354040283529160200191610faf565b820191906000526020600020905b815481529060010190602001808311610f9257829003601f168201915b50505050509050919050565b6000828152600a6020526040902060010154610fd68161138f565b6106a48383611422565b6000600160e060020a031982167f7965db0b00000000000000000000000000000000000000000000000000000000148061042c575061042c8261170b565b6000818152600460205260409020805473ffffffffffffffffffffffffffffffffffffffff1916600160a060020a0384169081179091558190611060826108fe565b600160a060020a03167f8c5be1e5ebec7d5bd14f71427d1e84f3dd0314c0f7b2291e5b200ac8c7c3b92560405160405180910390a45050565b600081815260026020526040812054600160a060020a03166111265760405160e560020a62461bcd02815260206004820152602c60248201527f4552433732313a206f70657261746f7220717565727920666f72206e6f6e657860448201527f697374656e7420746f6b656e0000000000000000000000000000000000000000606482015260840161054d565b6000611131836108fe565b905080600160a060020a031684600160a060020a031614806111785750600160a060020a0380821660009081526005602090815260408083209388168352929052205460ff165b8061119c575083600160a060020a0316611191846104c4565b600160a060020a0316145b949350505050565b82600160a060020a03166111b7826108fe565b600160a060020a0316146112365760405160e560020a62461bcd02815260206004820152602560248201527f4552433732313a207472616e736665722066726f6d20696e636f72726563742060448201527f6f776e6572000000000000000000000000000000000000000000000000000000606482015260840161054d565b600160a060020a0382166112b45760405160e560020a62461bcd028152602060048201526024808201527f4552433732313a207472616e7366657220746f20746865207a65726f2061646460448201527f7265737300000000000000000000000000000000000000000000000000000000606482015260840161054d565b6112bf838383611749565b6112ca60008261101e565b600160a060020a03831660009081526003602052604081208054600192906112f3908490612441565b9091555050600160a060020a0382166000908152600360205260408120805460019290611321908490612458565b9091555050600081815260026020526040808220805473ffffffffffffffffffffffffffffffffffffffff1916600160a060020a0386811691821790925591518493918716917fddf252ad1be2c89b69c2b068fc378daa952ba7f163c4a11628f55a4df523b3ef91a4505050565b6113998133611754565b50565b6113a68282610df3565b610838576000828152600a60209081526040808320600160a060020a03851684529091529020805460ff191660011790556113de3390565b600160a060020a031681600160a060020a0316837f2f8788117e7eff1d82e926ec794901d17c78024a50270940304540a733656f0d60405160405180910390a45050565b61142c8282610df3565b15610838576000828152600a60209081526040808320600160a060020a0385168085529252808320805460ff1916905551339285917ff6391f5c32d9c69d2a47ea670b442974b53935d1edc7fd64eb21e047a839171b9190a45050565b6108388282604051806020016040528060008152506117bb565b600160a060020a0382166114fc5760405160e560020a62461bcd02815260206004820181905260248201527f4552433732313a206d696e7420746f20746865207a65726f2061646472657373604482015260640161054d565b600081815260026020526040902054600160a060020a0316156115645760405160e560020a62461bcd02815260206004820152601c60248201527f4552433732313a20746f6b656e20616c7265616479206d696e74656400000000604482015260640161054d565b61157060008383611749565b600160a060020a0382166000908152600360205260408120805460019290611599908490612458565b9091555050600081815260026020526040808220805473ffffffffffffffffffffffffffffffffffffffff1916600160a060020a03861690811790915590518392907fddf252ad1be2c89b69c2b068fc378daa952ba7f163c4a11628f55a4df523b3ef908290a45050565b81600160a060020a031683600160a060020a0316036116685760405160e560020a62461bcd02815260206004820152601960248201527f4552433732313a20617070726f766520746f2063616c6c657200000000000000604482015260640161054d565b600160a060020a03838116600081815260056020908152604080832094871680845294825291829020805460ff191686151590811790915591519182527f17307eab39ab6107e8899845ad3d59bd9653f200f220920489ca2b5937696c31910160405180910390a3505050565b6116e08484846111a4565b6116ec848484846117f1565b610e6d5760405160e560020a62461bcd02815260040161054d90612470565b6000600160e060020a031982167f780e9d6300000000000000000000000000000000000000000000000000000000148061042c575061042c82611927565b6106a48383836119c2565b61175e8282610df3565b6108385761177681600160a060020a03166014611a7a565b611781836020611a7a565b6040516020016117929291906124cd565b60408051601f198184030181529082905260e560020a62461bcd02825261054d91600401611edf565b6117c583836114a3565b6117d260008484846117f1565b6106a45760405160e560020a62461bcd02815260040161054d90612470565b6000600160a060020a0384163b1561191c576040517f150b7a02000000000000000000000000000000000000000000000000000000008152600160a060020a0385169063150b7a029061184e90339089908890889060040161254e565b6020604051808303816000875af1925050508015611889575060408051601f3d908101601f191682019092526118869181019061258a565b60015b6118e9573d8080156118b7576040519150601f19603f3d011682016040523d82523d6000602084013e6118bc565b606091505b5080516000036118e15760405160e560020a62461bcd02815260040161054d90612470565b805181602001fd5b600160e060020a0319167f150b7a020000000000000000000000000000000000000000000000000000000014905061119c565b506001949350505050565b6000600160e060020a031982167f80ac58cd00000000000000000000000000000000000000000000000000000000148061198a5750600160e060020a031982167f5b5e139f00000000000000000000000000000000000000000000000000000000145b8061042c57507f01ffc9a700000000000000000000000000000000000000000000000000000000600160e060020a031983161461042c565b600160a060020a038316611a1d57611a1881600880546000838152600960205260408120829055600182018355919091527ff3f7a9fe364faab93b216da50a3214154f22a0a2b415b23a84c8169e8b636ee30155565b611a40565b81600160a060020a031683600160a060020a031614611a4057611a408382611cc4565b600160a060020a038216611a57576106a481611d61565b82600160a060020a031682600160a060020a0316146106a4576106a48282611e10565b60606000611a898360026125a7565b611a94906002612458565b67ffffffffffffffff811115611aac57611aac611fb9565b6040519080825280601f01601f191660200182016040528015611ad6576020820181803683370190505b5090507f300000000000000000000000000000000000000000000000000000000000000081600081518110611b0d57611b0d612282565b60200101907effffffffffffffffffffffffffffffffffffffffffffffffffffffffffffff1916908160001a9053507f780000000000000000000000000000000000000000000000000000000000000081600181518110611b7057611b70612282565b60200101907effffffffffffffffffffffffffffffffffffffffffffffffffffffffffffff1916908160001a9053506000611bac8460026125a7565b611bb7906001612458565b90505b6001811115611c72577f303132333435363738396162636465660000000000000000000000000000000085600f1660108110611bf857611bf8612282565b1a7f010000000000000000000000000000000000000000000000000000000000000002828281518110611c2d57611c2d612282565b60200101907effffffffffffffffffffffffffffffffffffffffffffffffffffffffffffff1916908160001a905350601090940493611c6b816125c6565b9050611bba565b508315610ca35760405160e560020a62461bcd02815260206004820181905260248201527f537472696e67733a20686578206c656e67746820696e73756666696369656e74604482015260640161054d565b60006001611cd184610d56565b611cdb9190612441565b600083815260076020526040902054909150808214611d2e57600160a060020a03841660009081526006602090815260408083208584528252808320548484528184208190558352600790915290208190555b506000918252600760209081526040808420849055600160a060020a039094168352600681528383209183525290812055565b600854600090611d7390600190612441565b60008381526009602052604081205460088054939450909284908110611d9b57611d9b612282565b906000526020600020015490508060088381548110611dbc57611dbc612282565b6000918252602080832090910192909255828152600990915260408082208490558582528120556008805480611df457611df46125dd565b6001900381819060005260206000200160009055905550505050565b6000611e1b83610d56565b600160a060020a039093166000908152600660209081526040808320868452825280832085905593825260079052919091209190915550565b600160e060020a03198116811461139957600080fd5b600060208284031215611e7c57600080fd5b8135610ca381611e54565b60005b83811015611ea2578181015183820152602001611e8a565b83811115610e6d5750506000910152565b60008151808452611ecb816020860160208601611e87565b601f01601f19169290920160200192915050565b602081526000610ca36020830184611eb3565b600060208284031215611f0457600080fd5b5035919050565b8035600160a060020a0381168114611f2257600080fd5b919050565b60008060408385031215611f3a57600080fd5b611f4383611f0b565b946020939093013593505050565b600080600060608486031215611f6657600080fd5b611f6f84611f0b565b9250611f7d60208501611f0b565b9150604084013590509250925092565b60008060408385031215611fa057600080fd5b82359150611fb060208401611f0b565b90509250929050565b60e060020a634e487b7102600052604160045260246000fd5b600067ffffffffffffffff80841115611fed57611fed611fb9565b604051601f8501601f19908116603f0116810190828211818310171561201557612015611fb9565b8160405280935085815286868601111561202e57600080fd5b858560208301376000602087830101525050509392505050565b600082601f83011261205957600080fd5b610ca383833560208501611fd2565b60006020828403121561207a57600080fd5b813567ffffffffffffffff81111561209157600080fd5b61119c84828501612048565b600080604083850312156120b057600080fd5b6120b983611f0b565b9150602083013567ffffffffffffffff8111156120d557600080fd5b6120e185828601612048565b9150509250929050565b6000602082840312156120fd57600080fd5b610ca382611f0b565b6000806040838503121561211957600080fd5b61212283611f0b565b91506020830135801515811461213757600080fd5b809150509250929050565b6000806000806080858703121561215857600080fd5b61216185611f0b565b935061216f60208601611f0b565b925060408501359150606085013567ffffffffffffffff81111561219257600080fd5b8501601f810187136121a357600080fd5b6121b287823560208401611fd2565b91505092959194509250565b600080604083850312156121d157600080fd5b6121da83611f0b565b9150611fb060208401611f0b565b6002810460018216806121fc57607f821691505b60208210810361221f5760e060020a634e487b7102600052602260045260246000fd5b50919050565b60208082526031908201527f4552433732313a207472616e736665722063616c6c6572206973206e6f74206f60408201527f776e6572206e6f7220617070726f766564000000000000000000000000000000606082015260800190565b60e060020a634e487b7102600052603260045260246000fd5b6020808252603d908201527f4552433732315072657365744d696e7465725061757365724175746f49643a2060408201527f6d7573742068617665206d696e74657220726f6c6520746f206d696e74000000606082015260800190565b6000825161230a818460208701611e87565b9190910192915050565b601f8211156106a4576000818152602081206020601f8601048101602086101561233b5750805b6020601f860104820191505b8181101561235a57828155600101612347565b505050505050565b815167ffffffffffffffff81111561237c5761237c611fb9565b6123908161238a84546121e8565b84612314565b602080601f8311600181146123c957600084156123ad5750858301515b60028086026008870290910a600019041982161786555061235a565b600085815260208120601f198616915b828110156123f8578886015182559484019460019091019084016123d9565b508582101561241857878501516008601f88160260020a60001904191681555b5050505050600202600101905550565b60e060020a634e487b7102600052601160045260246000fd5b60008282101561245357612453612428565b500390565b6000821982111561246b5761246b612428565b500190565b60208082526032908201527f4552433732313a207472616e7366657220746f206e6f6e20455243373231526560408201527f63656976657220696d706c656d656e7465720000000000000000000000000000606082015260800190565b7f416363657373436f6e74726f6c3a206163636f756e7420000000000000000000815260008351612505816017850160208801611e87565b7f206973206d697373696e6720726f6c65200000000000000000000000000000006017918401918201528351612542816028840160208801611e87565b01602801949350505050565b6000600160a060020a038087168352808616602084015250836040830152608060608301526125806080830184611eb3565b9695505050505050565b60006020828403121561259c57600080fd5b8151610ca381611e54565b60008160001904831182151516156125c1576125c1612428565b500290565b6000816125d5576125d5612428565b506000190190565b60e060020a634e487b7102600052603160045260246000fdfe9f2df0fed2c77648de5860a4cc508cd0818c85b8b8a1ab4ceeef8d981c8956a6a2646970667358221220ec17c90a67b10f3bc003a98a6bf8983c49b8c559825e9e856e5fb2182125054d64736f6c634300080f0033a2646970667358221220eeb9de2dbc14d291bf118a99377d0c1025ec1a67b97326dd5f40bf6e283a895564736f6c634300080f0033",
  "immutableReferences": {},
  "source": "// SPDX-License-Identifier: MIT\r\npragma solidity ^0.8.0;\r\n\r\n// import \"@openzeppelin/contracts/access/Ownable.sol\";\r\n import '@openzeppelin/contracts/utils/math/SafeMath.sol';\r\nimport \"@openzeppelin/contracts/utils/Counters.sol\";\r\n//import '@openzeppelin/contracts/token/ERC721/IERC721.sol';\r\n\r\nimport './NFTCollection.sol';\r\n\r\ncontract MarketPlace {\r\n    using Counters for Counters.Counter;\r\n    using SafeMath for uint256;\r\n\r\n    Counters.Counter private _collectionIds;\r\n    Counters.Counter private _auctionIds;\r\n    Counters.Counter private _directOfferIds;\r\n\r\n    bytes32 public constant MINTER_ROLE = keccak256('MINTER_ROLE');\r\n\r\n    // Fees\r\n    uint256 public constant FEE_SELL_PERCENTAGE = 3; // percentage of buy price\r\n\r\n    // Enums\r\n    // enum AuctionType {\r\n    //     FixedPrice, // buy it now only\r\n    //     Dutch, // (not used for now)\r\n    //     English // (not used for now)\r\n    // }\r\n\r\n    enum DirectOfferStatus {\r\n        Open, // 0: open for acceptance\r\n        Accepted, // 1: accepted by token owner\r\n        Finished, // 2: finished with buyer\r\n        Canceled // 3: canceled by seller\r\n    }\r\n\r\n    enum AuctionStatus {\r\n        //Approved, // ready for use\r\n        Running, // 0: in progress\r\n        Closed, // 1: closed with no buyer, need to revert funds\r\n        Finished, // 2: finished with buyer, need to revert funds\r\n        Canceled // 3: canceled by seller, need to revert funds\r\n    }\r\n\r\n    // Definitions\r\n    struct AuctionItem {\r\n        address ownerAddress;\r\n        address collectionAddress;\r\n        uint256 auctionId; // auction Id, is generated\r\n        uint256 tokenId; // token Id, is given\r\n        uint256 buyItNowPrice; // buy now buyItNowPrice in case of type FixedPrice. Zero means - no buy now. Mandatory if Fixed price\r\n        //uint256 reservedPrice; // buy out price below which the sell cannot happend (not used for now)\r\n        uint256 initialPrice; // starting auction price (not used for now)\r\n        //uint256 minBidStep; // minimum allowed bid step. Zero means - no min (not used for now)\r\n        //uint256 maxBidStep; // maximum allowed bid step. Zero means - no max (not used for now)\r\n        AuctionStatus auctionStatus;\r\n        //AuctionType auctionType;\r\n    }\r\n\r\n    struct CollectionItem {\r\n        uint256 collectionId; // TODO : Check if needed\r\n        address collectionAddress; // ERC721 token of the collection\r\n        address ownerAddress;\r\n        string metaURI; // like in ERC721 token URI\r\n    }\r\n    \r\n    // Only 1 valid offer per buyer\r\n    // Buyer can send many offers\r\n    // Seller can accept many offers\r\n    // On buy performed - invalidate all other direct offers\r\n    struct DirectOfferItem {\r\n        address ownerAddress;\r\n        address collectionAddress; // ERC721 token of the collection\r\n        address buyerAddress; // offer send from address\r\n        uint256 directOfferId;\r\n        uint256 tokenId;\r\n        uint256 offeredPrice;\r\n        DirectOfferStatus directOfferStatus;\r\n    }\r\n\r\n    // properties\r\n    // msg.sender => generated funds\r\n    mapping(address => uint256) public userFunds; // contains funds per user generated from sales. Bids will stored in other way\r\n\r\n    // -- Events\r\n    // emitted when an auction is craated\r\n    event onAuctionCreated(uint256 indexed auctionId, uint256 indexed tokenId);\r\n\r\n    // emitted when is cancelled by the seller\r\n    event onAuctionCancelled(uint256 indexed auctionId, uint256 indexed tokenId);\r\n\r\n    // emitted when the acution is finsied with succesfull purchase\r\n    event onAuctionFinished(uint256 indexed auctionId, uint256 indexed tokenId);\r\n\r\n    // emitted when an auction is closed with no buyer\r\n    event onAuctionClosed(uint256 indexed auctionId, uint256 indexed tokenId);\r\n\r\n    // enitted when an auction is bidded\r\n    event onAuctionBid(uint256 indexed auctionId, uint256 bid);\r\n\r\n    // emitted when an user claims his funds\r\n    event onFundsClaimed(address indexed user, uint256 amount);\r\n\r\n    // emitted when a collection is created\r\n    event onCollectionCreated(uint256 indexed collectionId, address indexed collectionAddress, address indexed ownerAddress);\r\n\r\n    // emitted when a direct offer is created\r\n    event onDirectOfferCreated(address indexed collectionAddress, uint256 indexed directOfferId, uint256 indexed tokenId);\r\n    // --\r\n\r\n    // auctionId => AuctionItem\r\n    mapping(uint256 => AuctionItem) auctionStore;\r\n\r\n    // directOfferId => DirectOfferItem\r\n    mapping(uint256 => DirectOfferItem) directOfferStore;\r\n\r\n    // collectionId => CollectionItem\r\n    mapping(uint256 => CollectionItem) collectionStore;\r\n\r\n    // uint256 public auctionCount = 0;\r\n    // uint256 public collectionCount = 0;\r\n\r\n    // ownerAddress => (collectionId => isOwner)\r\n    mapping(address => mapping(uint256 => bool)) usercollections;\r\n\r\n    // collectionAddress => auctionId[]\r\n    mapping(address => uint256[]) collectionToAcutions;\r\n\r\n    // _collectionAddress => _tokenId => _auctionId\r\n    mapping(address=> mapping(uint256 => uint256)) tokenAuctions;\r\n\r\n    // tokenDirectOffers[_collectionAddress][_tokenId][buyerAddress] = _directOfferId\r\n    // _collectionAddress => (_tokenId => (buyerAddress => _directOfferId))\r\n    mapping(address => mapping(uint256 => mapping(address => uint256))) tokenDirectOffers;\r\n\r\n    // -- Modifiers\r\n    // --\r\n\r\n     constructor() public {\r\n     }\r\n\r\n     // -- Mint\r\n     // TODO : ask if this is good idea\r\n     function mint(address _collectionAddress, string memory _tokenURI) external {\r\n        NFTCollection nftCollection = NFTCollection(_collectionAddress);\r\n\r\n        uint256 _tokenId = nftCollection.externalMint(msg.sender, _tokenURI);\r\n \r\n        // transfer to msg.sender\r\n        //nftCollection.transferFrom(address(this), msg.sender, _tokenId);\r\n\r\n        // set approve to MarketPlace\r\n        //nftCollection.approve(address(this), _tokenId);\r\n     }\r\n     // --\r\n\r\n    // -- Collection management\r\n    function createCollection(string memory _name, string memory _symbol, string memory _metaURI) external returns (address) {\r\n        NFTCollection collectionContract = new NFTCollection(_name, _symbol);\r\n        // grant role\r\n        collectionContract.grantRole(MINTER_ROLE, msg.sender);\r\n        // approve creator by default\r\n        collectionContract.setApprovalForAll(msg.sender, true); // not applied for newly created tokens\r\n\r\n        address _collectionAddress = address(collectionContract);\r\n\r\n        _collectionIds.increment();\r\n        uint256 _collectionId = _collectionIds.current();\r\n        collectionStore[_collectionId] = CollectionItem(_collectionId, _collectionAddress, msg.sender, _metaURI);        \r\n\r\n        usercollections[msg.sender][_collectionId] = true;\r\n\r\n        emit onCollectionCreated(_collectionId, _collectionAddress, msg.sender);\r\n\r\n        return _collectionAddress;\r\n    }\r\n\r\n    function importCollection(address _collectionAddress, string memory _metaURI)external returns (address) {\r\n        // This method is not implemented\r\n        revert();\r\n        _collectionIds.increment();\r\n        uint256 _collectionId = _collectionIds.current();\r\n        collectionStore[_collectionId] = CollectionItem(_collectionId, _collectionAddress, msg.sender, _metaURI);        \r\n\r\n        usercollections[msg.sender][_collectionId] = true;\r\n\r\n        emit onCollectionCreated(_collectionId, _collectionAddress, msg.sender);\r\n\r\n        return _collectionAddress;\r\n    }\r\n\r\n    function getCollection(uint256 _collectionId) external view returns (CollectionItem memory) {\r\n        return collectionStore[_collectionId];\r\n    }\r\n\r\n    function getCollectionCount() external view returns(uint256){\r\n        return _collectionIds.current();\r\n    }\r\n    function getAuctionCount() external view returns(uint256){\r\n        return _auctionIds.current();\r\n    }\r\n\r\n    // --\r\n\r\n    // -- Auction Management\r\n    function createAuction(\r\n        address _collectionAddress,\r\n        uint256 _tokenId,\r\n        uint256 _initialPrice,\r\n        uint256 _buyItNowPrice\r\n    ) external {\r\n        // transfer token to the market (this)\r\n        NFTCollection nftCollection = NFTCollection(_collectionAddress);\r\n        // nftCollection.transferFrom(msg.sender, address(this), _tokenId); // TODO : use approve !!!\r\n\r\n        // _initialPrice or _buyItNowPrice should be above zero\r\n        require(_initialPrice + _buyItNowPrice > 0, 'Token Price cannot be zero');\r\n\r\n        // check token owner\r\n        require(msg.sender == nftCollection.ownerOf(_tokenId), 'Not token owner');\r\n\r\n        // check if MarketPlace is approved\r\n        require(address(this) == nftCollection.getApproved(_tokenId), 'MarketPlace is not approved');\r\n\r\n        // create auction twice\r\n        require(tokenAuctions[_collectionAddress][_tokenId] == 0, 'Auction for this token exists');\r\n\r\n        // create auction\r\n        _auctionIds.increment();\r\n        uint256 _auctionId = _auctionIds.current();\r\n        auctionStore[_auctionId] = AuctionItem({\r\n            ownerAddress: msg.sender,\r\n            collectionAddress: _collectionAddress,\r\n            auctionId: _auctionId,\r\n            tokenId: _tokenId,\r\n            buyItNowPrice: _buyItNowPrice,\r\n            //reservedPrice: 0,\r\n            initialPrice: _initialPrice,\r\n            //minBidStep: 0,\r\n            //maxBidStep: 0,\r\n            auctionStatus: AuctionStatus.Running\r\n            //auctionType: AuctionType.FixedPrice\r\n        });\r\n\r\n        collectionToAcutions[_collectionAddress].push(_auctionId);\r\n\r\n        tokenAuctions[_collectionAddress][_tokenId] = _auctionId;\r\n\r\n        emit onAuctionCreated(_auctionId, _tokenId);\r\n    }\r\n\r\n    function getCollectionAuctions(address collectionAddress) external view returns (uint256[] memory) {\r\n        return collectionToAcutions[collectionAddress];\r\n    }\r\n\r\n    function getAuction(uint256 _auctionId) public view returns (AuctionItem memory) {\r\n        AuctionItem memory _auction = auctionStore[_auctionId];\r\n\r\n        require(_auction.auctionId == _auctionId, 'Auction does not exists');\r\n        return _auction;\r\n    }\r\n\r\n    function getAuctionBy(address _collectionAddress, uint256 _tokenId) external view returns (AuctionItem memory) {\r\n        uint256 _auctionId = tokenAuctions[_collectionAddress][_tokenId];\r\n\r\n        return getAuction(_auctionId);\r\n    }\r\n\r\n    // buy it now - handle user funds?\r\n    function buyNowAuction(uint256 _auctionId) external payable {\r\n        AuctionItem storage _auction = auctionStore[_auctionId];\r\n\r\n        require(_auction.auctionId == _auctionId, 'Auction does not exists');\r\n        require(_auction.ownerAddress != msg.sender, 'Auction owner cannot buy it');\r\n        require(_auction.auctionStatus == AuctionStatus.Running, 'Auction is not running');\r\n        require(_auction.buyItNowPrice > 0, 'Buy now is not allowed');\r\n\r\n        require(msg.value == _auction.buyItNowPrice, 'Buy now price is greater');\r\n\r\n        NFTCollection nftCollection = NFTCollection(_auction.collectionAddress);\r\n\r\n        // transfer from MarketPalce as approved\r\n        nftCollection.transferFrom(_auction.ownerAddress, msg.sender, _auction.tokenId);\r\n\r\n        _auction.auctionStatus = AuctionStatus.Finished;\r\n\r\n        uint256 fee = msg.value.mul(FEE_SELL_PERCENTAGE).div(100);\r\n        uint256 userFund = msg.value.sub(fee);\r\n        userFunds[_auction.ownerAddress] = userFunds[_auction.ownerAddress].add(userFund);\r\n\r\n        delete tokenAuctions[_auction.collectionAddress][_auction.tokenId]; // reset\r\n\r\n        // TODO : Handle bids\r\n        // TODO : Handle direct offers\r\n\r\n        emit onAuctionFinished(_auctionId, _auction.tokenId);\r\n    }\r\n\r\n    // cancel auction (auction owner) - handle user funds?\r\n    function cancelAuction(uint256 _auctionId) external {\r\n        AuctionItem storage _auction = auctionStore[_auctionId];\r\n\r\n        require(_auction.auctionId == _auctionId, 'Auction does not exists');\r\n        require(_auction.ownerAddress == msg.sender, 'Only auction owner can cancel');\r\n        require(_auction.auctionStatus == AuctionStatus.Running, 'Auction is not running');\r\n\r\n        //NFTCollection nftCollection = NFTCollection(_auction.collectionAddress);\r\n        //nftCollection.transferFrom(address(this), msg.sender, _auction.tokenId);\r\n        _auction.auctionStatus = AuctionStatus.Canceled;\r\n\r\n        delete tokenAuctions[_auction.collectionAddress][_auction.tokenId]; // reset\r\n\r\n        // TODO : Handle bids\r\n        // TODO : Handle direct offers\r\n\r\n        emit onAuctionCancelled(_auctionId, _auction.tokenId);\r\n    }\r\n\r\n    // --\r\n\r\n    // -- Auction handling\r\n    // elapse ??? possible ReentrancyGuard\r\n    // --\r\n\r\n    // -- Auction actions\r\n    // bid - handle user funds?\r\n    function bid() external payable {\r\n        // not supported\r\n        revert();\r\n        // emit onAuctionBid()\r\n    }\r\n\r\n    // --\r\n\r\n    // -- Direct offers\r\n    function createDirectOffer(address _collectionAddress, uint256 _tokenId, uint256 _offeredPrice) external {\r\n        NFTCollection nftCollection = NFTCollection(_collectionAddress);\r\n\r\n        address _ownerAddress = nftCollection.ownerOf(_tokenId);\r\n        // requrie not own token\r\n        require(msg.sender != _ownerAddress, 'Already token owner');\r\n\r\n        // create direct offer\r\n        _directOfferIds.increment();\r\n        uint256 _directOfferId = _directOfferIds.current();\r\n            directOfferStore[_directOfferId] = DirectOfferItem({\r\n            ownerAddress : _ownerAddress,\r\n            collectionAddress: _collectionAddress,\r\n            buyerAddress:msg.sender,\r\n            directOfferId: _directOfferId,\r\n            tokenId: _tokenId, \r\n            offeredPrice:_offeredPrice,\r\n            directOfferStatus: DirectOfferStatus.Open\r\n        });\r\n\r\n        tokenDirectOffers[_collectionAddress][_tokenId][msg.sender] = _directOfferId;\r\n\r\n        emit onDirectOfferCreated(_collectionAddress, _directOfferId, _tokenId);\r\n    }\r\n\r\n    function getDirectOffers(address _collectionAddress, uint256 _tokenId) external view {\r\n\r\n    }\r\n\r\n    function cancelDirectOffer(uint256 _directOfferId) external {\r\n        DirectOfferItem storage _directOffer = directOfferStore[_directOfferId];\r\n\r\n        require(_directOffer.directOfferId == _directOfferId, 'Offer does not exists');\r\n        require(_directOffer.buyerAddress == msg.sender, 'Only offer bayer can cancel');\r\n        require(_directOffer.directOfferStatus == DirectOfferStatus.Open, 'Offer is not open');\r\n\r\n        _directOffer.directOfferStatus = DirectOfferStatus.Canceled;\r\n\r\n        delete tokenDirectOffers[_directOffer.collectionAddress][_directOffer.tokenId][msg.sender];\r\n    }\r\n    function acceptDirectOffer(uint256 _directOfferId) external {\r\n        // by token owner\r\n        DirectOfferItem storage _directOffer = directOfferStore[_directOfferId];\r\n\r\n        require(_directOffer.directOfferId == _directOfferId, 'Offer does not exists');\r\n        require(_directOffer.directOfferStatus == DirectOfferStatus.Open, 'Offer is not open');\r\n\r\n        NFTCollection nftCollection = NFTCollection(_directOffer.collectionAddress);\r\n        require(msg.sender == nftCollection.ownerOf(_directOffer.tokenId), 'Not token owner');\r\n        \r\n        // check if MarketPlace is approved\r\n        require(address(this) == nftCollection.getApproved(_directOffer.tokenId), 'MarketPlace is not approved');\r\n\r\n        _directOffer.directOfferStatus = DirectOfferStatus.Accepted;\r\n    }\r\n\r\n    function fulfillDirectOffer(uint256 _directOfferId) external payable {\r\n        // cancel auction\r\n\r\n        DirectOfferItem storage _directOffer = directOfferStore[_directOfferId];\r\n\r\n        require(_directOffer.directOfferId == _directOfferId, 'Offer does not exists');\r\n        require(_directOffer.directOfferStatus == DirectOfferStatus.Accepted, 'Offer is not open');\r\n        require(_directOffer.buyerAddress == msg.sender, 'Only offer bayer can fullfill');\r\n\r\n        NFTCollection nftCollection = NFTCollection(_directOffer.collectionAddress);\r\n\r\n        // transfer from MarketPalce as approved\r\n        nftCollection.transferFrom(_directOffer.ownerAddress, msg.sender, _directOffer.tokenId);\r\n\r\n        _directOffer.directOfferStatus = DirectOfferStatus.Finished;\r\n\r\n        uint256 fee = msg.value.mul(FEE_SELL_PERCENTAGE).div(100);\r\n        uint256 userFund = msg.value.sub(fee);\r\n        userFunds[_directOffer.ownerAddress] = userFunds[_directOffer.ownerAddress].add(userFund);\r\n\r\n        //delete tokenDirectOffers[_directOffer.collectionAddress][_directOffer.tokenId];\r\n    }\r\n    // --\r\n\r\n    function claimFunds() external {\r\n        require(userFunds[msg.sender] > 0, 'This user has no funds to be claimed');\r\n\r\n        uint256 fundsToClaim = userFunds[msg.sender];\r\n        userFunds[msg.sender] = 0;\r\n        payable(msg.sender).transfer(fundsToClaim);\r\n\r\n        emit onFundsClaimed(msg.sender, fundsToClaim);\r\n    }\r\n\r\n    // Fallback: reverts if Ether is sent to this smart-contract by mistake\r\n    fallback() external {\r\n        revert();\r\n    }\r\n}\r\n",
  "sourcePath": "C:\\github\\trayanm\\TTMMarket\\src\\contracts\\MarketPlace.sol",
  "compiler": {
    "name": "solc",
    "version": "0.8.15+commit.e14f2714.Emscripten.clang"
  },
  "schemaVersion": "3.4.7",
  "updatedAt": "2022-06-22T20:27:49.676Z",
  "devdoc": {
    "kind": "dev",
    "methods": {},
    "version": 1
  },
  "userdoc": {
    "kind": "user",
    "methods": {},
    "version": 1
  }
}