{
  "contractName": "Marketplace",
  "abi": [
    {
      "anonymous": false,
      "inputs": [
        {
          "indexed": true,
          "internalType": "uint256",
          "name": "auctionId",
          "type": "uint256"
        },
        {
          "indexed": false,
          "internalType": "uint256",
          "name": "bid",
          "type": "uint256"
        }
      ],
      "name": "onAuctionBid",
      "type": "event"
    },
    {
      "anonymous": false,
      "inputs": [
        {
          "indexed": true,
          "internalType": "uint256",
          "name": "auctionId",
          "type": "uint256"
        },
        {
          "indexed": true,
          "internalType": "uint256",
          "name": "id",
          "type": "uint256"
        }
      ],
      "name": "onAuctionCancelled",
      "type": "event"
    },
    {
      "anonymous": false,
      "inputs": [
        {
          "indexed": true,
          "internalType": "uint256",
          "name": "auctionId",
          "type": "uint256"
        },
        {
          "indexed": true,
          "internalType": "uint256",
          "name": "id",
          "type": "uint256"
        }
      ],
      "name": "onAuctionClosed",
      "type": "event"
    },
    {
      "anonymous": false,
      "inputs": [
        {
          "indexed": true,
          "internalType": "uint256",
          "name": "auctionId",
          "type": "uint256"
        },
        {
          "indexed": true,
          "internalType": "uint256",
          "name": "id",
          "type": "uint256"
        }
      ],
      "name": "onAuctionCreated",
      "type": "event"
    },
    {
      "anonymous": false,
      "inputs": [
        {
          "indexed": true,
          "internalType": "uint256",
          "name": "auctionId",
          "type": "uint256"
        },
        {
          "indexed": true,
          "internalType": "uint256",
          "name": "id",
          "type": "uint256"
        }
      ],
      "name": "onAuctionFinished",
      "type": "event"
    },
    {
      "anonymous": false,
      "inputs": [
        {
          "indexed": true,
          "internalType": "uint256",
          "name": "collectionId",
          "type": "uint256"
        },
        {
          "indexed": true,
          "internalType": "address",
          "name": "collectionAddress",
          "type": "address"
        },
        {
          "indexed": true,
          "internalType": "address",
          "name": "ownerAddress",
          "type": "address"
        }
      ],
      "name": "onCollectionCreated",
      "type": "event"
    },
    {
      "anonymous": false,
      "inputs": [
        {
          "indexed": true,
          "internalType": "address",
          "name": "user",
          "type": "address"
        },
        {
          "indexed": false,
          "internalType": "uint256",
          "name": "amount",
          "type": "uint256"
        }
      ],
      "name": "onFundsClaimed",
      "type": "event"
    },
    {
      "stateMutability": "nonpayable",
      "type": "fallback"
    },
    {
      "inputs": [],
      "name": "FEE_SELL_PERCENTAGE",
      "outputs": [
        {
          "internalType": "uint256",
          "name": "",
          "type": "uint256"
        }
      ],
      "stateMutability": "view",
      "type": "function",
      "constant": true
    },
    {
      "inputs": [],
      "name": "MINTER_ROLE",
      "outputs": [
        {
          "internalType": "bytes32",
          "name": "",
          "type": "bytes32"
        }
      ],
      "stateMutability": "view",
      "type": "function",
      "constant": true
    },
    {
      "inputs": [],
      "name": "auctionCount",
      "outputs": [
        {
          "internalType": "uint256",
          "name": "",
          "type": "uint256"
        }
      ],
      "stateMutability": "view",
      "type": "function",
      "constant": true
    },
    {
      "inputs": [],
      "name": "collectionCount",
      "outputs": [
        {
          "internalType": "uint256",
          "name": "",
          "type": "uint256"
        }
      ],
      "stateMutability": "view",
      "type": "function",
      "constant": true
    },
    {
      "inputs": [
        {
          "internalType": "address",
          "name": "",
          "type": "address"
        }
      ],
      "name": "userFunds",
      "outputs": [
        {
          "internalType": "uint256",
          "name": "",
          "type": "uint256"
        }
      ],
      "stateMutability": "view",
      "type": "function",
      "constant": true
    },
    {
      "inputs": [
        {
          "internalType": "string",
          "name": "_name",
          "type": "string"
        },
        {
          "internalType": "string",
          "name": "_symbol",
          "type": "string"
        }
      ],
      "name": "createCollection",
      "outputs": [
        {
          "internalType": "address",
          "name": "",
          "type": "address"
        }
      ],
      "stateMutability": "nonpayable",
      "type": "function"
    },
    {
      "inputs": [
        {
          "internalType": "uint256",
          "name": "_collectionId",
          "type": "uint256"
        }
      ],
      "name": "getCollection",
      "outputs": [
        {
          "components": [
            {
              "internalType": "uint256",
              "name": "collectionId",
              "type": "uint256"
            },
            {
              "internalType": "address",
              "name": "collectionAddress",
              "type": "address"
            },
            {
              "internalType": "address",
              "name": "ownerAddress",
              "type": "address"
            }
          ],
          "internalType": "struct Marketplace.CollectionItem",
          "name": "",
          "type": "tuple"
        }
      ],
      "stateMutability": "view",
      "type": "function",
      "constant": true
    },
    {
      "inputs": [
        {
          "internalType": "address",
          "name": "_collectionAddress",
          "type": "address"
        },
        {
          "internalType": "uint256",
          "name": "_id",
          "type": "uint256"
        },
        {
          "internalType": "uint256",
          "name": "_buyItNowPrice",
          "type": "uint256"
        }
      ],
      "name": "createAuction",
      "outputs": [],
      "stateMutability": "nonpayable",
      "type": "function"
    },
    {
      "inputs": [
        {
          "internalType": "uint256",
          "name": "_auctionId",
          "type": "uint256"
        }
      ],
      "name": "getAuction",
      "outputs": [
        {
          "components": [
            {
              "internalType": "address",
              "name": "ownerAddress",
              "type": "address"
            },
            {
              "internalType": "address",
              "name": "collectionAddress",
              "type": "address"
            },
            {
              "internalType": "uint256",
              "name": "auctionId",
              "type": "uint256"
            },
            {
              "internalType": "uint256",
              "name": "id",
              "type": "uint256"
            },
            {
              "internalType": "uint256",
              "name": "buyItNowPrice",
              "type": "uint256"
            },
            {
              "internalType": "uint256",
              "name": "reservedPrice",
              "type": "uint256"
            },
            {
              "internalType": "uint256",
              "name": "initialPrice",
              "type": "uint256"
            },
            {
              "internalType": "uint256",
              "name": "minBidStep",
              "type": "uint256"
            },
            {
              "internalType": "uint256",
              "name": "maxBidStep",
              "type": "uint256"
            },
            {
              "internalType": "enum Marketplace.AuctionStatus",
              "name": "auctionStatus",
              "type": "uint8"
            },
            {
              "internalType": "enum Marketplace.AuctionType",
              "name": "auctionType",
              "type": "uint8"
            }
          ],
          "internalType": "struct Marketplace.AuctionItem",
          "name": "",
          "type": "tuple"
        }
      ],
      "stateMutability": "view",
      "type": "function",
      "constant": true
    },
    {
      "inputs": [
        {
          "internalType": "uint256",
          "name": "_auctionId",
          "type": "uint256"
        }
      ],
      "name": "buyNowAuction",
      "outputs": [],
      "stateMutability": "payable",
      "type": "function",
      "payable": true
    },
    {
      "inputs": [
        {
          "internalType": "uint256",
          "name": "_auctionId",
          "type": "uint256"
        }
      ],
      "name": "cancelAuction",
      "outputs": [],
      "stateMutability": "nonpayable",
      "type": "function"
    },
    {
      "inputs": [],
      "name": "bid",
      "outputs": [],
      "stateMutability": "payable",
      "type": "function",
      "payable": true
    },
    {
      "inputs": [],
      "name": "claimFunds",
      "outputs": [],
      "stateMutability": "nonpayable",
      "type": "function"
    }
  ],
  "bytecode": "0x60806040526000600355600060045534801561001a57600080fd5b50613bbb8061002a6000396000f3fe608060405260043610620000f1576000357c01000000000000000000000000000000000000000000000000000000009004806396b5a75511620000a8578063ac307773116200007e578063ac30777314620002e8578063d53913931462000300578063d57f966b1462000336578063e324bd1f146200034e57620000f1565b806396b5a755146200028757806399370fea14620002ac578063abb9405114620002c357620000f1565b8063176b9b7514620001035780631998aeef14620001455780632ad7157314620001505780635a1f3c28146200017757806378bd793514620002225780638387c6e11462000256575b348015620000fe57600080fd5b600080fd5b3480156200011057600080fd5b5062000128620001223660046200113e565b62000365565b604051600160a060020a0390911681526020015b60405180910390f35b6200014e600080fd5b005b3480156200015d57600080fd5b506200016860035481565b6040519081526020016200013c565b3480156200018457600080fd5b50620001ee62000196366004620011a9565b60408051606080820183526000808352602080840182905292840181905293845260028083529383902083519182018452805482526001810154600160a060020a039081169383019390935290930154169082015290565b6040805182518152602080840151600160a060020a039081169183019190915292820151909216908201526060016200013c565b3480156200022f57600080fd5b506200024762000241366004620011a9565b620005aa565b6040516200013c919062001206565b3480156200026357600080fd5b506200016862000275366004620012c9565b60006020819052908152604090205481565b3480156200029457600080fd5b506200014e620002a6366004620011a9565b620006b8565b348015620002b957600080fd5b5062000168600381565b348015620002d057600080fd5b506200014e620002e2366004620012e9565b620008c4565b348015620002f557600080fd5b506200014e62000b99565b3480156200030d57600080fd5b50620001687f9f2df0fed2c77648de5860a4cc508cd0818c85b8b8a1ab4ceeef8d981c8956a681565b3480156200034357600080fd5b506200016860045481565b6200014e6200035f366004620011a9565b62000c9a565b6000808383604051620003789062001003565b6200038592919062001371565b604051809103906000f080158015620003a2573d6000803e3d6000fd5b506040517f2f2ff15d0000000000000000000000000000000000000000000000000000000081527f9f2df0fed2c77648de5860a4cc508cd0818c85b8b8a1ab4ceeef8d981c8956a66004820152336024820152909150600160a060020a03821690632f2ff15d90604401600060405180830381600087803b1580156200042757600080fd5b505af11580156200043c573d6000803e3d6000fd5b50506040517fa22cb46500000000000000000000000000000000000000000000000000000000815233600482015260016024820152600160a060020a038416925063a22cb4659150604401600060405180830381600087803b158015620004a257600080fd5b505af1158015620004b7573d6000803e3d6000fd5b50506004805460408051606081018252828152600160a060020a038088166020808401918252338486019081526000878152600292839052959095209351845590516001808501805492851673ffffffffffffffffffffffffffffffffffffffff1993841617905594519390910180549390921692169190911790559154859450909250620005469162000fc4565b600455336000818152600560209081526040808320858452909152808220805460ff1916600117905551600160a060020a0385169184917fecbe631ce73f784b71c74c5339317b59e203e339d6773c02526891b8063931c09190a450949350505050565b620005b462001011565b6000828152600160208181526040928390208351610160810185528154600160a060020a0390811682529382015490931691830191909152600281015492820192909252600380830154606083015260048301546080830152600583015460a0830152600683015460c0830152600783015460e08301526008830154610100830152600983015491929161012084019160ff909116908111156200065c576200065c620011c3565b6003811115620006705762000670620011c3565b81526020016009820160019054906101000a900460ff1660028111156200069b576200069b620011c3565b6002811115620006af57620006af620011c3565b90525092915050565b600081815260016020526040902060028101548214620007225760405160e560020a62461bcd02815260206004820152601760248201527f41756374696f6e20646f6573206e6f742065786973747300000000000000000060448201526064015b60405180910390fd5b8054600160a060020a03163314620007805760405160e560020a62461bcd02815260206004820152601e60248201527f41756374696f6e206f776e65722063616e6e6f742063616e63656c2069740000604482015260640162000719565b6000600982015460ff1660038111156200079e576200079e620011c3565b14620007f05760405160e560020a62461bcd02815260206004820152601660248201527f41756374696f6e206973206e6f742072756e6e696e6700000000000000000000604482015260640162000719565b600181015460038201546040517f23b872dd0000000000000000000000000000000000000000000000000000000081523060048201523360248201526044810191909152600160a060020a039091169081906323b872dd90606401600060405180830381600087803b1580156200086657600080fd5b505af11580156200087b573d6000803e3d6000fd5b5050505060098201805460ff1916600390811790915582015460405184907f9c31dd0dfb89b9b275633c46be4dc396661364ff715b47b8ae06201681e7ebc390600090a3505050565b6040517f6352211e000000000000000000000000000000000000000000000000000000008152600481018390528390600160a060020a03821690636352211e90602401602060405180830381865afa15801562000925573d6000803e3d6000fd5b505050506040513d601f19601f820116820180604052508101906200094b9190620013a3565b600160a060020a031633600160a060020a031614620009b05760405160e560020a62461bcd02815260206004820152600f60248201527f4e6f7420746f6b656e206f776e65720000000000000000000000000000000000604482015260640162000719565b6000600354905060405180610160016040528033600160a060020a0316815260200186600160a060020a03168152602001828152602001858152602001848152602001600081526020016000815260200160008152602001600081526020016000600381111562000a255762000a25620011c3565b8152602001600090526000828152600160208181526040928390208451815473ffffffffffffffffffffffffffffffffffffffff19908116600160a060020a0392831617835592860151828501805490941691161790915591830151600283015560608301516003808401919091556080840151600484015560a0840151600584015560c0840151600684015560e0840151600784015561010084015160088401556101208401516009840180549193909260ff1990921691849081111562000af25762000af2620011c3565b021790555061014082015160098201805461ff00191661010083600281111562000b205762000b20620011c3565b02179055505060035462000b379150600162000fc4565b600355600160a060020a0385166000908152600660209081526040808320805460018101825590845291832090910183905551859183917fd086c941db0dfd32e8d65552faa1a349d3c3fc18b2235a0fe20be668c81feee09190a35050505050565b3360009081526020819052604090205462000c1f5760405160e560020a62461bcd028152602060048201526024808201527f54686973207573657220686173206e6f2066756e647320746f20626520636c6160448201527f696d656400000000000000000000000000000000000000000000000000000000606482015260840162000719565b33600081815260208190526040808220805490839055905190929183156108fc02918491818181858888f1935050505015801562000c61573d6000803e3d6000fd5b5060405181815233907f1c355404524eaedf23f07edd324a42ac9a04ef403aa580df4c39547b42566d8f9060200160405180910390a250565b60008181526001602052604090206002810154821462000d005760405160e560020a62461bcd02815260206004820152601760248201527f41756374696f6e20646f6573206e6f7420657869737473000000000000000000604482015260640162000719565b805433600160a060020a039091160362000d605760405160e560020a62461bcd02815260206004820152601b60248201527f41756374696f6e206f776e65722063616e6e6f74206275792069740000000000604482015260640162000719565b6000600982015460ff16600381111562000d7e5762000d7e620011c3565b1462000dd05760405160e560020a62461bcd02815260206004820152601660248201527f41756374696f6e206973206e6f742072756e6e696e6700000000000000000000604482015260640162000719565b600081600401541162000e295760405160e560020a62461bcd02815260206004820152601660248201527f427579206e6f77206973206e6f7420616c6c6f77656400000000000000000000604482015260640162000719565b8060040154341462000e815760405160e560020a62461bcd02815260206004820152601260248201527f496e73756666696369656e742066756e64730000000000000000000000000000604482015260640162000719565b600062000e9d606462000e9634600362000fd9565b9062000fe7565b600183015460038401546040517f23b872dd0000000000000000000000000000000000000000000000000000000081523060048201523360248201526044810191909152919250600160a060020a03169081906323b872dd90606401600060405180830381600087803b15801562000f1457600080fd5b505af115801562000f29573d6000803e3d6000fd5b5050505060098301805460ff19166002179055600062000f4a348462000ff5565b8454600160a060020a031660009081526020819052604090205490915062000f73908262000fc4565b8454600160a060020a0316600090815260208190526040808220929092556003860154915187917fac764b5e3093df07973820131c91169ffd8ac85fd2f8f7329bb83e8ba6299e7291a35050505050565b600062000fd28284620013dc565b9392505050565b600062000fd28284620013f7565b600062000fd2828462001419565b600062000fd282846200143f565b61272c806200145a83390190565b6040518061016001604052806000600160a060020a031681526020016000600160a060020a031681526020016000815260200160008152602001600081526020016000815260200160008152602001600081526020016000815260200160006003811115620010845762001084620011c3565b81526020016000905290565b60e060020a634e487b7102600052604160045260246000fd5b600082601f830112620010bb57600080fd5b813567ffffffffffffffff80821115620010d957620010d962001090565b604051601f8301601f19908116603f0116810190828211818310171562001104576200110462001090565b816040528381528660208588010111156200111e57600080fd5b836020870160208301376000602085830101528094505050505092915050565b600080604083850312156200115257600080fd5b823567ffffffffffffffff808211156200116b57600080fd5b6200117986838701620010a9565b935060208501359150808211156200119057600080fd5b506200119f85828601620010a9565b9150509250929050565b600060208284031215620011bc57600080fd5b5035919050565b60e060020a634e487b7102600052602160045260246000fd5b60048110620011ef57620011ef620011c3565b9052565b60038110620011ef57620011ef620011c3565b8151600160a060020a0316815261016081016020830151620012336020840182600160a060020a03169052565b5060408301516040830152606083015160608301526080830151608083015260a083015160a083015260c083015160c083015260e083015160e0830152610100808401518184015250610120808401516200129182850182620011dc565b505061014080840151620012a882850182620011f3565b505092915050565b600160a060020a0381168114620012c657600080fd5b50565b600060208284031215620012dc57600080fd5b813562000fd281620012b0565b600080600060608486031215620012ff57600080fd5b83356200130c81620012b0565b95602085013595506040909401359392505050565b6000815180845260005b8181101562001349576020818501810151868301820152016200132b565b818111156200135c576000602083870101525b50601f01601f19169290920160200192915050565b60408152600062001386604083018562001321565b82810360208401526200139a818562001321565b95945050505050565b600060208284031215620013b657600080fd5b815162000fd281620012b0565b60e060020a634e487b7102600052601160045260246000fd5b60008219821115620013f257620013f2620013c3565b500190565b6000816000190483118215151615620014145762001414620013c3565b500290565b6000826200143a5760e060020a634e487b7102600052601260045260246000fd5b500490565b600082821015620014545762001454620013c3565b50039056fe60806040523480156200001157600080fd5b506040516200272c3803806200272c833981016040819052620000349162000342565b8151829082906200004d906000906020850190620001b6565b50805162000063906001906020840190620001b6565b506200009091506000905062000081640100000000620000d0810204565b640100000000620000d4810204565b620000c87f9f2df0fed2c77648de5860a4cc508cd0818c85b8b8a1ab4ceeef8d981c8956a662000081640100000000620000d0810204565b505062000401565b3390565b620000e98282640100000000620000ed810204565b5050565b6200010282826401000000006200018b810204565b620000e9576000828152600a60209081526040808320600160a060020a03851684529091529020805460ff1916600117905562000147640100000000620000d0810204565b600160a060020a031681600160a060020a0316837f2f8788117e7eff1d82e926ec794901d17c78024a50270940304540a733656f0d60405160405180910390a45050565b6000918252600a60209081526040808420600160a060020a0393909316845291905290205460ff1690565b828054620001c490620003ac565b90600052602060002090601f016020900481019282620001e8576000855562000233565b82601f106200020357805160ff191683800117855562000233565b8280016001018555821562000233579182015b828111156200023357825182559160200191906001019062000216565b506200024192915062000245565b5090565b5b8082111562000241576000815560010162000246565b7f4e487b7100000000000000000000000000000000000000000000000000000000600052604160045260246000fd5b600082601f8301126200029d57600080fd5b81516001604060020a0380821115620002ba57620002ba6200025c565b604051601f8301601f19908116603f01168101908282118183101715620002e557620002e56200025c565b816040528381526020925086838588010111156200030257600080fd5b600091505b8382101562000326578582018301518183018401529082019062000307565b83821115620003385760008385830101525b9695505050505050565b600080604083850312156200035657600080fd5b82516001604060020a03808211156200036e57600080fd5b6200037c868387016200028b565b935060208501519150808211156200039357600080fd5b50620003a2858286016200028b565b9150509250929050565b600281046001821680620003c157607f821691505b602082108103620003fb577f4e487b7100000000000000000000000000000000000000000000000000000000600052602260045260246000fd5b50919050565b61231b80620004116000396000f3fe608060405234801561001057600080fd5b5060043610610190576000357c0100000000000000000000000000000000000000000000000000000000900480636352211e116100fb578063a217fddf116100b4578063c87b56dd1161008e578063c87b56dd1461034e578063d539139314610361578063d547741f14610388578063e985e9c51461039b57600080fd5b8063a217fddf14610320578063a22cb46514610328578063b88d4fde1461033b57600080fd5b80636352211e146102b9578063695850fb146102cc5780636c8b703f146102df57806370a08231146102f257806391d148541461030557806395d89b411461031857600080fd5b8063248a9ca31161014d578063248a9ca3146102375780632f2ff15d1461025a5780632f745c591461026d57806336568abe1461028057806342842e0e146102935780634f6ccce7146102a657600080fd5b806301ffc9a71461019557806306fdde03146101bd578063081812fc146101d2578063095ea7b3146101fd57806318160ddd1461021257806323b872dd14610224575b600080fd5b6101a86101a3366004611d24565b6103d7565b60405190151581526020015b60405180910390f35b6101c56103e8565b6040516101b49190611d99565b6101e56101e0366004611dac565b61047a565b604051600160a060020a0390911681526020016101b4565b61021061020b366004611de1565b610528565b005b6008545b6040519081526020016101b4565b610210610232366004611e0b565b61065f565b610216610245366004611dac565b6000908152600a602052604090206001015490565b610210610268366004611e47565b610693565b61021661027b366004611de1565b6106b9565b61021061028e366004611e47565b610764565b6102106102a1366004611e0b565b6107f3565b6102166102b4366004611dac565b61080e565b6101e56102c7366004611dac565b6108b5565b6102106102da366004611f02565b610943565b6101c56102ed366004611dac565b610afc565b610216610300366004611f4b565b610ba8565b6101a8610313366004611e47565b610c45565b6101c5610c70565b610216600081565b610210610336366004611f66565b610c7f565b610210610349366004611fa2565b610d46565b6101c561035c366004611dac565b610d81565b6102167f9f2df0fed2c77648de5860a4cc508cd0818c85b8b8a1ab4ceeef8d981c8956a681565b610210610396366004611e47565b610eaf565b6101a86103a936600461201e565b600160a060020a03918216600090815260056020908152604080832093909416825291909152205460ff1690565b60006103e282610ed5565b92915050565b6060600080546103f790612048565b80601f016020809104026020016040519081016040528092919081815260200182805461042390612048565b80156104705780601f1061044557610100808354040283529160200191610470565b820191906000526020600020905b81548152906001019060200180831161045357829003601f168201915b5050505050905090565b600081815260026020526040812054600160a060020a031661050c5760405160e560020a62461bcd02815260206004820152602c60248201527f4552433732313a20617070726f76656420717565727920666f72206e6f6e657860448201527f697374656e7420746f6b656e000000000000000000000000000000000000000060648201526084015b60405180910390fd5b50600090815260046020526040902054600160a060020a031690565b6000610533826108b5565b905080600160a060020a031683600160a060020a0316036105bf5760405160e560020a62461bcd02815260206004820152602160248201527f4552433732313a20617070726f76616c20746f2063757272656e74206f776e6560448201527f72000000000000000000000000000000000000000000000000000000000000006064820152608401610503565b33600160a060020a03821614806105db57506105db81336103a9565b6106505760405160e560020a62461bcd02815260206004820152603860248201527f4552433732313a20617070726f76652063616c6c6572206973206e6f74206f7760448201527f6e6572206e6f7220617070726f76656420666f7220616c6c00000000000000006064820152608401610503565b61065a8383610f13565b505050565b6106693382610f8e565b6106885760405160e560020a62461bcd02815260040161050390612085565b61065a838383611099565b6000828152600a60205260409020600101546106af8133611284565b61065a83836112eb565b60006106c483610ba8565b821061073b5760405160e560020a62461bcd02815260206004820152602b60248201527f455243373231456e756d657261626c653a206f776e657220696e646578206f7560448201527f74206f6620626f756e64730000000000000000000000000000000000000000006064820152608401610503565b50600160a060020a03919091166000908152600660209081526040808320938352929052205490565b600160a060020a03811633146107e55760405160e560020a62461bcd02815260206004820152602f60248201527f416363657373436f6e74726f6c3a2063616e206f6e6c792072656e6f756e636560448201527f20726f6c657320666f722073656c6600000000000000000000000000000000006064820152608401610503565b6107ef8282611371565b5050565b61065a83838360405180602001604052806000815250610d46565b600061081960085490565b82106108905760405160e560020a62461bcd02815260206004820152602c60248201527f455243373231456e756d657261626c653a20676c6f62616c20696e646578206f60448201527f7574206f6620626f756e647300000000000000000000000000000000000000006064820152608401610503565b600882815481106108a3576108a36120e2565b90600052602060002001549050919050565b600081815260026020526040812054600160a060020a0316806103e25760405160e560020a62461bcd02815260206004820152602960248201527f4552433732313a206f776e657220717565727920666f72206e6f6e657869737460448201527f656e7420746f6b656e00000000000000000000000000000000000000000000006064820152608401610503565b61096d7f9f2df0fed2c77648de5860a4cc508cd0818c85b8b8a1ab4ceeef8d981c8956a633610c45565b6109e25760405160e560020a62461bcd02815260206004820152603d60248201527f4552433732315072657365744d696e7465725061757365724175746f49643a2060448201527f6d7573742068617665206d696e74657220726f6c6520746f206d696e740000006064820152608401610503565b600c816040516109f291906120fb565b9081526040519081900360200190205460ff1615610a555760405160e560020a62461bcd02815260206004820152601e60248201527f54686520746f6b656e205552492073686f756c6420626520756e6971756500006044820152606401610503565b600b80546001810182556000919091528151610a98917f0175b7a638427703f0dbe7bb9bbf987a2551717b34e79f33b5b1008d1fa01db901906020840190611c72565b50600b546000818152600d602090815260409091208351610abb92850190611c72565b50610ac633826113d8565b6001600c83604051610ad891906120fb565b908152604051908190036020019020805491151560ff199092169190911790555050565b600b8181548110610b0c57600080fd5b906000526020600020016000915090508054610b2790612048565b80601f0160208091040260200160405190810160405280929190818152602001828054610b5390612048565b8015610ba05780601f10610b7557610100808354040283529160200191610ba0565b820191906000526020600020905b815481529060010190602001808311610b8357829003601f168201915b505050505081565b6000600160a060020a038216610c295760405160e560020a62461bcd02815260206004820152602a60248201527f4552433732313a2062616c616e636520717565727920666f7220746865207a6560448201527f726f2061646472657373000000000000000000000000000000000000000000006064820152608401610503565b50600160a060020a031660009081526003602052604090205490565b6000918252600a60209081526040808420600160a060020a0393909316845291905290205460ff1690565b6060600180546103f790612048565b33600160a060020a03831603610cda5760405160e560020a62461bcd02815260206004820152601960248201527f4552433732313a20617070726f766520746f2063616c6c6572000000000000006044820152606401610503565b336000818152600560209081526040808320600160a060020a03871680855290835292819020805460ff191686151590811790915590519081529192917f17307eab39ab6107e8899845ad3d59bd9653f200f220920489ca2b5937696c31910160405180910390a35050565b610d503383610f8e565b610d6f5760405160e560020a62461bcd02815260040161050390612085565b610d7b848484846113f2565b50505050565b600081815260026020526040902054606090600160a060020a0316610e115760405160e560020a62461bcd02815260206004820152602f60248201527f4552433732314d657461646174613a2055524920717565727920666f72206e6f60448201527f6e6578697374656e7420746f6b656e00000000000000000000000000000000006064820152608401610503565b6000828152600d602052604090208054610e2a90612048565b80601f0160208091040260200160405190810160405280929190818152602001828054610e5690612048565b8015610ea35780601f10610e7857610100808354040283529160200191610ea3565b820191906000526020600020905b815481529060010190602001808311610e8657829003601f168201915b50505050509050919050565b6000828152600a6020526040902060010154610ecb8133611284565b61065a8383611371565b6000600160e060020a031982167f7965db0b0000000000000000000000000000000000000000000000000000000014806103e257506103e282611428565b6000818152600460205260409020805473ffffffffffffffffffffffffffffffffffffffff1916600160a060020a0384169081179091558190610f55826108b5565b600160a060020a03167f8c5be1e5ebec7d5bd14f71427d1e84f3dd0314c0f7b2291e5b200ac8c7c3b92560405160405180910390a45050565b600081815260026020526040812054600160a060020a031661101b5760405160e560020a62461bcd02815260206004820152602c60248201527f4552433732313a206f70657261746f7220717565727920666f72206e6f6e657860448201527f697374656e7420746f6b656e00000000000000000000000000000000000000006064820152608401610503565b6000611026836108b5565b905080600160a060020a031684600160a060020a03161480611061575083600160a060020a03166110568461047a565b600160a060020a0316145b806110915750600160a060020a0380821660009081526005602090815260408083209388168352929052205460ff165b949350505050565b82600160a060020a03166110ac826108b5565b600160a060020a03161461112b5760405160e560020a62461bcd02815260206004820152602960248201527f4552433732313a207472616e73666572206f6620746f6b656e2074686174206960448201527f73206e6f74206f776e00000000000000000000000000000000000000000000006064820152608401610503565b600160a060020a0382166111a95760405160e560020a62461bcd028152602060048201526024808201527f4552433732313a207472616e7366657220746f20746865207a65726f2061646460448201527f72657373000000000000000000000000000000000000000000000000000000006064820152608401610503565b6111b4838383611466565b6111bf600082610f13565b600160a060020a03831660009081526003602052604081208054600192906111e8908490612130565b9091555050600160a060020a0382166000908152600360205260408120805460019290611216908490612147565b9091555050600081815260026020526040808220805473ffffffffffffffffffffffffffffffffffffffff1916600160a060020a0386811691821790925591518493918716917fddf252ad1be2c89b69c2b068fc378daa952ba7f163c4a11628f55a4df523b3ef91a4505050565b61128e8282610c45565b6107ef576112a681600160a060020a03166014611471565b6112b1836020611471565b6040516020016112c292919061215f565b60408051601f198184030181529082905260e560020a62461bcd02825261050391600401611d99565b6112f58282610c45565b6107ef576000828152600a60209081526040808320600160a060020a03851684529091529020805460ff1916600117905561132d3390565b600160a060020a031681600160a060020a0316837f2f8788117e7eff1d82e926ec794901d17c78024a50270940304540a733656f0d60405160405180910390a45050565b61137b8282610c45565b156107ef576000828152600a60209081526040808320600160a060020a0385168085529252808320805460ff1916905551339285917ff6391f5c32d9c69d2a47ea670b442974b53935d1edc7fd64eb21e047a839171b9190a45050565b6107ef8282604051806020016040528060008152506116c2565b6113fd848484611099565b611409848484846116f8565b610d7b5760405160e560020a62461bcd028152600401610503906121e0565b6000600160e060020a031982167f780e9d630000000000000000000000000000000000000000000000000000000014806103e257506103e28261182e565b61065a8383836118c9565b6060600061148083600261223d565b61148b906002612147565b67ffffffffffffffff8111156114a3576114a3611e73565b6040519080825280601f01601f1916602001820160405280156114cd576020820181803683370190505b5090507f300000000000000000000000000000000000000000000000000000000000000081600081518110611504576115046120e2565b60200101907effffffffffffffffffffffffffffffffffffffffffffffffffffffffffffff1916908160001a9053507f780000000000000000000000000000000000000000000000000000000000000081600181518110611567576115676120e2565b60200101907effffffffffffffffffffffffffffffffffffffffffffffffffffffffffffff1916908160001a90535060006115a384600261223d565b6115ae906001612147565b90505b6001811115611669577f303132333435363738396162636465660000000000000000000000000000000085600f16601081106115ef576115ef6120e2565b1a7f010000000000000000000000000000000000000000000000000000000000000002828281518110611624576116246120e2565b60200101907effffffffffffffffffffffffffffffffffffffffffffffffffffffffffffff1916908160001a9053506010909404936116628161225c565b90506115b1565b5083156116bb5760405160e560020a62461bcd02815260206004820181905260248201527f537472696e67733a20686578206c656e67746820696e73756666696369656e746044820152606401610503565b9392505050565b6116cc8383611981565b6116d960008484846116f8565b61065a5760405160e560020a62461bcd028152600401610503906121e0565b6000600160a060020a0384163b15611823576040517f150b7a02000000000000000000000000000000000000000000000000000000008152600160a060020a0385169063150b7a0290611755903390899088908890600401612273565b6020604051808303816000875af1925050508015611790575060408051601f3d908101601f1916820190925261178d918101906122af565b60015b6117f0573d8080156117be576040519150601f19603f3d011682016040523d82523d6000602084013e6117c3565b606091505b5080516000036117e85760405160e560020a62461bcd028152600401610503906121e0565b805181602001fd5b600160e060020a0319167f150b7a0200000000000000000000000000000000000000000000000000000000149050611091565b506001949350505050565b6000600160e060020a031982167f80ac58cd0000000000000000000000000000000000000000000000000000000014806118915750600160e060020a031982167f5b5e139f00000000000000000000000000000000000000000000000000000000145b806103e257507f01ffc9a700000000000000000000000000000000000000000000000000000000600160e060020a03198316146103e2565b600160a060020a0383166119245761191f81600880546000838152600960205260408120829055600182018355919091527ff3f7a9fe364faab93b216da50a3214154f22a0a2b415b23a84c8169e8b636ee30155565b611947565b81600160a060020a031683600160a060020a031614611947576119478382611ae2565b600160a060020a03821661195e5761065a81611b7f565b82600160a060020a031682600160a060020a03161461065a5761065a8282611c2e565b600160a060020a0382166119da5760405160e560020a62461bcd02815260206004820181905260248201527f4552433732313a206d696e7420746f20746865207a65726f20616464726573736044820152606401610503565b600081815260026020526040902054600160a060020a031615611a425760405160e560020a62461bcd02815260206004820152601c60248201527f4552433732313a20746f6b656e20616c7265616479206d696e746564000000006044820152606401610503565b611a4e60008383611466565b600160a060020a0382166000908152600360205260408120805460019290611a77908490612147565b9091555050600081815260026020526040808220805473ffffffffffffffffffffffffffffffffffffffff1916600160a060020a03861690811790915590518392907fddf252ad1be2c89b69c2b068fc378daa952ba7f163c4a11628f55a4df523b3ef908290a45050565b60006001611aef84610ba8565b611af99190612130565b600083815260076020526040902054909150808214611b4c57600160a060020a03841660009081526006602090815260408083208584528252808320548484528184208190558352600790915290208190555b506000918252600760209081526040808420849055600160a060020a039094168352600681528383209183525290812055565b600854600090611b9190600190612130565b60008381526009602052604081205460088054939450909284908110611bb957611bb96120e2565b906000526020600020015490508060088381548110611bda57611bda6120e2565b6000918252602080832090910192909255828152600990915260408082208490558582528120556008805480611c1257611c126122cc565b6001900381819060005260206000200160009055905550505050565b6000611c3983610ba8565b600160a060020a039093166000908152600660209081526040808320868452825280832085905593825260079052919091209190915550565b828054611c7e90612048565b90600052602060002090601f016020900481019282611ca05760008555611ce6565b82601f10611cb957805160ff1916838001178555611ce6565b82800160010185558215611ce6579182015b82811115611ce6578251825591602001919060010190611ccb565b50611cf2929150611cf6565b5090565b5b80821115611cf25760008155600101611cf7565b600160e060020a031981168114611d2157600080fd5b50565b600060208284031215611d3657600080fd5b81356116bb81611d0b565b60005b83811015611d5c578181015183820152602001611d44565b83811115610d7b5750506000910152565b60008151808452611d85816020860160208601611d41565b601f01601f19169290920160200192915050565b6020815260006116bb6020830184611d6d565b600060208284031215611dbe57600080fd5b5035919050565b8035600160a060020a0381168114611ddc57600080fd5b919050565b60008060408385031215611df457600080fd5b611dfd83611dc5565b946020939093013593505050565b600080600060608486031215611e2057600080fd5b611e2984611dc5565b9250611e3760208501611dc5565b9150604084013590509250925092565b60008060408385031215611e5a57600080fd5b82359150611e6a60208401611dc5565b90509250929050565b60e060020a634e487b7102600052604160045260246000fd5b600067ffffffffffffffff80841115611ea757611ea7611e73565b604051601f8501601f19908116603f01168101908282118183101715611ecf57611ecf611e73565b81604052809350858152868686011115611ee857600080fd5b858560208301376000602087830101525050509392505050565b600060208284031215611f1457600080fd5b813567ffffffffffffffff811115611f2b57600080fd5b8201601f81018413611f3c57600080fd5b61109184823560208401611e8c565b600060208284031215611f5d57600080fd5b6116bb82611dc5565b60008060408385031215611f7957600080fd5b611f8283611dc5565b915060208301358015158114611f9757600080fd5b809150509250929050565b60008060008060808587031215611fb857600080fd5b611fc185611dc5565b9350611fcf60208601611dc5565b925060408501359150606085013567ffffffffffffffff811115611ff257600080fd5b8501601f8101871361200357600080fd5b61201287823560208401611e8c565b91505092959194509250565b6000806040838503121561203157600080fd5b61203a83611dc5565b9150611e6a60208401611dc5565b60028104600182168061205c57607f821691505b60208210810361207f5760e060020a634e487b7102600052602260045260246000fd5b50919050565b60208082526031908201527f4552433732313a207472616e736665722063616c6c6572206973206e6f74206f60408201527f776e6572206e6f7220617070726f766564000000000000000000000000000000606082015260800190565b60e060020a634e487b7102600052603260045260246000fd5b6000825161210d818460208701611d41565b9190910192915050565b60e060020a634e487b7102600052601160045260246000fd5b60008282101561214257612142612117565b500390565b6000821982111561215a5761215a612117565b500190565b7f416363657373436f6e74726f6c3a206163636f756e7420000000000000000000815260008351612197816017850160208801611d41565b7f206973206d697373696e6720726f6c652000000000000000000000000000000060179184019182015283516121d4816028840160208801611d41565b01602801949350505050565b60208082526032908201527f4552433732313a207472616e7366657220746f206e6f6e20455243373231526560408201527f63656976657220696d706c656d656e7465720000000000000000000000000000606082015260800190565b600081600019048311821515161561225757612257612117565b500290565b60008161226b5761226b612117565b506000190190565b6000600160a060020a038087168352808616602084015250836040830152608060608301526122a56080830184611d6d565b9695505050505050565b6000602082840312156122c157600080fd5b81516116bb81611d0b565b60e060020a634e487b7102600052603160045260246000fdfea2646970667358221220abe945147ca3b10b424d34ae488a2f6284fc042ccbd99610e75b5488d0598fae64736f6c634300080e0033a264697066735822122074e2fef537654e1f256044085a8c631d7b377f22de2ce2a17e4b8274a527b39f64736f6c634300080e0033",
  "immutableReferences": {},
  "source": "// SPDX-License-Identifier: MIT\r\npragma solidity ^0.8.0;\r\n\r\n// import \"@openzeppelin/contracts/access/Ownable.sol\";\r\nimport '@openzeppelin/contracts/utils/math/SafeMath.sol';\r\n//import '@openzeppelin/contracts/token/ERC721/IERC721.sol';\r\n\r\nimport './NFTCollection.sol';\r\n\r\ncontract Marketplace {\r\n    using SafeMath for uint256;\r\n    bytes32 public constant MINTER_ROLE = keccak256('MINTER_ROLE');\r\n\r\n    // Ownable: to handle fees and withdraw\r\n\r\n    // Actions:\r\n    // Submit offer\r\n    // Cancel offer\r\n    // Bid - use time-machine\r\n    // Finish offer (fee)\r\n\r\n    // Fees\r\n    // TODO : ask about fees decimal value\r\n    uint256 public constant FEE_SELL_PERCENTAGE = 3; // percentage of buy price\r\n\r\n    // Enums\r\n    enum AuctionType {\r\n        FixedPrice, // buy it now only\r\n        Dutch, // (not used for now)\r\n        English // (not used for now)\r\n    }\r\n\r\n    enum AuctionStatus {\r\n        //Approved, // ready for use\r\n        Running, // in progress\r\n        Closed, // closed with no buyer, need to revert funds\r\n        Finished, // finished with buyer, need to revert funds\r\n        Cancelled // canceled by seller, need to revert funds\r\n    }\r\n\r\n    // Definitions\r\n    struct AuctionItem {\r\n        address ownerAddress;\r\n        address collectionAddress;\r\n        uint256 auctionId; // auction Id, is generated\r\n        uint256 id; // token Id, is given\r\n        uint256 buyItNowPrice; // buy now buyItNowPrice in case of type FixedPrice. Zero means - no buy now. Mandatory if Fixed price\r\n        uint256 reservedPrice; // buy out price below which the sell cannot happend (not used for now)\r\n        uint256 initialPrice; // starting auction price (not used for now)\r\n        uint256 minBidStep; // minimum allowed bid step. Zero means - no min (not used for now)\r\n        uint256 maxBidStep; // maximum allowed bid step. Zero means - no max (not used for now)\r\n        AuctionStatus auctionStatus;\r\n        AuctionType auctionType;\r\n    }\r\n\r\n    struct CollectionItem {\r\n        uint256 collectionId; // TODO : Check if needed\r\n        address collectionAddress; // ERC721 token of the collection\r\n        address ownerAddress;\r\n    }\r\n\r\n    // properties\r\n    // msg.sender => generated funds\r\n    mapping(address => uint256) public userFunds; // contains funds per user generated from sales. Bids will stored in other way\r\n\r\n    // -- Events\r\n    // emitted when an auction is craated\r\n    event onAuctionCreated(uint256 indexed auctionId, uint256 indexed id);\r\n\r\n    // emitted when is cancelled by the seller\r\n    event onAuctionCancelled(uint256 indexed auctionId, uint256 indexed id);\r\n\r\n    // emitted when the acution is finsied with succesfull purchase\r\n    event onAuctionFinished(uint256 indexed auctionId, uint256 indexed id);\r\n\r\n    // emitted when an auction is closed with no buyer\r\n    event onAuctionClosed(uint256 indexed auctionId, uint256 indexed id);\r\n\r\n    // enitted when an auction is bidded\r\n    event onAuctionBid(uint256 indexed auctionId, uint256 bid);\r\n\r\n    // emitted when an user claims his funds\r\n    event onFundsClaimed(address indexed user, uint256 amount);\r\n\r\n    // emitted when a collection is created\r\n    event onCollectionCreated(uint256 indexed collectionId, address indexed collectionAddress, address indexed ownerAddress);\r\n    // --\r\n\r\n    // auctionId => AuctionItem\r\n    mapping(uint256 => AuctionItem) auctionStore;\r\n    // collectionId => CollectionItem\r\n    mapping(uint256 => CollectionItem) collectionStore;\r\n\r\n\r\n    uint256 public auctionCount = 0;\r\n    uint256 public collectionCount = 0;\r\n\r\n    mapping(address => mapping(uint256 => bool)) usercollections;\r\n    mapping(address => uint256[]) collectionToAcutions;\r\n\r\n\r\n\r\n    // TODO : Optimize field positions\r\n    // -- Auction fields\r\n    // --\r\n\r\n    // -- Collecction Fields\r\n    // ownerAddress => (collectionId => isOwner)\r\n\r\n    // Array of collection Contracts\r\n    // --\r\n\r\n    // collectionAddress => uint256[auctionId]\r\n\r\n    // -- Modifiers\r\n    modifier requireCollectionOwner(uint256 _collectionId) {\r\n        require(usercollections[msg.sender][_collectionId], 'Not collection owner');\r\n        _;\r\n    }\r\n\r\n    // --\r\n\r\n    // constructor() public {\r\n    //     // deploy NFT Collection contract\r\n    //     // add newly deployed contract to collection array\r\n    //     // _createCollection('TTM Collection', 'TTM', address(this), false);\r\n    // }\r\n\r\n    // -- Collection management\r\n    // function createCollection(string memory _name, string memory _symbol) public returns (address) {\r\n    //     return _createCollection(_name, _symbol);\r\n    // }\r\n\r\n    function createCollection(string memory _name, string memory _symbol) public returns (address) {\r\n        NFTCollection collectionContract = new NFTCollection(_name, _symbol);\r\n        // grant role\r\n        collectionContract.grantRole(MINTER_ROLE, msg.sender);\r\n        // approve the creator by default\r\n        collectionContract.setApprovalForAll(msg.sender, true);\r\n\r\n        address _collectionAddress = address(collectionContract);\r\n\r\n        uint256 _collectionId = collectionCount;\r\n        collectionStore[_collectionId] = CollectionItem(_collectionId, _collectionAddress, msg.sender);\r\n        collectionCount = collectionCount.add(1);\r\n\r\n        usercollections[msg.sender][_collectionId] = true;\r\n\r\n        emit onCollectionCreated(_collectionId, _collectionAddress, msg.sender);\r\n\r\n        return _collectionAddress;\r\n    }\r\n\r\n    function getCollection(uint256 _collectionId) public view returns (CollectionItem memory) {\r\n        return collectionStore[_collectionId];\r\n    }\r\n\r\n    // get items for collection (filters) TODO: think of EF like logic\r\n    // get top items from collection ???\r\n    // --\r\n\r\n    // -- Auction Management\r\n    function createAuction(\r\n        address _collectionAddress,\r\n        uint256 _id,\r\n        uint256 _buyItNowPrice\r\n    ) public {\r\n        // transfer token to the market (this)\r\n        NFTCollection nftCollection = NFTCollection(_collectionAddress);\r\n        // nftCollection.transferFrom(msg.sender, address(this), _id); // TODO : use approve !!!\r\n\r\n        // TODO : require token owner to be msg.sender\r\n        require(msg.sender == nftCollection.ownerOf(_id), 'Not token owner');\r\n\r\n        // the token owner is checked above\r\n\r\n        // create auction\r\n        uint256 _auctionId = auctionCount;\r\n        auctionStore[_auctionId] = AuctionItem({\r\n            ownerAddress: msg.sender,\r\n            collectionAddress: _collectionAddress,\r\n            auctionId: _auctionId,\r\n            id: _id,\r\n            buyItNowPrice: _buyItNowPrice,\r\n            reservedPrice: 0,\r\n            initialPrice: 0,\r\n            minBidStep: 0,\r\n            maxBidStep: 0,\r\n            auctionStatus: AuctionStatus.Running,\r\n            auctionType: AuctionType.FixedPrice\r\n        });\r\n\r\n        auctionCount = auctionCount.add(1);\r\n\r\n        collectionToAcutions[_collectionAddress].push(_auctionId);\r\n\r\n        emit onAuctionCreated(_auctionId, _id);\r\n    }\r\n\r\n    function getAuction(uint256 _auctionId) public view returns (AuctionItem memory) {\r\n        return auctionStore[_auctionId];\r\n    }\r\n\r\n    // buy it now - handle user funds?\r\n    function buyNowAuction(uint256 _auctionId) public payable {\r\n        AuctionItem storage _auction = auctionStore[_auctionId];\r\n\r\n        require(_auction.auctionId == _auctionId, 'Auction does not exists');\r\n        require(_auction.ownerAddress != msg.sender, 'Auction owner cannot buy it');\r\n        require(_auction.auctionStatus == AuctionStatus.Running, 'Auction is not running');\r\n        require(_auction.buyItNowPrice > 0, 'Buy now is not allowed');\r\n\r\n        require(msg.value == _auction.buyItNowPrice, 'Insufficient funds');\r\n\r\n        uint256 fee = msg.value.mul(FEE_SELL_PERCENTAGE).div(100);\r\n\r\n        NFTCollection nftCollection = NFTCollection(_auction.collectionAddress);\r\n        nftCollection.transferFrom(address(this), msg.sender, _auction.id);\r\n        _auction.auctionStatus = AuctionStatus.Finished;\r\n        uint256 userFund = msg.value.sub(fee);\r\n        userFunds[_auction.ownerAddress] = userFunds[_auction.ownerAddress].add(userFund);\r\n\r\n        // TODO : Handle bids\r\n        // TODO : Handle buy request\r\n\r\n        emit onAuctionFinished(_auctionId, _auction.id);\r\n    }\r\n\r\n    // cancel auction (auction owner) - handle user funds?\r\n    function cancelAuction(uint256 _auctionId) public {\r\n        AuctionItem storage _auction = auctionStore[_auctionId];\r\n\r\n        require(_auction.auctionId == _auctionId, 'Auction does not exists');\r\n        require(_auction.ownerAddress == msg.sender, 'Auction owner cannot cancel it');\r\n        require(_auction.auctionStatus == AuctionStatus.Running, 'Auction is not running');\r\n\r\n        NFTCollection nftCollection = NFTCollection(_auction.collectionAddress);\r\n        nftCollection.transferFrom(address(this), msg.sender, _auction.id);\r\n        _auction.auctionStatus = AuctionStatus.Cancelled;\r\n\r\n        // TODO : Handle bids\r\n        // TODO : Handle buy request\r\n\r\n        emit onAuctionCancelled(_auctionId, _auction.id);\r\n    }\r\n\r\n    // --\r\n\r\n    // -- Auction handling\r\n    // elapse ??? possible ReentrancyGuard\r\n    // --\r\n\r\n    // -- Auction actions\r\n    // bid - handle user funds?\r\n    function bid() public payable {\r\n        // not supported\r\n        revert();\r\n        // emit onAuctionBid()\r\n    }\r\n\r\n    // --\r\n\r\n    function claimFunds() public {\r\n        require(userFunds[msg.sender] > 0, 'This user has no funds to be claimed');\r\n\r\n        uint256 fundsToClaim = userFunds[msg.sender];\r\n        userFunds[msg.sender] = 0;\r\n        payable(msg.sender).transfer(fundsToClaim);\r\n\r\n        emit onFundsClaimed(msg.sender, fundsToClaim);\r\n    }\r\n\r\n    // Fallback: reverts if Ether is sent to this smart-contract by mistake\r\n    fallback() external {\r\n        revert();\r\n    }\r\n}\r\n",
  "sourcePath": "C:\\github\\trayanm\\TTMMarket\\src\\contracts\\MarketPlace.sol",
  "compiler": {
    "name": "solc",
    "version": "0.8.14+commit.80d49f37.Emscripten.clang"
  },
  "schemaVersion": "3.4.7",
  "updatedAt": "2022-06-14T17:39:14.519Z",
  "networkType": "ethereum",
  "devdoc": {
    "kind": "dev",
    "methods": {},
    "version": 1
  },
  "userdoc": {
    "kind": "user",
    "methods": {},
    "version": 1
  }
}