{
  "contractName": "Marketplace",
  "abi": [
    {
      "inputs": [],
      "stateMutability": "nonpayable",
      "type": "constructor"
    },
    {
      "anonymous": false,
      "inputs": [
        {
          "indexed": true,
          "internalType": "uint256",
          "name": "auctionId",
          "type": "uint256"
        },
        {
          "indexed": false,
          "internalType": "uint256",
          "name": "bid",
          "type": "uint256"
        }
      ],
      "name": "onAuctionBid",
      "type": "event"
    },
    {
      "anonymous": false,
      "inputs": [
        {
          "indexed": true,
          "internalType": "uint256",
          "name": "auctionId",
          "type": "uint256"
        },
        {
          "indexed": true,
          "internalType": "uint256",
          "name": "id",
          "type": "uint256"
        }
      ],
      "name": "onAuctionCancelled",
      "type": "event"
    },
    {
      "anonymous": false,
      "inputs": [
        {
          "indexed": true,
          "internalType": "uint256",
          "name": "auctionId",
          "type": "uint256"
        },
        {
          "indexed": true,
          "internalType": "uint256",
          "name": "id",
          "type": "uint256"
        }
      ],
      "name": "onAuctionClosed",
      "type": "event"
    },
    {
      "anonymous": false,
      "inputs": [
        {
          "indexed": true,
          "internalType": "uint256",
          "name": "auctionId",
          "type": "uint256"
        },
        {
          "indexed": true,
          "internalType": "uint256",
          "name": "id",
          "type": "uint256"
        }
      ],
      "name": "onAuctionCreated",
      "type": "event"
    },
    {
      "anonymous": false,
      "inputs": [
        {
          "indexed": true,
          "internalType": "uint256",
          "name": "auctionId",
          "type": "uint256"
        },
        {
          "indexed": true,
          "internalType": "uint256",
          "name": "id",
          "type": "uint256"
        }
      ],
      "name": "onAuctionFinished",
      "type": "event"
    },
    {
      "anonymous": false,
      "inputs": [
        {
          "indexed": true,
          "internalType": "uint256",
          "name": "collectionId",
          "type": "uint256"
        },
        {
          "indexed": true,
          "internalType": "address",
          "name": "collectionAddress",
          "type": "address"
        },
        {
          "indexed": true,
          "internalType": "address",
          "name": "ownerAddress",
          "type": "address"
        }
      ],
      "name": "onCollectionCreated",
      "type": "event"
    },
    {
      "anonymous": false,
      "inputs": [
        {
          "indexed": true,
          "internalType": "address",
          "name": "user",
          "type": "address"
        },
        {
          "indexed": false,
          "internalType": "uint256",
          "name": "amount",
          "type": "uint256"
        }
      ],
      "name": "onFundsClaimed",
      "type": "event"
    },
    {
      "stateMutability": "nonpayable",
      "type": "fallback"
    },
    {
      "inputs": [],
      "name": "FEE_SELL_PERCENTAGE",
      "outputs": [
        {
          "internalType": "uint256",
          "name": "",
          "type": "uint256"
        }
      ],
      "stateMutability": "view",
      "type": "function"
    },
    {
      "inputs": [],
      "name": "MINTER_ROLE",
      "outputs": [
        {
          "internalType": "bytes32",
          "name": "",
          "type": "bytes32"
        }
      ],
      "stateMutability": "view",
      "type": "function"
    },
    {
      "inputs": [],
      "name": "auctionCount",
      "outputs": [
        {
          "internalType": "uint256",
          "name": "",
          "type": "uint256"
        }
      ],
      "stateMutability": "view",
      "type": "function"
    },
    {
      "inputs": [],
      "name": "collectionCount",
      "outputs": [
        {
          "internalType": "uint256",
          "name": "",
          "type": "uint256"
        }
      ],
      "stateMutability": "view",
      "type": "function"
    },
    {
      "inputs": [
        {
          "internalType": "address",
          "name": "",
          "type": "address"
        }
      ],
      "name": "userFunds",
      "outputs": [
        {
          "internalType": "uint256",
          "name": "",
          "type": "uint256"
        }
      ],
      "stateMutability": "view",
      "type": "function"
    },
    {
      "inputs": [
        {
          "internalType": "string",
          "name": "_name",
          "type": "string"
        },
        {
          "internalType": "string",
          "name": "_symbol",
          "type": "string"
        }
      ],
      "name": "createCollection",
      "outputs": [
        {
          "internalType": "address",
          "name": "",
          "type": "address"
        }
      ],
      "stateMutability": "nonpayable",
      "type": "function"
    },
    {
      "inputs": [
        {
          "internalType": "uint256",
          "name": "_collectionId",
          "type": "uint256"
        }
      ],
      "name": "getCollection",
      "outputs": [
        {
          "components": [
            {
              "internalType": "uint256",
              "name": "collectionId",
              "type": "uint256"
            },
            {
              "internalType": "address",
              "name": "collectionAddress",
              "type": "address"
            },
            {
              "internalType": "address",
              "name": "ownerAddress",
              "type": "address"
            },
            {
              "internalType": "bool",
              "name": "isUserCollection",
              "type": "bool"
            }
          ],
          "internalType": "struct Marketplace.CollectionItem",
          "name": "",
          "type": "tuple"
        }
      ],
      "stateMutability": "view",
      "type": "function"
    },
    {
      "inputs": [
        {
          "internalType": "address",
          "name": "_collectionAddress",
          "type": "address"
        },
        {
          "internalType": "uint256",
          "name": "_id",
          "type": "uint256"
        },
        {
          "internalType": "uint256",
          "name": "_buyItNowPrice",
          "type": "uint256"
        }
      ],
      "name": "createAuction",
      "outputs": [],
      "stateMutability": "nonpayable",
      "type": "function"
    },
    {
      "inputs": [
        {
          "internalType": "uint256",
          "name": "_auctionId",
          "type": "uint256"
        }
      ],
      "name": "getAuction",
      "outputs": [
        {
          "components": [
            {
              "internalType": "address",
              "name": "ownerAddress",
              "type": "address"
            },
            {
              "internalType": "address",
              "name": "collectionAddress",
              "type": "address"
            },
            {
              "internalType": "uint256",
              "name": "auctionId",
              "type": "uint256"
            },
            {
              "internalType": "uint256",
              "name": "id",
              "type": "uint256"
            },
            {
              "internalType": "uint256",
              "name": "buyItNowPrice",
              "type": "uint256"
            },
            {
              "internalType": "uint256",
              "name": "reservedPrice",
              "type": "uint256"
            },
            {
              "internalType": "uint256",
              "name": "initialPrice",
              "type": "uint256"
            },
            {
              "internalType": "uint256",
              "name": "minBidStep",
              "type": "uint256"
            },
            {
              "internalType": "uint256",
              "name": "maxBidStep",
              "type": "uint256"
            },
            {
              "internalType": "enum Marketplace.AuctionStatus",
              "name": "auctionStatus",
              "type": "uint8"
            },
            {
              "internalType": "enum Marketplace.AuctionType",
              "name": "auctionType",
              "type": "uint8"
            }
          ],
          "internalType": "struct Marketplace.AuctionItem",
          "name": "",
          "type": "tuple"
        }
      ],
      "stateMutability": "view",
      "type": "function"
    },
    {
      "inputs": [
        {
          "internalType": "uint256",
          "name": "_auctionId",
          "type": "uint256"
        }
      ],
      "name": "buyNowAuction",
      "outputs": [],
      "stateMutability": "payable",
      "type": "function"
    },
    {
      "inputs": [
        {
          "internalType": "uint256",
          "name": "_auctionId",
          "type": "uint256"
        }
      ],
      "name": "cancelAuction",
      "outputs": [],
      "stateMutability": "nonpayable",
      "type": "function"
    },
    {
      "inputs": [],
      "name": "bid",
      "outputs": [],
      "stateMutability": "payable",
      "type": "function"
    },
    {
      "inputs": [],
      "name": "claimFunds",
      "outputs": [],
      "stateMutability": "nonpayable",
      "type": "function"
    }
  ],
  "bytecode": "0x60806040526000600255600060055534801561001a57600080fd5b506167738061002a6000396000f3fe608060405260043610620000d95760003560e01c806396b5a755116200008b578063ac3077731162000061578063ac30777314620002c4578063d539139314620002de578063d57f966b146200030e578063e324bd1f146200033e57620000da565b806396b5a755146200023857806399370fea1462000266578063abb94051146200029657620000da565b8063176b9b7514620000ec5780631998aeef14620001305780632ad71573146200013c5780635a1f3c28146200016c57806378bd793514620001b05780638387c6e114620001f457620000da565b5b348015620000e757600080fd5b600080fd5b348015620000f957600080fd5b50620001186004803603810190620001129190620018bc565b6200035e565b60405162000127919062001986565b60405180910390f35b6200013a62000377565b005b3480156200014957600080fd5b50620001546200037c565b604051620001639190620019be565b60405180910390f35b3480156200017957600080fd5b5062000198600480360381019062000192919062001a0c565b62000382565b604051620001a7919062001ada565b60405180910390f35b348015620001bd57600080fd5b50620001dc6004803603810190620001d6919062001a0c565b62000482565b604051620001eb919062001cbf565b60405180910390f35b3480156200020157600080fd5b506200022060048036038101906200021a919062001d0e565b62000626565b6040516200022f9190620019be565b60405180910390f35b3480156200024557600080fd5b506200026460048036038101906200025e919062001a0c565b6200063e565b005b3480156200027357600080fd5b506200027e620008bb565b6040516200028d9190620019be565b60405180910390f35b348015620002a357600080fd5b50620002c26004803603810190620002bc919062001d40565b620008c0565b005b348015620002d157600080fd5b50620002dc62000c6f565b005b348015620002eb57600080fd5b50620002f662000e15565b60405162000305919062001db7565b60405180910390f35b3480156200031b57600080fd5b506200032662000e39565b604051620003359190620019be565b60405180910390f35b6200035c600480360381019062000356919062001a0c565b62000e3f565b005b60006200036f838333600162001276565b905092915050565b600080fd5b60025481565b6200038c62001632565b60046000838152602001908152602001600020604051806080016040529081600082015481526020016001820160009054906101000a900473ffffffffffffffffffffffffffffffffffffffff1673ffffffffffffffffffffffffffffffffffffffff1673ffffffffffffffffffffffffffffffffffffffff1681526020016002820160009054906101000a900473ffffffffffffffffffffffffffffffffffffffff1673ffffffffffffffffffffffffffffffffffffffff1673ffffffffffffffffffffffffffffffffffffffff1681526020016002820160149054906101000a900460ff1615151515815250509050919050565b6200048c62001688565b60016000838152602001908152602001600020604051806101600160405290816000820160009054906101000a900473ffffffffffffffffffffffffffffffffffffffff1673ffffffffffffffffffffffffffffffffffffffff1673ffffffffffffffffffffffffffffffffffffffff1681526020016001820160009054906101000a900473ffffffffffffffffffffffffffffffffffffffff1673ffffffffffffffffffffffffffffffffffffffff1673ffffffffffffffffffffffffffffffffffffffff168152602001600282015481526020016003820154815260200160048201548152602001600582015481526020016006820154815260200160078201548152602001600882015481526020016009820160009054906101000a900460ff166003811115620005c557620005c462001af7565b5b6003811115620005da57620005d962001af7565b5b81526020016009820160019054906101000a900460ff16600281111562000606576200060562001af7565b5b60028111156200061b576200061a62001af7565b5b815250509050919050565b60006020528060005260406000206000915090505481565b6000600160008381526020019081526020016000209050818160020154146200069e576040517f08c379a0000000000000000000000000000000000000000000000000000000008152600401620006959062001e35565b60405180910390fd5b3373ffffffffffffffffffffffffffffffffffffffff168160000160009054906101000a900473ffffffffffffffffffffffffffffffffffffffff1673ffffffffffffffffffffffffffffffffffffffff161462000733576040517f08c379a00000000000000000000000000000000000000000000000000000000081526004016200072a9062001ea7565b60405180910390fd5b600060038111156200074a576200074962001af7565b5b8160090160009054906101000a900460ff16600381111562000771576200077062001af7565b5b14620007b4576040517f08c379a0000000000000000000000000000000000000000000000000000000008152600401620007ab9062001f19565b60405180910390fd5b60008160010160009054906101000a900473ffffffffffffffffffffffffffffffffffffffff1690508073ffffffffffffffffffffffffffffffffffffffff166323b872dd303385600301546040518463ffffffff1660e01b8152600401620008209392919062001f3b565b600060405180830381600087803b1580156200083b57600080fd5b505af115801562000850573d6000803e3d6000fd5b5050505060038260090160006101000a81548160ff021916908360038111156200087f576200087e62001af7565b5b02179055508160030154837f9c31dd0dfb89b9b275633c46be4dc396661364ff715b47b8ae06201681e7ebc360405160405180910390a3505050565b600381565b60008390508073ffffffffffffffffffffffffffffffffffffffff16636352211e846040518263ffffffff1660e01b8152600401620009009190620019be565b602060405180830381865afa1580156200091e573d6000803e3d6000fd5b505050506040513d601f19601f8201168201806040525081019062000944919062001f8f565b73ffffffffffffffffffffffffffffffffffffffff163373ffffffffffffffffffffffffffffffffffffffff1614620009b4576040517f08c379a0000000000000000000000000000000000000000000000000000000008152600401620009ab9062002011565b60405180910390fd5b600060025490506040518061016001604052803373ffffffffffffffffffffffffffffffffffffffff1681526020018673ffffffffffffffffffffffffffffffffffffffff168152602001828152602001858152602001848152602001600081526020016000815260200160008152602001600081526020016000600381111562000a445762000a4362001af7565b5b81526020016000600281111562000a605762000a5f62001af7565b5b8152506001600083815260200190815260200160002060008201518160000160006101000a81548173ffffffffffffffffffffffffffffffffffffffff021916908373ffffffffffffffffffffffffffffffffffffffff16021790555060208201518160010160006101000a81548173ffffffffffffffffffffffffffffffffffffffff021916908373ffffffffffffffffffffffffffffffffffffffff16021790555060408201518160020155606082015181600301556080820151816004015560a0820151816005015560c0820151816006015560e0820151816007015561010082015181600801556101208201518160090160006101000a81548160ff0219169083600381111562000b7a5762000b7962001af7565b5b02179055506101408201518160090160016101000a81548160ff0219169083600281111562000bae5762000bad62001af7565b5b021790555090505062000bce6001600254620015d290919063ffffffff16565b600281905550600660008673ffffffffffffffffffffffffffffffffffffffff1673ffffffffffffffffffffffffffffffffffffffff16815260200190815260200160002081908060018154018082558091505060019003906000526020600020016000909190919091505583817fd086c941db0dfd32e8d65552faa1a349d3c3fc18b2235a0fe20be668c81feee060405160405180910390a35050505050565b60008060003373ffffffffffffffffffffffffffffffffffffffff1673ffffffffffffffffffffffffffffffffffffffff168152602001908152602001600020541162000cf3576040517f08c379a000000000000000000000000000000000000000000000000000000000815260040162000cea90620020a9565b60405180910390fd5b60008060003373ffffffffffffffffffffffffffffffffffffffff1673ffffffffffffffffffffffffffffffffffffffff16815260200190815260200160002054905060008060003373ffffffffffffffffffffffffffffffffffffffff1673ffffffffffffffffffffffffffffffffffffffff168152602001908152602001600020819055503373ffffffffffffffffffffffffffffffffffffffff166108fc829081150290604051600060405180830381858888f1935050505015801562000dc1573d6000803e3d6000fd5b503373ffffffffffffffffffffffffffffffffffffffff167f1c355404524eaedf23f07edd324a42ac9a04ef403aa580df4c39547b42566d8f8260405162000e0a9190620019be565b60405180910390a250565b7f9f2df0fed2c77648de5860a4cc508cd0818c85b8b8a1ab4ceeef8d981c8956a681565b60055481565b60006001600083815260200190815260200160002090508181600201541462000e9f576040517f08c379a000000000000000000000000000000000000000000000000000000000815260040162000e969062001e35565b60405180910390fd5b3373ffffffffffffffffffffffffffffffffffffffff168160000160009054906101000a900473ffffffffffffffffffffffffffffffffffffffff1673ffffffffffffffffffffffffffffffffffffffff160362000f34576040517f08c379a000000000000000000000000000000000000000000000000000000000815260040162000f2b906200211b565b60405180910390fd5b6000600381111562000f4b5762000f4a62001af7565b5b8160090160009054906101000a900460ff16600381111562000f725762000f7162001af7565b5b1462000fb5576040517f08c379a000000000000000000000000000000000000000000000000000000000815260040162000fac9062001f19565b60405180910390fd5b600081600401541162000fff576040517f08c379a000000000000000000000000000000000000000000000000000000000815260040162000ff6906200218d565b60405180910390fd5b8060040154341462001048576040517f08c379a00000000000000000000000000000000000000000000000000000000081526004016200103f90620021ff565b60405180910390fd5b600062001075606462001066600334620015ea90919063ffffffff16565b6200160290919063ffffffff16565b905060008260010160009054906101000a900473ffffffffffffffffffffffffffffffffffffffff1690508073ffffffffffffffffffffffffffffffffffffffff166323b872dd303386600301546040518463ffffffff1660e01b8152600401620010e39392919062001f3b565b600060405180830381600087803b158015620010fe57600080fd5b505af115801562001113573d6000803e3d6000fd5b5050505060028360090160006101000a81548160ff0219169083600381111562001142576200114162001af7565b5b021790555060006200115e83346200161a90919063ffffffff16565b9050620011d7816000808760000160009054906101000a900473ffffffffffffffffffffffffffffffffffffffff1673ffffffffffffffffffffffffffffffffffffffff1673ffffffffffffffffffffffffffffffffffffffff16815260200190815260200160002054620015d290919063ffffffff16565b6000808660000160009054906101000a900473ffffffffffffffffffffffffffffffffffffffff1673ffffffffffffffffffffffffffffffffffffffff1673ffffffffffffffffffffffffffffffffffffffff168152602001908152602001600020819055508360030154857fac764b5e3093df07973820131c91169ffd8ac85fd2f8f7329bb83e8ba6299e7260405160405180910390a35050505050565b6000808585604051620012899062001738565b62001296929190620022a3565b604051809103906000f080158015620012b3573d6000803e3d6000fd5b5090508073ffffffffffffffffffffffffffffffffffffffff16632f2ff15d7f9f2df0fed2c77648de5860a4cc508cd0818c85b8b8a1ab4ceeef8d981c8956a6336040518363ffffffff1660e01b815260040162001313929190620022de565b600060405180830381600087803b1580156200132e57600080fd5b505af115801562001343573d6000803e3d6000fd5b505050508073ffffffffffffffffffffffffffffffffffffffff1663a22cb4653360016040518363ffffffff1660e01b8152600401620013859291906200231c565b600060405180830381600087803b158015620013a057600080fd5b505af1158015620013b5573d6000803e3d6000fd5b5050505060008190506000600554905060405180608001604052808281526020018373ffffffffffffffffffffffffffffffffffffffff1681526020018773ffffffffffffffffffffffffffffffffffffffff168152602001861515815250600460008381526020019081526020016000206000820151816000015560208201518160010160006101000a81548173ffffffffffffffffffffffffffffffffffffffff021916908373ffffffffffffffffffffffffffffffffffffffff16021790555060408201518160020160006101000a81548173ffffffffffffffffffffffffffffffffffffffff021916908373ffffffffffffffffffffffffffffffffffffffff16021790555060608201518160020160146101000a81548160ff021916908315150217905550905050620014fa6001600554620015d290919063ffffffff16565b6005819055506001600360008873ffffffffffffffffffffffffffffffffffffffff1673ffffffffffffffffffffffffffffffffffffffff168152602001908152602001600020600083815260200190815260200160002060006101000a81548160ff0219169083151502179055508573ffffffffffffffffffffffffffffffffffffffff168273ffffffffffffffffffffffffffffffffffffffff16827fecbe631ce73f784b71c74c5339317b59e203e339d6773c02526891b8063931c060405160405180910390a4819350505050949350505050565b60008183620015e2919062002378565b905092915050565b60008183620015fa9190620023d5565b905092915050565b6000818362001612919062002465565b905092915050565b600081836200162a91906200249d565b905092915050565b604051806080016040528060008152602001600073ffffffffffffffffffffffffffffffffffffffff168152602001600073ffffffffffffffffffffffffffffffffffffffff1681526020016000151581525090565b604051806101600160405280600073ffffffffffffffffffffffffffffffffffffffff168152602001600073ffffffffffffffffffffffffffffffffffffffff168152602001600081526020016000815260200160008152602001600081526020016000815260200160008152602001600081526020016000600381111562001716576200171562001af7565b5b81526020016000600281111562001732576200173162001af7565b5b81525090565b61426580620024d983390190565b6000604051905090565b600080fd5b600080fd5b600080fd5b600080fd5b6000601f19601f8301169050919050565b7f4e487b7100000000000000000000000000000000000000000000000000000000600052604160045260246000fd5b620017af8262001764565b810181811067ffffffffffffffff82111715620017d157620017d062001775565b5b80604052505050565b6000620017e662001746565b9050620017f48282620017a4565b919050565b600067ffffffffffffffff82111562001817576200181662001775565b5b620018228262001764565b9050602081019050919050565b82818337600083830152505050565b6000620018556200184f84620017f9565b620017da565b9050828152602081018484840111156200187457620018736200175f565b5b620018818482856200182f565b509392505050565b600082601f830112620018a157620018a06200175a565b5b8135620018b38482602086016200183e565b91505092915050565b60008060408385031215620018d657620018d562001750565b5b600083013567ffffffffffffffff811115620018f757620018f662001755565b5b620019058582860162001889565b925050602083013567ffffffffffffffff81111562001929576200192862001755565b5b620019378582860162001889565b9150509250929050565b600073ffffffffffffffffffffffffffffffffffffffff82169050919050565b60006200196e8262001941565b9050919050565b620019808162001961565b82525050565b60006020820190506200199d600083018462001975565b92915050565b6000819050919050565b620019b881620019a3565b82525050565b6000602082019050620019d56000830184620019ad565b92915050565b620019e681620019a3565b8114620019f257600080fd5b50565b60008135905062001a0681620019db565b92915050565b60006020828403121562001a255762001a2462001750565b5b600062001a3584828501620019f5565b91505092915050565b62001a4981620019a3565b82525050565b62001a5a8162001961565b82525050565b60008115159050919050565b62001a778162001a60565b82525050565b60808201600082015162001a95600085018262001a3e565b50602082015162001aaa602085018262001a4f565b50604082015162001abf604085018262001a4f565b50606082015162001ad4606085018262001a6c565b50505050565b600060808201905062001af1600083018462001a7d565b92915050565b7f4e487b7100000000000000000000000000000000000000000000000000000000600052602160045260246000fd5b6004811062001b3a5762001b3962001af7565b5b50565b600081905062001b4d8262001b26565b919050565b600062001b5f8262001b3d565b9050919050565b62001b718162001b52565b82525050565b6003811062001b8b5762001b8a62001af7565b5b50565b600081905062001b9e8262001b77565b919050565b600062001bb08262001b8e565b9050919050565b62001bc28162001ba3565b82525050565b6101608201600082015162001be1600085018262001a4f565b50602082015162001bf6602085018262001a4f565b50604082015162001c0b604085018262001a3e565b50606082015162001c20606085018262001a3e565b50608082015162001c35608085018262001a3e565b5060a082015162001c4a60a085018262001a3e565b5060c082015162001c5f60c085018262001a3e565b5060e082015162001c7460e085018262001a3e565b5061010082015162001c8b61010085018262001a3e565b5061012082015162001ca261012085018262001b66565b5061014082015162001cb961014085018262001bb7565b50505050565b60006101608201905062001cd7600083018462001bc8565b92915050565b62001ce88162001961565b811462001cf457600080fd5b50565b60008135905062001d088162001cdd565b92915050565b60006020828403121562001d275762001d2662001750565b5b600062001d378482850162001cf7565b91505092915050565b60008060006060848603121562001d5c5762001d5b62001750565b5b600062001d6c8682870162001cf7565b935050602062001d7f86828701620019f5565b925050604062001d9286828701620019f5565b9150509250925092565b6000819050919050565b62001db18162001d9c565b82525050565b600060208201905062001dce600083018462001da6565b92915050565b600082825260208201905092915050565b7f41756374696f6e20646f6573206e6f7420657869737473000000000000000000600082015250565b600062001e1d60178362001dd4565b915062001e2a8262001de5565b602082019050919050565b6000602082019050818103600083015262001e508162001e0e565b9050919050565b7f41756374696f6e206f776e65722063616e6e6f742063616e63656c2069740000600082015250565b600062001e8f601e8362001dd4565b915062001e9c8262001e57565b602082019050919050565b6000602082019050818103600083015262001ec28162001e80565b9050919050565b7f41756374696f6e206973206e6f742072756e6e696e6700000000000000000000600082015250565b600062001f0160168362001dd4565b915062001f0e8262001ec9565b602082019050919050565b6000602082019050818103600083015262001f348162001ef2565b9050919050565b600060608201905062001f52600083018662001975565b62001f61602083018562001975565b62001f706040830184620019ad565b949350505050565b60008151905062001f898162001cdd565b92915050565b60006020828403121562001fa85762001fa762001750565b5b600062001fb88482850162001f78565b91505092915050565b7f4e6f7420746f6b656e206f776e65720000000000000000000000000000000000600082015250565b600062001ff9600f8362001dd4565b9150620020068262001fc1565b602082019050919050565b600060208201905081810360008301526200202c8162001fea565b9050919050565b7f54686973207573657220686173206e6f2066756e647320746f20626520636c6160008201527f696d656400000000000000000000000000000000000000000000000000000000602082015250565b60006200209160248362001dd4565b91506200209e8262002033565b604082019050919050565b60006020820190508181036000830152620020c48162002082565b9050919050565b7f41756374696f6e206f776e65722063616e6e6f74206275792069740000000000600082015250565b600062002103601b8362001dd4565b91506200211082620020cb565b602082019050919050565b600060208201905081810360008301526200213681620020f4565b9050919050565b7f427579206e6f77206973206e6f7420616c6c6f77656400000000000000000000600082015250565b60006200217560168362001dd4565b915062002182826200213d565b602082019050919050565b60006020820190508181036000830152620021a88162002166565b9050919050565b7f496e73756666696369656e742066756e64730000000000000000000000000000600082015250565b6000620021e760128362001dd4565b9150620021f482620021af565b602082019050919050565b600060208201905081810360008301526200221a81620021d8565b9050919050565b600081519050919050565b60005b838110156200224c5780820151818401526020810190506200222f565b838111156200225c576000848401525b50505050565b60006200226f8262002221565b6200227b818562001dd4565b93506200228d8185602086016200222c565b620022988162001764565b840191505092915050565b60006040820190508181036000830152620022bf818562002262565b90508181036020830152620022d5818462002262565b90509392505050565b6000604082019050620022f5600083018562001da6565b62002304602083018462001975565b9392505050565b620023168162001a60565b82525050565b600060408201905062002333600083018562001975565b6200234260208301846200230b565b9392505050565b7f4e487b7100000000000000000000000000000000000000000000000000000000600052601160045260246000fd5b60006200238582620019a3565b91506200239283620019a3565b9250827fffffffffffffffffffffffffffffffffffffffffffffffffffffffffffffffff03821115620023ca57620023c962002349565b5b828201905092915050565b6000620023e282620019a3565b9150620023ef83620019a3565b9250817fffffffffffffffffffffffffffffffffffffffffffffffffffffffffffffffff04831182151516156200242b576200242a62002349565b5b828202905092915050565b7f4e487b7100000000000000000000000000000000000000000000000000000000600052601260045260246000fd5b60006200247282620019a3565b91506200247f83620019a3565b92508262002492576200249162002436565b5b828204905092915050565b6000620024aa82620019a3565b9150620024b783620019a3565b925082821015620024cd57620024cc62002349565b5b82820390509291505056fe60806040523480156200001157600080fd5b5060405162004265380380620042658339818101604052810190620000379190620004a2565b818181600090805190602001906200005192919062000255565b5080600190805190602001906200006a92919062000255565b505050620000916000801b62000085620000da60201b60201c565b620000e260201b60201c565b620000d27f9f2df0fed2c77648de5860a4cc508cd0818c85b8b8a1ab4ceeef8d981c8956a6620000c6620000da60201b60201c565b620000e260201b60201c565b50506200058b565b600033905090565b620000f48282620000f860201b60201c565b5050565b6200010a8282620001ea60201b60201c565b620001e6576001600a600084815260200190815260200160002060000160008373ffffffffffffffffffffffffffffffffffffffff1673ffffffffffffffffffffffffffffffffffffffff16815260200190815260200160002060006101000a81548160ff0219169083151502179055506200018b620000da60201b60201c565b73ffffffffffffffffffffffffffffffffffffffff168173ffffffffffffffffffffffffffffffffffffffff16837f2f8788117e7eff1d82e926ec794901d17c78024a50270940304540a733656f0d60405160405180910390a45b5050565b6000600a600084815260200190815260200160002060000160008373ffffffffffffffffffffffffffffffffffffffff1673ffffffffffffffffffffffffffffffffffffffff16815260200190815260200160002060009054906101000a900460ff16905092915050565b828054620002639062000556565b90600052602060002090601f016020900481019282620002875760008555620002d3565b82601f10620002a257805160ff1916838001178555620002d3565b82800160010185558215620002d3579182015b82811115620002d2578251825591602001919060010190620002b5565b5b509050620002e29190620002e6565b5090565b5b8082111562000301576000816000905550600101620002e7565b5090565b6000604051905090565b600080fd5b600080fd5b600080fd5b600080fd5b6000601f19601f8301169050919050565b7f4e487b7100000000000000000000000000000000000000000000000000000000600052604160045260246000fd5b6200036e8262000323565b810181811067ffffffffffffffff8211171562000390576200038f62000334565b5b80604052505050565b6000620003a562000305565b9050620003b3828262000363565b919050565b600067ffffffffffffffff821115620003d657620003d562000334565b5b620003e18262000323565b9050602081019050919050565b60005b838110156200040e578082015181840152602081019050620003f1565b838111156200041e576000848401525b50505050565b60006200043b6200043584620003b8565b62000399565b9050828152602081018484840111156200045a57620004596200031e565b5b62000467848285620003ee565b509392505050565b600082601f83011262000487576200048662000319565b5b81516200049984826020860162000424565b91505092915050565b60008060408385031215620004bc57620004bb6200030f565b5b600083015167ffffffffffffffff811115620004dd57620004dc62000314565b5b620004eb858286016200046f565b925050602083015167ffffffffffffffff8111156200050f576200050e62000314565b5b6200051d858286016200046f565b9150509250929050565b7f4e487b7100000000000000000000000000000000000000000000000000000000600052602260045260246000fd5b600060028204905060018216806200056f57607f821691505b60208210810362000585576200058462000527565b5b50919050565b613cca806200059b6000396000f3fe608060405234801561001057600080fd5b50600436106101735760003560e01c80636352211e116100de578063a217fddf11610097578063c87b56dd11610071578063c87b56dd14610480578063d5391393146104b0578063d547741f146104ce578063e985e9c5146104ea57610173565b8063a217fddf1461042a578063a22cb46514610448578063b88d4fde1461046457610173565b80636352211e14610330578063695850fb146103605780636c8b703f1461037c57806370a08231146103ac57806391d14854146103dc57806395d89b411461040c57610173565b8063248a9ca311610130578063248a9ca31461024c5780632f2ff15d1461027c5780632f745c591461029857806336568abe146102c857806342842e0e146102e45780634f6ccce71461030057610173565b806301ffc9a71461017857806306fdde03146101a8578063081812fc146101c6578063095ea7b3146101f657806318160ddd1461021257806323b872dd14610230575b600080fd5b610192600480360381019061018d91906126da565b61051a565b60405161019f9190612722565b60405180910390f35b6101b061052c565b6040516101bd91906127d6565b60405180910390f35b6101e060048036038101906101db919061282e565b6105be565b6040516101ed919061289c565b60405180910390f35b610210600480360381019061020b91906128e3565b610643565b005b61021a61075a565b6040516102279190612932565b60405180910390f35b61024a6004803603810190610245919061294d565b610767565b005b610266600480360381019061026191906129d6565b6107c7565b6040516102739190612a12565b60405180910390f35b61029660048036038101906102919190612a2d565b6107e7565b005b6102b260048036038101906102ad91906128e3565b610810565b6040516102bf9190612932565b60405180910390f35b6102e260048036038101906102dd9190612a2d565b6108b5565b005b6102fe60048036038101906102f9919061294d565b610938565b005b61031a6004803603810190610315919061282e565b610958565b6040516103279190612932565b60405180910390f35b61034a6004803603810190610345919061282e565b6109c9565b604051610357919061289c565b60405180910390f35b61037a60048036038101906103759190612ba2565b610a7a565b005b6103966004803603810190610391919061282e565b610c09565b6040516103a391906127d6565b60405180910390f35b6103c660048036038101906103c19190612beb565b610cb5565b6040516103d39190612932565b60405180910390f35b6103f660048036038101906103f19190612a2d565b610d6c565b6040516104039190612722565b60405180910390f35b610414610dd7565b60405161042191906127d6565b60405180910390f35b610432610e69565b60405161043f9190612a12565b60405180910390f35b610462600480360381019061045d9190612c44565b610e70565b005b61047e60048036038101906104799190612d25565b610ff0565b005b61049a6004803603810190610495919061282e565b611052565b6040516104a791906127d6565b60405180910390f35b6104b861113f565b6040516104c59190612a12565b60405180910390f35b6104e860048036038101906104e39190612a2d565b611163565b005b61050460048036038101906104ff9190612da8565b61118c565b6040516105119190612722565b60405180910390f35b600061052582611220565b9050919050565b60606000805461053b90612e17565b80601f016020809104026020016040519081016040528092919081815260200182805461056790612e17565b80156105b45780601f10610589576101008083540402835291602001916105b4565b820191906000526020600020905b81548152906001019060200180831161059757829003601f168201915b5050505050905090565b60006105c98261129a565b610608576040517f08c379a00000000000000000000000000000000000000000000000000000000081526004016105ff90612eba565b60405180910390fd5b6004600083815260200190815260200160002060009054906101000a900473ffffffffffffffffffffffffffffffffffffffff169050919050565b600061064e826109c9565b90508073ffffffffffffffffffffffffffffffffffffffff168373ffffffffffffffffffffffffffffffffffffffff16036106be576040517f08c379a00000000000000000000000000000000000000000000000000000000081526004016106b590612f4c565b60405180910390fd5b8073ffffffffffffffffffffffffffffffffffffffff166106dd611306565b73ffffffffffffffffffffffffffffffffffffffff16148061070c575061070b81610706611306565b61118c565b5b61074b576040517f08c379a000000000000000000000000000000000000000000000000000000000815260040161074290612fde565b60405180910390fd5b610755838361130e565b505050565b6000600880549050905090565b610778610772611306565b826113c7565b6107b7576040517f08c379a00000000000000000000000000000000000000000000000000000000081526004016107ae90613070565b60405180910390fd5b6107c28383836114a5565b505050565b6000600a6000838152602001908152602001600020600101549050919050565b6107f0826107c7565b610801816107fc611306565b611700565b61080b838361179d565b505050565b600061081b83610cb5565b821061085c576040517f08c379a000000000000000000000000000000000000000000000000000000000815260040161085390613102565b60405180910390fd5b600660008473ffffffffffffffffffffffffffffffffffffffff1673ffffffffffffffffffffffffffffffffffffffff168152602001908152602001600020600083815260200190815260200160002054905092915050565b6108bd611306565b73ffffffffffffffffffffffffffffffffffffffff168173ffffffffffffffffffffffffffffffffffffffff161461092a576040517f08c379a000000000000000000000000000000000000000000000000000000000815260040161092190613194565b60405180910390fd5b610934828261187e565b5050565b61095383838360405180602001604052806000815250610ff0565b505050565b600061096261075a565b82106109a3576040517f08c379a000000000000000000000000000000000000000000000000000000000815260040161099a90613226565b60405180910390fd5b600882815481106109b7576109b6613246565b5b90600052602060002001549050919050565b6000806002600084815260200190815260200160002060009054906101000a900473ffffffffffffffffffffffffffffffffffffffff169050600073ffffffffffffffffffffffffffffffffffffffff168173ffffffffffffffffffffffffffffffffffffffff1603610a71576040517f08c379a0000000000000000000000000000000000000000000000000000000008152600401610a68906132e7565b60405180910390fd5b80915050919050565b610aab7f9f2df0fed2c77648de5860a4cc508cd0818c85b8b8a1ab4ceeef8d981c8956a6610aa6611306565b610d6c565b610aea576040517f08c379a0000000000000000000000000000000000000000000000000000000008152600401610ae190613379565b60405180910390fd5b600c81604051610afa91906133d5565b908152602001604051809103902060009054906101000a900460ff1615610b56576040517f08c379a0000000000000000000000000000000000000000000000000000000008152600401610b4d90613438565b60405180910390fd5b600b81908060018154018082558091505060019003906000526020600020016000909190919091509080519060200190610b919291906125cb565b506000600b80549050905081600d60008381526020019081526020016000209080519060200190610bc39291906125cb565b50610bce3382611960565b6001600c83604051610be091906133d5565b908152602001604051809103902060006101000a81548160ff0219169083151502179055505050565b600b8181548110610c1957600080fd5b906000526020600020016000915090508054610c3490612e17565b80601f0160208091040260200160405190810160405280929190818152602001828054610c6090612e17565b8015610cad5780601f10610c8257610100808354040283529160200191610cad565b820191906000526020600020905b815481529060010190602001808311610c9057829003601f168201915b505050505081565b60008073ffffffffffffffffffffffffffffffffffffffff168273ffffffffffffffffffffffffffffffffffffffff1603610d25576040517f08c379a0000000000000000000000000000000000000000000000000000000008152600401610d1c906134ca565b60405180910390fd5b600360008373ffffffffffffffffffffffffffffffffffffffff1673ffffffffffffffffffffffffffffffffffffffff168152602001908152602001600020549050919050565b6000600a600084815260200190815260200160002060000160008373ffffffffffffffffffffffffffffffffffffffff1673ffffffffffffffffffffffffffffffffffffffff16815260200190815260200160002060009054906101000a900460ff16905092915050565b606060018054610de690612e17565b80601f0160208091040260200160405190810160405280929190818152602001828054610e1290612e17565b8015610e5f5780601f10610e3457610100808354040283529160200191610e5f565b820191906000526020600020905b815481529060010190602001808311610e4257829003601f168201915b5050505050905090565b6000801b81565b610e78611306565b73ffffffffffffffffffffffffffffffffffffffff168273ffffffffffffffffffffffffffffffffffffffff1603610ee5576040517f08c379a0000000000000000000000000000000000000000000000000000000008152600401610edc90613536565b60405180910390fd5b8060056000610ef2611306565b73ffffffffffffffffffffffffffffffffffffffff1673ffffffffffffffffffffffffffffffffffffffff16815260200190815260200160002060008473ffffffffffffffffffffffffffffffffffffffff1673ffffffffffffffffffffffffffffffffffffffff16815260200190815260200160002060006101000a81548160ff0219169083151502179055508173ffffffffffffffffffffffffffffffffffffffff16610f9f611306565b73ffffffffffffffffffffffffffffffffffffffff167f17307eab39ab6107e8899845ad3d59bd9653f200f220920489ca2b5937696c3183604051610fe49190612722565b60405180910390a35050565b611001610ffb611306565b836113c7565b611040576040517f08c379a000000000000000000000000000000000000000000000000000000000815260040161103790613070565b60405180910390fd5b61104c8484848461197e565b50505050565b606061105d8261129a565b61109c576040517f08c379a0000000000000000000000000000000000000000000000000000000008152600401611093906135c8565b60405180910390fd5b600d600083815260200190815260200160002080546110ba90612e17565b80601f01602080910402602001604051908101604052809291908181526020018280546110e690612e17565b80156111335780601f1061110857610100808354040283529160200191611133565b820191906000526020600020905b81548152906001019060200180831161111657829003601f168201915b50505050509050919050565b7f9f2df0fed2c77648de5860a4cc508cd0818c85b8b8a1ab4ceeef8d981c8956a681565b61116c826107c7565b61117d81611178611306565b611700565b611187838361187e565b505050565b6000600560008473ffffffffffffffffffffffffffffffffffffffff1673ffffffffffffffffffffffffffffffffffffffff16815260200190815260200160002060008373ffffffffffffffffffffffffffffffffffffffff1673ffffffffffffffffffffffffffffffffffffffff16815260200190815260200160002060009054906101000a900460ff16905092915050565b60007f7965db0b000000000000000000000000000000000000000000000000000000007bffffffffffffffffffffffffffffffffffffffffffffffffffffffff1916827bffffffffffffffffffffffffffffffffffffffffffffffffffffffff191614806112935750611292826119da565b5b9050919050565b60008073ffffffffffffffffffffffffffffffffffffffff166002600084815260200190815260200160002060009054906101000a900473ffffffffffffffffffffffffffffffffffffffff1673ffffffffffffffffffffffffffffffffffffffff1614159050919050565b600033905090565b816004600083815260200190815260200160002060006101000a81548173ffffffffffffffffffffffffffffffffffffffff021916908373ffffffffffffffffffffffffffffffffffffffff160217905550808273ffffffffffffffffffffffffffffffffffffffff16611381836109c9565b73ffffffffffffffffffffffffffffffffffffffff167f8c5be1e5ebec7d5bd14f71427d1e84f3dd0314c0f7b2291e5b200ac8c7c3b92560405160405180910390a45050565b60006113d28261129a565b611411576040517f08c379a00000000000000000000000000000000000000000000000000000000081526004016114089061365a565b60405180910390fd5b600061141c836109c9565b90508073ffffffffffffffffffffffffffffffffffffffff168473ffffffffffffffffffffffffffffffffffffffff16148061148b57508373ffffffffffffffffffffffffffffffffffffffff16611473846105be565b73ffffffffffffffffffffffffffffffffffffffff16145b8061149c575061149b818561118c565b5b91505092915050565b8273ffffffffffffffffffffffffffffffffffffffff166114c5826109c9565b73ffffffffffffffffffffffffffffffffffffffff161461151b576040517f08c379a0000000000000000000000000000000000000000000000000000000008152600401611512906136ec565b60405180910390fd5b600073ffffffffffffffffffffffffffffffffffffffff168273ffffffffffffffffffffffffffffffffffffffff160361158a576040517f08c379a00000000000000000000000000000000000000000000000000000000081526004016115819061377e565b60405180910390fd5b611595838383611a54565b6115a060008261130e565b6001600360008573ffffffffffffffffffffffffffffffffffffffff1673ffffffffffffffffffffffffffffffffffffffff16815260200190815260200160002060008282546115f091906137cd565b925050819055506001600360008473ffffffffffffffffffffffffffffffffffffffff1673ffffffffffffffffffffffffffffffffffffffff16815260200190815260200160002060008282546116479190613801565b92505081905550816002600083815260200190815260200160002060006101000a81548173ffffffffffffffffffffffffffffffffffffffff021916908373ffffffffffffffffffffffffffffffffffffffff160217905550808273ffffffffffffffffffffffffffffffffffffffff168473ffffffffffffffffffffffffffffffffffffffff167fddf252ad1be2c89b69c2b068fc378daa952ba7f163c4a11628f55a4df523b3ef60405160405180910390a4505050565b61170a8282610d6c565b6117995761172f8173ffffffffffffffffffffffffffffffffffffffff166014611a64565b61173d8360001c6020611a64565b60405160200161174e9291906138ef565b6040516020818303038152906040526040517f08c379a000000000000000000000000000000000000000000000000000000000815260040161179091906127d6565b60405180910390fd5b5050565b6117a78282610d6c565b61187a576001600a600084815260200190815260200160002060000160008373ffffffffffffffffffffffffffffffffffffffff1673ffffffffffffffffffffffffffffffffffffffff16815260200190815260200160002060006101000a81548160ff02191690831515021790555061181f611306565b73ffffffffffffffffffffffffffffffffffffffff168173ffffffffffffffffffffffffffffffffffffffff16837f2f8788117e7eff1d82e926ec794901d17c78024a50270940304540a733656f0d60405160405180910390a45b5050565b6118888282610d6c565b1561195c576000600a600084815260200190815260200160002060000160008373ffffffffffffffffffffffffffffffffffffffff1673ffffffffffffffffffffffffffffffffffffffff16815260200190815260200160002060006101000a81548160ff021916908315150217905550611901611306565b73ffffffffffffffffffffffffffffffffffffffff168173ffffffffffffffffffffffffffffffffffffffff16837ff6391f5c32d9c69d2a47ea670b442974b53935d1edc7fd64eb21e047a839171b60405160405180910390a45b5050565b61197a828260405180602001604052806000815250611ca0565b5050565b6119898484846114a5565b61199584848484611cfb565b6119d4576040517f08c379a00000000000000000000000000000000000000000000000000000000081526004016119cb9061399b565b60405180910390fd5b50505050565b60007f780e9d63000000000000000000000000000000000000000000000000000000007bffffffffffffffffffffffffffffffffffffffffffffffffffffffff1916827bffffffffffffffffffffffffffffffffffffffffffffffffffffffff19161480611a4d5750611a4c82611e82565b5b9050919050565b611a5f838383611f64565b505050565b606060006002836002611a7791906139bb565b611a819190613801565b67ffffffffffffffff811115611a9a57611a99612a77565b5b6040519080825280601f01601f191660200182016040528015611acc5781602001600182028036833780820191505090505b5090507f300000000000000000000000000000000000000000000000000000000000000081600081518110611b0457611b03613246565b5b60200101907effffffffffffffffffffffffffffffffffffffffffffffffffffffffffffff1916908160001a9053507f780000000000000000000000000000000000000000000000000000000000000081600181518110611b6857611b67613246565b5b60200101907effffffffffffffffffffffffffffffffffffffffffffffffffffffffffffff1916908160001a90535060006001846002611ba891906139bb565b611bb29190613801565b90505b6001811115611c52577f3031323334353637383961626364656600000000000000000000000000000000600f861660108110611bf457611bf3613246565b5b1a60f81b828281518110611c0b57611c0a613246565b5b60200101907effffffffffffffffffffffffffffffffffffffffffffffffffffffffffffff1916908160001a905350600485901c945080611c4b90613a15565b9050611bb5565b5060008414611c96576040517f08c379a0000000000000000000000000000000000000000000000000000000008152600401611c8d90613a8a565b60405180910390fd5b8091505092915050565b611caa8383612076565b611cb76000848484611cfb565b611cf6576040517f08c379a0000000000000000000000000000000000000000000000000000000008152600401611ced9061399b565b60405180910390fd5b505050565b6000611d1c8473ffffffffffffffffffffffffffffffffffffffff16612243565b15611e75578373ffffffffffffffffffffffffffffffffffffffff1663150b7a02611d45611306565b8786866040518563ffffffff1660e01b8152600401611d679493929190613aff565b6020604051808303816000875af1925050508015611da357506040513d601f19601f82011682018060405250810190611da09190613b60565b60015b611e25573d8060008114611dd3576040519150601f19603f3d011682016040523d82523d6000602084013e611dd8565b606091505b506000815103611e1d576040517f08c379a0000000000000000000000000000000000000000000000000000000008152600401611e149061399b565b60405180910390fd5b805181602001fd5b63150b7a0260e01b7bffffffffffffffffffffffffffffffffffffffffffffffffffffffff1916817bffffffffffffffffffffffffffffffffffffffffffffffffffffffff191614915050611e7a565b600190505b949350505050565b60007f80ac58cd000000000000000000000000000000000000000000000000000000007bffffffffffffffffffffffffffffffffffffffffffffffffffffffff1916827bffffffffffffffffffffffffffffffffffffffffffffffffffffffff19161480611f4d57507f5b5e139f000000000000000000000000000000000000000000000000000000007bffffffffffffffffffffffffffffffffffffffffffffffffffffffff1916827bffffffffffffffffffffffffffffffffffffffffffffffffffffffff1916145b80611f5d5750611f5c82612256565b5b9050919050565b611f6f8383836122c0565b600073ffffffffffffffffffffffffffffffffffffffff168373ffffffffffffffffffffffffffffffffffffffff1603611fb157611fac816122c5565b611ff0565b8173ffffffffffffffffffffffffffffffffffffffff168373ffffffffffffffffffffffffffffffffffffffff1614611fef57611fee838261230e565b5b5b600073ffffffffffffffffffffffffffffffffffffffff168273ffffffffffffffffffffffffffffffffffffffff16036120325761202d8161247b565b612071565b8273ffffffffffffffffffffffffffffffffffffffff168273ffffffffffffffffffffffffffffffffffffffff16146120705761206f828261254c565b5b5b505050565b600073ffffffffffffffffffffffffffffffffffffffff168273ffffffffffffffffffffffffffffffffffffffff16036120e5576040517f08c379a00000000000000000000000000000000000000000000000000000000081526004016120dc90613bd9565b60405180910390fd5b6120ee8161129a565b1561212e576040517f08c379a000000000000000000000000000000000000000000000000000000000815260040161212590613c45565b60405180910390fd5b61213a60008383611a54565b6001600360008473ffffffffffffffffffffffffffffffffffffffff1673ffffffffffffffffffffffffffffffffffffffff168152602001908152602001600020600082825461218a9190613801565b92505081905550816002600083815260200190815260200160002060006101000a81548173ffffffffffffffffffffffffffffffffffffffff021916908373ffffffffffffffffffffffffffffffffffffffff160217905550808273ffffffffffffffffffffffffffffffffffffffff16600073ffffffffffffffffffffffffffffffffffffffff167fddf252ad1be2c89b69c2b068fc378daa952ba7f163c4a11628f55a4df523b3ef60405160405180910390a45050565b600080823b905060008111915050919050565b60007f01ffc9a7000000000000000000000000000000000000000000000000000000007bffffffffffffffffffffffffffffffffffffffffffffffffffffffff1916827bffffffffffffffffffffffffffffffffffffffffffffffffffffffff1916149050919050565b505050565b6008805490506009600083815260200190815260200160002081905550600881908060018154018082558091505060019003906000526020600020016000909190919091505550565b6000600161231b84610cb5565b61232591906137cd565b905060006007600084815260200190815260200160002054905081811461240a576000600660008673ffffffffffffffffffffffffffffffffffffffff1673ffffffffffffffffffffffffffffffffffffffff168152602001908152602001600020600084815260200190815260200160002054905080600660008773ffffffffffffffffffffffffffffffffffffffff1673ffffffffffffffffffffffffffffffffffffffff168152602001908152602001600020600084815260200190815260200160002081905550816007600083815260200190815260200160002081905550505b6007600084815260200190815260200160002060009055600660008573ffffffffffffffffffffffffffffffffffffffff1673ffffffffffffffffffffffffffffffffffffffff16815260200190815260200160002060008381526020019081526020016000206000905550505050565b6000600160088054905061248f91906137cd565b90506000600960008481526020019081526020016000205490506000600883815481106124bf576124be613246565b5b9060005260206000200154905080600883815481106124e1576124e0613246565b5b9060005260206000200181905550816009600083815260200190815260200160002081905550600960008581526020019081526020016000206000905560088054806125305761252f613c65565b5b6001900381819060005260206000200160009055905550505050565b600061255783610cb5565b905081600660008573ffffffffffffffffffffffffffffffffffffffff1673ffffffffffffffffffffffffffffffffffffffff168152602001908152602001600020600083815260200190815260200160002081905550806007600084815260200190815260200160002081905550505050565b8280546125d790612e17565b90600052602060002090601f0160209004810192826125f95760008555612640565b82601f1061261257805160ff1916838001178555612640565b82800160010185558215612640579182015b8281111561263f578251825591602001919060010190612624565b5b50905061264d9190612651565b5090565b5b8082111561266a576000816000905550600101612652565b5090565b6000604051905090565b600080fd5b600080fd5b60007fffffffff0000000000000000000000000000000000000000000000000000000082169050919050565b6126b781612682565b81146126c257600080fd5b50565b6000813590506126d4816126ae565b92915050565b6000602082840312156126f0576126ef612678565b5b60006126fe848285016126c5565b91505092915050565b60008115159050919050565b61271c81612707565b82525050565b60006020820190506127376000830184612713565b92915050565b600081519050919050565b600082825260208201905092915050565b60005b8381101561277757808201518184015260208101905061275c565b83811115612786576000848401525b50505050565b6000601f19601f8301169050919050565b60006127a88261273d565b6127b28185612748565b93506127c2818560208601612759565b6127cb8161278c565b840191505092915050565b600060208201905081810360008301526127f0818461279d565b905092915050565b6000819050919050565b61280b816127f8565b811461281657600080fd5b50565b60008135905061282881612802565b92915050565b60006020828403121561284457612843612678565b5b600061285284828501612819565b91505092915050565b600073ffffffffffffffffffffffffffffffffffffffff82169050919050565b60006128868261285b565b9050919050565b6128968161287b565b82525050565b60006020820190506128b1600083018461288d565b92915050565b6128c08161287b565b81146128cb57600080fd5b50565b6000813590506128dd816128b7565b92915050565b600080604083850312156128fa576128f9612678565b5b6000612908858286016128ce565b925050602061291985828601612819565b9150509250929050565b61292c816127f8565b82525050565b60006020820190506129476000830184612923565b92915050565b60008060006060848603121561296657612965612678565b5b6000612974868287016128ce565b9350506020612985868287016128ce565b925050604061299686828701612819565b9150509250925092565b6000819050919050565b6129b3816129a0565b81146129be57600080fd5b50565b6000813590506129d0816129aa565b92915050565b6000602082840312156129ec576129eb612678565b5b60006129fa848285016129c1565b91505092915050565b612a0c816129a0565b82525050565b6000602082019050612a276000830184612a03565b92915050565b60008060408385031215612a4457612a43612678565b5b6000612a52858286016129c1565b9250506020612a63858286016128ce565b9150509250929050565b600080fd5b600080fd5b7f4e487b7100000000000000000000000000000000000000000000000000000000600052604160045260246000fd5b612aaf8261278c565b810181811067ffffffffffffffff82111715612ace57612acd612a77565b5b80604052505050565b6000612ae161266e565b9050612aed8282612aa6565b919050565b600067ffffffffffffffff821115612b0d57612b0c612a77565b5b612b168261278c565b9050602081019050919050565b82818337600083830152505050565b6000612b45612b4084612af2565b612ad7565b905082815260208101848484011115612b6157612b60612a72565b5b612b6c848285612b23565b509392505050565b600082601f830112612b8957612b88612a6d565b5b8135612b99848260208601612b32565b91505092915050565b600060208284031215612bb857612bb7612678565b5b600082013567ffffffffffffffff811115612bd657612bd561267d565b5b612be284828501612b74565b91505092915050565b600060208284031215612c0157612c00612678565b5b6000612c0f848285016128ce565b91505092915050565b612c2181612707565b8114612c2c57600080fd5b50565b600081359050612c3e81612c18565b92915050565b60008060408385031215612c5b57612c5a612678565b5b6000612c69858286016128ce565b9250506020612c7a85828601612c2f565b9150509250929050565b600067ffffffffffffffff821115612c9f57612c9e612a77565b5b612ca88261278c565b9050602081019050919050565b6000612cc8612cc384612c84565b612ad7565b905082815260208101848484011115612ce457612ce3612a72565b5b612cef848285612b23565b509392505050565b600082601f830112612d0c57612d0b612a6d565b5b8135612d1c848260208601612cb5565b91505092915050565b60008060008060808587031215612d3f57612d3e612678565b5b6000612d4d878288016128ce565b9450506020612d5e878288016128ce565b9350506040612d6f87828801612819565b925050606085013567ffffffffffffffff811115612d9057612d8f61267d565b5b612d9c87828801612cf7565b91505092959194509250565b60008060408385031215612dbf57612dbe612678565b5b6000612dcd858286016128ce565b9250506020612dde858286016128ce565b9150509250929050565b7f4e487b7100000000000000000000000000000000000000000000000000000000600052602260045260246000fd5b60006002820490506001821680612e2f57607f821691505b602082108103612e4257612e41612de8565b5b50919050565b7f4552433732313a20617070726f76656420717565727920666f72206e6f6e657860008201527f697374656e7420746f6b656e0000000000000000000000000000000000000000602082015250565b6000612ea4602c83612748565b9150612eaf82612e48565b604082019050919050565b60006020820190508181036000830152612ed381612e97565b9050919050565b7f4552433732313a20617070726f76616c20746f2063757272656e74206f776e6560008201527f7200000000000000000000000000000000000000000000000000000000000000602082015250565b6000612f36602183612748565b9150612f4182612eda565b604082019050919050565b60006020820190508181036000830152612f6581612f29565b9050919050565b7f4552433732313a20617070726f76652063616c6c6572206973206e6f74206f7760008201527f6e6572206e6f7220617070726f76656420666f7220616c6c0000000000000000602082015250565b6000612fc8603883612748565b9150612fd382612f6c565b604082019050919050565b60006020820190508181036000830152612ff781612fbb565b9050919050565b7f4552433732313a207472616e736665722063616c6c6572206973206e6f74206f60008201527f776e6572206e6f7220617070726f766564000000000000000000000000000000602082015250565b600061305a603183612748565b915061306582612ffe565b604082019050919050565b600060208201905081810360008301526130898161304d565b9050919050565b7f455243373231456e756d657261626c653a206f776e657220696e646578206f7560008201527f74206f6620626f756e6473000000000000000000000000000000000000000000602082015250565b60006130ec602b83612748565b91506130f782613090565b604082019050919050565b6000602082019050818103600083015261311b816130df565b9050919050565b7f416363657373436f6e74726f6c3a2063616e206f6e6c792072656e6f756e636560008201527f20726f6c657320666f722073656c660000000000000000000000000000000000602082015250565b600061317e602f83612748565b915061318982613122565b604082019050919050565b600060208201905081810360008301526131ad81613171565b9050919050565b7f455243373231456e756d657261626c653a20676c6f62616c20696e646578206f60008201527f7574206f6620626f756e64730000000000000000000000000000000000000000602082015250565b6000613210602c83612748565b915061321b826131b4565b604082019050919050565b6000602082019050818103600083015261323f81613203565b9050919050565b7f4e487b7100000000000000000000000000000000000000000000000000000000600052603260045260246000fd5b7f4552433732313a206f776e657220717565727920666f72206e6f6e657869737460008201527f656e7420746f6b656e0000000000000000000000000000000000000000000000602082015250565b60006132d1602983612748565b91506132dc82613275565b604082019050919050565b60006020820190508181036000830152613300816132c4565b9050919050565b7f4552433732315072657365744d696e7465725061757365724175746f49643a2060008201527f6d7573742068617665206d696e74657220726f6c6520746f206d696e74000000602082015250565b6000613363603d83612748565b915061336e82613307565b604082019050919050565b6000602082019050818103600083015261339281613356565b9050919050565b600081905092915050565b60006133af8261273d565b6133b98185613399565b93506133c9818560208601612759565b80840191505092915050565b60006133e182846133a4565b915081905092915050565b7f54686520746f6b656e205552492073686f756c6420626520756e697175650000600082015250565b6000613422601e83612748565b915061342d826133ec565b602082019050919050565b6000602082019050818103600083015261345181613415565b9050919050565b7f4552433732313a2062616c616e636520717565727920666f7220746865207a6560008201527f726f206164647265737300000000000000000000000000000000000000000000602082015250565b60006134b4602a83612748565b91506134bf82613458565b604082019050919050565b600060208201905081810360008301526134e3816134a7565b9050919050565b7f4552433732313a20617070726f766520746f2063616c6c657200000000000000600082015250565b6000613520601983612748565b915061352b826134ea565b602082019050919050565b6000602082019050818103600083015261354f81613513565b9050919050565b7f4552433732314d657461646174613a2055524920717565727920666f72206e6f60008201527f6e6578697374656e7420746f6b656e0000000000000000000000000000000000602082015250565b60006135b2602f83612748565b91506135bd82613556565b604082019050919050565b600060208201905081810360008301526135e1816135a5565b9050919050565b7f4552433732313a206f70657261746f7220717565727920666f72206e6f6e657860008201527f697374656e7420746f6b656e0000000000000000000000000000000000000000602082015250565b6000613644602c83612748565b915061364f826135e8565b604082019050919050565b6000602082019050818103600083015261367381613637565b9050919050565b7f4552433732313a207472616e73666572206f6620746f6b656e2074686174206960008201527f73206e6f74206f776e0000000000000000000000000000000000000000000000602082015250565b60006136d6602983612748565b91506136e18261367a565b604082019050919050565b60006020820190508181036000830152613705816136c9565b9050919050565b7f4552433732313a207472616e7366657220746f20746865207a65726f2061646460008201527f7265737300000000000000000000000000000000000000000000000000000000602082015250565b6000613768602483612748565b91506137738261370c565b604082019050919050565b600060208201905081810360008301526137978161375b565b9050919050565b7f4e487b7100000000000000000000000000000000000000000000000000000000600052601160045260246000fd5b60006137d8826127f8565b91506137e3836127f8565b9250828210156137f6576137f561379e565b5b828203905092915050565b600061380c826127f8565b9150613817836127f8565b9250827fffffffffffffffffffffffffffffffffffffffffffffffffffffffffffffffff0382111561384c5761384b61379e565b5b828201905092915050565b7f416363657373436f6e74726f6c3a206163636f756e7420000000000000000000600082015250565b600061388d601783613399565b915061389882613857565b601782019050919050565b7f206973206d697373696e6720726f6c6520000000000000000000000000000000600082015250565b60006138d9601183613399565b91506138e4826138a3565b601182019050919050565b60006138fa82613880565b915061390682856133a4565b9150613911826138cc565b915061391d82846133a4565b91508190509392505050565b7f4552433732313a207472616e7366657220746f206e6f6e20455243373231526560008201527f63656976657220696d706c656d656e7465720000000000000000000000000000602082015250565b6000613985603283612748565b915061399082613929565b604082019050919050565b600060208201905081810360008301526139b481613978565b9050919050565b60006139c6826127f8565b91506139d1836127f8565b9250817fffffffffffffffffffffffffffffffffffffffffffffffffffffffffffffffff0483118215151615613a0a57613a0961379e565b5b828202905092915050565b6000613a20826127f8565b915060008203613a3357613a3261379e565b5b600182039050919050565b7f537472696e67733a20686578206c656e67746820696e73756666696369656e74600082015250565b6000613a74602083612748565b9150613a7f82613a3e565b602082019050919050565b60006020820190508181036000830152613aa381613a67565b9050919050565b600081519050919050565b600082825260208201905092915050565b6000613ad182613aaa565b613adb8185613ab5565b9350613aeb818560208601612759565b613af48161278c565b840191505092915050565b6000608082019050613b14600083018761288d565b613b21602083018661288d565b613b2e6040830185612923565b8181036060830152613b408184613ac6565b905095945050505050565b600081519050613b5a816126ae565b92915050565b600060208284031215613b7657613b75612678565b5b6000613b8484828501613b4b565b91505092915050565b7f4552433732313a206d696e7420746f20746865207a65726f2061646472657373600082015250565b6000613bc3602083612748565b9150613bce82613b8d565b602082019050919050565b60006020820190508181036000830152613bf281613bb6565b9050919050565b7f4552433732313a20746f6b656e20616c7265616479206d696e74656400000000600082015250565b6000613c2f601c83612748565b9150613c3a82613bf9565b602082019050919050565b60006020820190508181036000830152613c5e81613c22565b9050919050565b7f4e487b7100000000000000000000000000000000000000000000000000000000600052603160045260246000fdfea26469706673582212208f59a5a2b5c4e9170a20f5c8ad8f54fb8569ca63173dc0b9c65933d77e1b032164736f6c634300080e0033a26469706673582212200bf94e57e857b9f326f255ff598101ec542de45900f5dfa6073d6572306bd72964736f6c634300080e0033",
  "immutableReferences": {},
  "source": "// SPDX-License-Identifier: MIT\r\npragma solidity ^0.8.0;\r\n\r\n// import \"@openzeppelin/contracts/access/Ownable.sol\";\r\nimport '@openzeppelin/contracts/utils/math/SafeMath.sol';\r\nimport './NFTCollection.sol';\r\n\r\ncontract Marketplace {\r\n    bytes32 public constant MINTER_ROLE = keccak256('MINTER_ROLE');\r\n    using SafeMath for uint256;\r\n\r\n    // Ownable: to handle fees and withdraw\r\n\r\n    // Actions:\r\n    // Submit offer\r\n    // Cancel offer\r\n    // Bid - use time-machine\r\n    // Finish offer (fee)\r\n\r\n    // Fees\r\n    // TODO : ask about fees decimal value\r\n    uint256 public constant FEE_SELL_PERCENTAGE = 3; // percentage of buy price\r\n\r\n    // Enums\r\n    enum AuctionType {\r\n        FixedPrice, // buy it now only\r\n        Dutch, // (not used for now)\r\n        English // (not used for now)\r\n    }\r\n\r\n    enum AuctionStatus {\r\n        //Approved, // ready for use\r\n        Running, // in progress\r\n        Closed, // closed with no buyer, need to revert funds\r\n        Finished, // finished with buyer, need to revert funds\r\n        Cancelled // canceled by seller, need to revert funds\r\n    }\r\n\r\n    // Definitions\r\n    struct AuctionItem {\r\n        address ownerAddress;\r\n        address collectionAddress;\r\n        uint256 auctionId; // auction Id, is generated\r\n        uint256 id; // token Id, is given\r\n        uint256 buyItNowPrice; // buy now buyItNowPrice in case of type FixedPrice. Zero means - no buy now. Mandatory if Fixed price\r\n        uint256 reservedPrice; // buy out price below which the sell cannot happend (not used for now)\r\n        uint256 initialPrice; // starting auction price (not used for now)\r\n        uint256 minBidStep; // minimum allowed bid step. Zero means - no min (not used for now)\r\n        uint256 maxBidStep; // maximum allowed bid step. Zero means - no max (not used for now)\r\n        AuctionStatus auctionStatus;\r\n        AuctionType auctionType;\r\n    }\r\n\r\n    struct CollectionItem {\r\n        uint256 collectionId; // TODO : Check if needed\r\n        address collectionAddress; // ERC721 token of the collection\r\n        address ownerAddress;\r\n        bool isUserCollection; // Describes whenever the collection is created by user. // TODO : Check if needed\r\n    }\r\n\r\n    // properties\r\n    // msg.sender => generated funds\r\n    mapping(address => uint256) public userFunds; // contains funds per user generated from sales. Bids will stored in other way\r\n\r\n    // -- Events\r\n    // emitted when an auction is craated\r\n    event onAuctionCreated(uint256 indexed auctionId, uint256 indexed id);\r\n\r\n    // emitted when is cancelled by the seller\r\n    event onAuctionCancelled(uint256 indexed auctionId, uint256 indexed id);\r\n\r\n    // emitted when the acution is finsied with succesfull purchase\r\n    event onAuctionFinished(uint256 indexed auctionId, uint256 indexed id);\r\n\r\n    // emitted when an auction is closed with no buyer\r\n    event onAuctionClosed(uint256 indexed auctionId, uint256 indexed id);\r\n\r\n    // enitted when an auction is bidded\r\n    event onAuctionBid(uint256 indexed auctionId, uint256 bid);\r\n\r\n    // emitted when an user claims his funds\r\n    event onFundsClaimed(address indexed user, uint256 amount);\r\n\r\n    // emitted when a collection is created\r\n    event onCollectionCreated(uint256 indexed collectionId, address indexed collectionAddress, address indexed ownerAddress);\r\n    // --\r\n\r\n    // TODO : Optimize field positions\r\n    // -- Auction fields\r\n    // auctionId => AuctionItem\r\n    mapping(uint256 => AuctionItem) auctionStore;\r\n    uint256 public auctionCount = 0;\r\n    // --\r\n\r\n    // -- Collecction Fields\r\n    // ownerAddress => (collectionId => isOwner)\r\n    mapping(address => mapping(uint256 => bool)) usercollections;\r\n\r\n    // Array of collection Contracts\r\n    // collectionId => CollectionItem\r\n    mapping(uint256 => CollectionItem) collectionStore;\r\n    uint256 public collectionCount = 0;\r\n    // --\r\n\r\n    // collectionAddress => uint256[auctionId]\r\n    mapping(address => uint256[]) collectionToAcutions;\r\n\r\n    // -- Modifiers\r\n    modifier requireCollectionOwner(uint256 _collectionId) {\r\n        require(usercollections[msg.sender][_collectionId], 'Not collection owner');\r\n        _;\r\n    }\r\n\r\n    // --\r\n\r\n    constructor() public {\r\n        // deploy NFT Collection contract\r\n        // add newly deployed contract to collection array\r\n        // _createCollection('TTM Collection', 'TTM', address(this), false);\r\n    }\r\n\r\n    // -- Collection management\r\n    function createCollection(string memory _name, string memory _symbol) public returns (address) {\r\n        return _createCollection(_name, _symbol, msg.sender, true);\r\n    }\r\n\r\n    function _createCollection(\r\n        string memory _name,\r\n        string memory _symbol,\r\n        address _ownerAddress,\r\n        bool _isUserCollection\r\n    ) internal returns (address) {\r\n        NFTCollection collectionContract = new NFTCollection(_name, _symbol);\r\n        // grant role\r\n        collectionContract.grantRole(MINTER_ROLE, msg.sender);\r\n        // approve the creator by default\r\n        collectionContract.setApprovalForAll(msg.sender, true);\r\n\r\n        address _collectionAddress = address(collectionContract);\r\n\r\n        uint256 _collectionId = collectionCount;\r\n        collectionStore[_collectionId] = CollectionItem(_collectionId, _collectionAddress, _ownerAddress, _isUserCollection);\r\n        collectionCount = collectionCount.add(1);\r\n\r\n        usercollections[_ownerAddress][_collectionId] = true;\r\n\r\n        emit onCollectionCreated(_collectionId, _collectionAddress, _ownerAddress);\r\n\r\n        return _collectionAddress;\r\n    }\r\n\r\n    function getCollection(uint256 _collectionId) public view returns (CollectionItem memory) {\r\n        return collectionStore[_collectionId];\r\n    }\r\n\r\n    // get items for collection (filters) TODO: think of EF like logic\r\n    // get top items from collection ???\r\n    // --\r\n\r\n    // -- Auction Management\r\n    function createAuction(\r\n        address _collectionAddress,\r\n        uint256 _id,\r\n        uint256 _buyItNowPrice\r\n    ) public {\r\n        // transfer token to the market (this)\r\n        NFTCollection nftCollection = NFTCollection(_collectionAddress);\r\n        // nftCollection.transferFrom(msg.sender, address(this), _id); // TODO : use approve !!!\r\n\r\n        // TODO : require token owner to be msg.sender\r\n        require(msg.sender == nftCollection.ownerOf(_id), 'Not token owner');\r\n\r\n        // the token owner is checked above\r\n\r\n        // create auction\r\n        uint256 _auctionId = auctionCount;\r\n        auctionStore[_auctionId] = AuctionItem({\r\n            ownerAddress: msg.sender,\r\n            collectionAddress: _collectionAddress,\r\n            auctionId: _auctionId,\r\n            id: _id,\r\n            buyItNowPrice: _buyItNowPrice,\r\n            reservedPrice: 0,\r\n            initialPrice: 0,\r\n            minBidStep: 0,\r\n            maxBidStep: 0,\r\n            auctionStatus: AuctionStatus.Running,\r\n            auctionType: AuctionType.FixedPrice\r\n        });\r\n\r\n        auctionCount = auctionCount.add(1);\r\n\r\n        collectionToAcutions[_collectionAddress].push(_auctionId);\r\n\r\n        emit onAuctionCreated(_auctionId, _id);\r\n    }\r\n\r\n    function getAuction(uint256 _auctionId) public view returns (AuctionItem memory) {\r\n        return auctionStore[_auctionId];\r\n    }\r\n\r\n    // buy it now - handle user funds?\r\n    function buyNowAuction(uint256 _auctionId) public payable {\r\n        AuctionItem storage _auction = auctionStore[_auctionId];\r\n\r\n        require(_auction.auctionId == _auctionId, 'Auction does not exists');\r\n        require(_auction.ownerAddress != msg.sender, 'Auction owner cannot buy it');\r\n        require(_auction.auctionStatus == AuctionStatus.Running, 'Auction is not running');\r\n        require(_auction.buyItNowPrice > 0, 'Buy now is not allowed');\r\n\r\n        require(msg.value == _auction.buyItNowPrice, 'Insufficient funds');\r\n\r\n        uint256 fee = msg.value.mul(FEE_SELL_PERCENTAGE).div(100);\r\n\r\n        NFTCollection nftCollection = NFTCollection(_auction.collectionAddress);\r\n        nftCollection.transferFrom(address(this), msg.sender, _auction.id);\r\n        _auction.auctionStatus = AuctionStatus.Finished;\r\n        uint256 userFund = msg.value.sub(fee);\r\n        userFunds[_auction.ownerAddress] = userFunds[_auction.ownerAddress].add(userFund);\r\n\r\n        // TODO : Handle bids\r\n        // TODO : Handle buy request\r\n\r\n        emit onAuctionFinished(_auctionId, _auction.id);\r\n    }\r\n\r\n    // cancel auction (auction owner) - handle user funds?\r\n    function cancelAuction(uint256 _auctionId) public {\r\n        AuctionItem storage _auction = auctionStore[_auctionId];\r\n\r\n        require(_auction.auctionId == _auctionId, 'Auction does not exists');\r\n        require(_auction.ownerAddress == msg.sender, 'Auction owner cannot cancel it');\r\n        require(_auction.auctionStatus == AuctionStatus.Running, 'Auction is not running');\r\n\r\n        NFTCollection nftCollection = NFTCollection(_auction.collectionAddress);\r\n        nftCollection.transferFrom(address(this), msg.sender, _auction.id);\r\n        _auction.auctionStatus = AuctionStatus.Cancelled;\r\n\r\n        // TODO : Handle bids\r\n        // TODO : Handle buy request\r\n\r\n        emit onAuctionCancelled(_auctionId, _auction.id);\r\n    }\r\n\r\n    // --\r\n\r\n    // -- Auction handling\r\n    // elapse ??? possible ReentrancyGuard\r\n    // --\r\n\r\n    // -- Auction actions\r\n    // bid - handle user funds?\r\n    function bid() public payable {\r\n        // not supported\r\n        revert();\r\n        // emit onAuctionBid()\r\n    }\r\n\r\n    // --\r\n\r\n    function claimFunds() public {\r\n        require(userFunds[msg.sender] > 0, 'This user has no funds to be claimed');\r\n\r\n        uint256 fundsToClaim = userFunds[msg.sender];\r\n        userFunds[msg.sender] = 0;\r\n        payable(msg.sender).transfer(fundsToClaim);\r\n\r\n        emit onFundsClaimed(msg.sender, fundsToClaim);\r\n    }\r\n\r\n    // Fallback: reverts if Ether is sent to this smart-contract by mistake\r\n    fallback() external {\r\n        revert();\r\n    }\r\n}\r\n",
  "sourcePath": "C:\\github\\trayanm\\TTMMarket\\src\\contracts\\MarketPlace.sol",
  "compiler": {
    "name": "solc",
    "version": "0.8.14+commit.80d49f37.Emscripten.clang"
  },
  "schemaVersion": "3.4.7",
  "updatedAt": "2022-06-10T17:38:38.599Z",
  "devdoc": {
    "kind": "dev",
    "methods": {},
    "version": 1
  },
  "userdoc": {
    "kind": "user",
    "methods": {},
    "version": 1
  }
}