{
  "contractName": "MarketPlace",
  "abi": [
    {
      "inputs": [],
      "stateMutability": "nonpayable",
      "type": "constructor"
    },
    {
      "anonymous": false,
      "inputs": [
        {
          "indexed": true,
          "internalType": "address",
          "name": "previousOwner",
          "type": "address"
        },
        {
          "indexed": true,
          "internalType": "address",
          "name": "newOwner",
          "type": "address"
        }
      ],
      "name": "OwnershipTransferred",
      "type": "event"
    },
    {
      "anonymous": false,
      "inputs": [
        {
          "indexed": true,
          "internalType": "uint256",
          "name": "auctionId",
          "type": "uint256"
        },
        {
          "indexed": false,
          "internalType": "uint256",
          "name": "bid",
          "type": "uint256"
        }
      ],
      "name": "onAuctionBid",
      "type": "event"
    },
    {
      "anonymous": false,
      "inputs": [
        {
          "indexed": true,
          "internalType": "uint256",
          "name": "auctionId",
          "type": "uint256"
        },
        {
          "indexed": true,
          "internalType": "uint256",
          "name": "tokenId",
          "type": "uint256"
        }
      ],
      "name": "onAuctionCancelled",
      "type": "event"
    },
    {
      "anonymous": false,
      "inputs": [
        {
          "indexed": true,
          "internalType": "uint256",
          "name": "auctionId",
          "type": "uint256"
        },
        {
          "indexed": true,
          "internalType": "uint256",
          "name": "tokenId",
          "type": "uint256"
        }
      ],
      "name": "onAuctionClosed",
      "type": "event"
    },
    {
      "anonymous": false,
      "inputs": [
        {
          "indexed": true,
          "internalType": "uint256",
          "name": "auctionId",
          "type": "uint256"
        },
        {
          "indexed": true,
          "internalType": "uint256",
          "name": "tokenId",
          "type": "uint256"
        }
      ],
      "name": "onAuctionCreated",
      "type": "event"
    },
    {
      "anonymous": false,
      "inputs": [
        {
          "indexed": true,
          "internalType": "uint256",
          "name": "auctionId",
          "type": "uint256"
        },
        {
          "indexed": true,
          "internalType": "uint256",
          "name": "tokenId",
          "type": "uint256"
        }
      ],
      "name": "onAuctionFinished",
      "type": "event"
    },
    {
      "anonymous": false,
      "inputs": [
        {
          "indexed": true,
          "internalType": "uint256",
          "name": "collectionId",
          "type": "uint256"
        },
        {
          "indexed": true,
          "internalType": "address",
          "name": "collectionAddress",
          "type": "address"
        },
        {
          "indexed": true,
          "internalType": "address",
          "name": "ownerAddress",
          "type": "address"
        }
      ],
      "name": "onCollectionCreated",
      "type": "event"
    },
    {
      "stateMutability": "nonpayable",
      "type": "fallback"
    },
    {
      "inputs": [],
      "name": "owner",
      "outputs": [
        {
          "internalType": "address",
          "name": "",
          "type": "address"
        }
      ],
      "stateMutability": "view",
      "type": "function"
    },
    {
      "inputs": [],
      "name": "renounceOwnership",
      "outputs": [],
      "stateMutability": "nonpayable",
      "type": "function"
    },
    {
      "inputs": [
        {
          "internalType": "address",
          "name": "newOwner",
          "type": "address"
        }
      ],
      "name": "transferOwnership",
      "outputs": [],
      "stateMutability": "nonpayable",
      "type": "function"
    },
    {
      "inputs": [
        {
          "internalType": "address",
          "name": "",
          "type": "address"
        }
      ],
      "name": "userFunds",
      "outputs": [
        {
          "internalType": "uint256",
          "name": "",
          "type": "uint256"
        }
      ],
      "stateMutability": "view",
      "type": "function"
    },
    {
      "inputs": [
        {
          "internalType": "address",
          "name": "_collectionAddress",
          "type": "address"
        },
        {
          "internalType": "string",
          "name": "_tokenURI",
          "type": "string"
        }
      ],
      "name": "mint",
      "outputs": [
        {
          "internalType": "uint256",
          "name": "",
          "type": "uint256"
        }
      ],
      "stateMutability": "nonpayable",
      "type": "function"
    },
    {
      "inputs": [
        {
          "internalType": "string",
          "name": "_name",
          "type": "string"
        },
        {
          "internalType": "string",
          "name": "_symbol",
          "type": "string"
        },
        {
          "internalType": "string",
          "name": "_metaURI",
          "type": "string"
        }
      ],
      "name": "createCollection",
      "outputs": [
        {
          "internalType": "address",
          "name": "",
          "type": "address"
        }
      ],
      "stateMutability": "nonpayable",
      "type": "function"
    },
    {
      "inputs": [
        {
          "internalType": "uint256",
          "name": "_collectionId",
          "type": "uint256"
        }
      ],
      "name": "getCollection",
      "outputs": [
        {
          "components": [
            {
              "internalType": "uint256",
              "name": "collectionId",
              "type": "uint256"
            },
            {
              "internalType": "address",
              "name": "collectionAddress",
              "type": "address"
            },
            {
              "internalType": "address",
              "name": "ownerAddress",
              "type": "address"
            },
            {
              "internalType": "string",
              "name": "metaURI",
              "type": "string"
            }
          ],
          "internalType": "struct MarketPlace.CollectionItem",
          "name": "",
          "type": "tuple"
        }
      ],
      "stateMutability": "view",
      "type": "function"
    },
    {
      "inputs": [],
      "name": "getCollectionCount",
      "outputs": [
        {
          "internalType": "uint256",
          "name": "",
          "type": "uint256"
        }
      ],
      "stateMutability": "view",
      "type": "function"
    },
    {
      "inputs": [
        {
          "internalType": "address",
          "name": "_collectionAddress",
          "type": "address"
        },
        {
          "internalType": "uint256",
          "name": "_tokenId",
          "type": "uint256"
        },
        {
          "internalType": "uint256",
          "name": "_initialPrice",
          "type": "uint256"
        },
        {
          "internalType": "uint256",
          "name": "_buyItNowPrice",
          "type": "uint256"
        },
        {
          "internalType": "uint256",
          "name": "_durationDays",
          "type": "uint256"
        }
      ],
      "name": "createAuction",
      "outputs": [],
      "stateMutability": "nonpayable",
      "type": "function"
    },
    {
      "inputs": [
        {
          "internalType": "address",
          "name": "collectionAddress",
          "type": "address"
        }
      ],
      "name": "getCollectionAuctions",
      "outputs": [
        {
          "internalType": "uint256[]",
          "name": "",
          "type": "uint256[]"
        }
      ],
      "stateMutability": "view",
      "type": "function"
    },
    {
      "inputs": [
        {
          "internalType": "uint256",
          "name": "_auctionId",
          "type": "uint256"
        }
      ],
      "name": "getAuction",
      "outputs": [
        {
          "components": [
            {
              "internalType": "address",
              "name": "ownerAddress",
              "type": "address"
            },
            {
              "internalType": "address",
              "name": "collectionAddress",
              "type": "address"
            },
            {
              "internalType": "address",
              "name": "highestBidderAddress",
              "type": "address"
            },
            {
              "internalType": "uint256",
              "name": "highestBid",
              "type": "uint256"
            },
            {
              "internalType": "uint256",
              "name": "auctionId",
              "type": "uint256"
            },
            {
              "internalType": "uint256",
              "name": "tokenId",
              "type": "uint256"
            },
            {
              "internalType": "uint256",
              "name": "buyItNowPrice",
              "type": "uint256"
            },
            {
              "internalType": "uint256",
              "name": "initialPrice",
              "type": "uint256"
            },
            {
              "internalType": "uint256",
              "name": "endTime",
              "type": "uint256"
            },
            {
              "internalType": "enum MarketPlace.AuctionStatus",
              "name": "auctionStatus",
              "type": "uint8"
            }
          ],
          "internalType": "struct MarketPlace.AuctionItem",
          "name": "",
          "type": "tuple"
        }
      ],
      "stateMutability": "view",
      "type": "function"
    },
    {
      "inputs": [
        {
          "internalType": "address",
          "name": "_collectionAddress",
          "type": "address"
        },
        {
          "internalType": "uint256",
          "name": "_tokenId",
          "type": "uint256"
        }
      ],
      "name": "getAuctionBy",
      "outputs": [
        {
          "components": [
            {
              "internalType": "address",
              "name": "ownerAddress",
              "type": "address"
            },
            {
              "internalType": "address",
              "name": "collectionAddress",
              "type": "address"
            },
            {
              "internalType": "address",
              "name": "highestBidderAddress",
              "type": "address"
            },
            {
              "internalType": "uint256",
              "name": "highestBid",
              "type": "uint256"
            },
            {
              "internalType": "uint256",
              "name": "auctionId",
              "type": "uint256"
            },
            {
              "internalType": "uint256",
              "name": "tokenId",
              "type": "uint256"
            },
            {
              "internalType": "uint256",
              "name": "buyItNowPrice",
              "type": "uint256"
            },
            {
              "internalType": "uint256",
              "name": "initialPrice",
              "type": "uint256"
            },
            {
              "internalType": "uint256",
              "name": "endTime",
              "type": "uint256"
            },
            {
              "internalType": "enum MarketPlace.AuctionStatus",
              "name": "auctionStatus",
              "type": "uint8"
            }
          ],
          "internalType": "struct MarketPlace.AuctionItem",
          "name": "",
          "type": "tuple"
        }
      ],
      "stateMutability": "view",
      "type": "function"
    },
    {
      "inputs": [
        {
          "internalType": "uint256",
          "name": "_auctionId",
          "type": "uint256"
        }
      ],
      "name": "buyNowAuction",
      "outputs": [],
      "stateMutability": "payable",
      "type": "function"
    },
    {
      "inputs": [
        {
          "internalType": "uint256",
          "name": "_auctionId",
          "type": "uint256"
        }
      ],
      "name": "cancelAuction",
      "outputs": [],
      "stateMutability": "nonpayable",
      "type": "function"
    },
    {
      "inputs": [
        {
          "internalType": "uint256",
          "name": "_auctionId",
          "type": "uint256"
        }
      ],
      "name": "checkAuction",
      "outputs": [],
      "stateMutability": "nonpayable",
      "type": "function"
    },
    {
      "inputs": [
        {
          "internalType": "uint256",
          "name": "_auctionId",
          "type": "uint256"
        }
      ],
      "name": "bidAuction",
      "outputs": [],
      "stateMutability": "payable",
      "type": "function"
    },
    {
      "inputs": [
        {
          "internalType": "address",
          "name": "_collectionAddress",
          "type": "address"
        },
        {
          "internalType": "uint256",
          "name": "_tokenId",
          "type": "uint256"
        },
        {
          "internalType": "uint256",
          "name": "_offeredPrice",
          "type": "uint256"
        }
      ],
      "name": "createDirectOffer",
      "outputs": [],
      "stateMutability": "nonpayable",
      "type": "function"
    },
    {
      "inputs": [
        {
          "internalType": "address",
          "name": "_collectionAddress",
          "type": "address"
        },
        {
          "internalType": "uint256",
          "name": "_tokenId",
          "type": "uint256"
        }
      ],
      "name": "getDirectOffersByOwner",
      "outputs": [
        {
          "components": [
            {
              "internalType": "address",
              "name": "ownerAddress",
              "type": "address"
            },
            {
              "internalType": "address",
              "name": "collectionAddress",
              "type": "address"
            },
            {
              "internalType": "address",
              "name": "buyerAddress",
              "type": "address"
            },
            {
              "internalType": "uint256",
              "name": "directOfferId",
              "type": "uint256"
            },
            {
              "internalType": "uint256",
              "name": "tokenId",
              "type": "uint256"
            },
            {
              "internalType": "uint256",
              "name": "offeredPrice",
              "type": "uint256"
            },
            {
              "internalType": "enum MarketPlace.DirectOfferStatus",
              "name": "directOfferStatus",
              "type": "uint8"
            }
          ],
          "internalType": "struct MarketPlace.DirectOfferItem[]",
          "name": "",
          "type": "tuple[]"
        }
      ],
      "stateMutability": "view",
      "type": "function"
    },
    {
      "inputs": [
        {
          "internalType": "address",
          "name": "_collectionAddress",
          "type": "address"
        },
        {
          "internalType": "uint256",
          "name": "_tokenId",
          "type": "uint256"
        }
      ],
      "name": "getDirectOfferByBuyer",
      "outputs": [
        {
          "components": [
            {
              "internalType": "address",
              "name": "ownerAddress",
              "type": "address"
            },
            {
              "internalType": "address",
              "name": "collectionAddress",
              "type": "address"
            },
            {
              "internalType": "address",
              "name": "buyerAddress",
              "type": "address"
            },
            {
              "internalType": "uint256",
              "name": "directOfferId",
              "type": "uint256"
            },
            {
              "internalType": "uint256",
              "name": "tokenId",
              "type": "uint256"
            },
            {
              "internalType": "uint256",
              "name": "offeredPrice",
              "type": "uint256"
            },
            {
              "internalType": "enum MarketPlace.DirectOfferStatus",
              "name": "directOfferStatus",
              "type": "uint8"
            }
          ],
          "internalType": "struct MarketPlace.DirectOfferItem",
          "name": "",
          "type": "tuple"
        }
      ],
      "stateMutability": "view",
      "type": "function"
    },
    {
      "inputs": [
        {
          "internalType": "address",
          "name": "_collectionAddress",
          "type": "address"
        },
        {
          "internalType": "uint256",
          "name": "_tokenId",
          "type": "uint256"
        }
      ],
      "name": "cancelDirectOffer",
      "outputs": [],
      "stateMutability": "nonpayable",
      "type": "function"
    },
    {
      "inputs": [
        {
          "internalType": "address",
          "name": "_collectionAddress",
          "type": "address"
        },
        {
          "internalType": "uint256",
          "name": "_tokenId",
          "type": "uint256"
        },
        {
          "internalType": "address",
          "name": "_buyerAddress",
          "type": "address"
        }
      ],
      "name": "acceptDirectOffer",
      "outputs": [],
      "stateMutability": "nonpayable",
      "type": "function"
    },
    {
      "inputs": [
        {
          "internalType": "address",
          "name": "_collectionAddress",
          "type": "address"
        },
        {
          "internalType": "uint256",
          "name": "_tokenId",
          "type": "uint256"
        }
      ],
      "name": "fulfillDirectOffer",
      "outputs": [],
      "stateMutability": "payable",
      "type": "function"
    },
    {
      "inputs": [],
      "name": "claimFunds",
      "outputs": [],
      "stateMutability": "nonpayable",
      "type": "function"
    },
    {
      "inputs": [],
      "name": "withdrawProfit",
      "outputs": [],
      "stateMutability": "nonpayable",
      "type": "function"
    },
    {
      "inputs": [],
      "name": "getProfitAmount",
      "outputs": [
        {
          "internalType": "uint256",
          "name": "",
          "type": "uint256"
        }
      ],
      "stateMutability": "nonpayable",
      "type": "function"
    }
  ],
  "bytecode": "0x60806040523480156200001157600080fd5b5062000038620000296401000000006200003e810204565b64010000000062000042810204565b62000092565b3390565b60008054600160a060020a03838116600160a060020a0319831681178455604051919092169283917f8be0079c531659141344cd1fd0a4f28419497f9722a3daafe3b4186f6b6457e09190a35050565b615e8580620000a26000396000f3fe608060405260043610620001565760003560e060020a900480638da5cb5b11620000c55780638da5cb5b1462000334578063959499b61462000365578063961c9ae4146200037d57806396b5a75514620003a2578063ac30777314620003c7578063c9611ab914620003df578063d0def5211462000413578063d513d6f51462000438578063e1aa9bdd146200046c578063e324bd1f1462000491578063ece86c2114620004a8578063f2fde38b14620004cd578063f36df2fa14620004f25762000156565b8063154e0e0214620001685780631943459614620001a55780631c10106f14620001cc57806320c0394814620001e4578063222b1059146200020b5780632965e1f014620002305780635a1f3c28146200024757806364a7d7c7146200027b578063715018a6146200029257806378bd793514620002aa5780638387c6e114620002cf5780638d77d2b41462000300575b3480156200016357600080fd5b600080fd5b3480156200017557600080fd5b506200018d6200018736600462002cc5565b62000517565b6040516200019c919062002d4d565b60405180910390f35b348015620001b257600080fd5b50620001bd6200055a565b6040519081526020016200019c565b348015620001d957600080fd5b50620001bd620005a3565b348015620001f157600080fd5b50620002096200020336600462002de8565b620005b4565b005b3480156200021857600080fd5b50620002096200022a36600462002cc5565b620005d1565b620002096200024136600462002cc5565b62000786565b3480156200025457600080fd5b506200026c6200026636600462002de8565b62000a79565b6040516200019c919062002e52565b620002096200028c36600462002de8565b62000b83565b3480156200029f57600080fd5b506200020962000e2b565b348015620002b757600080fd5b506200018d620002c936600462002de8565b62000e70565b348015620002dc57600080fd5b50620001bd620002ee36600462002e9c565b60056020526000908152604090205481565b3480156200030d57600080fd5b50620003256200031f36600462002cc5565b62000f67565b6040516200019c919062002f1c565b3480156200034157600080fd5b506200034c620010a8565b604051600160a060020a0390911681526020016200019c565b3480156200037257600080fd5b5062000209620010b7565b3480156200038a57600080fd5b50620002096200039c36600462002f2c565b6200112d565b348015620003af57600080fd5b5062000209620003c136600462002de8565b62001513565b348015620003d457600080fd5b5062000209620016b8565b348015620003ec57600080fd5b5062000404620003fe36600462002e9c565b6200175b565b6040516200019c919062002f73565b3480156200042057600080fd5b50620001bd6200043236600462003068565b620017c9565b3480156200044557600080fd5b506200045d6200045736600462002cc5565b62001852565b6040516200019c9190620030be565b3480156200047957600080fd5b50620002096200048b36600462003104565b62001b2d565b62000209620004a236600462002de8565b62001d79565b348015620004b557600080fd5b506200034c620004c73660046200314b565b620020bc565b348015620004da57600080fd5b5062000209620004ec36600462002e9c565b620022c4565b348015620004ff57600080fd5b506200020962000511366004620031dd565b62002376565b6200052162002be6565b600160a060020a0383166000908152600a60209081526040808320858452909152902054620005508162000e70565b9150505b92915050565b60003362000567620010a8565b600160a060020a0316146200059c5760405160e560020a62461bcd028152600401620005939062003215565b60405180910390fd5b5060045490565b6000620005af60015490565b905090565b6000818152600660205260409020620005cd816200265c565b5050565b600160a060020a0382166000908152600b602090815260408083208484529091528120819062000602903362002843565b915091508180156200063f5750600160a060020a0384166000908152600b6020908152604080832086845290915290206003015460ff1615156001145b620006615760405160e560020a62461bcd02815260040162000593906200324a565b60008181526007602052604090206002810154600160a060020a03163314620006d05760405160e560020a62461bcd02815260206004820152601b60248201527f4f6e6c79206f666665722062617965722063616e2063616e63656c0000000000604482015260640162000593565b6000600682015460ff166003811115620006ee57620006ee62002d01565b14806200071657506001600682015460ff16600381111562000714576200071462002d01565b145b620007385760405160e560020a62461bcd028152600401620005939062003281565b60068101805460ff191660031790556001810154600160a060020a03166000908152600b602090815260408083206004850154845290915290206200077e90336200286c565b505050505050565b600160a060020a0382166000908152600b6020908152604080832084845290915281208190620007b7903362002843565b91509150818015620007f45750600160a060020a0384166000908152600b6020908152604080832086845290915290206003015460ff1615156001145b620008165760405160e560020a62461bcd02815260040162000593906200324a565b60008181526007602052604090206001600682015460ff16600381111562000842576200084262002d01565b14620008945760405160e560020a62461bcd02815260206004820152601560248201527f4f66666572206973206e6f742061636365707465640000000000000000000000604482015260640162000593565b6002810154600160a060020a03163314620008f55760405160e560020a62461bcd02815260206004820152601d60248201527f4f6e6c79206f666665722062617965722063616e2066756c6c66696c6c000000604482015260640162000593565b806005015434146200094d5760405160e560020a62461bcd02815260206004820152601a60248201527f4f66666572656420707269636520697320696e636f7272656374000000000000604482015260640162000593565b60018101548154600283015460048085015460405160e060020a6323b872dd028152600160a060020a039586169586956323b872dd9562000996959183169492169201620032b8565b600060405180830381600087803b158015620009b157600080fd5b505af1158015620009c6573d6000803e3d6000fd5b5050505060068201805460ff191660021790556000620009f56064620009ee3460036200288a565b9062002898565b9050600062000a053483620028a6565b8454600160a060020a031660009081526005602052604090205490915062000a2e9082620028b4565b9354600160a060020a03908116600090815260056020908152604080832097909755999091168152600b8952848120978152969097525050909220600301805460ff19169055505050565b6040805160808082018352600080835260208084018290528385018290526060808501819052868352600882529185902085519384018652805484526001810154600160a060020a0390811692850192909252600281015490911694830194909452600384018054939492939184019162000af490620032dc565b80601f016020809104026020016040519081016040528092919081815260200182805462000b2290620032dc565b801562000b735780601f1062000b475761010080835404028352916020019162000b73565b820191906000526020600020905b81548152906001019060200180831162000b5557829003601f168201915b5050505050815250509050919050565b60008181526006602052604090206004810154821462000bba5760405160e560020a62461bcd02815260040162000593906200331c565b62000bc5816200265c565b6000600982015460ff16600381111562000be35762000be362002d01565b03620005cd57805433600160a060020a039091160362000c495760405160e560020a62461bcd02815260206004820152601860248201527f41756374696f6e206f776e65722063616e6e6f74206269640000000000000000604482015260640162000593565b600281015433600160a060020a039091160362000cac5760405160e560020a62461bcd02815260206004820152601660248201527f416c726561647920686967686573742062696464657200000000000000000000604482015260640162000593565b806007015434101562000d055760405160e560020a62461bcd02815260206004820152601860248201527f426964206973206c657373207468616e20696e697469616c0000000000000000604482015260640162000593565b8060030154341162000d5d5760405160e560020a62461bcd02815260206004820152601860248201527f426964206973206c657373207468616e20686967686573740000000000000000604482015260640162000593565b6000816003015411801562000d7e57506002810154600160a060020a031615155b1562000dcf5760038101546002820154600160a060020a031660009081526005602052604090205462000db191620028b4565b6002820154600160a060020a03166000908152600560205260409020555b3460038201819055600282018054600160a060020a0319163317905560405183917f281a095d747cc9c4f0fa29ed1f9210bfef8a501597bbb761e159f8d3306316669162000e1f91815260200190565b60405180910390a25050565b3362000e36620010a8565b600160a060020a03161462000e625760405160e560020a62461bcd028152600401620005939062003215565b62000e6e6000620028c2565b565b62000e7a62002be6565b60008281526006602081815260408084208151610140810183528154600160a060020a0390811682526001830154811694820194909452600282015490931691830191909152600380820154606084015260048201546080840152600582015460a08401529281015460c0830152600781015460e0830152600881015461010083015260098101549192909161012084019160ff9091169081111562000f245762000f2462002d01565b600381111562000f385762000f3862002d01565b81525050905082816080015114620005545760405160e560020a62461bcd02815260040162000593906200331c565b62000f7162002c67565b600160a060020a0383166000908152600b602090815260408083208584529091528120819062000fa2903362002843565b9150915081801562000fdf5750600160a060020a0385166000908152600b6020908152604080832087845290915290206003015460ff1615156001145b620010015760405160e560020a62461bcd02815260040162000593906200324a565b6000818152600760209081526040808320815160e0810183528154600160a060020a0390811682526001830154811694820194909452600282015490931691830191909152600380820154606084015260048201546080840152600582015460a0840152600682015460c084019160ff9091169081111562001087576200108762002d01565b60038111156200109b576200109b62002d01565b9052509695505050505050565b600054600160a060020a031690565b33620010c2620010a8565b600160a060020a031614620010ee5760405160e560020a62461bcd028152600401620005939062003215565b6004805460009182905560405190913391829184156108fc02918591818181858888f1935050505015801562001128573d6000803e3d6000fd5b505050565b60405160e160020a6331a9108f028152600481018590528590600160a060020a03821690636352211e90602401602060405180830381865afa15801562001178573d6000803e3d6000fd5b505050506040513d601f19601f820116820180604052508101906200119e919062003353565b600160a060020a031633600160a060020a031614620011d45760405160e560020a62461bcd028152600401620005939062003373565b60405160e260020a63020604bf02815260048101869052600160a060020a0382169063081812fc90602401602060405180830381865afa1580156200121d573d6000803e3d6000fd5b505050506040513d601f19601f8201168201806040525081019062001243919062003353565b600160a060020a031630600160a060020a031614620012795760405160e560020a62461bcd0281526004016200059390620033aa565b600160a060020a0386166000908152600a6020908152604080832088845290915290205415620012c05760405160e560020a62461bcd0281526004016200059390620033e1565b60008211620013155760405160e560020a62461bcd02815260206004820152601060248201527f496e76616c6964206475726174696f6e00000000000000000000000000000000604482015260640162000593565b62001324600280546001019055565b60006200133060025490565b905060405180610140016040528033600160a060020a0316815260200188600160a060020a031681526020016000600160a060020a031681526020016000815260200182815260200187815260200185815260200186815260200184620151806200139c919062003432565b620013a8904262003454565b81526020016000905260008281526006602081815260409283902084518154600160a060020a0319908116600160a060020a0392831617835592860151600180840180548616928416929092179091559486015160028301805490941691161790915560608401516003808301919091556080850151600483015560a0850151600583015560c08501519282019290925560e08401516007820155610100840151600882015561012084015160098201805492949193909260ff1916919084908111156200147a576200147a62002d01565b02179055505050600160a060020a0387166000818152600960209081526040808320805460018101825590845282842001859055838352600a82528083208a84528252808320859055928252600b81528282208983529052818120600301805460ff191690559051879183917fd086c941db0dfd32e8d65552faa1a349d3c3fc18b2235a0fe20be668c81feee09190a350505050505050565b6000818152600660205260409020600481015482146200154a5760405160e560020a62461bcd02815260040162000593906200331c565b62001555816200265c565b6000600982015460ff16600381111562001573576200157362002d01565b03620005cd578054600160a060020a03163314620015d75760405160e560020a62461bcd02815260206004820152601d60248201527f4f6e6c792061756374696f6e206f776e65722063616e2063616e63656c000000604482015260640162000593565b60098101805460ff191660039081179091556001820154600160a060020a03166000908152600a6020908152604080832060058601548452909152812055810154158015906200163357506002810154600160a060020a031615155b15620016845760038101546002820154600160a060020a03166000908152600560205260409020546200166691620028b4565b6002820154600160a060020a03166000908152600560205260409020555b600581015460405183907f9c31dd0dfb89b9b275633c46be4dc396661364ff715b47b8ae06201681e7ebc390600090a35050565b33600090815260056020526040902054620017195760405160e560020a62461bcd02815260206004820152601660248201527f4e6f2066756e647320746f20626520636c61696d656400000000000000000000604482015260640162000593565b33600081815260056020526040808220805490839055905190929183156108fc02918491818181858888f19350505050158015620005cd573d6000803e3d6000fd5b600160a060020a038116600090815260096020908152604091829020805483518184028101840190945280845260609392830182828015620017bd57602002820191906000526020600020905b815481526020019060010190808311620017a8575b50505050509050919050565b60405160e160020a633635692102815260009083908290600160a060020a03831690636c6ad242906200180390339088906004016200346f565b6020604051808303816000875af115801562001823573d6000803e3d6000fd5b505050506040513d601f19601f8201168201806040525081019062001849919062003495565b95945050505050565b60405160e160020a6331a9108f028152600481018290526060908390600160a060020a03821690636352211e90602401602060405180830381865afa158015620018a0573d6000803e3d6000fd5b505050506040513d601f19601f82011682018060405250810190620018c6919062003353565b600160a060020a031633600160a060020a031614620018fc5760405160e560020a62461bcd028152600401620005939062003373565b600160a060020a0384166000908152600b6020908152604080832086845290915290206003015460ff1615156001146200197c5760405160e560020a62461bcd02815260206004820152601060248201527f4f6666657273206e6f7420666f756e6400000000000000000000000000000000604482015260640162000593565b600160a060020a0384166000908152600b602090815260408083208684529091528120620019aa9062002912565b905060008167ffffffffffffffff811115620019ca57620019ca62002fb9565b60405190808252806020026020018201604052801562001a0757816020015b620019f362002c67565b815260200190600190039081620019e95790505b50905060005b8281101562001b2357600160a060020a0387166000908152600b60209081526040808320898452909152812062001a4590836200291f565b600081815260076020908152604091829020825160e0810184528154600160a060020a0390811682526001830154811693820193909352600282015490921692820192909252600380830154606083015260048301546080830152600583015460a08301526006830154939550909350909160c084019160ff9091169081111562001ad45762001ad462002d01565b600381111562001ae85762001ae862002d01565b8152505083838151811062001b015762001b01620034af565b602002602001018190525050808062001b1a90620034c9565b91505062001a0d565b5095945050505050565b600160a060020a0383166000908152600b602090815260408083208584529091528120819062001b5e908462002843565b9150915081801562001b9b5750600160a060020a0385166000908152600b6020908152604080832087845290915290206003015460ff1615156001145b62001bbd5760405160e560020a62461bcd02815260040162000593906200324a565b600081815260076020526040812090600682015460ff16600381111562001be85762001be862002d01565b1462001c0b5760405160e560020a62461bcd028152600401620005939062003281565b600181015460048083015460405160e160020a6331a9108f02815291820152600160a060020a03909116908190636352211e90602401602060405180830381865afa15801562001c5f573d6000803e3d6000fd5b505050506040513d601f19601f8201168201806040525081019062001c85919062003353565b600160a060020a031633600160a060020a03161462001cbb5760405160e560020a62461bcd028152600401620005939062003373565b60048281015460405160e260020a63020604bf02815291820152600160a060020a0382169063081812fc90602401602060405180830381865afa15801562001d07573d6000803e3d6000fd5b505050506040513d601f19601f8201168201806040525081019062001d2d919062003353565b600160a060020a031630600160a060020a03161462001d635760405160e560020a62461bcd0281526004016200059390620033aa565b50600601805460ff191660011790555050505050565b60008181526006602052604090206004810154821462001db05760405160e560020a62461bcd02815260040162000593906200331c565b62001dbb816200265c565b6000600982015460ff16600381111562001dd95762001dd962002d01565b03620005cd57805433600160a060020a039091160362001e3f5760405160e560020a62461bcd02815260206004820152601b60248201527f41756374696f6e206f776e65722063616e6e6f74206275792069740000000000604482015260640162000593565b600081600601541162001e985760405160e560020a62461bcd02815260206004820152601660248201527f427579206e6f77206973206e6f7420616c6c6f77656400000000000000000000604482015260640162000593565b8060060154341462001ef05760405160e560020a62461bcd02815260206004820152601860248201527f427579206e6f7720707269636520697320677265617465720000000000000000604482015260640162000593565b60018101548154600583015460405160e060020a6323b872dd028152600160a060020a039384169384936323b872dd9362001f359391909216913391600401620032b8565b600060405180830381600087803b15801562001f5057600080fd5b505af115801562001f65573d6000803e3d6000fd5b505050506000826003015411801562001f8a57506002820154600160a060020a031615155b1562001fdb5760038201546002830154600160a060020a031660009081526005602052604090205462001fbd91620028b4565b6002830154600160a060020a03166000908152600560205260409020555b60098201805460ff19166002179055600062001fff6064620009ee3460036200288a565b905060006200200f3483620028a6565b600454909150620020219083620028b4565b6004558354600160a060020a03166000908152600560205260409020546200204a9082620028b4565b8454600160a060020a0390811660009081526005602081815260408084209590955560018901549093168252600a83528382209088018054835292528281208190559054915187917fac764b5e3093df07973820131c91169ffd8ac85fd2f8f7329bb83e8ba6299e7291a35050505050565b6000808484604051620020cf9062002ca1565b620020dc929190620034e5565b604051809103906000f080158015620020f9573d6000803e3d6000fd5b5060405160e060020a632f2ff15d0281527f9f2df0fed2c77648de5860a4cc508cd0818c85b8b8a1ab4ceeef8d981c8956a66004820152336024820152909150600160a060020a03821690632f2ff15d90604401600060405180830381600087803b1580156200216857600080fd5b505af11580156200217d573d6000803e3d6000fd5b505060405160e060020a63a22cb46502815233600482015260016024820152600160a060020a038416925063a22cb4659150604401600060405180830381600087803b158015620021cd57600080fd5b505af1158015620021e2573d6000803e3d6000fd5b50506001805481019055508190506000620021fc60015490565b60408051608081018252828152600160a060020a03808616602080840191825233848601908152606085018c81526000888152600890935295909120845181559151600183018054918516600160a060020a031992831617905590516002830180549190941691161790915591519293509160038201906200227f908262003558565b5050604051339150600160a060020a0384169083907fecbe631ce73f784b71c74c5339317b59e203e339d6773c02526891b8063931c090600090a45095945050505050565b33620022cf620010a8565b600160a060020a031614620022fb5760405160e560020a62461bcd028152600401620005939062003215565b600160a060020a038116620023685760405160e560020a62461bcd02815260206004820152602660248201527f4f776e61626c653a206e6577206f776e657220697320746865207a65726f2061604482015260d060020a6564647265737302606482015260840162000593565b6200237381620028c2565b50565b60405160e160020a6331a9108f028152600481018390528390600090600160a060020a03831690636352211e90602401602060405180830381865afa158015620023c4573d6000803e3d6000fd5b505050506040513d601f19601f82011682018060405250810190620023ea919062003353565b9050600160a060020a0381163303620024495760405160e560020a62461bcd02815260206004820152601360248201527f416c726561647920746f6b656e206f776e657200000000000000000000000000604482015260640162000593565b600083116200249e5760405160e560020a62461bcd02815260206004820152601c60248201527f4f6666657265642070726963652063616e6e6f74206265207a65726f00000000604482015260640162000593565b600160a060020a0385166000908152600a6020908152604080832087845290915290205415620024e55760405160e560020a62461bcd0281526004016200059390620033e1565b620024f4600380546001019055565b60006200250060035490565b90506040518060e0016040528083600160a060020a0316815260200187600160a060020a0316815260200133600160a060020a031681526020018281526020018681526020018581526020016000600381111562002562576200256262002d01565b905260008281526007602090815260409182902083518154600160a060020a0319908116600160a060020a0392831617835592850151600180840180548616928416929092179091559385015160028301805490941691161790915560608301516003808301919091556080840151600483015560a0840151600583015560c084015160068301805493949193909260ff19909116919084908111156200260d576200260d62002d01565b02179055505050600160a060020a0386166000908152600b60209081526040808320888452909152902060038101805460ff191660011790556200265390338362002930565b50505050505050565b6000600982015460ff1660038111156200267a576200267a62002d01565b03620023735760088101544210801590620005cd57600182015460078301546003840154600160a060020a03909216911115620027fc5760098301805460ff19166002179055600380840154600091620026dd91606491620009ee91906200288a565b90506000620026fa828660030154620028a690919063ffffffff16565b6004549091506200270c9083620028b4565b6004558454600160a060020a0316600090815260056020526040902054620027359082620028b4565b8554600160a060020a0390811660009081526005602081905260409182902093909355875492880154905160e060020a6323b872dd028152868316936323b872dd936200278b93911691339190600401620032b8565b600060405180830381600087803b158015620027a657600080fd5b505af1158015620027bb573d6000803e3d6000fd5b50505050846005015485600401547fac764b5e3093df07973820131c91169ffd8ac85fd2f8f7329bb83e8ba6299e7260405160405180910390a35050505050565b60098301805460ff19166001179055600583015460048401546040517fd484161cdc7334a69596d5f9999063f7f6e66fed80c3ecd553653547aa563ec790600090a3505050565b60008080806200285d86600160a060020a03871662002950565b909450925050505b9250929050565b60006200288383600160a060020a0384166200298f565b9392505050565b600062002883828462003432565b60006200288382846200362b565b600062002883828462003652565b600062002883828462003454565b60008054600160a060020a03838116600160a060020a0319831681178455604051919092169283917f8be0079c531659141344cd1fd0a4f28419497f9722a3daafe3b4186f6b6457e09190a35050565b60006200055482620029ae565b60008080806200285d8686620029bb565b60006200294884600160a060020a03851684620029e8565b949350505050565b6000818152600283016020526040812054819080620029835762002975858562002a07565b925060009150620028659050565b60019250905062002865565b6000818152600283016020526040812081905562002883838362002a15565b6000620005548262002a23565b60008080620029cb858562002a2e565b600081815260029690960160205260409095205494959350505050565b6000828152600284016020526040812082905562002948848462002a3c565b600062002883838362002a4a565b600062002883838362002a63565b600062000554825490565b600062002883838362002b67565b600062002883838362002b94565b6000818152600183016020526040812054151562002883565b6000818152600183016020526040812054801562002b5c57600062002a8a60018362003652565b855490915060009062002aa09060019062003652565b905081811462002b0c57600086600001828154811062002ac45762002ac4620034af565b906000526020600020015490508087600001848154811062002aea5762002aea620034af565b6000918252602080832090910192909255918252600188019052604090208390555b855486908062002b205762002b206200366c565b60019003818190600052602060002001600090559055856001016000868152602001908152602001600020600090556001935050505062000554565b600091505062000554565b600082600001828154811062002b815762002b81620034af565b9060005260206000200154905092915050565b600081815260018301602052604081205462002bdd5750815460018181018455600084815260208082209093018490558454848252828601909352604090209190915562000554565b50600062000554565b6040518061014001604052806000600160a060020a031681526020016000600160a060020a031681526020016000600160a060020a031681526020016000815260200160008152602001600081526020016000815260200160008152602001600081526020016000600381111562002c625762002c6262002d01565b905290565b6040805160e081018252600080825260208201819052918101829052606081018290526080810182905260a081018290529060c082015290565b6127c9806200368783390190565b600160a060020a03811681146200237357600080fd5b6000806040838503121562002cd957600080fd5b823562002ce68162002caf565b946020939093013593505050565b600160a060020a03169052565b60e060020a634e487b710260009081526021600452602490fd5b60048110620023735760e060020a634e487b710260009081526021600452602490fd5b62002d498162002d1b565b9052565b60006101408201905062002d6382845162002cf4565b602083015162002d77602084018262002cf4565b50604083015162002d8c604084018262002cf4565b50606083015160608301526080830151608083015260a083015160a083015260c083015160c083015260e083015160e08301526101008084015181840152506101208084015162002de08285018262002d3e565b505092915050565b60006020828403121562002dfb57600080fd5b5035919050565b6000815180845260005b8181101562002e2a5760208185018101518683018201520162002e0c565b8181111562002e3d576000602083870101525b50601f01601f19169290920160200192915050565b602081528151602082015260006020830151600160a060020a038082166040850152806040860151166060850152505060608301516080808401526200055060a084018262002e02565b60006020828403121562002eaf57600080fd5b8135620028838162002caf565b600160a060020a0380825116835280602083015116602084015280604083015116604084015250606081015160608301526080810151608083015260a081015160a083015260c081015162002f118162002d1b565b8060c0840152505050565b60e0810162000554828462002ebc565b600080600080600060a0868803121562002f4557600080fd5b853562002f528162002caf565b97602087013597506040870135966060810135965060800135945092505050565b6020808252825182820181905260009190848201906040850190845b8181101562002fad5783518352928401929184019160010162002f8f565b50909695505050505050565b60e060020a634e487b710260009081526041600452602490fd5b600082601f83011262002fe557600080fd5b813567ffffffffffffffff8082111562003003576200300362002fb9565b604051601f8301601f19908116603f011681019082821181831017156200302e576200302e62002fb9565b816040528381528660208588010111156200304857600080fd5b836020870160208301376000602085830101528094505050505092915050565b600080604083850312156200307c57600080fd5b8235620030898162002caf565b9150602083013567ffffffffffffffff811115620030a657600080fd5b620030b48582860162002fd3565b9150509250929050565b6020808252825182820181905260009190848201906040850190845b8181101562002fad57620030f083855162002ebc565b9284019260e09290920191600101620030da565b6000806000606084860312156200311a57600080fd5b8335620031278162002caf565b9250602084013591506040840135620031408162002caf565b809150509250925092565b6000806000606084860312156200316157600080fd5b833567ffffffffffffffff808211156200317a57600080fd5b620031888783880162002fd3565b945060208601359150808211156200319f57600080fd5b620031ad8783880162002fd3565b93506040860135915080821115620031c457600080fd5b50620031d38682870162002fd3565b9150509250925092565b600080600060608486031215620031f357600080fd5b8335620032008162002caf565b95602085013595506040909401359392505050565b6020808252818101527f4f776e61626c653a2063616c6c6572206973206e6f7420746865206f776e6572604082015260600190565b6020808252600f908201527f4f66666572206e6f7420666f756e640000000000000000000000000000000000604082015260600190565b60208082526011908201527f4f66666572206973206e6f74206f70656e000000000000000000000000000000604082015260600190565b600160a060020a039384168152919092166020820152604081019190915260600190565b600281046001821680620032f157607f821691505b602082108103620033165760e060020a634e487b710260009081526022600452602490fd5b50919050565b60208082526017908201527f41756374696f6e20646f6573206e6f7420657869737473000000000000000000604082015260600190565b6000602082840312156200336657600080fd5b8151620028838162002caf565b6020808252600f908201527f4e6f7420746f6b656e206f776e65720000000000000000000000000000000000604082015260600190565b6020808252601b908201527f4d61726b6574506c616365206973206e6f7420617070726f7665640000000000604082015260600190565b6020808252601d908201527f41756374696f6e20666f72207468697320746f6b656e20657869737473000000604082015260600190565b60e060020a634e487b710260009081526011600452602490fd5b60008160001904831182151516156200344f576200344f62003418565b500290565b600082198211156200346a576200346a62003418565b500190565b600160a060020a0383168152604060208201819052600090620029489083018462002e02565b600060208284031215620034a857600080fd5b5051919050565b60e060020a634e487b710260009081526032600452602490fd5b600060018201620034de57620034de62003418565b5060010190565b604081526000620034fa604083018562002e02565b828103602084015262001849818562002e02565b601f82111562001128576000818152602081206020601f86010481016020861015620035375750805b6020601f860104820191505b818110156200077e5782815560010162003543565b815167ffffffffffffffff81111562003575576200357562002fb9565b6200358d81620035868454620032dc565b846200350e565b602080601f831160018114620035c95760008415620035ac5750858301515b60028086026008870290910a60001904198216178655506200077e565b600085815260208120601f198616915b82811015620035fa57888601518255948401946001909101908401620035d9565b50858210156200361b57878501516008601f88160260020a60001904191681555b5050505050600202600101905550565b6000826200364d5760e060020a634e487b710260009081526012600452602490fd5b500490565b60008282101562003667576200366762003418565b500390565b60e060020a634e487b710260009081526031600452602490fdfe60806040523480156200001157600080fd5b50604051620027c9380380620027c983398101604081905262000034916200028c565b818160006200004483826200039e565b5060016200005382826200039e565b506200008091506000905062000071640100000000620000c0810204565b640100000000620000c4810204565b620000b87f9f2df0fed2c77648de5860a4cc508cd0818c85b8b8a1ab4ceeef8d981c8956a662000071640100000000620000c0810204565b505062000470565b3390565b620000d98282640100000000620000dd810204565b5050565b620000f282826401000000006200017b810204565b620000d9576000828152600a60209081526040808320600160a060020a03851684529091529020805460ff1916600117905562000137640100000000620000c0810204565b600160a060020a031681600160a060020a0316837f2f8788117e7eff1d82e926ec794901d17c78024a50270940304540a733656f0d60405160405180910390a45050565b6000918252600a60209081526040808420600160a060020a0393909316845291905290205460ff1690565b7f4e487b7100000000000000000000000000000000000000000000000000000000600052604160045260246000fd5b600082601f830112620001e757600080fd5b81516001604060020a0380821115620002045762000204620001a6565b604051601f8301601f19908116603f011681019082821181831017156200022f576200022f620001a6565b816040528381526020925086838588010111156200024c57600080fd5b600091505b8382101562000270578582018301518183018401529082019062000251565b83821115620002825760008385830101525b9695505050505050565b60008060408385031215620002a057600080fd5b82516001604060020a0380821115620002b857600080fd5b620002c686838701620001d5565b93506020850151915080821115620002dd57600080fd5b50620002ec85828601620001d5565b9150509250929050565b6002810460018216806200030b57607f821691505b60208210810362000345577f4e487b7100000000000000000000000000000000000000000000000000000000600052602260045260246000fd5b50919050565b601f82111562000399576000818152602081206020601f86010481016020861015620003745750805b6020601f860104820191505b81811015620003955782815560010162000380565b5050505b505050565b81516001604060020a03811115620003ba57620003ba620001a6565b620003d281620003cb8454620002f6565b846200034b565b602080601f8311600181146200040e5760008415620003f15750858301515b60028086026008870290910a600019041982161786555062000395565b600085815260208120601f198616915b828110156200043f578886015182559484019460019091019084016200041e565b50858210156200046057878501516008601f88160260020a60001904191681555b5050505050600202600101905550565b61234980620004806000396000f3fe608060405234801561001057600080fd5b506004361061015d5760003560e060020a90048063695850fb116100cd578063695850fb146102895780636c6ad2421461029c5780636c8b703f146102af57806370a08231146102c257806391d14854146102d557806395d89b41146102e8578063a217fddf146102f0578063a22cb465146102f8578063b88d4fde1461030b578063c2ba47441461031e578063c87b56dd14610331578063d539139314610344578063d547741f14610359578063e985e9c51461036c57600080fd5b806301ffc9a71461016257806306fdde031461018a578063081812fc1461019f578063095ea7b3146101ca57806318160ddd146101df57806323b872dd146101f1578063248a9ca3146102045780632f2ff15d146102175780632f745c591461022a57806336568abe1461023d57806342842e0e146102505780634f6ccce7146102635780636352211e14610276575b600080fd5b610175610170366004611b87565b61037f565b60405190151581526020015b60405180910390f35b610192610390565b6040516101819190611bfc565b6101b26101ad366004611c0f565b610422565b604051600160a060020a039091168152602001610181565b6101dd6101d8366004611c44565b6104b5565b005b6008545b604051908152602001610181565b6101dd6101ff366004611c6e565b6105d3565b6101e3610212366004611c0f565b610607565b6101dd610225366004611caa565b61061c565b6101e3610238366004611c44565b610638565b6101dd61024b366004611caa565b6106d4565b6101dd61025e366004611c6e565b610763565b6101e3610271366004611c0f565b61077e565b6101b2610284366004611c0f565b610817565b6101e3610297366004611d86565b610894565b6101e36102aa366004611dbb565b610a01565b6101926102bd366004611c0f565b610b71565b6101e36102d0366004611e09565b610c1d565b6101756102e3366004611caa565b610caa565b610192610cd5565b6101e3600081565b6101dd610306366004611e24565b610ce4565b6101dd610319366004611e60565b610cef565b61017561032c366004611e09565b610d2a565b61019261033f366004611c0f565b610d44565b6101e36000805160206122f483398151915281565b6101dd610367366004611caa565b610e62565b61017561037a366004611edc565b610e7e565b600061038a82610eac565b92915050565b60606000805461039f90611f06565b80601f01602080910402602001604051908101604052809291908181526020018280546103cb90611f06565b80156104185780601f106103ed57610100808354040283529160200191610418565b820191906000526020600020905b8154815290600101906020018083116103fb57829003601f168201915b5050505050905090565b600061042d82610ed4565b6104995760405160e560020a62461bcd02815260206004820152602c60248201527f4552433732313a20617070726f76656420717565727920666f72206e6f6e6578604482015260a160020a6b34b9ba32b73a103a37b5b2b70260648201526084015b60405180910390fd5b50600090815260046020526040902054600160a060020a031690565b60006104c082610817565b905080600160a060020a031683600160a060020a0316036105335760405160e560020a62461bcd02815260206004820152602160248201527f4552433732313a20617070726f76616c20746f2063757272656e74206f776e65604482015260f960020a6039026064820152608401610490565b33600160a060020a038216148061054f575061054f8133610e7e565b6105c45760405160e560020a62461bcd02815260206004820152603860248201527f4552433732313a20617070726f76652063616c6c6572206973206e6f74206f7760448201527f6e6572206e6f7220617070726f76656420666f7220616c6c00000000000000006064820152608401610490565b6105ce8383610ef1565b505050565b6105dd3382610f5f565b6105fc5760405160e560020a62461bcd02815260040161049090611f44565b6105ce83838361102f565b6000908152600a602052604090206001015490565b61062582610607565b61062e816111e2565b6105ce83836111ef565b600061064383610c1d565b82106106ab5760405160e560020a62461bcd02815260206004820152602b60248201527f455243373231456e756d657261626c653a206f776e657220696e646578206f75604482015260a860020a6a74206f6620626f756e6473026064820152608401610490565b50600160a060020a03919091166000908152600660209081526040808320938352929052205490565b600160a060020a03811633146107555760405160e560020a62461bcd02815260206004820152602f60248201527f416363657373436f6e74726f6c3a2063616e206f6e6c792072656e6f756e636560448201527f20726f6c657320666f722073656c6600000000000000000000000000000000006064820152608401610490565b61075f8282611275565b5050565b6105ce83838360405180602001604052806000815250610cef565b600061078960085490565b82106107f25760405160e560020a62461bcd02815260206004820152602c60248201527f455243373231456e756d657261626c653a20676c6f62616c20696e646578206f604482015260a060020a6b7574206f6620626f756e6473026064820152608401610490565b6008828154811061080557610805611fa1565b90600052602060002001549050919050565b600081815260026020526040812054600160a060020a03168061038a5760405160e560020a62461bcd02815260206004820152602960248201527f4552433732313a206f776e657220717565727920666f72206e6f6e6578697374604482015260b960020a6832b73a103a37b5b2b7026064820152608401610490565b60006108ae6000805160206122f483398151915233610caa565b6109235760405160e560020a62461bcd02815260206004820152603d60248201527f4552433732315072657365744d696e7465725061757365724175746f49643a2060448201527f6d7573742068617665206d696e74657220726f6c6520746f206d696e740000006064820152608401610490565b600c826040516109339190611fbb565b9081526040519081900360200190205460ff16156109665760405160e560020a62461bcd02815260040161049090611fd7565b600b80546001810182556000919091527f0175b7a638427703f0dbe7bb9bbf987a2551717b34e79f33b5b1008d1fa01db9016109a2838261205c565b50600b546000818152600d602052604090206109be848261205c565b506109c933826112dc565b6001600c846040516109db9190611fbb565b908152604051908190036020019020805491151560ff1990921691909117905592915050565b6000610a0d8133610caa565b610a825760405160e560020a62461bcd02815260206004820152603c60248201527f4552433732315072657365744d696e7465725061757365724175746f49643a2060448201527f6d75737420686176652061646d696e20726f6c6520746f206d696e74000000006064820152608401610490565b600c82604051610a929190611fbb565b9081526040519081900360200190205460ff1615610ac55760405160e560020a62461bcd02815260040161049090611fd7565b600b80546001810182556000919091527f0175b7a638427703f0dbe7bb9bbf987a2551717b34e79f33b5b1008d1fa01db901610b01838261205c565b50600b546000818152600d60205260409020610b1d848261205c565b50610b2884826112f6565b6001600c84604051610b3a9190611fbb565b908152604051908190036020019020805491151560ff19909216919091179055610b6a610b643390565b82610ef1565b9392505050565b600b8181548110610b8157600080fd5b906000526020600020016000915090508054610b9c90611f06565b80601f0160208091040260200160405190810160405280929190818152602001828054610bc890611f06565b8015610c155780601f10610bea57610100808354040283529160200191610c15565b820191906000526020600020905b815481529060010190602001808311610bf857829003601f168201915b505050505081565b6000600160a060020a038216610c8e5760405160e560020a62461bcd02815260206004820152602a60248201527f4552433732313a2062616c616e636520717565727920666f7220746865207a65604482015260b060020a69726f2061646472657373026064820152608401610490565b50600160a060020a031660009081526003602052604090205490565b6000918252600a60209081526040808420600160a060020a0393909316845291905290205460ff1690565b60606001805461039f90611f06565b61075f33838361143b565b610cf93383610f5f565b610d185760405160e560020a62461bcd02815260040161049090611f44565b610d248484848461150c565b50505050565b600061038a6000805160206122f483398151915283610caa565b6060610d4f82610ed4565b610dc45760405160e560020a62461bcd02815260206004820152602f60248201527f4552433732314d657461646174613a2055524920717565727920666f72206e6f60448201527f6e6578697374656e7420746f6b656e00000000000000000000000000000000006064820152608401610490565b6000828152600d602052604090208054610ddd90611f06565b80601f0160208091040260200160405190810160405280929190818152602001828054610e0990611f06565b8015610e565780601f10610e2b57610100808354040283529160200191610e56565b820191906000526020600020905b815481529060010190602001808311610e3957829003601f168201915b50505050509050919050565b610e6b82610607565b610e74816111e2565b6105ce8383611275565b600160a060020a03918216600090815260056020908152604080832093909416825291909152205460ff1690565b6000600160e060020a0319821660e060020a637965db0b02148061038a575061038a82611542565b600090815260026020526040902054600160a060020a0316151590565b60008181526004602052604090208054600160a060020a031916600160a060020a0384169081179091558190610f2682610817565b600160a060020a03167f8c5be1e5ebec7d5bd14f71427d1e84f3dd0314c0f7b2291e5b200ac8c7c3b92560405160405180910390a45050565b6000610f6a82610ed4565b610fd15760405160e560020a62461bcd02815260206004820152602c60248201527f4552433732313a206f70657261746f7220717565727920666f72206e6f6e6578604482015260a160020a6b34b9ba32b73a103a37b5b2b7026064820152608401610490565b6000610fdc83610817565b905080600160a060020a031684600160a060020a0316148061100357506110038185610e7e565b80611027575083600160a060020a031661101c84610422565b600160a060020a0316145b949350505050565b82600160a060020a031661104282610817565b600160a060020a0316146110ac5760405160e560020a62461bcd02815260206004820152602560248201527f4552433732313a207472616e736665722066726f6d20696e636f727265637420604482015260d960020a6437bbb732b9026064820152608401610490565b600160a060020a0382166111145760405160e560020a62461bcd028152602060048201526024808201527f4552433732313a207472616e7366657220746f20746865207a65726f20616464604482015260e060020a6372657373026064820152608401610490565b61111f83838361156a565b61112a600082610ef1565b600160a060020a038316600090815260036020526040812080546001929061115390849061213c565b9091555050600160a060020a0382166000908152600360205260408120805460019290611181908490612153565b90915550506000818152600260205260408082208054600160a060020a031916600160a060020a0386811691821790925591518493918716917fddf252ad1be2c89b69c2b068fc378daa952ba7f163c4a11628f55a4df523b3ef91a4505050565b6111ec8133611575565b50565b6111f98282610caa565b61075f576000828152600a60209081526040808320600160a060020a03851684529091529020805460ff191660011790556112313390565b600160a060020a031681600160a060020a0316837f2f8788117e7eff1d82e926ec794901d17c78024a50270940304540a733656f0d60405160405180910390a45050565b61127f8282610caa565b1561075f576000828152600a60209081526040808320600160a060020a0385168085529252808320805460ff1916905551339285917ff6391f5c32d9c69d2a47ea670b442974b53935d1edc7fd64eb21e047a839171b9190a45050565b61075f8282604051806020016040528060008152506115dc565b600160a060020a03821661134f5760405160e560020a62461bcd02815260206004820181905260248201527f4552433732313a206d696e7420746f20746865207a65726f20616464726573736044820152606401610490565b61135881610ed4565b156113a85760405160e560020a62461bcd02815260206004820152601c60248201527f4552433732313a20746f6b656e20616c7265616479206d696e746564000000006044820152606401610490565b6113b46000838361156a565b600160a060020a03821660009081526003602052604081208054600192906113dd908490612153565b90915550506000818152600260205260408082208054600160a060020a031916600160a060020a03861690811790915590518392907fddf252ad1be2c89b69c2b068fc378daa952ba7f163c4a11628f55a4df523b3ef908290a45050565b81600160a060020a031683600160a060020a03160361149f5760405160e560020a62461bcd02815260206004820152601960248201527f4552433732313a20617070726f766520746f2063616c6c6572000000000000006044820152606401610490565b600160a060020a03838116600081815260056020908152604080832094871680845294825291829020805460ff191686151590811790915591519182527f17307eab39ab6107e8899845ad3d59bd9653f200f220920489ca2b5937696c31910160405180910390a3505050565b61151784848461102f565b61152384848484611612565b610d245760405160e560020a62461bcd0281526004016104909061216b565b6000600160e060020a0319821660e060020a63780e9d6302148061038a575061038a8261171c565b6105ce838383611775565b61157f8282610caa565b61075f5761159781600160a060020a0316601461182d565b6115a283602061182d565b6040516020016115b39291906121c8565b60408051601f198184030181529082905260e560020a62461bcd02825261049091600401611bfc565b6115e683836112f6565b6115f36000848484611612565b6105ce5760405160e560020a62461bcd0281526004016104909061216b565b6000600160a060020a0384163b156117115760405160e160020a630a85bd01028152600160a060020a0385169063150b7a0290611659903390899088908890600401612249565b6020604051808303816000875af1925050508015611694575060408051601f3d908101601f1916820190925261169191810190612286565b60015b6116f4573d8080156116c2576040519150601f19603f3d011682016040523d82523d6000602084013e6116c7565b606091505b5080516000036116ec5760405160e560020a62461bcd0281526004016104909061216b565b805181602001fd5b600160e060020a03191660e160020a630a85bd0102149050611027565b506001949350505050565b6000600160e060020a0319821660e060020a6380ac58cd0214806117535750600160e060020a0319821660e060020a635b5e139f02145b8061038a575060e060020a6301ffc9a702600160e060020a031983161461038a565b600160a060020a0383166117d0576117cb81600880546000838152600960205260408120829055600182018355919091527ff3f7a9fe364faab93b216da50a3214154f22a0a2b415b23a84c8169e8b636ee30155565b6117f3565b81600160a060020a031683600160a060020a0316146117f3576117f383826119e1565b600160a060020a03821661180a576105ce81611a7e565b82600160a060020a031682600160a060020a0316146105ce576105ce8282611b2d565b6060600061183c8360026122a3565b611847906002612153565b67ffffffffffffffff81111561185f5761185f611cd6565b6040519080825280601f01601f191660200182016040528015611889576020820181803683370190505b50905060fc60020a600302816000815181106118a7576118a7611fa1565b6020010190600160f860020a031916908160001a90535060fb60020a600f02816001815181106118d9576118d9611fa1565b6020010190600160f860020a031916908160001a90535060006118fd8460026122a3565b611908906001612153565b90505b600181111561198f577f303132333435363738396162636465660000000000000000000000000000000085600f166010811061194957611949611fa1565b1a60f860020a0282828151811061196257611962611fa1565b6020010190600160f860020a031916908160001a905350601090940493611988816122c2565b905061190b565b508315610b6a5760405160e560020a62461bcd02815260206004820181905260248201527f537472696e67733a20686578206c656e67746820696e73756666696369656e746044820152606401610490565b600060016119ee84610c1d565b6119f8919061213c565b600083815260076020526040902054909150808214611a4b57600160a060020a03841660009081526006602090815260408083208584528252808320548484528184208190558352600790915290208190555b506000918252600760209081526040808420849055600160a060020a039094168352600681528383209183525290812055565b600854600090611a909060019061213c565b60008381526009602052604081205460088054939450909284908110611ab857611ab8611fa1565b906000526020600020015490508060088381548110611ad957611ad9611fa1565b6000918252602080832090910192909255828152600990915260408082208490558582528120556008805480611b1157611b116122d9565b6001900381819060005260206000200160009055905550505050565b6000611b3883610c1d565b600160a060020a039093166000908152600660209081526040808320868452825280832085905593825260079052919091209190915550565b600160e060020a0319811681146111ec57600080fd5b600060208284031215611b9957600080fd5b8135610b6a81611b71565b60005b83811015611bbf578181015183820152602001611ba7565b83811115610d245750506000910152565b60008151808452611be8816020860160208601611ba4565b601f01601f19169290920160200192915050565b602081526000610b6a6020830184611bd0565b600060208284031215611c2157600080fd5b5035919050565b8035600160a060020a0381168114611c3f57600080fd5b919050565b60008060408385031215611c5757600080fd5b611c6083611c28565b946020939093013593505050565b600080600060608486031215611c8357600080fd5b611c8c84611c28565b9250611c9a60208501611c28565b9150604084013590509250925092565b60008060408385031215611cbd57600080fd5b82359150611ccd60208401611c28565b90509250929050565b60e060020a634e487b710260009081526041600452602490fd5b600067ffffffffffffffff80841115611d0b57611d0b611cd6565b604051601f8501601f19908116603f01168101908282118183101715611d3357611d33611cd6565b81604052809350858152868686011115611d4c57600080fd5b858560208301376000602087830101525050509392505050565b600082601f830112611d7757600080fd5b610b6a83833560208501611cf0565b600060208284031215611d9857600080fd5b813567ffffffffffffffff811115611daf57600080fd5b61102784828501611d66565b60008060408385031215611dce57600080fd5b611dd783611c28565b9150602083013567ffffffffffffffff811115611df357600080fd5b611dff85828601611d66565b9150509250929050565b600060208284031215611e1b57600080fd5b610b6a82611c28565b60008060408385031215611e3757600080fd5b611e4083611c28565b915060208301358015158114611e5557600080fd5b809150509250929050565b60008060008060808587031215611e7657600080fd5b611e7f85611c28565b9350611e8d60208601611c28565b925060408501359150606085013567ffffffffffffffff811115611eb057600080fd5b8501601f81018713611ec157600080fd5b611ed087823560208401611cf0565b91505092959194509250565b60008060408385031215611eef57600080fd5b611ef883611c28565b9150611ccd60208401611c28565b600281046001821680611f1a57607f821691505b602082108103611f3e5760e060020a634e487b710260009081526022600452602490fd5b50919050565b60208082526031908201527f4552433732313a207472616e736665722063616c6c6572206973206e6f74206f60408201527f776e6572206e6f7220617070726f766564000000000000000000000000000000606082015260800190565b60e060020a634e487b710260009081526032600452602490fd5b60008251611fcd818460208701611ba4565b9190910192915050565b6020808252601e908201527f54686520746f6b656e205552492073686f756c6420626520756e697175650000604082015260600190565b601f8211156105ce576000818152602081206020601f860104810160208610156120355750805b6020601f860104820191505b8181101561205457828155600101612041565b505050505050565b815167ffffffffffffffff81111561207657612076611cd6565b61208a816120848454611f06565b8461200e565b602080601f8311600181146120c357600084156120a75750858301515b60028086026008870290910a6000190419821617865550612054565b600085815260208120601f198616915b828110156120f2578886015182559484019460019091019084016120d3565b508582101561211257878501516008601f88160260020a60001904191681555b5050505050600202600101905550565b60e060020a634e487b710260009081526011600452602490fd5b60008282101561214e5761214e612122565b500390565b6000821982111561216657612166612122565b500190565b60208082526032908201527f4552433732313a207472616e7366657220746f206e6f6e20455243373231526560408201527f63656976657220696d706c656d656e7465720000000000000000000000000000606082015260800190565b7f416363657373436f6e74726f6c3a206163636f756e7420000000000000000000815260008351612200816017850160208801611ba4565b7f206973206d697373696e6720726f6c6520000000000000000000000000000000601791840191820152835161223d816028840160208801611ba4565b01602801949350505050565b600160a060020a038581168252841660208201526040810183905260806060820181905260009061227c90830184611bd0565b9695505050505050565b60006020828403121561229857600080fd5b8151610b6a81611b71565b60008160001904831182151516156122bd576122bd612122565b500290565b6000816122d1576122d1612122565b506000190190565b60e060020a634e487b710260009081526031600452602490fdfe9f2df0fed2c77648de5860a4cc508cd0818c85b8b8a1ab4ceeef8d981c8956a6a26469706673582212204eb24b25734b57e98f743c1c057d99dcaa23aaef002d937341fe00e5ec390a3864736f6c634300080f0033a2646970667358221220c952fc5eaa433856ca4d7f2dc71a2c364a2b00fc426eaf89acd1a77ac0943f7164736f6c634300080f0033",
  "immutableReferences": {},
  "source": "// SPDX-License-Identifier: MIT\r\npragma solidity ^0.8.0;\r\n\r\nimport \"@openzeppelin/contracts/access/Ownable.sol\";\r\nimport '@openzeppelin/contracts/utils/math/SafeMath.sol';\r\nimport \"@openzeppelin/contracts/utils/Counters.sol\";\r\nimport '@openzeppelin/contracts/utils/structs/EnumerableMap.sol';\r\n// import '@openzeppelin/contracts/token/ERC721/IERC721.sol';\r\n\r\nimport './NFTCollection.sol';\r\n\r\ncontract MarketPlace is Ownable {\r\n    // TODO : Add Access control\r\n    // TODO : Add option enableDirectOffer\r\n    // TODO : Add option enableAucion\r\n    // TODO : Add option enableBuyNow\r\n\r\n    using EnumerableMap for EnumerableMap.AddressToUintMap;\r\n    using Counters for Counters.Counter;\r\n    using SafeMath for uint256;\r\n\r\n    Counters.Counter private _collectionIds;\r\n    Counters.Counter private _auctionIds;\r\n    Counters.Counter private _directOfferIds;\r\n\r\n    bytes32 constant MINTER_ROLE = keccak256('MINTER_ROLE');\r\n\r\n    // Fees\r\n    uint256 constant FEE_SELL_PERCENTAGE = 3; // percentage of buy price\r\n    uint256 profit;\r\n\r\n    // Enums\r\n    // enum AuctionType {\r\n    //     FixedPrice, // buy it now only\r\n    //     Dutch, // (not used for now)\r\n    //     English // (not used for now)\r\n    // }\r\n\r\n    enum DirectOfferStatus {\r\n        Open, // 0: open for acceptance\r\n        Accepted, // 1: accepted by token owner\r\n        Finished, // 2: finished with buyer\r\n        Canceled // 3: canceled by seller\r\n    }\r\n\r\n    enum AuctionStatus {\r\n        // Approved, // ready for use\r\n        Running, // 0: in progress\r\n        Closed, // 1: closed with no buyer, need to revert funds\r\n        Finished, // 2: finished with buyer, need to revert funds\r\n        Canceled // 3: canceled by seller, need to revert funds\r\n    }\r\n\r\n    // Definitions\r\n    struct AuctionItem {\r\n        address ownerAddress; // TODO : Check if needed\r\n        address collectionAddress;\r\n        address highestBidderAddress;\r\n        uint256 highestBid;\r\n        uint256 auctionId; // auction Id, is generated\r\n        uint256 tokenId; // token Id, is given\r\n        uint256 buyItNowPrice; // buy now buyItNowPrice in case of type FixedPrice. Zero means - no buy now. Mandatory if Fixed price\r\n        // uint256 reservedPrice; // buy out price below which the sell cannot happend (not used for now)\r\n        uint256 initialPrice; // starting auction price (not used for now)\r\n        //uint256 minBidStep; // minimum allowed bid step. Zero means - no min (not used for now)\r\n        //uint256 maxBidStep; // maximum allowed bid step. Zero means - no max (not used for now)\r\n        uint256 endTime; // end time in seconds\r\n        AuctionStatus auctionStatus;\r\n        //AuctionType auctionType;\r\n    }\r\n\r\n    struct CollectionItem {\r\n        uint256 collectionId; // TODO : Check if needed\r\n        address collectionAddress; // ERC721 token of the collection\r\n        address ownerAddress; // owner of the token\r\n        string metaURI; // like in ERC721 token URI\r\n    }\r\n    \r\n    // Only 1 valid offer per buyer\r\n    // Buyer can send many offers\r\n    // Seller can accept many offers\r\n    // On buy performed - invalidate all other direct offers\r\n    struct DirectOfferItem {\r\n        address ownerAddress; // owner of the token // TODO : Check if needed\r\n        address collectionAddress; // ERC721 token of the collection\r\n        address buyerAddress; // offer send from address\r\n        uint256 directOfferId; // TODO : Check if needed\r\n        uint256 tokenId;\r\n        uint256 offeredPrice;\r\n        DirectOfferStatus directOfferStatus;\r\n    }\r\n\t\r\n\tstruct DirectOfferGroupItem {\r\n\t\t// _buyerAddress => _directOfferId  \r\n        //uint256 length; //  TODO : Check\r\n\t\tEnumerableMap.AddressToUintMap buyerMap; // offer send from address\r\n        bool active; // describes if the offers for the current pair collectionAddress => tokenId are active\r\n\t}\r\n\t\r\n    // properties\r\n    // msg.sender => generated funds\r\n    mapping(address => uint256) public userFunds; // contains funds per user generated from sales. Bids will stored in other way\r\n\r\n    // auctionId => AuctionItem\r\n    mapping(uint256 => AuctionItem) auctionStore;\r\n\r\n    // directOfferId => DirectOfferItem\r\n    mapping(uint256 => DirectOfferItem) directOfferStore;\r\n\r\n    // collectionId => CollectionItem\r\n    mapping(uint256 => CollectionItem) collectionStore;\r\n\r\n    // uint256 public auctionCount = 0;\r\n    // uint256 public collectionCount = 0;\r\n\r\n    // ownerAddress => (collectionId => isOwner)\r\n    // mapping(address => mapping(uint256 => bool)) userCollections;\r\n\r\n    // collectionAddress => auctionId[]\r\n    mapping(address => uint256[]) collectionToAcutions;\r\n\r\n    // _collectionAddress => (_tokenId => _auctionId)\r\n    mapping(address => mapping(uint256 => uint256)) tokenAuctions;\r\n\r\n    // _collectionAddress => (_tokenId => DirectOfferGroupItem)\r\n    mapping(address => mapping(uint256 => DirectOfferGroupItem)) tokenDirectOffers;\r\n\r\n    // -- Events\r\n    // emitted when an auction is craated\r\n    event onAuctionCreated(uint256 indexed auctionId, uint256 indexed tokenId);\r\n\r\n    // emitted when is cancelled by the seller\r\n    event onAuctionCancelled(uint256 indexed auctionId, uint256 indexed tokenId);\r\n\r\n    // emitted when the acution is finsied with succesfull purchase\r\n    event onAuctionFinished(uint256 indexed auctionId, uint256 indexed tokenId);\r\n\r\n    // emitted when an auction is closed with no buyer\r\n    event onAuctionClosed(uint256 indexed auctionId, uint256 indexed tokenId);\r\n\r\n    // enitted when an auction is bidded\r\n    event onAuctionBid(uint256 indexed auctionId, uint256 bid);\r\n\r\n    // emitted when an user claims his funds\r\n    // event onFundsClaimed(address indexed user, uint256 amount);\r\n\r\n    // emitted when a collection is created\r\n    event onCollectionCreated(uint256 indexed collectionId, address indexed collectionAddress, address indexed ownerAddress);\r\n    // --\r\n\r\n    // -- Modifiers\r\n    // --\r\n\r\n     constructor() public {\r\n     }\r\n\r\n     // -- Mint\r\n     function mint(address _collectionAddress, string memory _tokenURI) external returns(uint256) {\r\n        NFTCollection nftCollection = NFTCollection(_collectionAddress);\r\n\r\n        uint256 _tokenId = nftCollection.externalMint(msg.sender, _tokenURI);\r\n\r\n        return _tokenId;\r\n     }\r\n\r\n    //  function mintMany(address _collectionAddress, string[] memory _tokenURIList) external {\r\n    //     NFTCollection nftCollection = NFTCollection(_collectionAddress);\r\n\r\n    //     for (uint256 i = 0; i < _tokenURIList.length; i++) {\r\n    //         nftCollection.externalMint(msg.sender, _tokenURIList[i]);\r\n    //     }\r\n    //  }\r\n     // --\r\n\r\n    // -- Collection management\r\n    function createCollection(string memory _name, string memory _symbol, string memory _metaURI) external returns (address) {\r\n        NFTCollection collectionContract = new NFTCollection(_name, _symbol);\r\n        // grant role\r\n        collectionContract.grantRole(MINTER_ROLE, msg.sender);\r\n        // approve creator by default\r\n        collectionContract.setApprovalForAll(msg.sender, true); // not applied for newly created tokens\r\n\r\n        address _collectionAddress = address(collectionContract);\r\n\r\n        _collectionIds.increment();\r\n        uint256 _collectionId = _collectionIds.current();\r\n        collectionStore[_collectionId] = CollectionItem(_collectionId, _collectionAddress, msg.sender, _metaURI);        \r\n\r\n        // userCollections[msg.sender][_collectionId] = true;\r\n\r\n        emit onCollectionCreated(_collectionId, _collectionAddress, msg.sender);\r\n\r\n        return _collectionAddress;\r\n    }\r\n\r\n    // function importCollection(address _collectionAddress, string memory _metaURI)external returns (address) {\r\n    //     _collectionIds.increment();\r\n    //     uint256 _collectionId = _collectionIds.current();\r\n    //     collectionStore[_collectionId] = CollectionItem(_collectionId, _collectionAddress, msg.sender, _metaURI);\r\n\r\n    //     // userCollections[msg.sender][_collectionId] = true;\r\n\r\n    //     emit onCollectionCreated(_collectionId, _collectionAddress, msg.sender);\r\n\r\n    //     return _collectionAddress;\r\n    // }\r\n\r\n    function getCollection(uint256 _collectionId) external view returns (CollectionItem memory) {\r\n        return collectionStore[_collectionId];\r\n    }\r\n\r\n    function getCollectionCount() external view returns(uint256) {\r\n        return _collectionIds.current();\r\n    }\r\n\t// --\r\n\r\n    // -- Auction Management\r\n    function createAuction(\r\n        address _collectionAddress,\r\n        uint256 _tokenId,\r\n        uint256 _initialPrice,\r\n        uint256 _buyItNowPrice,\r\n        uint256 _durationDays\r\n    ) external {\r\n        // transfer token to the market (this)\r\n        NFTCollection nftCollection = NFTCollection(_collectionAddress);\r\n        // nftCollection.transferFrom(msg.sender, address(this), _tokenId); // TODO : use approve !!!\r\n\r\n        // _initialPrice or _buyItNowPrice should be above zero\r\n        // require(_initialPrice + _buyItNowPrice > 0, 'Token price cannot be zero');\r\n\r\n        // require (_initialPrice <= _buyItNowPrice, 'Invalid prices');\r\n\r\n        // check token owner\r\n        require(msg.sender == nftCollection.ownerOf(_tokenId), 'Not token owner');\r\n\r\n        // check if MarketPlace is approved\r\n        require(address(this) == nftCollection.getApproved(_tokenId), 'MarketPlace is not approved');\r\n\r\n        // create auction twice\r\n        require(tokenAuctions[_collectionAddress][_tokenId] == 0, 'Auction for this token exists');\r\n\r\n        require(_durationDays > 0, 'Invalid duration');\r\n\r\n        // create auction\r\n        _auctionIds.increment();\r\n        uint256 _auctionId = _auctionIds.current();\r\n        auctionStore[_auctionId] = AuctionItem({\r\n            ownerAddress: msg.sender,\r\n            collectionAddress: _collectionAddress,\r\n            highestBidderAddress: address(0),\r\n            highestBid : 0,\r\n            auctionId: _auctionId,\r\n            tokenId: _tokenId,\r\n            buyItNowPrice: _buyItNowPrice,\r\n            //reservedPrice: 0,\r\n            initialPrice: _initialPrice,\r\n            //minBidStep: 0,\r\n            //maxBidStep: 0,\r\n            endTime: block.timestamp + (_durationDays * 1 days),\r\n            auctionStatus: AuctionStatus.Running\r\n            //auctionType: AuctionType.FixedPrice\r\n        });\r\n\r\n        collectionToAcutions[_collectionAddress].push(_auctionId);\r\n\r\n        tokenAuctions[_collectionAddress][_tokenId] = _auctionId;\r\n\r\n        // delete direct offer for specific token\r\n        tokenDirectOffers[_collectionAddress][_tokenId].active = false;\r\n        // delete tokenDirectOffers[_collectionAddress][_tokenId];\r\n\r\n        emit onAuctionCreated(_auctionId, _tokenId);\r\n    }\r\n\r\n    // function getAuctionCount() external view returns(uint256) {\r\n    //     // used for tests\r\n    //     return _auctionIds.current();\r\n    // }\r\n\r\n    function getCollectionAuctions(address collectionAddress) external view returns (uint256[] memory) {\r\n        return collectionToAcutions[collectionAddress];\r\n    }\r\n\r\n    function getAuction(uint256 _auctionId) public view returns (AuctionItem memory) {\r\n        AuctionItem memory _auction = auctionStore[_auctionId];\r\n\r\n        require(_auction.auctionId == _auctionId, 'Auction does not exists');        \r\n\r\n        return _auction;\r\n    }\r\n\r\n    function getAuctionBy(address _collectionAddress, uint256 _tokenId) external view returns (AuctionItem memory) {\r\n        uint256 _auctionId = tokenAuctions[_collectionAddress][_tokenId];\r\n\r\n        return getAuction(_auctionId);\r\n    }\r\n\r\n    // buy it now - handle user funds?\r\n    function buyNowAuction(uint256 _auctionId) external payable {\r\n        AuctionItem storage _auction = auctionStore[_auctionId];\r\n\r\n        require(_auction.auctionId == _auctionId, 'Auction does not exists');\r\n        \r\n        _checkAuction(_auction);\r\n        \r\n        if(_auction.auctionStatus == AuctionStatus.Running) {\r\n            require(_auction.ownerAddress != msg.sender, 'Auction owner cannot buy it');\r\n            // require(_auction.auctionStatus == AuctionStatus.Running, 'Auction is not running');\r\n            require(_auction.buyItNowPrice > 0, 'Buy now is not allowed');\r\n\r\n            require(msg.value == _auction.buyItNowPrice, 'Buy now price is greater');\r\n\r\n            NFTCollection nftCollection = NFTCollection(_auction.collectionAddress);\r\n\r\n            // transfer from MarketPalce as approved\r\n            nftCollection.transferFrom(_auction.ownerAddress, msg.sender, _auction.tokenId);\r\n\r\n            // TODO : Approve to market after transfer\r\n\r\n            // return to the current highest bidder if any\r\n            if(_auction.highestBid > 0 && _auction.highestBidderAddress != address(0)) {\r\n                userFunds[_auction.highestBidderAddress] = userFunds[_auction.highestBidderAddress].add(_auction.highestBid);\r\n            }\r\n\r\n            _auction.auctionStatus = AuctionStatus.Finished;\r\n\r\n            uint256 fee = msg.value.mul(FEE_SELL_PERCENTAGE).div(100);\r\n            uint256 userFund = msg.value.sub(fee);\r\n            profit = profit.add(fee);\r\n            userFunds[_auction.ownerAddress] = userFunds[_auction.ownerAddress].add(userFund);\r\n\r\n            delete tokenAuctions[_auction.collectionAddress][_auction.tokenId]; // reset\r\n\r\n            emit onAuctionFinished(_auctionId, _auction.tokenId);\r\n        }        \r\n    }\r\n\r\n    // cancel auction (auction owner) - handle user funds?\r\n    function cancelAuction(uint256 _auctionId) external {\r\n        AuctionItem storage _auction = auctionStore[_auctionId];\r\n\r\n        require(_auction.auctionId == _auctionId, 'Auction does not exists');\r\n\r\n        _checkAuction(_auction);\r\n\r\n        if(_auction.auctionStatus == AuctionStatus.Running) {\r\n            require(_auction.ownerAddress == msg.sender, 'Only auction owner can cancel');\r\n            // require(_auction.auctionStatus == AuctionStatus.Running, 'Auction is not running');\r\n\r\n            //NFTCollection nftCollection = NFTCollection(_auction.collectionAddress);\r\n            //nftCollection.transferFrom(address(this), msg.sender, _auction.tokenId);\r\n            _auction.auctionStatus = AuctionStatus.Canceled;\r\n\r\n            delete tokenAuctions[_auction.collectionAddress][_auction.tokenId]; // reset\r\n\r\n            // return prev bid\r\n            // send _auction.highestBid to _auction.highestBidderAddress\r\n            if(_auction.highestBid > 0 && _auction.highestBidderAddress != address(0)) {\r\n                userFunds[_auction.highestBidderAddress] = userFunds[_auction.highestBidderAddress].add(_auction.highestBid);\r\n            }\r\n\r\n            emit onAuctionCancelled(_auctionId, _auction.tokenId);\r\n        }\r\n    }\r\n\r\n    // --\r\n\r\n    // -- Auction handling\r\n    function checkAuction(uint256 _auctionId) external {\r\n        AuctionItem storage _auction = auctionStore[_auctionId];\r\n\r\n        //require(_auction.auctionId == _auctionId, 'Auction does not exists');\r\n\r\n        _checkAuction(_auction);\r\n    }\r\n    // --\r\n\r\n    // -- Auction actions\r\n    // bid - handle user funds?\r\n    function bidAuction(uint256 _auctionId) external payable {\r\n        AuctionItem storage _auction = auctionStore[_auctionId];\r\n\r\n        require(_auction.auctionId == _auctionId, 'Auction does not exists');\r\n\r\n        _checkAuction(_auction);\r\n\r\n        if(_auction.auctionStatus == AuctionStatus.Running) {\r\n            require(_auction.ownerAddress != msg.sender, 'Auction owner cannot bid');\r\n            require(_auction.highestBidderAddress != msg.sender, 'Already highest bidder');\r\n            // require(_auction.auctionStatus == AuctionStatus.Running, 'Auction is not running');\r\n\r\n            // current bid must be above initial price and above zero\r\n\r\n            require(msg.value >= _auction.initialPrice , 'Bid is less than initial');\r\n            require(msg.value > _auction.highestBid , 'Bid is less than highest');\r\n\r\n            // return prev bid\r\n            // send _auction.highestBid to _auction.highestBidderAddress\r\n            if(_auction.highestBid > 0 && _auction.highestBidderAddress != address(0)) {\r\n                userFunds[_auction.highestBidderAddress] = userFunds[_auction.highestBidderAddress].add(_auction.highestBid);\r\n            }\r\n\r\n            // load new bid\r\n            _auction.highestBid = msg.value;\r\n            _auction.highestBidderAddress = msg.sender;\r\n\r\n            emit onAuctionBid(_auctionId, msg.value);\r\n        }\r\n    }\r\n\r\n    // TODO : Ask how to execute over time or how to set gas storage to execute internaly\r\n    function _checkAuction(AuctionItem storage _auction) private {\r\n        // check timestamp\r\n\r\n        if(_auction.auctionStatus == AuctionStatus.Running) {\r\n            bool ended = _auction.endTime <= block.timestamp;\r\n\r\n            if(ended) {\r\n                NFTCollection nftCollection = NFTCollection(_auction.collectionAddress);\r\n\r\n                if(_auction.highestBid > _auction.initialPrice) {\r\n                    _auction.auctionStatus = AuctionStatus.Finished;\r\n\r\n                    // peform transfer\r\n                    uint256 fee = _auction.highestBid.mul(FEE_SELL_PERCENTAGE).div(100);\r\n                    uint256 userFund = _auction.highestBid.sub(fee);\r\n                    profit = profit.add(fee);\r\n                    userFunds[_auction.ownerAddress] = userFunds[_auction.ownerAddress].add(userFund);\r\n\r\n                    // transfer from MarketPalce as approved\r\n                    nftCollection.transferFrom(_auction.ownerAddress, msg.sender, _auction.tokenId);\r\n\r\n                    // TODO : Approve to market after transfer\r\n\r\n                    emit onAuctionFinished(_auction.auctionId, _auction.tokenId);\r\n                }\r\n                else {\r\n                    _auction.auctionStatus = AuctionStatus.Closed;\r\n\r\n                    // return money\r\n                    // if(_auction.highestBid > 0 && _auction.highestBidderAddress != address(0)) {\r\n                    //     userFunds[_auction.highestBidderAddress] = userFunds[_auction.highestBidderAddress].add(_auction.highestBid);\r\n                    // }\r\n\r\n                    emit onAuctionClosed(_auction.auctionId, _auction.tokenId);\r\n                }\r\n            }\r\n        }        \r\n    }\r\n\r\n    // --\r\n\r\n    // -- Direct offers\r\n    function createDirectOffer(address _collectionAddress, uint256 _tokenId, uint256 _offeredPrice) external {\r\n        NFTCollection nftCollection = NFTCollection(_collectionAddress);\r\n\r\n        address _ownerAddress = nftCollection.ownerOf(_tokenId);\r\n\r\n        // requrie not own token\r\n        require(msg.sender != _ownerAddress, 'Already token owner');\r\n\r\n        //require(_ownerAddress != address(0), 'Token without owner');\r\n\r\n        // _offeredPrice should be above zero\r\n        require(_offeredPrice > 0, 'Offered price cannot be zero');\r\n\r\n        // require no active auction\r\n        require(tokenAuctions[_collectionAddress][_tokenId] == 0, 'Auction for this token exists');\r\n\r\n        // create direct offer\r\n        _directOfferIds.increment();\r\n        uint256 _directOfferId = _directOfferIds.current();\r\n        directOfferStore[_directOfferId] = DirectOfferItem({\r\n            ownerAddress : _ownerAddress,\r\n            collectionAddress: _collectionAddress,\r\n            buyerAddress: msg.sender,\r\n            directOfferId: _directOfferId,\r\n            tokenId: _tokenId, \r\n            offeredPrice: _offeredPrice,\r\n            directOfferStatus: DirectOfferStatus.Open\r\n        });\r\n\r\n        tokenDirectOffers[_collectionAddress][_tokenId].active = true;\r\n        tokenDirectOffers[_collectionAddress][_tokenId].buyerMap.set(msg.sender, _directOfferId);\r\n    }\r\n\r\n    function getDirectOffersByOwner(address _collectionAddress, uint256 _tokenId) external view returns(DirectOfferItem[] memory) {\r\n        NFTCollection nftCollection = NFTCollection(_collectionAddress);\r\n        require(msg.sender == nftCollection.ownerOf(_tokenId), 'Not token owner');\r\n\r\n        require(tokenDirectOffers[_collectionAddress][_tokenId].active == true, 'Offers not found');\r\n\r\n        uint256 length = tokenDirectOffers[_collectionAddress][_tokenId].buyerMap.length();\r\n\r\n        DirectOfferItem[] memory result = new DirectOfferItem[](length);\r\n\r\n        for (uint256 i = 0; i < length; i++) {\r\n            (, uint256 _directOfferId) = tokenDirectOffers[_collectionAddress][_tokenId].buyerMap.at(i);\r\n\r\n            // visible only for buyer or seller\r\n            result[i] = directOfferStore[_directOfferId];\r\n        }\r\n\r\n        return result;\r\n    }\r\n\r\n    function getDirectOfferByBuyer(address _collectionAddress, uint256 _tokenId) external view returns(DirectOfferItem memory){\r\n        // sender is the buyer\r\n        (bool success, uint256 _directOfferId) = tokenDirectOffers[_collectionAddress][_tokenId].buyerMap.tryGet(msg.sender);\r\n\r\n        require(success &&  tokenDirectOffers[_collectionAddress][_tokenId].active == true, 'Offer not found');\r\n\r\n        //require(success, 'Offer not found');\r\n\r\n        DirectOfferItem memory _directOffer = directOfferStore[_directOfferId];\r\n\r\n        return _directOffer;\r\n    }\r\n\r\n    // function getDirectOfferCount() external view returns(uint256) {\r\n    //     // not used\r\n    //     return _directOfferIds.current();\r\n    // }\r\n\r\n\t// function getDirectOffer(uint256 _directOfferId) public view returns (DirectOfferItem memory) {\r\n    //     DirectOfferItem memory _directOffer = directOfferStore[_directOfferId];\r\n\r\n    //     require(_directOffer.directOfferId == _directOfferId, 'DirectOffer does not exists');\r\n\r\n    //     // visible only for buyer or seller\r\n    //     require(_directOffer.ownerAddress == msg.sender || _directOffer.buyerAddress == msg.sender, 'Only seller or buyer');\r\n\r\n    //     return _directOffer;\r\n    // }\r\n\r\n    //  function getDirectOffers(address _collectionAddress, uint256 _tokenId) external view returns(DirectOfferItem[] memory) {\r\n    //    uint256 length = tokenDirectOffers[_collectionAddress][_tokenId].buyerMap.length();\r\n\r\n    //     DirectOfferItem[] memory result = new DirectOfferItem[](length);\r\n\r\n    //     for (uint256 i = 0; i < length; i++) {\r\n    //         (, uint256 _directOfferId) = tokenDirectOffers[_collectionAddress][_tokenId].buyerMap.at(i);\r\n\r\n    //         // visible only for buyer or seller\r\n    //         result[i] = getDirectOffer(_directOfferId);\r\n    //     }\r\n\r\n    //    return result;\r\n    //  }\r\n\r\n    //  function getDirectOfferBy(address _buyerAddress, address _collectionAddress, uint256 _tokenId) external view returns(DirectOfferItem memory) {\r\n    //     uint256 _directOfferId = tokenDirectOffers[_collectionAddress][_tokenId].buyerMap.get(_buyerAddress);\r\n\r\n    //     // visible only for buyer or seller\r\n    //     return getDirectOffer(_directOfferId);\r\n    //  }\r\n\r\n    // function getDirectOffers(address _collectionAddress, uint256 _tokenId) external view returns(DirectOfferItem[] memory) {\r\n    //     // TODO : Ask how to get list of DirectOfferItems\r\n    //     uint256 length = tokenDirectOffers[_collectionAddress][_tokenId].length;\r\n\r\n    //     if (length > 0) {\r\n    //         for (uint256 i = 0; i < length; i++) {\r\n                \r\n    //         }            \r\n    //     } \r\n    // }\r\n\r\n    function cancelDirectOffer(address _collectionAddress, uint256 _tokenId) external {\r\n        // sender is the buyer\r\n        (bool success, uint256 _directOfferId) = tokenDirectOffers[_collectionAddress][_tokenId].buyerMap.tryGet(msg.sender);\r\n\r\n        require(success && tokenDirectOffers[_collectionAddress][_tokenId].active == true, 'Offer not found');\r\n\r\n        DirectOfferItem storage _directOffer = directOfferStore[_directOfferId];\r\n\r\n        // require(_directOffer.directOfferId == _directOfferId, 'Offer not found');\r\n        require(_directOffer.buyerAddress == msg.sender, 'Only offer bayer can cancel');\r\n        require(_directOffer.directOfferStatus == DirectOfferStatus.Open || _directOffer.directOfferStatus == DirectOfferStatus.Accepted, 'Offer is not open');\r\n\r\n        _directOffer.directOfferStatus = DirectOfferStatus.Canceled;\r\n\r\n        // remove direct offer by buyer\r\n        tokenDirectOffers[_directOffer.collectionAddress][_directOffer.tokenId].buyerMap.remove(msg.sender);\r\n    }\r\n\r\n    function acceptDirectOffer(address _collectionAddress, uint256 _tokenId, address _buyerAddress) external {\r\n\r\n        (bool success, uint256 _directOfferId) = tokenDirectOffers[_collectionAddress][_tokenId].buyerMap.tryGet(_buyerAddress);\r\n\r\n        require(success && tokenDirectOffers[_collectionAddress][_tokenId].active == true, 'Offer not found');\r\n\r\n        DirectOfferItem storage _directOffer = directOfferStore[_directOfferId];\r\n\r\n        // require(_directOffer.directOfferId == _directOfferId, 'Offer not found');\r\n        require(_directOffer.directOfferStatus == DirectOfferStatus.Open, 'Offer is not open');\r\n\r\n        NFTCollection nftCollection = NFTCollection(_directOffer.collectionAddress);\r\n        require(msg.sender == nftCollection.ownerOf(_directOffer.tokenId), 'Not token owner');\r\n        \r\n        // check if MarketPlace is approved\r\n        require(address(this) == nftCollection.getApproved(_directOffer.tokenId), 'MarketPlace is not approved');\r\n\r\n        _directOffer.directOfferStatus = DirectOfferStatus.Accepted;\r\n    }\r\n\r\n    function fulfillDirectOffer(address _collectionAddress, uint256 _tokenId) external payable {\r\n        // sender is the buyer\r\n        (bool success, uint256 _directOfferId) = tokenDirectOffers[_collectionAddress][_tokenId].buyerMap.tryGet(msg.sender);\r\n\r\n        require(success && tokenDirectOffers[_collectionAddress][_tokenId].active == true, 'Offer not found');\r\n\r\n        DirectOfferItem storage _directOffer = directOfferStore[_directOfferId];\r\n\r\n        // require(_directOffer.directOfferId == _directOfferId, 'Offer not found');\r\n        require(_directOffer.directOfferStatus == DirectOfferStatus.Accepted, 'Offer is not accepted');\r\n        require(_directOffer.buyerAddress == msg.sender, 'Only offer bayer can fullfill');\r\n        require(msg.value == _directOffer.offeredPrice, 'Offered price is incorrect');\r\n\r\n        NFTCollection nftCollection = NFTCollection(_directOffer.collectionAddress);\r\n\r\n        // transfer from MarketPalce as buyer\r\n        nftCollection.transferFrom(_directOffer.ownerAddress, _directOffer.buyerAddress, _directOffer.tokenId);\r\n\r\n        // TODO : Approve to market after transfer        \r\n\r\n        _directOffer.directOfferStatus = DirectOfferStatus.Finished;\r\n\r\n        uint256 fee = msg.value.mul(FEE_SELL_PERCENTAGE).div(100);\r\n        uint256 userFund = msg.value.sub(fee);\r\n        userFunds[_directOffer.ownerAddress] = userFunds[_directOffer.ownerAddress].add(userFund);\r\n\r\n        // delete all direct offers for token\r\n        // delete tokenDirectOffers[_directOffer.collectionAddress][_directOffer.tokenId];\r\n        tokenDirectOffers[_collectionAddress][_tokenId].active = false;\r\n        // delete tokenDirectOffers[_collectionAddress][_tokenId];\r\n    }\r\n    // --\r\n\r\n    function claimFunds() external {\r\n        require(userFunds[msg.sender] > 0, 'No funds to be claimed');\r\n\r\n        uint256 fundsToClaim = userFunds[msg.sender];\r\n        userFunds[msg.sender] = 0;\r\n        payable(msg.sender).transfer(fundsToClaim);\r\n\r\n        // emit onFundsClaimed(msg.sender, fundsToClaim);\r\n    }\r\n\r\n    function withdrawProfit() public onlyOwner() {\r\n        uint256 _profit = profit;\r\n        profit = 0;\r\n\r\n        address payable to = payable(msg.sender);\r\n        to.transfer(_profit);\r\n    }\r\n\r\n    function getProfitAmount() public onlyOwner() returns(uint256) {\r\n        return profit;\r\n    }\r\n\r\n    // Fallback: reverts if Ether is sent to this smart-contract by mistake\r\n    fallback() external {\r\n        revert();\r\n    }\r\n}\r\n",
  "sourcePath": "C:\\github\\trayanm\\TTMMarket\\src\\contracts\\MarketPlace.sol",
  "compiler": {
    "name": "solc",
    "version": "0.8.15+commit.e14f2714.Emscripten.clang"
  },
  "schemaVersion": "3.4.7",
  "updatedAt": "2022-07-02T12:06:28.930Z",
  "devdoc": {
    "kind": "dev",
    "methods": {
      "owner()": {
        "details": "Returns the address of the current owner."
      },
      "renounceOwnership()": {
        "details": "Leaves the contract without owner. It will not be possible to call `onlyOwner` functions anymore. Can only be called by the current owner. NOTE: Renouncing ownership will leave the contract without an owner, thereby removing any functionality that is only available to the owner."
      },
      "transferOwnership(address)": {
        "details": "Transfers ownership of the contract to a new account (`newOwner`). Can only be called by the current owner."
      }
    },
    "version": 1
  },
  "userdoc": {
    "kind": "user",
    "methods": {},
    "version": 1
  }
}