{
  "contractName": "MarketPlace",
  "abi": [
    {
      "inputs": [],
      "stateMutability": "nonpayable",
      "type": "constructor"
    },
    {
      "anonymous": false,
      "inputs": [
        {
          "indexed": true,
          "internalType": "uint256",
          "name": "auctionId",
          "type": "uint256"
        },
        {
          "indexed": false,
          "internalType": "uint256",
          "name": "bid",
          "type": "uint256"
        }
      ],
      "name": "onAuctionBid",
      "type": "event"
    },
    {
      "anonymous": false,
      "inputs": [
        {
          "indexed": true,
          "internalType": "uint256",
          "name": "auctionId",
          "type": "uint256"
        },
        {
          "indexed": true,
          "internalType": "uint256",
          "name": "tokenId",
          "type": "uint256"
        }
      ],
      "name": "onAuctionCancelled",
      "type": "event"
    },
    {
      "anonymous": false,
      "inputs": [
        {
          "indexed": true,
          "internalType": "uint256",
          "name": "auctionId",
          "type": "uint256"
        },
        {
          "indexed": true,
          "internalType": "uint256",
          "name": "tokenId",
          "type": "uint256"
        }
      ],
      "name": "onAuctionClosed",
      "type": "event"
    },
    {
      "anonymous": false,
      "inputs": [
        {
          "indexed": true,
          "internalType": "uint256",
          "name": "auctionId",
          "type": "uint256"
        },
        {
          "indexed": true,
          "internalType": "uint256",
          "name": "tokenId",
          "type": "uint256"
        }
      ],
      "name": "onAuctionCreated",
      "type": "event"
    },
    {
      "anonymous": false,
      "inputs": [
        {
          "indexed": true,
          "internalType": "uint256",
          "name": "auctionId",
          "type": "uint256"
        },
        {
          "indexed": true,
          "internalType": "uint256",
          "name": "tokenId",
          "type": "uint256"
        }
      ],
      "name": "onAuctionFinished",
      "type": "event"
    },
    {
      "anonymous": false,
      "inputs": [
        {
          "indexed": true,
          "internalType": "uint256",
          "name": "collectionId",
          "type": "uint256"
        },
        {
          "indexed": true,
          "internalType": "address",
          "name": "collectionAddress",
          "type": "address"
        },
        {
          "indexed": true,
          "internalType": "address",
          "name": "ownerAddress",
          "type": "address"
        }
      ],
      "name": "onCollectionCreated",
      "type": "event"
    },
    {
      "anonymous": false,
      "inputs": [
        {
          "indexed": true,
          "internalType": "address",
          "name": "collectionAddress",
          "type": "address"
        },
        {
          "indexed": true,
          "internalType": "uint256",
          "name": "directOfferId",
          "type": "uint256"
        },
        {
          "indexed": true,
          "internalType": "uint256",
          "name": "tokenId",
          "type": "uint256"
        }
      ],
      "name": "onDirectOfferCreated",
      "type": "event"
    },
    {
      "anonymous": false,
      "inputs": [
        {
          "indexed": true,
          "internalType": "address",
          "name": "user",
          "type": "address"
        },
        {
          "indexed": false,
          "internalType": "uint256",
          "name": "amount",
          "type": "uint256"
        }
      ],
      "name": "onFundsClaimed",
      "type": "event"
    },
    {
      "stateMutability": "nonpayable",
      "type": "fallback"
    },
    {
      "inputs": [
        {
          "internalType": "address",
          "name": "",
          "type": "address"
        }
      ],
      "name": "userFunds",
      "outputs": [
        {
          "internalType": "uint256",
          "name": "",
          "type": "uint256"
        }
      ],
      "stateMutability": "view",
      "type": "function",
      "constant": true
    },
    {
      "inputs": [
        {
          "internalType": "address",
          "name": "_collectionAddress",
          "type": "address"
        },
        {
          "internalType": "string",
          "name": "_tokenURI",
          "type": "string"
        }
      ],
      "name": "mint",
      "outputs": [],
      "stateMutability": "nonpayable",
      "type": "function"
    },
    {
      "inputs": [
        {
          "internalType": "string",
          "name": "_name",
          "type": "string"
        },
        {
          "internalType": "string",
          "name": "_symbol",
          "type": "string"
        },
        {
          "internalType": "string",
          "name": "_metaURI",
          "type": "string"
        }
      ],
      "name": "createCollection",
      "outputs": [
        {
          "internalType": "address",
          "name": "",
          "type": "address"
        }
      ],
      "stateMutability": "nonpayable",
      "type": "function"
    },
    {
      "inputs": [
        {
          "internalType": "address",
          "name": "_collectionAddress",
          "type": "address"
        },
        {
          "internalType": "string",
          "name": "_metaURI",
          "type": "string"
        }
      ],
      "name": "importCollection",
      "outputs": [
        {
          "internalType": "address",
          "name": "",
          "type": "address"
        }
      ],
      "stateMutability": "nonpayable",
      "type": "function"
    },
    {
      "inputs": [
        {
          "internalType": "uint256",
          "name": "_collectionId",
          "type": "uint256"
        }
      ],
      "name": "getCollection",
      "outputs": [
        {
          "components": [
            {
              "internalType": "uint256",
              "name": "collectionId",
              "type": "uint256"
            },
            {
              "internalType": "address",
              "name": "collectionAddress",
              "type": "address"
            },
            {
              "internalType": "address",
              "name": "ownerAddress",
              "type": "address"
            },
            {
              "internalType": "string",
              "name": "metaURI",
              "type": "string"
            }
          ],
          "internalType": "struct MarketPlace.CollectionItem",
          "name": "",
          "type": "tuple"
        }
      ],
      "stateMutability": "view",
      "type": "function",
      "constant": true
    },
    {
      "inputs": [],
      "name": "getCollectionCount",
      "outputs": [
        {
          "internalType": "uint256",
          "name": "",
          "type": "uint256"
        }
      ],
      "stateMutability": "view",
      "type": "function",
      "constant": true
    },
    {
      "inputs": [
        {
          "internalType": "address",
          "name": "_collectionAddress",
          "type": "address"
        },
        {
          "internalType": "uint256",
          "name": "_tokenId",
          "type": "uint256"
        },
        {
          "internalType": "uint256",
          "name": "_initialPrice",
          "type": "uint256"
        },
        {
          "internalType": "uint256",
          "name": "_reservedPrice",
          "type": "uint256"
        },
        {
          "internalType": "uint256",
          "name": "_buyItNowPrice",
          "type": "uint256"
        },
        {
          "internalType": "uint256",
          "name": "_durationDays",
          "type": "uint256"
        }
      ],
      "name": "createAuction",
      "outputs": [],
      "stateMutability": "nonpayable",
      "type": "function"
    },
    {
      "inputs": [],
      "name": "getAuctionCount",
      "outputs": [
        {
          "internalType": "uint256",
          "name": "",
          "type": "uint256"
        }
      ],
      "stateMutability": "view",
      "type": "function",
      "constant": true
    },
    {
      "inputs": [
        {
          "internalType": "address",
          "name": "collectionAddress",
          "type": "address"
        }
      ],
      "name": "getCollectionAuctions",
      "outputs": [
        {
          "internalType": "uint256[]",
          "name": "",
          "type": "uint256[]"
        }
      ],
      "stateMutability": "view",
      "type": "function",
      "constant": true
    },
    {
      "inputs": [
        {
          "internalType": "uint256",
          "name": "_auctionId",
          "type": "uint256"
        }
      ],
      "name": "getAuction",
      "outputs": [
        {
          "components": [
            {
              "internalType": "address",
              "name": "ownerAddress",
              "type": "address"
            },
            {
              "internalType": "address",
              "name": "collectionAddress",
              "type": "address"
            },
            {
              "internalType": "address",
              "name": "highestBidderAddress",
              "type": "address"
            },
            {
              "internalType": "uint256",
              "name": "highestBid",
              "type": "uint256"
            },
            {
              "internalType": "uint256",
              "name": "auctionId",
              "type": "uint256"
            },
            {
              "internalType": "uint256",
              "name": "tokenId",
              "type": "uint256"
            },
            {
              "internalType": "uint256",
              "name": "buyItNowPrice",
              "type": "uint256"
            },
            {
              "internalType": "uint256",
              "name": "reservedPrice",
              "type": "uint256"
            },
            {
              "internalType": "uint256",
              "name": "initialPrice",
              "type": "uint256"
            },
            {
              "internalType": "uint256",
              "name": "endTime",
              "type": "uint256"
            },
            {
              "internalType": "enum MarketPlace.AuctionStatus",
              "name": "auctionStatus",
              "type": "uint8"
            }
          ],
          "internalType": "struct MarketPlace.AuctionItem",
          "name": "",
          "type": "tuple"
        }
      ],
      "stateMutability": "view",
      "type": "function",
      "constant": true
    },
    {
      "inputs": [
        {
          "internalType": "address",
          "name": "_collectionAddress",
          "type": "address"
        },
        {
          "internalType": "uint256",
          "name": "_tokenId",
          "type": "uint256"
        }
      ],
      "name": "getAuctionBy",
      "outputs": [
        {
          "components": [
            {
              "internalType": "address",
              "name": "ownerAddress",
              "type": "address"
            },
            {
              "internalType": "address",
              "name": "collectionAddress",
              "type": "address"
            },
            {
              "internalType": "address",
              "name": "highestBidderAddress",
              "type": "address"
            },
            {
              "internalType": "uint256",
              "name": "highestBid",
              "type": "uint256"
            },
            {
              "internalType": "uint256",
              "name": "auctionId",
              "type": "uint256"
            },
            {
              "internalType": "uint256",
              "name": "tokenId",
              "type": "uint256"
            },
            {
              "internalType": "uint256",
              "name": "buyItNowPrice",
              "type": "uint256"
            },
            {
              "internalType": "uint256",
              "name": "reservedPrice",
              "type": "uint256"
            },
            {
              "internalType": "uint256",
              "name": "initialPrice",
              "type": "uint256"
            },
            {
              "internalType": "uint256",
              "name": "endTime",
              "type": "uint256"
            },
            {
              "internalType": "enum MarketPlace.AuctionStatus",
              "name": "auctionStatus",
              "type": "uint8"
            }
          ],
          "internalType": "struct MarketPlace.AuctionItem",
          "name": "",
          "type": "tuple"
        }
      ],
      "stateMutability": "view",
      "type": "function",
      "constant": true
    },
    {
      "inputs": [
        {
          "internalType": "uint256",
          "name": "_auctionId",
          "type": "uint256"
        }
      ],
      "name": "buyNowAuction",
      "outputs": [],
      "stateMutability": "payable",
      "type": "function",
      "payable": true
    },
    {
      "inputs": [
        {
          "internalType": "uint256",
          "name": "_auctionId",
          "type": "uint256"
        }
      ],
      "name": "cancelAuction",
      "outputs": [],
      "stateMutability": "nonpayable",
      "type": "function"
    },
    {
      "inputs": [
        {
          "internalType": "uint256",
          "name": "_auctionId",
          "type": "uint256"
        }
      ],
      "name": "checkAuction",
      "outputs": [],
      "stateMutability": "nonpayable",
      "type": "function"
    },
    {
      "inputs": [
        {
          "internalType": "uint256",
          "name": "_auctionId",
          "type": "uint256"
        }
      ],
      "name": "bid",
      "outputs": [],
      "stateMutability": "payable",
      "type": "function",
      "payable": true
    },
    {
      "inputs": [
        {
          "internalType": "address",
          "name": "_collectionAddress",
          "type": "address"
        },
        {
          "internalType": "uint256",
          "name": "_tokenId",
          "type": "uint256"
        },
        {
          "internalType": "uint256",
          "name": "_offeredPrice",
          "type": "uint256"
        }
      ],
      "name": "createDirectOffer",
      "outputs": [],
      "stateMutability": "nonpayable",
      "type": "function"
    },
    {
      "inputs": [],
      "name": "getDirectOfferCount",
      "outputs": [
        {
          "internalType": "uint256",
          "name": "",
          "type": "uint256"
        }
      ],
      "stateMutability": "view",
      "type": "function",
      "constant": true
    },
    {
      "inputs": [
        {
          "internalType": "uint256",
          "name": "_directOfferId",
          "type": "uint256"
        }
      ],
      "name": "getDirectOffer",
      "outputs": [
        {
          "components": [
            {
              "internalType": "address",
              "name": "ownerAddress",
              "type": "address"
            },
            {
              "internalType": "address",
              "name": "collectionAddress",
              "type": "address"
            },
            {
              "internalType": "address",
              "name": "buyerAddress",
              "type": "address"
            },
            {
              "internalType": "uint256",
              "name": "directOfferId",
              "type": "uint256"
            },
            {
              "internalType": "uint256",
              "name": "tokenId",
              "type": "uint256"
            },
            {
              "internalType": "uint256",
              "name": "offeredPrice",
              "type": "uint256"
            },
            {
              "internalType": "enum MarketPlace.DirectOfferStatus",
              "name": "directOfferStatus",
              "type": "uint8"
            }
          ],
          "internalType": "struct MarketPlace.DirectOfferItem",
          "name": "",
          "type": "tuple"
        }
      ],
      "stateMutability": "view",
      "type": "function",
      "constant": true
    },
    {
      "inputs": [
        {
          "internalType": "address",
          "name": "_collectionAddress",
          "type": "address"
        },
        {
          "internalType": "uint256",
          "name": "_tokenId",
          "type": "uint256"
        }
      ],
      "name": "getDirectOffers",
      "outputs": [
        {
          "components": [
            {
              "internalType": "address",
              "name": "ownerAddress",
              "type": "address"
            },
            {
              "internalType": "address",
              "name": "collectionAddress",
              "type": "address"
            },
            {
              "internalType": "address",
              "name": "buyerAddress",
              "type": "address"
            },
            {
              "internalType": "uint256",
              "name": "directOfferId",
              "type": "uint256"
            },
            {
              "internalType": "uint256",
              "name": "tokenId",
              "type": "uint256"
            },
            {
              "internalType": "uint256",
              "name": "offeredPrice",
              "type": "uint256"
            },
            {
              "internalType": "enum MarketPlace.DirectOfferStatus",
              "name": "directOfferStatus",
              "type": "uint8"
            }
          ],
          "internalType": "struct MarketPlace.DirectOfferItem[]",
          "name": "",
          "type": "tuple[]"
        }
      ],
      "stateMutability": "view",
      "type": "function",
      "constant": true
    },
    {
      "inputs": [
        {
          "internalType": "address",
          "name": "_buyerAddress",
          "type": "address"
        },
        {
          "internalType": "address",
          "name": "_collectionAddress",
          "type": "address"
        },
        {
          "internalType": "uint256",
          "name": "_tokenId",
          "type": "uint256"
        }
      ],
      "name": "getDirectOfferBy",
      "outputs": [
        {
          "components": [
            {
              "internalType": "address",
              "name": "ownerAddress",
              "type": "address"
            },
            {
              "internalType": "address",
              "name": "collectionAddress",
              "type": "address"
            },
            {
              "internalType": "address",
              "name": "buyerAddress",
              "type": "address"
            },
            {
              "internalType": "uint256",
              "name": "directOfferId",
              "type": "uint256"
            },
            {
              "internalType": "uint256",
              "name": "tokenId",
              "type": "uint256"
            },
            {
              "internalType": "uint256",
              "name": "offeredPrice",
              "type": "uint256"
            },
            {
              "internalType": "enum MarketPlace.DirectOfferStatus",
              "name": "directOfferStatus",
              "type": "uint8"
            }
          ],
          "internalType": "struct MarketPlace.DirectOfferItem",
          "name": "",
          "type": "tuple"
        }
      ],
      "stateMutability": "view",
      "type": "function",
      "constant": true
    },
    {
      "inputs": [
        {
          "internalType": "uint256",
          "name": "_directOfferId",
          "type": "uint256"
        }
      ],
      "name": "cancelDirectOffer",
      "outputs": [],
      "stateMutability": "nonpayable",
      "type": "function"
    },
    {
      "inputs": [
        {
          "internalType": "uint256",
          "name": "_directOfferId",
          "type": "uint256"
        }
      ],
      "name": "acceptDirectOffer",
      "outputs": [],
      "stateMutability": "nonpayable",
      "type": "function"
    },
    {
      "inputs": [
        {
          "internalType": "uint256",
          "name": "_directOfferId",
          "type": "uint256"
        }
      ],
      "name": "fulfillDirectOffer",
      "outputs": [],
      "stateMutability": "payable",
      "type": "function",
      "payable": true
    },
    {
      "inputs": [],
      "name": "claimFunds",
      "outputs": [],
      "stateMutability": "nonpayable",
      "type": "function"
    }
  ],
  "bytecode": "0x608060405234801561001057600080fd5b50615fc9806100206000396000f3fe60806040526004361062000187576000357c0100000000000000000000000000000000000000000000000000000000900480638387c6e111620000e4578063d0def5211162000096578063d0def521146200044e578063e324bd1f1462000473578063e5266b66146200048a578063e5d079f014620004c2578063ece86c2114620004e7578063f36df2fa146200050c5762000187565b80638387c6e11462000360578063849da0de146200039157806396b5a75514620003c5578063ac30777314620003ea578063c44e66401462000402578063c9611ab9146200041a5762000187565b806343364ded116200013e57806343364ded1462000280578063454a2ab314620002b45780635a1f3c2814620002cb5780636b2b1e0614620002ff57806378bd79351462000316578063791bb4ef146200033b5762000187565b80630c79b9f91462000199578063154e0e0214620001c05780631c10106f14620001fd57806320c03948146200021e578063230c30a714620002435780632a3dcc761462000268575b3480156200019457600080fd5b600080fd5b348015620001a657600080fd5b50620001be620001b836600462002bd1565b62000531565b005b348015620001cd57600080fd5b50620001e5620001df36600462002c01565b620007a6565b604051620001f4919062002c7a565b60405180910390f35b3480156200020a57600080fd5b506000545b604051908152602001620001f4565b3480156200022b57600080fd5b50620001be6200023d36600462002bd1565b620007ee565b3480156200025057600080fd5b50620001be6200026236600462002bd1565b62000836565b3480156200027557600080fd5b506200020f6200095a565b3480156200028d57600080fd5b50620002a56200029f36600462002bd1565b62000966565b604051620001f4919062002d8b565b620001be620002c536600462002bd1565b62000ae1565b348015620002d857600080fd5b50620002f0620002ea36600462002bd1565b62000d5f565b604051620001f4919062002deb565b620001be6200031036600462002bd1565b62000e69565b3480156200032357600080fd5b50620001e56200033536600462002bd1565b62001100565b3480156200034857600080fd5b50620001be6200035a36600462002e35565b62001202565b3480156200036d57600080fd5b506200020f6200037f36600462002e84565b60036020526000908152604090205481565b3480156200039e57600080fd5b50620003b6620003b036600462002c01565b620016d8565b604051620001f4919062002ea4565b348015620003d257600080fd5b50620001be620003e436600462002bd1565b620017f7565b348015620003f757600080fd5b50620001be620019be565b3480156200040f57600080fd5b506200020f62001abf565b3480156200042757600080fd5b506200043f6200043936600462002e84565b62001acb565b604051620001f4919062002ef6565b3480156200045b57600080fd5b50620001be6200046d36600462002fde565b62001b39565b620001be6200048436600462002bd1565b62001bd4565b3480156200049757600080fd5b50620004a96200019436600462002fde565b604051600160a060020a039091168152602001620001f4565b348015620004cf57600080fd5b50620002a5620004e136600462003034565b62001ecc565b348015620004f457600080fd5b50620004a9620005063660046200307a565b62001f1b565b3480156200051957600080fd5b50620001be6200052b3660046200310c565b62002176565b600081815260056020526040902060038101548214620005715760405160e560020a62461bcd028152600401620005689062003144565b60405180910390fd5b6000600682015460ff1660038111156200058f576200058f62002c30565b14620005b25760405160e560020a62461bcd02815260040162000568906200317b565b60018101546004808301546040517f6352211e00000000000000000000000000000000000000000000000000000000815291820152600160a060020a03909116908190636352211e90602401602060405180830381865afa1580156200061c573d6000803e3d6000fd5b505050506040513d601f19601f82011682018060405250810190620006429190620031b2565b600160a060020a031633600160a060020a031614620006a75760405160e560020a62461bcd02815260206004820152600f60248201527f4e6f7420746f6b656e206f776e65720000000000000000000000000000000000604482015260640162000568565b6004828101546040517f081812fc00000000000000000000000000000000000000000000000000000000815291820152600160a060020a0382169063081812fc90602401602060405180830381865afa15801562000709573d6000803e3d6000fd5b505050506040513d601f19601f820116820180604052508101906200072f9190620031b2565b600160a060020a031630600160a060020a031614620007945760405160e560020a62461bcd02815260206004820152601b60248201527f4d61726b6574506c616365206973206e6f7420617070726f7665640000000000604482015260640162000568565b50600601805460ff1916600117905550565b620007b062002ac6565b600160a060020a0383166000908152600960209081526040808320858452909152902054620007df8162001100565b9150505b92915050565b905090565b6000818152600460208190526040909120908101548214620008275760405160e560020a62461bcd0281526004016200056890620031d2565b620008328162002532565b5050565b6000818152600560205260409020600381015482146200086d5760405160e560020a62461bcd028152600401620005689062003144565b6002810154600160a060020a03163314620008ce5760405160e560020a62461bcd02815260206004820152601b60248201527f4f6e6c79206f666665722062617965722063616e2063616e63656c0000000000604482015260640162000568565b6000600682015460ff166003811115620008ec57620008ec62002c30565b146200090f5760405160e560020a62461bcd02815260040162000568906200317b565b60068101805460ff191660031790556001810154600160a060020a03166000908152600a602090815260408083206004850154845290915290206200095590336200273f565b505050565b6000620007e960025490565b6200097062002b4e565b6000828152600560208181526040808420815160e0810183528154600160a060020a03908116825260018301548116948201949094526002820154909316918301919091526003808201546060840152600482015460808401529281015460a083015260068101549192909160c084019160ff90911690811115620009f957620009f962002c30565b600381111562000a0d5762000a0d62002c30565b8152505090508281606001511462000a6b5760405160e560020a62461bcd02815260206004820152601b60248201527f4469726563744f6666657220646f6573206e6f74206578697374730000000000604482015260640162000568565b8051600160a060020a031633148062000a9057506040810151600160a060020a031633145b620007e35760405160e560020a62461bcd02815260206004820152601460248201527f4f6e6c792073656c6c6572206f72206275796572000000000000000000000000604482015260640162000568565b600081815260046020819052604090912090810154821462000b1a5760405160e560020a62461bcd0281526004016200056890620031d2565b62000b258162002532565b805433600160a060020a039091160362000b855760405160e560020a62461bcd02815260206004820152601860248201527f41756374696f6e206f776e65722063616e6e6f74206269640000000000000000604482015260640162000568565b600281015433600160a060020a039091160362000be85760405160e560020a62461bcd02815260206004820152601660248201527f416c726561647920686967686573742062696464657200000000000000000000604482015260640162000568565b6000600a82015460ff16600381111562000c065762000c0662002c30565b1462000c295760405160e560020a62461bcd028152600401620005689062003209565b8060030154341162000c815760405160e560020a62461bcd02815260206004820152601260248201527f426964206d6f7374206265206269676765720000000000000000000000000000604482015260640162000568565b6000816003015411801562000ca257506002810154600160a060020a031615155b1562000cf6576003808201546002830154600160a060020a0316600090815260209290925260409091205462000cd8916200275d565b6002820154600160a060020a03166000908152600360205260409020555b346003820181905560028201805473ffffffffffffffffffffffffffffffffffffffff19163317905560405183917f281a095d747cc9c4f0fa29ed1f9210bfef8a501597bbb761e159f8d3306316669162000d5391815260200190565b60405180910390a25050565b6040805160808082018352600080835260208084018290528385018290526060808501819052868352600682529185902085519384018652805484526001810154600160a060020a0390811692850192909252600281015490911694830194909452600384018054939492939184019162000dda9062003240565b80601f016020809104026020016040519081016040528092919081815260200182805462000e089062003240565b801562000e595780601f1062000e2d5761010080835404028352916020019162000e59565b820191906000526020600020905b81548152906001019060200180831162000e3b57829003601f168201915b5050505050815250509050919050565b60008181526005602052604090206003810154821462000ea05760405160e560020a62461bcd028152600401620005689062003144565b6001600682015460ff16600381111562000ebe5762000ebe62002c30565b1462000ee15760405160e560020a62461bcd02815260040162000568906200317b565b6002810154600160a060020a0316331462000f425760405160e560020a62461bcd02815260206004820152601d60248201527f4f6e6c79206f666665722062617965722063616e2066756c6c66696c6c000000604482015260640162000568565b8060050154341462000f9a5760405160e560020a62461bcd02815260206004820152601a60248201527f4f66666572656420707269636520697320696e636f7272656374000000000000604482015260640162000568565b6001810154815460028301546004808501546040517f23b872dd000000000000000000000000000000000000000000000000000000008152600160a060020a03948516928101929092529183166024820152604481019190915291169081906323b872dd90606401600060405180830381600087803b1580156200101d57600080fd5b505af115801562001032573d6000803e3d6000fd5b5050505060068201805460ff1916600217905560006200106160646200105a3460036200276b565b9062002779565b9050600062001071348362002787565b8454600160a060020a03166000908152600360205260409020549091506200109a90826200275d565b8454600160a060020a0390811660009081526003602090815260408083209490945560018801549092168152600a825282812060048801548252909152908120908181818181818181620010ef828262002b88565b505050505050505050505050505050565b6200110a62002ac6565b60008281526004602081815260408084208151610160810183528154600160a060020a03908116825260018301548116948201949094526002820154909316918301919091526003808201546060840152928101546080830152600581015460a0830152600681015460c0830152600781015460e083015260088101546101008301526009810154610120830152600a8101549192909161014084019160ff90911690811115620011bf57620011bf62002c30565b6003811115620011d357620011d362002c30565b81525050905082816080015114620007e35760405160e560020a62461bcd0281526004016200056890620031d2565b6040517f6352211e000000000000000000000000000000000000000000000000000000008152600481018690528690600160a060020a03821690636352211e90602401602060405180830381865afa15801562001263573d6000803e3d6000fd5b505050506040513d601f19601f82011682018060405250810190620012899190620031b2565b600160a060020a031633600160a060020a031614620012ee5760405160e560020a62461bcd02815260206004820152600f60248201527f4e6f7420746f6b656e206f776e65720000000000000000000000000000000000604482015260640162000568565b6040517f081812fc00000000000000000000000000000000000000000000000000000000815260048101879052600160a060020a0382169063081812fc90602401602060405180830381865afa1580156200134d573d6000803e3d6000fd5b505050506040513d601f19601f82011682018060405250810190620013739190620031b2565b600160a060020a031630600160a060020a031614620013d85760405160e560020a62461bcd02815260206004820152601b60248201527f4d61726b6574506c616365206973206e6f7420617070726f7665640000000000604482015260640162000568565b600160a060020a0387166000908152600960209081526040808320898452909152902054156200144e5760405160e560020a62461bcd02815260206004820152601d60248201527f41756374696f6e20666f72207468697320746f6b656e20657869737473000000604482015260640162000568565b60008211620014a35760405160e560020a62461bcd02815260206004820152601060248201527f496e76616c6964206475726174696f6e00000000000000000000000000000000604482015260640162000568565b620014b2600180546001019055565b6000620014be60015490565b905060405180610160016040528033600160a060020a0316815260200189600160a060020a031681526020016000600160a060020a0316815260200160008152602001828152602001888152602001858152602001868152602001878152602001846201518062001530919062003298565b6200153c9042620032ba565b8152602001600090526000828152600460208181526040928390208451815473ffffffffffffffffffffffffffffffffffffffff19908116600160a060020a03928316178355928601516001808401805486169284169290921790915594860151600283018054909416911617909155606084015160038083019190915560808501519282019290925560a0840151600582015560c0840151600682015560e0840151600782015561010084015160088201556101208401516009820155610140840151600a8201805492949193909260ff19169190849081111562001626576200162662002c30565b02179055505050600160a060020a0388166000818152600860209081526040808320805460018101825590845282842001859055838352600982528083208b84528252808320859055928252600a81528282208a8352905290812090818181818181818162001696828262002b88565b5050505050505050505086817fd086c941db0dfd32e8d65552faa1a349d3c3fc18b2235a0fe20be668c81feee060405160405180910390a35050505050505050565b600160a060020a0382166000908152600a602090815260408083208484529091528120606091906200170a9062002795565b905060008167ffffffffffffffff8111156200172a576200172a62002f30565b6040519080825280602002602001820160405280156200176757816020015b6200175362002b4e565b815260200190600190039081620017495790505b50905060005b82811015620017ee57600160a060020a0386166000908152600a6020908152604080832088845290915281208190620017a79084620027a2565b91509150620017b68162000966565b848481518110620017cb57620017cb620032d5565b602002602001018190525050508080620017e590620032ee565b9150506200176d565b50949350505050565b6000818152600460208190526040909120908101548214620018305760405160e560020a62461bcd0281526004016200056890620031d2565b6200183b8162002532565b8054600160a060020a03163314620018995760405160e560020a62461bcd02815260206004820152601d60248201527f4f6e6c792061756374696f6e206f776e65722063616e2063616e63656c000000604482015260640162000568565b6000600a82015460ff166003811115620018b757620018b762002c30565b14620018da5760405160e560020a62461bcd028152600401620005689062003209565b600a8101805460ff191660039081179091556001820154600160a060020a0316600090815260096020908152604080832060058601548452909152812055810154158015906200193657506002810154600160a060020a031615155b156200198a576003808201546002830154600160a060020a031660009081526020929092526040909120546200196c916200275d565b6002820154600160a060020a03166000908152600360205260409020555b600581015460405183907f9c31dd0dfb89b9b275633c46be4dc396661364ff715b47b8ae06201681e7ebc390600090a35050565b3360009081526003602052604090205462001a445760405160e560020a62461bcd028152602060048201526024808201527f54686973207573657220686173206e6f2066756e647320746f20626520636c6160448201527f696d656400000000000000000000000000000000000000000000000000000000606482015260840162000568565b33600081815260036020526040808220805490839055905190929183156108fc02918491818181858888f1935050505015801562001a86573d6000803e3d6000fd5b5060405181815233907f1c355404524eaedf23f07edd324a42ac9a04ef403aa580df4c39547b42566d8f9060200160405180910390a250565b6000620007e960015490565b600160a060020a03811660009081526008602090815260409182902080548351818402810184019094528084526060939283018282801562001b2d57602002820191906000526020600020905b81548152602001906001019080831162001b18575b50505050509050919050565b6040517f6c6ad2420000000000000000000000000000000000000000000000000000000081528290600090600160a060020a03831690636c6ad2429062001b8790339087906004016200330a565b6020604051808303816000875af115801562001ba7573d6000803e3d6000fd5b505050506040513d601f19601f8201168201806040525081019062001bcd91906200332e565b5050505050565b600081815260046020819052604090912090810154821462001c0d5760405160e560020a62461bcd0281526004016200056890620031d2565b62001c188162002532565b805433600160a060020a039091160362001c785760405160e560020a62461bcd02815260206004820152601b60248201527f41756374696f6e206f776e65722063616e6e6f74206275792069740000000000604482015260640162000568565b6000600a82015460ff16600381111562001c965762001c9662002c30565b1462001cb95760405160e560020a62461bcd028152600401620005689062003209565b600081600601541162001d125760405160e560020a62461bcd02815260206004820152601660248201527f427579206e6f77206973206e6f7420616c6c6f77656400000000000000000000604482015260640162000568565b8060060154341462001d6a5760405160e560020a62461bcd02815260206004820152601860248201527f427579206e6f7720707269636520697320677265617465720000000000000000604482015260640162000568565b6001810154815460058301546040517f23b872dd000000000000000000000000000000000000000000000000000000008152600160a060020a039283166004820152336024820152604481019190915291169081906323b872dd90606401600060405180830381600087803b15801562001de357600080fd5b505af115801562001df8573d6000803e3d6000fd5b50505050600a8201805460ff19166002179055600062001e2060646200105a3460036200276b565b9050600062001e30348362002787565b8454600160a060020a031660009081526003602052604090205490915062001e5990826200275d565b8454600160a060020a039081166000908152600360209081526040808320949094556001880154909216815260098252828120600588018054835292528281208190559054915187917fac764b5e3093df07973820131c91169ffd8ac85fd2f8f7329bb83e8ba6299e7291a35050505050565b62001ed662002b4e565b600160a060020a0383166000908152600a60209081526040808320858452909152812062001f059086620027c0565b905062001f128162000966565b95945050505050565b600080848460405162001f2e9062002ba8565b62001f3b9291906200346d565b604051809103906000f08015801562001f58573d6000803e3d6000fd5b506040517f2f2ff15d0000000000000000000000000000000000000000000000000000000081527f9f2df0fed2c77648de5860a4cc508cd0818c85b8b8a1ab4ceeef8d981c8956a66004820152336024820152909150600160a060020a03821690632f2ff15d90604401600060405180830381600087803b15801562001fdd57600080fd5b505af115801562001ff2573d6000803e3d6000fd5b50506040517fa22cb46500000000000000000000000000000000000000000000000000000000815233600482015260016024820152600160a060020a038416925063a22cb4659150604401600060405180830381600087803b1580156200205857600080fd5b505af11580156200206d573d6000803e3d6000fd5b5050600080546001019055508190506000805460408051608081018252828152600160a060020a03808616602080840191825233848601908152606085018c8152600088815260069093529590912084518155915160018301805491851673ffffffffffffffffffffffffffffffffffffffff1992831617905590516002830180549190941691161790915591519293509160038201906200211090826200339a565b5050336000818152600760209081526040808320868452909152808220805460ff1916600117905551919250600160a060020a0385169184917fecbe631ce73f784b71c74c5339317b59e203e339d6773c02526891b8063931c091a45095945050505050565b6040517f6352211e000000000000000000000000000000000000000000000000000000008152600481018390528390600090600160a060020a03831690636352211e90602401602060405180830381865afa158015620021da573d6000803e3d6000fd5b505050506040513d601f19601f82011682018060405250810190620022009190620031b2565b9050600160a060020a03811633036200225f5760405160e560020a62461bcd02815260206004820152601360248201527f416c726561647920746f6b656e206f776e657200000000000000000000000000604482015260640162000568565b600160a060020a038116620022ba5760405160e560020a62461bcd02815260206004820152601360248201527f546f6b656e20776974686f7574206f776e657200000000000000000000000000604482015260640162000568565b600083116200230f5760405160e560020a62461bcd02815260206004820152601c60248201527f4f6666657265642070726963652063616e6e6f74206265207a65726f00000000604482015260640162000568565b600160a060020a038516600090815260096020908152604080832087845290915290205415620023855760405160e560020a62461bcd02815260206004820152601d60248201527f41756374696f6e20666f72207468697320746f6b656e20657869737473000000604482015260640162000568565b62002394600280546001019055565b6000620023a060025490565b90506040518060e0016040528083600160a060020a0316815260200187600160a060020a0316815260200133600160a060020a031681526020018281526020018681526020018581526020016000600381111562002402576200240262002c30565b90526000828152600560208181526040928390208451815473ffffffffffffffffffffffffffffffffffffffff19908116600160a060020a0392831617835592860151600180840180548616928416929092179091559486015160028301805490941691161790915560608401516003808301919091556080850151600483015560a08501519282019290925560c084015160068201805492949193909260ff191691908490811115620024ba57620024ba62002c30565b02179055505050600160a060020a0386166000908152600a602090815260408083208884529091529020620024f1903383620027d7565b50848187600160a060020a03167f168958fe108a35ac2d5098bfe716f8f945da4c3603475faa4c092cf486d83f1c60405160405180910390a4505050505050565b6000600a82015460ff16600381111562002550576200255062002c30565b036200273c57600981015442108015906200083257600182015460088301546003840154600160a060020a039092169111801562002595575082600701548360030154115b15620026b757600a8301805460ff19166002179055600380840154600091620025c7916064916200105a91906200276b565b90506000620025e48286600301546200278790919063ffffffff16565b8554600160a060020a03166000908152600360205260409020549091506200260d90826200275d565b8554600160a060020a0390811660009081526003602052604090819020929092558654600588015492517f23b872dd000000000000000000000000000000000000000000000000000000008152908216600482015233602482015260448101929092528416906323b872dd90606401600060405180830381600087803b1580156200269757600080fd5b505af1158015620026ac573d6000803e3d6000fd5b505050505050505050565b600a8301805460ff19166001179055600383015415801590620026e657506002830154600160a060020a031615155b1562000955576003808401546002850154600160a060020a031660009081526020929092526040909120546200271c916200275d565b6002840154600160a060020a031660009081526003602052604090205550505b50565b60006200275683600160a060020a038416620027f7565b9392505050565b6000620027568284620032ba565b600062002756828462003298565b600062002756828462003496565b6000620027568284620034bc565b6000620007e38262002816565b6000808080620027b3868662002823565b9097909650945050505050565b60006200275683600160a060020a03841662002850565b6000620027ef84600160a060020a03851684620028c8565b949350505050565b60008181526002830160205260408120819055620027568383620028e7565b6000620007e382620028f5565b6000808062002833858562002900565b600081815260029690960160205260409095205494959350505050565b6000818152600283016020526040812054801515806200287757506200287784846200290e565b620027565760405160e560020a62461bcd02815260206004820152601e60248201527f456e756d657261626c654d61703a206e6f6e6578697374656e74206b65790000604482015260640162000568565b60008281526002840160205260408120829055620027ef84846200291c565b60006200275683836200292a565b6000620007e3825490565b600062002756838362002a2e565b600062002756838362002a5b565b600062002756838362002a74565b6000818152600183016020526040812054801562002a2357600062002951600183620034bc565b85549091506000906200296790600190620034bc565b9050818114620029d35760008660000182815481106200298b576200298b620032d5565b9060005260206000200154905080876000018481548110620029b157620029b1620032d5565b6000918252602080832090910192909255918252600188019052604090208390555b8554869080620029e757620029e7620034d6565b600190038181906000526020600020016000905590558560010160008681526020019081526020016000206000905560019350505050620007e3565b6000915050620007e3565b600082600001828154811062002a485762002a48620032d5565b9060005260206000200154905092915050565b6000818152600183016020526040812054151562002756565b600081815260018301602052604081205462002abd57508154600181810184556000848152602080822090930184905584548482528286019093526040902091909155620007e3565b506000620007e3565b6040518061016001604052806000600160a060020a031681526020016000600160a060020a031681526020016000600160a060020a03168152602001600081526020016000815260200160008152602001600081526020016000815260200160008152602001600081526020016000600381111562002b495762002b4962002c30565b905290565b6040805160e081018252600080825260208201819052918101829052606081018290526080810182905260a081018290529060c082015290565b50805460008255906000526020600020908101906200273c919062002bb6565b612aa480620034f083390190565b5b8082111562002bcd576000815560010162002bb7565b5090565b60006020828403121562002be457600080fd5b5035919050565b600160a060020a03811681146200273c57600080fd5b6000806040838503121562002c1557600080fd5b823562002c228162002beb565b946020939093013593505050565b60e060020a634e487b7102600052602160045260246000fd5b600481106200273c5760e060020a634e487b7102600052602160045260246000fd5b62002c768162002c49565b9052565b8151600160a060020a031681526101608101602083015162002ca76020840182600160a060020a03169052565b50604083015162002cc36040840182600160a060020a03169052565b50606083015160608301526080830151608083015260a083015160a083015260c083015160c083015260e083015160e08301526101008084015181840152506101208084015181840152506101408084015162002d238285018262002c6b565b505092915050565b600160a060020a0380825116835280602083015116602084015280604083015116604084015250606081015160608301526080810151608083015260a081015160a083015260c081015162002d808162002c49565b8060c0840152505050565b60e08101620007e3828462002d2b565b6000815180845260005b8181101562002dc35760208185018101518683018201520162002da5565b8181111562002dd6576000602083870101525b50601f01601f19169290920160200192915050565b602081528151602082015260006020830151600160a060020a03808216604085015280604086015116606085015250506060830151608080840152620007df60a084018262002d9b565b60008060008060008060c0878903121562002e4f57600080fd5b863562002e5c8162002beb565b9860208801359850604088013597606081013597506080810135965060a00135945092505050565b60006020828403121562002e9757600080fd5b8135620027568162002beb565b6020808252825182820181905260009190848201906040850190845b8181101562002eea5762002ed683855162002d2b565b9284019260e0929092019160010162002ec0565b50909695505050505050565b6020808252825182820181905260009190848201906040850190845b8181101562002eea5783518352928401929184019160010162002f12565b60e060020a634e487b7102600052604160045260246000fd5b600082601f83011262002f5b57600080fd5b813567ffffffffffffffff8082111562002f795762002f7962002f30565b604051601f8301601f19908116603f0116810190828211818310171562002fa45762002fa462002f30565b8160405283815286602085880101111562002fbe57600080fd5b836020870160208301376000602085830101528094505050505092915050565b6000806040838503121562002ff257600080fd5b823562002fff8162002beb565b9150602083013567ffffffffffffffff8111156200301c57600080fd5b6200302a8582860162002f49565b9150509250929050565b6000806000606084860312156200304a57600080fd5b8335620030578162002beb565b92506020840135620030698162002beb565b929592945050506040919091013590565b6000806000606084860312156200309057600080fd5b833567ffffffffffffffff80821115620030a957600080fd5b620030b78783880162002f49565b94506020860135915080821115620030ce57600080fd5b620030dc8783880162002f49565b93506040860135915080821115620030f357600080fd5b50620031028682870162002f49565b9150509250925092565b6000806000606084860312156200312257600080fd5b83356200312f8162002beb565b95602085013595506040909401359392505050565b60208082526015908201527f4f6666657220646f6573206e6f74206578697374730000000000000000000000604082015260600190565b60208082526011908201527f4f66666572206973206e6f74206f70656e000000000000000000000000000000604082015260600190565b600060208284031215620031c557600080fd5b8151620027568162002beb565b60208082526017908201527f41756374696f6e20646f6573206e6f7420657869737473000000000000000000604082015260600190565b60208082526016908201527f41756374696f6e206973206e6f742072756e6e696e6700000000000000000000604082015260600190565b6002810460018216806200325557607f821691505b602082108103620032795760e060020a634e487b7102600052602260045260246000fd5b50919050565b60e060020a634e487b7102600052601160045260246000fd5b6000816000190483118215151615620032b557620032b56200327f565b500290565b60008219821115620032d057620032d06200327f565b500190565b60e060020a634e487b7102600052603260045260246000fd5b6000600182016200330357620033036200327f565b5060010190565b600160a060020a0383168152604060208201526000620027ef604083018462002d9b565b6000602082840312156200334157600080fd5b5051919050565b601f82111562000955576000818152602081206020601f86010481016020861015620033715750805b6020601f860104820191505b8181101562003392578281556001016200337d565b505050505050565b815167ffffffffffffffff811115620033b757620033b762002f30565b620033cf81620033c8845462003240565b8462003348565b602080601f8311600181146200340b5760008415620033ee5750858301515b60028086026008870290910a600019041982161786555062003392565b600085815260208120601f198616915b828110156200343c578886015182559484019460019091019084016200341b565b50858210156200345d57878501516008601f88160260020a60001904191681555b5050505050600202600101905550565b60408152600062003482604083018562002d9b565b828103602084015262001f12818562002d9b565b600082620034b75760e060020a634e487b7102600052601260045260246000fd5b500490565b600082821015620034d157620034d16200327f565b500390565b60e060020a634e487b7102600052603160045260246000fdfe60806040523480156200001157600080fd5b5060405162002aa438038062002aa483398101604081905262000034916200028c565b818160006200004483826200039e565b5060016200005382826200039e565b506200008091506000905062000071640100000000620000c0810204565b640100000000620000c4810204565b620000b87f9f2df0fed2c77648de5860a4cc508cd0818c85b8b8a1ab4ceeef8d981c8956a662000071640100000000620000c0810204565b505062000470565b3390565b620000d98282640100000000620000dd810204565b5050565b620000f282826401000000006200017b810204565b620000d9576000828152600a60209081526040808320600160a060020a03851684529091529020805460ff1916600117905562000137640100000000620000c0810204565b600160a060020a031681600160a060020a0316837f2f8788117e7eff1d82e926ec794901d17c78024a50270940304540a733656f0d60405160405180910390a45050565b6000918252600a60209081526040808420600160a060020a0393909316845291905290205460ff1690565b7f4e487b7100000000000000000000000000000000000000000000000000000000600052604160045260246000fd5b600082601f830112620001e757600080fd5b81516001604060020a0380821115620002045762000204620001a6565b604051601f8301601f19908116603f011681019082821181831017156200022f576200022f620001a6565b816040528381526020925086838588010111156200024c57600080fd5b600091505b8382101562000270578582018301518183018401529082019062000251565b83821115620002825760008385830101525b9695505050505050565b60008060408385031215620002a057600080fd5b82516001604060020a0380821115620002b857600080fd5b620002c686838701620001d5565b93506020850151915080821115620002dd57600080fd5b50620002ec85828601620001d5565b9150509250929050565b6002810460018216806200030b57607f821691505b60208210810362000345577f4e487b7100000000000000000000000000000000000000000000000000000000600052602260045260246000fd5b50919050565b601f82111562000399576000818152602081206020601f86010481016020861015620003745750805b6020601f860104820191505b81811015620003955782815560010162000380565b5050505b505050565b81516001604060020a03811115620003ba57620003ba620001a6565b620003d281620003cb8454620002f6565b846200034b565b602080601f8311600181146200040e5760008415620003f15750858301515b60028086026008870290910a600019041982161786555062000395565b600085815260208120601f198616915b828110156200043f578886015182559484019460019091019084016200041e565b50858210156200046057878501516008601f88160260020a60001904191681555b5050505050600202600101905550565b61262480620004806000396000f3fe608060405234801561001057600080fd5b50600436106101c6576000357c010000000000000000000000000000000000000000000000000000000090048063695850fb11610116578063a22cb465116100b4578063c87b56dd1161008e578063c87b56dd146103aa578063d5391393146103bd578063d547741f146103e4578063e985e9c5146103f757600080fd5b8063a22cb46514610371578063b88d4fde14610384578063c2ba47441461039757600080fd5b806370a08231116100f057806370a082311461033b57806391d148541461034e57806395d89b4114610361578063a217fddf1461036957600080fd5b8063695850fb146103025780636c6ad242146103155780636c8b703f1461032857600080fd5b8063248a9ca31161018357806336568abe1161015d57806336568abe146102b657806342842e0e146102c95780634f6ccce7146102dc5780636352211e146102ef57600080fd5b8063248a9ca31461026d5780632f2ff15d146102905780632f745c59146102a357600080fd5b806301ffc9a7146101cb57806306fdde03146101f3578063081812fc14610208578063095ea7b31461023357806318160ddd1461024857806323b872dd1461025a575b600080fd5b6101de6101d9366004611ebf565b610433565b60405190151581526020015b60405180910390f35b6101fb610444565b6040516101ea9190611f34565b61021b610216366004611f47565b6104d6565b604051600160a060020a0390911681526020016101ea565b610246610241366004611f7c565b610584565b005b6008545b6040519081526020016101ea565b610246610268366004611fa6565b6106bb565b61024c61027b366004611f47565b6000908152600a602052604090206001015490565b61024661029e366004611fe2565b6106ef565b61024c6102b1366004611f7c565b610714565b6102466102c4366004611fe2565b6107bf565b6102466102d7366004611fa6565b61084e565b61024c6102ea366004611f47565b610869565b61021b6102fd366004611f47565b610910565b61024c6103103660046120bd565b61099e565b61024c6103233660046120f2565b610b4d565b6101fb610336366004611f47565b610ced565b61024c610349366004612140565b610d99565b6101de61035c366004611fe2565b610e36565b6101fb610e61565b61024c600081565b61024661037f36600461215b565b610e70565b610246610392366004612197565b610e7b565b6101de6103a5366004612140565b610eb6565b6101fb6103b8366004611f47565b610ee2565b61024c7f9f2df0fed2c77648de5860a4cc508cd0818c85b8b8a1ab4ceeef8d981c8956a681565b6102466103f2366004611fe2565b611010565b6101de610405366004612213565b600160a060020a03918216600090815260056020908152604080832093909416825291909152205460ff1690565b600061043e82611035565b92915050565b6060600080546104539061223d565b80601f016020809104026020016040519081016040528092919081815260200182805461047f9061223d565b80156104cc5780601f106104a1576101008083540402835291602001916104cc565b820191906000526020600020905b8154815290600101906020018083116104af57829003601f168201915b5050505050905090565b600081815260026020526040812054600160a060020a03166105685760405160e560020a62461bcd02815260206004820152602c60248201527f4552433732313a20617070726f76656420717565727920666f72206e6f6e657860448201527f697374656e7420746f6b656e000000000000000000000000000000000000000060648201526084015b60405180910390fd5b50600090815260046020526040902054600160a060020a031690565b600061058f82610910565b905080600160a060020a031683600160a060020a03160361061b5760405160e560020a62461bcd02815260206004820152602160248201527f4552433732313a20617070726f76616c20746f2063757272656e74206f776e6560448201527f7200000000000000000000000000000000000000000000000000000000000000606482015260840161055f565b33600160a060020a038216148061063757506106378133610405565b6106ac5760405160e560020a62461bcd02815260206004820152603860248201527f4552433732313a20617070726f76652063616c6c6572206973206e6f74206f7760448201527f6e6572206e6f7220617070726f76656420666f7220616c6c0000000000000000606482015260840161055f565b6106b68383611073565b505050565b6106c533826110ee565b6106e45760405160e560020a62461bcd02815260040161055f9061227a565b6106b68383836111f9565b6000828152600a602052604090206001015461070a816113e4565b6106b683836113f1565b600061071f83610d99565b82106107965760405160e560020a62461bcd02815260206004820152602b60248201527f455243373231456e756d657261626c653a206f776e657220696e646578206f7560448201527f74206f6620626f756e6473000000000000000000000000000000000000000000606482015260840161055f565b50600160a060020a03919091166000908152600660209081526040808320938352929052205490565b600160a060020a03811633146108405760405160e560020a62461bcd02815260206004820152602f60248201527f416363657373436f6e74726f6c3a2063616e206f6e6c792072656e6f756e636560448201527f20726f6c657320666f722073656c660000000000000000000000000000000000606482015260840161055f565b61084a8282611477565b5050565b6106b683838360405180602001604052806000815250610e7b565b600061087460085490565b82106108eb5760405160e560020a62461bcd02815260206004820152602c60248201527f455243373231456e756d657261626c653a20676c6f62616c20696e646578206f60448201527f7574206f6620626f756e64730000000000000000000000000000000000000000606482015260840161055f565b600882815481106108fe576108fe6122d7565b90600052602060002001549050919050565b600081815260026020526040812054600160a060020a03168061043e5760405160e560020a62461bcd02815260206004820152602960248201527f4552433732313a206f776e657220717565727920666f72206e6f6e657869737460448201527f656e7420746f6b656e0000000000000000000000000000000000000000000000606482015260840161055f565b60006109ca7f9f2df0fed2c77648de5860a4cc508cd0818c85b8b8a1ab4ceeef8d981c8956a633610e36565b610a3f5760405160e560020a62461bcd02815260206004820152603d60248201527f4552433732315072657365744d696e7465725061757365724175746f49643a2060448201527f6d7573742068617665206d696e74657220726f6c6520746f206d696e74000000606482015260840161055f565b600c82604051610a4f91906122f0565b9081526040519081900360200190205460ff1615610ab25760405160e560020a62461bcd02815260206004820152601e60248201527f54686520746f6b656e205552492073686f756c6420626520756e697175650000604482015260640161055f565b600b80546001810182556000919091527f0175b7a638427703f0dbe7bb9bbf987a2551717b34e79f33b5b1008d1fa01db901610aee838261235a565b50600b546000818152600d60205260409020610b0a848261235a565b50610b1533826114de565b6001600c84604051610b2791906122f0565b908152604051908190036020019020805491151560ff1990921691909117905592915050565b6000610b598133610e36565b610bce5760405160e560020a62461bcd02815260206004820152603c60248201527f4552433732315072657365744d696e7465725061757365724175746f49643a2060448201527f6d75737420686176652061646d696e20726f6c6520746f206d696e7400000000606482015260840161055f565b600c82604051610bde91906122f0565b9081526040519081900360200190205460ff1615610c415760405160e560020a62461bcd02815260206004820152601e60248201527f54686520746f6b656e205552492073686f756c6420626520756e697175650000604482015260640161055f565b600b80546001810182556000919091527f0175b7a638427703f0dbe7bb9bbf987a2551717b34e79f33b5b1008d1fa01db901610c7d838261235a565b50600b546000818152600d60205260409020610c99848261235a565b50610ca484826114f8565b6001600c84604051610cb691906122f0565b908152604051908190036020019020805491151560ff19909216919091179055610ce6610ce03390565b82611073565b9392505050565b600b8181548110610cfd57600080fd5b906000526020600020016000915090508054610d189061223d565b80601f0160208091040260200160405190810160405280929190818152602001828054610d449061223d565b8015610d915780601f10610d6657610100808354040283529160200191610d91565b820191906000526020600020905b815481529060010190602001808311610d7457829003601f168201915b505050505081565b6000600160a060020a038216610e1a5760405160e560020a62461bcd02815260206004820152602a60248201527f4552433732313a2062616c616e636520717565727920666f7220746865207a6560448201527f726f206164647265737300000000000000000000000000000000000000000000606482015260840161055f565b50600160a060020a031660009081526003602052604090205490565b6000918252600a60209081526040808420600160a060020a0393909316845291905290205460ff1690565b6060600180546104539061223d565b61084a338383611659565b610e8533836110ee565b610ea45760405160e560020a62461bcd02815260040161055f9061227a565b610eb08484848461172a565b50505050565b600061043e7f9f2df0fed2c77648de5860a4cc508cd0818c85b8b8a1ab4ceeef8d981c8956a683610e36565b600081815260026020526040902054606090600160a060020a0316610f725760405160e560020a62461bcd02815260206004820152602f60248201527f4552433732314d657461646174613a2055524920717565727920666f72206e6f60448201527f6e6578697374656e7420746f6b656e0000000000000000000000000000000000606482015260840161055f565b6000828152600d602052604090208054610f8b9061223d565b80601f0160208091040260200160405190810160405280929190818152602001828054610fb79061223d565b80156110045780601f10610fd957610100808354040283529160200191611004565b820191906000526020600020905b815481529060010190602001808311610fe757829003601f168201915b50505050509050919050565b6000828152600a602052604090206001015461102b816113e4565b6106b68383611477565b6000600160e060020a031982167f7965db0b00000000000000000000000000000000000000000000000000000000148061043e575061043e82611760565b6000818152600460205260409020805473ffffffffffffffffffffffffffffffffffffffff1916600160a060020a03841690811790915581906110b582610910565b600160a060020a03167f8c5be1e5ebec7d5bd14f71427d1e84f3dd0314c0f7b2291e5b200ac8c7c3b92560405160405180910390a45050565b600081815260026020526040812054600160a060020a031661117b5760405160e560020a62461bcd02815260206004820152602c60248201527f4552433732313a206f70657261746f7220717565727920666f72206e6f6e657860448201527f697374656e7420746f6b656e0000000000000000000000000000000000000000606482015260840161055f565b600061118683610910565b905080600160a060020a031684600160a060020a031614806111cd5750600160a060020a0380821660009081526005602090815260408083209388168352929052205460ff165b806111f1575083600160a060020a03166111e6846104d6565b600160a060020a0316145b949350505050565b82600160a060020a031661120c82610910565b600160a060020a03161461128b5760405160e560020a62461bcd02815260206004820152602560248201527f4552433732313a207472616e736665722066726f6d20696e636f72726563742060448201527f6f776e6572000000000000000000000000000000000000000000000000000000606482015260840161055f565b600160a060020a0382166113095760405160e560020a62461bcd028152602060048201526024808201527f4552433732313a207472616e7366657220746f20746865207a65726f2061646460448201527f7265737300000000000000000000000000000000000000000000000000000000606482015260840161055f565b61131483838361179e565b61131f600082611073565b600160a060020a0383166000908152600360205260408120805460019290611348908490612439565b9091555050600160a060020a0382166000908152600360205260408120805460019290611376908490612450565b9091555050600081815260026020526040808220805473ffffffffffffffffffffffffffffffffffffffff1916600160a060020a0386811691821790925591518493918716917fddf252ad1be2c89b69c2b068fc378daa952ba7f163c4a11628f55a4df523b3ef91a4505050565b6113ee81336117a9565b50565b6113fb8282610e36565b61084a576000828152600a60209081526040808320600160a060020a03851684529091529020805460ff191660011790556114333390565b600160a060020a031681600160a060020a0316837f2f8788117e7eff1d82e926ec794901d17c78024a50270940304540a733656f0d60405160405180910390a45050565b6114818282610e36565b1561084a576000828152600a60209081526040808320600160a060020a0385168085529252808320805460ff1916905551339285917ff6391f5c32d9c69d2a47ea670b442974b53935d1edc7fd64eb21e047a839171b9190a45050565b61084a828260405180602001604052806000815250611810565b600160a060020a0382166115515760405160e560020a62461bcd02815260206004820181905260248201527f4552433732313a206d696e7420746f20746865207a65726f2061646472657373604482015260640161055f565b600081815260026020526040902054600160a060020a0316156115b95760405160e560020a62461bcd02815260206004820152601c60248201527f4552433732313a20746f6b656e20616c7265616479206d696e74656400000000604482015260640161055f565b6115c56000838361179e565b600160a060020a03821660009081526003602052604081208054600192906115ee908490612450565b9091555050600081815260026020526040808220805473ffffffffffffffffffffffffffffffffffffffff1916600160a060020a03861690811790915590518392907fddf252ad1be2c89b69c2b068fc378daa952ba7f163c4a11628f55a4df523b3ef908290a45050565b81600160a060020a031683600160a060020a0316036116bd5760405160e560020a62461bcd02815260206004820152601960248201527f4552433732313a20617070726f766520746f2063616c6c657200000000000000604482015260640161055f565b600160a060020a03838116600081815260056020908152604080832094871680845294825291829020805460ff191686151590811790915591519182527f17307eab39ab6107e8899845ad3d59bd9653f200f220920489ca2b5937696c31910160405180910390a3505050565b6117358484846111f9565b61174184848484611846565b610eb05760405160e560020a62461bcd02815260040161055f90612468565b6000600160e060020a031982167f780e9d6300000000000000000000000000000000000000000000000000000000148061043e575061043e8261197c565b6106b6838383611a17565b6117b38282610e36565b61084a576117cb81600160a060020a03166014611acf565b6117d6836020611acf565b6040516020016117e79291906124c5565b60408051601f198184030181529082905260e560020a62461bcd02825261055f91600401611f34565b61181a83836114f8565b6118276000848484611846565b6106b65760405160e560020a62461bcd02815260040161055f90612468565b6000600160a060020a0384163b15611971576040517f150b7a02000000000000000000000000000000000000000000000000000000008152600160a060020a0385169063150b7a02906118a3903390899088908890600401612546565b6020604051808303816000875af19250505080156118de575060408051601f3d908101601f191682019092526118db91810190612582565b60015b61193e573d80801561190c576040519150601f19603f3d011682016040523d82523d6000602084013e611911565b606091505b5080516000036119365760405160e560020a62461bcd02815260040161055f90612468565b805181602001fd5b600160e060020a0319167f150b7a02000000000000000000000000000000000000000000000000000000001490506111f1565b506001949350505050565b6000600160e060020a031982167f80ac58cd0000000000000000000000000000000000000000000000000000000014806119df5750600160e060020a031982167f5b5e139f00000000000000000000000000000000000000000000000000000000145b8061043e57507f01ffc9a700000000000000000000000000000000000000000000000000000000600160e060020a031983161461043e565b600160a060020a038316611a7257611a6d81600880546000838152600960205260408120829055600182018355919091527ff3f7a9fe364faab93b216da50a3214154f22a0a2b415b23a84c8169e8b636ee30155565b611a95565b81600160a060020a031683600160a060020a031614611a9557611a958382611d19565b600160a060020a038216611aac576106b681611db6565b82600160a060020a031682600160a060020a0316146106b6576106b68282611e65565b60606000611ade83600261259f565b611ae9906002612450565b67ffffffffffffffff811115611b0157611b0161200e565b6040519080825280601f01601f191660200182016040528015611b2b576020820181803683370190505b5090507f300000000000000000000000000000000000000000000000000000000000000081600081518110611b6257611b626122d7565b60200101907effffffffffffffffffffffffffffffffffffffffffffffffffffffffffffff1916908160001a9053507f780000000000000000000000000000000000000000000000000000000000000081600181518110611bc557611bc56122d7565b60200101907effffffffffffffffffffffffffffffffffffffffffffffffffffffffffffff1916908160001a9053506000611c0184600261259f565b611c0c906001612450565b90505b6001811115611cc7577f303132333435363738396162636465660000000000000000000000000000000085600f1660108110611c4d57611c4d6122d7565b1a7f010000000000000000000000000000000000000000000000000000000000000002828281518110611c8257611c826122d7565b60200101907effffffffffffffffffffffffffffffffffffffffffffffffffffffffffffff1916908160001a905350601090940493611cc0816125be565b9050611c0f565b508315610ce65760405160e560020a62461bcd02815260206004820181905260248201527f537472696e67733a20686578206c656e67746820696e73756666696369656e74604482015260640161055f565b60006001611d2684610d99565b611d309190612439565b600083815260076020526040902054909150808214611d8357600160a060020a03841660009081526006602090815260408083208584528252808320548484528184208190558352600790915290208190555b506000918252600760209081526040808420849055600160a060020a039094168352600681528383209183525290812055565b600854600090611dc890600190612439565b60008381526009602052604081205460088054939450909284908110611df057611df06122d7565b906000526020600020015490508060088381548110611e1157611e116122d7565b6000918252602080832090910192909255828152600990915260408082208490558582528120556008805480611e4957611e496125d5565b6001900381819060005260206000200160009055905550505050565b6000611e7083610d99565b600160a060020a039093166000908152600660209081526040808320868452825280832085905593825260079052919091209190915550565b600160e060020a0319811681146113ee57600080fd5b600060208284031215611ed157600080fd5b8135610ce681611ea9565b60005b83811015611ef7578181015183820152602001611edf565b83811115610eb05750506000910152565b60008151808452611f20816020860160208601611edc565b601f01601f19169290920160200192915050565b602081526000610ce66020830184611f08565b600060208284031215611f5957600080fd5b5035919050565b8035600160a060020a0381168114611f7757600080fd5b919050565b60008060408385031215611f8f57600080fd5b611f9883611f60565b946020939093013593505050565b600080600060608486031215611fbb57600080fd5b611fc484611f60565b9250611fd260208501611f60565b9150604084013590509250925092565b60008060408385031215611ff557600080fd5b8235915061200560208401611f60565b90509250929050565b60e060020a634e487b7102600052604160045260246000fd5b600067ffffffffffffffff808411156120425761204261200e565b604051601f8501601f19908116603f0116810190828211818310171561206a5761206a61200e565b8160405280935085815286868601111561208357600080fd5b858560208301376000602087830101525050509392505050565b600082601f8301126120ae57600080fd5b610ce683833560208501612027565b6000602082840312156120cf57600080fd5b813567ffffffffffffffff8111156120e657600080fd5b6111f18482850161209d565b6000806040838503121561210557600080fd5b61210e83611f60565b9150602083013567ffffffffffffffff81111561212a57600080fd5b6121368582860161209d565b9150509250929050565b60006020828403121561215257600080fd5b610ce682611f60565b6000806040838503121561216e57600080fd5b61217783611f60565b91506020830135801515811461218c57600080fd5b809150509250929050565b600080600080608085870312156121ad57600080fd5b6121b685611f60565b93506121c460208601611f60565b925060408501359150606085013567ffffffffffffffff8111156121e757600080fd5b8501601f810187136121f857600080fd5b61220787823560208401612027565b91505092959194509250565b6000806040838503121561222657600080fd5b61222f83611f60565b915061200560208401611f60565b60028104600182168061225157607f821691505b6020821081036122745760e060020a634e487b7102600052602260045260246000fd5b50919050565b60208082526031908201527f4552433732313a207472616e736665722063616c6c6572206973206e6f74206f60408201527f776e6572206e6f7220617070726f766564000000000000000000000000000000606082015260800190565b60e060020a634e487b7102600052603260045260246000fd5b60008251612302818460208701611edc565b9190910192915050565b601f8211156106b6576000818152602081206020601f860104810160208610156123335750805b6020601f860104820191505b818110156123525782815560010161233f565b505050505050565b815167ffffffffffffffff8111156123745761237461200e565b61238881612382845461223d565b8461230c565b602080601f8311600181146123c157600084156123a55750858301515b60028086026008870290910a6000190419821617865550612352565b600085815260208120601f198616915b828110156123f0578886015182559484019460019091019084016123d1565b508582101561241057878501516008601f88160260020a60001904191681555b5050505050600202600101905550565b60e060020a634e487b7102600052601160045260246000fd5b60008282101561244b5761244b612420565b500390565b6000821982111561246357612463612420565b500190565b60208082526032908201527f4552433732313a207472616e7366657220746f206e6f6e20455243373231526560408201527f63656976657220696d706c656d656e7465720000000000000000000000000000606082015260800190565b7f416363657373436f6e74726f6c3a206163636f756e74200000000000000000008152600083516124fd816017850160208801611edc565b7f206973206d697373696e6720726f6c6520000000000000000000000000000000601791840191820152835161253a816028840160208801611edc565b01602801949350505050565b6000600160a060020a038087168352808616602084015250836040830152608060608301526125786080830184611f08565b9695505050505050565b60006020828403121561259457600080fd5b8151610ce681611ea9565b60008160001904831182151516156125b9576125b9612420565b500290565b6000816125cd576125cd612420565b506000190190565b60e060020a634e487b7102600052603160045260246000fdfea26469706673582212209e0b78d6811f100eb99249a151de74f9ffcab753af0a8fd544d94ec3a17148b164736f6c634300080f0033a264697066735822122015bded5116fad9f82bb79a584b1b6795ecf75672b68ff32d946e790911b617fc64736f6c634300080f0033",
  "immutableReferences": {},
  "source": "// SPDX-License-Identifier: MIT\r\npragma solidity ^0.8.0;\r\n\r\n// import \"@openzeppelin/contracts/access/Ownable.sol\";\r\nimport '@openzeppelin/contracts/utils/math/SafeMath.sol';\r\nimport \"@openzeppelin/contracts/utils/Counters.sol\";\r\nimport '@openzeppelin/contracts/utils/structs/EnumerableMap.sol';\r\n// import '@openzeppelin/contracts/token/ERC721/IERC721.sol';\r\n\r\nimport './NFTCollection.sol';\r\n\r\ncontract MarketPlace {\r\n    // TODO : Add Access control\r\n    // TODO : Add option enableDirectOffer\r\n    // TODO : Add option enableAucion\r\n    // TODO : Add option enableBuyNow\r\n\r\n    using EnumerableMap for EnumerableMap.AddressToUintMap;\r\n    using Counters for Counters.Counter;\r\n    using SafeMath for uint256;\r\n\r\n    Counters.Counter private _collectionIds;\r\n    Counters.Counter private _auctionIds;\r\n    Counters.Counter private _directOfferIds;\r\n\r\n    bytes32 constant MINTER_ROLE = keccak256('MINTER_ROLE');\r\n\r\n    // Fees\r\n    uint256 constant FEE_SELL_PERCENTAGE = 3; // percentage of buy price\r\n\r\n    // Enums\r\n    // enum AuctionType {\r\n    //     FixedPrice, // buy it now only\r\n    //     Dutch, // (not used for now)\r\n    //     English // (not used for now)\r\n    // }\r\n\r\n    enum DirectOfferStatus {\r\n        Open, // 0: open for acceptance\r\n        Accepted, // 1: accepted by token owner\r\n        Finished, // 2: finished with buyer\r\n        Canceled // 3: canceled by seller\r\n    }\r\n\r\n    enum AuctionStatus {\r\n        // Approved, // ready for use\r\n        Running, // 0: in progress\r\n        Closed, // 1: closed with no buyer, need to revert funds\r\n        Finished, // 2: finished with buyer, need to revert funds\r\n        Canceled // 3: canceled by seller, need to revert funds\r\n    }\r\n\r\n    // Definitions\r\n    struct AuctionItem {\r\n        address ownerAddress; // TODO : Check if needed\r\n        address collectionAddress;\r\n        address highestBidderAddress;\r\n        uint256 highestBid;\r\n        uint256 auctionId; // auction Id, is generated\r\n        uint256 tokenId; // token Id, is given\r\n        uint256 buyItNowPrice; // buy now buyItNowPrice in case of type FixedPrice. Zero means - no buy now. Mandatory if Fixed price\r\n        uint256 reservedPrice; // buy out price below which the sell cannot happend (not used for now)\r\n        uint256 initialPrice; // starting auction price (not used for now)\r\n        //uint256 minBidStep; // minimum allowed bid step. Zero means - no min (not used for now)\r\n        //uint256 maxBidStep; // maximum allowed bid step. Zero means - no max (not used for now)\r\n        uint256 endTime; // end time in seconds\r\n        AuctionStatus auctionStatus;\r\n        //AuctionType auctionType;\r\n    }\r\n\r\n    struct CollectionItem {\r\n        uint256 collectionId; // TODO : Check if needed\r\n        address collectionAddress; // ERC721 token of the collection\r\n        address ownerAddress; // owner of the token\r\n        string metaURI; // like in ERC721 token URI\r\n    }\r\n    \r\n    // Only 1 valid offer per buyer\r\n    // Buyer can send many offers\r\n    // Seller can accept many offers\r\n    // On buy performed - invalidate all other direct offers\r\n    struct DirectOfferItem {\r\n        address ownerAddress; // owner of the token // TODO : Check if needed\r\n        address collectionAddress; // ERC721 token of the collection\r\n        address buyerAddress; // offer send from address\r\n        uint256 directOfferId; // TODO : Check if needed\r\n        uint256 tokenId;\r\n        uint256 offeredPrice;\r\n        DirectOfferStatus directOfferStatus;\r\n    }\r\n\t\r\n\tstruct DirectOfferGroupItem {\r\n\t\t// _buyerAddress => _directOfferId  \r\n        //uint256 length; //  TODO : Check\r\n\t\tEnumerableMap.AddressToUintMap buyerMap; // offer send from address\r\n\t}\r\n\t\r\n    // properties\r\n    // msg.sender => generated funds\r\n    mapping(address => uint256) public userFunds; // contains funds per user generated from sales. Bids will stored in other way\r\n\r\n    // -- Events\r\n    // emitted when an auction is craated\r\n    event onAuctionCreated(uint256 indexed auctionId, uint256 indexed tokenId);\r\n\r\n    // emitted when is cancelled by the seller\r\n    event onAuctionCancelled(uint256 indexed auctionId, uint256 indexed tokenId);\r\n\r\n    // emitted when the acution is finsied with succesfull purchase\r\n    event onAuctionFinished(uint256 indexed auctionId, uint256 indexed tokenId);\r\n\r\n    // emitted when an auction is closed with no buyer\r\n    event onAuctionClosed(uint256 indexed auctionId, uint256 indexed tokenId);\r\n\r\n    // enitted when an auction is bidded\r\n    event onAuctionBid(uint256 indexed auctionId, uint256 bid);\r\n\r\n    // emitted when an user claims his funds\r\n    event onFundsClaimed(address indexed user, uint256 amount);\r\n\r\n    // emitted when a collection is created\r\n    event onCollectionCreated(uint256 indexed collectionId, address indexed collectionAddress, address indexed ownerAddress);\r\n\r\n    // emitted when a direct offer is created\r\n    event onDirectOfferCreated(address indexed collectionAddress, uint256 indexed directOfferId, uint256 indexed tokenId);\r\n    // --\r\n\r\n    // auctionId => AuctionItem\r\n    mapping(uint256 => AuctionItem) auctionStore;\r\n\r\n    // directOfferId => DirectOfferItem\r\n    mapping(uint256 => DirectOfferItem) directOfferStore;\r\n\r\n    // collectionId => CollectionItem\r\n    mapping(uint256 => CollectionItem) collectionStore;\r\n\r\n    // uint256 public auctionCount = 0;\r\n    // uint256 public collectionCount = 0;\r\n\r\n    // ownerAddress => (collectionId => isOwner)\r\n    mapping(address => mapping(uint256 => bool)) usercollections;\r\n\r\n    // collectionAddress => auctionId[]\r\n    mapping(address => uint256[]) collectionToAcutions;\r\n\r\n    // _collectionAddress => (_tokenId => _auctionId)\r\n    mapping(address=> mapping(uint256 => uint256)) tokenAuctions;\r\n\r\n    // tokenDirectOffers[_collectionAddress][_tokenId][buyerAddress] = _directOfferId\r\n    // _collectionAddress => (_tokenId => (buyerAddress => _directOfferId))\r\n    //mapping(address => mapping(uint256 => mapping(address => uint256))) tokenDirectOffers;\r\n\r\n    // _collectionAddress => (_tokenId => DirectOfferGroupItem)\r\n    mapping(address => mapping(uint256 => DirectOfferGroupItem)) tokenDirectOffers;\r\n\r\n    // -- Modifiers\r\n    // --\r\n\r\n     constructor() public {\r\n     }\r\n\r\n     // -- Mint\r\n     // TODO : ask if this is good idea\r\n     function mint(address _collectionAddress, string memory _tokenURI) external {\r\n        NFTCollection nftCollection = NFTCollection(_collectionAddress);\r\n\r\n        uint256 _tokenId = nftCollection.externalMint(msg.sender, _tokenURI);\r\n     }\r\n     // --\r\n\r\n    // -- Collection management\r\n    function createCollection(string memory _name, string memory _symbol, string memory _metaURI) external returns (address) {\r\n        NFTCollection collectionContract = new NFTCollection(_name, _symbol);\r\n        // grant role\r\n        collectionContract.grantRole(MINTER_ROLE, msg.sender);\r\n        // approve creator by default\r\n        collectionContract.setApprovalForAll(msg.sender, true); // not applied for newly created tokens\r\n\r\n        address _collectionAddress = address(collectionContract);\r\n\r\n        _collectionIds.increment();\r\n        uint256 _collectionId = _collectionIds.current();\r\n        collectionStore[_collectionId] = CollectionItem(_collectionId, _collectionAddress, msg.sender, _metaURI);        \r\n\r\n        usercollections[msg.sender][_collectionId] = true;\r\n\r\n        emit onCollectionCreated(_collectionId, _collectionAddress, msg.sender);\r\n\r\n        return _collectionAddress;\r\n    }\r\n\r\n    function importCollection(address _collectionAddress, string memory _metaURI)external returns (address) {\r\n        // This method is not implemented\r\n        revert();\r\n        _collectionIds.increment();\r\n        uint256 _collectionId = _collectionIds.current();\r\n        collectionStore[_collectionId] = CollectionItem(_collectionId, _collectionAddress, msg.sender, _metaURI);        \r\n\r\n        usercollections[msg.sender][_collectionId] = true;\r\n\r\n        emit onCollectionCreated(_collectionId, _collectionAddress, msg.sender);\r\n\r\n        return _collectionAddress;\r\n    }\r\n\r\n    function getCollection(uint256 _collectionId) external view returns (CollectionItem memory) {\r\n        return collectionStore[_collectionId];\r\n    }\r\n\r\n    function getCollectionCount() external view returns(uint256) {\r\n        return _collectionIds.current();\r\n    }\r\n\t// --\r\n\r\n    // -- Auction Management\r\n    function createAuction(\r\n        address _collectionAddress,\r\n        uint256 _tokenId,\r\n        uint256 _initialPrice,\r\n        uint256 _reservedPrice,\r\n        uint256 _buyItNowPrice,\r\n        uint256 _durationDays\r\n    ) external {\r\n        // transfer token to the market (this)\r\n        NFTCollection nftCollection = NFTCollection(_collectionAddress);\r\n        // nftCollection.transferFrom(msg.sender, address(this), _tokenId); // TODO : use approve !!!\r\n\r\n        // _initialPrice or _buyItNowPrice should be above zero\r\n        //require(_initialPrice + _buyItNowPrice > 0, 'Token price cannot be zero');\r\n\r\n        // check token owner\r\n        require(msg.sender == nftCollection.ownerOf(_tokenId), 'Not token owner');\r\n\r\n        // check if MarketPlace is approved\r\n        require(address(this) == nftCollection.getApproved(_tokenId), 'MarketPlace is not approved');\r\n\r\n        // create auction twice\r\n        require(tokenAuctions[_collectionAddress][_tokenId] == 0, 'Auction for this token exists');\r\n\r\n        require(_durationDays > 0, 'Invalid duration');\r\n\r\n        // create auction\r\n        _auctionIds.increment();\r\n        uint256 _auctionId = _auctionIds.current();\r\n        auctionStore[_auctionId] = AuctionItem({\r\n            ownerAddress: msg.sender,\r\n            collectionAddress: _collectionAddress,\r\n            highestBidderAddress: address(0),\r\n            highestBid : 0,\r\n            auctionId: _auctionId,\r\n            tokenId: _tokenId,\r\n            buyItNowPrice: _buyItNowPrice,\r\n            reservedPrice: _reservedPrice,\r\n            initialPrice: _initialPrice,\r\n            //minBidStep: 0,\r\n            //maxBidStep: 0,\r\n            endTime: block.timestamp + (_durationDays * 1 days),\r\n            auctionStatus: AuctionStatus.Running\r\n            //auctionType: AuctionType.FixedPrice\r\n        });\r\n\r\n        collectionToAcutions[_collectionAddress].push(_auctionId);\r\n\r\n        tokenAuctions[_collectionAddress][_tokenId] = _auctionId;\r\n\r\n        // delete direct offer for specific token\r\n        delete tokenDirectOffers[_collectionAddress][_tokenId];\r\n\r\n        emit onAuctionCreated(_auctionId, _tokenId);\r\n    }\r\n\r\n    function getAuctionCount() external view returns(uint256) {\r\n        return _auctionIds.current();\r\n    }\r\n\r\n    function getCollectionAuctions(address collectionAddress) external view returns (uint256[] memory) {\r\n        return collectionToAcutions[collectionAddress];\r\n    }\r\n\r\n    function getAuction(uint256 _auctionId) public view returns (AuctionItem memory) {\r\n        AuctionItem memory _auction = auctionStore[_auctionId];\r\n\r\n        require(_auction.auctionId == _auctionId, 'Auction does not exists');        \r\n\r\n        return _auction;\r\n    }\r\n\r\n    function getAuctionBy(address _collectionAddress, uint256 _tokenId) external view returns (AuctionItem memory) {\r\n        uint256 _auctionId = tokenAuctions[_collectionAddress][_tokenId];\r\n\r\n        return getAuction(_auctionId);\r\n    }\r\n\r\n    // buy it now - handle user funds?\r\n    function buyNowAuction(uint256 _auctionId) external payable {\r\n        AuctionItem storage _auction = auctionStore[_auctionId];\r\n\r\n        require(_auction.auctionId == _auctionId, 'Auction does not exists');\r\n        \r\n        _checkAuction(_auction);\r\n\r\n        require(_auction.ownerAddress != msg.sender, 'Auction owner cannot buy it');\r\n        require(_auction.auctionStatus == AuctionStatus.Running, 'Auction is not running');\r\n        require(_auction.buyItNowPrice > 0, 'Buy now is not allowed');\r\n\r\n        require(msg.value == _auction.buyItNowPrice, 'Buy now price is greater');\r\n\r\n        NFTCollection nftCollection = NFTCollection(_auction.collectionAddress);\r\n\r\n        // transfer from MarketPalce as approved\r\n        nftCollection.transferFrom(_auction.ownerAddress, msg.sender, _auction.tokenId);\r\n\r\n        _auction.auctionStatus = AuctionStatus.Finished;\r\n\r\n        uint256 fee = msg.value.mul(FEE_SELL_PERCENTAGE).div(100);\r\n        uint256 userFund = msg.value.sub(fee);\r\n        userFunds[_auction.ownerAddress] = userFunds[_auction.ownerAddress].add(userFund);\r\n\r\n        delete tokenAuctions[_auction.collectionAddress][_auction.tokenId]; // reset\r\n\r\n        // TODO : Handle bids\r\n        // TODO : Handle direct offers\r\n\r\n        emit onAuctionFinished(_auctionId, _auction.tokenId);\r\n    }\r\n\r\n    // cancel auction (auction owner) - handle user funds?\r\n    function cancelAuction(uint256 _auctionId) external {\r\n        AuctionItem storage _auction = auctionStore[_auctionId];\r\n\r\n        require(_auction.auctionId == _auctionId, 'Auction does not exists');\r\n\r\n        _checkAuction(_auction);\r\n\r\n        require(_auction.ownerAddress == msg.sender, 'Only auction owner can cancel');\r\n        require(_auction.auctionStatus == AuctionStatus.Running, 'Auction is not running');\r\n\r\n        //NFTCollection nftCollection = NFTCollection(_auction.collectionAddress);\r\n        //nftCollection.transferFrom(address(this), msg.sender, _auction.tokenId);\r\n        _auction.auctionStatus = AuctionStatus.Canceled;\r\n\r\n        delete tokenAuctions[_auction.collectionAddress][_auction.tokenId]; // reset\r\n\r\n        // return prev bid\r\n        // send _auction.highestBid to _auction.highestBidderAddress\r\n        if(_auction.highestBid > 0 && _auction.highestBidderAddress != address(0)) {\r\n            userFunds[_auction.highestBidderAddress] = userFunds[_auction.highestBidderAddress].add(_auction.highestBid);\r\n        }\r\n\r\n        emit onAuctionCancelled(_auctionId, _auction.tokenId);\r\n    }\r\n\r\n    // --\r\n\r\n    // -- Auction handling\r\n    function checkAuction(uint256 _auctionId) external {\r\n        AuctionItem storage _auction = auctionStore[_auctionId];\r\n\r\n        require(_auction.auctionId == _auctionId, 'Auction does not exists');\r\n\r\n        _checkAuction(_auction);\r\n    }\r\n    // --\r\n\r\n    // -- Auction actions\r\n    // bid - handle user funds?\r\n    function bid(uint256 _auctionId) external payable {\r\n        AuctionItem storage _auction = auctionStore[_auctionId];\r\n\r\n        require(_auction.auctionId == _auctionId, 'Auction does not exists');\r\n\r\n        _checkAuction(_auction);\r\n\r\n        require(_auction.ownerAddress != msg.sender, 'Auction owner cannot bid');\r\n        require(_auction.highestBidderAddress != msg.sender, 'Already highest bidder');\r\n        require(_auction.auctionStatus == AuctionStatus.Running, 'Auction is not running');\r\n        require(msg.value > _auction.highestBid , 'Bid most be bigger');\r\n\r\n        // return prev bid\r\n        // send _auction.highestBid to _auction.highestBidderAddress\r\n        if(_auction.highestBid > 0 && _auction.highestBidderAddress != address(0)) {\r\n            userFunds[_auction.highestBidderAddress] = userFunds[_auction.highestBidderAddress].add(_auction.highestBid);\r\n        }\r\n\r\n        // load new bid\r\n        _auction.highestBid = msg.value;\r\n        _auction.highestBidderAddress = msg.sender;\r\n\r\n        emit onAuctionBid(_auctionId, msg.value);\r\n    }\r\n\r\n    // TODO : Ask how to execute over time or how to set gas storage to execute internaly\r\n    function _checkAuction(AuctionItem storage _auction) private {\r\n        // check timestamp\r\n\r\n        if(_auction.auctionStatus == AuctionStatus.Running) {\r\n            bool ended = _auction.endTime <= block.timestamp;\r\n\r\n            if(ended) {\r\n                NFTCollection nftCollection = NFTCollection(_auction.collectionAddress);\r\n\r\n                if(_auction.highestBid > _auction.initialPrice && _auction.highestBid > _auction.reservedPrice) {\r\n                    _auction.auctionStatus = AuctionStatus.Finished;\r\n\r\n                    // peform transfer\r\n                    uint256 fee = _auction.highestBid.mul(FEE_SELL_PERCENTAGE).div(100);\r\n                    uint256 userFund = _auction.highestBid.sub(fee);\r\n                    userFunds[_auction.ownerAddress] = userFunds[_auction.ownerAddress].add(userFund);\r\n\r\n                    // transfer from MarketPalce as approved\r\n                    nftCollection.transferFrom(_auction.ownerAddress, msg.sender, _auction.tokenId);\r\n                }\r\n                else {\r\n                    _auction.auctionStatus = AuctionStatus.Closed;\r\n\r\n                    // return money\r\n                    if(_auction.highestBid > 0 && _auction.highestBidderAddress != address(0)) {\r\n                        userFunds[_auction.highestBidderAddress] = userFunds[_auction.highestBidderAddress].add(_auction.highestBid);\r\n                    }\r\n                }            \r\n            }\r\n        }        \r\n    }\r\n\r\n    // --\r\n\r\n    // -- Direct offers\r\n    function createDirectOffer(address _collectionAddress, uint256 _tokenId, uint256 _offeredPrice) external {\r\n        NFTCollection nftCollection = NFTCollection(_collectionAddress);\r\n\r\n        address _ownerAddress = nftCollection.ownerOf(_tokenId);\r\n\r\n        // requrie not own token\r\n        require(msg.sender != _ownerAddress, 'Already token owner');\r\n\r\n        require(_ownerAddress != address(0), 'Token without owner');\r\n\r\n        // _offeredPrice should be above zero\r\n        require(_offeredPrice > 0, 'Offered price cannot be zero');\r\n\r\n        // require no active auction\r\n        require(tokenAuctions[_collectionAddress][_tokenId] == 0, 'Auction for this token exists');\r\n\r\n        // create direct offer\r\n        _directOfferIds.increment();\r\n        uint256 _directOfferId = _directOfferIds.current();\r\n        directOfferStore[_directOfferId] = DirectOfferItem({\r\n            ownerAddress : _ownerAddress,\r\n            collectionAddress: _collectionAddress,\r\n            buyerAddress: msg.sender,\r\n            directOfferId: _directOfferId,\r\n            tokenId: _tokenId, \r\n            offeredPrice: _offeredPrice,\r\n            directOfferStatus: DirectOfferStatus.Open\r\n        });\r\n\r\n        // tokenDirectOffers[_collectionAddress][_tokenId].buyerMap[msg.sender] = _directOfferId;\r\n        tokenDirectOffers[_collectionAddress][_tokenId].buyerMap.set(msg.sender, _directOfferId);\r\n\r\n        emit onDirectOfferCreated(_collectionAddress, _directOfferId, _tokenId);\r\n    }\r\n\r\n    function getDirectOfferCount() external view returns(uint256) {\r\n        return _directOfferIds.current();\r\n    }\r\n\r\n\tfunction getDirectOffer(uint256 _directOfferId) public view returns (DirectOfferItem memory) {\r\n        DirectOfferItem memory _directOffer = directOfferStore[_directOfferId];\r\n\r\n        require(_directOffer.directOfferId == _directOfferId, 'DirectOffer does not exists');\r\n\r\n        // visible only for buyer or seller\r\n        require(_directOffer.ownerAddress == msg.sender || _directOffer.buyerAddress == msg.sender, 'Only seller or buyer');\r\n\r\n        return _directOffer;\r\n    }\r\n\r\n     function getDirectOffers(address _collectionAddress, uint256 _tokenId) external view returns(DirectOfferItem[] memory) {\r\n       uint256 length = tokenDirectOffers[_collectionAddress][_tokenId].buyerMap.length();\r\n\r\n        DirectOfferItem[] memory result = new DirectOfferItem[](length);\r\n\r\n        for (uint256 i = 0; i < length; i++) {\r\n            (address _ownerAddress, uint256 _directOfferId) = tokenDirectOffers[_collectionAddress][_tokenId].buyerMap.at(i);\r\n\r\n            // visible only for buyer or seller\r\n            result[i] = getDirectOffer(_directOfferId);\r\n        }\r\n\r\n       return result;\r\n     }\r\n\r\n     function getDirectOfferBy(address _buyerAddress, address _collectionAddress, uint256 _tokenId) external view returns(DirectOfferItem memory) {\r\n        uint256 _directOfferId = tokenDirectOffers[_collectionAddress][_tokenId].buyerMap.get(_buyerAddress);\r\n\r\n        // visible only for buyer or seller\r\n        return getDirectOffer(_directOfferId);\r\n     }\r\n\r\n    // function getDirectOffers(address _collectionAddress, uint256 _tokenId) external view returns(DirectOfferItem[] memory) {\r\n    //     // TODO : Ask how to get list of DirectOfferItems\r\n    //     uint256 length = tokenDirectOffers[_collectionAddress][_tokenId].length;\r\n\r\n    //     if (length > 0) {\r\n    //         for (uint256 i = 0; i < length; i++) {\r\n                \r\n    //         }            \r\n    //     } \r\n    // }\r\n\r\n    function cancelDirectOffer(uint256 _directOfferId) external {\r\n        DirectOfferItem storage _directOffer = directOfferStore[_directOfferId];\r\n\r\n        require(_directOffer.directOfferId == _directOfferId, 'Offer does not exists');\r\n        require(_directOffer.buyerAddress == msg.sender, 'Only offer bayer can cancel');\r\n        require(_directOffer.directOfferStatus == DirectOfferStatus.Open, 'Offer is not open');\r\n\r\n        _directOffer.directOfferStatus = DirectOfferStatus.Canceled;\r\n\r\n        // remove direct offer by buyer\r\n        tokenDirectOffers[_directOffer.collectionAddress][_directOffer.tokenId].buyerMap.remove(msg.sender);\r\n    }\r\n    function acceptDirectOffer(uint256 _directOfferId) external {\r\n        DirectOfferItem storage _directOffer = directOfferStore[_directOfferId];\r\n\r\n        require(_directOffer.directOfferId == _directOfferId, 'Offer does not exists');\r\n        require(_directOffer.directOfferStatus == DirectOfferStatus.Open, 'Offer is not open');\r\n\r\n        NFTCollection nftCollection = NFTCollection(_directOffer.collectionAddress);\r\n        require(msg.sender == nftCollection.ownerOf(_directOffer.tokenId), 'Not token owner');\r\n        \r\n        // check if MarketPlace is approved\r\n        require(address(this) == nftCollection.getApproved(_directOffer.tokenId), 'MarketPlace is not approved');\r\n\r\n        _directOffer.directOfferStatus = DirectOfferStatus.Accepted;\r\n    }\r\n\r\n    function fulfillDirectOffer(uint256 _directOfferId) external payable {\r\n        DirectOfferItem storage _directOffer = directOfferStore[_directOfferId];\r\n\r\n        require(_directOffer.directOfferId == _directOfferId, 'Offer does not exists');\r\n        require(_directOffer.directOfferStatus == DirectOfferStatus.Accepted, 'Offer is not open');\r\n        require(_directOffer.buyerAddress == msg.sender, 'Only offer bayer can fullfill');\r\n        require(msg.value == _directOffer.offeredPrice, 'Offered price is incorrect');\r\n\r\n        NFTCollection nftCollection = NFTCollection(_directOffer.collectionAddress);\r\n\r\n        // transfer from MarketPalce as buyer\r\n        nftCollection.transferFrom(_directOffer.ownerAddress, _directOffer.buyerAddress, _directOffer.tokenId);\r\n\r\n        _directOffer.directOfferStatus = DirectOfferStatus.Finished;\r\n\r\n        uint256 fee = msg.value.mul(FEE_SELL_PERCENTAGE).div(100);\r\n        uint256 userFund = msg.value.sub(fee);\r\n        userFunds[_directOffer.ownerAddress] = userFunds[_directOffer.ownerAddress].add(userFund);\r\n\r\n        // delete direct offer for specific token\r\n        delete tokenDirectOffers[_directOffer.collectionAddress][_directOffer.tokenId];\r\n    }\r\n    // --\r\n\r\n    function claimFunds() external {\r\n        require(userFunds[msg.sender] > 0, 'This user has no funds to be claimed');\r\n\r\n        uint256 fundsToClaim = userFunds[msg.sender];\r\n        userFunds[msg.sender] = 0;\r\n        payable(msg.sender).transfer(fundsToClaim);\r\n\r\n        emit onFundsClaimed(msg.sender, fundsToClaim);\r\n    }\r\n\r\n    // Fallback: reverts if Ether is sent to this smart-contract by mistake\r\n    fallback() external {\r\n        revert();\r\n    }\r\n}\r\n",
  "sourcePath": "C:\\github\\trayanm\\TTMMarket\\src\\contracts\\MarketPlace.sol",
  "compiler": {
    "name": "solc",
    "version": "0.8.15+commit.e14f2714.Emscripten.clang"
  },
  "schemaVersion": "3.4.7",
  "updatedAt": "2022-06-26T20:02:05.935Z",
  "networkType": "ethereum",
  "devdoc": {
    "kind": "dev",
    "methods": {},
    "version": 1
  },
  "userdoc": {
    "kind": "user",
    "methods": {},
    "version": 1
  }
}