{
  "contractName": "NFTCollection",
  "abi": [
    {
      "inputs": [
        {
          "internalType": "string",
          "name": "_name",
          "type": "string"
        },
        {
          "internalType": "string",
          "name": "_symbol",
          "type": "string"
        }
      ],
      "stateMutability": "nonpayable",
      "type": "constructor"
    },
    {
      "anonymous": false,
      "inputs": [
        {
          "indexed": true,
          "internalType": "address",
          "name": "owner",
          "type": "address"
        },
        {
          "indexed": true,
          "internalType": "address",
          "name": "approved",
          "type": "address"
        },
        {
          "indexed": true,
          "internalType": "uint256",
          "name": "tokenId",
          "type": "uint256"
        }
      ],
      "name": "Approval",
      "type": "event"
    },
    {
      "anonymous": false,
      "inputs": [
        {
          "indexed": true,
          "internalType": "address",
          "name": "owner",
          "type": "address"
        },
        {
          "indexed": true,
          "internalType": "address",
          "name": "operator",
          "type": "address"
        },
        {
          "indexed": false,
          "internalType": "bool",
          "name": "approved",
          "type": "bool"
        }
      ],
      "name": "ApprovalForAll",
      "type": "event"
    },
    {
      "anonymous": false,
      "inputs": [
        {
          "indexed": true,
          "internalType": "bytes32",
          "name": "role",
          "type": "bytes32"
        },
        {
          "indexed": true,
          "internalType": "bytes32",
          "name": "previousAdminRole",
          "type": "bytes32"
        },
        {
          "indexed": true,
          "internalType": "bytes32",
          "name": "newAdminRole",
          "type": "bytes32"
        }
      ],
      "name": "RoleAdminChanged",
      "type": "event"
    },
    {
      "anonymous": false,
      "inputs": [
        {
          "indexed": true,
          "internalType": "bytes32",
          "name": "role",
          "type": "bytes32"
        },
        {
          "indexed": true,
          "internalType": "address",
          "name": "account",
          "type": "address"
        },
        {
          "indexed": true,
          "internalType": "address",
          "name": "sender",
          "type": "address"
        }
      ],
      "name": "RoleGranted",
      "type": "event"
    },
    {
      "anonymous": false,
      "inputs": [
        {
          "indexed": true,
          "internalType": "bytes32",
          "name": "role",
          "type": "bytes32"
        },
        {
          "indexed": true,
          "internalType": "address",
          "name": "account",
          "type": "address"
        },
        {
          "indexed": true,
          "internalType": "address",
          "name": "sender",
          "type": "address"
        }
      ],
      "name": "RoleRevoked",
      "type": "event"
    },
    {
      "anonymous": false,
      "inputs": [
        {
          "indexed": true,
          "internalType": "address",
          "name": "from",
          "type": "address"
        },
        {
          "indexed": true,
          "internalType": "address",
          "name": "to",
          "type": "address"
        },
        {
          "indexed": true,
          "internalType": "uint256",
          "name": "tokenId",
          "type": "uint256"
        }
      ],
      "name": "Transfer",
      "type": "event"
    },
    {
      "inputs": [],
      "name": "DEFAULT_ADMIN_ROLE",
      "outputs": [
        {
          "internalType": "bytes32",
          "name": "",
          "type": "bytes32"
        }
      ],
      "stateMutability": "view",
      "type": "function"
    },
    {
      "inputs": [],
      "name": "MINTER_ROLE",
      "outputs": [
        {
          "internalType": "bytes32",
          "name": "",
          "type": "bytes32"
        }
      ],
      "stateMutability": "view",
      "type": "function"
    },
    {
      "inputs": [
        {
          "internalType": "address",
          "name": "to",
          "type": "address"
        },
        {
          "internalType": "uint256",
          "name": "tokenId",
          "type": "uint256"
        }
      ],
      "name": "approve",
      "outputs": [],
      "stateMutability": "nonpayable",
      "type": "function"
    },
    {
      "inputs": [
        {
          "internalType": "address",
          "name": "owner",
          "type": "address"
        }
      ],
      "name": "balanceOf",
      "outputs": [
        {
          "internalType": "uint256",
          "name": "",
          "type": "uint256"
        }
      ],
      "stateMutability": "view",
      "type": "function"
    },
    {
      "inputs": [
        {
          "internalType": "uint256",
          "name": "tokenId",
          "type": "uint256"
        }
      ],
      "name": "getApproved",
      "outputs": [
        {
          "internalType": "address",
          "name": "",
          "type": "address"
        }
      ],
      "stateMutability": "view",
      "type": "function"
    },
    {
      "inputs": [
        {
          "internalType": "bytes32",
          "name": "role",
          "type": "bytes32"
        }
      ],
      "name": "getRoleAdmin",
      "outputs": [
        {
          "internalType": "bytes32",
          "name": "",
          "type": "bytes32"
        }
      ],
      "stateMutability": "view",
      "type": "function"
    },
    {
      "inputs": [
        {
          "internalType": "bytes32",
          "name": "role",
          "type": "bytes32"
        },
        {
          "internalType": "address",
          "name": "account",
          "type": "address"
        }
      ],
      "name": "grantRole",
      "outputs": [],
      "stateMutability": "nonpayable",
      "type": "function"
    },
    {
      "inputs": [
        {
          "internalType": "bytes32",
          "name": "role",
          "type": "bytes32"
        },
        {
          "internalType": "address",
          "name": "account",
          "type": "address"
        }
      ],
      "name": "hasRole",
      "outputs": [
        {
          "internalType": "bool",
          "name": "",
          "type": "bool"
        }
      ],
      "stateMutability": "view",
      "type": "function"
    },
    {
      "inputs": [
        {
          "internalType": "address",
          "name": "owner",
          "type": "address"
        },
        {
          "internalType": "address",
          "name": "operator",
          "type": "address"
        }
      ],
      "name": "isApprovedForAll",
      "outputs": [
        {
          "internalType": "bool",
          "name": "",
          "type": "bool"
        }
      ],
      "stateMutability": "view",
      "type": "function"
    },
    {
      "inputs": [],
      "name": "name",
      "outputs": [
        {
          "internalType": "string",
          "name": "",
          "type": "string"
        }
      ],
      "stateMutability": "view",
      "type": "function"
    },
    {
      "inputs": [
        {
          "internalType": "uint256",
          "name": "tokenId",
          "type": "uint256"
        }
      ],
      "name": "ownerOf",
      "outputs": [
        {
          "internalType": "address",
          "name": "",
          "type": "address"
        }
      ],
      "stateMutability": "view",
      "type": "function"
    },
    {
      "inputs": [
        {
          "internalType": "bytes32",
          "name": "role",
          "type": "bytes32"
        },
        {
          "internalType": "address",
          "name": "account",
          "type": "address"
        }
      ],
      "name": "renounceRole",
      "outputs": [],
      "stateMutability": "nonpayable",
      "type": "function"
    },
    {
      "inputs": [
        {
          "internalType": "bytes32",
          "name": "role",
          "type": "bytes32"
        },
        {
          "internalType": "address",
          "name": "account",
          "type": "address"
        }
      ],
      "name": "revokeRole",
      "outputs": [],
      "stateMutability": "nonpayable",
      "type": "function"
    },
    {
      "inputs": [
        {
          "internalType": "address",
          "name": "from",
          "type": "address"
        },
        {
          "internalType": "address",
          "name": "to",
          "type": "address"
        },
        {
          "internalType": "uint256",
          "name": "tokenId",
          "type": "uint256"
        }
      ],
      "name": "safeTransferFrom",
      "outputs": [],
      "stateMutability": "nonpayable",
      "type": "function"
    },
    {
      "inputs": [
        {
          "internalType": "address",
          "name": "from",
          "type": "address"
        },
        {
          "internalType": "address",
          "name": "to",
          "type": "address"
        },
        {
          "internalType": "uint256",
          "name": "tokenId",
          "type": "uint256"
        },
        {
          "internalType": "bytes",
          "name": "_data",
          "type": "bytes"
        }
      ],
      "name": "safeTransferFrom",
      "outputs": [],
      "stateMutability": "nonpayable",
      "type": "function"
    },
    {
      "inputs": [
        {
          "internalType": "address",
          "name": "operator",
          "type": "address"
        },
        {
          "internalType": "bool",
          "name": "approved",
          "type": "bool"
        }
      ],
      "name": "setApprovalForAll",
      "outputs": [],
      "stateMutability": "nonpayable",
      "type": "function"
    },
    {
      "inputs": [],
      "name": "symbol",
      "outputs": [
        {
          "internalType": "string",
          "name": "",
          "type": "string"
        }
      ],
      "stateMutability": "view",
      "type": "function"
    },
    {
      "inputs": [
        {
          "internalType": "uint256",
          "name": "index",
          "type": "uint256"
        }
      ],
      "name": "tokenByIndex",
      "outputs": [
        {
          "internalType": "uint256",
          "name": "",
          "type": "uint256"
        }
      ],
      "stateMutability": "view",
      "type": "function"
    },
    {
      "inputs": [
        {
          "internalType": "address",
          "name": "owner",
          "type": "address"
        },
        {
          "internalType": "uint256",
          "name": "index",
          "type": "uint256"
        }
      ],
      "name": "tokenOfOwnerByIndex",
      "outputs": [
        {
          "internalType": "uint256",
          "name": "",
          "type": "uint256"
        }
      ],
      "stateMutability": "view",
      "type": "function"
    },
    {
      "inputs": [
        {
          "internalType": "uint256",
          "name": "",
          "type": "uint256"
        }
      ],
      "name": "tokenURIs",
      "outputs": [
        {
          "internalType": "string",
          "name": "",
          "type": "string"
        }
      ],
      "stateMutability": "view",
      "type": "function"
    },
    {
      "inputs": [],
      "name": "totalSupply",
      "outputs": [
        {
          "internalType": "uint256",
          "name": "",
          "type": "uint256"
        }
      ],
      "stateMutability": "view",
      "type": "function"
    },
    {
      "inputs": [
        {
          "internalType": "address",
          "name": "from",
          "type": "address"
        },
        {
          "internalType": "address",
          "name": "to",
          "type": "address"
        },
        {
          "internalType": "uint256",
          "name": "tokenId",
          "type": "uint256"
        }
      ],
      "name": "transferFrom",
      "outputs": [],
      "stateMutability": "nonpayable",
      "type": "function"
    },
    {
      "inputs": [
        {
          "internalType": "address",
          "name": "_address",
          "type": "address"
        }
      ],
      "name": "canMint",
      "outputs": [
        {
          "internalType": "bool",
          "name": "",
          "type": "bool"
        }
      ],
      "stateMutability": "view",
      "type": "function"
    },
    {
      "inputs": [
        {
          "internalType": "bytes4",
          "name": "interfaceId",
          "type": "bytes4"
        }
      ],
      "name": "supportsInterface",
      "outputs": [
        {
          "internalType": "bool",
          "name": "",
          "type": "bool"
        }
      ],
      "stateMutability": "view",
      "type": "function"
    },
    {
      "inputs": [
        {
          "internalType": "uint256",
          "name": "tokenId",
          "type": "uint256"
        }
      ],
      "name": "tokenURI",
      "outputs": [
        {
          "internalType": "string",
          "name": "",
          "type": "string"
        }
      ],
      "stateMutability": "view",
      "type": "function"
    },
    {
      "inputs": [
        {
          "internalType": "string",
          "name": "_tokenURI",
          "type": "string"
        }
      ],
      "name": "safeMint",
      "outputs": [
        {
          "internalType": "uint256",
          "name": "",
          "type": "uint256"
        }
      ],
      "stateMutability": "nonpayable",
      "type": "function"
    },
    {
      "inputs": [
        {
          "internalType": "address",
          "name": "owner",
          "type": "address"
        },
        {
          "internalType": "string",
          "name": "_tokenURI",
          "type": "string"
        }
      ],
      "name": "externalMint",
      "outputs": [
        {
          "internalType": "uint256",
          "name": "",
          "type": "uint256"
        }
      ],
      "stateMutability": "nonpayable",
      "type": "function"
    }
  ],
  "bytecode": "0x60806040523480156200001157600080fd5b50604051620028133803806200281383398101604081905262000034916200028c565b818160006200004483826200039e565b5060016200005382826200039e565b506200008091506000905062000071640100000000620000c0810204565b640100000000620000c4810204565b620000b87f9f2df0fed2c77648de5860a4cc508cd0818c85b8b8a1ab4ceeef8d981c8956a662000071640100000000620000c0810204565b505062000470565b3390565b620000d98282640100000000620000dd810204565b5050565b620000f282826401000000006200017b810204565b620000d9576000828152600a60209081526040808320600160a060020a03851684529091529020805460ff1916600117905562000137640100000000620000c0810204565b600160a060020a031681600160a060020a0316837f2f8788117e7eff1d82e926ec794901d17c78024a50270940304540a733656f0d60405160405180910390a45050565b6000918252600a60209081526040808420600160a060020a0393909316845291905290205460ff1690565b7f4e487b7100000000000000000000000000000000000000000000000000000000600052604160045260246000fd5b600082601f830112620001e757600080fd5b81516001604060020a0380821115620002045762000204620001a6565b604051601f8301601f19908116603f011681019082821181831017156200022f576200022f620001a6565b816040528381526020925086838588010111156200024c57600080fd5b600091505b8382101562000270578582018301518183018401529082019062000251565b83821115620002825760008385830101525b9695505050505050565b60008060408385031215620002a057600080fd5b82516001604060020a0380821115620002b857600080fd5b620002c686838701620001d5565b93506020850151915080821115620002dd57600080fd5b50620002ec85828601620001d5565b9150509250929050565b6002810460018216806200030b57607f821691505b60208210810362000345577f4e487b7100000000000000000000000000000000000000000000000000000000600052602260045260246000fd5b50919050565b601f82111562000399576000818152602081206020601f86010481016020861015620003745750805b6020601f860104820191505b81811015620003955782815560010162000380565b5050505b505050565b81516001604060020a03811115620003ba57620003ba620001a6565b620003d281620003cb8454620002f6565b846200034b565b602080601f8311600181146200040e5760008415620003f15750858301515b60028086026008870290910a600019041982161786555062000395565b600085815260208120601f198616915b828110156200043f578886015182559484019460019091019084016200041e565b50858210156200046057878501516008601f88160260020a60001904191681555b5050505050600202600101905550565b61239380620004806000396000f3fe608060405234801561001057600080fd5b506004361061015d5760003560e060020a90048063695850fb116100cd578063695850fb146102995780636c6ad242146102ac5780636c8b703f146102bf57806370a08231146102d257806391d14854146102e557806395d89b41146102f8578063a217fddf14610300578063a22cb46514610308578063b88d4fde1461031b578063c2ba47441461032e578063c87b56dd14610341578063d539139314610354578063d547741f14610369578063e985e9c51461037c57600080fd5b806301ffc9a71461016257806306fdde031461018a578063081812fc1461019f578063095ea7b3146101ca57806318160ddd146101df57806323b872dd146101f1578063248a9ca3146102045780632f2ff15d146102275780632f745c591461023a57806336568abe1461024d57806342842e0e146102605780634f6ccce7146102735780636352211e14610286575b600080fd5b610175610170366004611bd2565b61038f565b60405190151581526020015b60405180910390f35b6101926103a0565b6040516101819190611c47565b6101b26101ad366004611c5a565b610432565b604051600160a060020a039091168152602001610181565b6101dd6101d8366004611c8f565b6104c5565b005b6008545b604051908152602001610181565b6101dd6101ff366004611cb9565b6105e3565b6101e3610212366004611c5a565b6000908152600a602052604090206001015490565b6101dd610235366004611cf5565b610617565b6101e3610248366004611c8f565b61063c565b6101dd61025b366004611cf5565b6106e7565b6101dd61026e366004611cb9565b610776565b6101e3610281366004611c5a565b610791565b6101b2610294366004611c5a565b610838565b6101e36102a7366004611dd1565b6108c6565b6101e36102ba366004611e06565b610a33565b6101926102cd366004611c5a565b610ba3565b6101e36102e0366004611e54565b610c4f565b6101756102f3366004611cf5565b610cec565b610192610d17565b6101e3600081565b6101dd610316366004611e6f565b610d26565b6101dd610329366004611eab565b610d31565b61017561033c366004611e54565b610d6c565b61019261034f366004611c5a565b610d86565b6101e360008051602061233e83398151915281565b6101dd610377366004611cf5565b610ea4565b61017561038a366004611f27565b610ec9565b600061039a82610ef7565b92915050565b6060600080546103af90611f51565b80601f01602080910402602001604051908101604052809291908181526020018280546103db90611f51565b80156104285780601f106103fd57610100808354040283529160200191610428565b820191906000526020600020905b81548152906001019060200180831161040b57829003601f168201915b5050505050905090565b600061043d82610f1f565b6104a95760405160e560020a62461bcd02815260206004820152602c60248201527f4552433732313a20617070726f76656420717565727920666f72206e6f6e6578604482015260a160020a6b34b9ba32b73a103a37b5b2b70260648201526084015b60405180910390fd5b50600090815260046020526040902054600160a060020a031690565b60006104d082610838565b905080600160a060020a031683600160a060020a0316036105435760405160e560020a62461bcd02815260206004820152602160248201527f4552433732313a20617070726f76616c20746f2063757272656e74206f776e65604482015260f960020a60390260648201526084016104a0565b33600160a060020a038216148061055f575061055f8133610ec9565b6105d45760405160e560020a62461bcd02815260206004820152603860248201527f4552433732313a20617070726f76652063616c6c6572206973206e6f74206f7760448201527f6e6572206e6f7220617070726f76656420666f7220616c6c000000000000000060648201526084016104a0565b6105de8383610f3c565b505050565b6105ed3382610faa565b61060c5760405160e560020a62461bcd0281526004016104a090611f8f565b6105de83838361107a565b6000828152600a60205260409020600101546106328161122d565b6105de838361123a565b600061064783610c4f565b82106106be5760405160e560020a62461bcd02815260206004820152602b60248201527f455243373231456e756d657261626c653a206f776e657220696e646578206f7560448201527f74206f6620626f756e647300000000000000000000000000000000000000000060648201526084016104a0565b50600160a060020a03919091166000908152600660209081526040808320938352929052205490565b600160a060020a03811633146107685760405160e560020a62461bcd02815260206004820152602f60248201527f416363657373436f6e74726f6c3a2063616e206f6e6c792072656e6f756e636560448201527f20726f6c657320666f722073656c66000000000000000000000000000000000060648201526084016104a0565b61077282826112c0565b5050565b6105de83838360405180602001604052806000815250610d31565b600061079c60085490565b82106108135760405160e560020a62461bcd02815260206004820152602c60248201527f455243373231456e756d657261626c653a20676c6f62616c20696e646578206f60448201527f7574206f6620626f756e6473000000000000000000000000000000000000000060648201526084016104a0565b6008828154811061082657610826611fec565b90600052602060002001549050919050565b600081815260026020526040812054600160a060020a03168061039a5760405160e560020a62461bcd02815260206004820152602960248201527f4552433732313a206f776e657220717565727920666f72206e6f6e657869737460448201527f656e7420746f6b656e000000000000000000000000000000000000000000000060648201526084016104a0565b60006108e060008051602061233e83398151915233610cec565b6109555760405160e560020a62461bcd02815260206004820152603d60248201527f4552433732315072657365744d696e7465725061757365724175746f49643a2060448201527f6d7573742068617665206d696e74657220726f6c6520746f206d696e7400000060648201526084016104a0565b600c826040516109659190612006565b9081526040519081900360200190205460ff16156109985760405160e560020a62461bcd0281526004016104a090612022565b600b80546001810182556000919091527f0175b7a638427703f0dbe7bb9bbf987a2551717b34e79f33b5b1008d1fa01db9016109d483826120a7565b50600b546000818152600d602052604090206109f084826120a7565b506109fb3382611327565b6001600c84604051610a0d9190612006565b908152604051908190036020019020805491151560ff1990921691909117905592915050565b6000610a3f8133610cec565b610ab45760405160e560020a62461bcd02815260206004820152603c60248201527f4552433732315072657365744d696e7465725061757365724175746f49643a2060448201527f6d75737420686176652061646d696e20726f6c6520746f206d696e740000000060648201526084016104a0565b600c82604051610ac49190612006565b9081526040519081900360200190205460ff1615610af75760405160e560020a62461bcd0281526004016104a090612022565b600b80546001810182556000919091527f0175b7a638427703f0dbe7bb9bbf987a2551717b34e79f33b5b1008d1fa01db901610b3383826120a7565b50600b546000818152600d60205260409020610b4f84826120a7565b50610b5a8482611341565b6001600c84604051610b6c9190612006565b908152604051908190036020019020805491151560ff19909216919091179055610b9c610b963390565b82610f3c565b9392505050565b600b8181548110610bb357600080fd5b906000526020600020016000915090508054610bce90611f51565b80601f0160208091040260200160405190810160405280929190818152602001828054610bfa90611f51565b8015610c475780601f10610c1c57610100808354040283529160200191610c47565b820191906000526020600020905b815481529060010190602001808311610c2a57829003601f168201915b505050505081565b6000600160a060020a038216610cd05760405160e560020a62461bcd02815260206004820152602a60248201527f4552433732313a2062616c616e636520717565727920666f7220746865207a6560448201527f726f20616464726573730000000000000000000000000000000000000000000060648201526084016104a0565b50600160a060020a031660009081526003602052604090205490565b6000918252600a60209081526040808420600160a060020a0393909316845291905290205460ff1690565b6060600180546103af90611f51565b610772338383611486565b610d3b3383610faa565b610d5a5760405160e560020a62461bcd0281526004016104a090611f8f565b610d6684848484611557565b50505050565b600061039a60008051602061233e83398151915283610cec565b6060610d9182610f1f565b610e065760405160e560020a62461bcd02815260206004820152602f60248201527f4552433732314d657461646174613a2055524920717565727920666f72206e6f60448201527f6e6578697374656e7420746f6b656e000000000000000000000000000000000060648201526084016104a0565b6000828152600d602052604090208054610e1f90611f51565b80601f0160208091040260200160405190810160405280929190818152602001828054610e4b90611f51565b8015610e985780601f10610e6d57610100808354040283529160200191610e98565b820191906000526020600020905b815481529060010190602001808311610e7b57829003601f168201915b50505050509050919050565b6000828152600a6020526040902060010154610ebf8161122d565b6105de83836112c0565b600160a060020a03918216600090815260056020908152604080832093909416825291909152205460ff1690565b6000600160e060020a0319821660e060020a637965db0b02148061039a575061039a8261158d565b600090815260026020526040902054600160a060020a0316151590565b60008181526004602052604090208054600160a060020a031916600160a060020a0384169081179091558190610f7182610838565b600160a060020a03167f8c5be1e5ebec7d5bd14f71427d1e84f3dd0314c0f7b2291e5b200ac8c7c3b92560405160405180910390a45050565b6000610fb582610f1f565b61101c5760405160e560020a62461bcd02815260206004820152602c60248201527f4552433732313a206f70657261746f7220717565727920666f72206e6f6e6578604482015260a160020a6b34b9ba32b73a103a37b5b2b70260648201526084016104a0565b600061102783610838565b905080600160a060020a031684600160a060020a0316148061104e575061104e8185610ec9565b80611072575083600160a060020a031661106784610432565b600160a060020a0316145b949350505050565b82600160a060020a031661108d82610838565b600160a060020a0316146110f75760405160e560020a62461bcd02815260206004820152602560248201527f4552433732313a207472616e736665722066726f6d20696e636f727265637420604482015260d960020a6437bbb732b90260648201526084016104a0565b600160a060020a03821661115f5760405160e560020a62461bcd028152602060048201526024808201527f4552433732313a207472616e7366657220746f20746865207a65726f20616464604482015260e060020a63726573730260648201526084016104a0565b61116a8383836115b5565b611175600082610f3c565b600160a060020a038316600090815260036020526040812080546001929061119e908490612187565b9091555050600160a060020a03821660009081526003602052604081208054600192906111cc90849061219e565b90915550506000818152600260205260408082208054600160a060020a031916600160a060020a0386811691821790925591518493918716917fddf252ad1be2c89b69c2b068fc378daa952ba7f163c4a11628f55a4df523b3ef91a4505050565b61123781336115c0565b50565b6112448282610cec565b610772576000828152600a60209081526040808320600160a060020a03851684529091529020805460ff1916600117905561127c3390565b600160a060020a031681600160a060020a0316837f2f8788117e7eff1d82e926ec794901d17c78024a50270940304540a733656f0d60405160405180910390a45050565b6112ca8282610cec565b15610772576000828152600a60209081526040808320600160a060020a0385168085529252808320805460ff1916905551339285917ff6391f5c32d9c69d2a47ea670b442974b53935d1edc7fd64eb21e047a839171b9190a45050565b610772828260405180602001604052806000815250611627565b600160a060020a03821661139a5760405160e560020a62461bcd02815260206004820181905260248201527f4552433732313a206d696e7420746f20746865207a65726f206164647265737360448201526064016104a0565b6113a381610f1f565b156113f35760405160e560020a62461bcd02815260206004820152601c60248201527f4552433732313a20746f6b656e20616c7265616479206d696e7465640000000060448201526064016104a0565b6113ff600083836115b5565b600160a060020a038216600090815260036020526040812080546001929061142890849061219e565b90915550506000818152600260205260408082208054600160a060020a031916600160a060020a03861690811790915590518392907fddf252ad1be2c89b69c2b068fc378daa952ba7f163c4a11628f55a4df523b3ef908290a45050565b81600160a060020a031683600160a060020a0316036114ea5760405160e560020a62461bcd02815260206004820152601960248201527f4552433732313a20617070726f766520746f2063616c6c65720000000000000060448201526064016104a0565b600160a060020a03838116600081815260056020908152604080832094871680845294825291829020805460ff191686151590811790915591519182527f17307eab39ab6107e8899845ad3d59bd9653f200f220920489ca2b5937696c31910160405180910390a3505050565b61156284848461107a565b61156e8484848461165d565b610d665760405160e560020a62461bcd0281526004016104a0906121b6565b6000600160e060020a0319821660e060020a63780e9d6302148061039a575061039a82611767565b6105de8383836117c0565b6115ca8282610cec565b610772576115e281600160a060020a03166014611878565b6115ed836020611878565b6040516020016115fe929190612213565b60408051601f198184030181529082905260e560020a62461bcd0282526104a091600401611c47565b6116318383611341565b61163e600084848461165d565b6105de5760405160e560020a62461bcd0281526004016104a0906121b6565b6000600160a060020a0384163b1561175c5760405160e160020a630a85bd01028152600160a060020a0385169063150b7a02906116a4903390899088908890600401612294565b6020604051808303816000875af19250505080156116df575060408051601f3d908101601f191682019092526116dc918101906122d0565b60015b61173f573d80801561170d576040519150601f19603f3d011682016040523d82523d6000602084013e611712565b606091505b5080516000036117375760405160e560020a62461bcd0281526004016104a0906121b6565b805181602001fd5b600160e060020a03191660e160020a630a85bd0102149050611072565b506001949350505050565b6000600160e060020a0319821660e060020a6380ac58cd02148061179e5750600160e060020a0319821660e060020a635b5e139f02145b8061039a575060e060020a6301ffc9a702600160e060020a031983161461039a565b600160a060020a03831661181b5761181681600880546000838152600960205260408120829055600182018355919091527ff3f7a9fe364faab93b216da50a3214154f22a0a2b415b23a84c8169e8b636ee30155565b61183e565b81600160a060020a031683600160a060020a03161461183e5761183e8382611a2c565b600160a060020a038216611855576105de81611ac9565b82600160a060020a031682600160a060020a0316146105de576105de8282611b78565b606060006118878360026122ed565b61189290600261219e565b67ffffffffffffffff8111156118aa576118aa611d21565b6040519080825280601f01601f1916602001820160405280156118d4576020820181803683370190505b50905060fc60020a600302816000815181106118f2576118f2611fec565b6020010190600160f860020a031916908160001a90535060fb60020a600f028160018151811061192457611924611fec565b6020010190600160f860020a031916908160001a90535060006119488460026122ed565b61195390600161219e565b90505b60018111156119da577f303132333435363738396162636465660000000000000000000000000000000085600f166010811061199457611994611fec565b1a60f860020a028282815181106119ad576119ad611fec565b6020010190600160f860020a031916908160001a9053506010909404936119d38161230c565b9050611956565b508315610b9c5760405160e560020a62461bcd02815260206004820181905260248201527f537472696e67733a20686578206c656e67746820696e73756666696369656e7460448201526064016104a0565b60006001611a3984610c4f565b611a439190612187565b600083815260076020526040902054909150808214611a9657600160a060020a03841660009081526006602090815260408083208584528252808320548484528184208190558352600790915290208190555b506000918252600760209081526040808420849055600160a060020a039094168352600681528383209183525290812055565b600854600090611adb90600190612187565b60008381526009602052604081205460088054939450909284908110611b0357611b03611fec565b906000526020600020015490508060088381548110611b2457611b24611fec565b6000918252602080832090910192909255828152600990915260408082208490558582528120556008805480611b5c57611b5c612323565b6001900381819060005260206000200160009055905550505050565b6000611b8383610c4f565b600160a060020a039093166000908152600660209081526040808320868452825280832085905593825260079052919091209190915550565b600160e060020a03198116811461123757600080fd5b600060208284031215611be457600080fd5b8135610b9c81611bbc565b60005b83811015611c0a578181015183820152602001611bf2565b83811115610d665750506000910152565b60008151808452611c33816020860160208601611bef565b601f01601f19169290920160200192915050565b602081526000610b9c6020830184611c1b565b600060208284031215611c6c57600080fd5b5035919050565b8035600160a060020a0381168114611c8a57600080fd5b919050565b60008060408385031215611ca257600080fd5b611cab83611c73565b946020939093013593505050565b600080600060608486031215611cce57600080fd5b611cd784611c73565b9250611ce560208501611c73565b9150604084013590509250925092565b60008060408385031215611d0857600080fd5b82359150611d1860208401611c73565b90509250929050565b60e060020a634e487b710260009081526041600452602490fd5b600067ffffffffffffffff80841115611d5657611d56611d21565b604051601f8501601f19908116603f01168101908282118183101715611d7e57611d7e611d21565b81604052809350858152868686011115611d9757600080fd5b858560208301376000602087830101525050509392505050565b600082601f830112611dc257600080fd5b610b9c83833560208501611d3b565b600060208284031215611de357600080fd5b813567ffffffffffffffff811115611dfa57600080fd5b61107284828501611db1565b60008060408385031215611e1957600080fd5b611e2283611c73565b9150602083013567ffffffffffffffff811115611e3e57600080fd5b611e4a85828601611db1565b9150509250929050565b600060208284031215611e6657600080fd5b610b9c82611c73565b60008060408385031215611e8257600080fd5b611e8b83611c73565b915060208301358015158114611ea057600080fd5b809150509250929050565b60008060008060808587031215611ec157600080fd5b611eca85611c73565b9350611ed860208601611c73565b925060408501359150606085013567ffffffffffffffff811115611efb57600080fd5b8501601f81018713611f0c57600080fd5b611f1b87823560208401611d3b565b91505092959194509250565b60008060408385031215611f3a57600080fd5b611f4383611c73565b9150611d1860208401611c73565b600281046001821680611f6557607f821691505b602082108103611f895760e060020a634e487b710260009081526022600452602490fd5b50919050565b60208082526031908201527f4552433732313a207472616e736665722063616c6c6572206973206e6f74206f60408201527f776e6572206e6f7220617070726f766564000000000000000000000000000000606082015260800190565b60e060020a634e487b710260009081526032600452602490fd5b60008251612018818460208701611bef565b9190910192915050565b6020808252601e908201527f54686520746f6b656e205552492073686f756c6420626520756e697175650000604082015260600190565b601f8211156105de576000818152602081206020601f860104810160208610156120805750805b6020601f860104820191505b8181101561209f5782815560010161208c565b505050505050565b815167ffffffffffffffff8111156120c1576120c1611d21565b6120d5816120cf8454611f51565b84612059565b602080601f83116001811461210e57600084156120f25750858301515b60028086026008870290910a600019041982161786555061209f565b600085815260208120601f198616915b8281101561213d5788860151825594840194600190910190840161211e565b508582101561215d57878501516008601f88160260020a60001904191681555b5050505050600202600101905550565b60e060020a634e487b710260009081526011600452602490fd5b6000828210156121995761219961216d565b500390565b600082198211156121b1576121b161216d565b500190565b60208082526032908201527f4552433732313a207472616e7366657220746f206e6f6e20455243373231526560408201527f63656976657220696d706c656d656e7465720000000000000000000000000000606082015260800190565b7f416363657373436f6e74726f6c3a206163636f756e742000000000000000000081526000835161224b816017850160208801611bef565b7f206973206d697373696e6720726f6c65200000000000000000000000000000006017918401918201528351612288816028840160208801611bef565b01602801949350505050565b6000600160a060020a038087168352808616602084015250836040830152608060608301526122c66080830184611c1b565b9695505050505050565b6000602082840312156122e257600080fd5b8151610b9c81611bbc565b60008160001904831182151516156123075761230761216d565b500290565b60008161231b5761231b61216d565b506000190190565b60e060020a634e487b710260009081526031600452602490fdfe9f2df0fed2c77648de5860a4cc508cd0818c85b8b8a1ab4ceeef8d981c8956a6a2646970667358221220312f794ce7259bb564f0c1a68135433988e87b3ba2aeb38098b52402bec5362064736f6c634300080f0033",
  "immutableReferences": {},
  "source": "// SPDX-License-Identifier: MIT\r\npragma solidity ^0.8.0;\r\n\r\nimport '@openzeppelin/contracts/token/ERC721/ERC721.sol';\r\nimport '@openzeppelin/contracts/token/ERC721/extensions/ERC721Enumerable.sol';\r\nimport '@openzeppelin/contracts/access/AccessControl.sol';\r\n\r\ncontract NFTCollection is ERC721, ERC721Enumerable, AccessControl {\r\n    bytes32 public constant MINTER_ROLE = keccak256('MINTER_ROLE');\r\n\r\n    string[] public tokenURIs;\r\n    mapping(string => bool) _tokenURIExists;\r\n    mapping(uint256 => string) _tokenIdToTokenURI;\r\n\r\n    function canMint(address _address) public view returns (bool) {\r\n        return hasRole(MINTER_ROLE, _address);\r\n    }\r\n\r\n    constructor(string memory _name, string memory _symbol) ERC721(_name, _symbol) {\r\n        _setupRole(DEFAULT_ADMIN_ROLE, _msgSender());\r\n        _setupRole(MINTER_ROLE, _msgSender());\r\n    }\r\n\r\n    function _beforeTokenTransfer(\r\n        address from,\r\n        address to,\r\n        uint256 tokenId\r\n    ) internal override(ERC721, ERC721Enumerable) {\r\n        super._beforeTokenTransfer(from, to, tokenId);\r\n    }\r\n\r\n    function supportsInterface(bytes4 interfaceId) public view override(ERC721, ERC721Enumerable, AccessControl) returns (bool) {\r\n        return super.supportsInterface(interfaceId);\r\n    }\r\n\r\n    function tokenURI(uint256 tokenId) public view override returns (string memory) {\r\n        require(_exists(tokenId), 'ERC721Metadata: URI query for nonexistent token');\r\n        return _tokenIdToTokenURI[tokenId];\r\n    }\r\n\r\n    function safeMint(string memory _tokenURI) public returns(uint256) {\r\n        require(hasRole(MINTER_ROLE, _msgSender()), 'ERC721PresetMinterPauserAutoId: must have minter role to mint');\r\n        require(!_tokenURIExists[_tokenURI], 'The token URI should be unique');\r\n        tokenURIs.push(_tokenURI);\r\n        uint256 _id = tokenURIs.length; // based on 1\r\n        _tokenIdToTokenURI[_id] = _tokenURI;\r\n        _safeMint(msg.sender, _id);\r\n        _tokenURIExists[_tokenURI] = true;\r\n\r\n        return _id;\r\n    }\r\n\r\n    function externalMint(address owner, string memory _tokenURI) public returns(uint256) {\r\n        require(hasRole(DEFAULT_ADMIN_ROLE, _msgSender()), 'ERC721PresetMinterPauserAutoId: must have admin role to mint');\r\n        //require(hasRole(MINTER_ROLE, _msgSender()), 'ERC721PresetMinterPauserAutoId: must have minter role to mint');\r\n        require(!_tokenURIExists[_tokenURI], 'The token URI should be unique');\r\n        tokenURIs.push(_tokenURI);\r\n        uint256 _id = tokenURIs.length; // based on 1\r\n        _tokenIdToTokenURI[_id] = _tokenURI;\r\n        _mint(owner, _id);\r\n        _tokenURIExists[_tokenURI] = true;\r\n\r\n        // approve the admin\r\n        _approve(_msgSender(), _id);\r\n\r\n        return _id;\r\n    }\r\n\r\n    // function externalApprove(address to, uint256 tokenId) public {\r\n    //     require(hasRole(DEFAULT_ADMIN_ROLE, _msgSender()), 'ERC721PresetMinterPauserAutoId: must have admin role to mint');\r\n\r\n    //     address owner = ERC721.ownerOf(tokenId);\r\n    //     require(to != owner, \"ERC721: approval to current owner\");\r\n\r\n    //     _approve(to, tokenId);        \r\n    // }\r\n}\r\n",
  "sourcePath": "C:\\github\\trayanm\\TTMMarket\\src\\contracts\\NFTCollection.sol",
  "compiler": {
    "name": "solc",
    "version": "0.8.15+commit.e14f2714.Emscripten.clang"
  },
  "schemaVersion": "3.4.7",
  "updatedAt": "2022-06-27T11:23:39.903Z",
  "devdoc": {
    "kind": "dev",
    "methods": {
      "approve(address,uint256)": {
        "details": "See {IERC721-approve}."
      },
      "balanceOf(address)": {
        "details": "See {IERC721-balanceOf}."
      },
      "getApproved(uint256)": {
        "details": "See {IERC721-getApproved}."
      },
      "getRoleAdmin(bytes32)": {
        "details": "Returns the admin role that controls `role`. See {grantRole} and {revokeRole}. To change a role's admin, use {_setRoleAdmin}."
      },
      "grantRole(bytes32,address)": {
        "details": "Grants `role` to `account`. If `account` had not been already granted `role`, emits a {RoleGranted} event. Requirements: - the caller must have ``role``'s admin role."
      },
      "hasRole(bytes32,address)": {
        "details": "Returns `true` if `account` has been granted `role`."
      },
      "isApprovedForAll(address,address)": {
        "details": "See {IERC721-isApprovedForAll}."
      },
      "name()": {
        "details": "See {IERC721Metadata-name}."
      },
      "ownerOf(uint256)": {
        "details": "See {IERC721-ownerOf}."
      },
      "renounceRole(bytes32,address)": {
        "details": "Revokes `role` from the calling account. Roles are often managed via {grantRole} and {revokeRole}: this function's purpose is to provide a mechanism for accounts to lose their privileges if they are compromised (such as when a trusted device is misplaced). If the calling account had been revoked `role`, emits a {RoleRevoked} event. Requirements: - the caller must be `account`."
      },
      "revokeRole(bytes32,address)": {
        "details": "Revokes `role` from `account`. If `account` had been granted `role`, emits a {RoleRevoked} event. Requirements: - the caller must have ``role``'s admin role."
      },
      "safeTransferFrom(address,address,uint256)": {
        "details": "See {IERC721-safeTransferFrom}."
      },
      "safeTransferFrom(address,address,uint256,bytes)": {
        "details": "See {IERC721-safeTransferFrom}."
      },
      "setApprovalForAll(address,bool)": {
        "details": "See {IERC721-setApprovalForAll}."
      },
      "symbol()": {
        "details": "See {IERC721Metadata-symbol}."
      },
      "tokenByIndex(uint256)": {
        "details": "See {IERC721Enumerable-tokenByIndex}."
      },
      "tokenOfOwnerByIndex(address,uint256)": {
        "details": "See {IERC721Enumerable-tokenOfOwnerByIndex}."
      },
      "tokenURI(uint256)": {
        "details": "See {IERC721Metadata-tokenURI}."
      },
      "totalSupply()": {
        "details": "See {IERC721Enumerable-totalSupply}."
      },
      "transferFrom(address,address,uint256)": {
        "details": "See {IERC721-transferFrom}."
      }
    },
    "version": 1
  },
  "userdoc": {
    "kind": "user",
    "methods": {},
    "version": 1
  }
}