{
  "contractName": "NFTCollection",
  "abi": [
    {
      "inputs": [
        {
          "internalType": "string",
          "name": "_name",
          "type": "string"
        },
        {
          "internalType": "string",
          "name": "_symbol",
          "type": "string"
        }
      ],
      "stateMutability": "nonpayable",
      "type": "constructor"
    },
    {
      "anonymous": false,
      "inputs": [
        {
          "indexed": true,
          "internalType": "address",
          "name": "owner",
          "type": "address"
        },
        {
          "indexed": true,
          "internalType": "address",
          "name": "approved",
          "type": "address"
        },
        {
          "indexed": true,
          "internalType": "uint256",
          "name": "tokenId",
          "type": "uint256"
        }
      ],
      "name": "Approval",
      "type": "event"
    },
    {
      "anonymous": false,
      "inputs": [
        {
          "indexed": true,
          "internalType": "address",
          "name": "owner",
          "type": "address"
        },
        {
          "indexed": true,
          "internalType": "address",
          "name": "operator",
          "type": "address"
        },
        {
          "indexed": false,
          "internalType": "bool",
          "name": "approved",
          "type": "bool"
        }
      ],
      "name": "ApprovalForAll",
      "type": "event"
    },
    {
      "anonymous": false,
      "inputs": [
        {
          "indexed": true,
          "internalType": "bytes32",
          "name": "role",
          "type": "bytes32"
        },
        {
          "indexed": true,
          "internalType": "bytes32",
          "name": "previousAdminRole",
          "type": "bytes32"
        },
        {
          "indexed": true,
          "internalType": "bytes32",
          "name": "newAdminRole",
          "type": "bytes32"
        }
      ],
      "name": "RoleAdminChanged",
      "type": "event"
    },
    {
      "anonymous": false,
      "inputs": [
        {
          "indexed": true,
          "internalType": "bytes32",
          "name": "role",
          "type": "bytes32"
        },
        {
          "indexed": true,
          "internalType": "address",
          "name": "account",
          "type": "address"
        },
        {
          "indexed": true,
          "internalType": "address",
          "name": "sender",
          "type": "address"
        }
      ],
      "name": "RoleGranted",
      "type": "event"
    },
    {
      "anonymous": false,
      "inputs": [
        {
          "indexed": true,
          "internalType": "bytes32",
          "name": "role",
          "type": "bytes32"
        },
        {
          "indexed": true,
          "internalType": "address",
          "name": "account",
          "type": "address"
        },
        {
          "indexed": true,
          "internalType": "address",
          "name": "sender",
          "type": "address"
        }
      ],
      "name": "RoleRevoked",
      "type": "event"
    },
    {
      "anonymous": false,
      "inputs": [
        {
          "indexed": true,
          "internalType": "address",
          "name": "from",
          "type": "address"
        },
        {
          "indexed": true,
          "internalType": "address",
          "name": "to",
          "type": "address"
        },
        {
          "indexed": true,
          "internalType": "uint256",
          "name": "tokenId",
          "type": "uint256"
        }
      ],
      "name": "Transfer",
      "type": "event"
    },
    {
      "inputs": [],
      "name": "DEFAULT_ADMIN_ROLE",
      "outputs": [
        {
          "internalType": "bytes32",
          "name": "",
          "type": "bytes32"
        }
      ],
      "stateMutability": "view",
      "type": "function"
    },
    {
      "inputs": [],
      "name": "MINTER_ROLE",
      "outputs": [
        {
          "internalType": "bytes32",
          "name": "",
          "type": "bytes32"
        }
      ],
      "stateMutability": "view",
      "type": "function"
    },
    {
      "inputs": [
        {
          "internalType": "address",
          "name": "to",
          "type": "address"
        },
        {
          "internalType": "uint256",
          "name": "tokenId",
          "type": "uint256"
        }
      ],
      "name": "approve",
      "outputs": [],
      "stateMutability": "nonpayable",
      "type": "function"
    },
    {
      "inputs": [
        {
          "internalType": "address",
          "name": "owner",
          "type": "address"
        }
      ],
      "name": "balanceOf",
      "outputs": [
        {
          "internalType": "uint256",
          "name": "",
          "type": "uint256"
        }
      ],
      "stateMutability": "view",
      "type": "function"
    },
    {
      "inputs": [
        {
          "internalType": "uint256",
          "name": "tokenId",
          "type": "uint256"
        }
      ],
      "name": "getApproved",
      "outputs": [
        {
          "internalType": "address",
          "name": "",
          "type": "address"
        }
      ],
      "stateMutability": "view",
      "type": "function"
    },
    {
      "inputs": [
        {
          "internalType": "bytes32",
          "name": "role",
          "type": "bytes32"
        }
      ],
      "name": "getRoleAdmin",
      "outputs": [
        {
          "internalType": "bytes32",
          "name": "",
          "type": "bytes32"
        }
      ],
      "stateMutability": "view",
      "type": "function"
    },
    {
      "inputs": [
        {
          "internalType": "bytes32",
          "name": "role",
          "type": "bytes32"
        },
        {
          "internalType": "address",
          "name": "account",
          "type": "address"
        }
      ],
      "name": "grantRole",
      "outputs": [],
      "stateMutability": "nonpayable",
      "type": "function"
    },
    {
      "inputs": [
        {
          "internalType": "bytes32",
          "name": "role",
          "type": "bytes32"
        },
        {
          "internalType": "address",
          "name": "account",
          "type": "address"
        }
      ],
      "name": "hasRole",
      "outputs": [
        {
          "internalType": "bool",
          "name": "",
          "type": "bool"
        }
      ],
      "stateMutability": "view",
      "type": "function"
    },
    {
      "inputs": [
        {
          "internalType": "address",
          "name": "owner",
          "type": "address"
        },
        {
          "internalType": "address",
          "name": "operator",
          "type": "address"
        }
      ],
      "name": "isApprovedForAll",
      "outputs": [
        {
          "internalType": "bool",
          "name": "",
          "type": "bool"
        }
      ],
      "stateMutability": "view",
      "type": "function"
    },
    {
      "inputs": [],
      "name": "name",
      "outputs": [
        {
          "internalType": "string",
          "name": "",
          "type": "string"
        }
      ],
      "stateMutability": "view",
      "type": "function"
    },
    {
      "inputs": [
        {
          "internalType": "uint256",
          "name": "tokenId",
          "type": "uint256"
        }
      ],
      "name": "ownerOf",
      "outputs": [
        {
          "internalType": "address",
          "name": "",
          "type": "address"
        }
      ],
      "stateMutability": "view",
      "type": "function"
    },
    {
      "inputs": [
        {
          "internalType": "bytes32",
          "name": "role",
          "type": "bytes32"
        },
        {
          "internalType": "address",
          "name": "account",
          "type": "address"
        }
      ],
      "name": "renounceRole",
      "outputs": [],
      "stateMutability": "nonpayable",
      "type": "function"
    },
    {
      "inputs": [
        {
          "internalType": "bytes32",
          "name": "role",
          "type": "bytes32"
        },
        {
          "internalType": "address",
          "name": "account",
          "type": "address"
        }
      ],
      "name": "revokeRole",
      "outputs": [],
      "stateMutability": "nonpayable",
      "type": "function"
    },
    {
      "inputs": [
        {
          "internalType": "address",
          "name": "from",
          "type": "address"
        },
        {
          "internalType": "address",
          "name": "to",
          "type": "address"
        },
        {
          "internalType": "uint256",
          "name": "tokenId",
          "type": "uint256"
        }
      ],
      "name": "safeTransferFrom",
      "outputs": [],
      "stateMutability": "nonpayable",
      "type": "function"
    },
    {
      "inputs": [
        {
          "internalType": "address",
          "name": "from",
          "type": "address"
        },
        {
          "internalType": "address",
          "name": "to",
          "type": "address"
        },
        {
          "internalType": "uint256",
          "name": "tokenId",
          "type": "uint256"
        },
        {
          "internalType": "bytes",
          "name": "_data",
          "type": "bytes"
        }
      ],
      "name": "safeTransferFrom",
      "outputs": [],
      "stateMutability": "nonpayable",
      "type": "function"
    },
    {
      "inputs": [
        {
          "internalType": "address",
          "name": "operator",
          "type": "address"
        },
        {
          "internalType": "bool",
          "name": "approved",
          "type": "bool"
        }
      ],
      "name": "setApprovalForAll",
      "outputs": [],
      "stateMutability": "nonpayable",
      "type": "function"
    },
    {
      "inputs": [],
      "name": "symbol",
      "outputs": [
        {
          "internalType": "string",
          "name": "",
          "type": "string"
        }
      ],
      "stateMutability": "view",
      "type": "function"
    },
    {
      "inputs": [
        {
          "internalType": "uint256",
          "name": "index",
          "type": "uint256"
        }
      ],
      "name": "tokenByIndex",
      "outputs": [
        {
          "internalType": "uint256",
          "name": "",
          "type": "uint256"
        }
      ],
      "stateMutability": "view",
      "type": "function"
    },
    {
      "inputs": [
        {
          "internalType": "address",
          "name": "owner",
          "type": "address"
        },
        {
          "internalType": "uint256",
          "name": "index",
          "type": "uint256"
        }
      ],
      "name": "tokenOfOwnerByIndex",
      "outputs": [
        {
          "internalType": "uint256",
          "name": "",
          "type": "uint256"
        }
      ],
      "stateMutability": "view",
      "type": "function"
    },
    {
      "inputs": [
        {
          "internalType": "uint256",
          "name": "",
          "type": "uint256"
        }
      ],
      "name": "tokenURIs",
      "outputs": [
        {
          "internalType": "string",
          "name": "",
          "type": "string"
        }
      ],
      "stateMutability": "view",
      "type": "function"
    },
    {
      "inputs": [],
      "name": "totalSupply",
      "outputs": [
        {
          "internalType": "uint256",
          "name": "",
          "type": "uint256"
        }
      ],
      "stateMutability": "view",
      "type": "function"
    },
    {
      "inputs": [
        {
          "internalType": "address",
          "name": "from",
          "type": "address"
        },
        {
          "internalType": "address",
          "name": "to",
          "type": "address"
        },
        {
          "internalType": "uint256",
          "name": "tokenId",
          "type": "uint256"
        }
      ],
      "name": "transferFrom",
      "outputs": [],
      "stateMutability": "nonpayable",
      "type": "function"
    },
    {
      "inputs": [
        {
          "internalType": "address",
          "name": "_address",
          "type": "address"
        }
      ],
      "name": "canMint",
      "outputs": [
        {
          "internalType": "bool",
          "name": "",
          "type": "bool"
        }
      ],
      "stateMutability": "view",
      "type": "function"
    },
    {
      "inputs": [
        {
          "internalType": "bytes4",
          "name": "interfaceId",
          "type": "bytes4"
        }
      ],
      "name": "supportsInterface",
      "outputs": [
        {
          "internalType": "bool",
          "name": "",
          "type": "bool"
        }
      ],
      "stateMutability": "view",
      "type": "function"
    },
    {
      "inputs": [
        {
          "internalType": "uint256",
          "name": "tokenId",
          "type": "uint256"
        }
      ],
      "name": "tokenURI",
      "outputs": [
        {
          "internalType": "string",
          "name": "",
          "type": "string"
        }
      ],
      "stateMutability": "view",
      "type": "function"
    },
    {
      "inputs": [
        {
          "internalType": "string",
          "name": "_tokenURI",
          "type": "string"
        }
      ],
      "name": "safeMint",
      "outputs": [],
      "stateMutability": "nonpayable",
      "type": "function"
    }
  ],
  "bytecode": "0x60806040523480156200001157600080fd5b50604051620028623803806200286283398101604081905262000034916200028c565b818160006200004483826200039e565b5060016200005382826200039e565b506200008091506000905062000071640100000000620000c0810204565b640100000000620000c4810204565b620000b87f9f2df0fed2c77648de5860a4cc508cd0818c85b8b8a1ab4ceeef8d981c8956a662000071640100000000620000c0810204565b505062000470565b3390565b620000d98282640100000000620000dd810204565b5050565b620000f282826401000000006200017b810204565b620000d9576000828152600a60209081526040808320600160a060020a03851684529091529020805460ff1916600117905562000137640100000000620000c0810204565b600160a060020a031681600160a060020a0316837f2f8788117e7eff1d82e926ec794901d17c78024a50270940304540a733656f0d60405160405180910390a45050565b6000918252600a60209081526040808420600160a060020a0393909316845291905290205460ff1690565b7f4e487b7100000000000000000000000000000000000000000000000000000000600052604160045260246000fd5b600082601f830112620001e757600080fd5b81516001604060020a0380821115620002045762000204620001a6565b604051601f8301601f19908116603f011681019082821181831017156200022f576200022f620001a6565b816040528381526020925086838588010111156200024c57600080fd5b600091505b8382101562000270578582018301518183018401529082019062000251565b83821115620002825760008385830101525b9695505050505050565b60008060408385031215620002a057600080fd5b82516001604060020a0380821115620002b857600080fd5b620002c686838701620001d5565b93506020850151915080821115620002dd57600080fd5b50620002ec85828601620001d5565b9150509250929050565b6002810460018216806200030b57607f821691505b60208210810362000345577f4e487b7100000000000000000000000000000000000000000000000000000000600052602260045260246000fd5b50919050565b601f82111562000399576000818152602081206020601f86010481016020861015620003745750805b6020601f860104820191505b81811015620003955782815560010162000380565b5050505b505050565b81516001604060020a03811115620003ba57620003ba620001a6565b620003d281620003cb8454620002f6565b846200034b565b602080601f8311600181146200040e5760008415620003f15750858301515b60028086026008870290910a600019041982161786555062000395565b600085815260208120601f198616915b828110156200043f578886015182559484019460019091019084016200041e565b50858210156200046057878501516008601f88160260020a60001904191681555b5050505050600202600101905550565b6123e280620004806000396000f3fe608060405234801561001057600080fd5b50600436106101ab576000357c010000000000000000000000000000000000000000000000000000000090048063695850fb116100fb578063a22cb465116100b4578063c87b56dd1161008e578063c87b56dd1461037c578063d53913931461038f578063d547741f146103b6578063e985e9c5146103c957600080fd5b8063a22cb46514610343578063b88d4fde14610356578063c2ba47441461036957600080fd5b8063695850fb146102e75780636c8b703f146102fa57806370a082311461030d57806391d148541461032057806395d89b4114610333578063a217fddf1461033b57600080fd5b8063248a9ca31161016857806336568abe1161014257806336568abe1461029b57806342842e0e146102ae5780634f6ccce7146102c15780636352211e146102d457600080fd5b8063248a9ca3146102525780632f2ff15d146102755780632f745c591461028857600080fd5b806301ffc9a7146101b057806306fdde03146101d8578063081812fc146101ed578063095ea7b31461021857806318160ddd1461022d57806323b872dd1461023f575b600080fd5b6101c36101be366004611cd7565b610405565b60405190151581526020015b60405180910390f35b6101e0610416565b6040516101cf9190611d4c565b6102006101fb366004611d5f565b6104a8565b604051600160a060020a0390911681526020016101cf565b61022b610226366004611d94565b610556565b005b6008545b6040519081526020016101cf565b61022b61024d366004611dbe565b61068d565b610231610260366004611d5f565b6000908152600a602052604090206001015490565b61022b610283366004611dfa565b6106c1565b610231610296366004611d94565b6106e7565b61022b6102a9366004611dfa565b610792565b61022b6102bc366004611dbe565b610821565b6102316102cf366004611d5f565b61083c565b6102006102e2366004611d5f565b6108e3565b61022b6102f5366004611eb5565b610971565b6101e0610308366004611d5f565b610b1c565b61023161031b366004611efe565b610bc8565b6101c361032e366004611dfa565b610c65565b6101e0610c90565b610231600081565b61022b610351366004611f19565b610c9f565b61022b610364366004611f55565b610d66565b6101c3610377366004611efe565b610da1565b6101e061038a366004611d5f565b610dcd565b6102317f9f2df0fed2c77648de5860a4cc508cd0818c85b8b8a1ab4ceeef8d981c8956a681565b61022b6103c4366004611dfa565b610efb565b6101c36103d7366004611fd1565b600160a060020a03918216600090815260056020908152604080832093909416825291909152205460ff1690565b600061041082610f21565b92915050565b60606000805461042590611ffb565b80601f016020809104026020016040519081016040528092919081815260200182805461045190611ffb565b801561049e5780601f106104735761010080835404028352916020019161049e565b820191906000526020600020905b81548152906001019060200180831161048157829003601f168201915b5050505050905090565b600081815260026020526040812054600160a060020a031661053a5760405160e560020a62461bcd02815260206004820152602c60248201527f4552433732313a20617070726f76656420717565727920666f72206e6f6e657860448201527f697374656e7420746f6b656e000000000000000000000000000000000000000060648201526084015b60405180910390fd5b50600090815260046020526040902054600160a060020a031690565b6000610561826108e3565b905080600160a060020a031683600160a060020a0316036105ed5760405160e560020a62461bcd02815260206004820152602160248201527f4552433732313a20617070726f76616c20746f2063757272656e74206f776e6560448201527f72000000000000000000000000000000000000000000000000000000000000006064820152608401610531565b33600160a060020a0382161480610609575061060981336103d7565b61067e5760405160e560020a62461bcd02815260206004820152603860248201527f4552433732313a20617070726f76652063616c6c6572206973206e6f74206f7760448201527f6e6572206e6f7220617070726f76656420666f7220616c6c00000000000000006064820152608401610531565b6106888383610f5f565b505050565b6106973382610fda565b6106b65760405160e560020a62461bcd02815260040161053190612038565b6106888383836110e5565b6000828152600a60205260409020600101546106dd81336112d0565b6106888383611337565b60006106f283610bc8565b82106107695760405160e560020a62461bcd02815260206004820152602b60248201527f455243373231456e756d657261626c653a206f776e657220696e646578206f7560448201527f74206f6620626f756e64730000000000000000000000000000000000000000006064820152608401610531565b50600160a060020a03919091166000908152600660209081526040808320938352929052205490565b600160a060020a03811633146108135760405160e560020a62461bcd02815260206004820152602f60248201527f416363657373436f6e74726f6c3a2063616e206f6e6c792072656e6f756e636560448201527f20726f6c657320666f722073656c6600000000000000000000000000000000006064820152608401610531565b61081d82826113bd565b5050565b61068883838360405180602001604052806000815250610d66565b600061084760085490565b82106108be5760405160e560020a62461bcd02815260206004820152602c60248201527f455243373231456e756d657261626c653a20676c6f62616c20696e646578206f60448201527f7574206f6620626f756e647300000000000000000000000000000000000000006064820152608401610531565b600882815481106108d1576108d1612095565b90600052602060002001549050919050565b600081815260026020526040812054600160a060020a0316806104105760405160e560020a62461bcd02815260206004820152602960248201527f4552433732313a206f776e657220717565727920666f72206e6f6e657869737460448201527f656e7420746f6b656e00000000000000000000000000000000000000000000006064820152608401610531565b61099b7f9f2df0fed2c77648de5860a4cc508cd0818c85b8b8a1ab4ceeef8d981c8956a633610c65565b610a105760405160e560020a62461bcd02815260206004820152603d60248201527f4552433732315072657365744d696e7465725061757365724175746f49643a2060448201527f6d7573742068617665206d696e74657220726f6c6520746f206d696e740000006064820152608401610531565b600c81604051610a2091906120ae565b9081526040519081900360200190205460ff1615610a835760405160e560020a62461bcd02815260206004820152601e60248201527f54686520746f6b656e205552492073686f756c6420626520756e6971756500006044820152606401610531565b600b80546001810182556000919091527f0175b7a638427703f0dbe7bb9bbf987a2551717b34e79f33b5b1008d1fa01db901610abf8282612118565b50600b546000818152600d60205260409020610adb8382612118565b50610ae63382611424565b6001600c83604051610af891906120ae565b908152604051908190036020019020805491151560ff199092169190911790555050565b600b8181548110610b2c57600080fd5b906000526020600020016000915090508054610b4790611ffb565b80601f0160208091040260200160405190810160405280929190818152602001828054610b7390611ffb565b8015610bc05780601f10610b9557610100808354040283529160200191610bc0565b820191906000526020600020905b815481529060010190602001808311610ba357829003601f168201915b505050505081565b6000600160a060020a038216610c495760405160e560020a62461bcd02815260206004820152602a60248201527f4552433732313a2062616c616e636520717565727920666f7220746865207a6560448201527f726f2061646472657373000000000000000000000000000000000000000000006064820152608401610531565b50600160a060020a031660009081526003602052604090205490565b6000918252600a60209081526040808420600160a060020a0393909316845291905290205460ff1690565b60606001805461042590611ffb565b33600160a060020a03831603610cfa5760405160e560020a62461bcd02815260206004820152601960248201527f4552433732313a20617070726f766520746f2063616c6c6572000000000000006044820152606401610531565b336000818152600560209081526040808320600160a060020a03871680855290835292819020805460ff191686151590811790915590519081529192917f17307eab39ab6107e8899845ad3d59bd9653f200f220920489ca2b5937696c31910160405180910390a35050565b610d703383610fda565b610d8f5760405160e560020a62461bcd02815260040161053190612038565b610d9b8484848461143e565b50505050565b60006104107f9f2df0fed2c77648de5860a4cc508cd0818c85b8b8a1ab4ceeef8d981c8956a683610c65565b600081815260026020526040902054606090600160a060020a0316610e5d5760405160e560020a62461bcd02815260206004820152602f60248201527f4552433732314d657461646174613a2055524920717565727920666f72206e6f60448201527f6e6578697374656e7420746f6b656e00000000000000000000000000000000006064820152608401610531565b6000828152600d602052604090208054610e7690611ffb565b80601f0160208091040260200160405190810160405280929190818152602001828054610ea290611ffb565b8015610eef5780601f10610ec457610100808354040283529160200191610eef565b820191906000526020600020905b815481529060010190602001808311610ed257829003601f168201915b50505050509050919050565b6000828152600a6020526040902060010154610f1781336112d0565b61068883836113bd565b6000600160e060020a031982167f7965db0b000000000000000000000000000000000000000000000000000000001480610410575061041082611474565b6000818152600460205260409020805473ffffffffffffffffffffffffffffffffffffffff1916600160a060020a0384169081179091558190610fa1826108e3565b600160a060020a03167f8c5be1e5ebec7d5bd14f71427d1e84f3dd0314c0f7b2291e5b200ac8c7c3b92560405160405180910390a45050565b600081815260026020526040812054600160a060020a03166110675760405160e560020a62461bcd02815260206004820152602c60248201527f4552433732313a206f70657261746f7220717565727920666f72206e6f6e657860448201527f697374656e7420746f6b656e00000000000000000000000000000000000000006064820152608401610531565b6000611072836108e3565b905080600160a060020a031684600160a060020a031614806110ad575083600160a060020a03166110a2846104a8565b600160a060020a0316145b806110dd5750600160a060020a0380821660009081526005602090815260408083209388168352929052205460ff165b949350505050565b82600160a060020a03166110f8826108e3565b600160a060020a0316146111775760405160e560020a62461bcd02815260206004820152602960248201527f4552433732313a207472616e73666572206f6620746f6b656e2074686174206960448201527f73206e6f74206f776e00000000000000000000000000000000000000000000006064820152608401610531565b600160a060020a0382166111f55760405160e560020a62461bcd028152602060048201526024808201527f4552433732313a207472616e7366657220746f20746865207a65726f2061646460448201527f72657373000000000000000000000000000000000000000000000000000000006064820152608401610531565b6112008383836114b2565b61120b600082610f5f565b600160a060020a03831660009081526003602052604081208054600192906112349084906121f7565b9091555050600160a060020a038216600090815260036020526040812080546001929061126290849061220e565b9091555050600081815260026020526040808220805473ffffffffffffffffffffffffffffffffffffffff1916600160a060020a0386811691821790925591518493918716917fddf252ad1be2c89b69c2b068fc378daa952ba7f163c4a11628f55a4df523b3ef91a4505050565b6112da8282610c65565b61081d576112f281600160a060020a031660146114bd565b6112fd8360206114bd565b60405160200161130e929190612226565b60408051601f198184030181529082905260e560020a62461bcd02825261053191600401611d4c565b6113418282610c65565b61081d576000828152600a60209081526040808320600160a060020a03851684529091529020805460ff191660011790556113793390565b600160a060020a031681600160a060020a0316837f2f8788117e7eff1d82e926ec794901d17c78024a50270940304540a733656f0d60405160405180910390a45050565b6113c78282610c65565b1561081d576000828152600a60209081526040808320600160a060020a0385168085529252808320805460ff1916905551339285917ff6391f5c32d9c69d2a47ea670b442974b53935d1edc7fd64eb21e047a839171b9190a45050565b61081d82826040518060200160405280600081525061170e565b6114498484846110e5565b61145584848484611744565b610d9b5760405160e560020a62461bcd028152600401610531906122a7565b6000600160e060020a031982167f780e9d6300000000000000000000000000000000000000000000000000000000148061041057506104108261187a565b610688838383611915565b606060006114cc836002612304565b6114d790600261220e565b67ffffffffffffffff8111156114ef576114ef611e26565b6040519080825280601f01601f191660200182016040528015611519576020820181803683370190505b5090507f30000000000000000000000000000000000000000000000000000000000000008160008151811061155057611550612095565b60200101907effffffffffffffffffffffffffffffffffffffffffffffffffffffffffffff1916908160001a9053507f7800000000000000000000000000000000000000000000000000000000000000816001815181106115b3576115b3612095565b60200101907effffffffffffffffffffffffffffffffffffffffffffffffffffffffffffff1916908160001a90535060006115ef846002612304565b6115fa90600161220e565b90505b60018111156116b5577f303132333435363738396162636465660000000000000000000000000000000085600f166010811061163b5761163b612095565b1a7f01000000000000000000000000000000000000000000000000000000000000000282828151811061167057611670612095565b60200101907effffffffffffffffffffffffffffffffffffffffffffffffffffffffffffff1916908160001a9053506010909404936116ae81612323565b90506115fd565b5083156117075760405160e560020a62461bcd02815260206004820181905260248201527f537472696e67733a20686578206c656e67746820696e73756666696369656e746044820152606401610531565b9392505050565b61171883836119cd565b6117256000848484611744565b6106885760405160e560020a62461bcd028152600401610531906122a7565b6000600160a060020a0384163b1561186f576040517f150b7a02000000000000000000000000000000000000000000000000000000008152600160a060020a0385169063150b7a02906117a190339089908890889060040161233a565b6020604051808303816000875af19250505080156117dc575060408051601f3d908101601f191682019092526117d991810190612376565b60015b61183c573d80801561180a576040519150601f19603f3d011682016040523d82523d6000602084013e61180f565b606091505b5080516000036118345760405160e560020a62461bcd028152600401610531906122a7565b805181602001fd5b600160e060020a0319167f150b7a02000000000000000000000000000000000000000000000000000000001490506110dd565b506001949350505050565b6000600160e060020a031982167f80ac58cd0000000000000000000000000000000000000000000000000000000014806118dd5750600160e060020a031982167f5b5e139f00000000000000000000000000000000000000000000000000000000145b8061041057507f01ffc9a700000000000000000000000000000000000000000000000000000000600160e060020a0319831614610410565b600160a060020a0383166119705761196b81600880546000838152600960205260408120829055600182018355919091527ff3f7a9fe364faab93b216da50a3214154f22a0a2b415b23a84c8169e8b636ee30155565b611993565b81600160a060020a031683600160a060020a031614611993576119938382611b2e565b600160a060020a0382166119aa5761068881611bcb565b82600160a060020a031682600160a060020a031614610688576106888282611c7a565b600160a060020a038216611a265760405160e560020a62461bcd02815260206004820181905260248201527f4552433732313a206d696e7420746f20746865207a65726f20616464726573736044820152606401610531565b600081815260026020526040902054600160a060020a031615611a8e5760405160e560020a62461bcd02815260206004820152601c60248201527f4552433732313a20746f6b656e20616c7265616479206d696e746564000000006044820152606401610531565b611a9a600083836114b2565b600160a060020a0382166000908152600360205260408120805460019290611ac390849061220e565b9091555050600081815260026020526040808220805473ffffffffffffffffffffffffffffffffffffffff1916600160a060020a03861690811790915590518392907fddf252ad1be2c89b69c2b068fc378daa952ba7f163c4a11628f55a4df523b3ef908290a45050565b60006001611b3b84610bc8565b611b4591906121f7565b600083815260076020526040902054909150808214611b9857600160a060020a03841660009081526006602090815260408083208584528252808320548484528184208190558352600790915290208190555b506000918252600760209081526040808420849055600160a060020a039094168352600681528383209183525290812055565b600854600090611bdd906001906121f7565b60008381526009602052604081205460088054939450909284908110611c0557611c05612095565b906000526020600020015490508060088381548110611c2657611c26612095565b6000918252602080832090910192909255828152600990915260408082208490558582528120556008805480611c5e57611c5e612393565b6001900381819060005260206000200160009055905550505050565b6000611c8583610bc8565b600160a060020a039093166000908152600660209081526040808320868452825280832085905593825260079052919091209190915550565b600160e060020a031981168114611cd457600080fd5b50565b600060208284031215611ce957600080fd5b813561170781611cbe565b60005b83811015611d0f578181015183820152602001611cf7565b83811115610d9b5750506000910152565b60008151808452611d38816020860160208601611cf4565b601f01601f19169290920160200192915050565b6020815260006117076020830184611d20565b600060208284031215611d7157600080fd5b5035919050565b8035600160a060020a0381168114611d8f57600080fd5b919050565b60008060408385031215611da757600080fd5b611db083611d78565b946020939093013593505050565b600080600060608486031215611dd357600080fd5b611ddc84611d78565b9250611dea60208501611d78565b9150604084013590509250925092565b60008060408385031215611e0d57600080fd5b82359150611e1d60208401611d78565b90509250929050565b60e060020a634e487b7102600052604160045260246000fd5b600067ffffffffffffffff80841115611e5a57611e5a611e26565b604051601f8501601f19908116603f01168101908282118183101715611e8257611e82611e26565b81604052809350858152868686011115611e9b57600080fd5b858560208301376000602087830101525050509392505050565b600060208284031215611ec757600080fd5b813567ffffffffffffffff811115611ede57600080fd5b8201601f81018413611eef57600080fd5b6110dd84823560208401611e3f565b600060208284031215611f1057600080fd5b61170782611d78565b60008060408385031215611f2c57600080fd5b611f3583611d78565b915060208301358015158114611f4a57600080fd5b809150509250929050565b60008060008060808587031215611f6b57600080fd5b611f7485611d78565b9350611f8260208601611d78565b925060408501359150606085013567ffffffffffffffff811115611fa557600080fd5b8501601f81018713611fb657600080fd5b611fc587823560208401611e3f565b91505092959194509250565b60008060408385031215611fe457600080fd5b611fed83611d78565b9150611e1d60208401611d78565b60028104600182168061200f57607f821691505b6020821081036120325760e060020a634e487b7102600052602260045260246000fd5b50919050565b60208082526031908201527f4552433732313a207472616e736665722063616c6c6572206973206e6f74206f60408201527f776e6572206e6f7220617070726f766564000000000000000000000000000000606082015260800190565b60e060020a634e487b7102600052603260045260246000fd5b600082516120c0818460208701611cf4565b9190910192915050565b601f821115610688576000818152602081206020601f860104810160208610156120f15750805b6020601f860104820191505b81811015612110578281556001016120fd565b505050505050565b815167ffffffffffffffff81111561213257612132611e26565b612146816121408454611ffb565b846120ca565b602080601f83116001811461217f57600084156121635750858301515b60028086026008870290910a6000190419821617865550612110565b600085815260208120601f198616915b828110156121ae5788860151825594840194600190910190840161218f565b50858210156121ce57878501516008601f88160260020a60001904191681555b5050505050600202600101905550565b60e060020a634e487b7102600052601160045260246000fd5b600082821015612209576122096121de565b500390565b60008219821115612221576122216121de565b500190565b7f416363657373436f6e74726f6c3a206163636f756e742000000000000000000081526000835161225e816017850160208801611cf4565b7f206973206d697373696e6720726f6c6520000000000000000000000000000000601791840191820152835161229b816028840160208801611cf4565b01602801949350505050565b60208082526032908201527f4552433732313a207472616e7366657220746f206e6f6e20455243373231526560408201527f63656976657220696d706c656d656e7465720000000000000000000000000000606082015260800190565b600081600019048311821515161561231e5761231e6121de565b500290565b600081612332576123326121de565b506000190190565b6000600160a060020a0380871683528086166020840152508360408301526080606083015261236c6080830184611d20565b9695505050505050565b60006020828403121561238857600080fd5b815161170781611cbe565b60e060020a634e487b7102600052603160045260246000fdfea264697066735822122021da8b88bd6e611e6fb41079ee0a5afe02655e12c2ccb08900a9eec53d143a9e64736f6c634300080f0033",
  "immutableReferences": {},
  "source": "// SPDX-License-Identifier: MIT\r\npragma solidity ^0.8.0;\r\n\r\nimport '@openzeppelin/contracts/token/ERC721/ERC721.sol';\r\nimport '@openzeppelin/contracts/token/ERC721/extensions/ERC721Enumerable.sol';\r\nimport '@openzeppelin/contracts/access/AccessControl.sol';\r\n\r\ncontract NFTCollection is ERC721, ERC721Enumerable, AccessControl {\r\n    bytes32 public constant MINTER_ROLE = keccak256('MINTER_ROLE');\r\n\r\n    string[] public tokenURIs;\r\n    mapping(string => bool) _tokenURIExists;\r\n    mapping(uint256 => string) _tokenIdToTokenURI;\r\n\r\n    function canMint(address _address) public view returns (bool) {\r\n        return hasRole(MINTER_ROLE, _address);\r\n    }\r\n\r\n    constructor(string memory _name, string memory _symbol) ERC721(_name, _symbol) {\r\n        _setupRole(DEFAULT_ADMIN_ROLE, _msgSender());\r\n        _setupRole(MINTER_ROLE, _msgSender());\r\n    }\r\n\r\n    function _beforeTokenTransfer(\r\n        address from,\r\n        address to,\r\n        uint256 tokenId\r\n    ) internal override(ERC721, ERC721Enumerable) {\r\n        super._beforeTokenTransfer(from, to, tokenId);\r\n    }\r\n\r\n    function supportsInterface(bytes4 interfaceId) public view override(ERC721, ERC721Enumerable, AccessControl) returns (bool) {\r\n        return super.supportsInterface(interfaceId);\r\n    }\r\n\r\n    function tokenURI(uint256 tokenId) public view override returns (string memory) {\r\n        require(_exists(tokenId), 'ERC721Metadata: URI query for nonexistent token');\r\n        return _tokenIdToTokenURI[tokenId];\r\n    }\r\n\r\n    function safeMint(string memory _tokenURI) public {\r\n        require(hasRole(MINTER_ROLE, _msgSender()), 'ERC721PresetMinterPauserAutoId: must have minter role to mint');\r\n        require(!_tokenURIExists[_tokenURI], 'The token URI should be unique');\r\n        tokenURIs.push(_tokenURI);\r\n        uint256 _id = tokenURIs.length; // based on 1\r\n        _tokenIdToTokenURI[_id] = _tokenURI;\r\n        _safeMint(msg.sender, _id);\r\n        _tokenURIExists[_tokenURI] = true;\r\n    }\r\n}\r\n",
  "sourcePath": "C:\\github\\trayanm\\TTMMarket\\src\\contracts\\NFTCollection.sol",
  "compiler": {
    "name": "solc",
    "version": "0.8.15+commit.e14f2714.Emscripten.clang"
  },
  "schemaVersion": "3.4.7",
  "updatedAt": "2022-06-16T16:53:33.620Z",
  "devdoc": {
    "kind": "dev",
    "methods": {
      "approve(address,uint256)": {
        "details": "See {IERC721-approve}."
      },
      "balanceOf(address)": {
        "details": "See {IERC721-balanceOf}."
      },
      "getApproved(uint256)": {
        "details": "See {IERC721-getApproved}."
      },
      "getRoleAdmin(bytes32)": {
        "details": "Returns the admin role that controls `role`. See {grantRole} and {revokeRole}. To change a role's admin, use {_setRoleAdmin}."
      },
      "grantRole(bytes32,address)": {
        "details": "Grants `role` to `account`. If `account` had not been already granted `role`, emits a {RoleGranted} event. Requirements: - the caller must have ``role``'s admin role."
      },
      "hasRole(bytes32,address)": {
        "details": "Returns `true` if `account` has been granted `role`."
      },
      "isApprovedForAll(address,address)": {
        "details": "See {IERC721-isApprovedForAll}."
      },
      "name()": {
        "details": "See {IERC721Metadata-name}."
      },
      "ownerOf(uint256)": {
        "details": "See {IERC721-ownerOf}."
      },
      "renounceRole(bytes32,address)": {
        "details": "Revokes `role` from the calling account. Roles are often managed via {grantRole} and {revokeRole}: this function's purpose is to provide a mechanism for accounts to lose their privileges if they are compromised (such as when a trusted device is misplaced). If the calling account had been granted `role`, emits a {RoleRevoked} event. Requirements: - the caller must be `account`."
      },
      "revokeRole(bytes32,address)": {
        "details": "Revokes `role` from `account`. If `account` had been granted `role`, emits a {RoleRevoked} event. Requirements: - the caller must have ``role``'s admin role."
      },
      "safeTransferFrom(address,address,uint256)": {
        "details": "See {IERC721-safeTransferFrom}."
      },
      "safeTransferFrom(address,address,uint256,bytes)": {
        "details": "See {IERC721-safeTransferFrom}."
      },
      "setApprovalForAll(address,bool)": {
        "details": "See {IERC721-setApprovalForAll}."
      },
      "symbol()": {
        "details": "See {IERC721Metadata-symbol}."
      },
      "tokenByIndex(uint256)": {
        "details": "See {IERC721Enumerable-tokenByIndex}."
      },
      "tokenOfOwnerByIndex(address,uint256)": {
        "details": "See {IERC721Enumerable-tokenOfOwnerByIndex}."
      },
      "tokenURI(uint256)": {
        "details": "See {IERC721Metadata-tokenURI}."
      },
      "totalSupply()": {
        "details": "See {IERC721Enumerable-totalSupply}."
      },
      "transferFrom(address,address,uint256)": {
        "details": "See {IERC721-transferFrom}."
      }
    },
    "version": 1
  },
  "userdoc": {
    "kind": "user",
    "methods": {},
    "version": 1
  }
}