{
  "contractName": "NFTCollection",
  "abi": [
    {
      "inputs": [
        {
          "internalType": "string",
          "name": "_name",
          "type": "string"
        },
        {
          "internalType": "string",
          "name": "_symbol",
          "type": "string"
        }
      ],
      "stateMutability": "nonpayable",
      "type": "constructor"
    },
    {
      "anonymous": false,
      "inputs": [
        {
          "indexed": true,
          "internalType": "address",
          "name": "owner",
          "type": "address"
        },
        {
          "indexed": true,
          "internalType": "address",
          "name": "approved",
          "type": "address"
        },
        {
          "indexed": true,
          "internalType": "uint256",
          "name": "tokenId",
          "type": "uint256"
        }
      ],
      "name": "Approval",
      "type": "event"
    },
    {
      "anonymous": false,
      "inputs": [
        {
          "indexed": true,
          "internalType": "address",
          "name": "owner",
          "type": "address"
        },
        {
          "indexed": true,
          "internalType": "address",
          "name": "operator",
          "type": "address"
        },
        {
          "indexed": false,
          "internalType": "bool",
          "name": "approved",
          "type": "bool"
        }
      ],
      "name": "ApprovalForAll",
      "type": "event"
    },
    {
      "anonymous": false,
      "inputs": [
        {
          "indexed": true,
          "internalType": "bytes32",
          "name": "role",
          "type": "bytes32"
        },
        {
          "indexed": true,
          "internalType": "bytes32",
          "name": "previousAdminRole",
          "type": "bytes32"
        },
        {
          "indexed": true,
          "internalType": "bytes32",
          "name": "newAdminRole",
          "type": "bytes32"
        }
      ],
      "name": "RoleAdminChanged",
      "type": "event"
    },
    {
      "anonymous": false,
      "inputs": [
        {
          "indexed": true,
          "internalType": "bytes32",
          "name": "role",
          "type": "bytes32"
        },
        {
          "indexed": true,
          "internalType": "address",
          "name": "account",
          "type": "address"
        },
        {
          "indexed": true,
          "internalType": "address",
          "name": "sender",
          "type": "address"
        }
      ],
      "name": "RoleGranted",
      "type": "event"
    },
    {
      "anonymous": false,
      "inputs": [
        {
          "indexed": true,
          "internalType": "bytes32",
          "name": "role",
          "type": "bytes32"
        },
        {
          "indexed": true,
          "internalType": "address",
          "name": "account",
          "type": "address"
        },
        {
          "indexed": true,
          "internalType": "address",
          "name": "sender",
          "type": "address"
        }
      ],
      "name": "RoleRevoked",
      "type": "event"
    },
    {
      "anonymous": false,
      "inputs": [
        {
          "indexed": true,
          "internalType": "address",
          "name": "from",
          "type": "address"
        },
        {
          "indexed": true,
          "internalType": "address",
          "name": "to",
          "type": "address"
        },
        {
          "indexed": true,
          "internalType": "uint256",
          "name": "tokenId",
          "type": "uint256"
        }
      ],
      "name": "Transfer",
      "type": "event"
    },
    {
      "inputs": [],
      "name": "DEFAULT_ADMIN_ROLE",
      "outputs": [
        {
          "internalType": "bytes32",
          "name": "",
          "type": "bytes32"
        }
      ],
      "stateMutability": "view",
      "type": "function"
    },
    {
      "inputs": [],
      "name": "MINTER_ROLE",
      "outputs": [
        {
          "internalType": "bytes32",
          "name": "",
          "type": "bytes32"
        }
      ],
      "stateMutability": "view",
      "type": "function"
    },
    {
      "inputs": [
        {
          "internalType": "address",
          "name": "to",
          "type": "address"
        },
        {
          "internalType": "uint256",
          "name": "tokenId",
          "type": "uint256"
        }
      ],
      "name": "approve",
      "outputs": [],
      "stateMutability": "nonpayable",
      "type": "function"
    },
    {
      "inputs": [
        {
          "internalType": "address",
          "name": "owner",
          "type": "address"
        }
      ],
      "name": "balanceOf",
      "outputs": [
        {
          "internalType": "uint256",
          "name": "",
          "type": "uint256"
        }
      ],
      "stateMutability": "view",
      "type": "function"
    },
    {
      "inputs": [
        {
          "internalType": "uint256",
          "name": "tokenId",
          "type": "uint256"
        }
      ],
      "name": "getApproved",
      "outputs": [
        {
          "internalType": "address",
          "name": "",
          "type": "address"
        }
      ],
      "stateMutability": "view",
      "type": "function"
    },
    {
      "inputs": [
        {
          "internalType": "bytes32",
          "name": "role",
          "type": "bytes32"
        }
      ],
      "name": "getRoleAdmin",
      "outputs": [
        {
          "internalType": "bytes32",
          "name": "",
          "type": "bytes32"
        }
      ],
      "stateMutability": "view",
      "type": "function"
    },
    {
      "inputs": [
        {
          "internalType": "bytes32",
          "name": "role",
          "type": "bytes32"
        },
        {
          "internalType": "address",
          "name": "account",
          "type": "address"
        }
      ],
      "name": "grantRole",
      "outputs": [],
      "stateMutability": "nonpayable",
      "type": "function"
    },
    {
      "inputs": [
        {
          "internalType": "bytes32",
          "name": "role",
          "type": "bytes32"
        },
        {
          "internalType": "address",
          "name": "account",
          "type": "address"
        }
      ],
      "name": "hasRole",
      "outputs": [
        {
          "internalType": "bool",
          "name": "",
          "type": "bool"
        }
      ],
      "stateMutability": "view",
      "type": "function"
    },
    {
      "inputs": [
        {
          "internalType": "address",
          "name": "owner",
          "type": "address"
        },
        {
          "internalType": "address",
          "name": "operator",
          "type": "address"
        }
      ],
      "name": "isApprovedForAll",
      "outputs": [
        {
          "internalType": "bool",
          "name": "",
          "type": "bool"
        }
      ],
      "stateMutability": "view",
      "type": "function"
    },
    {
      "inputs": [],
      "name": "name",
      "outputs": [
        {
          "internalType": "string",
          "name": "",
          "type": "string"
        }
      ],
      "stateMutability": "view",
      "type": "function"
    },
    {
      "inputs": [
        {
          "internalType": "uint256",
          "name": "tokenId",
          "type": "uint256"
        }
      ],
      "name": "ownerOf",
      "outputs": [
        {
          "internalType": "address",
          "name": "",
          "type": "address"
        }
      ],
      "stateMutability": "view",
      "type": "function"
    },
    {
      "inputs": [
        {
          "internalType": "bytes32",
          "name": "role",
          "type": "bytes32"
        },
        {
          "internalType": "address",
          "name": "account",
          "type": "address"
        }
      ],
      "name": "renounceRole",
      "outputs": [],
      "stateMutability": "nonpayable",
      "type": "function"
    },
    {
      "inputs": [
        {
          "internalType": "bytes32",
          "name": "role",
          "type": "bytes32"
        },
        {
          "internalType": "address",
          "name": "account",
          "type": "address"
        }
      ],
      "name": "revokeRole",
      "outputs": [],
      "stateMutability": "nonpayable",
      "type": "function"
    },
    {
      "inputs": [
        {
          "internalType": "address",
          "name": "from",
          "type": "address"
        },
        {
          "internalType": "address",
          "name": "to",
          "type": "address"
        },
        {
          "internalType": "uint256",
          "name": "tokenId",
          "type": "uint256"
        }
      ],
      "name": "safeTransferFrom",
      "outputs": [],
      "stateMutability": "nonpayable",
      "type": "function"
    },
    {
      "inputs": [
        {
          "internalType": "address",
          "name": "from",
          "type": "address"
        },
        {
          "internalType": "address",
          "name": "to",
          "type": "address"
        },
        {
          "internalType": "uint256",
          "name": "tokenId",
          "type": "uint256"
        },
        {
          "internalType": "bytes",
          "name": "_data",
          "type": "bytes"
        }
      ],
      "name": "safeTransferFrom",
      "outputs": [],
      "stateMutability": "nonpayable",
      "type": "function"
    },
    {
      "inputs": [
        {
          "internalType": "address",
          "name": "operator",
          "type": "address"
        },
        {
          "internalType": "bool",
          "name": "approved",
          "type": "bool"
        }
      ],
      "name": "setApprovalForAll",
      "outputs": [],
      "stateMutability": "nonpayable",
      "type": "function"
    },
    {
      "inputs": [],
      "name": "symbol",
      "outputs": [
        {
          "internalType": "string",
          "name": "",
          "type": "string"
        }
      ],
      "stateMutability": "view",
      "type": "function"
    },
    {
      "inputs": [
        {
          "internalType": "uint256",
          "name": "index",
          "type": "uint256"
        }
      ],
      "name": "tokenByIndex",
      "outputs": [
        {
          "internalType": "uint256",
          "name": "",
          "type": "uint256"
        }
      ],
      "stateMutability": "view",
      "type": "function"
    },
    {
      "inputs": [
        {
          "internalType": "address",
          "name": "owner",
          "type": "address"
        },
        {
          "internalType": "uint256",
          "name": "index",
          "type": "uint256"
        }
      ],
      "name": "tokenOfOwnerByIndex",
      "outputs": [
        {
          "internalType": "uint256",
          "name": "",
          "type": "uint256"
        }
      ],
      "stateMutability": "view",
      "type": "function"
    },
    {
      "inputs": [
        {
          "internalType": "uint256",
          "name": "",
          "type": "uint256"
        }
      ],
      "name": "tokenURIs",
      "outputs": [
        {
          "internalType": "string",
          "name": "",
          "type": "string"
        }
      ],
      "stateMutability": "view",
      "type": "function"
    },
    {
      "inputs": [],
      "name": "totalSupply",
      "outputs": [
        {
          "internalType": "uint256",
          "name": "",
          "type": "uint256"
        }
      ],
      "stateMutability": "view",
      "type": "function"
    },
    {
      "inputs": [
        {
          "internalType": "address",
          "name": "from",
          "type": "address"
        },
        {
          "internalType": "address",
          "name": "to",
          "type": "address"
        },
        {
          "internalType": "uint256",
          "name": "tokenId",
          "type": "uint256"
        }
      ],
      "name": "transferFrom",
      "outputs": [],
      "stateMutability": "nonpayable",
      "type": "function"
    },
    {
      "inputs": [
        {
          "internalType": "address",
          "name": "_address",
          "type": "address"
        }
      ],
      "name": "canMint",
      "outputs": [
        {
          "internalType": "bool",
          "name": "",
          "type": "bool"
        }
      ],
      "stateMutability": "view",
      "type": "function"
    },
    {
      "inputs": [
        {
          "internalType": "bytes4",
          "name": "interfaceId",
          "type": "bytes4"
        }
      ],
      "name": "supportsInterface",
      "outputs": [
        {
          "internalType": "bool",
          "name": "",
          "type": "bool"
        }
      ],
      "stateMutability": "view",
      "type": "function"
    },
    {
      "inputs": [
        {
          "internalType": "uint256",
          "name": "tokenId",
          "type": "uint256"
        }
      ],
      "name": "tokenURI",
      "outputs": [
        {
          "internalType": "string",
          "name": "",
          "type": "string"
        }
      ],
      "stateMutability": "view",
      "type": "function"
    },
    {
      "inputs": [
        {
          "internalType": "string",
          "name": "_tokenURI",
          "type": "string"
        }
      ],
      "name": "safeMint",
      "outputs": [],
      "stateMutability": "nonpayable",
      "type": "function"
    }
  ],
  "bytecode": "0x60806040523480156200001157600080fd5b506040516200287f3803806200287f83398101604081905262000034916200028c565b818160006200004483826200039e565b5060016200005382826200039e565b506200008091506000905062000071640100000000620000c0810204565b640100000000620000c4810204565b620000b87f9f2df0fed2c77648de5860a4cc508cd0818c85b8b8a1ab4ceeef8d981c8956a662000071640100000000620000c0810204565b505062000470565b3390565b620000d98282640100000000620000dd810204565b5050565b620000f282826401000000006200017b810204565b620000d9576000828152600a60209081526040808320600160a060020a03851684529091529020805460ff1916600117905562000137640100000000620000c0810204565b600160a060020a031681600160a060020a0316837f2f8788117e7eff1d82e926ec794901d17c78024a50270940304540a733656f0d60405160405180910390a45050565b6000918252600a60209081526040808420600160a060020a0393909316845291905290205460ff1690565b7f4e487b7100000000000000000000000000000000000000000000000000000000600052604160045260246000fd5b600082601f830112620001e757600080fd5b81516001604060020a0380821115620002045762000204620001a6565b604051601f8301601f19908116603f011681019082821181831017156200022f576200022f620001a6565b816040528381526020925086838588010111156200024c57600080fd5b600091505b8382101562000270578582018301518183018401529082019062000251565b83821115620002825760008385830101525b9695505050505050565b60008060408385031215620002a057600080fd5b82516001604060020a0380821115620002b857600080fd5b620002c686838701620001d5565b93506020850151915080821115620002dd57600080fd5b50620002ec85828601620001d5565b9150509250929050565b6002810460018216806200030b57607f821691505b60208210810362000345577f4e487b7100000000000000000000000000000000000000000000000000000000600052602260045260246000fd5b50919050565b601f82111562000399576000818152602081206020601f86010481016020861015620003745750805b6020601f860104820191505b81811015620003955782815560010162000380565b5050505b505050565b81516001604060020a03811115620003ba57620003ba620001a6565b620003d281620003cb8454620002f6565b846200034b565b602080601f8311600181146200040e5760008415620003f15750858301515b60028086026008870290910a600019041982161786555062000395565b600085815260208120601f198616915b828110156200043f578886015182559484019460019091019084016200041e565b50858210156200046057878501516008601f88160260020a60001904191681555b5050505050600202600101905550565b6123ff80620004806000396000f3fe608060405234801561001057600080fd5b50600436106101ab576000357c010000000000000000000000000000000000000000000000000000000090048063695850fb116100fb578063a22cb465116100b4578063c87b56dd1161008e578063c87b56dd1461037c578063d53913931461038f578063d547741f146103b6578063e985e9c5146103c957600080fd5b8063a22cb46514610343578063b88d4fde14610356578063c2ba47441461036957600080fd5b8063695850fb146102e75780636c8b703f146102fa57806370a082311461030d57806391d148541461032057806395d89b4114610333578063a217fddf1461033b57600080fd5b8063248a9ca31161016857806336568abe1161014257806336568abe1461029b57806342842e0e146102ae5780634f6ccce7146102c15780636352211e146102d457600080fd5b8063248a9ca3146102525780632f2ff15d146102755780632f745c591461028857600080fd5b806301ffc9a7146101b057806306fdde03146101d8578063081812fc146101ed578063095ea7b31461021857806318160ddd1461022d57806323b872dd1461023f575b600080fd5b6101c36101be366004611cf4565b610405565b60405190151581526020015b60405180910390f35b6101e0610416565b6040516101cf9190611d69565b6102006101fb366004611d7c565b6104a8565b604051600160a060020a0390911681526020016101cf565b61022b610226366004611db1565b610556565b005b6008545b6040519081526020016101cf565b61022b61024d366004611ddb565b61068d565b610231610260366004611d7c565b6000908152600a602052604090206001015490565b61022b610283366004611e17565b6106c1565b610231610296366004611db1565b6106e6565b61022b6102a9366004611e17565b610791565b61022b6102bc366004611ddb565b610820565b6102316102cf366004611d7c565b61083b565b6102006102e2366004611d7c565b6108e2565b61022b6102f5366004611ed2565b610970565b6101e0610308366004611d7c565b610b1b565b61023161031b366004611f1b565b610bc7565b6101c361032e366004611e17565b610c64565b6101e0610c8f565b610231600081565b61022b610351366004611f36565b610c9e565b61022b610364366004611f72565b610ca9565b6101c3610377366004611f1b565b610ce4565b6101e061038a366004611d7c565b610d10565b6102317f9f2df0fed2c77648de5860a4cc508cd0818c85b8b8a1ab4ceeef8d981c8956a681565b61022b6103c4366004611e17565b610e3e565b6101c36103d7366004611fee565b600160a060020a03918216600090815260056020908152604080832093909416825291909152205460ff1690565b600061041082610e63565b92915050565b60606000805461042590612018565b80601f016020809104026020016040519081016040528092919081815260200182805461045190612018565b801561049e5780601f106104735761010080835404028352916020019161049e565b820191906000526020600020905b81548152906001019060200180831161048157829003601f168201915b5050505050905090565b600081815260026020526040812054600160a060020a031661053a5760405160e560020a62461bcd02815260206004820152602c60248201527f4552433732313a20617070726f76656420717565727920666f72206e6f6e657860448201527f697374656e7420746f6b656e000000000000000000000000000000000000000060648201526084015b60405180910390fd5b50600090815260046020526040902054600160a060020a031690565b6000610561826108e2565b905080600160a060020a031683600160a060020a0316036105ed5760405160e560020a62461bcd02815260206004820152602160248201527f4552433732313a20617070726f76616c20746f2063757272656e74206f776e6560448201527f72000000000000000000000000000000000000000000000000000000000000006064820152608401610531565b33600160a060020a0382161480610609575061060981336103d7565b61067e5760405160e560020a62461bcd02815260206004820152603860248201527f4552433732313a20617070726f76652063616c6c6572206973206e6f74206f7760448201527f6e6572206e6f7220617070726f76656420666f7220616c6c00000000000000006064820152608401610531565b6106888383610ea1565b505050565b6106973382610f1c565b6106b65760405160e560020a62461bcd02815260040161053190612055565b610688838383611027565b6000828152600a60205260409020600101546106dc81611212565b610688838361121f565b60006106f183610bc7565b82106107685760405160e560020a62461bcd02815260206004820152602b60248201527f455243373231456e756d657261626c653a206f776e657220696e646578206f7560448201527f74206f6620626f756e64730000000000000000000000000000000000000000006064820152608401610531565b50600160a060020a03919091166000908152600660209081526040808320938352929052205490565b600160a060020a03811633146108125760405160e560020a62461bcd02815260206004820152602f60248201527f416363657373436f6e74726f6c3a2063616e206f6e6c792072656e6f756e636560448201527f20726f6c657320666f722073656c6600000000000000000000000000000000006064820152608401610531565b61081c82826112a5565b5050565b61068883838360405180602001604052806000815250610ca9565b600061084660085490565b82106108bd5760405160e560020a62461bcd02815260206004820152602c60248201527f455243373231456e756d657261626c653a20676c6f62616c20696e646578206f60448201527f7574206f6620626f756e647300000000000000000000000000000000000000006064820152608401610531565b600882815481106108d0576108d06120b2565b90600052602060002001549050919050565b600081815260026020526040812054600160a060020a0316806104105760405160e560020a62461bcd02815260206004820152602960248201527f4552433732313a206f776e657220717565727920666f72206e6f6e657869737460448201527f656e7420746f6b656e00000000000000000000000000000000000000000000006064820152608401610531565b61099a7f9f2df0fed2c77648de5860a4cc508cd0818c85b8b8a1ab4ceeef8d981c8956a633610c64565b610a0f5760405160e560020a62461bcd02815260206004820152603d60248201527f4552433732315072657365744d696e7465725061757365724175746f49643a2060448201527f6d7573742068617665206d696e74657220726f6c6520746f206d696e740000006064820152608401610531565b600c81604051610a1f91906120cb565b9081526040519081900360200190205460ff1615610a825760405160e560020a62461bcd02815260206004820152601e60248201527f54686520746f6b656e205552492073686f756c6420626520756e6971756500006044820152606401610531565b600b80546001810182556000919091527f0175b7a638427703f0dbe7bb9bbf987a2551717b34e79f33b5b1008d1fa01db901610abe8282612135565b50600b546000818152600d60205260409020610ada8382612135565b50610ae5338261130c565b6001600c83604051610af791906120cb565b908152604051908190036020019020805491151560ff199092169190911790555050565b600b8181548110610b2b57600080fd5b906000526020600020016000915090508054610b4690612018565b80601f0160208091040260200160405190810160405280929190818152602001828054610b7290612018565b8015610bbf5780601f10610b9457610100808354040283529160200191610bbf565b820191906000526020600020905b815481529060010190602001808311610ba257829003601f168201915b505050505081565b6000600160a060020a038216610c485760405160e560020a62461bcd02815260206004820152602a60248201527f4552433732313a2062616c616e636520717565727920666f7220746865207a6560448201527f726f2061646472657373000000000000000000000000000000000000000000006064820152608401610531565b50600160a060020a031660009081526003602052604090205490565b6000918252600a60209081526040808420600160a060020a0393909316845291905290205460ff1690565b60606001805461042590612018565b61081c338383611326565b610cb33383610f1c565b610cd25760405160e560020a62461bcd02815260040161053190612055565b610cde848484846113f7565b50505050565b60006104107f9f2df0fed2c77648de5860a4cc508cd0818c85b8b8a1ab4ceeef8d981c8956a683610c64565b600081815260026020526040902054606090600160a060020a0316610da05760405160e560020a62461bcd02815260206004820152602f60248201527f4552433732314d657461646174613a2055524920717565727920666f72206e6f60448201527f6e6578697374656e7420746f6b656e00000000000000000000000000000000006064820152608401610531565b6000828152600d602052604090208054610db990612018565b80601f0160208091040260200160405190810160405280929190818152602001828054610de590612018565b8015610e325780601f10610e0757610100808354040283529160200191610e32565b820191906000526020600020905b815481529060010190602001808311610e1557829003601f168201915b50505050509050919050565b6000828152600a6020526040902060010154610e5981611212565b61068883836112a5565b6000600160e060020a031982167f7965db0b00000000000000000000000000000000000000000000000000000000148061041057506104108261142d565b6000818152600460205260409020805473ffffffffffffffffffffffffffffffffffffffff1916600160a060020a0384169081179091558190610ee3826108e2565b600160a060020a03167f8c5be1e5ebec7d5bd14f71427d1e84f3dd0314c0f7b2291e5b200ac8c7c3b92560405160405180910390a45050565b600081815260026020526040812054600160a060020a0316610fa95760405160e560020a62461bcd02815260206004820152602c60248201527f4552433732313a206f70657261746f7220717565727920666f72206e6f6e657860448201527f697374656e7420746f6b656e00000000000000000000000000000000000000006064820152608401610531565b6000610fb4836108e2565b905080600160a060020a031684600160a060020a03161480610ffb5750600160a060020a0380821660009081526005602090815260408083209388168352929052205460ff165b8061101f575083600160a060020a0316611014846104a8565b600160a060020a0316145b949350505050565b82600160a060020a031661103a826108e2565b600160a060020a0316146110b95760405160e560020a62461bcd02815260206004820152602560248201527f4552433732313a207472616e736665722066726f6d20696e636f72726563742060448201527f6f776e65720000000000000000000000000000000000000000000000000000006064820152608401610531565b600160a060020a0382166111375760405160e560020a62461bcd028152602060048201526024808201527f4552433732313a207472616e7366657220746f20746865207a65726f2061646460448201527f72657373000000000000000000000000000000000000000000000000000000006064820152608401610531565b61114283838361146b565b61114d600082610ea1565b600160a060020a0383166000908152600360205260408120805460019290611176908490612214565b9091555050600160a060020a03821660009081526003602052604081208054600192906111a490849061222b565b9091555050600081815260026020526040808220805473ffffffffffffffffffffffffffffffffffffffff1916600160a060020a0386811691821790925591518493918716917fddf252ad1be2c89b69c2b068fc378daa952ba7f163c4a11628f55a4df523b3ef91a4505050565b61121c8133611476565b50565b6112298282610c64565b61081c576000828152600a60209081526040808320600160a060020a03851684529091529020805460ff191660011790556112613390565b600160a060020a031681600160a060020a0316837f2f8788117e7eff1d82e926ec794901d17c78024a50270940304540a733656f0d60405160405180910390a45050565b6112af8282610c64565b1561081c576000828152600a60209081526040808320600160a060020a0385168085529252808320805460ff1916905551339285917ff6391f5c32d9c69d2a47ea670b442974b53935d1edc7fd64eb21e047a839171b9190a45050565b61081c8282604051806020016040528060008152506114dd565b81600160a060020a031683600160a060020a03160361138a5760405160e560020a62461bcd02815260206004820152601960248201527f4552433732313a20617070726f766520746f2063616c6c6572000000000000006044820152606401610531565b600160a060020a03838116600081815260056020908152604080832094871680845294825291829020805460ff191686151590811790915591519182527f17307eab39ab6107e8899845ad3d59bd9653f200f220920489ca2b5937696c31910160405180910390a3505050565b611402848484611027565b61140e84848484611513565b610cde5760405160e560020a62461bcd02815260040161053190612243565b6000600160e060020a031982167f780e9d63000000000000000000000000000000000000000000000000000000001480610410575061041082611649565b6106888383836116e4565b6114808282610c64565b61081c5761149881600160a060020a0316601461179c565b6114a383602061179c565b6040516020016114b49291906122a0565b60408051601f198184030181529082905260e560020a62461bcd02825261053191600401611d69565b6114e783836119ed565b6114f46000848484611513565b6106885760405160e560020a62461bcd02815260040161053190612243565b6000600160a060020a0384163b1561163e576040517f150b7a02000000000000000000000000000000000000000000000000000000008152600160a060020a0385169063150b7a0290611570903390899088908890600401612321565b6020604051808303816000875af19250505080156115ab575060408051601f3d908101601f191682019092526115a89181019061235d565b60015b61160b573d8080156115d9576040519150601f19603f3d011682016040523d82523d6000602084013e6115de565b606091505b5080516000036116035760405160e560020a62461bcd02815260040161053190612243565b805181602001fd5b600160e060020a0319167f150b7a020000000000000000000000000000000000000000000000000000000014905061101f565b506001949350505050565b6000600160e060020a031982167f80ac58cd0000000000000000000000000000000000000000000000000000000014806116ac5750600160e060020a031982167f5b5e139f00000000000000000000000000000000000000000000000000000000145b8061041057507f01ffc9a700000000000000000000000000000000000000000000000000000000600160e060020a0319831614610410565b600160a060020a03831661173f5761173a81600880546000838152600960205260408120829055600182018355919091527ff3f7a9fe364faab93b216da50a3214154f22a0a2b415b23a84c8169e8b636ee30155565b611762565b81600160a060020a031683600160a060020a031614611762576117628382611b4e565b600160a060020a0382166117795761068881611beb565b82600160a060020a031682600160a060020a031614610688576106888282611c9a565b606060006117ab83600261237a565b6117b690600261222b565b67ffffffffffffffff8111156117ce576117ce611e43565b6040519080825280601f01601f1916602001820160405280156117f8576020820181803683370190505b5090507f30000000000000000000000000000000000000000000000000000000000000008160008151811061182f5761182f6120b2565b60200101907effffffffffffffffffffffffffffffffffffffffffffffffffffffffffffff1916908160001a9053507f780000000000000000000000000000000000000000000000000000000000000081600181518110611892576118926120b2565b60200101907effffffffffffffffffffffffffffffffffffffffffffffffffffffffffffff1916908160001a90535060006118ce84600261237a565b6118d990600161222b565b90505b6001811115611994577f303132333435363738396162636465660000000000000000000000000000000085600f166010811061191a5761191a6120b2565b1a7f01000000000000000000000000000000000000000000000000000000000000000282828151811061194f5761194f6120b2565b60200101907effffffffffffffffffffffffffffffffffffffffffffffffffffffffffffff1916908160001a90535060109094049361198d81612399565b90506118dc565b5083156119e65760405160e560020a62461bcd02815260206004820181905260248201527f537472696e67733a20686578206c656e67746820696e73756666696369656e746044820152606401610531565b9392505050565b600160a060020a038216611a465760405160e560020a62461bcd02815260206004820181905260248201527f4552433732313a206d696e7420746f20746865207a65726f20616464726573736044820152606401610531565b600081815260026020526040902054600160a060020a031615611aae5760405160e560020a62461bcd02815260206004820152601c60248201527f4552433732313a20746f6b656e20616c7265616479206d696e746564000000006044820152606401610531565b611aba6000838361146b565b600160a060020a0382166000908152600360205260408120805460019290611ae390849061222b565b9091555050600081815260026020526040808220805473ffffffffffffffffffffffffffffffffffffffff1916600160a060020a03861690811790915590518392907fddf252ad1be2c89b69c2b068fc378daa952ba7f163c4a11628f55a4df523b3ef908290a45050565b60006001611b5b84610bc7565b611b659190612214565b600083815260076020526040902054909150808214611bb857600160a060020a03841660009081526006602090815260408083208584528252808320548484528184208190558352600790915290208190555b506000918252600760209081526040808420849055600160a060020a039094168352600681528383209183525290812055565b600854600090611bfd90600190612214565b60008381526009602052604081205460088054939450909284908110611c2557611c256120b2565b906000526020600020015490508060088381548110611c4657611c466120b2565b6000918252602080832090910192909255828152600990915260408082208490558582528120556008805480611c7e57611c7e6123b0565b6001900381819060005260206000200160009055905550505050565b6000611ca583610bc7565b600160a060020a039093166000908152600660209081526040808320868452825280832085905593825260079052919091209190915550565b600160e060020a03198116811461121c57600080fd5b600060208284031215611d0657600080fd5b81356119e681611cde565b60005b83811015611d2c578181015183820152602001611d14565b83811115610cde5750506000910152565b60008151808452611d55816020860160208601611d11565b601f01601f19169290920160200192915050565b6020815260006119e66020830184611d3d565b600060208284031215611d8e57600080fd5b5035919050565b8035600160a060020a0381168114611dac57600080fd5b919050565b60008060408385031215611dc457600080fd5b611dcd83611d95565b946020939093013593505050565b600080600060608486031215611df057600080fd5b611df984611d95565b9250611e0760208501611d95565b9150604084013590509250925092565b60008060408385031215611e2a57600080fd5b82359150611e3a60208401611d95565b90509250929050565b60e060020a634e487b7102600052604160045260246000fd5b600067ffffffffffffffff80841115611e7757611e77611e43565b604051601f8501601f19908116603f01168101908282118183101715611e9f57611e9f611e43565b81604052809350858152868686011115611eb857600080fd5b858560208301376000602087830101525050509392505050565b600060208284031215611ee457600080fd5b813567ffffffffffffffff811115611efb57600080fd5b8201601f81018413611f0c57600080fd5b61101f84823560208401611e5c565b600060208284031215611f2d57600080fd5b6119e682611d95565b60008060408385031215611f4957600080fd5b611f5283611d95565b915060208301358015158114611f6757600080fd5b809150509250929050565b60008060008060808587031215611f8857600080fd5b611f9185611d95565b9350611f9f60208601611d95565b925060408501359150606085013567ffffffffffffffff811115611fc257600080fd5b8501601f81018713611fd357600080fd5b611fe287823560208401611e5c565b91505092959194509250565b6000806040838503121561200157600080fd5b61200a83611d95565b9150611e3a60208401611d95565b60028104600182168061202c57607f821691505b60208210810361204f5760e060020a634e487b7102600052602260045260246000fd5b50919050565b60208082526031908201527f4552433732313a207472616e736665722063616c6c6572206973206e6f74206f60408201527f776e6572206e6f7220617070726f766564000000000000000000000000000000606082015260800190565b60e060020a634e487b7102600052603260045260246000fd5b600082516120dd818460208701611d11565b9190910192915050565b601f821115610688576000818152602081206020601f8601048101602086101561210e5750805b6020601f860104820191505b8181101561212d5782815560010161211a565b505050505050565b815167ffffffffffffffff81111561214f5761214f611e43565b6121638161215d8454612018565b846120e7565b602080601f83116001811461219c57600084156121805750858301515b60028086026008870290910a600019041982161786555061212d565b600085815260208120601f198616915b828110156121cb578886015182559484019460019091019084016121ac565b50858210156121eb57878501516008601f88160260020a60001904191681555b5050505050600202600101905550565b60e060020a634e487b7102600052601160045260246000fd5b600082821015612226576122266121fb565b500390565b6000821982111561223e5761223e6121fb565b500190565b60208082526032908201527f4552433732313a207472616e7366657220746f206e6f6e20455243373231526560408201527f63656976657220696d706c656d656e7465720000000000000000000000000000606082015260800190565b7f416363657373436f6e74726f6c3a206163636f756e74200000000000000000008152600083516122d8816017850160208801611d11565b7f206973206d697373696e6720726f6c65200000000000000000000000000000006017918401918201528351612315816028840160208801611d11565b01602801949350505050565b6000600160a060020a038087168352808616602084015250836040830152608060608301526123536080830184611d3d565b9695505050505050565b60006020828403121561236f57600080fd5b81516119e681611cde565b6000816000190483118215151615612394576123946121fb565b500290565b6000816123a8576123a86121fb565b506000190190565b60e060020a634e487b7102600052603160045260246000fdfea264697066735822122018cfd151d79ee5e988959d6dbb60cfc095183f200265ce6c6f7303e50051f37564736f6c634300080f0033",
  "immutableReferences": {},
  "source": "// SPDX-License-Identifier: MIT\r\npragma solidity ^0.8.0;\r\n\r\nimport '@openzeppelin/contracts/token/ERC721/ERC721.sol';\r\nimport '@openzeppelin/contracts/token/ERC721/extensions/ERC721Enumerable.sol';\r\nimport '@openzeppelin/contracts/access/AccessControl.sol';\r\n\r\ncontract NFTCollection is ERC721, ERC721Enumerable, AccessControl {\r\n    bytes32 public constant MINTER_ROLE = keccak256('MINTER_ROLE');\r\n\r\n    string[] public tokenURIs;\r\n    mapping(string => bool) _tokenURIExists;\r\n    mapping(uint256 => string) _tokenIdToTokenURI;\r\n\r\n    function canMint(address _address) public view returns (bool) {\r\n        return hasRole(MINTER_ROLE, _address);\r\n    }\r\n\r\n    constructor(string memory _name, string memory _symbol) ERC721(_name, _symbol) {\r\n        _setupRole(DEFAULT_ADMIN_ROLE, _msgSender());\r\n        _setupRole(MINTER_ROLE, _msgSender());\r\n    }\r\n\r\n    function _beforeTokenTransfer(\r\n        address from,\r\n        address to,\r\n        uint256 tokenId\r\n    ) internal override(ERC721, ERC721Enumerable) {\r\n        super._beforeTokenTransfer(from, to, tokenId);\r\n    }\r\n\r\n    function supportsInterface(bytes4 interfaceId) public view override(ERC721, ERC721Enumerable, AccessControl) returns (bool) {\r\n        return super.supportsInterface(interfaceId);\r\n    }\r\n\r\n    function tokenURI(uint256 tokenId) public view override returns (string memory) {\r\n        require(_exists(tokenId), 'ERC721Metadata: URI query for nonexistent token');\r\n        return _tokenIdToTokenURI[tokenId];\r\n    }\r\n\r\n    function safeMint(string memory _tokenURI) public {\r\n        require(hasRole(MINTER_ROLE, _msgSender()), 'ERC721PresetMinterPauserAutoId: must have minter role to mint');\r\n        require(!_tokenURIExists[_tokenURI], 'The token URI should be unique');\r\n        tokenURIs.push(_tokenURI);\r\n        uint256 _id = tokenURIs.length; // based on 1\r\n        _tokenIdToTokenURI[_id] = _tokenURI;\r\n        _safeMint(msg.sender, _id);\r\n        _tokenURIExists[_tokenURI] = true;\r\n    }\r\n}\r\n",
  "sourcePath": "C:\\github\\trayanm\\TTMMarket\\src\\contracts\\NFTCollection.sol",
  "compiler": {
    "name": "solc",
    "version": "0.8.15+commit.e14f2714.Emscripten.clang"
  },
  "schemaVersion": "3.4.7",
  "updatedAt": "2022-06-21T08:36:33.193Z",
  "devdoc": {
    "kind": "dev",
    "methods": {
      "approve(address,uint256)": {
        "details": "See {IERC721-approve}."
      },
      "balanceOf(address)": {
        "details": "See {IERC721-balanceOf}."
      },
      "getApproved(uint256)": {
        "details": "See {IERC721-getApproved}."
      },
      "getRoleAdmin(bytes32)": {
        "details": "Returns the admin role that controls `role`. See {grantRole} and {revokeRole}. To change a role's admin, use {_setRoleAdmin}."
      },
      "grantRole(bytes32,address)": {
        "details": "Grants `role` to `account`. If `account` had not been already granted `role`, emits a {RoleGranted} event. Requirements: - the caller must have ``role``'s admin role."
      },
      "hasRole(bytes32,address)": {
        "details": "Returns `true` if `account` has been granted `role`."
      },
      "isApprovedForAll(address,address)": {
        "details": "See {IERC721-isApprovedForAll}."
      },
      "name()": {
        "details": "See {IERC721Metadata-name}."
      },
      "ownerOf(uint256)": {
        "details": "See {IERC721-ownerOf}."
      },
      "renounceRole(bytes32,address)": {
        "details": "Revokes `role` from the calling account. Roles are often managed via {grantRole} and {revokeRole}: this function's purpose is to provide a mechanism for accounts to lose their privileges if they are compromised (such as when a trusted device is misplaced). If the calling account had been revoked `role`, emits a {RoleRevoked} event. Requirements: - the caller must be `account`."
      },
      "revokeRole(bytes32,address)": {
        "details": "Revokes `role` from `account`. If `account` had been granted `role`, emits a {RoleRevoked} event. Requirements: - the caller must have ``role``'s admin role."
      },
      "safeTransferFrom(address,address,uint256)": {
        "details": "See {IERC721-safeTransferFrom}."
      },
      "safeTransferFrom(address,address,uint256,bytes)": {
        "details": "See {IERC721-safeTransferFrom}."
      },
      "setApprovalForAll(address,bool)": {
        "details": "See {IERC721-setApprovalForAll}."
      },
      "symbol()": {
        "details": "See {IERC721Metadata-symbol}."
      },
      "tokenByIndex(uint256)": {
        "details": "See {IERC721Enumerable-tokenByIndex}."
      },
      "tokenOfOwnerByIndex(address,uint256)": {
        "details": "See {IERC721Enumerable-tokenOfOwnerByIndex}."
      },
      "tokenURI(uint256)": {
        "details": "See {IERC721Metadata-tokenURI}."
      },
      "totalSupply()": {
        "details": "See {IERC721Enumerable-totalSupply}."
      },
      "transferFrom(address,address,uint256)": {
        "details": "See {IERC721-transferFrom}."
      }
    },
    "version": 1
  },
  "userdoc": {
    "kind": "user",
    "methods": {},
    "version": 1
  }
}