{
  "contractName": "NFTCollection",
  "abi": [
    {
      "inputs": [
        {
          "internalType": "string",
          "name": "_name",
          "type": "string"
        },
        {
          "internalType": "string",
          "name": "_symbol",
          "type": "string"
        }
      ],
      "stateMutability": "nonpayable",
      "type": "constructor"
    },
    {
      "anonymous": false,
      "inputs": [
        {
          "indexed": true,
          "internalType": "address",
          "name": "owner",
          "type": "address"
        },
        {
          "indexed": true,
          "internalType": "address",
          "name": "approved",
          "type": "address"
        },
        {
          "indexed": true,
          "internalType": "uint256",
          "name": "tokenId",
          "type": "uint256"
        }
      ],
      "name": "Approval",
      "type": "event"
    },
    {
      "anonymous": false,
      "inputs": [
        {
          "indexed": true,
          "internalType": "address",
          "name": "owner",
          "type": "address"
        },
        {
          "indexed": true,
          "internalType": "address",
          "name": "operator",
          "type": "address"
        },
        {
          "indexed": false,
          "internalType": "bool",
          "name": "approved",
          "type": "bool"
        }
      ],
      "name": "ApprovalForAll",
      "type": "event"
    },
    {
      "anonymous": false,
      "inputs": [
        {
          "indexed": true,
          "internalType": "bytes32",
          "name": "role",
          "type": "bytes32"
        },
        {
          "indexed": true,
          "internalType": "bytes32",
          "name": "previousAdminRole",
          "type": "bytes32"
        },
        {
          "indexed": true,
          "internalType": "bytes32",
          "name": "newAdminRole",
          "type": "bytes32"
        }
      ],
      "name": "RoleAdminChanged",
      "type": "event"
    },
    {
      "anonymous": false,
      "inputs": [
        {
          "indexed": true,
          "internalType": "bytes32",
          "name": "role",
          "type": "bytes32"
        },
        {
          "indexed": true,
          "internalType": "address",
          "name": "account",
          "type": "address"
        },
        {
          "indexed": true,
          "internalType": "address",
          "name": "sender",
          "type": "address"
        }
      ],
      "name": "RoleGranted",
      "type": "event"
    },
    {
      "anonymous": false,
      "inputs": [
        {
          "indexed": true,
          "internalType": "bytes32",
          "name": "role",
          "type": "bytes32"
        },
        {
          "indexed": true,
          "internalType": "address",
          "name": "account",
          "type": "address"
        },
        {
          "indexed": true,
          "internalType": "address",
          "name": "sender",
          "type": "address"
        }
      ],
      "name": "RoleRevoked",
      "type": "event"
    },
    {
      "anonymous": false,
      "inputs": [
        {
          "indexed": true,
          "internalType": "address",
          "name": "from",
          "type": "address"
        },
        {
          "indexed": true,
          "internalType": "address",
          "name": "to",
          "type": "address"
        },
        {
          "indexed": true,
          "internalType": "uint256",
          "name": "tokenId",
          "type": "uint256"
        }
      ],
      "name": "Transfer",
      "type": "event"
    },
    {
      "inputs": [],
      "name": "DEFAULT_ADMIN_ROLE",
      "outputs": [
        {
          "internalType": "bytes32",
          "name": "",
          "type": "bytes32"
        }
      ],
      "stateMutability": "view",
      "type": "function"
    },
    {
      "inputs": [],
      "name": "MINTER_ROLE",
      "outputs": [
        {
          "internalType": "bytes32",
          "name": "",
          "type": "bytes32"
        }
      ],
      "stateMutability": "view",
      "type": "function"
    },
    {
      "inputs": [
        {
          "internalType": "address",
          "name": "to",
          "type": "address"
        },
        {
          "internalType": "uint256",
          "name": "tokenId",
          "type": "uint256"
        }
      ],
      "name": "approve",
      "outputs": [],
      "stateMutability": "nonpayable",
      "type": "function"
    },
    {
      "inputs": [
        {
          "internalType": "address",
          "name": "owner",
          "type": "address"
        }
      ],
      "name": "balanceOf",
      "outputs": [
        {
          "internalType": "uint256",
          "name": "",
          "type": "uint256"
        }
      ],
      "stateMutability": "view",
      "type": "function"
    },
    {
      "inputs": [
        {
          "internalType": "uint256",
          "name": "tokenId",
          "type": "uint256"
        }
      ],
      "name": "getApproved",
      "outputs": [
        {
          "internalType": "address",
          "name": "",
          "type": "address"
        }
      ],
      "stateMutability": "view",
      "type": "function"
    },
    {
      "inputs": [
        {
          "internalType": "bytes32",
          "name": "role",
          "type": "bytes32"
        }
      ],
      "name": "getRoleAdmin",
      "outputs": [
        {
          "internalType": "bytes32",
          "name": "",
          "type": "bytes32"
        }
      ],
      "stateMutability": "view",
      "type": "function"
    },
    {
      "inputs": [
        {
          "internalType": "bytes32",
          "name": "role",
          "type": "bytes32"
        },
        {
          "internalType": "address",
          "name": "account",
          "type": "address"
        }
      ],
      "name": "grantRole",
      "outputs": [],
      "stateMutability": "nonpayable",
      "type": "function"
    },
    {
      "inputs": [
        {
          "internalType": "bytes32",
          "name": "role",
          "type": "bytes32"
        },
        {
          "internalType": "address",
          "name": "account",
          "type": "address"
        }
      ],
      "name": "hasRole",
      "outputs": [
        {
          "internalType": "bool",
          "name": "",
          "type": "bool"
        }
      ],
      "stateMutability": "view",
      "type": "function"
    },
    {
      "inputs": [
        {
          "internalType": "address",
          "name": "owner",
          "type": "address"
        },
        {
          "internalType": "address",
          "name": "operator",
          "type": "address"
        }
      ],
      "name": "isApprovedForAll",
      "outputs": [
        {
          "internalType": "bool",
          "name": "",
          "type": "bool"
        }
      ],
      "stateMutability": "view",
      "type": "function"
    },
    {
      "inputs": [],
      "name": "name",
      "outputs": [
        {
          "internalType": "string",
          "name": "",
          "type": "string"
        }
      ],
      "stateMutability": "view",
      "type": "function"
    },
    {
      "inputs": [
        {
          "internalType": "uint256",
          "name": "tokenId",
          "type": "uint256"
        }
      ],
      "name": "ownerOf",
      "outputs": [
        {
          "internalType": "address",
          "name": "",
          "type": "address"
        }
      ],
      "stateMutability": "view",
      "type": "function"
    },
    {
      "inputs": [
        {
          "internalType": "bytes32",
          "name": "role",
          "type": "bytes32"
        },
        {
          "internalType": "address",
          "name": "account",
          "type": "address"
        }
      ],
      "name": "renounceRole",
      "outputs": [],
      "stateMutability": "nonpayable",
      "type": "function"
    },
    {
      "inputs": [
        {
          "internalType": "bytes32",
          "name": "role",
          "type": "bytes32"
        },
        {
          "internalType": "address",
          "name": "account",
          "type": "address"
        }
      ],
      "name": "revokeRole",
      "outputs": [],
      "stateMutability": "nonpayable",
      "type": "function"
    },
    {
      "inputs": [
        {
          "internalType": "address",
          "name": "from",
          "type": "address"
        },
        {
          "internalType": "address",
          "name": "to",
          "type": "address"
        },
        {
          "internalType": "uint256",
          "name": "tokenId",
          "type": "uint256"
        }
      ],
      "name": "safeTransferFrom",
      "outputs": [],
      "stateMutability": "nonpayable",
      "type": "function"
    },
    {
      "inputs": [
        {
          "internalType": "address",
          "name": "from",
          "type": "address"
        },
        {
          "internalType": "address",
          "name": "to",
          "type": "address"
        },
        {
          "internalType": "uint256",
          "name": "tokenId",
          "type": "uint256"
        },
        {
          "internalType": "bytes",
          "name": "_data",
          "type": "bytes"
        }
      ],
      "name": "safeTransferFrom",
      "outputs": [],
      "stateMutability": "nonpayable",
      "type": "function"
    },
    {
      "inputs": [
        {
          "internalType": "address",
          "name": "operator",
          "type": "address"
        },
        {
          "internalType": "bool",
          "name": "approved",
          "type": "bool"
        }
      ],
      "name": "setApprovalForAll",
      "outputs": [],
      "stateMutability": "nonpayable",
      "type": "function"
    },
    {
      "inputs": [],
      "name": "symbol",
      "outputs": [
        {
          "internalType": "string",
          "name": "",
          "type": "string"
        }
      ],
      "stateMutability": "view",
      "type": "function"
    },
    {
      "inputs": [
        {
          "internalType": "uint256",
          "name": "index",
          "type": "uint256"
        }
      ],
      "name": "tokenByIndex",
      "outputs": [
        {
          "internalType": "uint256",
          "name": "",
          "type": "uint256"
        }
      ],
      "stateMutability": "view",
      "type": "function"
    },
    {
      "inputs": [
        {
          "internalType": "address",
          "name": "owner",
          "type": "address"
        },
        {
          "internalType": "uint256",
          "name": "index",
          "type": "uint256"
        }
      ],
      "name": "tokenOfOwnerByIndex",
      "outputs": [
        {
          "internalType": "uint256",
          "name": "",
          "type": "uint256"
        }
      ],
      "stateMutability": "view",
      "type": "function"
    },
    {
      "inputs": [
        {
          "internalType": "uint256",
          "name": "",
          "type": "uint256"
        }
      ],
      "name": "tokenURIs",
      "outputs": [
        {
          "internalType": "string",
          "name": "",
          "type": "string"
        }
      ],
      "stateMutability": "view",
      "type": "function"
    },
    {
      "inputs": [],
      "name": "totalSupply",
      "outputs": [
        {
          "internalType": "uint256",
          "name": "",
          "type": "uint256"
        }
      ],
      "stateMutability": "view",
      "type": "function"
    },
    {
      "inputs": [
        {
          "internalType": "address",
          "name": "from",
          "type": "address"
        },
        {
          "internalType": "address",
          "name": "to",
          "type": "address"
        },
        {
          "internalType": "uint256",
          "name": "tokenId",
          "type": "uint256"
        }
      ],
      "name": "transferFrom",
      "outputs": [],
      "stateMutability": "nonpayable",
      "type": "function"
    },
    {
      "inputs": [
        {
          "internalType": "bytes4",
          "name": "interfaceId",
          "type": "bytes4"
        }
      ],
      "name": "supportsInterface",
      "outputs": [
        {
          "internalType": "bool",
          "name": "",
          "type": "bool"
        }
      ],
      "stateMutability": "view",
      "type": "function"
    },
    {
      "inputs": [
        {
          "internalType": "uint256",
          "name": "tokenId",
          "type": "uint256"
        }
      ],
      "name": "tokenURI",
      "outputs": [
        {
          "internalType": "string",
          "name": "",
          "type": "string"
        }
      ],
      "stateMutability": "view",
      "type": "function"
    },
    {
      "inputs": [
        {
          "internalType": "string",
          "name": "_tokenURI",
          "type": "string"
        }
      ],
      "name": "safeMint",
      "outputs": [],
      "stateMutability": "nonpayable",
      "type": "function"
    }
  ],
  "bytecode": "0x60806040523480156200001157600080fd5b506040516200272c3803806200272c833981016040819052620000349162000342565b8151829082906200004d906000906020850190620001b6565b50805162000063906001906020840190620001b6565b506200009091506000905062000081640100000000620000d0810204565b640100000000620000d4810204565b620000c87f9f2df0fed2c77648de5860a4cc508cd0818c85b8b8a1ab4ceeef8d981c8956a662000081640100000000620000d0810204565b505062000401565b3390565b620000e98282640100000000620000ed810204565b5050565b6200010282826401000000006200018b810204565b620000e9576000828152600a60209081526040808320600160a060020a03851684529091529020805460ff1916600117905562000147640100000000620000d0810204565b600160a060020a031681600160a060020a0316837f2f8788117e7eff1d82e926ec794901d17c78024a50270940304540a733656f0d60405160405180910390a45050565b6000918252600a60209081526040808420600160a060020a0393909316845291905290205460ff1690565b828054620001c490620003ac565b90600052602060002090601f016020900481019282620001e8576000855562000233565b82601f106200020357805160ff191683800117855562000233565b8280016001018555821562000233579182015b828111156200023357825182559160200191906001019062000216565b506200024192915062000245565b5090565b5b8082111562000241576000815560010162000246565b7f4e487b7100000000000000000000000000000000000000000000000000000000600052604160045260246000fd5b600082601f8301126200029d57600080fd5b81516001604060020a0380821115620002ba57620002ba6200025c565b604051601f8301601f19908116603f01168101908282118183101715620002e557620002e56200025c565b816040528381526020925086838588010111156200030257600080fd5b600091505b8382101562000326578582018301518183018401529082019062000307565b83821115620003385760008385830101525b9695505050505050565b600080604083850312156200035657600080fd5b82516001604060020a03808211156200036e57600080fd5b6200037c868387016200028b565b935060208501519150808211156200039357600080fd5b50620003a2858286016200028b565b9150509250929050565b600281046001821680620003c157607f821691505b602082108103620003fb577f4e487b7100000000000000000000000000000000000000000000000000000000600052602260045260246000fd5b50919050565b61231b80620004116000396000f3fe608060405234801561001057600080fd5b5060043610610190576000357c0100000000000000000000000000000000000000000000000000000000900480636352211e116100fb578063a217fddf116100b4578063c87b56dd1161008e578063c87b56dd1461034e578063d539139314610361578063d547741f14610388578063e985e9c51461039b57600080fd5b8063a217fddf14610320578063a22cb46514610328578063b88d4fde1461033b57600080fd5b80636352211e146102b9578063695850fb146102cc5780636c8b703f146102df57806370a08231146102f257806391d148541461030557806395d89b411461031857600080fd5b8063248a9ca31161014d578063248a9ca3146102375780632f2ff15d1461025a5780632f745c591461026d57806336568abe1461028057806342842e0e146102935780634f6ccce7146102a657600080fd5b806301ffc9a71461019557806306fdde03146101bd578063081812fc146101d2578063095ea7b3146101fd57806318160ddd1461021257806323b872dd14610224575b600080fd5b6101a86101a3366004611d24565b6103d7565b60405190151581526020015b60405180910390f35b6101c56103e8565b6040516101b49190611d99565b6101e56101e0366004611dac565b61047a565b604051600160a060020a0390911681526020016101b4565b61021061020b366004611de1565b610528565b005b6008545b6040519081526020016101b4565b610210610232366004611e0b565b61065f565b610216610245366004611dac565b6000908152600a602052604090206001015490565b610210610268366004611e47565b610693565b61021661027b366004611de1565b6106b9565b61021061028e366004611e47565b610764565b6102106102a1366004611e0b565b6107f3565b6102166102b4366004611dac565b61080e565b6101e56102c7366004611dac565b6108b5565b6102106102da366004611f02565b610943565b6101c56102ed366004611dac565b610afc565b610216610300366004611f4b565b610ba8565b6101a8610313366004611e47565b610c45565b6101c5610c70565b610216600081565b610210610336366004611f66565b610c7f565b610210610349366004611fa2565b610d46565b6101c561035c366004611dac565b610d81565b6102167f9f2df0fed2c77648de5860a4cc508cd0818c85b8b8a1ab4ceeef8d981c8956a681565b610210610396366004611e47565b610eaf565b6101a86103a936600461201e565b600160a060020a03918216600090815260056020908152604080832093909416825291909152205460ff1690565b60006103e282610ed5565b92915050565b6060600080546103f790612048565b80601f016020809104026020016040519081016040528092919081815260200182805461042390612048565b80156104705780601f1061044557610100808354040283529160200191610470565b820191906000526020600020905b81548152906001019060200180831161045357829003601f168201915b5050505050905090565b600081815260026020526040812054600160a060020a031661050c5760405160e560020a62461bcd02815260206004820152602c60248201527f4552433732313a20617070726f76656420717565727920666f72206e6f6e657860448201527f697374656e7420746f6b656e000000000000000000000000000000000000000060648201526084015b60405180910390fd5b50600090815260046020526040902054600160a060020a031690565b6000610533826108b5565b905080600160a060020a031683600160a060020a0316036105bf5760405160e560020a62461bcd02815260206004820152602160248201527f4552433732313a20617070726f76616c20746f2063757272656e74206f776e6560448201527f72000000000000000000000000000000000000000000000000000000000000006064820152608401610503565b33600160a060020a03821614806105db57506105db81336103a9565b6106505760405160e560020a62461bcd02815260206004820152603860248201527f4552433732313a20617070726f76652063616c6c6572206973206e6f74206f7760448201527f6e6572206e6f7220617070726f76656420666f7220616c6c00000000000000006064820152608401610503565b61065a8383610f13565b505050565b6106693382610f8e565b6106885760405160e560020a62461bcd02815260040161050390612085565b61065a838383611099565b6000828152600a60205260409020600101546106af8133611284565b61065a83836112eb565b60006106c483610ba8565b821061073b5760405160e560020a62461bcd02815260206004820152602b60248201527f455243373231456e756d657261626c653a206f776e657220696e646578206f7560448201527f74206f6620626f756e64730000000000000000000000000000000000000000006064820152608401610503565b50600160a060020a03919091166000908152600660209081526040808320938352929052205490565b600160a060020a03811633146107e55760405160e560020a62461bcd02815260206004820152602f60248201527f416363657373436f6e74726f6c3a2063616e206f6e6c792072656e6f756e636560448201527f20726f6c657320666f722073656c6600000000000000000000000000000000006064820152608401610503565b6107ef8282611371565b5050565b61065a83838360405180602001604052806000815250610d46565b600061081960085490565b82106108905760405160e560020a62461bcd02815260206004820152602c60248201527f455243373231456e756d657261626c653a20676c6f62616c20696e646578206f60448201527f7574206f6620626f756e647300000000000000000000000000000000000000006064820152608401610503565b600882815481106108a3576108a36120e2565b90600052602060002001549050919050565b600081815260026020526040812054600160a060020a0316806103e25760405160e560020a62461bcd02815260206004820152602960248201527f4552433732313a206f776e657220717565727920666f72206e6f6e657869737460448201527f656e7420746f6b656e00000000000000000000000000000000000000000000006064820152608401610503565b61096d7f9f2df0fed2c77648de5860a4cc508cd0818c85b8b8a1ab4ceeef8d981c8956a633610c45565b6109e25760405160e560020a62461bcd02815260206004820152603d60248201527f4552433732315072657365744d696e7465725061757365724175746f49643a2060448201527f6d7573742068617665206d696e74657220726f6c6520746f206d696e740000006064820152608401610503565b600c816040516109f291906120fb565b9081526040519081900360200190205460ff1615610a555760405160e560020a62461bcd02815260206004820152601e60248201527f54686520746f6b656e205552492073686f756c6420626520756e6971756500006044820152606401610503565b600b80546001810182556000919091528151610a98917f0175b7a638427703f0dbe7bb9bbf987a2551717b34e79f33b5b1008d1fa01db901906020840190611c72565b50600b546000818152600d602090815260409091208351610abb92850190611c72565b50610ac633826113d8565b6001600c83604051610ad891906120fb565b908152604051908190036020019020805491151560ff199092169190911790555050565b600b8181548110610b0c57600080fd5b906000526020600020016000915090508054610b2790612048565b80601f0160208091040260200160405190810160405280929190818152602001828054610b5390612048565b8015610ba05780601f10610b7557610100808354040283529160200191610ba0565b820191906000526020600020905b815481529060010190602001808311610b8357829003601f168201915b505050505081565b6000600160a060020a038216610c295760405160e560020a62461bcd02815260206004820152602a60248201527f4552433732313a2062616c616e636520717565727920666f7220746865207a6560448201527f726f2061646472657373000000000000000000000000000000000000000000006064820152608401610503565b50600160a060020a031660009081526003602052604090205490565b6000918252600a60209081526040808420600160a060020a0393909316845291905290205460ff1690565b6060600180546103f790612048565b33600160a060020a03831603610cda5760405160e560020a62461bcd02815260206004820152601960248201527f4552433732313a20617070726f766520746f2063616c6c6572000000000000006044820152606401610503565b336000818152600560209081526040808320600160a060020a03871680855290835292819020805460ff191686151590811790915590519081529192917f17307eab39ab6107e8899845ad3d59bd9653f200f220920489ca2b5937696c31910160405180910390a35050565b610d503383610f8e565b610d6f5760405160e560020a62461bcd02815260040161050390612085565b610d7b848484846113f2565b50505050565b600081815260026020526040902054606090600160a060020a0316610e115760405160e560020a62461bcd02815260206004820152602f60248201527f4552433732314d657461646174613a2055524920717565727920666f72206e6f60448201527f6e6578697374656e7420746f6b656e00000000000000000000000000000000006064820152608401610503565b6000828152600d602052604090208054610e2a90612048565b80601f0160208091040260200160405190810160405280929190818152602001828054610e5690612048565b8015610ea35780601f10610e7857610100808354040283529160200191610ea3565b820191906000526020600020905b815481529060010190602001808311610e8657829003601f168201915b50505050509050919050565b6000828152600a6020526040902060010154610ecb8133611284565b61065a8383611371565b6000600160e060020a031982167f7965db0b0000000000000000000000000000000000000000000000000000000014806103e257506103e282611428565b6000818152600460205260409020805473ffffffffffffffffffffffffffffffffffffffff1916600160a060020a0384169081179091558190610f55826108b5565b600160a060020a03167f8c5be1e5ebec7d5bd14f71427d1e84f3dd0314c0f7b2291e5b200ac8c7c3b92560405160405180910390a45050565b600081815260026020526040812054600160a060020a031661101b5760405160e560020a62461bcd02815260206004820152602c60248201527f4552433732313a206f70657261746f7220717565727920666f72206e6f6e657860448201527f697374656e7420746f6b656e00000000000000000000000000000000000000006064820152608401610503565b6000611026836108b5565b905080600160a060020a031684600160a060020a03161480611061575083600160a060020a03166110568461047a565b600160a060020a0316145b806110915750600160a060020a0380821660009081526005602090815260408083209388168352929052205460ff165b949350505050565b82600160a060020a03166110ac826108b5565b600160a060020a03161461112b5760405160e560020a62461bcd02815260206004820152602960248201527f4552433732313a207472616e73666572206f6620746f6b656e2074686174206960448201527f73206e6f74206f776e00000000000000000000000000000000000000000000006064820152608401610503565b600160a060020a0382166111a95760405160e560020a62461bcd028152602060048201526024808201527f4552433732313a207472616e7366657220746f20746865207a65726f2061646460448201527f72657373000000000000000000000000000000000000000000000000000000006064820152608401610503565b6111b4838383611466565b6111bf600082610f13565b600160a060020a03831660009081526003602052604081208054600192906111e8908490612130565b9091555050600160a060020a0382166000908152600360205260408120805460019290611216908490612147565b9091555050600081815260026020526040808220805473ffffffffffffffffffffffffffffffffffffffff1916600160a060020a0386811691821790925591518493918716917fddf252ad1be2c89b69c2b068fc378daa952ba7f163c4a11628f55a4df523b3ef91a4505050565b61128e8282610c45565b6107ef576112a681600160a060020a03166014611471565b6112b1836020611471565b6040516020016112c292919061215f565b60408051601f198184030181529082905260e560020a62461bcd02825261050391600401611d99565b6112f58282610c45565b6107ef576000828152600a60209081526040808320600160a060020a03851684529091529020805460ff1916600117905561132d3390565b600160a060020a031681600160a060020a0316837f2f8788117e7eff1d82e926ec794901d17c78024a50270940304540a733656f0d60405160405180910390a45050565b61137b8282610c45565b156107ef576000828152600a60209081526040808320600160a060020a0385168085529252808320805460ff1916905551339285917ff6391f5c32d9c69d2a47ea670b442974b53935d1edc7fd64eb21e047a839171b9190a45050565b6107ef8282604051806020016040528060008152506116c2565b6113fd848484611099565b611409848484846116f8565b610d7b5760405160e560020a62461bcd028152600401610503906121e0565b6000600160e060020a031982167f780e9d630000000000000000000000000000000000000000000000000000000014806103e257506103e28261182e565b61065a8383836118c9565b6060600061148083600261223d565b61148b906002612147565b67ffffffffffffffff8111156114a3576114a3611e73565b6040519080825280601f01601f1916602001820160405280156114cd576020820181803683370190505b5090507f300000000000000000000000000000000000000000000000000000000000000081600081518110611504576115046120e2565b60200101907effffffffffffffffffffffffffffffffffffffffffffffffffffffffffffff1916908160001a9053507f780000000000000000000000000000000000000000000000000000000000000081600181518110611567576115676120e2565b60200101907effffffffffffffffffffffffffffffffffffffffffffffffffffffffffffff1916908160001a90535060006115a384600261223d565b6115ae906001612147565b90505b6001811115611669577f303132333435363738396162636465660000000000000000000000000000000085600f16601081106115ef576115ef6120e2565b1a7f010000000000000000000000000000000000000000000000000000000000000002828281518110611624576116246120e2565b60200101907effffffffffffffffffffffffffffffffffffffffffffffffffffffffffffff1916908160001a9053506010909404936116628161225c565b90506115b1565b5083156116bb5760405160e560020a62461bcd02815260206004820181905260248201527f537472696e67733a20686578206c656e67746820696e73756666696369656e746044820152606401610503565b9392505050565b6116cc8383611981565b6116d960008484846116f8565b61065a5760405160e560020a62461bcd028152600401610503906121e0565b6000600160a060020a0384163b15611823576040517f150b7a02000000000000000000000000000000000000000000000000000000008152600160a060020a0385169063150b7a0290611755903390899088908890600401612273565b6020604051808303816000875af1925050508015611790575060408051601f3d908101601f1916820190925261178d918101906122af565b60015b6117f0573d8080156117be576040519150601f19603f3d011682016040523d82523d6000602084013e6117c3565b606091505b5080516000036117e85760405160e560020a62461bcd028152600401610503906121e0565b805181602001fd5b600160e060020a0319167f150b7a0200000000000000000000000000000000000000000000000000000000149050611091565b506001949350505050565b6000600160e060020a031982167f80ac58cd0000000000000000000000000000000000000000000000000000000014806118915750600160e060020a031982167f5b5e139f00000000000000000000000000000000000000000000000000000000145b806103e257507f01ffc9a700000000000000000000000000000000000000000000000000000000600160e060020a03198316146103e2565b600160a060020a0383166119245761191f81600880546000838152600960205260408120829055600182018355919091527ff3f7a9fe364faab93b216da50a3214154f22a0a2b415b23a84c8169e8b636ee30155565b611947565b81600160a060020a031683600160a060020a031614611947576119478382611ae2565b600160a060020a03821661195e5761065a81611b7f565b82600160a060020a031682600160a060020a03161461065a5761065a8282611c2e565b600160a060020a0382166119da5760405160e560020a62461bcd02815260206004820181905260248201527f4552433732313a206d696e7420746f20746865207a65726f20616464726573736044820152606401610503565b600081815260026020526040902054600160a060020a031615611a425760405160e560020a62461bcd02815260206004820152601c60248201527f4552433732313a20746f6b656e20616c7265616479206d696e746564000000006044820152606401610503565b611a4e60008383611466565b600160a060020a0382166000908152600360205260408120805460019290611a77908490612147565b9091555050600081815260026020526040808220805473ffffffffffffffffffffffffffffffffffffffff1916600160a060020a03861690811790915590518392907fddf252ad1be2c89b69c2b068fc378daa952ba7f163c4a11628f55a4df523b3ef908290a45050565b60006001611aef84610ba8565b611af99190612130565b600083815260076020526040902054909150808214611b4c57600160a060020a03841660009081526006602090815260408083208584528252808320548484528184208190558352600790915290208190555b506000918252600760209081526040808420849055600160a060020a039094168352600681528383209183525290812055565b600854600090611b9190600190612130565b60008381526009602052604081205460088054939450909284908110611bb957611bb96120e2565b906000526020600020015490508060088381548110611bda57611bda6120e2565b6000918252602080832090910192909255828152600990915260408082208490558582528120556008805480611c1257611c126122cc565b6001900381819060005260206000200160009055905550505050565b6000611c3983610ba8565b600160a060020a039093166000908152600660209081526040808320868452825280832085905593825260079052919091209190915550565b828054611c7e90612048565b90600052602060002090601f016020900481019282611ca05760008555611ce6565b82601f10611cb957805160ff1916838001178555611ce6565b82800160010185558215611ce6579182015b82811115611ce6578251825591602001919060010190611ccb565b50611cf2929150611cf6565b5090565b5b80821115611cf25760008155600101611cf7565b600160e060020a031981168114611d2157600080fd5b50565b600060208284031215611d3657600080fd5b81356116bb81611d0b565b60005b83811015611d5c578181015183820152602001611d44565b83811115610d7b5750506000910152565b60008151808452611d85816020860160208601611d41565b601f01601f19169290920160200192915050565b6020815260006116bb6020830184611d6d565b600060208284031215611dbe57600080fd5b5035919050565b8035600160a060020a0381168114611ddc57600080fd5b919050565b60008060408385031215611df457600080fd5b611dfd83611dc5565b946020939093013593505050565b600080600060608486031215611e2057600080fd5b611e2984611dc5565b9250611e3760208501611dc5565b9150604084013590509250925092565b60008060408385031215611e5a57600080fd5b82359150611e6a60208401611dc5565b90509250929050565b60e060020a634e487b7102600052604160045260246000fd5b600067ffffffffffffffff80841115611ea757611ea7611e73565b604051601f8501601f19908116603f01168101908282118183101715611ecf57611ecf611e73565b81604052809350858152868686011115611ee857600080fd5b858560208301376000602087830101525050509392505050565b600060208284031215611f1457600080fd5b813567ffffffffffffffff811115611f2b57600080fd5b8201601f81018413611f3c57600080fd5b61109184823560208401611e8c565b600060208284031215611f5d57600080fd5b6116bb82611dc5565b60008060408385031215611f7957600080fd5b611f8283611dc5565b915060208301358015158114611f9757600080fd5b809150509250929050565b60008060008060808587031215611fb857600080fd5b611fc185611dc5565b9350611fcf60208601611dc5565b925060408501359150606085013567ffffffffffffffff811115611ff257600080fd5b8501601f8101871361200357600080fd5b61201287823560208401611e8c565b91505092959194509250565b6000806040838503121561203157600080fd5b61203a83611dc5565b9150611e6a60208401611dc5565b60028104600182168061205c57607f821691505b60208210810361207f5760e060020a634e487b7102600052602260045260246000fd5b50919050565b60208082526031908201527f4552433732313a207472616e736665722063616c6c6572206973206e6f74206f60408201527f776e6572206e6f7220617070726f766564000000000000000000000000000000606082015260800190565b60e060020a634e487b7102600052603260045260246000fd5b6000825161210d818460208701611d41565b9190910192915050565b60e060020a634e487b7102600052601160045260246000fd5b60008282101561214257612142612117565b500390565b6000821982111561215a5761215a612117565b500190565b7f416363657373436f6e74726f6c3a206163636f756e7420000000000000000000815260008351612197816017850160208801611d41565b7f206973206d697373696e6720726f6c652000000000000000000000000000000060179184019182015283516121d4816028840160208801611d41565b01602801949350505050565b60208082526032908201527f4552433732313a207472616e7366657220746f206e6f6e20455243373231526560408201527f63656976657220696d706c656d656e7465720000000000000000000000000000606082015260800190565b600081600019048311821515161561225757612257612117565b500290565b60008161226b5761226b612117565b506000190190565b6000600160a060020a038087168352808616602084015250836040830152608060608301526122a56080830184611d6d565b9695505050505050565b6000602082840312156122c157600080fd5b81516116bb81611d0b565b60e060020a634e487b7102600052603160045260246000fdfea2646970667358221220abe945147ca3b10b424d34ae488a2f6284fc042ccbd99610e75b5488d0598fae64736f6c634300080e0033",
  "immutableReferences": {},
  "source": "// SPDX-License-Identifier: MIT\r\npragma solidity ^0.8.0;\r\n\r\nimport '@openzeppelin/contracts/token/ERC721/ERC721.sol';\r\nimport '@openzeppelin/contracts/token/ERC721/extensions/ERC721Enumerable.sol';\r\nimport '@openzeppelin/contracts/access/AccessControl.sol';\r\n\r\ncontract NFTCollection is ERC721, ERC721Enumerable, AccessControl {\r\n    bytes32 public constant MINTER_ROLE = keccak256('MINTER_ROLE');\r\n\r\n    string[] public tokenURIs;\r\n    mapping(string => bool) _tokenURIExists;\r\n    mapping(uint256 => string) _tokenIdToTokenURI;\r\n\r\n    constructor(string memory _name, string memory _symbol) ERC721(_name, _symbol) {\r\n        _setupRole(DEFAULT_ADMIN_ROLE, _msgSender());\r\n        _setupRole(MINTER_ROLE, _msgSender());\r\n    }\r\n\r\n    function _beforeTokenTransfer(\r\n        address from,\r\n        address to,\r\n        uint256 tokenId\r\n    ) internal override(ERC721, ERC721Enumerable) {\r\n        super._beforeTokenTransfer(from, to, tokenId);\r\n    }\r\n\r\n    function supportsInterface(bytes4 interfaceId) public view override(ERC721, ERC721Enumerable, AccessControl) returns (bool) {\r\n        return super.supportsInterface(interfaceId);\r\n    }\r\n\r\n    function tokenURI(uint256 tokenId) public view override returns (string memory) {\r\n        require(_exists(tokenId), 'ERC721Metadata: URI query for nonexistent token');\r\n        return _tokenIdToTokenURI[tokenId];\r\n    }\r\n\r\n    function safeMint(string memory _tokenURI) public {\r\n        require(hasRole(MINTER_ROLE, _msgSender()), 'ERC721PresetMinterPauserAutoId: must have minter role to mint');\r\n        require(!_tokenURIExists[_tokenURI], 'The token URI should be unique');\r\n        tokenURIs.push(_tokenURI);\r\n        uint256 _id = tokenURIs.length; // based on 1\r\n        _tokenIdToTokenURI[_id] = _tokenURI;\r\n        _safeMint(msg.sender, _id);\r\n        _tokenURIExists[_tokenURI] = true;\r\n    }\r\n}\r\n",
  "sourcePath": "C:\\github\\trayanm\\TTMMarket\\src\\contracts\\NFTCollection.sol",
  "compiler": {
    "name": "solc",
    "version": "0.8.14+commit.80d49f37.Emscripten.clang"
  },
  "schemaVersion": "3.4.7",
  "updatedAt": "2022-06-14T17:39:08.653Z",
  "devdoc": {
    "kind": "dev",
    "methods": {
      "approve(address,uint256)": {
        "details": "See {IERC721-approve}."
      },
      "balanceOf(address)": {
        "details": "See {IERC721-balanceOf}."
      },
      "getApproved(uint256)": {
        "details": "See {IERC721-getApproved}."
      },
      "getRoleAdmin(bytes32)": {
        "details": "Returns the admin role that controls `role`. See {grantRole} and {revokeRole}. To change a role's admin, use {_setRoleAdmin}."
      },
      "grantRole(bytes32,address)": {
        "details": "Grants `role` to `account`. If `account` had not been already granted `role`, emits a {RoleGranted} event. Requirements: - the caller must have ``role``'s admin role."
      },
      "hasRole(bytes32,address)": {
        "details": "Returns `true` if `account` has been granted `role`."
      },
      "isApprovedForAll(address,address)": {
        "details": "See {IERC721-isApprovedForAll}."
      },
      "name()": {
        "details": "See {IERC721Metadata-name}."
      },
      "ownerOf(uint256)": {
        "details": "See {IERC721-ownerOf}."
      },
      "renounceRole(bytes32,address)": {
        "details": "Revokes `role` from the calling account. Roles are often managed via {grantRole} and {revokeRole}: this function's purpose is to provide a mechanism for accounts to lose their privileges if they are compromised (such as when a trusted device is misplaced). If the calling account had been granted `role`, emits a {RoleRevoked} event. Requirements: - the caller must be `account`."
      },
      "revokeRole(bytes32,address)": {
        "details": "Revokes `role` from `account`. If `account` had been granted `role`, emits a {RoleRevoked} event. Requirements: - the caller must have ``role``'s admin role."
      },
      "safeTransferFrom(address,address,uint256)": {
        "details": "See {IERC721-safeTransferFrom}."
      },
      "safeTransferFrom(address,address,uint256,bytes)": {
        "details": "See {IERC721-safeTransferFrom}."
      },
      "setApprovalForAll(address,bool)": {
        "details": "See {IERC721-setApprovalForAll}."
      },
      "symbol()": {
        "details": "See {IERC721Metadata-symbol}."
      },
      "tokenByIndex(uint256)": {
        "details": "See {IERC721Enumerable-tokenByIndex}."
      },
      "tokenOfOwnerByIndex(address,uint256)": {
        "details": "See {IERC721Enumerable-tokenOfOwnerByIndex}."
      },
      "tokenURI(uint256)": {
        "details": "See {IERC721Metadata-tokenURI}."
      },
      "totalSupply()": {
        "details": "See {IERC721Enumerable-totalSupply}."
      },
      "transferFrom(address,address,uint256)": {
        "details": "See {IERC721-transferFrom}."
      }
    },
    "version": 1
  },
  "userdoc": {
    "kind": "user",
    "methods": {},
    "version": 1
  }
}