{
  "contractName": "NFTCollection",
  "abi": [
    {
      "inputs": [
        {
          "internalType": "string",
          "name": "_name",
          "type": "string"
        },
        {
          "internalType": "string",
          "name": "_symbol",
          "type": "string"
        }
      ],
      "stateMutability": "nonpayable",
      "type": "constructor"
    },
    {
      "anonymous": false,
      "inputs": [
        {
          "indexed": true,
          "internalType": "address",
          "name": "owner",
          "type": "address"
        },
        {
          "indexed": true,
          "internalType": "address",
          "name": "approved",
          "type": "address"
        },
        {
          "indexed": true,
          "internalType": "uint256",
          "name": "tokenId",
          "type": "uint256"
        }
      ],
      "name": "Approval",
      "type": "event"
    },
    {
      "anonymous": false,
      "inputs": [
        {
          "indexed": true,
          "internalType": "address",
          "name": "owner",
          "type": "address"
        },
        {
          "indexed": true,
          "internalType": "address",
          "name": "operator",
          "type": "address"
        },
        {
          "indexed": false,
          "internalType": "bool",
          "name": "approved",
          "type": "bool"
        }
      ],
      "name": "ApprovalForAll",
      "type": "event"
    },
    {
      "anonymous": false,
      "inputs": [
        {
          "indexed": true,
          "internalType": "bytes32",
          "name": "role",
          "type": "bytes32"
        },
        {
          "indexed": true,
          "internalType": "bytes32",
          "name": "previousAdminRole",
          "type": "bytes32"
        },
        {
          "indexed": true,
          "internalType": "bytes32",
          "name": "newAdminRole",
          "type": "bytes32"
        }
      ],
      "name": "RoleAdminChanged",
      "type": "event"
    },
    {
      "anonymous": false,
      "inputs": [
        {
          "indexed": true,
          "internalType": "bytes32",
          "name": "role",
          "type": "bytes32"
        },
        {
          "indexed": true,
          "internalType": "address",
          "name": "account",
          "type": "address"
        },
        {
          "indexed": true,
          "internalType": "address",
          "name": "sender",
          "type": "address"
        }
      ],
      "name": "RoleGranted",
      "type": "event"
    },
    {
      "anonymous": false,
      "inputs": [
        {
          "indexed": true,
          "internalType": "bytes32",
          "name": "role",
          "type": "bytes32"
        },
        {
          "indexed": true,
          "internalType": "address",
          "name": "account",
          "type": "address"
        },
        {
          "indexed": true,
          "internalType": "address",
          "name": "sender",
          "type": "address"
        }
      ],
      "name": "RoleRevoked",
      "type": "event"
    },
    {
      "anonymous": false,
      "inputs": [
        {
          "indexed": true,
          "internalType": "address",
          "name": "from",
          "type": "address"
        },
        {
          "indexed": true,
          "internalType": "address",
          "name": "to",
          "type": "address"
        },
        {
          "indexed": true,
          "internalType": "uint256",
          "name": "tokenId",
          "type": "uint256"
        }
      ],
      "name": "Transfer",
      "type": "event"
    },
    {
      "inputs": [],
      "name": "DEFAULT_ADMIN_ROLE",
      "outputs": [
        {
          "internalType": "bytes32",
          "name": "",
          "type": "bytes32"
        }
      ],
      "stateMutability": "view",
      "type": "function"
    },
    {
      "inputs": [],
      "name": "MINTER_ROLE",
      "outputs": [
        {
          "internalType": "bytes32",
          "name": "",
          "type": "bytes32"
        }
      ],
      "stateMutability": "view",
      "type": "function"
    },
    {
      "inputs": [
        {
          "internalType": "address",
          "name": "to",
          "type": "address"
        },
        {
          "internalType": "uint256",
          "name": "tokenId",
          "type": "uint256"
        }
      ],
      "name": "approve",
      "outputs": [],
      "stateMutability": "nonpayable",
      "type": "function"
    },
    {
      "inputs": [
        {
          "internalType": "address",
          "name": "owner",
          "type": "address"
        }
      ],
      "name": "balanceOf",
      "outputs": [
        {
          "internalType": "uint256",
          "name": "",
          "type": "uint256"
        }
      ],
      "stateMutability": "view",
      "type": "function"
    },
    {
      "inputs": [
        {
          "internalType": "uint256",
          "name": "tokenId",
          "type": "uint256"
        }
      ],
      "name": "getApproved",
      "outputs": [
        {
          "internalType": "address",
          "name": "",
          "type": "address"
        }
      ],
      "stateMutability": "view",
      "type": "function"
    },
    {
      "inputs": [
        {
          "internalType": "bytes32",
          "name": "role",
          "type": "bytes32"
        }
      ],
      "name": "getRoleAdmin",
      "outputs": [
        {
          "internalType": "bytes32",
          "name": "",
          "type": "bytes32"
        }
      ],
      "stateMutability": "view",
      "type": "function"
    },
    {
      "inputs": [
        {
          "internalType": "bytes32",
          "name": "role",
          "type": "bytes32"
        },
        {
          "internalType": "address",
          "name": "account",
          "type": "address"
        }
      ],
      "name": "grantRole",
      "outputs": [],
      "stateMutability": "nonpayable",
      "type": "function"
    },
    {
      "inputs": [
        {
          "internalType": "bytes32",
          "name": "role",
          "type": "bytes32"
        },
        {
          "internalType": "address",
          "name": "account",
          "type": "address"
        }
      ],
      "name": "hasRole",
      "outputs": [
        {
          "internalType": "bool",
          "name": "",
          "type": "bool"
        }
      ],
      "stateMutability": "view",
      "type": "function"
    },
    {
      "inputs": [
        {
          "internalType": "address",
          "name": "owner",
          "type": "address"
        },
        {
          "internalType": "address",
          "name": "operator",
          "type": "address"
        }
      ],
      "name": "isApprovedForAll",
      "outputs": [
        {
          "internalType": "bool",
          "name": "",
          "type": "bool"
        }
      ],
      "stateMutability": "view",
      "type": "function"
    },
    {
      "inputs": [],
      "name": "name",
      "outputs": [
        {
          "internalType": "string",
          "name": "",
          "type": "string"
        }
      ],
      "stateMutability": "view",
      "type": "function"
    },
    {
      "inputs": [
        {
          "internalType": "uint256",
          "name": "tokenId",
          "type": "uint256"
        }
      ],
      "name": "ownerOf",
      "outputs": [
        {
          "internalType": "address",
          "name": "",
          "type": "address"
        }
      ],
      "stateMutability": "view",
      "type": "function"
    },
    {
      "inputs": [
        {
          "internalType": "bytes32",
          "name": "role",
          "type": "bytes32"
        },
        {
          "internalType": "address",
          "name": "account",
          "type": "address"
        }
      ],
      "name": "renounceRole",
      "outputs": [],
      "stateMutability": "nonpayable",
      "type": "function"
    },
    {
      "inputs": [
        {
          "internalType": "bytes32",
          "name": "role",
          "type": "bytes32"
        },
        {
          "internalType": "address",
          "name": "account",
          "type": "address"
        }
      ],
      "name": "revokeRole",
      "outputs": [],
      "stateMutability": "nonpayable",
      "type": "function"
    },
    {
      "inputs": [
        {
          "internalType": "address",
          "name": "from",
          "type": "address"
        },
        {
          "internalType": "address",
          "name": "to",
          "type": "address"
        },
        {
          "internalType": "uint256",
          "name": "tokenId",
          "type": "uint256"
        }
      ],
      "name": "safeTransferFrom",
      "outputs": [],
      "stateMutability": "nonpayable",
      "type": "function"
    },
    {
      "inputs": [
        {
          "internalType": "address",
          "name": "from",
          "type": "address"
        },
        {
          "internalType": "address",
          "name": "to",
          "type": "address"
        },
        {
          "internalType": "uint256",
          "name": "tokenId",
          "type": "uint256"
        },
        {
          "internalType": "bytes",
          "name": "_data",
          "type": "bytes"
        }
      ],
      "name": "safeTransferFrom",
      "outputs": [],
      "stateMutability": "nonpayable",
      "type": "function"
    },
    {
      "inputs": [
        {
          "internalType": "address",
          "name": "operator",
          "type": "address"
        },
        {
          "internalType": "bool",
          "name": "approved",
          "type": "bool"
        }
      ],
      "name": "setApprovalForAll",
      "outputs": [],
      "stateMutability": "nonpayable",
      "type": "function"
    },
    {
      "inputs": [],
      "name": "symbol",
      "outputs": [
        {
          "internalType": "string",
          "name": "",
          "type": "string"
        }
      ],
      "stateMutability": "view",
      "type": "function"
    },
    {
      "inputs": [
        {
          "internalType": "uint256",
          "name": "index",
          "type": "uint256"
        }
      ],
      "name": "tokenByIndex",
      "outputs": [
        {
          "internalType": "uint256",
          "name": "",
          "type": "uint256"
        }
      ],
      "stateMutability": "view",
      "type": "function"
    },
    {
      "inputs": [
        {
          "internalType": "address",
          "name": "owner",
          "type": "address"
        },
        {
          "internalType": "uint256",
          "name": "index",
          "type": "uint256"
        }
      ],
      "name": "tokenOfOwnerByIndex",
      "outputs": [
        {
          "internalType": "uint256",
          "name": "",
          "type": "uint256"
        }
      ],
      "stateMutability": "view",
      "type": "function"
    },
    {
      "inputs": [
        {
          "internalType": "uint256",
          "name": "",
          "type": "uint256"
        }
      ],
      "name": "tokenURIs",
      "outputs": [
        {
          "internalType": "string",
          "name": "",
          "type": "string"
        }
      ],
      "stateMutability": "view",
      "type": "function"
    },
    {
      "inputs": [],
      "name": "totalSupply",
      "outputs": [
        {
          "internalType": "uint256",
          "name": "",
          "type": "uint256"
        }
      ],
      "stateMutability": "view",
      "type": "function"
    },
    {
      "inputs": [
        {
          "internalType": "address",
          "name": "from",
          "type": "address"
        },
        {
          "internalType": "address",
          "name": "to",
          "type": "address"
        },
        {
          "internalType": "uint256",
          "name": "tokenId",
          "type": "uint256"
        }
      ],
      "name": "transferFrom",
      "outputs": [],
      "stateMutability": "nonpayable",
      "type": "function"
    },
    {
      "inputs": [
        {
          "internalType": "address",
          "name": "_address",
          "type": "address"
        }
      ],
      "name": "canMint",
      "outputs": [
        {
          "internalType": "bool",
          "name": "",
          "type": "bool"
        }
      ],
      "stateMutability": "view",
      "type": "function"
    },
    {
      "inputs": [
        {
          "internalType": "bytes4",
          "name": "interfaceId",
          "type": "bytes4"
        }
      ],
      "name": "supportsInterface",
      "outputs": [
        {
          "internalType": "bool",
          "name": "",
          "type": "bool"
        }
      ],
      "stateMutability": "view",
      "type": "function"
    },
    {
      "inputs": [
        {
          "internalType": "uint256",
          "name": "tokenId",
          "type": "uint256"
        }
      ],
      "name": "tokenURI",
      "outputs": [
        {
          "internalType": "string",
          "name": "",
          "type": "string"
        }
      ],
      "stateMutability": "view",
      "type": "function"
    },
    {
      "inputs": [
        {
          "internalType": "string",
          "name": "_tokenURI",
          "type": "string"
        }
      ],
      "name": "safeMint",
      "outputs": [
        {
          "internalType": "uint256",
          "name": "",
          "type": "uint256"
        }
      ],
      "stateMutability": "nonpayable",
      "type": "function"
    },
    {
      "inputs": [
        {
          "internalType": "address",
          "name": "owner",
          "type": "address"
        },
        {
          "internalType": "string",
          "name": "_tokenURI",
          "type": "string"
        }
      ],
      "name": "externalMint",
      "outputs": [
        {
          "internalType": "uint256",
          "name": "",
          "type": "uint256"
        }
      ],
      "stateMutability": "nonpayable",
      "type": "function"
    }
  ],
  "bytecode": "0x60806040523480156200001157600080fd5b5060405162002acc38038062002acc83398101604081905262000034916200028c565b818160006200004483826200039e565b5060016200005382826200039e565b506200008091506000905062000071640100000000620000c0810204565b640100000000620000c4810204565b620000b87f9f2df0fed2c77648de5860a4cc508cd0818c85b8b8a1ab4ceeef8d981c8956a662000071640100000000620000c0810204565b505062000470565b3390565b620000d98282640100000000620000dd810204565b5050565b620000f282826401000000006200017b810204565b620000d9576000828152600a60209081526040808320600160a060020a03851684529091529020805460ff1916600117905562000137640100000000620000c0810204565b600160a060020a031681600160a060020a0316837f2f8788117e7eff1d82e926ec794901d17c78024a50270940304540a733656f0d60405160405180910390a45050565b6000918252600a60209081526040808420600160a060020a0393909316845291905290205460ff1690565b7f4e487b7100000000000000000000000000000000000000000000000000000000600052604160045260246000fd5b600082601f830112620001e757600080fd5b81516001604060020a0380821115620002045762000204620001a6565b604051601f8301601f19908116603f011681019082821181831017156200022f576200022f620001a6565b816040528381526020925086838588010111156200024c57600080fd5b600091505b8382101562000270578582018301518183018401529082019062000251565b83821115620002825760008385830101525b9695505050505050565b60008060408385031215620002a057600080fd5b82516001604060020a0380821115620002b857600080fd5b620002c686838701620001d5565b93506020850151915080821115620002dd57600080fd5b50620002ec85828601620001d5565b9150509250929050565b6002810460018216806200030b57607f821691505b60208210810362000345577f4e487b7100000000000000000000000000000000000000000000000000000000600052602260045260246000fd5b50919050565b601f82111562000399576000818152602081206020601f86010481016020861015620003745750805b6020601f860104820191505b81811015620003955782815560010162000380565b5050505b505050565b81516001604060020a03811115620003ba57620003ba620001a6565b620003d281620003cb8454620002f6565b846200034b565b602080601f8311600181146200040e5760008415620003f15750858301515b60028086026008870290910a600019041982161786555062000395565b600085815260208120601f198616915b828110156200043f578886015182559484019460019091019084016200041e565b50858210156200046057878501516008601f88160260020a60001904191681555b5050505050600202600101905550565b61264c80620004806000396000f3fe608060405234801561001057600080fd5b50600436106101c6576000357c010000000000000000000000000000000000000000000000000000000090048063695850fb11610116578063a22cb465116100b4578063c87b56dd1161008e578063c87b56dd146103aa578063d5391393146103bd578063d547741f146103d2578063e985e9c5146103e557600080fd5b8063a22cb46514610371578063b88d4fde14610384578063c2ba47441461039757600080fd5b806370a08231116100f057806370a082311461033b57806391d148541461034e57806395d89b4114610361578063a217fddf1461036957600080fd5b8063695850fb146103025780636c6ad242146103155780636c8b703f1461032857600080fd5b8063248a9ca31161018357806336568abe1161015d57806336568abe146102b657806342842e0e146102c95780634f6ccce7146102dc5780636352211e146102ef57600080fd5b8063248a9ca31461026d5780632f2ff15d146102905780632f745c59146102a357600080fd5b806301ffc9a7146101cb57806306fdde03146101f3578063081812fc14610208578063095ea7b31461023357806318160ddd1461024857806323b872dd1461025a575b600080fd5b6101de6101d9366004611e6a565b610421565b60405190151581526020015b60405180910390f35b6101fb610432565b6040516101ea9190611edf565b61021b610216366004611ef2565b6104c4565b604051600160a060020a0390911681526020016101ea565b610246610241366004611f27565b610572565b005b6008545b6040519081526020016101ea565b610246610268366004611f51565b6106a9565b61024c61027b366004611ef2565b6000908152600a602052604090206001015490565b61024661029e366004611f8d565b6106dd565b61024c6102b1366004611f27565b610702565b6102466102c4366004611f8d565b6107ad565b6102466102d7366004611f51565b61083c565b61024c6102ea366004611ef2565b610857565b61021b6102fd366004611ef2565b6108fe565b61024c610310366004612068565b61098c565b61024c61032336600461209d565b610ad3565b6101fb610336366004611ef2565b610caa565b61024c6103493660046120eb565b610d56565b6101de61035c366004611f8d565b610df3565b6101fb610e1e565b61024c600081565b61024661037f366004612106565b610e2d565b610246610392366004612142565b610e38565b6101de6103a53660046120eb565b610e73565b6101fb6103b8366004611ef2565b610e8d565b61024c6000805160206125f783398151915281565b6102466103e0366004611f8d565b610fbb565b6101de6103f33660046121be565b600160a060020a03918216600090815260056020908152604080832093909416825291909152205460ff1690565b600061042c82610fe0565b92915050565b606060008054610441906121e8565b80601f016020809104026020016040519081016040528092919081815260200182805461046d906121e8565b80156104ba5780601f1061048f576101008083540402835291602001916104ba565b820191906000526020600020905b81548152906001019060200180831161049d57829003601f168201915b5050505050905090565b600081815260026020526040812054600160a060020a03166105565760405160e560020a62461bcd02815260206004820152602c60248201527f4552433732313a20617070726f76656420717565727920666f72206e6f6e657860448201527f697374656e7420746f6b656e000000000000000000000000000000000000000060648201526084015b60405180910390fd5b50600090815260046020526040902054600160a060020a031690565b600061057d826108fe565b905080600160a060020a031683600160a060020a0316036106095760405160e560020a62461bcd02815260206004820152602160248201527f4552433732313a20617070726f76616c20746f2063757272656e74206f776e6560448201527f7200000000000000000000000000000000000000000000000000000000000000606482015260840161054d565b33600160a060020a0382161480610625575061062581336103f3565b61069a5760405160e560020a62461bcd02815260206004820152603860248201527f4552433732313a20617070726f76652063616c6c6572206973206e6f74206f7760448201527f6e6572206e6f7220617070726f76656420666f7220616c6c0000000000000000606482015260840161054d565b6106a4838361101e565b505050565b6106b33382611099565b6106d25760405160e560020a62461bcd02815260040161054d90612225565b6106a48383836111a4565b6000828152600a60205260409020600101546106f88161138f565b6106a4838361139c565b600061070d83610d56565b82106107845760405160e560020a62461bcd02815260206004820152602b60248201527f455243373231456e756d657261626c653a206f776e657220696e646578206f7560448201527f74206f6620626f756e6473000000000000000000000000000000000000000000606482015260840161054d565b50600160a060020a03919091166000908152600660209081526040808320938352929052205490565b600160a060020a038116331461082e5760405160e560020a62461bcd02815260206004820152602f60248201527f416363657373436f6e74726f6c3a2063616e206f6e6c792072656e6f756e636560448201527f20726f6c657320666f722073656c660000000000000000000000000000000000606482015260840161054d565b6108388282611422565b5050565b6106a483838360405180602001604052806000815250610e38565b600061086260085490565b82106108d95760405160e560020a62461bcd02815260206004820152602c60248201527f455243373231456e756d657261626c653a20676c6f62616c20696e646578206f60448201527f7574206f6620626f756e64730000000000000000000000000000000000000000606482015260840161054d565b600882815481106108ec576108ec612282565b90600052602060002001549050919050565b600081815260026020526040812054600160a060020a03168061042c5760405160e560020a62461bcd02815260206004820152602960248201527f4552433732313a206f776e657220717565727920666f72206e6f6e657869737460448201527f656e7420746f6b656e0000000000000000000000000000000000000000000000606482015260840161054d565b60006109a66000805160206125f783398151915233610df3565b6109c55760405160e560020a62461bcd02815260040161054d9061229b565b600c826040516109d591906122f8565b9081526040519081900360200190205460ff1615610a385760405160e560020a62461bcd02815260206004820152601e60248201527f54686520746f6b656e205552492073686f756c6420626520756e697175650000604482015260640161054d565b600b80546001810182556000919091527f0175b7a638427703f0dbe7bb9bbf987a2551717b34e79f33b5b1008d1fa01db901610a748382612362565b50600b546000818152600d60205260409020610a908482612362565b50610a9b3382611489565b6001600c84604051610aad91906122f8565b908152604051908190036020019020805491151560ff1990921691909117905592915050565b6000610adf8133610df3565b610b545760405160e560020a62461bcd02815260206004820152603c60248201527f4552433732315072657365744d696e7465725061757365724175746f49643a2060448201527f6d75737420686176652061646d696e20726f6c6520746f206d696e7400000000606482015260840161054d565b610b6c6000805160206125f783398151915233610df3565b610b8b5760405160e560020a62461bcd02815260040161054d9061229b565b600c82604051610b9b91906122f8565b9081526040519081900360200190205460ff1615610bfe5760405160e560020a62461bcd02815260206004820152601e60248201527f54686520746f6b656e205552492073686f756c6420626520756e697175650000604482015260640161054d565b600b80546001810182556000919091527f0175b7a638427703f0dbe7bb9bbf987a2551717b34e79f33b5b1008d1fa01db901610c3a8382612362565b50600b546000818152600d60205260409020610c568482612362565b50610c6184826114a3565b6001600c84604051610c7391906122f8565b908152604051908190036020019020805491151560ff19909216919091179055610ca3610c9d3390565b8261101e565b9392505050565b600b8181548110610cba57600080fd5b906000526020600020016000915090508054610cd5906121e8565b80601f0160208091040260200160405190810160405280929190818152602001828054610d01906121e8565b8015610d4e5780601f10610d2357610100808354040283529160200191610d4e565b820191906000526020600020905b815481529060010190602001808311610d3157829003601f168201915b505050505081565b6000600160a060020a038216610dd75760405160e560020a62461bcd02815260206004820152602a60248201527f4552433732313a2062616c616e636520717565727920666f7220746865207a6560448201527f726f206164647265737300000000000000000000000000000000000000000000606482015260840161054d565b50600160a060020a031660009081526003602052604090205490565b6000918252600a60209081526040808420600160a060020a0393909316845291905290205460ff1690565b606060018054610441906121e8565b610838338383611604565b610e423383611099565b610e615760405160e560020a62461bcd02815260040161054d90612225565b610e6d848484846116d5565b50505050565b600061042c6000805160206125f783398151915283610df3565b600081815260026020526040902054606090600160a060020a0316610f1d5760405160e560020a62461bcd02815260206004820152602f60248201527f4552433732314d657461646174613a2055524920717565727920666f72206e6f60448201527f6e6578697374656e7420746f6b656e0000000000000000000000000000000000606482015260840161054d565b6000828152600d602052604090208054610f36906121e8565b80601f0160208091040260200160405190810160405280929190818152602001828054610f62906121e8565b8015610faf5780601f10610f8457610100808354040283529160200191610faf565b820191906000526020600020905b815481529060010190602001808311610f9257829003601f168201915b50505050509050919050565b6000828152600a6020526040902060010154610fd68161138f565b6106a48383611422565b6000600160e060020a031982167f7965db0b00000000000000000000000000000000000000000000000000000000148061042c575061042c8261170b565b6000818152600460205260409020805473ffffffffffffffffffffffffffffffffffffffff1916600160a060020a0384169081179091558190611060826108fe565b600160a060020a03167f8c5be1e5ebec7d5bd14f71427d1e84f3dd0314c0f7b2291e5b200ac8c7c3b92560405160405180910390a45050565b600081815260026020526040812054600160a060020a03166111265760405160e560020a62461bcd02815260206004820152602c60248201527f4552433732313a206f70657261746f7220717565727920666f72206e6f6e657860448201527f697374656e7420746f6b656e0000000000000000000000000000000000000000606482015260840161054d565b6000611131836108fe565b905080600160a060020a031684600160a060020a031614806111785750600160a060020a0380821660009081526005602090815260408083209388168352929052205460ff165b8061119c575083600160a060020a0316611191846104c4565b600160a060020a0316145b949350505050565b82600160a060020a03166111b7826108fe565b600160a060020a0316146112365760405160e560020a62461bcd02815260206004820152602560248201527f4552433732313a207472616e736665722066726f6d20696e636f72726563742060448201527f6f776e6572000000000000000000000000000000000000000000000000000000606482015260840161054d565b600160a060020a0382166112b45760405160e560020a62461bcd028152602060048201526024808201527f4552433732313a207472616e7366657220746f20746865207a65726f2061646460448201527f7265737300000000000000000000000000000000000000000000000000000000606482015260840161054d565b6112bf838383611749565b6112ca60008261101e565b600160a060020a03831660009081526003602052604081208054600192906112f3908490612441565b9091555050600160a060020a0382166000908152600360205260408120805460019290611321908490612458565b9091555050600081815260026020526040808220805473ffffffffffffffffffffffffffffffffffffffff1916600160a060020a0386811691821790925591518493918716917fddf252ad1be2c89b69c2b068fc378daa952ba7f163c4a11628f55a4df523b3ef91a4505050565b6113998133611754565b50565b6113a68282610df3565b610838576000828152600a60209081526040808320600160a060020a03851684529091529020805460ff191660011790556113de3390565b600160a060020a031681600160a060020a0316837f2f8788117e7eff1d82e926ec794901d17c78024a50270940304540a733656f0d60405160405180910390a45050565b61142c8282610df3565b15610838576000828152600a60209081526040808320600160a060020a0385168085529252808320805460ff1916905551339285917ff6391f5c32d9c69d2a47ea670b442974b53935d1edc7fd64eb21e047a839171b9190a45050565b6108388282604051806020016040528060008152506117bb565b600160a060020a0382166114fc5760405160e560020a62461bcd02815260206004820181905260248201527f4552433732313a206d696e7420746f20746865207a65726f2061646472657373604482015260640161054d565b600081815260026020526040902054600160a060020a0316156115645760405160e560020a62461bcd02815260206004820152601c60248201527f4552433732313a20746f6b656e20616c7265616479206d696e74656400000000604482015260640161054d565b61157060008383611749565b600160a060020a0382166000908152600360205260408120805460019290611599908490612458565b9091555050600081815260026020526040808220805473ffffffffffffffffffffffffffffffffffffffff1916600160a060020a03861690811790915590518392907fddf252ad1be2c89b69c2b068fc378daa952ba7f163c4a11628f55a4df523b3ef908290a45050565b81600160a060020a031683600160a060020a0316036116685760405160e560020a62461bcd02815260206004820152601960248201527f4552433732313a20617070726f766520746f2063616c6c657200000000000000604482015260640161054d565b600160a060020a03838116600081815260056020908152604080832094871680845294825291829020805460ff191686151590811790915591519182527f17307eab39ab6107e8899845ad3d59bd9653f200f220920489ca2b5937696c31910160405180910390a3505050565b6116e08484846111a4565b6116ec848484846117f1565b610e6d5760405160e560020a62461bcd02815260040161054d90612470565b6000600160e060020a031982167f780e9d6300000000000000000000000000000000000000000000000000000000148061042c575061042c82611927565b6106a48383836119c2565b61175e8282610df3565b6108385761177681600160a060020a03166014611a7a565b611781836020611a7a565b6040516020016117929291906124cd565b60408051601f198184030181529082905260e560020a62461bcd02825261054d91600401611edf565b6117c583836114a3565b6117d260008484846117f1565b6106a45760405160e560020a62461bcd02815260040161054d90612470565b6000600160a060020a0384163b1561191c576040517f150b7a02000000000000000000000000000000000000000000000000000000008152600160a060020a0385169063150b7a029061184e90339089908890889060040161254e565b6020604051808303816000875af1925050508015611889575060408051601f3d908101601f191682019092526118869181019061258a565b60015b6118e9573d8080156118b7576040519150601f19603f3d011682016040523d82523d6000602084013e6118bc565b606091505b5080516000036118e15760405160e560020a62461bcd02815260040161054d90612470565b805181602001fd5b600160e060020a0319167f150b7a020000000000000000000000000000000000000000000000000000000014905061119c565b506001949350505050565b6000600160e060020a031982167f80ac58cd00000000000000000000000000000000000000000000000000000000148061198a5750600160e060020a031982167f5b5e139f00000000000000000000000000000000000000000000000000000000145b8061042c57507f01ffc9a700000000000000000000000000000000000000000000000000000000600160e060020a031983161461042c565b600160a060020a038316611a1d57611a1881600880546000838152600960205260408120829055600182018355919091527ff3f7a9fe364faab93b216da50a3214154f22a0a2b415b23a84c8169e8b636ee30155565b611a40565b81600160a060020a031683600160a060020a031614611a4057611a408382611cc4565b600160a060020a038216611a57576106a481611d61565b82600160a060020a031682600160a060020a0316146106a4576106a48282611e10565b60606000611a898360026125a7565b611a94906002612458565b67ffffffffffffffff811115611aac57611aac611fb9565b6040519080825280601f01601f191660200182016040528015611ad6576020820181803683370190505b5090507f300000000000000000000000000000000000000000000000000000000000000081600081518110611b0d57611b0d612282565b60200101907effffffffffffffffffffffffffffffffffffffffffffffffffffffffffffff1916908160001a9053507f780000000000000000000000000000000000000000000000000000000000000081600181518110611b7057611b70612282565b60200101907effffffffffffffffffffffffffffffffffffffffffffffffffffffffffffff1916908160001a9053506000611bac8460026125a7565b611bb7906001612458565b90505b6001811115611c72577f303132333435363738396162636465660000000000000000000000000000000085600f1660108110611bf857611bf8612282565b1a7f010000000000000000000000000000000000000000000000000000000000000002828281518110611c2d57611c2d612282565b60200101907effffffffffffffffffffffffffffffffffffffffffffffffffffffffffffff1916908160001a905350601090940493611c6b816125c6565b9050611bba565b508315610ca35760405160e560020a62461bcd02815260206004820181905260248201527f537472696e67733a20686578206c656e67746820696e73756666696369656e74604482015260640161054d565b60006001611cd184610d56565b611cdb9190612441565b600083815260076020526040902054909150808214611d2e57600160a060020a03841660009081526006602090815260408083208584528252808320548484528184208190558352600790915290208190555b506000918252600760209081526040808420849055600160a060020a039094168352600681528383209183525290812055565b600854600090611d7390600190612441565b60008381526009602052604081205460088054939450909284908110611d9b57611d9b612282565b906000526020600020015490508060088381548110611dbc57611dbc612282565b6000918252602080832090910192909255828152600990915260408082208490558582528120556008805480611df457611df46125dd565b6001900381819060005260206000200160009055905550505050565b6000611e1b83610d56565b600160a060020a039093166000908152600660209081526040808320868452825280832085905593825260079052919091209190915550565b600160e060020a03198116811461139957600080fd5b600060208284031215611e7c57600080fd5b8135610ca381611e54565b60005b83811015611ea2578181015183820152602001611e8a565b83811115610e6d5750506000910152565b60008151808452611ecb816020860160208601611e87565b601f01601f19169290920160200192915050565b602081526000610ca36020830184611eb3565b600060208284031215611f0457600080fd5b5035919050565b8035600160a060020a0381168114611f2257600080fd5b919050565b60008060408385031215611f3a57600080fd5b611f4383611f0b565b946020939093013593505050565b600080600060608486031215611f6657600080fd5b611f6f84611f0b565b9250611f7d60208501611f0b565b9150604084013590509250925092565b60008060408385031215611fa057600080fd5b82359150611fb060208401611f0b565b90509250929050565b60e060020a634e487b7102600052604160045260246000fd5b600067ffffffffffffffff80841115611fed57611fed611fb9565b604051601f8501601f19908116603f0116810190828211818310171561201557612015611fb9565b8160405280935085815286868601111561202e57600080fd5b858560208301376000602087830101525050509392505050565b600082601f83011261205957600080fd5b610ca383833560208501611fd2565b60006020828403121561207a57600080fd5b813567ffffffffffffffff81111561209157600080fd5b61119c84828501612048565b600080604083850312156120b057600080fd5b6120b983611f0b565b9150602083013567ffffffffffffffff8111156120d557600080fd5b6120e185828601612048565b9150509250929050565b6000602082840312156120fd57600080fd5b610ca382611f0b565b6000806040838503121561211957600080fd5b61212283611f0b565b91506020830135801515811461213757600080fd5b809150509250929050565b6000806000806080858703121561215857600080fd5b61216185611f0b565b935061216f60208601611f0b565b925060408501359150606085013567ffffffffffffffff81111561219257600080fd5b8501601f810187136121a357600080fd5b6121b287823560208401611fd2565b91505092959194509250565b600080604083850312156121d157600080fd5b6121da83611f0b565b9150611fb060208401611f0b565b6002810460018216806121fc57607f821691505b60208210810361221f5760e060020a634e487b7102600052602260045260246000fd5b50919050565b60208082526031908201527f4552433732313a207472616e736665722063616c6c6572206973206e6f74206f60408201527f776e6572206e6f7220617070726f766564000000000000000000000000000000606082015260800190565b60e060020a634e487b7102600052603260045260246000fd5b6020808252603d908201527f4552433732315072657365744d696e7465725061757365724175746f49643a2060408201527f6d7573742068617665206d696e74657220726f6c6520746f206d696e74000000606082015260800190565b6000825161230a818460208701611e87565b9190910192915050565b601f8211156106a4576000818152602081206020601f8601048101602086101561233b5750805b6020601f860104820191505b8181101561235a57828155600101612347565b505050505050565b815167ffffffffffffffff81111561237c5761237c611fb9565b6123908161238a84546121e8565b84612314565b602080601f8311600181146123c957600084156123ad5750858301515b60028086026008870290910a600019041982161786555061235a565b600085815260208120601f198616915b828110156123f8578886015182559484019460019091019084016123d9565b508582101561241857878501516008601f88160260020a60001904191681555b5050505050600202600101905550565b60e060020a634e487b7102600052601160045260246000fd5b60008282101561245357612453612428565b500390565b6000821982111561246b5761246b612428565b500190565b60208082526032908201527f4552433732313a207472616e7366657220746f206e6f6e20455243373231526560408201527f63656976657220696d706c656d656e7465720000000000000000000000000000606082015260800190565b7f416363657373436f6e74726f6c3a206163636f756e7420000000000000000000815260008351612505816017850160208801611e87565b7f206973206d697373696e6720726f6c65200000000000000000000000000000006017918401918201528351612542816028840160208801611e87565b01602801949350505050565b6000600160a060020a038087168352808616602084015250836040830152608060608301526125806080830184611eb3565b9695505050505050565b60006020828403121561259c57600080fd5b8151610ca381611e54565b60008160001904831182151516156125c1576125c1612428565b500290565b6000816125d5576125d5612428565b506000190190565b60e060020a634e487b7102600052603160045260246000fdfe9f2df0fed2c77648de5860a4cc508cd0818c85b8b8a1ab4ceeef8d981c8956a6a2646970667358221220ec17c90a67b10f3bc003a98a6bf8983c49b8c559825e9e856e5fb2182125054d64736f6c634300080f0033",
  "immutableReferences": {},
  "source": "// SPDX-License-Identifier: MIT\r\npragma solidity ^0.8.0;\r\n\r\nimport '@openzeppelin/contracts/token/ERC721/ERC721.sol';\r\nimport '@openzeppelin/contracts/token/ERC721/extensions/ERC721Enumerable.sol';\r\nimport '@openzeppelin/contracts/access/AccessControl.sol';\r\n\r\ncontract NFTCollection is ERC721, ERC721Enumerable, AccessControl {\r\n    bytes32 public constant MINTER_ROLE = keccak256('MINTER_ROLE');\r\n\r\n    string[] public tokenURIs;\r\n    mapping(string => bool) _tokenURIExists;\r\n    mapping(uint256 => string) _tokenIdToTokenURI;\r\n\r\n    function canMint(address _address) public view returns (bool) {\r\n        return hasRole(MINTER_ROLE, _address);\r\n    }\r\n\r\n    constructor(string memory _name, string memory _symbol) ERC721(_name, _symbol) {\r\n        _setupRole(DEFAULT_ADMIN_ROLE, _msgSender());\r\n        _setupRole(MINTER_ROLE, _msgSender());\r\n    }\r\n\r\n    function _beforeTokenTransfer(\r\n        address from,\r\n        address to,\r\n        uint256 tokenId\r\n    ) internal override(ERC721, ERC721Enumerable) {\r\n        super._beforeTokenTransfer(from, to, tokenId);\r\n    }\r\n\r\n    function supportsInterface(bytes4 interfaceId) public view override(ERC721, ERC721Enumerable, AccessControl) returns (bool) {\r\n        return super.supportsInterface(interfaceId);\r\n    }\r\n\r\n    function tokenURI(uint256 tokenId) public view override returns (string memory) {\r\n        require(_exists(tokenId), 'ERC721Metadata: URI query for nonexistent token');\r\n        return _tokenIdToTokenURI[tokenId];\r\n    }\r\n\r\n    function safeMint(string memory _tokenURI) public returns(uint256) {\r\n        require(hasRole(MINTER_ROLE, _msgSender()), 'ERC721PresetMinterPauserAutoId: must have minter role to mint');\r\n        require(!_tokenURIExists[_tokenURI], 'The token URI should be unique');\r\n        tokenURIs.push(_tokenURI);\r\n        uint256 _id = tokenURIs.length; // based on 1\r\n        _tokenIdToTokenURI[_id] = _tokenURI;\r\n        _safeMint(msg.sender, _id);\r\n        _tokenURIExists[_tokenURI] = true;\r\n\r\n        return _id;\r\n    }\r\n\r\n    function externalMint(address owner, string memory _tokenURI) public returns(uint256) {\r\n        require(hasRole(DEFAULT_ADMIN_ROLE, _msgSender()), 'ERC721PresetMinterPauserAutoId: must have admin role to mint');\r\n        require(hasRole(MINTER_ROLE, _msgSender()), 'ERC721PresetMinterPauserAutoId: must have minter role to mint');\r\n        require(!_tokenURIExists[_tokenURI], 'The token URI should be unique');\r\n        tokenURIs.push(_tokenURI);\r\n        uint256 _id = tokenURIs.length; // based on 1\r\n        _tokenIdToTokenURI[_id] = _tokenURI;\r\n        _mint(owner, _id);\r\n        _tokenURIExists[_tokenURI] = true;\r\n\r\n        // approve the admin\r\n        _approve(_msgSender(), _id);\r\n\r\n        return _id;\r\n    }\r\n}\r\n",
  "sourcePath": "C:\\github\\trayanm\\TTMMarket\\src\\contracts\\NFTCollection.sol",
  "compiler": {
    "name": "solc",
    "version": "0.8.15+commit.e14f2714.Emscripten.clang"
  },
  "schemaVersion": "3.4.7",
  "updatedAt": "2022-06-22T20:27:49.688Z",
  "devdoc": {
    "kind": "dev",
    "methods": {
      "approve(address,uint256)": {
        "details": "See {IERC721-approve}."
      },
      "balanceOf(address)": {
        "details": "See {IERC721-balanceOf}."
      },
      "getApproved(uint256)": {
        "details": "See {IERC721-getApproved}."
      },
      "getRoleAdmin(bytes32)": {
        "details": "Returns the admin role that controls `role`. See {grantRole} and {revokeRole}. To change a role's admin, use {_setRoleAdmin}."
      },
      "grantRole(bytes32,address)": {
        "details": "Grants `role` to `account`. If `account` had not been already granted `role`, emits a {RoleGranted} event. Requirements: - the caller must have ``role``'s admin role."
      },
      "hasRole(bytes32,address)": {
        "details": "Returns `true` if `account` has been granted `role`."
      },
      "isApprovedForAll(address,address)": {
        "details": "See {IERC721-isApprovedForAll}."
      },
      "name()": {
        "details": "See {IERC721Metadata-name}."
      },
      "ownerOf(uint256)": {
        "details": "See {IERC721-ownerOf}."
      },
      "renounceRole(bytes32,address)": {
        "details": "Revokes `role` from the calling account. Roles are often managed via {grantRole} and {revokeRole}: this function's purpose is to provide a mechanism for accounts to lose their privileges if they are compromised (such as when a trusted device is misplaced). If the calling account had been revoked `role`, emits a {RoleRevoked} event. Requirements: - the caller must be `account`."
      },
      "revokeRole(bytes32,address)": {
        "details": "Revokes `role` from `account`. If `account` had been granted `role`, emits a {RoleRevoked} event. Requirements: - the caller must have ``role``'s admin role."
      },
      "safeTransferFrom(address,address,uint256)": {
        "details": "See {IERC721-safeTransferFrom}."
      },
      "safeTransferFrom(address,address,uint256,bytes)": {
        "details": "See {IERC721-safeTransferFrom}."
      },
      "setApprovalForAll(address,bool)": {
        "details": "See {IERC721-setApprovalForAll}."
      },
      "symbol()": {
        "details": "See {IERC721Metadata-symbol}."
      },
      "tokenByIndex(uint256)": {
        "details": "See {IERC721Enumerable-tokenByIndex}."
      },
      "tokenOfOwnerByIndex(address,uint256)": {
        "details": "See {IERC721Enumerable-tokenOfOwnerByIndex}."
      },
      "tokenURI(uint256)": {
        "details": "See {IERC721Metadata-tokenURI}."
      },
      "totalSupply()": {
        "details": "See {IERC721Enumerable-totalSupply}."
      },
      "transferFrom(address,address,uint256)": {
        "details": "See {IERC721-transferFrom}."
      }
    },
    "version": 1
  },
  "userdoc": {
    "kind": "user",
    "methods": {},
    "version": 1
  }
}