{
  "contractName": "NFTCollection",
  "abi": [
    {
      "inputs": [
        {
          "internalType": "string",
          "name": "_name",
          "type": "string"
        },
        {
          "internalType": "string",
          "name": "_symbol",
          "type": "string"
        }
      ],
      "stateMutability": "nonpayable",
      "type": "constructor"
    },
    {
      "anonymous": false,
      "inputs": [
        {
          "indexed": true,
          "internalType": "address",
          "name": "owner",
          "type": "address"
        },
        {
          "indexed": true,
          "internalType": "address",
          "name": "approved",
          "type": "address"
        },
        {
          "indexed": true,
          "internalType": "uint256",
          "name": "tokenId",
          "type": "uint256"
        }
      ],
      "name": "Approval",
      "type": "event"
    },
    {
      "anonymous": false,
      "inputs": [
        {
          "indexed": true,
          "internalType": "address",
          "name": "owner",
          "type": "address"
        },
        {
          "indexed": true,
          "internalType": "address",
          "name": "operator",
          "type": "address"
        },
        {
          "indexed": false,
          "internalType": "bool",
          "name": "approved",
          "type": "bool"
        }
      ],
      "name": "ApprovalForAll",
      "type": "event"
    },
    {
      "anonymous": false,
      "inputs": [
        {
          "indexed": true,
          "internalType": "bytes32",
          "name": "role",
          "type": "bytes32"
        },
        {
          "indexed": true,
          "internalType": "bytes32",
          "name": "previousAdminRole",
          "type": "bytes32"
        },
        {
          "indexed": true,
          "internalType": "bytes32",
          "name": "newAdminRole",
          "type": "bytes32"
        }
      ],
      "name": "RoleAdminChanged",
      "type": "event"
    },
    {
      "anonymous": false,
      "inputs": [
        {
          "indexed": true,
          "internalType": "bytes32",
          "name": "role",
          "type": "bytes32"
        },
        {
          "indexed": true,
          "internalType": "address",
          "name": "account",
          "type": "address"
        },
        {
          "indexed": true,
          "internalType": "address",
          "name": "sender",
          "type": "address"
        }
      ],
      "name": "RoleGranted",
      "type": "event"
    },
    {
      "anonymous": false,
      "inputs": [
        {
          "indexed": true,
          "internalType": "bytes32",
          "name": "role",
          "type": "bytes32"
        },
        {
          "indexed": true,
          "internalType": "address",
          "name": "account",
          "type": "address"
        },
        {
          "indexed": true,
          "internalType": "address",
          "name": "sender",
          "type": "address"
        }
      ],
      "name": "RoleRevoked",
      "type": "event"
    },
    {
      "anonymous": false,
      "inputs": [
        {
          "indexed": true,
          "internalType": "address",
          "name": "from",
          "type": "address"
        },
        {
          "indexed": true,
          "internalType": "address",
          "name": "to",
          "type": "address"
        },
        {
          "indexed": true,
          "internalType": "uint256",
          "name": "tokenId",
          "type": "uint256"
        }
      ],
      "name": "Transfer",
      "type": "event"
    },
    {
      "inputs": [],
      "name": "DEFAULT_ADMIN_ROLE",
      "outputs": [
        {
          "internalType": "bytes32",
          "name": "",
          "type": "bytes32"
        }
      ],
      "stateMutability": "view",
      "type": "function"
    },
    {
      "inputs": [],
      "name": "MINTER_ROLE",
      "outputs": [
        {
          "internalType": "bytes32",
          "name": "",
          "type": "bytes32"
        }
      ],
      "stateMutability": "view",
      "type": "function"
    },
    {
      "inputs": [
        {
          "internalType": "address",
          "name": "to",
          "type": "address"
        },
        {
          "internalType": "uint256",
          "name": "tokenId",
          "type": "uint256"
        }
      ],
      "name": "approve",
      "outputs": [],
      "stateMutability": "nonpayable",
      "type": "function"
    },
    {
      "inputs": [
        {
          "internalType": "address",
          "name": "owner",
          "type": "address"
        }
      ],
      "name": "balanceOf",
      "outputs": [
        {
          "internalType": "uint256",
          "name": "",
          "type": "uint256"
        }
      ],
      "stateMutability": "view",
      "type": "function"
    },
    {
      "inputs": [
        {
          "internalType": "uint256",
          "name": "tokenId",
          "type": "uint256"
        }
      ],
      "name": "getApproved",
      "outputs": [
        {
          "internalType": "address",
          "name": "",
          "type": "address"
        }
      ],
      "stateMutability": "view",
      "type": "function"
    },
    {
      "inputs": [
        {
          "internalType": "bytes32",
          "name": "role",
          "type": "bytes32"
        }
      ],
      "name": "getRoleAdmin",
      "outputs": [
        {
          "internalType": "bytes32",
          "name": "",
          "type": "bytes32"
        }
      ],
      "stateMutability": "view",
      "type": "function"
    },
    {
      "inputs": [
        {
          "internalType": "bytes32",
          "name": "role",
          "type": "bytes32"
        },
        {
          "internalType": "address",
          "name": "account",
          "type": "address"
        }
      ],
      "name": "grantRole",
      "outputs": [],
      "stateMutability": "nonpayable",
      "type": "function"
    },
    {
      "inputs": [
        {
          "internalType": "bytes32",
          "name": "role",
          "type": "bytes32"
        },
        {
          "internalType": "address",
          "name": "account",
          "type": "address"
        }
      ],
      "name": "hasRole",
      "outputs": [
        {
          "internalType": "bool",
          "name": "",
          "type": "bool"
        }
      ],
      "stateMutability": "view",
      "type": "function"
    },
    {
      "inputs": [
        {
          "internalType": "address",
          "name": "owner",
          "type": "address"
        },
        {
          "internalType": "address",
          "name": "operator",
          "type": "address"
        }
      ],
      "name": "isApprovedForAll",
      "outputs": [
        {
          "internalType": "bool",
          "name": "",
          "type": "bool"
        }
      ],
      "stateMutability": "view",
      "type": "function"
    },
    {
      "inputs": [],
      "name": "name",
      "outputs": [
        {
          "internalType": "string",
          "name": "",
          "type": "string"
        }
      ],
      "stateMutability": "view",
      "type": "function"
    },
    {
      "inputs": [
        {
          "internalType": "uint256",
          "name": "tokenId",
          "type": "uint256"
        }
      ],
      "name": "ownerOf",
      "outputs": [
        {
          "internalType": "address",
          "name": "",
          "type": "address"
        }
      ],
      "stateMutability": "view",
      "type": "function"
    },
    {
      "inputs": [
        {
          "internalType": "bytes32",
          "name": "role",
          "type": "bytes32"
        },
        {
          "internalType": "address",
          "name": "account",
          "type": "address"
        }
      ],
      "name": "renounceRole",
      "outputs": [],
      "stateMutability": "nonpayable",
      "type": "function"
    },
    {
      "inputs": [
        {
          "internalType": "bytes32",
          "name": "role",
          "type": "bytes32"
        },
        {
          "internalType": "address",
          "name": "account",
          "type": "address"
        }
      ],
      "name": "revokeRole",
      "outputs": [],
      "stateMutability": "nonpayable",
      "type": "function"
    },
    {
      "inputs": [
        {
          "internalType": "address",
          "name": "from",
          "type": "address"
        },
        {
          "internalType": "address",
          "name": "to",
          "type": "address"
        },
        {
          "internalType": "uint256",
          "name": "tokenId",
          "type": "uint256"
        }
      ],
      "name": "safeTransferFrom",
      "outputs": [],
      "stateMutability": "nonpayable",
      "type": "function"
    },
    {
      "inputs": [
        {
          "internalType": "address",
          "name": "from",
          "type": "address"
        },
        {
          "internalType": "address",
          "name": "to",
          "type": "address"
        },
        {
          "internalType": "uint256",
          "name": "tokenId",
          "type": "uint256"
        },
        {
          "internalType": "bytes",
          "name": "_data",
          "type": "bytes"
        }
      ],
      "name": "safeTransferFrom",
      "outputs": [],
      "stateMutability": "nonpayable",
      "type": "function"
    },
    {
      "inputs": [
        {
          "internalType": "address",
          "name": "operator",
          "type": "address"
        },
        {
          "internalType": "bool",
          "name": "approved",
          "type": "bool"
        }
      ],
      "name": "setApprovalForAll",
      "outputs": [],
      "stateMutability": "nonpayable",
      "type": "function"
    },
    {
      "inputs": [],
      "name": "symbol",
      "outputs": [
        {
          "internalType": "string",
          "name": "",
          "type": "string"
        }
      ],
      "stateMutability": "view",
      "type": "function"
    },
    {
      "inputs": [
        {
          "internalType": "uint256",
          "name": "index",
          "type": "uint256"
        }
      ],
      "name": "tokenByIndex",
      "outputs": [
        {
          "internalType": "uint256",
          "name": "",
          "type": "uint256"
        }
      ],
      "stateMutability": "view",
      "type": "function"
    },
    {
      "inputs": [
        {
          "internalType": "address",
          "name": "owner",
          "type": "address"
        },
        {
          "internalType": "uint256",
          "name": "index",
          "type": "uint256"
        }
      ],
      "name": "tokenOfOwnerByIndex",
      "outputs": [
        {
          "internalType": "uint256",
          "name": "",
          "type": "uint256"
        }
      ],
      "stateMutability": "view",
      "type": "function"
    },
    {
      "inputs": [
        {
          "internalType": "uint256",
          "name": "",
          "type": "uint256"
        }
      ],
      "name": "tokenURIs",
      "outputs": [
        {
          "internalType": "string",
          "name": "",
          "type": "string"
        }
      ],
      "stateMutability": "view",
      "type": "function"
    },
    {
      "inputs": [],
      "name": "totalSupply",
      "outputs": [
        {
          "internalType": "uint256",
          "name": "",
          "type": "uint256"
        }
      ],
      "stateMutability": "view",
      "type": "function"
    },
    {
      "inputs": [
        {
          "internalType": "address",
          "name": "from",
          "type": "address"
        },
        {
          "internalType": "address",
          "name": "to",
          "type": "address"
        },
        {
          "internalType": "uint256",
          "name": "tokenId",
          "type": "uint256"
        }
      ],
      "name": "transferFrom",
      "outputs": [],
      "stateMutability": "nonpayable",
      "type": "function"
    },
    {
      "inputs": [
        {
          "internalType": "bytes4",
          "name": "interfaceId",
          "type": "bytes4"
        }
      ],
      "name": "supportsInterface",
      "outputs": [
        {
          "internalType": "bool",
          "name": "",
          "type": "bool"
        }
      ],
      "stateMutability": "view",
      "type": "function"
    },
    {
      "inputs": [
        {
          "internalType": "uint256",
          "name": "tokenId",
          "type": "uint256"
        }
      ],
      "name": "tokenURI",
      "outputs": [
        {
          "internalType": "string",
          "name": "",
          "type": "string"
        }
      ],
      "stateMutability": "view",
      "type": "function"
    },
    {
      "inputs": [
        {
          "internalType": "string",
          "name": "_tokenURI",
          "type": "string"
        }
      ],
      "name": "safeMint",
      "outputs": [],
      "stateMutability": "nonpayable",
      "type": "function"
    }
  ],
  "bytecode": "0x60806040523480156200001157600080fd5b5060405162004265380380620042658339818101604052810190620000379190620004a2565b818181600090805190602001906200005192919062000255565b5080600190805190602001906200006a92919062000255565b505050620000916000801b62000085620000da60201b60201c565b620000e260201b60201c565b620000d27f9f2df0fed2c77648de5860a4cc508cd0818c85b8b8a1ab4ceeef8d981c8956a6620000c6620000da60201b60201c565b620000e260201b60201c565b50506200058b565b600033905090565b620000f48282620000f860201b60201c565b5050565b6200010a8282620001ea60201b60201c565b620001e6576001600a600084815260200190815260200160002060000160008373ffffffffffffffffffffffffffffffffffffffff1673ffffffffffffffffffffffffffffffffffffffff16815260200190815260200160002060006101000a81548160ff0219169083151502179055506200018b620000da60201b60201c565b73ffffffffffffffffffffffffffffffffffffffff168173ffffffffffffffffffffffffffffffffffffffff16837f2f8788117e7eff1d82e926ec794901d17c78024a50270940304540a733656f0d60405160405180910390a45b5050565b6000600a600084815260200190815260200160002060000160008373ffffffffffffffffffffffffffffffffffffffff1673ffffffffffffffffffffffffffffffffffffffff16815260200190815260200160002060009054906101000a900460ff16905092915050565b828054620002639062000556565b90600052602060002090601f016020900481019282620002875760008555620002d3565b82601f10620002a257805160ff1916838001178555620002d3565b82800160010185558215620002d3579182015b82811115620002d2578251825591602001919060010190620002b5565b5b509050620002e29190620002e6565b5090565b5b8082111562000301576000816000905550600101620002e7565b5090565b6000604051905090565b600080fd5b600080fd5b600080fd5b600080fd5b6000601f19601f8301169050919050565b7f4e487b7100000000000000000000000000000000000000000000000000000000600052604160045260246000fd5b6200036e8262000323565b810181811067ffffffffffffffff8211171562000390576200038f62000334565b5b80604052505050565b6000620003a562000305565b9050620003b3828262000363565b919050565b600067ffffffffffffffff821115620003d657620003d562000334565b5b620003e18262000323565b9050602081019050919050565b60005b838110156200040e578082015181840152602081019050620003f1565b838111156200041e576000848401525b50505050565b60006200043b6200043584620003b8565b62000399565b9050828152602081018484840111156200045a57620004596200031e565b5b62000467848285620003ee565b509392505050565b600082601f83011262000487576200048662000319565b5b81516200049984826020860162000424565b91505092915050565b60008060408385031215620004bc57620004bb6200030f565b5b600083015167ffffffffffffffff811115620004dd57620004dc62000314565b5b620004eb858286016200046f565b925050602083015167ffffffffffffffff8111156200050f576200050e62000314565b5b6200051d858286016200046f565b9150509250929050565b7f4e487b7100000000000000000000000000000000000000000000000000000000600052602260045260246000fd5b600060028204905060018216806200056f57607f821691505b60208210810362000585576200058462000527565b5b50919050565b613cca806200059b6000396000f3fe608060405234801561001057600080fd5b50600436106101735760003560e01c80636352211e116100de578063a217fddf11610097578063c87b56dd11610071578063c87b56dd14610480578063d5391393146104b0578063d547741f146104ce578063e985e9c5146104ea57610173565b8063a217fddf1461042a578063a22cb46514610448578063b88d4fde1461046457610173565b80636352211e14610330578063695850fb146103605780636c8b703f1461037c57806370a08231146103ac57806391d14854146103dc57806395d89b411461040c57610173565b8063248a9ca311610130578063248a9ca31461024c5780632f2ff15d1461027c5780632f745c591461029857806336568abe146102c857806342842e0e146102e45780634f6ccce71461030057610173565b806301ffc9a71461017857806306fdde03146101a8578063081812fc146101c6578063095ea7b3146101f657806318160ddd1461021257806323b872dd14610230575b600080fd5b610192600480360381019061018d91906126da565b61051a565b60405161019f9190612722565b60405180910390f35b6101b061052c565b6040516101bd91906127d6565b60405180910390f35b6101e060048036038101906101db919061282e565b6105be565b6040516101ed919061289c565b60405180910390f35b610210600480360381019061020b91906128e3565b610643565b005b61021a61075a565b6040516102279190612932565b60405180910390f35b61024a6004803603810190610245919061294d565b610767565b005b610266600480360381019061026191906129d6565b6107c7565b6040516102739190612a12565b60405180910390f35b61029660048036038101906102919190612a2d565b6107e7565b005b6102b260048036038101906102ad91906128e3565b610810565b6040516102bf9190612932565b60405180910390f35b6102e260048036038101906102dd9190612a2d565b6108b5565b005b6102fe60048036038101906102f9919061294d565b610938565b005b61031a6004803603810190610315919061282e565b610958565b6040516103279190612932565b60405180910390f35b61034a6004803603810190610345919061282e565b6109c9565b604051610357919061289c565b60405180910390f35b61037a60048036038101906103759190612ba2565b610a7a565b005b6103966004803603810190610391919061282e565b610c09565b6040516103a391906127d6565b60405180910390f35b6103c660048036038101906103c19190612beb565b610cb5565b6040516103d39190612932565b60405180910390f35b6103f660048036038101906103f19190612a2d565b610d6c565b6040516104039190612722565b60405180910390f35b610414610dd7565b60405161042191906127d6565b60405180910390f35b610432610e69565b60405161043f9190612a12565b60405180910390f35b610462600480360381019061045d9190612c44565b610e70565b005b61047e60048036038101906104799190612d25565b610ff0565b005b61049a6004803603810190610495919061282e565b611052565b6040516104a791906127d6565b60405180910390f35b6104b861113f565b6040516104c59190612a12565b60405180910390f35b6104e860048036038101906104e39190612a2d565b611163565b005b61050460048036038101906104ff9190612da8565b61118c565b6040516105119190612722565b60405180910390f35b600061052582611220565b9050919050565b60606000805461053b90612e17565b80601f016020809104026020016040519081016040528092919081815260200182805461056790612e17565b80156105b45780601f10610589576101008083540402835291602001916105b4565b820191906000526020600020905b81548152906001019060200180831161059757829003601f168201915b5050505050905090565b60006105c98261129a565b610608576040517f08c379a00000000000000000000000000000000000000000000000000000000081526004016105ff90612eba565b60405180910390fd5b6004600083815260200190815260200160002060009054906101000a900473ffffffffffffffffffffffffffffffffffffffff169050919050565b600061064e826109c9565b90508073ffffffffffffffffffffffffffffffffffffffff168373ffffffffffffffffffffffffffffffffffffffff16036106be576040517f08c379a00000000000000000000000000000000000000000000000000000000081526004016106b590612f4c565b60405180910390fd5b8073ffffffffffffffffffffffffffffffffffffffff166106dd611306565b73ffffffffffffffffffffffffffffffffffffffff16148061070c575061070b81610706611306565b61118c565b5b61074b576040517f08c379a000000000000000000000000000000000000000000000000000000000815260040161074290612fde565b60405180910390fd5b610755838361130e565b505050565b6000600880549050905090565b610778610772611306565b826113c7565b6107b7576040517f08c379a00000000000000000000000000000000000000000000000000000000081526004016107ae90613070565b60405180910390fd5b6107c28383836114a5565b505050565b6000600a6000838152602001908152602001600020600101549050919050565b6107f0826107c7565b610801816107fc611306565b611700565b61080b838361179d565b505050565b600061081b83610cb5565b821061085c576040517f08c379a000000000000000000000000000000000000000000000000000000000815260040161085390613102565b60405180910390fd5b600660008473ffffffffffffffffffffffffffffffffffffffff1673ffffffffffffffffffffffffffffffffffffffff168152602001908152602001600020600083815260200190815260200160002054905092915050565b6108bd611306565b73ffffffffffffffffffffffffffffffffffffffff168173ffffffffffffffffffffffffffffffffffffffff161461092a576040517f08c379a000000000000000000000000000000000000000000000000000000000815260040161092190613194565b60405180910390fd5b610934828261187e565b5050565b61095383838360405180602001604052806000815250610ff0565b505050565b600061096261075a565b82106109a3576040517f08c379a000000000000000000000000000000000000000000000000000000000815260040161099a90613226565b60405180910390fd5b600882815481106109b7576109b6613246565b5b90600052602060002001549050919050565b6000806002600084815260200190815260200160002060009054906101000a900473ffffffffffffffffffffffffffffffffffffffff169050600073ffffffffffffffffffffffffffffffffffffffff168173ffffffffffffffffffffffffffffffffffffffff1603610a71576040517f08c379a0000000000000000000000000000000000000000000000000000000008152600401610a68906132e7565b60405180910390fd5b80915050919050565b610aab7f9f2df0fed2c77648de5860a4cc508cd0818c85b8b8a1ab4ceeef8d981c8956a6610aa6611306565b610d6c565b610aea576040517f08c379a0000000000000000000000000000000000000000000000000000000008152600401610ae190613379565b60405180910390fd5b600c81604051610afa91906133d5565b908152602001604051809103902060009054906101000a900460ff1615610b56576040517f08c379a0000000000000000000000000000000000000000000000000000000008152600401610b4d90613438565b60405180910390fd5b600b81908060018154018082558091505060019003906000526020600020016000909190919091509080519060200190610b919291906125cb565b506000600b80549050905081600d60008381526020019081526020016000209080519060200190610bc39291906125cb565b50610bce3382611960565b6001600c83604051610be091906133d5565b908152602001604051809103902060006101000a81548160ff0219169083151502179055505050565b600b8181548110610c1957600080fd5b906000526020600020016000915090508054610c3490612e17565b80601f0160208091040260200160405190810160405280929190818152602001828054610c6090612e17565b8015610cad5780601f10610c8257610100808354040283529160200191610cad565b820191906000526020600020905b815481529060010190602001808311610c9057829003601f168201915b505050505081565b60008073ffffffffffffffffffffffffffffffffffffffff168273ffffffffffffffffffffffffffffffffffffffff1603610d25576040517f08c379a0000000000000000000000000000000000000000000000000000000008152600401610d1c906134ca565b60405180910390fd5b600360008373ffffffffffffffffffffffffffffffffffffffff1673ffffffffffffffffffffffffffffffffffffffff168152602001908152602001600020549050919050565b6000600a600084815260200190815260200160002060000160008373ffffffffffffffffffffffffffffffffffffffff1673ffffffffffffffffffffffffffffffffffffffff16815260200190815260200160002060009054906101000a900460ff16905092915050565b606060018054610de690612e17565b80601f0160208091040260200160405190810160405280929190818152602001828054610e1290612e17565b8015610e5f5780601f10610e3457610100808354040283529160200191610e5f565b820191906000526020600020905b815481529060010190602001808311610e4257829003601f168201915b5050505050905090565b6000801b81565b610e78611306565b73ffffffffffffffffffffffffffffffffffffffff168273ffffffffffffffffffffffffffffffffffffffff1603610ee5576040517f08c379a0000000000000000000000000000000000000000000000000000000008152600401610edc90613536565b60405180910390fd5b8060056000610ef2611306565b73ffffffffffffffffffffffffffffffffffffffff1673ffffffffffffffffffffffffffffffffffffffff16815260200190815260200160002060008473ffffffffffffffffffffffffffffffffffffffff1673ffffffffffffffffffffffffffffffffffffffff16815260200190815260200160002060006101000a81548160ff0219169083151502179055508173ffffffffffffffffffffffffffffffffffffffff16610f9f611306565b73ffffffffffffffffffffffffffffffffffffffff167f17307eab39ab6107e8899845ad3d59bd9653f200f220920489ca2b5937696c3183604051610fe49190612722565b60405180910390a35050565b611001610ffb611306565b836113c7565b611040576040517f08c379a000000000000000000000000000000000000000000000000000000000815260040161103790613070565b60405180910390fd5b61104c8484848461197e565b50505050565b606061105d8261129a565b61109c576040517f08c379a0000000000000000000000000000000000000000000000000000000008152600401611093906135c8565b60405180910390fd5b600d600083815260200190815260200160002080546110ba90612e17565b80601f01602080910402602001604051908101604052809291908181526020018280546110e690612e17565b80156111335780601f1061110857610100808354040283529160200191611133565b820191906000526020600020905b81548152906001019060200180831161111657829003601f168201915b50505050509050919050565b7f9f2df0fed2c77648de5860a4cc508cd0818c85b8b8a1ab4ceeef8d981c8956a681565b61116c826107c7565b61117d81611178611306565b611700565b611187838361187e565b505050565b6000600560008473ffffffffffffffffffffffffffffffffffffffff1673ffffffffffffffffffffffffffffffffffffffff16815260200190815260200160002060008373ffffffffffffffffffffffffffffffffffffffff1673ffffffffffffffffffffffffffffffffffffffff16815260200190815260200160002060009054906101000a900460ff16905092915050565b60007f7965db0b000000000000000000000000000000000000000000000000000000007bffffffffffffffffffffffffffffffffffffffffffffffffffffffff1916827bffffffffffffffffffffffffffffffffffffffffffffffffffffffff191614806112935750611292826119da565b5b9050919050565b60008073ffffffffffffffffffffffffffffffffffffffff166002600084815260200190815260200160002060009054906101000a900473ffffffffffffffffffffffffffffffffffffffff1673ffffffffffffffffffffffffffffffffffffffff1614159050919050565b600033905090565b816004600083815260200190815260200160002060006101000a81548173ffffffffffffffffffffffffffffffffffffffff021916908373ffffffffffffffffffffffffffffffffffffffff160217905550808273ffffffffffffffffffffffffffffffffffffffff16611381836109c9565b73ffffffffffffffffffffffffffffffffffffffff167f8c5be1e5ebec7d5bd14f71427d1e84f3dd0314c0f7b2291e5b200ac8c7c3b92560405160405180910390a45050565b60006113d28261129a565b611411576040517f08c379a00000000000000000000000000000000000000000000000000000000081526004016114089061365a565b60405180910390fd5b600061141c836109c9565b90508073ffffffffffffffffffffffffffffffffffffffff168473ffffffffffffffffffffffffffffffffffffffff16148061148b57508373ffffffffffffffffffffffffffffffffffffffff16611473846105be565b73ffffffffffffffffffffffffffffffffffffffff16145b8061149c575061149b818561118c565b5b91505092915050565b8273ffffffffffffffffffffffffffffffffffffffff166114c5826109c9565b73ffffffffffffffffffffffffffffffffffffffff161461151b576040517f08c379a0000000000000000000000000000000000000000000000000000000008152600401611512906136ec565b60405180910390fd5b600073ffffffffffffffffffffffffffffffffffffffff168273ffffffffffffffffffffffffffffffffffffffff160361158a576040517f08c379a00000000000000000000000000000000000000000000000000000000081526004016115819061377e565b60405180910390fd5b611595838383611a54565b6115a060008261130e565b6001600360008573ffffffffffffffffffffffffffffffffffffffff1673ffffffffffffffffffffffffffffffffffffffff16815260200190815260200160002060008282546115f091906137cd565b925050819055506001600360008473ffffffffffffffffffffffffffffffffffffffff1673ffffffffffffffffffffffffffffffffffffffff16815260200190815260200160002060008282546116479190613801565b92505081905550816002600083815260200190815260200160002060006101000a81548173ffffffffffffffffffffffffffffffffffffffff021916908373ffffffffffffffffffffffffffffffffffffffff160217905550808273ffffffffffffffffffffffffffffffffffffffff168473ffffffffffffffffffffffffffffffffffffffff167fddf252ad1be2c89b69c2b068fc378daa952ba7f163c4a11628f55a4df523b3ef60405160405180910390a4505050565b61170a8282610d6c565b6117995761172f8173ffffffffffffffffffffffffffffffffffffffff166014611a64565b61173d8360001c6020611a64565b60405160200161174e9291906138ef565b6040516020818303038152906040526040517f08c379a000000000000000000000000000000000000000000000000000000000815260040161179091906127d6565b60405180910390fd5b5050565b6117a78282610d6c565b61187a576001600a600084815260200190815260200160002060000160008373ffffffffffffffffffffffffffffffffffffffff1673ffffffffffffffffffffffffffffffffffffffff16815260200190815260200160002060006101000a81548160ff02191690831515021790555061181f611306565b73ffffffffffffffffffffffffffffffffffffffff168173ffffffffffffffffffffffffffffffffffffffff16837f2f8788117e7eff1d82e926ec794901d17c78024a50270940304540a733656f0d60405160405180910390a45b5050565b6118888282610d6c565b1561195c576000600a600084815260200190815260200160002060000160008373ffffffffffffffffffffffffffffffffffffffff1673ffffffffffffffffffffffffffffffffffffffff16815260200190815260200160002060006101000a81548160ff021916908315150217905550611901611306565b73ffffffffffffffffffffffffffffffffffffffff168173ffffffffffffffffffffffffffffffffffffffff16837ff6391f5c32d9c69d2a47ea670b442974b53935d1edc7fd64eb21e047a839171b60405160405180910390a45b5050565b61197a828260405180602001604052806000815250611ca0565b5050565b6119898484846114a5565b61199584848484611cfb565b6119d4576040517f08c379a00000000000000000000000000000000000000000000000000000000081526004016119cb9061399b565b60405180910390fd5b50505050565b60007f780e9d63000000000000000000000000000000000000000000000000000000007bffffffffffffffffffffffffffffffffffffffffffffffffffffffff1916827bffffffffffffffffffffffffffffffffffffffffffffffffffffffff19161480611a4d5750611a4c82611e82565b5b9050919050565b611a5f838383611f64565b505050565b606060006002836002611a7791906139bb565b611a819190613801565b67ffffffffffffffff811115611a9a57611a99612a77565b5b6040519080825280601f01601f191660200182016040528015611acc5781602001600182028036833780820191505090505b5090507f300000000000000000000000000000000000000000000000000000000000000081600081518110611b0457611b03613246565b5b60200101907effffffffffffffffffffffffffffffffffffffffffffffffffffffffffffff1916908160001a9053507f780000000000000000000000000000000000000000000000000000000000000081600181518110611b6857611b67613246565b5b60200101907effffffffffffffffffffffffffffffffffffffffffffffffffffffffffffff1916908160001a90535060006001846002611ba891906139bb565b611bb29190613801565b90505b6001811115611c52577f3031323334353637383961626364656600000000000000000000000000000000600f861660108110611bf457611bf3613246565b5b1a60f81b828281518110611c0b57611c0a613246565b5b60200101907effffffffffffffffffffffffffffffffffffffffffffffffffffffffffffff1916908160001a905350600485901c945080611c4b90613a15565b9050611bb5565b5060008414611c96576040517f08c379a0000000000000000000000000000000000000000000000000000000008152600401611c8d90613a8a565b60405180910390fd5b8091505092915050565b611caa8383612076565b611cb76000848484611cfb565b611cf6576040517f08c379a0000000000000000000000000000000000000000000000000000000008152600401611ced9061399b565b60405180910390fd5b505050565b6000611d1c8473ffffffffffffffffffffffffffffffffffffffff16612243565b15611e75578373ffffffffffffffffffffffffffffffffffffffff1663150b7a02611d45611306565b8786866040518563ffffffff1660e01b8152600401611d679493929190613aff565b6020604051808303816000875af1925050508015611da357506040513d601f19601f82011682018060405250810190611da09190613b60565b60015b611e25573d8060008114611dd3576040519150601f19603f3d011682016040523d82523d6000602084013e611dd8565b606091505b506000815103611e1d576040517f08c379a0000000000000000000000000000000000000000000000000000000008152600401611e149061399b565b60405180910390fd5b805181602001fd5b63150b7a0260e01b7bffffffffffffffffffffffffffffffffffffffffffffffffffffffff1916817bffffffffffffffffffffffffffffffffffffffffffffffffffffffff191614915050611e7a565b600190505b949350505050565b60007f80ac58cd000000000000000000000000000000000000000000000000000000007bffffffffffffffffffffffffffffffffffffffffffffffffffffffff1916827bffffffffffffffffffffffffffffffffffffffffffffffffffffffff19161480611f4d57507f5b5e139f000000000000000000000000000000000000000000000000000000007bffffffffffffffffffffffffffffffffffffffffffffffffffffffff1916827bffffffffffffffffffffffffffffffffffffffffffffffffffffffff1916145b80611f5d5750611f5c82612256565b5b9050919050565b611f6f8383836122c0565b600073ffffffffffffffffffffffffffffffffffffffff168373ffffffffffffffffffffffffffffffffffffffff1603611fb157611fac816122c5565b611ff0565b8173ffffffffffffffffffffffffffffffffffffffff168373ffffffffffffffffffffffffffffffffffffffff1614611fef57611fee838261230e565b5b5b600073ffffffffffffffffffffffffffffffffffffffff168273ffffffffffffffffffffffffffffffffffffffff16036120325761202d8161247b565b612071565b8273ffffffffffffffffffffffffffffffffffffffff168273ffffffffffffffffffffffffffffffffffffffff16146120705761206f828261254c565b5b5b505050565b600073ffffffffffffffffffffffffffffffffffffffff168273ffffffffffffffffffffffffffffffffffffffff16036120e5576040517f08c379a00000000000000000000000000000000000000000000000000000000081526004016120dc90613bd9565b60405180910390fd5b6120ee8161129a565b1561212e576040517f08c379a000000000000000000000000000000000000000000000000000000000815260040161212590613c45565b60405180910390fd5b61213a60008383611a54565b6001600360008473ffffffffffffffffffffffffffffffffffffffff1673ffffffffffffffffffffffffffffffffffffffff168152602001908152602001600020600082825461218a9190613801565b92505081905550816002600083815260200190815260200160002060006101000a81548173ffffffffffffffffffffffffffffffffffffffff021916908373ffffffffffffffffffffffffffffffffffffffff160217905550808273ffffffffffffffffffffffffffffffffffffffff16600073ffffffffffffffffffffffffffffffffffffffff167fddf252ad1be2c89b69c2b068fc378daa952ba7f163c4a11628f55a4df523b3ef60405160405180910390a45050565b600080823b905060008111915050919050565b60007f01ffc9a7000000000000000000000000000000000000000000000000000000007bffffffffffffffffffffffffffffffffffffffffffffffffffffffff1916827bffffffffffffffffffffffffffffffffffffffffffffffffffffffff1916149050919050565b505050565b6008805490506009600083815260200190815260200160002081905550600881908060018154018082558091505060019003906000526020600020016000909190919091505550565b6000600161231b84610cb5565b61232591906137cd565b905060006007600084815260200190815260200160002054905081811461240a576000600660008673ffffffffffffffffffffffffffffffffffffffff1673ffffffffffffffffffffffffffffffffffffffff168152602001908152602001600020600084815260200190815260200160002054905080600660008773ffffffffffffffffffffffffffffffffffffffff1673ffffffffffffffffffffffffffffffffffffffff168152602001908152602001600020600084815260200190815260200160002081905550816007600083815260200190815260200160002081905550505b6007600084815260200190815260200160002060009055600660008573ffffffffffffffffffffffffffffffffffffffff1673ffffffffffffffffffffffffffffffffffffffff16815260200190815260200160002060008381526020019081526020016000206000905550505050565b6000600160088054905061248f91906137cd565b90506000600960008481526020019081526020016000205490506000600883815481106124bf576124be613246565b5b9060005260206000200154905080600883815481106124e1576124e0613246565b5b9060005260206000200181905550816009600083815260200190815260200160002081905550600960008581526020019081526020016000206000905560088054806125305761252f613c65565b5b6001900381819060005260206000200160009055905550505050565b600061255783610cb5565b905081600660008573ffffffffffffffffffffffffffffffffffffffff1673ffffffffffffffffffffffffffffffffffffffff168152602001908152602001600020600083815260200190815260200160002081905550806007600084815260200190815260200160002081905550505050565b8280546125d790612e17565b90600052602060002090601f0160209004810192826125f95760008555612640565b82601f1061261257805160ff1916838001178555612640565b82800160010185558215612640579182015b8281111561263f578251825591602001919060010190612624565b5b50905061264d9190612651565b5090565b5b8082111561266a576000816000905550600101612652565b5090565b6000604051905090565b600080fd5b600080fd5b60007fffffffff0000000000000000000000000000000000000000000000000000000082169050919050565b6126b781612682565b81146126c257600080fd5b50565b6000813590506126d4816126ae565b92915050565b6000602082840312156126f0576126ef612678565b5b60006126fe848285016126c5565b91505092915050565b60008115159050919050565b61271c81612707565b82525050565b60006020820190506127376000830184612713565b92915050565b600081519050919050565b600082825260208201905092915050565b60005b8381101561277757808201518184015260208101905061275c565b83811115612786576000848401525b50505050565b6000601f19601f8301169050919050565b60006127a88261273d565b6127b28185612748565b93506127c2818560208601612759565b6127cb8161278c565b840191505092915050565b600060208201905081810360008301526127f0818461279d565b905092915050565b6000819050919050565b61280b816127f8565b811461281657600080fd5b50565b60008135905061282881612802565b92915050565b60006020828403121561284457612843612678565b5b600061285284828501612819565b91505092915050565b600073ffffffffffffffffffffffffffffffffffffffff82169050919050565b60006128868261285b565b9050919050565b6128968161287b565b82525050565b60006020820190506128b1600083018461288d565b92915050565b6128c08161287b565b81146128cb57600080fd5b50565b6000813590506128dd816128b7565b92915050565b600080604083850312156128fa576128f9612678565b5b6000612908858286016128ce565b925050602061291985828601612819565b9150509250929050565b61292c816127f8565b82525050565b60006020820190506129476000830184612923565b92915050565b60008060006060848603121561296657612965612678565b5b6000612974868287016128ce565b9350506020612985868287016128ce565b925050604061299686828701612819565b9150509250925092565b6000819050919050565b6129b3816129a0565b81146129be57600080fd5b50565b6000813590506129d0816129aa565b92915050565b6000602082840312156129ec576129eb612678565b5b60006129fa848285016129c1565b91505092915050565b612a0c816129a0565b82525050565b6000602082019050612a276000830184612a03565b92915050565b60008060408385031215612a4457612a43612678565b5b6000612a52858286016129c1565b9250506020612a63858286016128ce565b9150509250929050565b600080fd5b600080fd5b7f4e487b7100000000000000000000000000000000000000000000000000000000600052604160045260246000fd5b612aaf8261278c565b810181811067ffffffffffffffff82111715612ace57612acd612a77565b5b80604052505050565b6000612ae161266e565b9050612aed8282612aa6565b919050565b600067ffffffffffffffff821115612b0d57612b0c612a77565b5b612b168261278c565b9050602081019050919050565b82818337600083830152505050565b6000612b45612b4084612af2565b612ad7565b905082815260208101848484011115612b6157612b60612a72565b5b612b6c848285612b23565b509392505050565b600082601f830112612b8957612b88612a6d565b5b8135612b99848260208601612b32565b91505092915050565b600060208284031215612bb857612bb7612678565b5b600082013567ffffffffffffffff811115612bd657612bd561267d565b5b612be284828501612b74565b91505092915050565b600060208284031215612c0157612c00612678565b5b6000612c0f848285016128ce565b91505092915050565b612c2181612707565b8114612c2c57600080fd5b50565b600081359050612c3e81612c18565b92915050565b60008060408385031215612c5b57612c5a612678565b5b6000612c69858286016128ce565b9250506020612c7a85828601612c2f565b9150509250929050565b600067ffffffffffffffff821115612c9f57612c9e612a77565b5b612ca88261278c565b9050602081019050919050565b6000612cc8612cc384612c84565b612ad7565b905082815260208101848484011115612ce457612ce3612a72565b5b612cef848285612b23565b509392505050565b600082601f830112612d0c57612d0b612a6d565b5b8135612d1c848260208601612cb5565b91505092915050565b60008060008060808587031215612d3f57612d3e612678565b5b6000612d4d878288016128ce565b9450506020612d5e878288016128ce565b9350506040612d6f87828801612819565b925050606085013567ffffffffffffffff811115612d9057612d8f61267d565b5b612d9c87828801612cf7565b91505092959194509250565b60008060408385031215612dbf57612dbe612678565b5b6000612dcd858286016128ce565b9250506020612dde858286016128ce565b9150509250929050565b7f4e487b7100000000000000000000000000000000000000000000000000000000600052602260045260246000fd5b60006002820490506001821680612e2f57607f821691505b602082108103612e4257612e41612de8565b5b50919050565b7f4552433732313a20617070726f76656420717565727920666f72206e6f6e657860008201527f697374656e7420746f6b656e0000000000000000000000000000000000000000602082015250565b6000612ea4602c83612748565b9150612eaf82612e48565b604082019050919050565b60006020820190508181036000830152612ed381612e97565b9050919050565b7f4552433732313a20617070726f76616c20746f2063757272656e74206f776e6560008201527f7200000000000000000000000000000000000000000000000000000000000000602082015250565b6000612f36602183612748565b9150612f4182612eda565b604082019050919050565b60006020820190508181036000830152612f6581612f29565b9050919050565b7f4552433732313a20617070726f76652063616c6c6572206973206e6f74206f7760008201527f6e6572206e6f7220617070726f76656420666f7220616c6c0000000000000000602082015250565b6000612fc8603883612748565b9150612fd382612f6c565b604082019050919050565b60006020820190508181036000830152612ff781612fbb565b9050919050565b7f4552433732313a207472616e736665722063616c6c6572206973206e6f74206f60008201527f776e6572206e6f7220617070726f766564000000000000000000000000000000602082015250565b600061305a603183612748565b915061306582612ffe565b604082019050919050565b600060208201905081810360008301526130898161304d565b9050919050565b7f455243373231456e756d657261626c653a206f776e657220696e646578206f7560008201527f74206f6620626f756e6473000000000000000000000000000000000000000000602082015250565b60006130ec602b83612748565b91506130f782613090565b604082019050919050565b6000602082019050818103600083015261311b816130df565b9050919050565b7f416363657373436f6e74726f6c3a2063616e206f6e6c792072656e6f756e636560008201527f20726f6c657320666f722073656c660000000000000000000000000000000000602082015250565b600061317e602f83612748565b915061318982613122565b604082019050919050565b600060208201905081810360008301526131ad81613171565b9050919050565b7f455243373231456e756d657261626c653a20676c6f62616c20696e646578206f60008201527f7574206f6620626f756e64730000000000000000000000000000000000000000602082015250565b6000613210602c83612748565b915061321b826131b4565b604082019050919050565b6000602082019050818103600083015261323f81613203565b9050919050565b7f4e487b7100000000000000000000000000000000000000000000000000000000600052603260045260246000fd5b7f4552433732313a206f776e657220717565727920666f72206e6f6e657869737460008201527f656e7420746f6b656e0000000000000000000000000000000000000000000000602082015250565b60006132d1602983612748565b91506132dc82613275565b604082019050919050565b60006020820190508181036000830152613300816132c4565b9050919050565b7f4552433732315072657365744d696e7465725061757365724175746f49643a2060008201527f6d7573742068617665206d696e74657220726f6c6520746f206d696e74000000602082015250565b6000613363603d83612748565b915061336e82613307565b604082019050919050565b6000602082019050818103600083015261339281613356565b9050919050565b600081905092915050565b60006133af8261273d565b6133b98185613399565b93506133c9818560208601612759565b80840191505092915050565b60006133e182846133a4565b915081905092915050565b7f54686520746f6b656e205552492073686f756c6420626520756e697175650000600082015250565b6000613422601e83612748565b915061342d826133ec565b602082019050919050565b6000602082019050818103600083015261345181613415565b9050919050565b7f4552433732313a2062616c616e636520717565727920666f7220746865207a6560008201527f726f206164647265737300000000000000000000000000000000000000000000602082015250565b60006134b4602a83612748565b91506134bf82613458565b604082019050919050565b600060208201905081810360008301526134e3816134a7565b9050919050565b7f4552433732313a20617070726f766520746f2063616c6c657200000000000000600082015250565b6000613520601983612748565b915061352b826134ea565b602082019050919050565b6000602082019050818103600083015261354f81613513565b9050919050565b7f4552433732314d657461646174613a2055524920717565727920666f72206e6f60008201527f6e6578697374656e7420746f6b656e0000000000000000000000000000000000602082015250565b60006135b2602f83612748565b91506135bd82613556565b604082019050919050565b600060208201905081810360008301526135e1816135a5565b9050919050565b7f4552433732313a206f70657261746f7220717565727920666f72206e6f6e657860008201527f697374656e7420746f6b656e0000000000000000000000000000000000000000602082015250565b6000613644602c83612748565b915061364f826135e8565b604082019050919050565b6000602082019050818103600083015261367381613637565b9050919050565b7f4552433732313a207472616e73666572206f6620746f6b656e2074686174206960008201527f73206e6f74206f776e0000000000000000000000000000000000000000000000602082015250565b60006136d6602983612748565b91506136e18261367a565b604082019050919050565b60006020820190508181036000830152613705816136c9565b9050919050565b7f4552433732313a207472616e7366657220746f20746865207a65726f2061646460008201527f7265737300000000000000000000000000000000000000000000000000000000602082015250565b6000613768602483612748565b91506137738261370c565b604082019050919050565b600060208201905081810360008301526137978161375b565b9050919050565b7f4e487b7100000000000000000000000000000000000000000000000000000000600052601160045260246000fd5b60006137d8826127f8565b91506137e3836127f8565b9250828210156137f6576137f561379e565b5b828203905092915050565b600061380c826127f8565b9150613817836127f8565b9250827fffffffffffffffffffffffffffffffffffffffffffffffffffffffffffffffff0382111561384c5761384b61379e565b5b828201905092915050565b7f416363657373436f6e74726f6c3a206163636f756e7420000000000000000000600082015250565b600061388d601783613399565b915061389882613857565b601782019050919050565b7f206973206d697373696e6720726f6c6520000000000000000000000000000000600082015250565b60006138d9601183613399565b91506138e4826138a3565b601182019050919050565b60006138fa82613880565b915061390682856133a4565b9150613911826138cc565b915061391d82846133a4565b91508190509392505050565b7f4552433732313a207472616e7366657220746f206e6f6e20455243373231526560008201527f63656976657220696d706c656d656e7465720000000000000000000000000000602082015250565b6000613985603283612748565b915061399082613929565b604082019050919050565b600060208201905081810360008301526139b481613978565b9050919050565b60006139c6826127f8565b91506139d1836127f8565b9250817fffffffffffffffffffffffffffffffffffffffffffffffffffffffffffffffff0483118215151615613a0a57613a0961379e565b5b828202905092915050565b6000613a20826127f8565b915060008203613a3357613a3261379e565b5b600182039050919050565b7f537472696e67733a20686578206c656e67746820696e73756666696369656e74600082015250565b6000613a74602083612748565b9150613a7f82613a3e565b602082019050919050565b60006020820190508181036000830152613aa381613a67565b9050919050565b600081519050919050565b600082825260208201905092915050565b6000613ad182613aaa565b613adb8185613ab5565b9350613aeb818560208601612759565b613af48161278c565b840191505092915050565b6000608082019050613b14600083018761288d565b613b21602083018661288d565b613b2e6040830185612923565b8181036060830152613b408184613ac6565b905095945050505050565b600081519050613b5a816126ae565b92915050565b600060208284031215613b7657613b75612678565b5b6000613b8484828501613b4b565b91505092915050565b7f4552433732313a206d696e7420746f20746865207a65726f2061646472657373600082015250565b6000613bc3602083612748565b9150613bce82613b8d565b602082019050919050565b60006020820190508181036000830152613bf281613bb6565b9050919050565b7f4552433732313a20746f6b656e20616c7265616479206d696e74656400000000600082015250565b6000613c2f601c83612748565b9150613c3a82613bf9565b602082019050919050565b60006020820190508181036000830152613c5e81613c22565b9050919050565b7f4e487b7100000000000000000000000000000000000000000000000000000000600052603160045260246000fdfea26469706673582212208f59a5a2b5c4e9170a20f5c8ad8f54fb8569ca63173dc0b9c65933d77e1b032164736f6c634300080e0033",
  "immutableReferences": {},
  "source": "// SPDX-License-Identifier: MIT\r\npragma solidity ^0.8.0;\r\n\r\nimport '@openzeppelin/contracts/token/ERC721/ERC721.sol';\r\nimport '@openzeppelin/contracts/token/ERC721/extensions/ERC721Enumerable.sol';\r\nimport '@openzeppelin/contracts/access/AccessControl.sol';\r\n\r\ncontract NFTCollection is ERC721, ERC721Enumerable, AccessControl {\r\n    bytes32 public constant MINTER_ROLE = keccak256('MINTER_ROLE');\r\n\r\n    string[] public tokenURIs;\r\n    mapping(string => bool) _tokenURIExists;\r\n    mapping(uint256 => string) _tokenIdToTokenURI;\r\n\r\n    constructor(string memory _name, string memory _symbol) ERC721(_name, _symbol) {\r\n        _setupRole(DEFAULT_ADMIN_ROLE, _msgSender());\r\n        _setupRole(MINTER_ROLE, _msgSender());\r\n    }\r\n\r\n    function _beforeTokenTransfer(\r\n        address from,\r\n        address to,\r\n        uint256 tokenId\r\n    ) internal override(ERC721, ERC721Enumerable) {\r\n        super._beforeTokenTransfer(from, to, tokenId);\r\n    }\r\n\r\n    function supportsInterface(bytes4 interfaceId) public view override(ERC721, ERC721Enumerable, AccessControl) returns (bool) {\r\n        return super.supportsInterface(interfaceId);\r\n    }\r\n\r\n    function tokenURI(uint256 tokenId) public view override returns (string memory) {\r\n        require(_exists(tokenId), 'ERC721Metadata: URI query for nonexistent token');\r\n        return _tokenIdToTokenURI[tokenId];\r\n    }\r\n\r\n    function safeMint(string memory _tokenURI) public {\r\n        require(hasRole(MINTER_ROLE, _msgSender()), \"ERC721PresetMinterPauserAutoId: must have minter role to mint\");\r\n        require(!_tokenURIExists[_tokenURI], 'The token URI should be unique');\r\n        tokenURIs.push(_tokenURI);\r\n        uint256 _id = tokenURIs.length; // based on 1\r\n        _tokenIdToTokenURI[_id] = _tokenURI;\r\n        _safeMint(msg.sender, _id);\r\n        _tokenURIExists[_tokenURI] = true;\r\n    }\r\n}\r\n",
  "sourcePath": "C:\\github\\trayanm\\TTMMarket\\src\\contracts\\NFTCollection.sol",
  "compiler": {
    "name": "solc",
    "version": "0.8.14+commit.80d49f37.Emscripten.clang"
  },
  "schemaVersion": "3.4.7",
  "updatedAt": "2022-06-10T17:38:38.639Z",
  "devdoc": {
    "kind": "dev",
    "methods": {
      "approve(address,uint256)": {
        "details": "See {IERC721-approve}."
      },
      "balanceOf(address)": {
        "details": "See {IERC721-balanceOf}."
      },
      "getApproved(uint256)": {
        "details": "See {IERC721-getApproved}."
      },
      "getRoleAdmin(bytes32)": {
        "details": "Returns the admin role that controls `role`. See {grantRole} and {revokeRole}. To change a role's admin, use {_setRoleAdmin}."
      },
      "grantRole(bytes32,address)": {
        "details": "Grants `role` to `account`. If `account` had not been already granted `role`, emits a {RoleGranted} event. Requirements: - the caller must have ``role``'s admin role."
      },
      "hasRole(bytes32,address)": {
        "details": "Returns `true` if `account` has been granted `role`."
      },
      "isApprovedForAll(address,address)": {
        "details": "See {IERC721-isApprovedForAll}."
      },
      "name()": {
        "details": "See {IERC721Metadata-name}."
      },
      "ownerOf(uint256)": {
        "details": "See {IERC721-ownerOf}."
      },
      "renounceRole(bytes32,address)": {
        "details": "Revokes `role` from the calling account. Roles are often managed via {grantRole} and {revokeRole}: this function's purpose is to provide a mechanism for accounts to lose their privileges if they are compromised (such as when a trusted device is misplaced). If the calling account had been granted `role`, emits a {RoleRevoked} event. Requirements: - the caller must be `account`."
      },
      "revokeRole(bytes32,address)": {
        "details": "Revokes `role` from `account`. If `account` had been granted `role`, emits a {RoleRevoked} event. Requirements: - the caller must have ``role``'s admin role."
      },
      "safeTransferFrom(address,address,uint256)": {
        "details": "See {IERC721-safeTransferFrom}."
      },
      "safeTransferFrom(address,address,uint256,bytes)": {
        "details": "See {IERC721-safeTransferFrom}."
      },
      "setApprovalForAll(address,bool)": {
        "details": "See {IERC721-setApprovalForAll}."
      },
      "symbol()": {
        "details": "See {IERC721Metadata-symbol}."
      },
      "tokenByIndex(uint256)": {
        "details": "See {IERC721Enumerable-tokenByIndex}."
      },
      "tokenOfOwnerByIndex(address,uint256)": {
        "details": "See {IERC721Enumerable-tokenOfOwnerByIndex}."
      },
      "tokenURI(uint256)": {
        "details": "See {IERC721Metadata-tokenURI}."
      },
      "totalSupply()": {
        "details": "See {IERC721Enumerable-totalSupply}."
      },
      "transferFrom(address,address,uint256)": {
        "details": "See {IERC721-transferFrom}."
      }
    },
    "version": 1
  },
  "userdoc": {
    "kind": "user",
    "methods": {},
    "version": 1
  }
}