{
  "contractName": "SimpleContract",
  "abi": [
    {
      "inputs": [
        {
          "internalType": "string",
          "name": "_someString",
          "type": "string"
        }
      ],
      "stateMutability": "nonpayable",
      "type": "constructor"
    },
    {
      "inputs": [],
      "name": "getSomeString",
      "outputs": [
        {
          "internalType": "string",
          "name": "",
          "type": "string"
        }
      ],
      "stateMutability": "view",
      "type": "function"
    },
    {
      "inputs": [
        {
          "internalType": "string",
          "name": "_someString",
          "type": "string"
        }
      ],
      "name": "setSomeString",
      "outputs": [],
      "stateMutability": "nonpayable",
      "type": "function"
    }
  ],
  "bytecode": "0x608060405234801561001057600080fd5b5060405161067238038061067283398101604081905261002f91610071565b600061003b82826101e2565b50506102a7565b7f4e487b7100000000000000000000000000000000000000000000000000000000600052604160045260246000fd5b6000602080838503121561008457600080fd5b82516001604060020a038082111561009b57600080fd5b818501915085601f8301126100af57600080fd5b8151818111156100c1576100c1610042565b604051601f8201601f19908116603f011681019083821181831017156100e9576100e9610042565b81604052828152888684870101111561010157600080fd5b600093505b828410156101235784840186015181850187015292850192610106565b828411156101345760008684830101525b98975050505050505050565b60028104600182168061015457607f821691505b60208210810361018d577f4e487b7100000000000000000000000000000000000000000000000000000000600052602260045260246000fd5b50919050565b601f8211156101dd576000818152602081206020601f860104810160208610156101ba5750805b6020601f860104820191505b818110156101d9578281556001016101c6565b5050505b505050565b81516001604060020a038111156101fb576101fb610042565b61020f816102098454610140565b84610193565b602080601f831160018114610248576000841561022c5750858301515b60028086026008870290910a60001904198216178655506101d9565b600085815260208120601f198616915b8281101561027757888601518255948401946001909101908401610258565b508582101561029757878501516008601f88160260020a60001904191681555b5050505050600202600101905550565b6103bc806102b66000396000f3fe608060405234801561001057600080fd5b50600436106100395760e060020a600035046349d2957a811461003e578063599e46031461005c575b600080fd5b610046610071565b6040516100539190610113565b60405180910390f35b61006f61006a366004610182565b610103565b005b60606000805461008090610233565b80601f01602080910402602001604051908101604052809291908181526020018280546100ac90610233565b80156100f95780601f106100ce576101008083540402835291602001916100f9565b820191906000526020600020905b8154815290600101906020018083116100dc57829003601f168201915b5050505050905090565b600061010f82826102c0565b5050565b600060208083528351808285015260005b8181101561014057858101830151858201604001528201610124565b81811115610152576000604083870101525b50601f01601f1916929092016040019392505050565b60e060020a634e487b710260009081526041600452602490fd5b60006020828403121561019457600080fd5b813567ffffffffffffffff808211156101ac57600080fd5b818401915084601f8301126101c057600080fd5b8135818111156101d2576101d2610168565b604051601f8201601f19908116603f011681019083821181831017156101fa576101fa610168565b8160405282815287602084870101111561021357600080fd5b826020860160208301376000928101602001929092525095945050505050565b60028104600182168061024757607f821691505b60208210810361026b5760e060020a634e487b710260009081526022600452602490fd5b50919050565b601f8211156102bb576000818152602081206020601f860104810160208610156102985750805b6020601f860104820191505b818110156102b7578281556001016102a4565b5050505b505050565b815167ffffffffffffffff8111156102da576102da610168565b6102ee816102e88454610233565b84610271565b602080601f831160018114610327576000841561030b5750858301515b60028086026008870290910a60001904198216178655506102b7565b600085815260208120601f198616915b8281101561035657888601518255948401946001909101908401610337565b508582101561037657878501516008601f88160260020a60001904191681555b505050505060020260010190555056fea2646970667358221220aff7780cf5c6316a18f745b8ebe62b89cb2c099acc9e7a87d28ff6c1dcc6f65364736f6c634300080f0033",
  "immutableReferences": {},
  "source": "// SPDX-License-Identifier: ISC\r\npragma solidity ^0.8.0;\r\n\r\ncontract SimpleContract {\r\n    string someString;\r\n\r\n    constructor(string memory _someString) public {\r\n        someString = _someString;\r\n    }\r\n\r\n    function getSomeString() public view returns (string memory) {\r\n        return someString;\r\n    }\r\n\r\n    function setSomeString(string memory _someString) public {\r\n        someString = _someString;\r\n    }\r\n}\r\n",
  "sourcePath": "C:\\github\\trayanm\\TTMMarket\\src\\contracts\\SimpleContract.sol",
  "compiler": {
    "name": "solc",
    "version": "0.8.15+commit.e14f2714.Emscripten.clang"
  },
  "schemaVersion": "3.4.7",
  "updatedAt": "2022-06-27T21:50:51.136Z",
  "devdoc": {
    "kind": "dev",
    "methods": {},
    "version": 1
  },
  "userdoc": {
    "kind": "user",
    "methods": {},
    "version": 1
  }
}