{
  "contractName": "SimpleContract",
  "abi": [
    {
      "inputs": [
        {
          "internalType": "string",
          "name": "_someString",
          "type": "string"
        }
      ],
      "stateMutability": "nonpayable",
      "type": "constructor"
    },
    {
      "inputs": [],
      "name": "getSomeString",
      "outputs": [
        {
          "internalType": "string",
          "name": "",
          "type": "string"
        }
      ],
      "stateMutability": "view",
      "type": "function"
    },
    {
      "inputs": [
        {
          "internalType": "string",
          "name": "_someString",
          "type": "string"
        }
      ],
      "name": "setSomeString",
      "outputs": [],
      "stateMutability": "nonpayable",
      "type": "function"
    }
  ],
  "bytecode": "0x608060405234801561001057600080fd5b506040516106b53803806106b583398101604081905261002f91610071565b600061003b82826101e2565b50506102a7565b7f4e487b7100000000000000000000000000000000000000000000000000000000600052604160045260246000fd5b6000602080838503121561008457600080fd5b82516001604060020a038082111561009b57600080fd5b818501915085601f8301126100af57600080fd5b8151818111156100c1576100c1610042565b604051601f8201601f19908116603f011681019083821181831017156100e9576100e9610042565b81604052828152888684870101111561010157600080fd5b600093505b828410156101235784840186015181850187015292850192610106565b828411156101345760008684830101525b98975050505050505050565b60028104600182168061015457607f821691505b60208210810361018d577f4e487b7100000000000000000000000000000000000000000000000000000000600052602260045260246000fd5b50919050565b601f8211156101dd576000818152602081206020601f860104810160208610156101ba5750805b6020601f860104820191505b818110156101d9578281556001016101c6565b5050505b505050565b81516001604060020a038111156101fb576101fb610042565b61020f816102098454610140565b84610193565b602080601f831160018114610248576000841561022c5750858301515b60028086026008870290910a60001904198216178655506101d9565b600085815260208120601f198616915b8281101561027757888601518255948401946001909101908401610258565b508582101561029757878501516008601f88160260020a60001904191681555b5050505050600202600101905550565b6103ff806102b66000396000f3fe608060405234801561001057600080fd5b5060043610610052577c0100000000000000000000000000000000000000000000000000000000600035046349d2957a8114610057578063599e460314610075575b600080fd5b61005f61008a565b60405161006c919061012c565b60405180910390f35b6100886100833660046101b0565b61011c565b005b60606000805461009990610261565b80601f01602080910402602001604051908101604052809291908181526020018280546100c590610261565b80156101125780601f106100e757610100808354040283529160200191610112565b820191906000526020600020905b8154815290600101906020018083116100f557829003601f168201915b5050505050905090565b60006101288282610303565b5050565b600060208083528351808285015260005b818110156101595785810183015185820160400152820161013d565b8181111561016b576000604083870101525b50601f01601f1916929092016040019392505050565b7f4e487b7100000000000000000000000000000000000000000000000000000000600052604160045260246000fd5b6000602082840312156101c257600080fd5b813567ffffffffffffffff808211156101da57600080fd5b818401915084601f8301126101ee57600080fd5b81358181111561020057610200610181565b604051601f8201601f19908116603f0116810190838211818310171561022857610228610181565b8160405282815287602084870101111561024157600080fd5b826020860160208301376000928101602001929092525095945050505050565b60028104600182168061027557607f821691505b6020821081036102ae577f4e487b7100000000000000000000000000000000000000000000000000000000600052602260045260246000fd5b50919050565b601f8211156102fe576000818152602081206020601f860104810160208610156102db5750805b6020601f860104820191505b818110156102fa578281556001016102e7565b5050505b505050565b815167ffffffffffffffff81111561031d5761031d610181565b6103318161032b8454610261565b846102b4565b602080601f83116001811461036a576000841561034e5750858301515b60028086026008870290910a60001904198216178655506102fa565b600085815260208120601f198616915b828110156103995788860151825594840194600190910190840161037a565b50858210156103b957878501516008601f88160260020a60001904191681555b505050505060020260010190555056fea2646970667358221220ed5d2b2754cbc6350608a79782a49124de50bef21d3725c1a632b11a624d77ca64736f6c634300080f0033",
  "immutableReferences": {},
  "source": "// SPDX-License-Identifier: ISC\r\npragma solidity ^0.8.0;\r\n\r\ncontract SimpleContract {\r\n    string someString;\r\n\r\n    constructor(string memory _someString) public {\r\n        someString = _someString;\r\n    }\r\n\r\n    function getSomeString() public view returns (string memory) {\r\n        return someString;\r\n    }\r\n\r\n    function setSomeString(string memory _someString) public {\r\n        someString = _someString;\r\n    }\r\n}\r\n",
  "sourcePath": "C:\\github\\trayanm\\TTMMarket\\src\\contracts\\SimpleContract.sol",
  "compiler": {
    "name": "solc",
    "version": "0.8.15+commit.e14f2714.Emscripten.clang"
  },
  "schemaVersion": "3.4.7",
  "updatedAt": "2022-06-20T19:09:11.675Z",
  "devdoc": {
    "kind": "dev",
    "methods": {},
    "version": 1
  },
  "userdoc": {
    "kind": "user",
    "methods": {},
    "version": 1
  }
}